{
	"contracts/calc.sol": {
		"Calculator": {
			"abi": [
				{
					"inputs": [
						{
							"internalType": "int256",
							"name": "a",
							"type": "int256"
						}
					],
					"name": "add",
					"outputs": [],
					"stateMutability": "nonpayable",
					"type": "function"
				},
				{
					"inputs": [],
					"name": "clear",
					"outputs": [],
					"stateMutability": "nonpayable",
					"type": "function"
				},
				{
					"inputs": [
						{
							"internalType": "int256",
							"name": "a",
							"type": "int256"
						}
					],
					"name": "divide",
					"outputs": [],
					"stateMutability": "nonpayable",
					"type": "function"
				},
				{
					"inputs": [],
					"name": "factorial",
					"outputs": [
						{
							"internalType": "int256",
							"name": "",
							"type": "int256"
						}
					],
					"stateMutability": "nonpayable",
					"type": "function"
				},
				{
					"inputs": [],
					"name": "lastResult",
					"outputs": [
						{
							"internalType": "int256",
							"name": "",
							"type": "int256"
						}
					],
					"stateMutability": "view",
					"type": "function"
				},
				{
					"inputs": [
						{
							"internalType": "int256",
							"name": "a",
							"type": "int256"
						}
					],
					"name": "modulo",
					"outputs": [
						{
							"internalType": "int256",
							"name": "",
							"type": "int256"
						}
					],
					"stateMutability": "nonpayable",
					"type": "function"
				},
				{
					"inputs": [
						{
							"internalType": "int256",
							"name": "a",
							"type": "int256"
						}
					],
					"name": "multiply",
					"outputs": [],
					"stateMutability": "nonpayable",
					"type": "function"
				},
				{
					"inputs": [
						{
							"internalType": "uint256",
							"name": "exponent",
							"type": "uint256"
						}
					],
					"name": "power",
					"outputs": [
						{
							"internalType": "int256",
							"name": "",
							"type": "int256"
						}
					],
					"stateMutability": "nonpayable",
					"type": "function"
				},
				{
					"inputs": [
						{
							"internalType": "uint256",
							"name": "n",
							"type": "uint256"
						}
					],
					"name": "root",
					"outputs": [
						{
							"internalType": "int256",
							"name": "",
							"type": "int256"
						}
					],
					"stateMutability": "nonpayable",
					"type": "function"
				},
				{
					"inputs": [
						{
							"internalType": "int256",
							"name": "a",
							"type": "int256"
						}
					],
					"name": "subtract",
					"outputs": [],
					"stateMutability": "nonpayable",
					"type": "function"
				}
			],
			"devdoc": {
				"kind": "dev",
				"methods": {},
				"version": 1
			},
			"evm": {
				"assembly": "    /* \"contracts/calc.sol\":142:1807  contract Calculator {... */\n  mstore(0x40, 0x80)\n  callvalue\n  dup1\n  iszero\n  tag_1\n  jumpi\n  0x00\n  dup1\n  revert\ntag_1:\n  pop\n  dataSize(sub_0)\n  dup1\n  dataOffset(sub_0)\n  0x00\n  codecopy\n  0x00\n  return\nstop\n\nsub_0: assembly {\n        /* \"contracts/calc.sol\":142:1807  contract Calculator {... */\n      mstore(0x40, 0x80)\n      callvalue\n      dup1\n      iszero\n      tag_1\n      jumpi\n      0x00\n      dup1\n      revert\n    tag_1:\n      pop\n      jumpi(tag_2, lt(calldatasize, 0x04))\n      shr(0xe0, calldataload(0x00))\n      dup1\n      0xaaa044dc\n      gt\n      tag_13\n      jumpi\n      dup1\n      0xaaa044dc\n      eq\n      tag_8\n      jumpi\n      dup1\n      0xabcc11d8\n      eq\n      tag_9\n      jumpi\n      dup1\n      0xae0f6166\n      eq\n      tag_10\n      jumpi\n      dup1\n      0xcc193fb0\n      eq\n      tag_11\n      jumpi\n      dup1\n      0xe56bf027\n      eq\n      tag_12\n      jumpi\n      jump(tag_2)\n    tag_13:\n      dup1\n      0x1df4f144\n      eq\n      tag_3\n      jumpi\n      dup1\n      0x416eeb95\n      eq\n      tag_4\n      jumpi\n      dup1\n      0x52efea6e\n      eq\n      tag_5\n      jumpi\n      dup1\n      0x87db03b7\n      eq\n      tag_6\n      jumpi\n      dup1\n      0x981111ef\n      eq\n      tag_7\n      jumpi\n    tag_2:\n      0x00\n      dup1\n      revert\n        /* \"contracts/calc.sol\":353:421  function multiply(int256 a) public{... */\n    tag_3:\n      tag_14\n      0x04\n      dup1\n      calldatasize\n      sub\n      dup2\n      add\n      swap1\n      tag_15\n      swap2\n      swap1\n      tag_16\n      jump\t// in\n    tag_15:\n      tag_17\n      jump\t// in\n    tag_14:\n      stop\n        /* \"contracts/calc.sol\":960:1072  function modulo(int256 a) public returns (int256) {... */\n    tag_4:\n      tag_18\n      0x04\n      dup1\n      calldatasize\n      sub\n      dup2\n      add\n      swap1\n      tag_19\n      swap2\n      swap1\n      tag_16\n      jump\t// in\n    tag_19:\n      tag_20\n      jump\t// in\n    tag_18:\n      mload(0x40)\n      tag_21\n      swap2\n      swap1\n      tag_22\n      jump\t// in\n    tag_21:\n      mload(0x40)\n      dup1\n      swap2\n      sub\n      swap1\n      return\n        /* \"contracts/calc.sol\":1308:1365  function clear() public {... */\n    tag_5:\n      tag_23\n      tag_24\n      jump\t// in\n    tag_23:\n      stop\n        /* \"contracts/calc.sol\":202:267  function add(int256 a) public{... */\n    tag_6:\n      tag_25\n      0x04\n      dup1\n      calldatasize\n      sub\n      dup2\n      add\n      swap1\n      tag_26\n      swap2\n      swap1\n      tag_16\n      jump\t// in\n    tag_26:\n      tag_27\n      jump\t// in\n    tag_25:\n      stop\n        /* \"contracts/calc.sol\":1080:1300  function factorial() public returns (int256) {... */\n    tag_7:\n      tag_28\n      tag_29\n      jump\t// in\n    tag_28:\n      mload(0x40)\n      tag_30\n      swap2\n      swap1\n      tag_22\n      jump\t// in\n    tag_30:\n      mload(0x40)\n      dup1\n      swap2\n      sub\n      swap1\n      return\n        /* \"contracts/calc.sol\":429:556  function divide(int256 a) public{... */\n    tag_8:\n      tag_31\n      0x04\n      dup1\n      calldatasize\n      sub\n      dup2\n      add\n      swap1\n      tag_32\n      swap2\n      swap1\n      tag_16\n      jump\t// in\n    tag_32:\n      tag_33\n      jump\t// in\n    tag_31:\n      stop\n        /* \"contracts/calc.sol\":169:193  int256 public lastResult */\n    tag_9:\n      tag_34\n      tag_35\n      jump\t// in\n    tag_34:\n      mload(0x40)\n      tag_36\n      swap2\n      swap1\n      tag_22\n      jump\t// in\n    tag_36:\n      mload(0x40)\n      dup1\n      swap2\n      sub\n      swap1\n      return\n        /* \"contracts/calc.sol\":275:345  function subtract(int256 a) public{... */\n    tag_10:\n      tag_37\n      0x04\n      dup1\n      calldatasize\n      sub\n      dup2\n      add\n      swap1\n      tag_38\n      swap2\n      swap1\n      tag_16\n      jump\t// in\n    tag_38:\n      tag_39\n      jump\t// in\n    tag_37:\n      stop\n        /* \"contracts/calc.sol\":564:720  function power(uint256 exponent) public returns (int256) {... */\n    tag_11:\n      tag_40\n      0x04\n      dup1\n      calldatasize\n      sub\n      dup2\n      add\n      swap1\n      tag_41\n      swap2\n      swap1\n      tag_42\n      jump\t// in\n    tag_41:\n      tag_43\n      jump\t// in\n    tag_40:\n      mload(0x40)\n      tag_44\n      swap2\n      swap1\n      tag_22\n      jump\t// in\n    tag_44:\n      mload(0x40)\n      dup1\n      swap2\n      sub\n      swap1\n      return\n        /* \"contracts/calc.sol\":728:952  function root(uint256 n) public returns (int256) {... */\n    tag_12:\n      tag_45\n      0x04\n      dup1\n      calldatasize\n      sub\n      dup2\n      add\n      swap1\n      tag_46\n      swap2\n      swap1\n      tag_42\n      jump\t// in\n    tag_46:\n      tag_47\n      jump\t// in\n    tag_45:\n      mload(0x40)\n      tag_48\n      swap2\n      swap1\n      tag_22\n      jump\t// in\n    tag_48:\n      mload(0x40)\n      dup1\n      swap2\n      sub\n      swap1\n      return\n        /* \"contracts/calc.sol\":353:421  function multiply(int256 a) public{... */\n    tag_17:\n        /* \"contracts/calc.sol\":412:413  a */\n      dup1\n        /* \"contracts/calc.sol\":398:408  lastResult */\n      0x00\n      dup1\n        /* \"contracts/calc.sol\":398:413  lastResult *= a */\n      dup3\n      dup3\n      sload\n      tag_50\n      swap2\n      swap1\n      tag_51\n      jump\t// in\n    tag_50:\n      swap3\n      pop\n      pop\n      dup2\n      swap1\n      sstore\n      pop\n        /* \"contracts/calc.sol\":353:421  function multiply(int256 a) public{... */\n      pop\n      jump\t// out\n        /* \"contracts/calc.sol\":960:1072  function modulo(int256 a) public returns (int256) {... */\n    tag_20:\n        /* \"contracts/calc.sol\":1002:1008  int256 */\n      0x00\n        /* \"contracts/calc.sol\":1035:1036  a */\n      dup2\n        /* \"contracts/calc.sol\":1021:1031  lastResult */\n      0x00\n      dup1\n        /* \"contracts/calc.sol\":1021:1036  lastResult %= a */\n      dup3\n      dup3\n      sload\n      tag_53\n      swap2\n      swap1\n      tag_54\n      jump\t// in\n    tag_53:\n      swap3\n      pop\n      pop\n      dup2\n      swap1\n      sstore\n      pop\n        /* \"contracts/calc.sol\":1054:1064  lastResult */\n      sload(0x00)\n        /* \"contracts/calc.sol\":1047:1064  return lastResult */\n      swap1\n      pop\n        /* \"contracts/calc.sol\":960:1072  function modulo(int256 a) public returns (int256) {... */\n      swap2\n      swap1\n      pop\n      jump\t// out\n        /* \"contracts/calc.sol\":1308:1365  function clear() public {... */\n    tag_24:\n        /* \"contracts/calc.sol\":1356:1357  0 */\n      0x00\n        /* \"contracts/calc.sol\":1343:1353  lastResult */\n      dup1\n        /* \"contracts/calc.sol\":1343:1357  lastResult = 0 */\n      dup2\n      swap1\n      sstore\n      pop\n        /* \"contracts/calc.sol\":1308:1365  function clear() public {... */\n      jump\t// out\n        /* \"contracts/calc.sol\":202:267  function add(int256 a) public{... */\n    tag_27:\n        /* \"contracts/calc.sol\":256:257  a */\n      dup1\n        /* \"contracts/calc.sol\":242:252  lastResult */\n      0x00\n      dup1\n        /* \"contracts/calc.sol\":242:257  lastResult += a */\n      dup3\n      dup3\n      sload\n      tag_57\n      swap2\n      swap1\n      tag_58\n      jump\t// in\n    tag_57:\n      swap3\n      pop\n      pop\n      dup2\n      swap1\n      sstore\n      pop\n        /* \"contracts/calc.sol\":202:267  function add(int256 a) public{... */\n      pop\n      jump\t// out\n        /* \"contracts/calc.sol\":1080:1300  function factorial() public returns (int256) {... */\n    tag_29:\n        /* \"contracts/calc.sol\":1117:1123  int256 */\n      0x00\n        /* \"contracts/calc.sol\":1158:1159  0 */\n      dup1\n        /* \"contracts/calc.sol\":1144:1154  lastResult */\n      sload(0x00)\n        /* \"contracts/calc.sol\":1144:1159  lastResult >= 0 */\n      slt\n      iszero\n        /* \"contracts/calc.sol\":1136:1207  require(lastResult >= 0, \"Factorial of negative number is not allowed\") */\n      tag_60\n      jumpi\n      mload(0x40)\n      0x08c379a000000000000000000000000000000000000000000000000000000000\n      dup2\n      mstore\n      0x04\n      add\n      tag_61\n      swap1\n      tag_62\n      jump\t// in\n    tag_61:\n      mload(0x40)\n      dup1\n      swap2\n      sub\n      swap1\n      revert\n    tag_60:\n        /* \"contracts/calc.sol\":1238:1263  fact(uint256(lastResult)) */\n      tag_63\n        /* \"contracts/calc.sol\":1251:1261  lastResult */\n      sload(0x00)\n        /* \"contracts/calc.sol\":1238:1242  fact */\n      tag_64\n        /* \"contracts/calc.sol\":1238:1263  fact(uint256(lastResult)) */\n      jump\t// in\n    tag_63:\n        /* \"contracts/calc.sol\":1218:1228  lastResult */\n      0x00\n        /* \"contracts/calc.sol\":1218:1264  lastResult = int256(fact(uint256(lastResult))) */\n      dup2\n      swap1\n      sstore\n      pop\n        /* \"contracts/calc.sol\":1282:1292  lastResult */\n      sload(0x00)\n        /* \"contracts/calc.sol\":1275:1292  return lastResult */\n      swap1\n      pop\n        /* \"contracts/calc.sol\":1080:1300  function factorial() public returns (int256) {... */\n      swap1\n      jump\t// out\n        /* \"contracts/calc.sol\":429:556  function divide(int256 a) public{... */\n    tag_33:\n        /* \"contracts/calc.sol\":485:486  0 */\n      0x00\n        /* \"contracts/calc.sol\":480:481  a */\n      dup2\n        /* \"contracts/calc.sol\":480:486  a != 0 */\n      sub\n        /* \"contracts/calc.sol\":472:522  require(a != 0, \"Division by zero is not allowed\") */\n      tag_66\n      jumpi\n      mload(0x40)\n      0x08c379a000000000000000000000000000000000000000000000000000000000\n      dup2\n      mstore\n      0x04\n      add\n      tag_67\n      swap1\n      tag_68\n      jump\t// in\n    tag_67:\n      mload(0x40)\n      dup1\n      swap2\n      sub\n      swap1\n      revert\n    tag_66:\n        /* \"contracts/calc.sol\":547:548  a */\n      dup1\n        /* \"contracts/calc.sol\":533:543  lastResult */\n      0x00\n      dup1\n        /* \"contracts/calc.sol\":533:548  lastResult /= a */\n      dup3\n      dup3\n      sload\n      tag_69\n      swap2\n      swap1\n      tag_70\n      jump\t// in\n    tag_69:\n      swap3\n      pop\n      pop\n      dup2\n      swap1\n      sstore\n      pop\n        /* \"contracts/calc.sol\":429:556  function divide(int256 a) public{... */\n      pop\n      jump\t// out\n        /* \"contracts/calc.sol\":169:193  int256 public lastResult */\n    tag_35:\n      sload(0x00)\n      dup2\n      jump\t// out\n        /* \"contracts/calc.sol\":275:345  function subtract(int256 a) public{... */\n    tag_39:\n        /* \"contracts/calc.sol\":334:335  a */\n      dup1\n        /* \"contracts/calc.sol\":320:330  lastResult */\n      0x00\n      dup1\n        /* \"contracts/calc.sol\":320:335  lastResult -= a */\n      dup3\n      dup3\n      sload\n      tag_72\n      swap2\n      swap1\n      tag_73\n      jump\t// in\n    tag_72:\n      swap3\n      pop\n      pop\n      dup2\n      swap1\n      sstore\n      pop\n        /* \"contracts/calc.sol\":275:345  function subtract(int256 a) public{... */\n      pop\n      jump\t// out\n        /* \"contracts/calc.sol\":564:720  function power(uint256 exponent) public returns (int256) {... */\n    tag_43:\n        /* \"contracts/calc.sol\":613:619  int256 */\n      0x00\n        /* \"contracts/calc.sol\":675:683  exponent */\n      dup2\n        /* \"contracts/calc.sol\":660:670  lastResult */\n      sload(0x00)\n        /* \"contracts/calc.sol\":652:683  uint256(lastResult) ** exponent */\n      tag_75\n      swap2\n      swap1\n      tag_76\n      jump\t// in\n    tag_75:\n        /* \"contracts/calc.sol\":632:642  lastResult */\n      0x00\n        /* \"contracts/calc.sol\":632:684  lastResult = int256(uint256(lastResult) ** exponent) */\n      dup2\n      swap1\n      sstore\n      pop\n        /* \"contracts/calc.sol\":702:712  lastResult */\n      sload(0x00)\n        /* \"contracts/calc.sol\":695:712  return lastResult */\n      swap1\n      pop\n        /* \"contracts/calc.sol\":564:720  function power(uint256 exponent) public returns (int256) {... */\n      swap2\n      swap1\n      pop\n      jump\t// out\n        /* \"contracts/calc.sol\":728:952  function root(uint256 n) public returns (int256) {... */\n    tag_47:\n        /* \"contracts/calc.sol\":769:775  int256 */\n      0x00\n        /* \"contracts/calc.sol\":810:811  0 */\n      dup1\n        /* \"contracts/calc.sol\":796:806  lastResult */\n      sload(0x00)\n        /* \"contracts/calc.sol\":796:811  lastResult >= 0 */\n      slt\n      iszero\n        /* \"contracts/calc.sol\":788:853  require(lastResult >= 0, \"Cannot take root of a negative number\") */\n      tag_78\n      jumpi\n      mload(0x40)\n      0x08c379a000000000000000000000000000000000000000000000000000000000\n      dup2\n      mstore\n      0x04\n      add\n      tag_79\n      swap1\n      tag_80\n      jump\t// in\n    tag_79:\n      mload(0x40)\n      dup1\n      swap2\n      sub\n      swap1\n      revert\n    tag_78:\n        /* \"contracts/calc.sol\":884:915  nthRoot(uint256(lastResult), n) */\n      tag_81\n        /* \"contracts/calc.sol\":900:910  lastResult */\n      sload(0x00)\n        /* \"contracts/calc.sol\":913:914  n */\n      dup4\n        /* \"contracts/calc.sol\":884:891  nthRoot */\n      tag_82\n        /* \"contracts/calc.sol\":884:915  nthRoot(uint256(lastResult), n) */\n      jump\t// in\n    tag_81:\n        /* \"contracts/calc.sol\":864:874  lastResult */\n      0x00\n        /* \"contracts/calc.sol\":864:916  lastResult = int256(nthRoot(uint256(lastResult), n)) */\n      dup2\n      swap1\n      sstore\n      pop\n        /* \"contracts/calc.sol\":934:944  lastResult */\n      sload(0x00)\n        /* \"contracts/calc.sol\":927:944  return lastResult */\n      swap1\n      pop\n        /* \"contracts/calc.sol\":728:952  function root(uint256 n) public returns (int256) {... */\n      swap2\n      swap1\n      pop\n      jump\t// out\n        /* \"contracts/calc.sol\":1373:1550  function fact(uint256 n) internal pure returns (uint256) {... */\n    tag_64:\n        /* \"contracts/calc.sol\":1421:1428  uint256 */\n      0x00\n        /* \"contracts/calc.sol\":1450:1451  0 */\n      dup1\n        /* \"contracts/calc.sol\":1445:1446  n */\n      dup3\n        /* \"contracts/calc.sol\":1445:1451  n == 0 */\n      sub\n        /* \"contracts/calc.sol\":1441:1543  if (n == 0) {... */\n      tag_84\n      jumpi\n        /* \"contracts/calc.sol\":1475:1476  1 */\n      0x01\n        /* \"contracts/calc.sol\":1468:1476  return 1 */\n      swap1\n      pop\n      jump(tag_83)\n        /* \"contracts/calc.sol\":1441:1543  if (n == 0) {... */\n    tag_84:\n        /* \"contracts/calc.sol\":1520:1531  fact(n - 1) */\n      tag_86\n        /* \"contracts/calc.sol\":1529:1530  1 */\n      0x01\n        /* \"contracts/calc.sol\":1525:1526  n */\n      dup4\n        /* \"contracts/calc.sol\":1525:1530  n - 1 */\n      tag_87\n      swap2\n      swap1\n      tag_88\n      jump\t// in\n    tag_87:\n        /* \"contracts/calc.sol\":1520:1524  fact */\n      tag_64\n        /* \"contracts/calc.sol\":1520:1531  fact(n - 1) */\n      jump\t// in\n    tag_86:\n        /* \"contracts/calc.sol\":1516:1517  n */\n      dup3\n        /* \"contracts/calc.sol\":1516:1531  n * fact(n - 1) */\n      tag_89\n      swap2\n      swap1\n      tag_90\n      jump\t// in\n    tag_89:\n        /* \"contracts/calc.sol\":1509:1531  return n * fact(n - 1) */\n      swap1\n      pop\n        /* \"contracts/calc.sol\":1373:1550  function fact(uint256 n) internal pure returns (uint256) {... */\n    tag_83:\n      swap2\n      swap1\n      pop\n      jump\t// out\n        /* \"contracts/calc.sol\":1558:1804  function nthRoot(uint256 x, uint256 n) internal pure returns (uint256) {... */\n    tag_82:\n        /* \"contracts/calc.sol\":1620:1627  uint256 */\n      0x00\n        /* \"contracts/calc.sol\":1640:1649  uint256 z */\n      dup1\n        /* \"contracts/calc.sol\":1662:1663  2 */\n      0x02\n        /* \"contracts/calc.sol\":1657:1658  n */\n      dup4\n        /* \"contracts/calc.sol\":1653:1654  x */\n      dup6\n        /* \"contracts/calc.sol\":1653:1658  x + n */\n      tag_92\n      swap2\n      swap1\n      tag_93\n      jump\t// in\n    tag_92:\n        /* \"contracts/calc.sol\":1652:1663  (x + n) / 2 */\n      tag_94\n      swap2\n      swap1\n      tag_95\n      jump\t// in\n    tag_94:\n        /* \"contracts/calc.sol\":1640:1663  uint256 z = (x + n) / 2 */\n      swap1\n      pop\n        /* \"contracts/calc.sol\":1674:1683  uint256 y */\n      0x00\n        /* \"contracts/calc.sol\":1686:1687  x */\n      dup5\n        /* \"contracts/calc.sol\":1674:1687  uint256 y = x */\n      swap1\n      pop\n        /* \"contracts/calc.sol\":1698:1778  while (z < y) {... */\n    tag_96:\n        /* \"contracts/calc.sol\":1709:1710  y */\n      dup1\n        /* \"contracts/calc.sol\":1705:1706  z */\n      dup3\n        /* \"contracts/calc.sol\":1705:1710  z < y */\n      lt\n        /* \"contracts/calc.sol\":1698:1778  while (z < y) {... */\n      iszero\n      tag_97\n      jumpi\n        /* \"contracts/calc.sol\":1731:1732  z */\n      dup2\n        /* \"contracts/calc.sol\":1727:1732  y = z */\n      swap1\n      pop\n        /* \"contracts/calc.sol\":1765:1766  2 */\n      0x02\n        /* \"contracts/calc.sol\":1760:1761  z */\n      dup3\n        /* \"contracts/calc.sol\":1756:1757  z */\n      dup4\n        /* \"contracts/calc.sol\":1752:1753  x */\n      dup8\n        /* \"contracts/calc.sol\":1752:1757  x / z */\n      tag_98\n      swap2\n      swap1\n      tag_95\n      jump\t// in\n    tag_98:\n        /* \"contracts/calc.sol\":1752:1761  x / z + z */\n      tag_99\n      swap2\n      swap1\n      tag_93\n      jump\t// in\n    tag_99:\n        /* \"contracts/calc.sol\":1751:1766  (x / z + z) / 2 */\n      tag_100\n      swap2\n      swap1\n      tag_95\n      jump\t// in\n    tag_100:\n        /* \"contracts/calc.sol\":1747:1766  z = (x / z + z) / 2 */\n      swap2\n      pop\n        /* \"contracts/calc.sol\":1698:1778  while (z < y) {... */\n      jump(tag_96)\n    tag_97:\n        /* \"contracts/calc.sol\":1795:1796  y */\n      dup1\n        /* \"contracts/calc.sol\":1788:1796  return y */\n      swap3\n      pop\n      pop\n      pop\n        /* \"contracts/calc.sol\":1558:1804  function nthRoot(uint256 x, uint256 n) internal pure returns (uint256) {... */\n      swap3\n      swap2\n      pop\n      pop\n      jump\t// out\n        /* \"#utility.yul\":88:205   */\n    tag_102:\n        /* \"#utility.yul\":197:198   */\n      0x00\n        /* \"#utility.yul\":194:195   */\n      dup1\n        /* \"#utility.yul\":187:199   */\n      revert\n        /* \"#utility.yul\":334:410   */\n    tag_104:\n        /* \"#utility.yul\":370:377   */\n      0x00\n        /* \"#utility.yul\":399:404   */\n      dup2\n        /* \"#utility.yul\":388:404   */\n      swap1\n      pop\n        /* \"#utility.yul\":334:410   */\n      swap2\n      swap1\n      pop\n      jump\t// out\n        /* \"#utility.yul\":416:536   */\n    tag_105:\n        /* \"#utility.yul\":488:511   */\n      tag_129\n        /* \"#utility.yul\":505:510   */\n      dup2\n        /* \"#utility.yul\":488:511   */\n      tag_104\n      jump\t// in\n    tag_129:\n        /* \"#utility.yul\":481:486   */\n      dup2\n        /* \"#utility.yul\":478:512   */\n      eq\n        /* \"#utility.yul\":468:530   */\n      tag_130\n      jumpi\n        /* \"#utility.yul\":526:527   */\n      0x00\n        /* \"#utility.yul\":523:524   */\n      dup1\n        /* \"#utility.yul\":516:528   */\n      revert\n        /* \"#utility.yul\":468:530   */\n    tag_130:\n        /* \"#utility.yul\":416:536   */\n      pop\n      jump\t// out\n        /* \"#utility.yul\":542:679   */\n    tag_106:\n        /* \"#utility.yul\":587:592   */\n      0x00\n        /* \"#utility.yul\":625:631   */\n      dup2\n        /* \"#utility.yul\":612:632   */\n      calldataload\n        /* \"#utility.yul\":603:632   */\n      swap1\n      pop\n        /* \"#utility.yul\":641:673   */\n      tag_132\n        /* \"#utility.yul\":667:672   */\n      dup2\n        /* \"#utility.yul\":641:673   */\n      tag_105\n      jump\t// in\n    tag_132:\n        /* \"#utility.yul\":542:679   */\n      swap3\n      swap2\n      pop\n      pop\n      jump\t// out\n        /* \"#utility.yul\":685:1012   */\n    tag_16:\n        /* \"#utility.yul\":743:749   */\n      0x00\n        /* \"#utility.yul\":792:794   */\n      0x20\n        /* \"#utility.yul\":780:789   */\n      dup3\n        /* \"#utility.yul\":771:778   */\n      dup5\n        /* \"#utility.yul\":767:790   */\n      sub\n        /* \"#utility.yul\":763:795   */\n      slt\n        /* \"#utility.yul\":760:879   */\n      iszero\n      tag_134\n      jumpi\n        /* \"#utility.yul\":798:877   */\n      tag_135\n      tag_102\n      jump\t// in\n    tag_135:\n        /* \"#utility.yul\":760:879   */\n    tag_134:\n        /* \"#utility.yul\":918:919   */\n      0x00\n        /* \"#utility.yul\":943:995   */\n      tag_136\n        /* \"#utility.yul\":987:994   */\n      dup5\n        /* \"#utility.yul\":978:984   */\n      dup3\n        /* \"#utility.yul\":967:976   */\n      dup6\n        /* \"#utility.yul\":963:985   */\n      add\n        /* \"#utility.yul\":943:995   */\n      tag_106\n      jump\t// in\n    tag_136:\n        /* \"#utility.yul\":933:995   */\n      swap2\n      pop\n        /* \"#utility.yul\":889:1005   */\n      pop\n        /* \"#utility.yul\":685:1012   */\n      swap3\n      swap2\n      pop\n      pop\n      jump\t// out\n        /* \"#utility.yul\":1018:1133   */\n    tag_107:\n        /* \"#utility.yul\":1103:1126   */\n      tag_138\n        /* \"#utility.yul\":1120:1125   */\n      dup2\n        /* \"#utility.yul\":1103:1126   */\n      tag_104\n      jump\t// in\n    tag_138:\n        /* \"#utility.yul\":1098:1101   */\n      dup3\n        /* \"#utility.yul\":1091:1127   */\n      mstore\n        /* \"#utility.yul\":1018:1133   */\n      pop\n      pop\n      jump\t// out\n        /* \"#utility.yul\":1139:1357   */\n    tag_22:\n        /* \"#utility.yul\":1230:1234   */\n      0x00\n        /* \"#utility.yul\":1268:1270   */\n      0x20\n        /* \"#utility.yul\":1257:1266   */\n      dup3\n        /* \"#utility.yul\":1253:1271   */\n      add\n        /* \"#utility.yul\":1245:1271   */\n      swap1\n      pop\n        /* \"#utility.yul\":1281:1350   */\n      tag_140\n        /* \"#utility.yul\":1347:1348   */\n      0x00\n        /* \"#utility.yul\":1336:1345   */\n      dup4\n        /* \"#utility.yul\":1332:1349   */\n      add\n        /* \"#utility.yul\":1323:1329   */\n      dup5\n        /* \"#utility.yul\":1281:1350   */\n      tag_107\n      jump\t// in\n    tag_140:\n        /* \"#utility.yul\":1139:1357   */\n      swap3\n      swap2\n      pop\n      pop\n      jump\t// out\n        /* \"#utility.yul\":1363:1440   */\n    tag_108:\n        /* \"#utility.yul\":1400:1407   */\n      0x00\n        /* \"#utility.yul\":1429:1434   */\n      dup2\n        /* \"#utility.yul\":1418:1434   */\n      swap1\n      pop\n        /* \"#utility.yul\":1363:1440   */\n      swap2\n      swap1\n      pop\n      jump\t// out\n        /* \"#utility.yul\":1446:1568   */\n    tag_109:\n        /* \"#utility.yul\":1519:1543   */\n      tag_143\n        /* \"#utility.yul\":1537:1542   */\n      dup2\n        /* \"#utility.yul\":1519:1543   */\n      tag_108\n      jump\t// in\n    tag_143:\n        /* \"#utility.yul\":1512:1517   */\n      dup2\n        /* \"#utility.yul\":1509:1544   */\n      eq\n        /* \"#utility.yul\":1499:1562   */\n      tag_144\n      jumpi\n        /* \"#utility.yul\":1558:1559   */\n      0x00\n        /* \"#utility.yul\":1555:1556   */\n      dup1\n        /* \"#utility.yul\":1548:1560   */\n      revert\n        /* \"#utility.yul\":1499:1562   */\n    tag_144:\n        /* \"#utility.yul\":1446:1568   */\n      pop\n      jump\t// out\n        /* \"#utility.yul\":1574:1713   */\n    tag_110:\n        /* \"#utility.yul\":1620:1625   */\n      0x00\n        /* \"#utility.yul\":1658:1664   */\n      dup2\n        /* \"#utility.yul\":1645:1665   */\n      calldataload\n        /* \"#utility.yul\":1636:1665   */\n      swap1\n      pop\n        /* \"#utility.yul\":1674:1707   */\n      tag_146\n        /* \"#utility.yul\":1701:1706   */\n      dup2\n        /* \"#utility.yul\":1674:1707   */\n      tag_109\n      jump\t// in\n    tag_146:\n        /* \"#utility.yul\":1574:1713   */\n      swap3\n      swap2\n      pop\n      pop\n      jump\t// out\n        /* \"#utility.yul\":1719:2048   */\n    tag_42:\n        /* \"#utility.yul\":1778:1784   */\n      0x00\n        /* \"#utility.yul\":1827:1829   */\n      0x20\n        /* \"#utility.yul\":1815:1824   */\n      dup3\n        /* \"#utility.yul\":1806:1813   */\n      dup5\n        /* \"#utility.yul\":1802:1825   */\n      sub\n        /* \"#utility.yul\":1798:1830   */\n      slt\n        /* \"#utility.yul\":1795:1914   */\n      iszero\n      tag_148\n      jumpi\n        /* \"#utility.yul\":1833:1912   */\n      tag_149\n      tag_102\n      jump\t// in\n    tag_149:\n        /* \"#utility.yul\":1795:1914   */\n    tag_148:\n        /* \"#utility.yul\":1953:1954   */\n      0x00\n        /* \"#utility.yul\":1978:2031   */\n      tag_150\n        /* \"#utility.yul\":2023:2030   */\n      dup5\n        /* \"#utility.yul\":2014:2020   */\n      dup3\n        /* \"#utility.yul\":2003:2012   */\n      dup6\n        /* \"#utility.yul\":1999:2021   */\n      add\n        /* \"#utility.yul\":1978:2031   */\n      tag_110\n      jump\t// in\n    tag_150:\n        /* \"#utility.yul\":1968:2031   */\n      swap2\n      pop\n        /* \"#utility.yul\":1924:2041   */\n      pop\n        /* \"#utility.yul\":1719:2048   */\n      swap3\n      swap2\n      pop\n      pop\n      jump\t// out\n        /* \"#utility.yul\":2054:2234   */\n    tag_111:\n        /* \"#utility.yul\":2102:2179   */\n      0x4e487b7100000000000000000000000000000000000000000000000000000000\n        /* \"#utility.yul\":2099:2100   */\n      0x00\n        /* \"#utility.yul\":2092:2180   */\n      mstore\n        /* \"#utility.yul\":2199:2203   */\n      0x11\n        /* \"#utility.yul\":2196:2197   */\n      0x04\n        /* \"#utility.yul\":2189:2204   */\n      mstore\n        /* \"#utility.yul\":2223:2227   */\n      0x24\n        /* \"#utility.yul\":2220:2221   */\n      0x00\n        /* \"#utility.yul\":2213:2228   */\n      revert\n        /* \"#utility.yul\":2240:2796   */\n    tag_51:\n        /* \"#utility.yul\":2279:2286   */\n      0x00\n        /* \"#utility.yul\":2302:2321   */\n      tag_153\n        /* \"#utility.yul\":2319:2320   */\n      dup3\n        /* \"#utility.yul\":2302:2321   */\n      tag_104\n      jump\t// in\n    tag_153:\n        /* \"#utility.yul\":2297:2321   */\n      swap2\n      pop\n        /* \"#utility.yul\":2335:2354   */\n      tag_154\n        /* \"#utility.yul\":2352:2353   */\n      dup4\n        /* \"#utility.yul\":2335:2354   */\n      tag_104\n      jump\t// in\n    tag_154:\n        /* \"#utility.yul\":2330:2354   */\n      swap3\n      pop\n        /* \"#utility.yul\":2389:2390   */\n      dup3\n        /* \"#utility.yul\":2386:2387   */\n      dup3\n        /* \"#utility.yul\":2382:2391   */\n      mul\n        /* \"#utility.yul\":2411:2440   */\n      tag_155\n        /* \"#utility.yul\":2428:2439   */\n      dup2\n        /* \"#utility.yul\":2411:2440   */\n      tag_104\n      jump\t// in\n    tag_155:\n        /* \"#utility.yul\":2400:2440   */\n      swap2\n      pop\n        /* \"#utility.yul\":2498:2564   */\n      0x8000000000000000000000000000000000000000000000000000000000000000\n        /* \"#utility.yul\":2495:2496   */\n      dup5\n        /* \"#utility.yul\":2492:2565   */\n      eq\n        /* \"#utility.yul\":2488:2489   */\n      0x00\n        /* \"#utility.yul\":2485:2486   */\n      dup5\n        /* \"#utility.yul\":2481:2490   */\n      slt\n        /* \"#utility.yul\":2477:2566   */\n      and\n        /* \"#utility.yul\":2474:2589   */\n      iszero\n      tag_156\n      jumpi\n        /* \"#utility.yul\":2569:2587   */\n      tag_157\n      tag_111\n      jump\t// in\n    tag_157:\n        /* \"#utility.yul\":2474:2589   */\n    tag_156:\n        /* \"#utility.yul\":2739:2740   */\n      dup3\n        /* \"#utility.yul\":2730:2737   */\n      dup3\n        /* \"#utility.yul\":2725:2741   */\n      sdiv\n        /* \"#utility.yul\":2722:2723   */\n      dup5\n        /* \"#utility.yul\":2719:2742   */\n      eq\n        /* \"#utility.yul\":2699:2700   */\n      dup4\n        /* \"#utility.yul\":2692:2701   */\n      iszero\n        /* \"#utility.yul\":2672:2756   */\n      or\n        /* \"#utility.yul\":2649:2789   */\n      tag_158\n      jumpi\n        /* \"#utility.yul\":2769:2787   */\n      tag_159\n      tag_111\n      jump\t// in\n    tag_159:\n        /* \"#utility.yul\":2649:2789   */\n    tag_158:\n        /* \"#utility.yul\":2287:2796   */\n      pop\n        /* \"#utility.yul\":2240:2796   */\n      swap3\n      swap2\n      pop\n      pop\n      jump\t// out\n        /* \"#utility.yul\":2802:2982   */\n    tag_112:\n        /* \"#utility.yul\":2850:2927   */\n      0x4e487b7100000000000000000000000000000000000000000000000000000000\n        /* \"#utility.yul\":2847:2848   */\n      0x00\n        /* \"#utility.yul\":2840:2928   */\n      mstore\n        /* \"#utility.yul\":2947:2951   */\n      0x12\n        /* \"#utility.yul\":2944:2945   */\n      0x04\n        /* \"#utility.yul\":2937:2952   */\n      mstore\n        /* \"#utility.yul\":2971:2975   */\n      0x24\n        /* \"#utility.yul\":2968:2969   */\n      0x00\n        /* \"#utility.yul\":2961:2976   */\n      revert\n        /* \"#utility.yul\":2988:3162   */\n    tag_54:\n        /* \"#utility.yul\":3019:3020   */\n      0x00\n        /* \"#utility.yul\":3036:3055   */\n      tag_162\n        /* \"#utility.yul\":3053:3054   */\n      dup3\n        /* \"#utility.yul\":3036:3055   */\n      tag_104\n      jump\t// in\n    tag_162:\n        /* \"#utility.yul\":3031:3055   */\n      swap2\n      pop\n        /* \"#utility.yul\":3069:3088   */\n      tag_163\n        /* \"#utility.yul\":3086:3087   */\n      dup4\n        /* \"#utility.yul\":3069:3088   */\n      tag_104\n      jump\t// in\n    tag_163:\n        /* \"#utility.yul\":3064:3088   */\n      swap3\n      pop\n        /* \"#utility.yul\":3107:3108   */\n      dup3\n        /* \"#utility.yul\":3097:3132   */\n      tag_164\n      jumpi\n        /* \"#utility.yul\":3112:3130   */\n      tag_165\n      tag_112\n      jump\t// in\n    tag_165:\n        /* \"#utility.yul\":3097:3132   */\n    tag_164:\n        /* \"#utility.yul\":3154:3155   */\n      dup3\n        /* \"#utility.yul\":3151:3152   */\n      dup3\n        /* \"#utility.yul\":3146:3156   */\n      smod\n        /* \"#utility.yul\":3141:3156   */\n      swap1\n      pop\n        /* \"#utility.yul\":2988:3162   */\n      swap3\n      swap2\n      pop\n      pop\n      jump\t// out\n        /* \"#utility.yul\":3168:3543   */\n    tag_58:\n        /* \"#utility.yul\":3207:3210   */\n      0x00\n        /* \"#utility.yul\":3226:3245   */\n      tag_167\n        /* \"#utility.yul\":3243:3244   */\n      dup3\n        /* \"#utility.yul\":3226:3245   */\n      tag_104\n      jump\t// in\n    tag_167:\n        /* \"#utility.yul\":3221:3245   */\n      swap2\n      pop\n        /* \"#utility.yul\":3259:3278   */\n      tag_168\n        /* \"#utility.yul\":3276:3277   */\n      dup4\n        /* \"#utility.yul\":3259:3278   */\n      tag_104\n      jump\t// in\n    tag_168:\n        /* \"#utility.yul\":3254:3278   */\n      swap3\n      pop\n        /* \"#utility.yul\":3301:3302   */\n      dup3\n        /* \"#utility.yul\":3298:3299   */\n      dup3\n        /* \"#utility.yul\":3294:3303   */\n      add\n        /* \"#utility.yul\":3287:3303   */\n      swap1\n      pop\n        /* \"#utility.yul\":3499:3500   */\n      dup3\n        /* \"#utility.yul\":3494:3497   */\n      dup2\n        /* \"#utility.yul\":3490:3501   */\n      slt\n        /* \"#utility.yul\":3483:3502   */\n      iszero\n        /* \"#utility.yul\":3479:3480   */\n      0x00\n        /* \"#utility.yul\":3476:3477   */\n      dup4\n        /* \"#utility.yul\":3472:3481   */\n      slt\n        /* \"#utility.yul\":3468:3503   */\n      and\n        /* \"#utility.yul\":3451:3452   */\n      dup4\n        /* \"#utility.yul\":3446:3449   */\n      dup3\n        /* \"#utility.yul\":3442:3453   */\n      slt\n        /* \"#utility.yul\":3437:3438   */\n      0x00\n        /* \"#utility.yul\":3434:3435   */\n      dup5\n        /* \"#utility.yul\":3430:3439   */\n      slt\n        /* \"#utility.yul\":3423:3440   */\n      iszero\n        /* \"#utility.yul\":3419:3454   */\n      and\n        /* \"#utility.yul\":3403:3513   */\n      or\n        /* \"#utility.yul\":3400:3536   */\n      iszero\n      tag_169\n      jumpi\n        /* \"#utility.yul\":3516:3534   */\n      tag_170\n      tag_111\n      jump\t// in\n    tag_170:\n        /* \"#utility.yul\":3400:3536   */\n    tag_169:\n        /* \"#utility.yul\":3168:3543   */\n      swap3\n      swap2\n      pop\n      pop\n      jump\t// out\n        /* \"#utility.yul\":3549:3718   */\n    tag_113:\n        /* \"#utility.yul\":3633:3644   */\n      0x00\n        /* \"#utility.yul\":3667:3673   */\n      dup3\n        /* \"#utility.yul\":3662:3665   */\n      dup3\n        /* \"#utility.yul\":3655:3674   */\n      mstore\n        /* \"#utility.yul\":3707:3711   */\n      0x20\n        /* \"#utility.yul\":3702:3705   */\n      dup3\n        /* \"#utility.yul\":3698:3712   */\n      add\n        /* \"#utility.yul\":3683:3712   */\n      swap1\n      pop\n        /* \"#utility.yul\":3549:3718   */\n      swap3\n      swap2\n      pop\n      pop\n      jump\t// out\n        /* \"#utility.yul\":3724:3954   */\n    tag_114:\n        /* \"#utility.yul\":3864:3898   */\n      0x466163746f7269616c206f66206e65676174697665206e756d62657220697320\n        /* \"#utility.yul\":3860:3861   */\n      0x00\n        /* \"#utility.yul\":3852:3858   */\n      dup3\n        /* \"#utility.yul\":3848:3862   */\n      add\n        /* \"#utility.yul\":3841:3899   */\n      mstore\n        /* \"#utility.yul\":3933:3946   */\n      0x6e6f7420616c6c6f776564000000000000000000000000000000000000000000\n        /* \"#utility.yul\":3928:3930   */\n      0x20\n        /* \"#utility.yul\":3920:3926   */\n      dup3\n        /* \"#utility.yul\":3916:3931   */\n      add\n        /* \"#utility.yul\":3909:3947   */\n      mstore\n        /* \"#utility.yul\":3724:3954   */\n      pop\n      jump\t// out\n        /* \"#utility.yul\":3960:4326   */\n    tag_115:\n        /* \"#utility.yul\":4102:4105   */\n      0x00\n        /* \"#utility.yul\":4123:4190   */\n      tag_174\n        /* \"#utility.yul\":4187:4189   */\n      0x2b\n        /* \"#utility.yul\":4182:4185   */\n      dup4\n        /* \"#utility.yul\":4123:4190   */\n      tag_113\n      jump\t// in\n    tag_174:\n        /* \"#utility.yul\":4116:4190   */\n      swap2\n      pop\n        /* \"#utility.yul\":4199:4292   */\n      tag_175\n        /* \"#utility.yul\":4288:4291   */\n      dup3\n        /* \"#utility.yul\":4199:4292   */\n      tag_114\n      jump\t// in\n    tag_175:\n        /* \"#utility.yul\":4317:4319   */\n      0x40\n        /* \"#utility.yul\":4312:4315   */\n      dup3\n        /* \"#utility.yul\":4308:4320   */\n      add\n        /* \"#utility.yul\":4301:4320   */\n      swap1\n      pop\n        /* \"#utility.yul\":3960:4326   */\n      swap2\n      swap1\n      pop\n      jump\t// out\n        /* \"#utility.yul\":4332:4751   */\n    tag_62:\n        /* \"#utility.yul\":4498:4502   */\n      0x00\n        /* \"#utility.yul\":4536:4538   */\n      0x20\n        /* \"#utility.yul\":4525:4534   */\n      dup3\n        /* \"#utility.yul\":4521:4539   */\n      add\n        /* \"#utility.yul\":4513:4539   */\n      swap1\n      pop\n        /* \"#utility.yul\":4585:4594   */\n      dup2\n        /* \"#utility.yul\":4579:4583   */\n      dup2\n        /* \"#utility.yul\":4575:4595   */\n      sub\n        /* \"#utility.yul\":4571:4572   */\n      0x00\n        /* \"#utility.yul\":4560:4569   */\n      dup4\n        /* \"#utility.yul\":4556:4573   */\n      add\n        /* \"#utility.yul\":4549:4596   */\n      mstore\n        /* \"#utility.yul\":4613:4744   */\n      tag_177\n        /* \"#utility.yul\":4739:4743   */\n      dup2\n        /* \"#utility.yul\":4613:4744   */\n      tag_115\n      jump\t// in\n    tag_177:\n        /* \"#utility.yul\":4605:4744   */\n      swap1\n      pop\n        /* \"#utility.yul\":4332:4751   */\n      swap2\n      swap1\n      pop\n      jump\t// out\n        /* \"#utility.yul\":4757:4938   */\n    tag_116:\n        /* \"#utility.yul\":4897:4930   */\n      0x4469766973696f6e206279207a65726f206973206e6f7420616c6c6f77656400\n        /* \"#utility.yul\":4893:4894   */\n      0x00\n        /* \"#utility.yul\":4885:4891   */\n      dup3\n        /* \"#utility.yul\":4881:4895   */\n      add\n        /* \"#utility.yul\":4874:4931   */\n      mstore\n        /* \"#utility.yul\":4757:4938   */\n      pop\n      jump\t// out\n        /* \"#utility.yul\":4944:5310   */\n    tag_117:\n        /* \"#utility.yul\":5086:5089   */\n      0x00\n        /* \"#utility.yul\":5107:5174   */\n      tag_180\n        /* \"#utility.yul\":5171:5173   */\n      0x1f\n        /* \"#utility.yul\":5166:5169   */\n      dup4\n        /* \"#utility.yul\":5107:5174   */\n      tag_113\n      jump\t// in\n    tag_180:\n        /* \"#utility.yul\":5100:5174   */\n      swap2\n      pop\n        /* \"#utility.yul\":5183:5276   */\n      tag_181\n        /* \"#utility.yul\":5272:5275   */\n      dup3\n        /* \"#utility.yul\":5183:5276   */\n      tag_116\n      jump\t// in\n    tag_181:\n        /* \"#utility.yul\":5301:5303   */\n      0x20\n        /* \"#utility.yul\":5296:5299   */\n      dup3\n        /* \"#utility.yul\":5292:5304   */\n      add\n        /* \"#utility.yul\":5285:5304   */\n      swap1\n      pop\n        /* \"#utility.yul\":4944:5310   */\n      swap2\n      swap1\n      pop\n      jump\t// out\n        /* \"#utility.yul\":5316:5735   */\n    tag_68:\n        /* \"#utility.yul\":5482:5486   */\n      0x00\n        /* \"#utility.yul\":5520:5522   */\n      0x20\n        /* \"#utility.yul\":5509:5518   */\n      dup3\n        /* \"#utility.yul\":5505:5523   */\n      add\n        /* \"#utility.yul\":5497:5523   */\n      swap1\n      pop\n        /* \"#utility.yul\":5569:5578   */\n      dup2\n        /* \"#utility.yul\":5563:5567   */\n      dup2\n        /* \"#utility.yul\":5559:5579   */\n      sub\n        /* \"#utility.yul\":5555:5556   */\n      0x00\n        /* \"#utility.yul\":5544:5553   */\n      dup4\n        /* \"#utility.yul\":5540:5557   */\n      add\n        /* \"#utility.yul\":5533:5580   */\n      mstore\n        /* \"#utility.yul\":5597:5728   */\n      tag_183\n        /* \"#utility.yul\":5723:5727   */\n      dup2\n        /* \"#utility.yul\":5597:5728   */\n      tag_117\n      jump\t// in\n    tag_183:\n        /* \"#utility.yul\":5589:5728   */\n      swap1\n      pop\n        /* \"#utility.yul\":5316:5735   */\n      swap2\n      swap1\n      pop\n      jump\t// out\n        /* \"#utility.yul\":5741:6126   */\n    tag_70:\n        /* \"#utility.yul\":5780:5781   */\n      0x00\n        /* \"#utility.yul\":5797:5816   */\n      tag_185\n        /* \"#utility.yul\":5814:5815   */\n      dup3\n        /* \"#utility.yul\":5797:5816   */\n      tag_104\n      jump\t// in\n    tag_185:\n        /* \"#utility.yul\":5792:5816   */\n      swap2\n      pop\n        /* \"#utility.yul\":5830:5849   */\n      tag_186\n        /* \"#utility.yul\":5847:5848   */\n      dup4\n        /* \"#utility.yul\":5830:5849   */\n      tag_104\n      jump\t// in\n    tag_186:\n        /* \"#utility.yul\":5825:5849   */\n      swap3\n      pop\n        /* \"#utility.yul\":5868:5869   */\n      dup3\n        /* \"#utility.yul\":5858:5893   */\n      tag_187\n      jumpi\n        /* \"#utility.yul\":5873:5891   */\n      tag_188\n      tag_112\n      jump\t// in\n    tag_188:\n        /* \"#utility.yul\":5858:5893   */\n    tag_187:\n        /* \"#utility.yul\":6059:6060   */\n      0x01\n        /* \"#utility.yul\":6056:6057   */\n      0x00\n        /* \"#utility.yul\":6052:6061   */\n      sub\n        /* \"#utility.yul\":6049:6050   */\n      dup4\n        /* \"#utility.yul\":6046:6062   */\n      eq\n        /* \"#utility.yul\":5965:6031   */\n      0x8000000000000000000000000000000000000000000000000000000000000000\n        /* \"#utility.yul\":5962:5963   */\n      dup4\n        /* \"#utility.yul\":5959:6032   */\n      eq\n        /* \"#utility.yul\":5942:6072   */\n      and\n        /* \"#utility.yul\":5939:6095   */\n      iszero\n      tag_189\n      jumpi\n        /* \"#utility.yul\":6075:6093   */\n      tag_190\n      tag_111\n      jump\t// in\n    tag_190:\n        /* \"#utility.yul\":5939:6095   */\n    tag_189:\n        /* \"#utility.yul\":6118:6119   */\n      dup3\n        /* \"#utility.yul\":6115:6116   */\n      dup3\n        /* \"#utility.yul\":6110:6120   */\n      sdiv\n        /* \"#utility.yul\":6105:6120   */\n      swap1\n      pop\n        /* \"#utility.yul\":5741:6126   */\n      swap3\n      swap2\n      pop\n      pop\n      jump\t// out\n        /* \"#utility.yul\":6132:6504   */\n    tag_73:\n        /* \"#utility.yul\":6171:6175   */\n      0x00\n        /* \"#utility.yul\":6191:6210   */\n      tag_192\n        /* \"#utility.yul\":6208:6209   */\n      dup3\n        /* \"#utility.yul\":6191:6210   */\n      tag_104\n      jump\t// in\n    tag_192:\n        /* \"#utility.yul\":6186:6210   */\n      swap2\n      pop\n        /* \"#utility.yul\":6224:6243   */\n      tag_193\n        /* \"#utility.yul\":6241:6242   */\n      dup4\n        /* \"#utility.yul\":6224:6243   */\n      tag_104\n      jump\t// in\n    tag_193:\n        /* \"#utility.yul\":6219:6243   */\n      swap3\n      pop\n        /* \"#utility.yul\":6267:6268   */\n      dup3\n        /* \"#utility.yul\":6264:6265   */\n      dup3\n        /* \"#utility.yul\":6260:6269   */\n      sub\n        /* \"#utility.yul\":6252:6269   */\n      swap1\n      pop\n        /* \"#utility.yul\":6461:6462   */\n      dup2\n        /* \"#utility.yul\":6455:6459   */\n      dup2\n        /* \"#utility.yul\":6451:6463   */\n      slt\n        /* \"#utility.yul\":6447:6448   */\n      0x00\n        /* \"#utility.yul\":6444:6445   */\n      dup5\n        /* \"#utility.yul\":6440:6449   */\n      slt\n        /* \"#utility.yul\":6436:6464   */\n      and\n        /* \"#utility.yul\":6419:6420   */\n      dup3\n        /* \"#utility.yul\":6413:6417   */\n      dup3\n        /* \"#utility.yul\":6409:6421   */\n      sgt\n        /* \"#utility.yul\":6404:6405   */\n      0x00\n        /* \"#utility.yul\":6401:6402   */\n      dup6\n        /* \"#utility.yul\":6397:6406   */\n      slt\n        /* \"#utility.yul\":6390:6407   */\n      iszero\n        /* \"#utility.yul\":6386:6422   */\n      and\n        /* \"#utility.yul\":6370:6474   */\n      or\n        /* \"#utility.yul\":6367:6497   */\n      iszero\n      tag_194\n      jumpi\n        /* \"#utility.yul\":6477:6495   */\n      tag_195\n      tag_111\n      jump\t// in\n    tag_195:\n        /* \"#utility.yul\":6367:6497   */\n    tag_194:\n        /* \"#utility.yul\":6132:6504   */\n      swap3\n      swap2\n      pop\n      pop\n      jump\t// out\n        /* \"#utility.yul\":6510:6612   */\n    tag_118:\n        /* \"#utility.yul\":6552:6560   */\n      0x00\n        /* \"#utility.yul\":6599:6604   */\n      dup2\n        /* \"#utility.yul\":6596:6597   */\n      0x01\n        /* \"#utility.yul\":6592:6605   */\n      shr\n        /* \"#utility.yul\":6571:6605   */\n      swap1\n      pop\n        /* \"#utility.yul\":6510:6612   */\n      swap2\n      swap1\n      pop\n      jump\t// out\n        /* \"#utility.yul\":6618:7466   */\n    tag_119:\n        /* \"#utility.yul\":6679:6684   */\n      0x00\n        /* \"#utility.yul\":6686:6690   */\n      dup1\n        /* \"#utility.yul\":6710:6716   */\n      dup3\n        /* \"#utility.yul\":6701:6716   */\n      swap2\n      pop\n        /* \"#utility.yul\":6734:6739   */\n      dup4\n        /* \"#utility.yul\":6725:6739   */\n      swap1\n      pop\n        /* \"#utility.yul\":6748:7460   */\n    tag_198:\n        /* \"#utility.yul\":6769:6770   */\n      0x01\n        /* \"#utility.yul\":6759:6767   */\n      dup6\n        /* \"#utility.yul\":6756:6771   */\n      gt\n        /* \"#utility.yul\":6748:7460   */\n      iszero\n      tag_200\n      jumpi\n        /* \"#utility.yul\":6864:6868   */\n      dup1\n        /* \"#utility.yul\":6859:6862   */\n      dup7\n        /* \"#utility.yul\":6855:6869   */\n      div\n        /* \"#utility.yul\":6849:6853   */\n      dup2\n        /* \"#utility.yul\":6846:6870   */\n      gt\n        /* \"#utility.yul\":6843:6893   */\n      iszero\n      tag_201\n      jumpi\n        /* \"#utility.yul\":6873:6891   */\n      tag_202\n      tag_111\n      jump\t// in\n    tag_202:\n        /* \"#utility.yul\":6843:6893   */\n    tag_201:\n        /* \"#utility.yul\":6923:6924   */\n      0x01\n        /* \"#utility.yul\":6913:6921   */\n      dup6\n        /* \"#utility.yul\":6909:6925   */\n      and\n        /* \"#utility.yul\":6906:7357   */\n      iszero\n      tag_203\n      jumpi\n        /* \"#utility.yul\":7338:7342   */\n      dup1\n        /* \"#utility.yul\":7331:7336   */\n      dup3\n        /* \"#utility.yul\":7327:7343   */\n      mul\n        /* \"#utility.yul\":7318:7343   */\n      swap2\n      pop\n        /* \"#utility.yul\":6906:7357   */\n    tag_203:\n        /* \"#utility.yul\":7388:7392   */\n      dup1\n        /* \"#utility.yul\":7382:7386   */\n      dup2\n        /* \"#utility.yul\":7378:7393   */\n      mul\n        /* \"#utility.yul\":7370:7393   */\n      swap1\n      pop\n        /* \"#utility.yul\":7418:7450   */\n      tag_204\n        /* \"#utility.yul\":7441:7449   */\n      dup6\n        /* \"#utility.yul\":7418:7450   */\n      tag_118\n      jump\t// in\n    tag_204:\n        /* \"#utility.yul\":7406:7450   */\n      swap5\n      pop\n        /* \"#utility.yul\":6748:7460   */\n      jump(tag_198)\n    tag_200:\n        /* \"#utility.yul\":6618:7466   */\n      swap5\n      pop\n      swap5\n      swap3\n      pop\n      pop\n      pop\n      jump\t// out\n        /* \"#utility.yul\":7472:8545   */\n    tag_120:\n        /* \"#utility.yul\":7526:7531   */\n      0x00\n        /* \"#utility.yul\":7717:7725   */\n      dup3\n        /* \"#utility.yul\":7707:7747   */\n      tag_206\n      jumpi\n        /* \"#utility.yul\":7738:7739   */\n      0x01\n        /* \"#utility.yul\":7729:7739   */\n      swap1\n      pop\n        /* \"#utility.yul\":7740:7745   */\n      jump(tag_205)\n        /* \"#utility.yul\":7707:7747   */\n    tag_206:\n        /* \"#utility.yul\":7766:7770   */\n      dup2\n        /* \"#utility.yul\":7756:7792   */\n      tag_207\n      jumpi\n        /* \"#utility.yul\":7783:7784   */\n      0x00\n        /* \"#utility.yul\":7774:7784   */\n      swap1\n      pop\n        /* \"#utility.yul\":7785:7790   */\n      jump(tag_205)\n        /* \"#utility.yul\":7756:7792   */\n    tag_207:\n        /* \"#utility.yul\":7852:7856   */\n      dup2\n        /* \"#utility.yul\":7900:7901   */\n      0x01\n        /* \"#utility.yul\":7895:7922   */\n      dup2\n      eq\n      tag_209\n      jumpi\n        /* \"#utility.yul\":7936:7937   */\n      0x02\n        /* \"#utility.yul\":7931:8122   */\n      dup2\n      eq\n      tag_210\n      jumpi\n        /* \"#utility.yul\":7845:8122   */\n      jump(tag_208)\n        /* \"#utility.yul\":7895:7922   */\n    tag_209:\n        /* \"#utility.yul\":7913:7914   */\n      0x01\n        /* \"#utility.yul\":7904:7914   */\n      swap2\n      pop\n        /* \"#utility.yul\":7915:7920   */\n      pop\n      jump(tag_205)\n        /* \"#utility.yul\":7931:8122   */\n    tag_210:\n        /* \"#utility.yul\":7976:7979   */\n      0xff\n        /* \"#utility.yul\":7966:7974   */\n      dup5\n        /* \"#utility.yul\":7963:7980   */\n      gt\n        /* \"#utility.yul\":7960:8003   */\n      iszero\n      tag_211\n      jumpi\n        /* \"#utility.yul\":7983:8001   */\n      tag_212\n      tag_111\n      jump\t// in\n    tag_212:\n        /* \"#utility.yul\":7960:8003   */\n    tag_211:\n        /* \"#utility.yul\":8032:8040   */\n      dup4\n        /* \"#utility.yul\":8029:8030   */\n      0x02\n        /* \"#utility.yul\":8025:8041   */\n      exp\n        /* \"#utility.yul\":8016:8041   */\n      swap2\n      pop\n        /* \"#utility.yul\":8067:8070   */\n      dup5\n        /* \"#utility.yul\":8060:8065   */\n      dup3\n        /* \"#utility.yul\":8057:8071   */\n      gt\n        /* \"#utility.yul\":8054:8094   */\n      iszero\n      tag_213\n      jumpi\n        /* \"#utility.yul\":8074:8092   */\n      tag_214\n      tag_111\n      jump\t// in\n    tag_214:\n        /* \"#utility.yul\":8054:8094   */\n    tag_213:\n        /* \"#utility.yul\":8107:8112   */\n      pop\n      jump(tag_205)\n        /* \"#utility.yul\":7845:8122   */\n    tag_208:\n      pop\n        /* \"#utility.yul\":8231:8233   */\n      0x20\n        /* \"#utility.yul\":8221:8229   */\n      dup4\n        /* \"#utility.yul\":8218:8234   */\n      lt\n        /* \"#utility.yul\":8212:8215   */\n      0x0133\n        /* \"#utility.yul\":8206:8210   */\n      dup4\n        /* \"#utility.yul\":8203:8216   */\n      lt\n        /* \"#utility.yul\":8199:8235   */\n      and\n        /* \"#utility.yul\":8181:8183   */\n      0x4e\n        /* \"#utility.yul\":8171:8179   */\n      dup5\n        /* \"#utility.yul\":8168:8184   */\n      lt\n        /* \"#utility.yul\":8163:8165   */\n      0x0b\n        /* \"#utility.yul\":8157:8161   */\n      dup5\n        /* \"#utility.yul\":8154:8166   */\n      lt\n        /* \"#utility.yul\":8150:8185   */\n      and\n        /* \"#utility.yul\":8134:8245   */\n      or\n        /* \"#utility.yul\":8131:8377   */\n      iszero\n      tag_215\n      jumpi\n        /* \"#utility.yul\":8287:8295   */\n      dup3\n        /* \"#utility.yul\":8281:8285   */\n      dup3\n        /* \"#utility.yul\":8277:8296   */\n      exp\n        /* \"#utility.yul\":8268:8296   */\n      swap1\n      pop\n        /* \"#utility.yul\":8322:8325   */\n      dup4\n        /* \"#utility.yul\":8315:8320   */\n      dup2\n        /* \"#utility.yul\":8312:8326   */\n      gt\n        /* \"#utility.yul\":8309:8349   */\n      iszero\n      tag_216\n      jumpi\n        /* \"#utility.yul\":8329:8347   */\n      tag_217\n      tag_111\n      jump\t// in\n    tag_217:\n        /* \"#utility.yul\":8309:8349   */\n    tag_216:\n        /* \"#utility.yul\":8362:8367   */\n      jump(tag_205)\n        /* \"#utility.yul\":8131:8377   */\n    tag_215:\n        /* \"#utility.yul\":8402:8444   */\n      tag_218\n        /* \"#utility.yul\":8440:8443   */\n      dup5\n        /* \"#utility.yul\":8430:8438   */\n      dup5\n        /* \"#utility.yul\":8424:8428   */\n      dup5\n        /* \"#utility.yul\":8421:8422   */\n      0x01\n        /* \"#utility.yul\":8402:8444   */\n      tag_119\n      jump\t// in\n    tag_218:\n        /* \"#utility.yul\":8387:8444   */\n      swap3\n      pop\n      swap1\n      pop\n        /* \"#utility.yul\":8476:8480   */\n      dup2\n        /* \"#utility.yul\":8471:8474   */\n      dup5\n        /* \"#utility.yul\":8467:8481   */\n      div\n        /* \"#utility.yul\":8460:8465   */\n      dup2\n        /* \"#utility.yul\":8457:8482   */\n      gt\n        /* \"#utility.yul\":8454:8505   */\n      iszero\n      tag_219\n      jumpi\n        /* \"#utility.yul\":8485:8503   */\n      tag_220\n      tag_111\n      jump\t// in\n    tag_220:\n        /* \"#utility.yul\":8454:8505   */\n    tag_219:\n        /* \"#utility.yul\":8534:8538   */\n      dup2\n        /* \"#utility.yul\":8527:8532   */\n      dup2\n        /* \"#utility.yul\":8523:8539   */\n      mul\n        /* \"#utility.yul\":8514:8539   */\n      swap1\n      pop\n        /* \"#utility.yul\":7472:8545   */\n    tag_205:\n      swap4\n      swap3\n      pop\n      pop\n      pop\n      jump\t// out\n        /* \"#utility.yul\":8551:8836   */\n    tag_76:\n        /* \"#utility.yul\":8611:8616   */\n      0x00\n        /* \"#utility.yul\":8635:8658   */\n      tag_222\n        /* \"#utility.yul\":8653:8657   */\n      dup3\n        /* \"#utility.yul\":8635:8658   */\n      tag_108\n      jump\t// in\n    tag_222:\n        /* \"#utility.yul\":8627:8658   */\n      swap2\n      pop\n        /* \"#utility.yul\":8679:8706   */\n      tag_223\n        /* \"#utility.yul\":8697:8705   */\n      dup4\n        /* \"#utility.yul\":8679:8706   */\n      tag_108\n      jump\t// in\n    tag_223:\n        /* \"#utility.yul\":8667:8706   */\n      swap3\n      pop\n        /* \"#utility.yul\":8725:8829   */\n      tag_224\n        /* \"#utility.yul\":8762:8828   */\n      0xffffffffffffffffffffffffffffffffffffffffffffffffffffffffffffffff\n        /* \"#utility.yul\":8752:8760   */\n      dup5\n        /* \"#utility.yul\":8746:8750   */\n      dup5\n        /* \"#utility.yul\":8725:8829   */\n      tag_120\n      jump\t// in\n    tag_224:\n        /* \"#utility.yul\":8716:8829   */\n      swap1\n      pop\n        /* \"#utility.yul\":8551:8836   */\n      swap3\n      swap2\n      pop\n      pop\n      jump\t// out\n        /* \"#utility.yul\":8842:9066   */\n    tag_121:\n        /* \"#utility.yul\":8982:9016   */\n      0x43616e6e6f742074616b6520726f6f74206f662061206e65676174697665206e\n        /* \"#utility.yul\":8978:8979   */\n      0x00\n        /* \"#utility.yul\":8970:8976   */\n      dup3\n        /* \"#utility.yul\":8966:8980   */\n      add\n        /* \"#utility.yul\":8959:9017   */\n      mstore\n        /* \"#utility.yul\":9051:9058   */\n      0x756d626572000000000000000000000000000000000000000000000000000000\n        /* \"#utility.yul\":9046:9048   */\n      0x20\n        /* \"#utility.yul\":9038:9044   */\n      dup3\n        /* \"#utility.yul\":9034:9049   */\n      add\n        /* \"#utility.yul\":9027:9059   */\n      mstore\n        /* \"#utility.yul\":8842:9066   */\n      pop\n      jump\t// out\n        /* \"#utility.yul\":9072:9438   */\n    tag_122:\n        /* \"#utility.yul\":9214:9217   */\n      0x00\n        /* \"#utility.yul\":9235:9302   */\n      tag_227\n        /* \"#utility.yul\":9299:9301   */\n      0x25\n        /* \"#utility.yul\":9294:9297   */\n      dup4\n        /* \"#utility.yul\":9235:9302   */\n      tag_113\n      jump\t// in\n    tag_227:\n        /* \"#utility.yul\":9228:9302   */\n      swap2\n      pop\n        /* \"#utility.yul\":9311:9404   */\n      tag_228\n        /* \"#utility.yul\":9400:9403   */\n      dup3\n        /* \"#utility.yul\":9311:9404   */\n      tag_121\n      jump\t// in\n    tag_228:\n        /* \"#utility.yul\":9429:9431   */\n      0x40\n        /* \"#utility.yul\":9424:9427   */\n      dup3\n        /* \"#utility.yul\":9420:9432   */\n      add\n        /* \"#utility.yul\":9413:9432   */\n      swap1\n      pop\n        /* \"#utility.yul\":9072:9438   */\n      swap2\n      swap1\n      pop\n      jump\t// out\n        /* \"#utility.yul\":9444:9863   */\n    tag_80:\n        /* \"#utility.yul\":9610:9614   */\n      0x00\n        /* \"#utility.yul\":9648:9650   */\n      0x20\n        /* \"#utility.yul\":9637:9646   */\n      dup3\n        /* \"#utility.yul\":9633:9651   */\n      add\n        /* \"#utility.yul\":9625:9651   */\n      swap1\n      pop\n        /* \"#utility.yul\":9697:9706   */\n      dup2\n        /* \"#utility.yul\":9691:9695   */\n      dup2\n        /* \"#utility.yul\":9687:9707   */\n      sub\n        /* \"#utility.yul\":9683:9684   */\n      0x00\n        /* \"#utility.yul\":9672:9681   */\n      dup4\n        /* \"#utility.yul\":9668:9685   */\n      add\n        /* \"#utility.yul\":9661:9708   */\n      mstore\n        /* \"#utility.yul\":9725:9856   */\n      tag_230\n        /* \"#utility.yul\":9851:9855   */\n      dup2\n        /* \"#utility.yul\":9725:9856   */\n      tag_122\n      jump\t// in\n    tag_230:\n        /* \"#utility.yul\":9717:9856   */\n      swap1\n      pop\n        /* \"#utility.yul\":9444:9863   */\n      swap2\n      swap1\n      pop\n      jump\t// out\n        /* \"#utility.yul\":9869:10063   */\n    tag_88:\n        /* \"#utility.yul\":9909:9913   */\n      0x00\n        /* \"#utility.yul\":9929:9949   */\n      tag_232\n        /* \"#utility.yul\":9947:9948   */\n      dup3\n        /* \"#utility.yul\":9929:9949   */\n      tag_108\n      jump\t// in\n    tag_232:\n        /* \"#utility.yul\":9924:9949   */\n      swap2\n      pop\n        /* \"#utility.yul\":9963:9983   */\n      tag_233\n        /* \"#utility.yul\":9981:9982   */\n      dup4\n        /* \"#utility.yul\":9963:9983   */\n      tag_108\n      jump\t// in\n    tag_233:\n        /* \"#utility.yul\":9958:9983   */\n      swap3\n      pop\n        /* \"#utility.yul\":10007:10008   */\n      dup3\n        /* \"#utility.yul\":10004:10005   */\n      dup3\n        /* \"#utility.yul\":10000:10009   */\n      sub\n        /* \"#utility.yul\":9992:10009   */\n      swap1\n      pop\n        /* \"#utility.yul\":10031:10032   */\n      dup2\n        /* \"#utility.yul\":10025:10029   */\n      dup2\n        /* \"#utility.yul\":10022:10033   */\n      gt\n        /* \"#utility.yul\":10019:10056   */\n      iszero\n      tag_234\n      jumpi\n        /* \"#utility.yul\":10036:10054   */\n      tag_235\n      tag_111\n      jump\t// in\n    tag_235:\n        /* \"#utility.yul\":10019:10056   */\n    tag_234:\n        /* \"#utility.yul\":9869:10063   */\n      swap3\n      swap2\n      pop\n      pop\n      jump\t// out\n        /* \"#utility.yul\":10069:10479   */\n    tag_90:\n        /* \"#utility.yul\":10109:10116   */\n      0x00\n        /* \"#utility.yul\":10132:10152   */\n      tag_237\n        /* \"#utility.yul\":10150:10151   */\n      dup3\n        /* \"#utility.yul\":10132:10152   */\n      tag_108\n      jump\t// in\n    tag_237:\n        /* \"#utility.yul\":10127:10152   */\n      swap2\n      pop\n        /* \"#utility.yul\":10166:10186   */\n      tag_238\n        /* \"#utility.yul\":10184:10185   */\n      dup4\n        /* \"#utility.yul\":10166:10186   */\n      tag_108\n      jump\t// in\n    tag_238:\n        /* \"#utility.yul\":10161:10186   */\n      swap3\n      pop\n        /* \"#utility.yul\":10221:10222   */\n      dup3\n        /* \"#utility.yul\":10218:10219   */\n      dup3\n        /* \"#utility.yul\":10214:10223   */\n      mul\n        /* \"#utility.yul\":10243:10273   */\n      tag_239\n        /* \"#utility.yul\":10261:10272   */\n      dup2\n        /* \"#utility.yul\":10243:10273   */\n      tag_108\n      jump\t// in\n    tag_239:\n        /* \"#utility.yul\":10232:10273   */\n      swap2\n      pop\n        /* \"#utility.yul\":10422:10423   */\n      dup3\n        /* \"#utility.yul\":10413:10420   */\n      dup3\n        /* \"#utility.yul\":10409:10424   */\n      div\n        /* \"#utility.yul\":10406:10407   */\n      dup5\n        /* \"#utility.yul\":10403:10425   */\n      eq\n        /* \"#utility.yul\":10383:10384   */\n      dup4\n        /* \"#utility.yul\":10376:10385   */\n      iszero\n        /* \"#utility.yul\":10356:10439   */\n      or\n        /* \"#utility.yul\":10333:10472   */\n      tag_240\n      jumpi\n        /* \"#utility.yul\":10452:10470   */\n      tag_241\n      tag_111\n      jump\t// in\n    tag_241:\n        /* \"#utility.yul\":10333:10472   */\n    tag_240:\n        /* \"#utility.yul\":10117:10479   */\n      pop\n        /* \"#utility.yul\":10069:10479   */\n      swap3\n      swap2\n      pop\n      pop\n      jump\t// out\n        /* \"#utility.yul\":10485:10676   */\n    tag_93:\n        /* \"#utility.yul\":10525:10528   */\n      0x00\n        /* \"#utility.yul\":10544:10564   */\n      tag_243\n        /* \"#utility.yul\":10562:10563   */\n      dup3\n        /* \"#utility.yul\":10544:10564   */\n      tag_108\n      jump\t// in\n    tag_243:\n        /* \"#utility.yul\":10539:10564   */\n      swap2\n      pop\n        /* \"#utility.yul\":10578:10598   */\n      tag_244\n        /* \"#utility.yul\":10596:10597   */\n      dup4\n        /* \"#utility.yul\":10578:10598   */\n      tag_108\n      jump\t// in\n    tag_244:\n        /* \"#utility.yul\":10573:10598   */\n      swap3\n      pop\n        /* \"#utility.yul\":10621:10622   */\n      dup3\n        /* \"#utility.yul\":10618:10619   */\n      dup3\n        /* \"#utility.yul\":10614:10623   */\n      add\n        /* \"#utility.yul\":10607:10623   */\n      swap1\n      pop\n        /* \"#utility.yul\":10642:10645   */\n      dup1\n        /* \"#utility.yul\":10639:10640   */\n      dup3\n        /* \"#utility.yul\":10636:10646   */\n      gt\n        /* \"#utility.yul\":10633:10669   */\n      iszero\n      tag_245\n      jumpi\n        /* \"#utility.yul\":10649:10667   */\n      tag_246\n      tag_111\n      jump\t// in\n    tag_246:\n        /* \"#utility.yul\":10633:10669   */\n    tag_245:\n        /* \"#utility.yul\":10485:10676   */\n      swap3\n      swap2\n      pop\n      pop\n      jump\t// out\n        /* \"#utility.yul\":10682:10867   */\n    tag_95:\n        /* \"#utility.yul\":10722:10723   */\n      0x00\n        /* \"#utility.yul\":10739:10759   */\n      tag_248\n        /* \"#utility.yul\":10757:10758   */\n      dup3\n        /* \"#utility.yul\":10739:10759   */\n      tag_108\n      jump\t// in\n    tag_248:\n        /* \"#utility.yul\":10734:10759   */\n      swap2\n      pop\n        /* \"#utility.yul\":10773:10793   */\n      tag_249\n        /* \"#utility.yul\":10791:10792   */\n      dup4\n        /* \"#utility.yul\":10773:10793   */\n      tag_108\n      jump\t// in\n    tag_249:\n        /* \"#utility.yul\":10768:10793   */\n      swap3\n      pop\n        /* \"#utility.yul\":10812:10813   */\n      dup3\n        /* \"#utility.yul\":10802:10837   */\n      tag_250\n      jumpi\n        /* \"#utility.yul\":10817:10835   */\n      tag_251\n      tag_112\n      jump\t// in\n    tag_251:\n        /* \"#utility.yul\":10802:10837   */\n    tag_250:\n        /* \"#utility.yul\":10859:10860   */\n      dup3\n        /* \"#utility.yul\":10856:10857   */\n      dup3\n        /* \"#utility.yul\":10852:10861   */\n      div\n        /* \"#utility.yul\":10847:10861   */\n      swap1\n      pop\n        /* \"#utility.yul\":10682:10867   */\n      swap3\n      swap2\n      pop\n      pop\n      jump\t// out\n\n    auxdata: 0xa2646970667358221220cc70875f5030965dc54bc7b756b3a2f022091c3d6f8f70594b7fc08f1d24806364736f6c634300081a0033\n}\n",
				"bytecode": {
					"linkReferences": {},
					"object": "6080604052348015600e575f80fd5b50610b188061001c5f395ff3fe608060405234801561000f575f80fd5b506004361061009c575f3560e01c8063aaa044dc11610064578063aaa044dc14610130578063abcc11d81461014c578063ae0f61661461016a578063cc193fb014610186578063e56bf027146101b65761009c565b80631df4f144146100a0578063416eeb95146100bc57806352efea6e146100ec57806387db03b7146100f6578063981111ef14610112575b5f80fd5b6100ba60048036038101906100b59190610464565b6101e6565b005b6100d660048036038101906100d19190610464565b610200565b6040516100e3919061049e565b60405180910390f35b6100f4610221565b005b610110600480360381019061010b9190610464565b610229565b005b61011a610243565b604051610127919061049e565b60405180910390f35b61014a60048036038101906101459190610464565b61029e565b005b6101546102fa565b604051610161919061049e565b60405180910390f35b610184600480360381019061017f9190610464565b6102ff565b005b6101a0600480360381019061019b91906104ea565b610319565b6040516101ad919061049e565b60405180910390f35b6101d060048036038101906101cb91906104ea565b610335565b6040516101dd919061049e565b60405180910390f35b805f808282546101f69190610542565b9250508190555050565b5f815f8082825461021191906105e5565b925050819055505f549050919050565b5f8081905550565b805f808282546102399190610615565b9250508190555050565b5f805f541215610288576040517f08c379a000000000000000000000000000000000000000000000000000000000815260040161027f906106d6565b60405180910390fd5b6102925f54610393565b5f819055505f54905090565b5f81036102e0576040517f08c379a00000000000000000000000000000000000000000000000000000000081526004016102d79061073e565b60405180910390fd5b805f808282546102f0919061075c565b9250508190555050565b5f5481565b805f8082825461030f91906107c4565b9250508190555050565b5f815f546103279190610933565b5f819055505f549050919050565b5f805f54121561037a576040517f08c379a0000000000000000000000000000000000000000000000000000000008152600401610371906109ed565b60405180910390fd5b6103855f54836103cc565b5f819055505f549050919050565b5f8082036103a457600190506103c7565b6103b96001836103b49190610a0b565b610393565b826103c49190610a3e565b90505b919050565b5f80600283856103dc9190610a7f565b6103e69190610ab2565b90505f8490505b808210156104225781905060028283876104079190610ab2565b6104119190610a7f565b61041b9190610ab2565b91506103ed565b809250505092915050565b5f80fd5b5f819050919050565b61044381610431565b811461044d575f80fd5b50565b5f8135905061045e8161043a565b92915050565b5f602082840312156104795761047861042d565b5b5f61048684828501610450565b91505092915050565b61049881610431565b82525050565b5f6020820190506104b15f83018461048f565b92915050565b5f819050919050565b6104c9816104b7565b81146104d3575f80fd5b50565b5f813590506104e4816104c0565b92915050565b5f602082840312156104ff576104fe61042d565b5b5f61050c848285016104d6565b91505092915050565b7f4e487b71000000000000000000000000000000000000000000000000000000005f52601160045260245ffd5b5f61054c82610431565b915061055783610431565b925082820261056581610431565b91507f800000000000000000000000000000000000000000000000000000000000000084145f8412161561059c5761059b610515565b5b82820584148315176105b1576105b0610515565b5b5092915050565b7f4e487b71000000000000000000000000000000000000000000000000000000005f52601260045260245ffd5b5f6105ef82610431565b91506105fa83610431565b92508261060a576106096105b8565b5b828207905092915050565b5f61061f82610431565b915061062a83610431565b92508282019050828112155f8312168382125f8412151617156106505761064f610515565b5b92915050565b5f82825260208201905092915050565b7f466163746f7269616c206f66206e65676174697665206e756d626572206973205f8201527f6e6f7420616c6c6f776564000000000000000000000000000000000000000000602082015250565b5f6106c0602b83610656565b91506106cb82610666565b604082019050919050565b5f6020820190508181035f8301526106ed816106b4565b9050919050565b7f4469766973696f6e206279207a65726f206973206e6f7420616c6c6f776564005f82015250565b5f610728601f83610656565b9150610733826106f4565b602082019050919050565b5f6020820190508181035f8301526107558161071c565b9050919050565b5f61076682610431565b915061077183610431565b925082610781576107806105b8565b5b60015f0383147f8000000000000000000000000000000000000000000000000000000000000000831416156107b9576107b8610515565b5b828205905092915050565b5f6107ce82610431565b91506107d983610431565b925082820390508181125f8412168282135f8512151617156107fe576107fd610515565b5b92915050565b5f8160011c9050919050565b5f808291508390505b60018511156108595780860481111561083557610834610515565b5b60018516156108445780820291505b808102905061085285610804565b9450610819565b94509492505050565b5f82610871576001905061092c565b8161087e575f905061092c565b8160018114610894576002811461089e576108cd565b600191505061092c565b60ff8411156108b0576108af610515565b5b8360020a9150848211156108c7576108c6610515565b5b5061092c565b5060208310610133831016604e8410600b84101617156109025782820a9050838111156108fd576108fc610515565b5b61092c565b61090f8484846001610810565b9250905081840481111561092657610925610515565b5b81810290505b9392505050565b5f61093d826104b7565b9150610948836104b7565b92506109757fffffffffffffffffffffffffffffffffffffffffffffffffffffffffffffffff8484610862565b905092915050565b7f43616e6e6f742074616b6520726f6f74206f662061206e65676174697665206e5f8201527f756d626572000000000000000000000000000000000000000000000000000000602082015250565b5f6109d7602583610656565b91506109e28261097d565b604082019050919050565b5f6020820190508181035f830152610a04816109cb565b9050919050565b5f610a15826104b7565b9150610a20836104b7565b9250828203905081811115610a3857610a37610515565b5b92915050565b5f610a48826104b7565b9150610a53836104b7565b9250828202610a61816104b7565b91508282048414831517610a7857610a77610515565b5b5092915050565b5f610a89826104b7565b9150610a94836104b7565b9250828201905080821115610aac57610aab610515565b5b92915050565b5f610abc826104b7565b9150610ac7836104b7565b925082610ad757610ad66105b8565b5b82820490509291505056fea2646970667358221220cc70875f5030965dc54bc7b756b3a2f022091c3d6f8f70594b7fc08f1d24806364736f6c634300081a0033",
					"opcodes": "PUSH1 0x80 PUSH1 0x40 MSTORE CALLVALUE DUP1 ISZERO PUSH1 0xE JUMPI PUSH0 DUP1 REVERT JUMPDEST POP PUSH2 0xB18 DUP1 PUSH2 0x1C PUSH0 CODECOPY PUSH0 RETURN INVALID PUSH1 0x80 PUSH1 0x40 MSTORE CALLVALUE DUP1 ISZERO PUSH2 0xF JUMPI PUSH0 DUP1 REVERT JUMPDEST POP PUSH1 0x4 CALLDATASIZE LT PUSH2 0x9C JUMPI PUSH0 CALLDATALOAD PUSH1 0xE0 SHR DUP1 PUSH4 0xAAA044DC GT PUSH2 0x64 JUMPI DUP1 PUSH4 0xAAA044DC EQ PUSH2 0x130 JUMPI DUP1 PUSH4 0xABCC11D8 EQ PUSH2 0x14C JUMPI DUP1 PUSH4 0xAE0F6166 EQ PUSH2 0x16A JUMPI DUP1 PUSH4 0xCC193FB0 EQ PUSH2 0x186 JUMPI DUP1 PUSH4 0xE56BF027 EQ PUSH2 0x1B6 JUMPI PUSH2 0x9C JUMP JUMPDEST DUP1 PUSH4 0x1DF4F144 EQ PUSH2 0xA0 JUMPI DUP1 PUSH4 0x416EEB95 EQ PUSH2 0xBC JUMPI DUP1 PUSH4 0x52EFEA6E EQ PUSH2 0xEC JUMPI DUP1 PUSH4 0x87DB03B7 EQ PUSH2 0xF6 JUMPI DUP1 PUSH4 0x981111EF EQ PUSH2 0x112 JUMPI JUMPDEST PUSH0 DUP1 REVERT JUMPDEST PUSH2 0xBA PUSH1 0x4 DUP1 CALLDATASIZE SUB DUP2 ADD SWAP1 PUSH2 0xB5 SWAP2 SWAP1 PUSH2 0x464 JUMP JUMPDEST PUSH2 0x1E6 JUMP JUMPDEST STOP JUMPDEST PUSH2 0xD6 PUSH1 0x4 DUP1 CALLDATASIZE SUB DUP2 ADD SWAP1 PUSH2 0xD1 SWAP2 SWAP1 PUSH2 0x464 JUMP JUMPDEST PUSH2 0x200 JUMP JUMPDEST PUSH1 0x40 MLOAD PUSH2 0xE3 SWAP2 SWAP1 PUSH2 0x49E JUMP JUMPDEST PUSH1 0x40 MLOAD DUP1 SWAP2 SUB SWAP1 RETURN JUMPDEST PUSH2 0xF4 PUSH2 0x221 JUMP JUMPDEST STOP JUMPDEST PUSH2 0x110 PUSH1 0x4 DUP1 CALLDATASIZE SUB DUP2 ADD SWAP1 PUSH2 0x10B SWAP2 SWAP1 PUSH2 0x464 JUMP JUMPDEST PUSH2 0x229 JUMP JUMPDEST STOP JUMPDEST PUSH2 0x11A PUSH2 0x243 JUMP JUMPDEST PUSH1 0x40 MLOAD PUSH2 0x127 SWAP2 SWAP1 PUSH2 0x49E JUMP JUMPDEST PUSH1 0x40 MLOAD DUP1 SWAP2 SUB SWAP1 RETURN JUMPDEST PUSH2 0x14A PUSH1 0x4 DUP1 CALLDATASIZE SUB DUP2 ADD SWAP1 PUSH2 0x145 SWAP2 SWAP1 PUSH2 0x464 JUMP JUMPDEST PUSH2 0x29E JUMP JUMPDEST STOP JUMPDEST PUSH2 0x154 PUSH2 0x2FA JUMP JUMPDEST PUSH1 0x40 MLOAD PUSH2 0x161 SWAP2 SWAP1 PUSH2 0x49E JUMP JUMPDEST PUSH1 0x40 MLOAD DUP1 SWAP2 SUB SWAP1 RETURN JUMPDEST PUSH2 0x184 PUSH1 0x4 DUP1 CALLDATASIZE SUB DUP2 ADD SWAP1 PUSH2 0x17F SWAP2 SWAP1 PUSH2 0x464 JUMP JUMPDEST PUSH2 0x2FF JUMP JUMPDEST STOP JUMPDEST PUSH2 0x1A0 PUSH1 0x4 DUP1 CALLDATASIZE SUB DUP2 ADD SWAP1 PUSH2 0x19B SWAP2 SWAP1 PUSH2 0x4EA JUMP JUMPDEST PUSH2 0x319 JUMP JUMPDEST PUSH1 0x40 MLOAD PUSH2 0x1AD SWAP2 SWAP1 PUSH2 0x49E JUMP JUMPDEST PUSH1 0x40 MLOAD DUP1 SWAP2 SUB SWAP1 RETURN JUMPDEST PUSH2 0x1D0 PUSH1 0x4 DUP1 CALLDATASIZE SUB DUP2 ADD SWAP1 PUSH2 0x1CB SWAP2 SWAP1 PUSH2 0x4EA JUMP JUMPDEST PUSH2 0x335 JUMP JUMPDEST PUSH1 0x40 MLOAD PUSH2 0x1DD SWAP2 SWAP1 PUSH2 0x49E JUMP JUMPDEST PUSH1 0x40 MLOAD DUP1 SWAP2 SUB SWAP1 RETURN JUMPDEST DUP1 PUSH0 DUP1 DUP3 DUP3 SLOAD PUSH2 0x1F6 SWAP2 SWAP1 PUSH2 0x542 JUMP JUMPDEST SWAP3 POP POP DUP2 SWAP1 SSTORE POP POP JUMP JUMPDEST PUSH0 DUP2 PUSH0 DUP1 DUP3 DUP3 SLOAD PUSH2 0x211 SWAP2 SWAP1 PUSH2 0x5E5 JUMP JUMPDEST SWAP3 POP POP DUP2 SWAP1 SSTORE POP PUSH0 SLOAD SWAP1 POP SWAP2 SWAP1 POP JUMP JUMPDEST PUSH0 DUP1 DUP2 SWAP1 SSTORE POP JUMP JUMPDEST DUP1 PUSH0 DUP1 DUP3 DUP3 SLOAD PUSH2 0x239 SWAP2 SWAP1 PUSH2 0x615 JUMP JUMPDEST SWAP3 POP POP DUP2 SWAP1 SSTORE POP POP JUMP JUMPDEST PUSH0 DUP1 PUSH0 SLOAD SLT ISZERO PUSH2 0x288 JUMPI PUSH1 0x40 MLOAD PUSH32 0x8C379A000000000000000000000000000000000000000000000000000000000 DUP2 MSTORE PUSH1 0x4 ADD PUSH2 0x27F SWAP1 PUSH2 0x6D6 JUMP JUMPDEST PUSH1 0x40 MLOAD DUP1 SWAP2 SUB SWAP1 REVERT JUMPDEST PUSH2 0x292 PUSH0 SLOAD PUSH2 0x393 JUMP JUMPDEST PUSH0 DUP2 SWAP1 SSTORE POP PUSH0 SLOAD SWAP1 POP SWAP1 JUMP JUMPDEST PUSH0 DUP2 SUB PUSH2 0x2E0 JUMPI PUSH1 0x40 MLOAD PUSH32 0x8C379A000000000000000000000000000000000000000000000000000000000 DUP2 MSTORE PUSH1 0x4 ADD PUSH2 0x2D7 SWAP1 PUSH2 0x73E JUMP JUMPDEST PUSH1 0x40 MLOAD DUP1 SWAP2 SUB SWAP1 REVERT JUMPDEST DUP1 PUSH0 DUP1 DUP3 DUP3 SLOAD PUSH2 0x2F0 SWAP2 SWAP1 PUSH2 0x75C JUMP JUMPDEST SWAP3 POP POP DUP2 SWAP1 SSTORE POP POP JUMP JUMPDEST PUSH0 SLOAD DUP2 JUMP JUMPDEST DUP1 PUSH0 DUP1 DUP3 DUP3 SLOAD PUSH2 0x30F SWAP2 SWAP1 PUSH2 0x7C4 JUMP JUMPDEST SWAP3 POP POP DUP2 SWAP1 SSTORE POP POP JUMP JUMPDEST PUSH0 DUP2 PUSH0 SLOAD PUSH2 0x327 SWAP2 SWAP1 PUSH2 0x933 JUMP JUMPDEST PUSH0 DUP2 SWAP1 SSTORE POP PUSH0 SLOAD SWAP1 POP SWAP2 SWAP1 POP JUMP JUMPDEST PUSH0 DUP1 PUSH0 SLOAD SLT ISZERO PUSH2 0x37A JUMPI PUSH1 0x40 MLOAD PUSH32 0x8C379A000000000000000000000000000000000000000000000000000000000 DUP2 MSTORE PUSH1 0x4 ADD PUSH2 0x371 SWAP1 PUSH2 0x9ED JUMP JUMPDEST PUSH1 0x40 MLOAD DUP1 SWAP2 SUB SWAP1 REVERT JUMPDEST PUSH2 0x385 PUSH0 SLOAD DUP4 PUSH2 0x3CC JUMP JUMPDEST PUSH0 DUP2 SWAP1 SSTORE POP PUSH0 SLOAD SWAP1 POP SWAP2 SWAP1 POP JUMP JUMPDEST PUSH0 DUP1 DUP3 SUB PUSH2 0x3A4 JUMPI PUSH1 0x1 SWAP1 POP PUSH2 0x3C7 JUMP JUMPDEST PUSH2 0x3B9 PUSH1 0x1 DUP4 PUSH2 0x3B4 SWAP2 SWAP1 PUSH2 0xA0B JUMP JUMPDEST PUSH2 0x393 JUMP JUMPDEST DUP3 PUSH2 0x3C4 SWAP2 SWAP1 PUSH2 0xA3E JUMP JUMPDEST SWAP1 POP JUMPDEST SWAP2 SWAP1 POP JUMP JUMPDEST PUSH0 DUP1 PUSH1 0x2 DUP4 DUP6 PUSH2 0x3DC SWAP2 SWAP1 PUSH2 0xA7F JUMP JUMPDEST PUSH2 0x3E6 SWAP2 SWAP1 PUSH2 0xAB2 JUMP JUMPDEST SWAP1 POP PUSH0 DUP5 SWAP1 POP JUMPDEST DUP1 DUP3 LT ISZERO PUSH2 0x422 JUMPI DUP2 SWAP1 POP PUSH1 0x2 DUP3 DUP4 DUP8 PUSH2 0x407 SWAP2 SWAP1 PUSH2 0xAB2 JUMP JUMPDEST PUSH2 0x411 SWAP2 SWAP1 PUSH2 0xA7F JUMP JUMPDEST PUSH2 0x41B SWAP2 SWAP1 PUSH2 0xAB2 JUMP JUMPDEST SWAP2 POP PUSH2 0x3ED JUMP JUMPDEST DUP1 SWAP3 POP POP POP SWAP3 SWAP2 POP POP JUMP JUMPDEST PUSH0 DUP1 REVERT JUMPDEST PUSH0 DUP2 SWAP1 POP SWAP2 SWAP1 POP JUMP JUMPDEST PUSH2 0x443 DUP2 PUSH2 0x431 JUMP JUMPDEST DUP2 EQ PUSH2 0x44D JUMPI PUSH0 DUP1 REVERT JUMPDEST POP JUMP JUMPDEST PUSH0 DUP2 CALLDATALOAD SWAP1 POP PUSH2 0x45E DUP2 PUSH2 0x43A JUMP JUMPDEST SWAP3 SWAP2 POP POP JUMP JUMPDEST PUSH0 PUSH1 0x20 DUP3 DUP5 SUB SLT ISZERO PUSH2 0x479 JUMPI PUSH2 0x478 PUSH2 0x42D JUMP JUMPDEST JUMPDEST PUSH0 PUSH2 0x486 DUP5 DUP3 DUP6 ADD PUSH2 0x450 JUMP JUMPDEST SWAP2 POP POP SWAP3 SWAP2 POP POP JUMP JUMPDEST PUSH2 0x498 DUP2 PUSH2 0x431 JUMP JUMPDEST DUP3 MSTORE POP POP JUMP JUMPDEST PUSH0 PUSH1 0x20 DUP3 ADD SWAP1 POP PUSH2 0x4B1 PUSH0 DUP4 ADD DUP5 PUSH2 0x48F JUMP JUMPDEST SWAP3 SWAP2 POP POP JUMP JUMPDEST PUSH0 DUP2 SWAP1 POP SWAP2 SWAP1 POP JUMP JUMPDEST PUSH2 0x4C9 DUP2 PUSH2 0x4B7 JUMP JUMPDEST DUP2 EQ PUSH2 0x4D3 JUMPI PUSH0 DUP1 REVERT JUMPDEST POP JUMP JUMPDEST PUSH0 DUP2 CALLDATALOAD SWAP1 POP PUSH2 0x4E4 DUP2 PUSH2 0x4C0 JUMP JUMPDEST SWAP3 SWAP2 POP POP JUMP JUMPDEST PUSH0 PUSH1 0x20 DUP3 DUP5 SUB SLT ISZERO PUSH2 0x4FF JUMPI PUSH2 0x4FE PUSH2 0x42D JUMP JUMPDEST JUMPDEST PUSH0 PUSH2 0x50C DUP5 DUP3 DUP6 ADD PUSH2 0x4D6 JUMP JUMPDEST SWAP2 POP POP SWAP3 SWAP2 POP POP JUMP JUMPDEST PUSH32 0x4E487B7100000000000000000000000000000000000000000000000000000000 PUSH0 MSTORE PUSH1 0x11 PUSH1 0x4 MSTORE PUSH1 0x24 PUSH0 REVERT JUMPDEST PUSH0 PUSH2 0x54C DUP3 PUSH2 0x431 JUMP JUMPDEST SWAP2 POP PUSH2 0x557 DUP4 PUSH2 0x431 JUMP JUMPDEST SWAP3 POP DUP3 DUP3 MUL PUSH2 0x565 DUP2 PUSH2 0x431 JUMP JUMPDEST SWAP2 POP PUSH32 0x8000000000000000000000000000000000000000000000000000000000000000 DUP5 EQ PUSH0 DUP5 SLT AND ISZERO PUSH2 0x59C JUMPI PUSH2 0x59B PUSH2 0x515 JUMP JUMPDEST JUMPDEST DUP3 DUP3 SDIV DUP5 EQ DUP4 ISZERO OR PUSH2 0x5B1 JUMPI PUSH2 0x5B0 PUSH2 0x515 JUMP JUMPDEST JUMPDEST POP SWAP3 SWAP2 POP POP JUMP JUMPDEST PUSH32 0x4E487B7100000000000000000000000000000000000000000000000000000000 PUSH0 MSTORE PUSH1 0x12 PUSH1 0x4 MSTORE PUSH1 0x24 PUSH0 REVERT JUMPDEST PUSH0 PUSH2 0x5EF DUP3 PUSH2 0x431 JUMP JUMPDEST SWAP2 POP PUSH2 0x5FA DUP4 PUSH2 0x431 JUMP JUMPDEST SWAP3 POP DUP3 PUSH2 0x60A JUMPI PUSH2 0x609 PUSH2 0x5B8 JUMP JUMPDEST JUMPDEST DUP3 DUP3 SMOD SWAP1 POP SWAP3 SWAP2 POP POP JUMP JUMPDEST PUSH0 PUSH2 0x61F DUP3 PUSH2 0x431 JUMP JUMPDEST SWAP2 POP PUSH2 0x62A DUP4 PUSH2 0x431 JUMP JUMPDEST SWAP3 POP DUP3 DUP3 ADD SWAP1 POP DUP3 DUP2 SLT ISZERO PUSH0 DUP4 SLT AND DUP4 DUP3 SLT PUSH0 DUP5 SLT ISZERO AND OR ISZERO PUSH2 0x650 JUMPI PUSH2 0x64F PUSH2 0x515 JUMP JUMPDEST JUMPDEST SWAP3 SWAP2 POP POP JUMP JUMPDEST PUSH0 DUP3 DUP3 MSTORE PUSH1 0x20 DUP3 ADD SWAP1 POP SWAP3 SWAP2 POP POP JUMP JUMPDEST PUSH32 0x466163746F7269616C206F66206E65676174697665206E756D62657220697320 PUSH0 DUP3 ADD MSTORE PUSH32 0x6E6F7420616C6C6F776564000000000000000000000000000000000000000000 PUSH1 0x20 DUP3 ADD MSTORE POP JUMP JUMPDEST PUSH0 PUSH2 0x6C0 PUSH1 0x2B DUP4 PUSH2 0x656 JUMP JUMPDEST SWAP2 POP PUSH2 0x6CB DUP3 PUSH2 0x666 JUMP JUMPDEST PUSH1 0x40 DUP3 ADD SWAP1 POP SWAP2 SWAP1 POP JUMP JUMPDEST PUSH0 PUSH1 0x20 DUP3 ADD SWAP1 POP DUP2 DUP2 SUB PUSH0 DUP4 ADD MSTORE PUSH2 0x6ED DUP2 PUSH2 0x6B4 JUMP JUMPDEST SWAP1 POP SWAP2 SWAP1 POP JUMP JUMPDEST PUSH32 0x4469766973696F6E206279207A65726F206973206E6F7420616C6C6F77656400 PUSH0 DUP3 ADD MSTORE POP JUMP JUMPDEST PUSH0 PUSH2 0x728 PUSH1 0x1F DUP4 PUSH2 0x656 JUMP JUMPDEST SWAP2 POP PUSH2 0x733 DUP3 PUSH2 0x6F4 JUMP JUMPDEST PUSH1 0x20 DUP3 ADD SWAP1 POP SWAP2 SWAP1 POP JUMP JUMPDEST PUSH0 PUSH1 0x20 DUP3 ADD SWAP1 POP DUP2 DUP2 SUB PUSH0 DUP4 ADD MSTORE PUSH2 0x755 DUP2 PUSH2 0x71C JUMP JUMPDEST SWAP1 POP SWAP2 SWAP1 POP JUMP JUMPDEST PUSH0 PUSH2 0x766 DUP3 PUSH2 0x431 JUMP JUMPDEST SWAP2 POP PUSH2 0x771 DUP4 PUSH2 0x431 JUMP JUMPDEST SWAP3 POP DUP3 PUSH2 0x781 JUMPI PUSH2 0x780 PUSH2 0x5B8 JUMP JUMPDEST JUMPDEST PUSH1 0x1 PUSH0 SUB DUP4 EQ PUSH32 0x8000000000000000000000000000000000000000000000000000000000000000 DUP4 EQ AND ISZERO PUSH2 0x7B9 JUMPI PUSH2 0x7B8 PUSH2 0x515 JUMP JUMPDEST JUMPDEST DUP3 DUP3 SDIV SWAP1 POP SWAP3 SWAP2 POP POP JUMP JUMPDEST PUSH0 PUSH2 0x7CE DUP3 PUSH2 0x431 JUMP JUMPDEST SWAP2 POP PUSH2 0x7D9 DUP4 PUSH2 0x431 JUMP JUMPDEST SWAP3 POP DUP3 DUP3 SUB SWAP1 POP DUP2 DUP2 SLT PUSH0 DUP5 SLT AND DUP3 DUP3 SGT PUSH0 DUP6 SLT ISZERO AND OR ISZERO PUSH2 0x7FE JUMPI PUSH2 0x7FD PUSH2 0x515 JUMP JUMPDEST JUMPDEST SWAP3 SWAP2 POP POP JUMP JUMPDEST PUSH0 DUP2 PUSH1 0x1 SHR SWAP1 POP SWAP2 SWAP1 POP JUMP JUMPDEST PUSH0 DUP1 DUP3 SWAP2 POP DUP4 SWAP1 POP JUMPDEST PUSH1 0x1 DUP6 GT ISZERO PUSH2 0x859 JUMPI DUP1 DUP7 DIV DUP2 GT ISZERO PUSH2 0x835 JUMPI PUSH2 0x834 PUSH2 0x515 JUMP JUMPDEST JUMPDEST PUSH1 0x1 DUP6 AND ISZERO PUSH2 0x844 JUMPI DUP1 DUP3 MUL SWAP2 POP JUMPDEST DUP1 DUP2 MUL SWAP1 POP PUSH2 0x852 DUP6 PUSH2 0x804 JUMP JUMPDEST SWAP5 POP PUSH2 0x819 JUMP JUMPDEST SWAP5 POP SWAP5 SWAP3 POP POP POP JUMP JUMPDEST PUSH0 DUP3 PUSH2 0x871 JUMPI PUSH1 0x1 SWAP1 POP PUSH2 0x92C JUMP JUMPDEST DUP2 PUSH2 0x87E JUMPI PUSH0 SWAP1 POP PUSH2 0x92C JUMP JUMPDEST DUP2 PUSH1 0x1 DUP2 EQ PUSH2 0x894 JUMPI PUSH1 0x2 DUP2 EQ PUSH2 0x89E JUMPI PUSH2 0x8CD JUMP JUMPDEST PUSH1 0x1 SWAP2 POP POP PUSH2 0x92C JUMP JUMPDEST PUSH1 0xFF DUP5 GT ISZERO PUSH2 0x8B0 JUMPI PUSH2 0x8AF PUSH2 0x515 JUMP JUMPDEST JUMPDEST DUP4 PUSH1 0x2 EXP SWAP2 POP DUP5 DUP3 GT ISZERO PUSH2 0x8C7 JUMPI PUSH2 0x8C6 PUSH2 0x515 JUMP JUMPDEST JUMPDEST POP PUSH2 0x92C JUMP JUMPDEST POP PUSH1 0x20 DUP4 LT PUSH2 0x133 DUP4 LT AND PUSH1 0x4E DUP5 LT PUSH1 0xB DUP5 LT AND OR ISZERO PUSH2 0x902 JUMPI DUP3 DUP3 EXP SWAP1 POP DUP4 DUP2 GT ISZERO PUSH2 0x8FD JUMPI PUSH2 0x8FC PUSH2 0x515 JUMP JUMPDEST JUMPDEST PUSH2 0x92C JUMP JUMPDEST PUSH2 0x90F DUP5 DUP5 DUP5 PUSH1 0x1 PUSH2 0x810 JUMP JUMPDEST SWAP3 POP SWAP1 POP DUP2 DUP5 DIV DUP2 GT ISZERO PUSH2 0x926 JUMPI PUSH2 0x925 PUSH2 0x515 JUMP JUMPDEST JUMPDEST DUP2 DUP2 MUL SWAP1 POP JUMPDEST SWAP4 SWAP3 POP POP POP JUMP JUMPDEST PUSH0 PUSH2 0x93D DUP3 PUSH2 0x4B7 JUMP JUMPDEST SWAP2 POP PUSH2 0x948 DUP4 PUSH2 0x4B7 JUMP JUMPDEST SWAP3 POP PUSH2 0x975 PUSH32 0xFFFFFFFFFFFFFFFFFFFFFFFFFFFFFFFFFFFFFFFFFFFFFFFFFFFFFFFFFFFFFFFF DUP5 DUP5 PUSH2 0x862 JUMP JUMPDEST SWAP1 POP SWAP3 SWAP2 POP POP JUMP JUMPDEST PUSH32 0x43616E6E6F742074616B6520726F6F74206F662061206E65676174697665206E PUSH0 DUP3 ADD MSTORE PUSH32 0x756D626572000000000000000000000000000000000000000000000000000000 PUSH1 0x20 DUP3 ADD MSTORE POP JUMP JUMPDEST PUSH0 PUSH2 0x9D7 PUSH1 0x25 DUP4 PUSH2 0x656 JUMP JUMPDEST SWAP2 POP PUSH2 0x9E2 DUP3 PUSH2 0x97D JUMP JUMPDEST PUSH1 0x40 DUP3 ADD SWAP1 POP SWAP2 SWAP1 POP JUMP JUMPDEST PUSH0 PUSH1 0x20 DUP3 ADD SWAP1 POP DUP2 DUP2 SUB PUSH0 DUP4 ADD MSTORE PUSH2 0xA04 DUP2 PUSH2 0x9CB JUMP JUMPDEST SWAP1 POP SWAP2 SWAP1 POP JUMP JUMPDEST PUSH0 PUSH2 0xA15 DUP3 PUSH2 0x4B7 JUMP JUMPDEST SWAP2 POP PUSH2 0xA20 DUP4 PUSH2 0x4B7 JUMP JUMPDEST SWAP3 POP DUP3 DUP3 SUB SWAP1 POP DUP2 DUP2 GT ISZERO PUSH2 0xA38 JUMPI PUSH2 0xA37 PUSH2 0x515 JUMP JUMPDEST JUMPDEST SWAP3 SWAP2 POP POP JUMP JUMPDEST PUSH0 PUSH2 0xA48 DUP3 PUSH2 0x4B7 JUMP JUMPDEST SWAP2 POP PUSH2 0xA53 DUP4 PUSH2 0x4B7 JUMP JUMPDEST SWAP3 POP DUP3 DUP3 MUL PUSH2 0xA61 DUP2 PUSH2 0x4B7 JUMP JUMPDEST SWAP2 POP DUP3 DUP3 DIV DUP5 EQ DUP4 ISZERO OR PUSH2 0xA78 JUMPI PUSH2 0xA77 PUSH2 0x515 JUMP JUMPDEST JUMPDEST POP SWAP3 SWAP2 POP POP JUMP JUMPDEST PUSH0 PUSH2 0xA89 DUP3 PUSH2 0x4B7 JUMP JUMPDEST SWAP2 POP PUSH2 0xA94 DUP4 PUSH2 0x4B7 JUMP JUMPDEST SWAP3 POP DUP3 DUP3 ADD SWAP1 POP DUP1 DUP3 GT ISZERO PUSH2 0xAAC JUMPI PUSH2 0xAAB PUSH2 0x515 JUMP JUMPDEST JUMPDEST SWAP3 SWAP2 POP POP JUMP JUMPDEST PUSH0 PUSH2 0xABC DUP3 PUSH2 0x4B7 JUMP JUMPDEST SWAP2 POP PUSH2 0xAC7 DUP4 PUSH2 0x4B7 JUMP JUMPDEST SWAP3 POP DUP3 PUSH2 0xAD7 JUMPI PUSH2 0xAD6 PUSH2 0x5B8 JUMP JUMPDEST JUMPDEST DUP3 DUP3 DIV SWAP1 POP SWAP3 SWAP2 POP POP JUMP INVALID LOG2 PUSH5 0x6970667358 0x22 SLT KECCAK256 0xCC PUSH17 0x875F5030965DC54BC7B756B3A2F022091C RETURNDATASIZE PUSH16 0x8F70594B7FC08F1D24806364736F6C63 NUMBER STOP ADDMOD BYTE STOP CALLER "
				},
				"gasEstimates": {
					"creation": {
						"codeDepositCost": "568000",
						"executionCost": "598",
						"totalCost": "568598"
					},
					"external": {
						"add(int256)": "infinite",
						"clear()": "5201",
						"divide(int256)": "infinite",
						"factorial()": "infinite",
						"lastResult()": "2446",
						"modulo(int256)": "infinite",
						"multiply(int256)": "infinite",
						"power(uint256)": "infinite",
						"root(uint256)": "infinite",
						"subtract(int256)": "infinite"
					},
					"internal": {
						"fact(uint256)": "infinite",
						"nthRoot(uint256,uint256)": "infinite"
					}
				},
				"methodIdentifiers": {
					"add(int256)": "87db03b7",
					"clear()": "52efea6e",
					"divide(int256)": "aaa044dc",
					"factorial()": "981111ef",
					"lastResult()": "abcc11d8",
					"modulo(int256)": "416eeb95",
					"multiply(int256)": "1df4f144",
					"power(uint256)": "cc193fb0",
					"root(uint256)": "e56bf027",
					"subtract(int256)": "ae0f6166"
				}
			},
			"storageLayout": {
				"storage": [
					{
						"astId": 3,
						"contract": "contracts/calc.sol:Calculator",
						"label": "lastResult",
						"offset": 0,
						"slot": "0",
						"type": "t_int256"
					}
				],
				"types": {
					"t_int256": {
						"encoding": "inplace",
						"label": "int256",
						"numberOfBytes": "32"
					}
				}
			},
			"userdoc": {
				"kind": "user",
				"methods": {},
				"version": 1
			}
		}
	}
}