{
	"contracts/smartcontractldoge.sol": {
		"MemeCoinSecurityEcosystem": {
			"abi": [
				{
					"inputs": [],
					"stateMutability": "nonpayable",
					"type": "constructor"
				},
				{
					"anonymous": false,
					"inputs": [
						{
							"indexed": true,
							"internalType": "address",
							"name": "expertAddress",
							"type": "address"
						},
						{
							"indexed": false,
							"internalType": "string",
							"name": "name",
							"type": "string"
						},
						{
							"indexed": false,
							"internalType": "string",
							"name": "expertiseArea",
							"type": "string"
						}
					],
					"name": "ExpertAdded",
					"type": "event"
				},
				{
					"anonymous": false,
					"inputs": [
						{
							"indexed": true,
							"internalType": "address",
							"name": "from",
							"type": "address"
						},
						{
							"indexed": false,
							"internalType": "uint256",
							"name": "amount",
							"type": "uint256"
						}
					],
					"name": "FundsDeposited",
					"type": "event"
				},
				{
					"anonymous": false,
					"inputs": [
						{
							"indexed": true,
							"internalType": "uint256",
							"name": "projectId",
							"type": "uint256"
						},
						{
							"indexed": true,
							"internalType": "address",
							"name": "investor",
							"type": "address"
						},
						{
							"indexed": false,
							"internalType": "uint256",
							"name": "amount",
							"type": "uint256"
						}
					],
					"name": "FundsReceived",
					"type": "event"
				},
				{
					"anonymous": false,
					"inputs": [
						{
							"indexed": true,
							"internalType": "uint256",
							"name": "projectId",
							"type": "uint256"
						},
						{
							"indexed": false,
							"internalType": "string",
							"name": "title",
							"type": "string"
						},
						{
							"indexed": false,
							"internalType": "uint256",
							"name": "fundsNeeded",
							"type": "uint256"
						}
					],
					"name": "ProjectCreated",
					"type": "event"
				},
				{
					"anonymous": false,
					"inputs": [
						{
							"indexed": true,
							"internalType": "uint256",
							"name": "projectId",
							"type": "uint256"
						}
					],
					"name": "ProjectFunded",
					"type": "event"
				},
				{
					"inputs": [
						{
							"internalType": "address",
							"name": "_expertAddress",
							"type": "address"
						},
						{
							"internalType": "string",
							"name": "_name",
							"type": "string"
						},
						{
							"internalType": "string",
							"name": "_expertiseArea",
							"type": "string"
						}
					],
					"name": "addExpert",
					"outputs": [],
					"stateMutability": "nonpayable",
					"type": "function"
				},
				{
					"inputs": [
						{
							"internalType": "string",
							"name": "_title",
							"type": "string"
						},
						{
							"internalType": "uint256",
							"name": "_fundsNeeded",
							"type": "uint256"
						}
					],
					"name": "createProject",
					"outputs": [],
					"stateMutability": "nonpayable",
					"type": "function"
				},
				{
					"inputs": [],
					"name": "depositFunds",
					"outputs": [],
					"stateMutability": "payable",
					"type": "function"
				},
				{
					"inputs": [
						{
							"internalType": "address",
							"name": "",
							"type": "address"
						}
					],
					"name": "experts",
					"outputs": [
						{
							"internalType": "address",
							"name": "expertAddress",
							"type": "address"
						},
						{
							"internalType": "string",
							"name": "name",
							"type": "string"
						},
						{
							"internalType": "string",
							"name": "expertiseArea",
							"type": "string"
						},
						{
							"internalType": "bool",
							"name": "isVerified",
							"type": "bool"
						}
					],
					"stateMutability": "view",
					"type": "function"
				},
				{
					"inputs": [
						{
							"internalType": "address",
							"name": "_expertAddress",
							"type": "address"
						}
					],
					"name": "getExpert",
					"outputs": [
						{
							"components": [
								{
									"internalType": "address",
									"name": "expertAddress",
									"type": "address"
								},
								{
									"internalType": "string",
									"name": "name",
									"type": "string"
								},
								{
									"internalType": "string",
									"name": "expertiseArea",
									"type": "string"
								},
								{
									"internalType": "bool",
									"name": "isVerified",
									"type": "bool"
								}
							],
							"internalType": "struct MemeCoinSecurityEcosystem.Expert",
							"name": "",
							"type": "tuple"
						}
					],
					"stateMutability": "view",
					"type": "function"
				},
				{
					"inputs": [
						{
							"internalType": "uint256",
							"name": "_projectId",
							"type": "uint256"
						}
					],
					"name": "getProject",
					"outputs": [
						{
							"components": [
								{
									"internalType": "uint256",
									"name": "id",
									"type": "uint256"
								},
								{
									"internalType": "string",
									"name": "title",
									"type": "string"
								},
								{
									"internalType": "address",
									"name": "creator",
									"type": "address"
								},
								{
									"internalType": "uint256",
									"name": "fundsNeeded",
									"type": "uint256"
								},
								{
									"internalType": "uint256",
									"name": "fundsRaised",
									"type": "uint256"
								},
								{
									"internalType": "enum MemeCoinSecurityEcosystem.ProjectStatus",
									"name": "status",
									"type": "uint8"
								}
							],
							"internalType": "struct MemeCoinSecurityEcosystem.Project",
							"name": "",
							"type": "tuple"
						}
					],
					"stateMutability": "view",
					"type": "function"
				},
				{
					"inputs": [
						{
							"internalType": "uint256",
							"name": "_projectId",
							"type": "uint256"
						}
					],
					"name": "investInProject",
					"outputs": [],
					"stateMutability": "payable",
					"type": "function"
				},
				{
					"inputs": [],
					"name": "owner",
					"outputs": [
						{
							"internalType": "address",
							"name": "",
							"type": "address"
						}
					],
					"stateMutability": "view",
					"type": "function"
				},
				{
					"inputs": [],
					"name": "projectCount",
					"outputs": [
						{
							"internalType": "uint256",
							"name": "",
							"type": "uint256"
						}
					],
					"stateMutability": "view",
					"type": "function"
				},
				{
					"inputs": [
						{
							"internalType": "uint256",
							"name": "",
							"type": "uint256"
						},
						{
							"internalType": "uint256",
							"name": "",
							"type": "uint256"
						}
					],
					"name": "projectInvestors",
					"outputs": [
						{
							"internalType": "address",
							"name": "investorAddress",
							"type": "address"
						},
						{
							"internalType": "uint256",
							"name": "amountInvested",
							"type": "uint256"
						}
					],
					"stateMutability": "view",
					"type": "function"
				},
				{
					"inputs": [
						{
							"internalType": "uint256",
							"name": "",
							"type": "uint256"
						}
					],
					"name": "projects",
					"outputs": [
						{
							"internalType": "uint256",
							"name": "id",
							"type": "uint256"
						},
						{
							"internalType": "string",
							"name": "title",
							"type": "string"
						},
						{
							"internalType": "address",
							"name": "creator",
							"type": "address"
						},
						{
							"internalType": "uint256",
							"name": "fundsNeeded",
							"type": "uint256"
						},
						{
							"internalType": "uint256",
							"name": "fundsRaised",
							"type": "uint256"
						},
						{
							"internalType": "enum MemeCoinSecurityEcosystem.ProjectStatus",
							"name": "status",
							"type": "uint8"
						}
					],
					"stateMutability": "view",
					"type": "function"
				},
				{
					"inputs": [],
					"name": "totalFunds",
					"outputs": [
						{
							"internalType": "uint256",
							"name": "",
							"type": "uint256"
						}
					],
					"stateMutability": "view",
					"type": "function"
				},
				{
					"inputs": [
						{
							"internalType": "uint256",
							"name": "_projectId",
							"type": "uint256"
						}
					],
					"name": "withdrawFunds",
					"outputs": [],
					"stateMutability": "nonpayable",
					"type": "function"
				}
			],
			"devdoc": {
				"kind": "dev",
				"methods": {},
				"version": 1
			},
			"evm": {
				"assembly": "    /* \"contracts/smartcontractldoge.sol\":60:4505  contract MemeCoinSecurityEcosystem {... */\n  mstore(0x40, 0x80)\n    /* \"contracts/smartcontractldoge.sol\":1399:1450  constructor() {... */\n  callvalue\n  dup1\n  iszero\n  tag_1\n  jumpi\n  0x00\n  dup1\n  revert\ntag_1:\n  pop\n    /* \"contracts/smartcontractldoge.sol\":1432:1442  msg.sender */\n  caller\n    /* \"contracts/smartcontractldoge.sol\":1424:1429  owner */\n  0x00\n  dup1\n    /* \"contracts/smartcontractldoge.sol\":1424:1442  owner = msg.sender */\n  0x0100\n  exp\n  dup2\n  sload\n  dup2\n  0xffffffffffffffffffffffffffffffffffffffff\n  mul\n  not\n  and\n  swap1\n  dup4\n  0xffffffffffffffffffffffffffffffffffffffff\n  and\n  mul\n  or\n  swap1\n  sstore\n  pop\n    /* \"contracts/smartcontractldoge.sol\":60:4505  contract MemeCoinSecurityEcosystem {... */\n  dataSize(sub_0)\n  dup1\n  dataOffset(sub_0)\n  0x00\n  codecopy\n  0x00\n  return\nstop\n\nsub_0: assembly {\n        /* \"contracts/smartcontractldoge.sol\":60:4505  contract MemeCoinSecurityEcosystem {... */\n      mstore(0x40, 0x80)\n      jumpi(tag_1, lt(calldatasize, 0x04))\n      shr(0xe0, calldataload(0x00))\n      dup1\n      0x8b44da95\n      gt\n      tag_15\n      jumpi\n      dup1\n      0x946d16c9\n      gt\n      tag_16\n      jumpi\n      dup1\n      0x946d16c9\n      eq\n      tag_11\n      jumpi\n      dup1\n      0x968ed600\n      eq\n      tag_12\n      jumpi\n      dup1\n      0xe2c41dbc\n      eq\n      tag_13\n      jumpi\n      dup1\n      0xf0f3f2c8\n      eq\n      tag_14\n      jumpi\n      jump(tag_1)\n    tag_16:\n      dup1\n      0x8b44da95\n      eq\n      tag_8\n      jumpi\n      dup1\n      0x8da5cb5b\n      eq\n      tag_9\n      jumpi\n      dup1\n      0x91754a5d\n      eq\n      tag_10\n      jumpi\n      jump(tag_1)\n    tag_15:\n      dup1\n      0x107046bd\n      eq\n      tag_2\n      jumpi\n      dup1\n      0x12572f5a\n      eq\n      tag_3\n      jumpi\n      dup1\n      0x155dd5ee\n      eq\n      tag_4\n      jumpi\n      dup1\n      0x36fbad26\n      eq\n      tag_5\n      jumpi\n      dup1\n      0x59d91e93\n      eq\n      tag_6\n      jumpi\n      dup1\n      0x5b562fd8\n      eq\n      tag_7\n      jumpi\n    tag_1:\n      0x00\n      dup1\n      revert\n        /* \"contracts/smartcontractldoge.sol\":844:887  mapping(uint256 => Project) public projects */\n    tag_2:\n      callvalue\n      dup1\n      iszero\n      tag_17\n      jumpi\n      0x00\n      dup1\n      revert\n    tag_17:\n      pop\n      tag_18\n      0x04\n      dup1\n      calldatasize\n      sub\n      dup2\n      add\n      swap1\n      tag_19\n      swap2\n      swap1\n      tag_20\n      jump\t// in\n    tag_19:\n      tag_21\n      jump\t// in\n    tag_18:\n      mload(0x40)\n      tag_22\n      swap7\n      swap6\n      swap5\n      swap4\n      swap3\n      swap2\n      swap1\n      tag_23\n      jump\t// in\n    tag_22:\n      mload(0x40)\n      dup1\n      swap2\n      sub\n      swap1\n      return\n        /* \"contracts/smartcontractldoge.sol\":796:837  mapping(address => Expert) public experts */\n    tag_3:\n      callvalue\n      dup1\n      iszero\n      tag_24\n      jumpi\n      0x00\n      dup1\n      revert\n    tag_24:\n      pop\n      tag_25\n      0x04\n      dup1\n      calldatasize\n      sub\n      dup2\n      add\n      swap1\n      tag_26\n      swap2\n      swap1\n      tag_27\n      jump\t// in\n    tag_26:\n      tag_28\n      jump\t// in\n    tag_25:\n      mload(0x40)\n      tag_29\n      swap5\n      swap4\n      swap3\n      swap2\n      swap1\n      tag_30\n      jump\t// in\n    tag_29:\n      mload(0x40)\n      dup1\n      swap2\n      sub\n      swap1\n      return\n        /* \"contracts/smartcontractldoge.sol\":3614:4180  function withdrawFunds(uint256 _projectId) public {... */\n    tag_4:\n      callvalue\n      dup1\n      iszero\n      tag_31\n      jumpi\n      0x00\n      dup1\n      revert\n    tag_31:\n      pop\n      tag_32\n      0x04\n      dup1\n      calldatasize\n      sub\n      dup2\n      add\n      swap1\n      tag_33\n      swap2\n      swap1\n      tag_20\n      jump\t// in\n    tag_33:\n      tag_34\n      jump\t// in\n    tag_32:\n      stop\n        /* \"contracts/smartcontractldoge.sol\":961:988  uint256 public projectCount */\n    tag_5:\n      callvalue\n      dup1\n      iszero\n      tag_35\n      jumpi\n      0x00\n      dup1\n      revert\n    tag_35:\n      pop\n      tag_36\n      tag_37\n      jump\t// in\n    tag_36:\n      mload(0x40)\n      tag_38\n      swap2\n      swap1\n      tag_39\n      jump\t// in\n    tag_38:\n      mload(0x40)\n      dup1\n      swap2\n      sub\n      swap1\n      return\n        /* \"contracts/smartcontractldoge.sol\":1500:1989  function addExpert(address _expertAddress, string memory _name, string memory _expertiseArea) public onlyOwner {... */\n    tag_6:\n      callvalue\n      dup1\n      iszero\n      tag_40\n      jumpi\n      0x00\n      dup1\n      revert\n    tag_40:\n      pop\n      tag_41\n      0x04\n      dup1\n      calldatasize\n      sub\n      dup2\n      add\n      swap1\n      tag_42\n      swap2\n      swap1\n      tag_43\n      jump\t// in\n    tag_42:\n      tag_44\n      jump\t// in\n    tag_41:\n      stop\n        /* \"contracts/smartcontractldoge.sol\":2610:3285  function investInProject(uint256 _projectId) public payable {... */\n    tag_7:\n      tag_45\n      0x04\n      dup1\n      calldatasize\n      sub\n      dup2\n      add\n      swap1\n      tag_46\n      swap2\n      swap1\n      tag_20\n      jump\t// in\n    tag_46:\n      tag_47\n      jump\t// in\n    tag_45:\n      stop\n        /* \"contracts/smartcontractldoge.sol\":894:948  mapping(uint256 => Investor[]) public projectInvestors */\n    tag_8:\n      callvalue\n      dup1\n      iszero\n      tag_48\n      jumpi\n      0x00\n      dup1\n      revert\n    tag_48:\n      pop\n      tag_49\n      0x04\n      dup1\n      calldatasize\n      sub\n      dup2\n      add\n      swap1\n      tag_50\n      swap2\n      swap1\n      tag_51\n      jump\t// in\n    tag_50:\n      tag_52\n      jump\t// in\n    tag_49:\n      mload(0x40)\n      tag_53\n      swap3\n      swap2\n      swap1\n      tag_54\n      jump\t// in\n    tag_53:\n      mload(0x40)\n      dup1\n      swap2\n      sub\n      swap1\n      return\n        /* \"contracts/smartcontractldoge.sol\":102:122  address public owner */\n    tag_9:\n      callvalue\n      dup1\n      iszero\n      tag_55\n      jumpi\n      0x00\n      dup1\n      revert\n    tag_55:\n      pop\n      tag_56\n      tag_57\n      jump\t// in\n    tag_56:\n      mload(0x40)\n      tag_58\n      swap2\n      swap1\n      tag_59\n      jump\t// in\n    tag_58:\n      mload(0x40)\n      dup1\n      swap2\n      sub\n      swap1\n      return\n        /* \"contracts/smartcontractldoge.sol\":2038:2574  function createProject(string memory _title, uint256 _fundsNeeded) public {... */\n    tag_10:\n      callvalue\n      dup1\n      iszero\n      tag_60\n      jumpi\n      0x00\n      dup1\n      revert\n    tag_60:\n      pop\n      tag_61\n      0x04\n      dup1\n      calldatasize\n      sub\n      dup2\n      add\n      swap1\n      tag_62\n      swap2\n      swap1\n      tag_63\n      jump\t// in\n    tag_62:\n      tag_64\n      jump\t// in\n    tag_61:\n      stop\n        /* \"contracts/smartcontractldoge.sol\":4374:4502  function getExpert(address _expertAddress) public view returns (Expert memory) {... */\n    tag_11:\n      callvalue\n      dup1\n      iszero\n      tag_65\n      jumpi\n      0x00\n      dup1\n      revert\n    tag_65:\n      pop\n      tag_66\n      0x04\n      dup1\n      calldatasize\n      sub\n      dup2\n      add\n      swap1\n      tag_67\n      swap2\n      swap1\n      tag_27\n      jump\t// in\n    tag_67:\n      tag_68\n      jump\t// in\n    tag_66:\n      mload(0x40)\n      tag_69\n      swap2\n      swap1\n      tag_70\n      jump\t// in\n    tag_69:\n      mload(0x40)\n      dup1\n      swap2\n      sub\n      swap1\n      return\n        /* \"contracts/smartcontractldoge.sol\":129:154  uint256 public totalFunds */\n    tag_12:\n      callvalue\n      dup1\n      iszero\n      tag_71\n      jumpi\n      0x00\n      dup1\n      revert\n    tag_71:\n      pop\n      tag_72\n      tag_73\n      jump\t// in\n    tag_72:\n      mload(0x40)\n      tag_74\n      swap2\n      swap1\n      tag_39\n      jump\t// in\n    tag_74:\n      mload(0x40)\n      dup1\n      swap2\n      sub\n      swap1\n      return\n        /* \"contracts/smartcontractldoge.sol\":3340:3562  function depositFunds() public payable {... */\n    tag_13:\n      tag_75\n      tag_76\n      jump\t// in\n    tag_75:\n      stop\n        /* \"contracts/smartcontractldoge.sol\":4216:4339  function getProject(uint256 _projectId) public view returns (Project memory) {... */\n    tag_14:\n      callvalue\n      dup1\n      iszero\n      tag_77\n      jumpi\n      0x00\n      dup1\n      revert\n    tag_77:\n      pop\n      tag_78\n      0x04\n      dup1\n      calldatasize\n      sub\n      dup2\n      add\n      swap1\n      tag_79\n      swap2\n      swap1\n      tag_20\n      jump\t// in\n    tag_79:\n      tag_80\n      jump\t// in\n    tag_78:\n      mload(0x40)\n      tag_81\n      swap2\n      swap1\n      tag_82\n      jump\t// in\n    tag_81:\n      mload(0x40)\n      dup1\n      swap2\n      sub\n      swap1\n      return\n        /* \"contracts/smartcontractldoge.sol\":844:887  mapping(uint256 => Project) public projects */\n    tag_21:\n      mstore(0x20, 0x03)\n      dup1\n      0x00\n      mstore\n      keccak256(0x00, 0x40)\n      0x00\n      swap2\n      pop\n      swap1\n      pop\n      dup1\n      0x00\n      add\n      sload\n      swap1\n      dup1\n      0x01\n      add\n      dup1\n      sload\n      tag_83\n      swap1\n      tag_84\n      jump\t// in\n    tag_83:\n      dup1\n      0x1f\n      add\n      0x20\n      dup1\n      swap2\n      div\n      mul\n      0x20\n      add\n      mload(0x40)\n      swap1\n      dup2\n      add\n      0x40\n      mstore\n      dup1\n      swap3\n      swap2\n      swap1\n      dup2\n      dup2\n      mstore\n      0x20\n      add\n      dup3\n      dup1\n      sload\n      tag_85\n      swap1\n      tag_84\n      jump\t// in\n    tag_85:\n      dup1\n      iszero\n      tag_86\n      jumpi\n      dup1\n      0x1f\n      lt\n      tag_87\n      jumpi\n      0x0100\n      dup1\n      dup4\n      sload\n      div\n      mul\n      dup4\n      mstore\n      swap2\n      0x20\n      add\n      swap2\n      jump(tag_86)\n    tag_87:\n      dup3\n      add\n      swap2\n      swap1\n      0x00\n      mstore\n      keccak256(0x00, 0x20)\n      swap1\n    tag_88:\n      dup2\n      sload\n      dup2\n      mstore\n      swap1\n      0x01\n      add\n      swap1\n      0x20\n      add\n      dup1\n      dup4\n      gt\n      tag_88\n      jumpi\n      dup3\n      swap1\n      sub\n      0x1f\n      and\n      dup3\n      add\n      swap2\n    tag_86:\n      pop\n      pop\n      pop\n      pop\n      pop\n      swap1\n      dup1\n      0x02\n      add\n      0x00\n      swap1\n      sload\n      swap1\n      0x0100\n      exp\n      swap1\n      div\n      0xffffffffffffffffffffffffffffffffffffffff\n      and\n      swap1\n      dup1\n      0x03\n      add\n      sload\n      swap1\n      dup1\n      0x04\n      add\n      sload\n      swap1\n      dup1\n      0x05\n      add\n      0x00\n      swap1\n      sload\n      swap1\n      0x0100\n      exp\n      swap1\n      div\n      0xff\n      and\n      swap1\n      pop\n      dup7\n      jump\t// out\n        /* \"contracts/smartcontractldoge.sol\":796:837  mapping(address => Expert) public experts */\n    tag_28:\n      mstore(0x20, 0x02)\n      dup1\n      0x00\n      mstore\n      keccak256(0x00, 0x40)\n      0x00\n      swap2\n      pop\n      swap1\n      pop\n      dup1\n      0x00\n      add\n      0x00\n      swap1\n      sload\n      swap1\n      0x0100\n      exp\n      swap1\n      div\n      0xffffffffffffffffffffffffffffffffffffffff\n      and\n      swap1\n      dup1\n      0x01\n      add\n      dup1\n      sload\n      tag_89\n      swap1\n      tag_84\n      jump\t// in\n    tag_89:\n      dup1\n      0x1f\n      add\n      0x20\n      dup1\n      swap2\n      div\n      mul\n      0x20\n      add\n      mload(0x40)\n      swap1\n      dup2\n      add\n      0x40\n      mstore\n      dup1\n      swap3\n      swap2\n      swap1\n      dup2\n      dup2\n      mstore\n      0x20\n      add\n      dup3\n      dup1\n      sload\n      tag_90\n      swap1\n      tag_84\n      jump\t// in\n    tag_90:\n      dup1\n      iszero\n      tag_91\n      jumpi\n      dup1\n      0x1f\n      lt\n      tag_92\n      jumpi\n      0x0100\n      dup1\n      dup4\n      sload\n      div\n      mul\n      dup4\n      mstore\n      swap2\n      0x20\n      add\n      swap2\n      jump(tag_91)\n    tag_92:\n      dup3\n      add\n      swap2\n      swap1\n      0x00\n      mstore\n      keccak256(0x00, 0x20)\n      swap1\n    tag_93:\n      dup2\n      sload\n      dup2\n      mstore\n      swap1\n      0x01\n      add\n      swap1\n      0x20\n      add\n      dup1\n      dup4\n      gt\n      tag_93\n      jumpi\n      dup3\n      swap1\n      sub\n      0x1f\n      and\n      dup3\n      add\n      swap2\n    tag_91:\n      pop\n      pop\n      pop\n      pop\n      pop\n      swap1\n      dup1\n      0x02\n      add\n      dup1\n      sload\n      tag_94\n      swap1\n      tag_84\n      jump\t// in\n    tag_94:\n      dup1\n      0x1f\n      add\n      0x20\n      dup1\n      swap2\n      div\n      mul\n      0x20\n      add\n      mload(0x40)\n      swap1\n      dup2\n      add\n      0x40\n      mstore\n      dup1\n      swap3\n      swap2\n      swap1\n      dup2\n      dup2\n      mstore\n      0x20\n      add\n      dup3\n      dup1\n      sload\n      tag_95\n      swap1\n      tag_84\n      jump\t// in\n    tag_95:\n      dup1\n      iszero\n      tag_96\n      jumpi\n      dup1\n      0x1f\n      lt\n      tag_97\n      jumpi\n      0x0100\n      dup1\n      dup4\n      sload\n      div\n      mul\n      dup4\n      mstore\n      swap2\n      0x20\n      add\n      swap2\n      jump(tag_96)\n    tag_97:\n      dup3\n      add\n      swap2\n      swap1\n      0x00\n      mstore\n      keccak256(0x00, 0x20)\n      swap1\n    tag_98:\n      dup2\n      sload\n      dup2\n      mstore\n      swap1\n      0x01\n      add\n      swap1\n      0x20\n      add\n      dup1\n      dup4\n      gt\n      tag_98\n      jumpi\n      dup3\n      swap1\n      sub\n      0x1f\n      and\n      dup3\n      add\n      swap2\n    tag_96:\n      pop\n      pop\n      pop\n      pop\n      pop\n      swap1\n      dup1\n      0x03\n      add\n      0x00\n      swap1\n      sload\n      swap1\n      0x0100\n      exp\n      swap1\n      div\n      0xff\n      and\n      swap1\n      pop\n      dup5\n      jump\t// out\n        /* \"contracts/smartcontractldoge.sol\":3614:4180  function withdrawFunds(uint256 _projectId) public {... */\n    tag_34:\n        /* \"contracts/smartcontractldoge.sol\":3675:3698  Project storage project */\n      0x00\n        /* \"contracts/smartcontractldoge.sol\":3701:3709  projects */\n      0x03\n        /* \"contracts/smartcontractldoge.sol\":3701:3721  projects[_projectId] */\n      0x00\n        /* \"contracts/smartcontractldoge.sol\":3710:3720  _projectId */\n      dup4\n        /* \"contracts/smartcontractldoge.sol\":3701:3721  projects[_projectId] */\n      dup2\n      mstore\n      0x20\n      add\n      swap1\n      dup2\n      mstore\n      0x20\n      add\n      0x00\n      keccak256\n        /* \"contracts/smartcontractldoge.sol\":3675:3721  Project storage project = projects[_projectId] */\n      swap1\n      pop\n        /* \"contracts/smartcontractldoge.sol\":3759:3769  msg.sender */\n      caller\n        /* \"contracts/smartcontractldoge.sol\":3740:3769  project.creator == msg.sender */\n      0xffffffffffffffffffffffffffffffffffffffff\n      and\n        /* \"contracts/smartcontractldoge.sol\":3740:3747  project */\n      dup2\n        /* \"contracts/smartcontractldoge.sol\":3740:3755  project.creator */\n      0x02\n      add\n      0x00\n      swap1\n      sload\n      swap1\n      0x0100\n      exp\n      swap1\n      div\n      0xffffffffffffffffffffffffffffffffffffffff\n      and\n        /* \"contracts/smartcontractldoge.sol\":3740:3769  project.creator == msg.sender */\n      0xffffffffffffffffffffffffffffffffffffffff\n      and\n      eq\n        /* \"contracts/smartcontractldoge.sol\":3732:3818  require(project.creator == msg.sender, \"Only the project creator can withdraw funds.\") */\n      tag_100\n      jumpi\n      mload(0x40)\n      0x08c379a000000000000000000000000000000000000000000000000000000000\n      dup2\n      mstore\n      0x04\n      add\n      tag_101\n      swap1\n      tag_102\n      jump\t// in\n    tag_101:\n      mload(0x40)\n      dup1\n      swap2\n      sub\n      swap1\n      revert\n    tag_100:\n        /* \"contracts/smartcontractldoge.sol\":3855:3875  ProjectStatus.Funded */\n      0x02\n        /* \"contracts/smartcontractldoge.sol\":3837:3875  project.status == ProjectStatus.Funded */\n      0x03\n      dup2\n      gt\n      iszero\n      tag_103\n      jumpi\n      tag_104\n      tag_105\n      jump\t// in\n    tag_104:\n    tag_103:\n        /* \"contracts/smartcontractldoge.sol\":3837:3844  project */\n      dup2\n        /* \"contracts/smartcontractldoge.sol\":3837:3851  project.status */\n      0x05\n      add\n      0x00\n      swap1\n      sload\n      swap1\n      0x0100\n      exp\n      swap1\n      div\n      0xff\n      and\n        /* \"contracts/smartcontractldoge.sol\":3837:3875  project.status == ProjectStatus.Funded */\n      0x03\n      dup2\n      gt\n      iszero\n      tag_106\n      jumpi\n      tag_107\n      tag_105\n      jump\t// in\n    tag_107:\n    tag_106:\n      eq\n        /* \"contracts/smartcontractldoge.sol\":3829:3908  require(project.status == ProjectStatus.Funded, \"Project is not fully funded.\") */\n      tag_108\n      jumpi\n      mload(0x40)\n      0x08c379a000000000000000000000000000000000000000000000000000000000\n      dup2\n      mstore\n      0x04\n      add\n      tag_109\n      swap1\n      tag_110\n      jump\t// in\n    tag_109:\n      mload(0x40)\n      dup1\n      swap2\n      sub\n      swap1\n      revert\n    tag_108:\n        /* \"contracts/smartcontractldoge.sol\":3921:3935  uint256 amount */\n      0x00\n        /* \"contracts/smartcontractldoge.sol\":3938:3945  project */\n      dup2\n        /* \"contracts/smartcontractldoge.sol\":3938:3957  project.fundsRaised */\n      0x04\n      add\n      sload\n        /* \"contracts/smartcontractldoge.sol\":3921:3957  uint256 amount = project.fundsRaised */\n      swap1\n      pop\n        /* \"contracts/smartcontractldoge.sol\":3990:3991  0 */\n      0x00\n        /* \"contracts/smartcontractldoge.sol\":3968:3975  project */\n      dup3\n        /* \"contracts/smartcontractldoge.sol\":3968:3987  project.fundsRaised */\n      0x04\n      add\n        /* \"contracts/smartcontractldoge.sol\":3968:3991  project.fundsRaised = 0 */\n      dup2\n      swap1\n      sstore\n      pop\n        /* \"contracts/smartcontractldoge.sol\":4019:4042  ProjectStatus.Completed */\n      0x03\n        /* \"contracts/smartcontractldoge.sol\":4002:4009  project */\n      dup3\n        /* \"contracts/smartcontractldoge.sol\":4002:4016  project.status */\n      0x05\n      add\n      0x00\n        /* \"contracts/smartcontractldoge.sol\":4002:4042  project.status = ProjectStatus.Completed */\n      0x0100\n      exp\n      dup2\n      sload\n      dup2\n      0xff\n      mul\n      not\n      and\n      swap1\n      dup4\n      0x03\n      dup2\n      gt\n      iszero\n      tag_111\n      jumpi\n      tag_112\n      tag_105\n      jump\t// in\n    tag_112:\n    tag_111:\n      mul\n      or\n      swap1\n      sstore\n      pop\n        /* \"contracts/smartcontractldoge.sol\":4064:4076  bool success */\n      0x00\n        /* \"contracts/smartcontractldoge.sol\":4090:4100  msg.sender */\n      caller\n        /* \"contracts/smartcontractldoge.sol\":4082:4106  payable(msg.sender).call */\n      0xffffffffffffffffffffffffffffffffffffffff\n      and\n        /* \"contracts/smartcontractldoge.sol\":4114:4120  amount */\n      dup3\n        /* \"contracts/smartcontractldoge.sol\":4082:4125  payable(msg.sender).call{value: amount}(\"\") */\n      mload(0x40)\n      tag_113\n      swap1\n      tag_114\n      jump\t// in\n    tag_113:\n      0x00\n      mload(0x40)\n      dup1\n      dup4\n      sub\n      dup2\n      dup6\n      dup8\n      gas\n      call\n      swap3\n      pop\n      pop\n      pop\n      returndatasize\n      dup1\n      0x00\n      dup2\n      eq\n      tag_117\n      jumpi\n      mload(0x40)\n      swap2\n      pop\n      and(add(returndatasize, 0x3f), not(0x1f))\n      dup3\n      add\n      0x40\n      mstore\n      returndatasize\n      dup3\n      mstore\n      returndatasize\n      0x00\n      0x20\n      dup5\n      add\n      returndatacopy\n      jump(tag_116)\n    tag_117:\n      0x60\n      swap2\n      pop\n    tag_116:\n      pop\n        /* \"contracts/smartcontractldoge.sol\":4063:4125  (bool success, ) = payable(msg.sender).call{value: amount}(\"\") */\n      pop\n      swap1\n      pop\n        /* \"contracts/smartcontractldoge.sol\":4144:4151  success */\n      dup1\n        /* \"contracts/smartcontractldoge.sol\":4136:4172  require(success, \"Transfer failed.\") */\n      tag_118\n      jumpi\n      mload(0x40)\n      0x08c379a000000000000000000000000000000000000000000000000000000000\n      dup2\n      mstore\n      0x04\n      add\n      tag_119\n      swap1\n      tag_120\n      jump\t// in\n    tag_119:\n      mload(0x40)\n      dup1\n      swap2\n      sub\n      swap1\n      revert\n    tag_118:\n        /* \"contracts/smartcontractldoge.sol\":3664:4180  {... */\n      pop\n      pop\n      pop\n        /* \"contracts/smartcontractldoge.sol\":3614:4180  function withdrawFunds(uint256 _projectId) public {... */\n      pop\n      jump\t// out\n        /* \"contracts/smartcontractldoge.sol\":961:988  uint256 public projectCount */\n    tag_37:\n      sload(0x05)\n      dup2\n      jump\t// out\n        /* \"contracts/smartcontractldoge.sol\":1500:1989  function addExpert(address _expertAddress, string memory _name, string memory _expertiseArea) public onlyOwner {... */\n    tag_44:\n        /* \"contracts/smartcontractldoge.sol\":217:222  owner */\n      0x00\n      dup1\n      sload\n      swap1\n      0x0100\n      exp\n      swap1\n      div\n      0xffffffffffffffffffffffffffffffffffffffff\n      and\n        /* \"contracts/smartcontractldoge.sol\":203:222  msg.sender == owner */\n      0xffffffffffffffffffffffffffffffffffffffff\n      and\n        /* \"contracts/smartcontractldoge.sol\":203:213  msg.sender */\n      caller\n        /* \"contracts/smartcontractldoge.sol\":203:222  msg.sender == owner */\n      0xffffffffffffffffffffffffffffffffffffffff\n      and\n      eq\n        /* \"contracts/smartcontractldoge.sol\":195:265  require(msg.sender == owner, \"Only the owner can call this function.\") */\n      tag_122\n      jumpi\n      mload(0x40)\n      0x08c379a000000000000000000000000000000000000000000000000000000000\n      dup2\n      mstore\n      0x04\n      add\n      tag_123\n      swap1\n      tag_124\n      jump\t// in\n    tag_123:\n      mload(0x40)\n      dup1\n      swap2\n      sub\n      swap1\n      revert\n    tag_122:\n        /* \"contracts/smartcontractldoge.sol\":1631:1638  experts */\n      0x02\n        /* \"contracts/smartcontractldoge.sol\":1631:1654  experts[_expertAddress] */\n      0x00\n        /* \"contracts/smartcontractldoge.sol\":1639:1653  _expertAddress */\n      dup5\n        /* \"contracts/smartcontractldoge.sol\":1631:1654  experts[_expertAddress] */\n      0xffffffffffffffffffffffffffffffffffffffff\n      and\n      0xffffffffffffffffffffffffffffffffffffffff\n      and\n      dup2\n      mstore\n      0x20\n      add\n      swap1\n      dup2\n      mstore\n      0x20\n      add\n      0x00\n      keccak256\n        /* \"contracts/smartcontractldoge.sol\":1631:1665  experts[_expertAddress].isVerified */\n      0x03\n      add\n      0x00\n      swap1\n      sload\n      swap1\n      0x0100\n      exp\n      swap1\n      div\n      0xff\n      and\n        /* \"contracts/smartcontractldoge.sol\":1630:1665  !experts[_expertAddress].isVerified */\n      iszero\n        /* \"contracts/smartcontractldoge.sol\":1622:1694  require(!experts[_expertAddress].isVerified, \"Expert already verified.\") */\n      tag_126\n      jumpi\n      mload(0x40)\n      0x08c379a000000000000000000000000000000000000000000000000000000000\n      dup2\n      mstore\n      0x04\n      add\n      tag_127\n      swap1\n      tag_128\n      jump\t// in\n    tag_127:\n      mload(0x40)\n      dup1\n      swap2\n      sub\n      swap1\n      revert\n    tag_126:\n        /* \"contracts/smartcontractldoge.sol\":1741:1905  Expert({... */\n      mload(0x40)\n      dup1\n      0x80\n      add\n      0x40\n      mstore\n      dup1\n        /* \"contracts/smartcontractldoge.sol\":1778:1792  _expertAddress */\n      dup5\n        /* \"contracts/smartcontractldoge.sol\":1741:1905  Expert({... */\n      0xffffffffffffffffffffffffffffffffffffffff\n      and\n      dup2\n      mstore\n      0x20\n      add\n        /* \"contracts/smartcontractldoge.sol\":1813:1818  _name */\n      dup4\n        /* \"contracts/smartcontractldoge.sol\":1741:1905  Expert({... */\n      dup2\n      mstore\n      0x20\n      add\n        /* \"contracts/smartcontractldoge.sol\":1848:1862  _expertiseArea */\n      dup3\n        /* \"contracts/smartcontractldoge.sol\":1741:1905  Expert({... */\n      dup2\n      mstore\n      0x20\n      add\n        /* \"contracts/smartcontractldoge.sol\":1889:1893  true */\n      0x01\n        /* \"contracts/smartcontractldoge.sol\":1741:1905  Expert({... */\n      iszero\n      iszero\n      dup2\n      mstore\n      pop\n        /* \"contracts/smartcontractldoge.sol\":1715:1722  experts */\n      0x02\n        /* \"contracts/smartcontractldoge.sol\":1715:1738  experts[_expertAddress] */\n      0x00\n        /* \"contracts/smartcontractldoge.sol\":1723:1737  _expertAddress */\n      dup6\n        /* \"contracts/smartcontractldoge.sol\":1715:1738  experts[_expertAddress] */\n      0xffffffffffffffffffffffffffffffffffffffff\n      and\n      0xffffffffffffffffffffffffffffffffffffffff\n      and\n      dup2\n      mstore\n      0x20\n      add\n      swap1\n      dup2\n      mstore\n      0x20\n      add\n      0x00\n      keccak256\n        /* \"contracts/smartcontractldoge.sol\":1715:1905  experts[_expertAddress] = Expert({... */\n      0x00\n      dup3\n      add\n      mload\n      dup2\n      0x00\n      add\n      exp(0x0100, 0x00)\n      dup2\n      sload\n      dup2\n      0xffffffffffffffffffffffffffffffffffffffff\n      mul\n      not\n      and\n      swap1\n      dup4\n      0xffffffffffffffffffffffffffffffffffffffff\n      and\n      mul\n      or\n      swap1\n      sstore\n      pop\n      0x20\n      dup3\n      add\n      mload\n      dup2\n      0x01\n      add\n      swap1\n      dup2\n      tag_129\n      swap2\n      swap1\n      tag_130\n      jump\t// in\n    tag_129:\n      pop\n      0x40\n      dup3\n      add\n      mload\n      dup2\n      0x02\n      add\n      swap1\n      dup2\n      tag_131\n      swap2\n      swap1\n      tag_130\n      jump\t// in\n    tag_131:\n      pop\n      0x60\n      dup3\n      add\n      mload\n      dup2\n      0x03\n      add\n      exp(0x0100, 0x00)\n      dup2\n      sload\n      dup2\n      0xff\n      mul\n      not\n      and\n      swap1\n      dup4\n      iszero\n      iszero\n      mul\n      or\n      swap1\n      sstore\n      pop\n      swap1\n      pop\n      pop\n        /* \"contracts/smartcontractldoge.sol\":1943:1957  _expertAddress */\n      dup3\n        /* \"contracts/smartcontractldoge.sol\":1931:1981  ExpertAdded(_expertAddress, _name, _expertiseArea) */\n      0xffffffffffffffffffffffffffffffffffffffff\n      and\n      0xd7df24ac28890c20efa8f52aaba3b31a824ec2b3bf477d72110c5e026a1e3bef\n        /* \"contracts/smartcontractldoge.sol\":1959:1964  _name */\n      dup4\n        /* \"contracts/smartcontractldoge.sol\":1966:1980  _expertiseArea */\n      dup4\n        /* \"contracts/smartcontractldoge.sol\":1931:1981  ExpertAdded(_expertAddress, _name, _expertiseArea) */\n      mload(0x40)\n      tag_132\n      swap3\n      swap2\n      swap1\n      tag_133\n      jump\t// in\n    tag_132:\n      mload(0x40)\n      dup1\n      swap2\n      sub\n      swap1\n      log2\n        /* \"contracts/smartcontractldoge.sol\":1500:1989  function addExpert(address _expertAddress, string memory _name, string memory _expertiseArea) public onlyOwner {... */\n      pop\n      pop\n      pop\n      jump\t// out\n        /* \"contracts/smartcontractldoge.sol\":2610:3285  function investInProject(uint256 _projectId) public payable {... */\n    tag_47:\n        /* \"contracts/smartcontractldoge.sol\":2681:2704  Project storage project */\n      0x00\n        /* \"contracts/smartcontractldoge.sol\":2707:2715  projects */\n      0x03\n        /* \"contracts/smartcontractldoge.sol\":2707:2727  projects[_projectId] */\n      0x00\n        /* \"contracts/smartcontractldoge.sol\":2716:2726  _projectId */\n      dup4\n        /* \"contracts/smartcontractldoge.sol\":2707:2727  projects[_projectId] */\n      dup2\n      mstore\n      0x20\n      add\n      swap1\n      dup2\n      mstore\n      0x20\n      add\n      0x00\n      keccak256\n        /* \"contracts/smartcontractldoge.sol\":2681:2727  Project storage project = projects[_projectId] */\n      swap1\n      pop\n        /* \"contracts/smartcontractldoge.sol\":2764:2785  ProjectStatus.Pending */\n      0x00\n        /* \"contracts/smartcontractldoge.sol\":2746:2785  project.status == ProjectStatus.Pending */\n      0x03\n      dup2\n      gt\n      iszero\n      tag_135\n      jumpi\n      tag_136\n      tag_105\n      jump\t// in\n    tag_136:\n    tag_135:\n        /* \"contracts/smartcontractldoge.sol\":2746:2753  project */\n      dup2\n        /* \"contracts/smartcontractldoge.sol\":2746:2760  project.status */\n      0x05\n      add\n      0x00\n      swap1\n      sload\n      swap1\n      0x0100\n      exp\n      swap1\n      div\n      0xff\n      and\n        /* \"contracts/smartcontractldoge.sol\":2746:2785  project.status == ProjectStatus.Pending */\n      0x03\n      dup2\n      gt\n      iszero\n      tag_137\n      jumpi\n      tag_138\n      tag_105\n      jump\t// in\n    tag_138:\n    tag_137:\n      eq\n        /* \"contracts/smartcontractldoge.sol\":2738:2822  require(project.status == ProjectStatus.Pending, \"Project is not open for funding.\") */\n      tag_139\n      jumpi\n      mload(0x40)\n      0x08c379a000000000000000000000000000000000000000000000000000000000\n      dup2\n      mstore\n      0x04\n      add\n      tag_140\n      swap1\n      tag_141\n      jump\t// in\n    tag_140:\n      mload(0x40)\n      dup1\n      swap2\n      sub\n      swap1\n      revert\n    tag_139:\n        /* \"contracts/smartcontractldoge.sol\":2853:2854  0 */\n      0x00\n        /* \"contracts/smartcontractldoge.sol\":2841:2850  msg.value */\n      callvalue\n        /* \"contracts/smartcontractldoge.sol\":2841:2854  msg.value > 0 */\n      gt\n        /* \"contracts/smartcontractldoge.sol\":2833:2896  require(msg.value > 0, \"Investment must be greater than zero.\") */\n      tag_142\n      jumpi\n      mload(0x40)\n      0x08c379a000000000000000000000000000000000000000000000000000000000\n      dup2\n      mstore\n      0x04\n      add\n      tag_143\n      swap1\n      tag_144\n      jump\t// in\n    tag_143:\n      mload(0x40)\n      dup1\n      swap2\n      sub\n      swap1\n      revert\n    tag_142:\n        /* \"contracts/smartcontractldoge.sol\":2940:2949  msg.value */\n      callvalue\n        /* \"contracts/smartcontractldoge.sol\":2917:2924  project */\n      dup2\n        /* \"contracts/smartcontractldoge.sol\":2917:2936  project.fundsRaised */\n      0x04\n      add\n      0x00\n        /* \"contracts/smartcontractldoge.sol\":2917:2949  project.fundsRaised += msg.value */\n      dup3\n      dup3\n      sload\n      tag_145\n      swap2\n      swap1\n      tag_146\n      jump\t// in\n    tag_145:\n      swap3\n      pop\n      pop\n      dup2\n      swap1\n      sstore\n      pop\n        /* \"contracts/smartcontractldoge.sol\":2960:2976  projectInvestors */\n      0x04\n        /* \"contracts/smartcontractldoge.sol\":2960:2988  projectInvestors[_projectId] */\n      0x00\n        /* \"contracts/smartcontractldoge.sol\":2977:2987  _projectId */\n      dup4\n        /* \"contracts/smartcontractldoge.sol\":2960:2988  projectInvestors[_projectId] */\n      dup2\n      mstore\n      0x20\n      add\n      swap1\n      dup2\n      mstore\n      0x20\n      add\n      0x00\n      keccak256\n        /* \"contracts/smartcontractldoge.sol\":2994:3025  Investor(msg.sender, msg.value) */\n      mload(0x40)\n      dup1\n      0x40\n      add\n      0x40\n      mstore\n      dup1\n        /* \"contracts/smartcontractldoge.sol\":3003:3013  msg.sender */\n      caller\n        /* \"contracts/smartcontractldoge.sol\":2994:3025  Investor(msg.sender, msg.value) */\n      0xffffffffffffffffffffffffffffffffffffffff\n      and\n      dup2\n      mstore\n      0x20\n      add\n        /* \"contracts/smartcontractldoge.sol\":3015:3024  msg.value */\n      callvalue\n        /* \"contracts/smartcontractldoge.sol\":2994:3025  Investor(msg.sender, msg.value) */\n      dup2\n      mstore\n      pop\n        /* \"contracts/smartcontractldoge.sol\":2960:3026  projectInvestors[_projectId].push(Investor(msg.sender, msg.value)) */\n      swap1\n      dup1\n      0x01\n      dup2\n      sload\n      add\n      dup1\n      dup3\n      sstore\n      dup1\n      swap2\n      pop\n      pop\n      0x01\n      swap1\n      sub\n      swap1\n      0x00\n      mstore\n      keccak256(0x00, 0x20)\n      swap1\n      0x02\n      mul\n      add\n      0x00\n      swap1\n      swap2\n      swap1\n      swap2\n      swap1\n      swap2\n      pop\n      0x00\n      dup3\n      add\n      mload\n      dup2\n      0x00\n      add\n      exp(0x0100, 0x00)\n      dup2\n      sload\n      dup2\n      0xffffffffffffffffffffffffffffffffffffffff\n      mul\n      not\n      and\n      swap1\n      dup4\n      0xffffffffffffffffffffffffffffffffffffffff\n      and\n      mul\n      or\n      swap1\n      sstore\n      pop\n      0x20\n      dup3\n      add\n      mload\n      dup2\n      0x01\n      add\n      sstore\n      pop\n      pop\n        /* \"contracts/smartcontractldoge.sol\":3078:3088  msg.sender */\n      caller\n        /* \"contracts/smartcontractldoge.sol\":3052:3100  FundsReceived(_projectId, msg.sender, msg.value) */\n      0xffffffffffffffffffffffffffffffffffffffff\n      and\n        /* \"contracts/smartcontractldoge.sol\":3066:3076  _projectId */\n      dup3\n        /* \"contracts/smartcontractldoge.sol\":3052:3100  FundsReceived(_projectId, msg.sender, msg.value) */\n      0xfb932f39cc5ea177af75a4f1502d59d13404be49a2edb139943b43e4fb3fe45b\n        /* \"contracts/smartcontractldoge.sol\":3090:3099  msg.value */\n      callvalue\n        /* \"contracts/smartcontractldoge.sol\":3052:3100  FundsReceived(_projectId, msg.sender, msg.value) */\n      mload(0x40)\n      tag_148\n      swap2\n      swap1\n      tag_39\n      jump\t// in\n    tag_148:\n      mload(0x40)\n      dup1\n      swap2\n      sub\n      swap1\n      log3\n        /* \"contracts/smartcontractldoge.sol\":3148:3155  project */\n      dup1\n        /* \"contracts/smartcontractldoge.sol\":3148:3167  project.fundsNeeded */\n      0x03\n      add\n      sload\n        /* \"contracts/smartcontractldoge.sol\":3125:3132  project */\n      dup2\n        /* \"contracts/smartcontractldoge.sol\":3125:3144  project.fundsRaised */\n      0x04\n      add\n      sload\n        /* \"contracts/smartcontractldoge.sol\":3125:3167  project.fundsRaised >= project.fundsNeeded */\n      lt\n        /* \"contracts/smartcontractldoge.sol\":3121:3278  if (project.fundsRaised >= project.fundsNeeded) {... */\n      tag_149\n      jumpi\n        /* \"contracts/smartcontractldoge.sol\":3201:3221  ProjectStatus.Funded */\n      0x02\n        /* \"contracts/smartcontractldoge.sol\":3184:3191  project */\n      dup2\n        /* \"contracts/smartcontractldoge.sol\":3184:3198  project.status */\n      0x05\n      add\n      0x00\n        /* \"contracts/smartcontractldoge.sol\":3184:3221  project.status = ProjectStatus.Funded */\n      0x0100\n      exp\n      dup2\n      sload\n      dup2\n      0xff\n      mul\n      not\n      and\n      swap1\n      dup4\n      0x03\n      dup2\n      gt\n      iszero\n      tag_150\n      jumpi\n      tag_151\n      tag_105\n      jump\t// in\n    tag_151:\n    tag_150:\n      mul\n      or\n      swap1\n      sstore\n      pop\n        /* \"contracts/smartcontractldoge.sol\":3255:3265  _projectId */\n      dup2\n        /* \"contracts/smartcontractldoge.sol\":3241:3266  ProjectFunded(_projectId) */\n      0x2301e0a2ad8f6e28a7fbb09e96f5c14e588fac346ed5ce607e1a018bc7688646\n      mload(0x40)\n      mload(0x40)\n      dup1\n      swap2\n      sub\n      swap1\n      log2\n        /* \"contracts/smartcontractldoge.sol\":3121:3278  if (project.fundsRaised >= project.fundsNeeded) {... */\n    tag_149:\n        /* \"contracts/smartcontractldoge.sol\":2670:3285  {... */\n      pop\n        /* \"contracts/smartcontractldoge.sol\":2610:3285  function investInProject(uint256 _projectId) public payable {... */\n      pop\n      jump\t// out\n        /* \"contracts/smartcontractldoge.sol\":894:948  mapping(uint256 => Investor[]) public projectInvestors */\n    tag_52:\n      mstore(0x20, 0x04)\n      dup2\n      0x00\n      mstore\n      keccak256(0x00, 0x40)\n      dup2\n      dup2\n      sload\n      dup2\n      lt\n      tag_152\n      jumpi\n      0x00\n      dup1\n      revert\n    tag_152:\n      swap1\n      0x00\n      mstore\n      keccak256(0x00, 0x20)\n      swap1\n      0x02\n      mul\n      add\n      0x00\n      swap2\n      pop\n      swap2\n      pop\n      pop\n      dup1\n      0x00\n      add\n      0x00\n      swap1\n      sload\n      swap1\n      0x0100\n      exp\n      swap1\n      div\n      0xffffffffffffffffffffffffffffffffffffffff\n      and\n      swap1\n      dup1\n      0x01\n      add\n      sload\n      swap1\n      pop\n      dup3\n      jump\t// out\n        /* \"contracts/smartcontractldoge.sol\":102:122  address public owner */\n    tag_57:\n      0x00\n      dup1\n      sload\n      swap1\n      0x0100\n      exp\n      swap1\n      div\n      0xffffffffffffffffffffffffffffffffffffffff\n      and\n      dup2\n      jump\t// out\n        /* \"contracts/smartcontractldoge.sol\":2038:2574  function createProject(string memory _title, uint256 _fundsNeeded) public {... */\n    tag_64:\n        /* \"contracts/smartcontractldoge.sol\":2146:2147  0 */\n      0x00\n        /* \"contracts/smartcontractldoge.sol\":2131:2143  _fundsNeeded */\n      dup2\n        /* \"contracts/smartcontractldoge.sol\":2131:2147  _fundsNeeded > 0 */\n      gt\n        /* \"contracts/smartcontractldoge.sol\":2123:2193  require(_fundsNeeded > 0, \"Funding needed must be greater than zero.\") */\n      tag_155\n      jumpi\n      mload(0x40)\n      0x08c379a000000000000000000000000000000000000000000000000000000000\n      dup2\n      mstore\n      0x04\n      add\n      tag_156\n      swap1\n      tag_157\n      jump\t// in\n    tag_156:\n      mload(0x40)\n      dup1\n      swap2\n      sub\n      swap1\n      revert\n    tag_155:\n        /* \"contracts/smartcontractldoge.sol\":2214:2226  projectCount */\n      0x05\n      0x00\n        /* \"contracts/smartcontractldoge.sol\":2214:2228  projectCount++ */\n      dup2\n      sload\n      dup1\n      swap3\n      swap2\n      swap1\n      tag_158\n      swap1\n      tag_159\n      jump\t// in\n    tag_158:\n      swap2\n      swap1\n      pop\n      sstore\n      pop\n        /* \"contracts/smartcontractldoge.sol\":2264:2490  Project({... */\n      mload(0x40)\n      dup1\n      0xc0\n      add\n      0x40\n      mstore\n      dup1\n        /* \"contracts/smartcontractldoge.sol\":2291:2303  projectCount */\n      sload(0x05)\n        /* \"contracts/smartcontractldoge.sol\":2264:2490  Project({... */\n      dup2\n      mstore\n      0x20\n      add\n        /* \"contracts/smartcontractldoge.sol\":2325:2331  _title */\n      dup4\n        /* \"contracts/smartcontractldoge.sol\":2264:2490  Project({... */\n      dup2\n      mstore\n      0x20\n      add\n        /* \"contracts/smartcontractldoge.sol\":2355:2365  msg.sender */\n      caller\n        /* \"contracts/smartcontractldoge.sol\":2264:2490  Project({... */\n      0xffffffffffffffffffffffffffffffffffffffff\n      and\n      dup2\n      mstore\n      0x20\n      add\n        /* \"contracts/smartcontractldoge.sol\":2393:2405  _fundsNeeded */\n      dup3\n        /* \"contracts/smartcontractldoge.sol\":2264:2490  Project({... */\n      dup2\n      mstore\n      0x20\n      add\n        /* \"contracts/smartcontractldoge.sol\":2433:2434  0 */\n      0x00\n        /* \"contracts/smartcontractldoge.sol\":2264:2490  Project({... */\n      dup2\n      mstore\n      0x20\n      add\n        /* \"contracts/smartcontractldoge.sol\":2457:2478  ProjectStatus.Pending */\n      0x00\n        /* \"contracts/smartcontractldoge.sol\":2264:2490  Project({... */\n      0x03\n      dup2\n      gt\n      iszero\n      tag_160\n      jumpi\n      tag_161\n      tag_105\n      jump\t// in\n    tag_161:\n    tag_160:\n      dup2\n      mstore\n      pop\n        /* \"contracts/smartcontractldoge.sol\":2239:2247  projects */\n      0x03\n        /* \"contracts/smartcontractldoge.sol\":2239:2261  projects[projectCount] */\n      0x00\n        /* \"contracts/smartcontractldoge.sol\":2248:2260  projectCount */\n      sload(0x05)\n        /* \"contracts/smartcontractldoge.sol\":2239:2261  projects[projectCount] */\n      dup2\n      mstore\n      0x20\n      add\n      swap1\n      dup2\n      mstore\n      0x20\n      add\n      0x00\n      keccak256\n        /* \"contracts/smartcontractldoge.sol\":2239:2490  projects[projectCount] = Project({... */\n      0x00\n      dup3\n      add\n      mload\n      dup2\n      0x00\n      add\n      sstore\n      0x20\n      dup3\n      add\n      mload\n      dup2\n      0x01\n      add\n      swap1\n      dup2\n      tag_162\n      swap2\n      swap1\n      tag_130\n      jump\t// in\n    tag_162:\n      pop\n      0x40\n      dup3\n      add\n      mload\n      dup2\n      0x02\n      add\n      exp(0x0100, 0x00)\n      dup2\n      sload\n      dup2\n      0xffffffffffffffffffffffffffffffffffffffff\n      mul\n      not\n      and\n      swap1\n      dup4\n      0xffffffffffffffffffffffffffffffffffffffff\n      and\n      mul\n      or\n      swap1\n      sstore\n      pop\n      0x60\n      dup3\n      add\n      mload\n      dup2\n      0x03\n      add\n      sstore\n      0x80\n      dup3\n      add\n      mload\n      dup2\n      0x04\n      add\n      sstore\n      0xa0\n      dup3\n      add\n      mload\n      dup2\n      0x05\n      add\n      exp(0x0100, 0x00)\n      dup2\n      sload\n      dup2\n      0xff\n      mul\n      not\n      and\n      swap1\n      dup4\n      0x03\n      dup2\n      gt\n      iszero\n      tag_163\n      jumpi\n      tag_164\n      tag_105\n      jump\t// in\n    tag_164:\n    tag_163:\n      mul\n      or\n      swap1\n      sstore\n      pop\n      swap1\n      pop\n      pop\n        /* \"contracts/smartcontractldoge.sol\":2531:2543  projectCount */\n      sload(0x05)\n        /* \"contracts/smartcontractldoge.sol\":2516:2566  ProjectCreated(projectCount, _title, _fundsNeeded) */\n      0x6245d01eb0db8df9242165c3ee1e2324367f93303d7b8f6a86e38a8767e643ae\n        /* \"contracts/smartcontractldoge.sol\":2545:2551  _title */\n      dup4\n        /* \"contracts/smartcontractldoge.sol\":2553:2565  _fundsNeeded */\n      dup4\n        /* \"contracts/smartcontractldoge.sol\":2516:2566  ProjectCreated(projectCount, _title, _fundsNeeded) */\n      mload(0x40)\n      tag_165\n      swap3\n      swap2\n      swap1\n      tag_166\n      jump\t// in\n    tag_165:\n      mload(0x40)\n      dup1\n      swap2\n      sub\n      swap1\n      log2\n        /* \"contracts/smartcontractldoge.sol\":2038:2574  function createProject(string memory _title, uint256 _fundsNeeded) public {... */\n      pop\n      pop\n      jump\t// out\n        /* \"contracts/smartcontractldoge.sol\":4374:4502  function getExpert(address _expertAddress) public view returns (Expert memory) {... */\n    tag_68:\n        /* \"contracts/smartcontractldoge.sol\":4438:4451  Expert memory */\n      tag_167\n      tag_168\n      jump\t// in\n    tag_167:\n        /* \"contracts/smartcontractldoge.sol\":4471:4478  experts */\n      0x02\n        /* \"contracts/smartcontractldoge.sol\":4471:4494  experts[_expertAddress] */\n      0x00\n        /* \"contracts/smartcontractldoge.sol\":4479:4493  _expertAddress */\n      dup4\n        /* \"contracts/smartcontractldoge.sol\":4471:4494  experts[_expertAddress] */\n      0xffffffffffffffffffffffffffffffffffffffff\n      and\n      0xffffffffffffffffffffffffffffffffffffffff\n      and\n      dup2\n      mstore\n      0x20\n      add\n      swap1\n      dup2\n      mstore\n      0x20\n      add\n      0x00\n      keccak256\n        /* \"contracts/smartcontractldoge.sol\":4464:4494  return experts[_expertAddress] */\n      mload(0x40)\n      dup1\n      0x80\n      add\n      0x40\n      mstore\n      swap1\n      dup2\n      0x00\n      dup3\n      add\n      0x00\n      swap1\n      sload\n      swap1\n      0x0100\n      exp\n      swap1\n      div\n      0xffffffffffffffffffffffffffffffffffffffff\n      and\n      0xffffffffffffffffffffffffffffffffffffffff\n      and\n      0xffffffffffffffffffffffffffffffffffffffff\n      and\n      dup2\n      mstore\n      0x20\n      add\n      0x01\n      dup3\n      add\n      dup1\n      sload\n      tag_170\n      swap1\n      tag_84\n      jump\t// in\n    tag_170:\n      dup1\n      0x1f\n      add\n      0x20\n      dup1\n      swap2\n      div\n      mul\n      0x20\n      add\n      mload(0x40)\n      swap1\n      dup2\n      add\n      0x40\n      mstore\n      dup1\n      swap3\n      swap2\n      swap1\n      dup2\n      dup2\n      mstore\n      0x20\n      add\n      dup3\n      dup1\n      sload\n      tag_171\n      swap1\n      tag_84\n      jump\t// in\n    tag_171:\n      dup1\n      iszero\n      tag_172\n      jumpi\n      dup1\n      0x1f\n      lt\n      tag_173\n      jumpi\n      0x0100\n      dup1\n      dup4\n      sload\n      div\n      mul\n      dup4\n      mstore\n      swap2\n      0x20\n      add\n      swap2\n      jump(tag_172)\n    tag_173:\n      dup3\n      add\n      swap2\n      swap1\n      0x00\n      mstore\n      keccak256(0x00, 0x20)\n      swap1\n    tag_174:\n      dup2\n      sload\n      dup2\n      mstore\n      swap1\n      0x01\n      add\n      swap1\n      0x20\n      add\n      dup1\n      dup4\n      gt\n      tag_174\n      jumpi\n      dup3\n      swap1\n      sub\n      0x1f\n      and\n      dup3\n      add\n      swap2\n    tag_172:\n      pop\n      pop\n      pop\n      pop\n      pop\n      dup2\n      mstore\n      0x20\n      add\n      0x02\n      dup3\n      add\n      dup1\n      sload\n      tag_175\n      swap1\n      tag_84\n      jump\t// in\n    tag_175:\n      dup1\n      0x1f\n      add\n      0x20\n      dup1\n      swap2\n      div\n      mul\n      0x20\n      add\n      mload(0x40)\n      swap1\n      dup2\n      add\n      0x40\n      mstore\n      dup1\n      swap3\n      swap2\n      swap1\n      dup2\n      dup2\n      mstore\n      0x20\n      add\n      dup3\n      dup1\n      sload\n      tag_176\n      swap1\n      tag_84\n      jump\t// in\n    tag_176:\n      dup1\n      iszero\n      tag_177\n      jumpi\n      dup1\n      0x1f\n      lt\n      tag_178\n      jumpi\n      0x0100\n      dup1\n      dup4\n      sload\n      div\n      mul\n      dup4\n      mstore\n      swap2\n      0x20\n      add\n      swap2\n      jump(tag_177)\n    tag_178:\n      dup3\n      add\n      swap2\n      swap1\n      0x00\n      mstore\n      keccak256(0x00, 0x20)\n      swap1\n    tag_179:\n      dup2\n      sload\n      dup2\n      mstore\n      swap1\n      0x01\n      add\n      swap1\n      0x20\n      add\n      dup1\n      dup4\n      gt\n      tag_179\n      jumpi\n      dup3\n      swap1\n      sub\n      0x1f\n      and\n      dup3\n      add\n      swap2\n    tag_177:\n      pop\n      pop\n      pop\n      pop\n      pop\n      dup2\n      mstore\n      0x20\n      add\n      0x03\n      dup3\n      add\n      0x00\n      swap1\n      sload\n      swap1\n      0x0100\n      exp\n      swap1\n      div\n      0xff\n      and\n      iszero\n      iszero\n      iszero\n      iszero\n      dup2\n      mstore\n      pop\n      pop\n      swap1\n      pop\n        /* \"contracts/smartcontractldoge.sol\":4374:4502  function getExpert(address _expertAddress) public view returns (Expert memory) {... */\n      swap2\n      swap1\n      pop\n      jump\t// out\n        /* \"contracts/smartcontractldoge.sol\":129:154  uint256 public totalFunds */\n    tag_73:\n      sload(0x01)\n      dup2\n      jump\t// out\n        /* \"contracts/smartcontractldoge.sol\":3340:3562  function depositFunds() public payable {... */\n    tag_76:\n        /* \"contracts/smartcontractldoge.sol\":3410:3411  0 */\n      0x00\n        /* \"contracts/smartcontractldoge.sol\":3398:3407  msg.value */\n      callvalue\n        /* \"contracts/smartcontractldoge.sol\":3398:3411  msg.value > 0 */\n      gt\n        /* \"contracts/smartcontractldoge.sol\":3390:3457  require(msg.value > 0, \"Deposit amount must be greater than zero.\") */\n      tag_181\n      jumpi\n      mload(0x40)\n      0x08c379a000000000000000000000000000000000000000000000000000000000\n      dup2\n      mstore\n      0x04\n      add\n      tag_182\n      swap1\n      tag_183\n      jump\t// in\n    tag_182:\n      mload(0x40)\n      dup1\n      swap2\n      sub\n      swap1\n      revert\n    tag_181:\n        /* \"contracts/smartcontractldoge.sol\":3482:3491  msg.value */\n      callvalue\n        /* \"contracts/smartcontractldoge.sol\":3468:3478  totalFunds */\n      0x01\n      0x00\n        /* \"contracts/smartcontractldoge.sol\":3468:3491  totalFunds += msg.value */\n      dup3\n      dup3\n      sload\n      tag_184\n      swap2\n      swap1\n      tag_146\n      jump\t// in\n    tag_184:\n      swap3\n      pop\n      pop\n      dup2\n      swap1\n      sstore\n      pop\n        /* \"contracts/smartcontractldoge.sol\":3532:3542  msg.sender */\n      caller\n        /* \"contracts/smartcontractldoge.sol\":3517:3554  FundsDeposited(msg.sender, msg.value) */\n      0xffffffffffffffffffffffffffffffffffffffff\n      and\n      0x543ba50a5eec5e6178218e364b1d0f396157b3c8fa278522c2cb7fd99407d474\n        /* \"contracts/smartcontractldoge.sol\":3544:3553  msg.value */\n      callvalue\n        /* \"contracts/smartcontractldoge.sol\":3517:3554  FundsDeposited(msg.sender, msg.value) */\n      mload(0x40)\n      tag_185\n      swap2\n      swap1\n      tag_39\n      jump\t// in\n    tag_185:\n      mload(0x40)\n      dup1\n      swap2\n      sub\n      swap1\n      log2\n        /* \"contracts/smartcontractldoge.sol\":3340:3562  function depositFunds() public payable {... */\n      jump\t// out\n        /* \"contracts/smartcontractldoge.sol\":4216:4339  function getProject(uint256 _projectId) public view returns (Project memory) {... */\n    tag_80:\n        /* \"contracts/smartcontractldoge.sol\":4277:4291  Project memory */\n      tag_186\n      tag_187\n      jump\t// in\n    tag_186:\n        /* \"contracts/smartcontractldoge.sol\":4311:4319  projects */\n      0x03\n        /* \"contracts/smartcontractldoge.sol\":4311:4331  projects[_projectId] */\n      0x00\n        /* \"contracts/smartcontractldoge.sol\":4320:4330  _projectId */\n      dup4\n        /* \"contracts/smartcontractldoge.sol\":4311:4331  projects[_projectId] */\n      dup2\n      mstore\n      0x20\n      add\n      swap1\n      dup2\n      mstore\n      0x20\n      add\n      0x00\n      keccak256\n        /* \"contracts/smartcontractldoge.sol\":4304:4331  return projects[_projectId] */\n      mload(0x40)\n      dup1\n      0xc0\n      add\n      0x40\n      mstore\n      swap1\n      dup2\n      0x00\n      dup3\n      add\n      sload\n      dup2\n      mstore\n      0x20\n      add\n      0x01\n      dup3\n      add\n      dup1\n      sload\n      tag_189\n      swap1\n      tag_84\n      jump\t// in\n    tag_189:\n      dup1\n      0x1f\n      add\n      0x20\n      dup1\n      swap2\n      div\n      mul\n      0x20\n      add\n      mload(0x40)\n      swap1\n      dup2\n      add\n      0x40\n      mstore\n      dup1\n      swap3\n      swap2\n      swap1\n      dup2\n      dup2\n      mstore\n      0x20\n      add\n      dup3\n      dup1\n      sload\n      tag_190\n      swap1\n      tag_84\n      jump\t// in\n    tag_190:\n      dup1\n      iszero\n      tag_191\n      jumpi\n      dup1\n      0x1f\n      lt\n      tag_192\n      jumpi\n      0x0100\n      dup1\n      dup4\n      sload\n      div\n      mul\n      dup4\n      mstore\n      swap2\n      0x20\n      add\n      swap2\n      jump(tag_191)\n    tag_192:\n      dup3\n      add\n      swap2\n      swap1\n      0x00\n      mstore\n      keccak256(0x00, 0x20)\n      swap1\n    tag_193:\n      dup2\n      sload\n      dup2\n      mstore\n      swap1\n      0x01\n      add\n      swap1\n      0x20\n      add\n      dup1\n      dup4\n      gt\n      tag_193\n      jumpi\n      dup3\n      swap1\n      sub\n      0x1f\n      and\n      dup3\n      add\n      swap2\n    tag_191:\n      pop\n      pop\n      pop\n      pop\n      pop\n      dup2\n      mstore\n      0x20\n      add\n      0x02\n      dup3\n      add\n      0x00\n      swap1\n      sload\n      swap1\n      0x0100\n      exp\n      swap1\n      div\n      0xffffffffffffffffffffffffffffffffffffffff\n      and\n      0xffffffffffffffffffffffffffffffffffffffff\n      and\n      0xffffffffffffffffffffffffffffffffffffffff\n      and\n      dup2\n      mstore\n      0x20\n      add\n      0x03\n      dup3\n      add\n      sload\n      dup2\n      mstore\n      0x20\n      add\n      0x04\n      dup3\n      add\n      sload\n      dup2\n      mstore\n      0x20\n      add\n      0x05\n      dup3\n      add\n      0x00\n      swap1\n      sload\n      swap1\n      0x0100\n      exp\n      swap1\n      div\n      0xff\n      and\n      0x03\n      dup2\n      gt\n      iszero\n      tag_194\n      jumpi\n      tag_195\n      tag_105\n      jump\t// in\n    tag_195:\n    tag_194:\n      0x03\n      dup2\n      gt\n      iszero\n      tag_196\n      jumpi\n      tag_197\n      tag_105\n      jump\t// in\n    tag_197:\n    tag_196:\n      dup2\n      mstore\n      pop\n      pop\n      swap1\n      pop\n        /* \"contracts/smartcontractldoge.sol\":4216:4339  function getProject(uint256 _projectId) public view returns (Project memory) {... */\n      swap2\n      swap1\n      pop\n      jump\t// out\n    tag_168:\n      mload(0x40)\n      dup1\n      0x80\n      add\n      0x40\n      mstore\n      dup1\n      and(0xffffffffffffffffffffffffffffffffffffffff, 0x00)\n      dup2\n      mstore\n      0x20\n      add\n      0x60\n      dup2\n      mstore\n      0x20\n      add\n      0x60\n      dup2\n      mstore\n      0x20\n      add\n      iszero(iszero(0x00))\n      dup2\n      mstore\n      pop\n      swap1\n      jump\t// out\n    tag_187:\n      mload(0x40)\n      dup1\n      0xc0\n      add\n      0x40\n      mstore\n      dup1\n      0x00\n      dup2\n      mstore\n      0x20\n      add\n      0x60\n      dup2\n      mstore\n      0x20\n      add\n      and(0xffffffffffffffffffffffffffffffffffffffff, 0x00)\n      dup2\n      mstore\n      0x20\n      add\n      0x00\n      dup2\n      mstore\n      0x20\n      add\n      0x00\n      dup2\n      mstore\n      0x20\n      add\n      0x00\n      0x03\n      dup2\n      gt\n      iszero\n      tag_198\n      jumpi\n      tag_199\n      tag_105\n      jump\t// in\n    tag_199:\n    tag_198:\n      dup2\n      mstore\n      pop\n      swap1\n      jump\t// out\n        /* \"#utility.yul\":7:82   */\n    tag_200:\n        /* \"#utility.yul\":40:46   */\n      0x00\n        /* \"#utility.yul\":73:75   */\n      0x40\n        /* \"#utility.yul\":67:76   */\n      mload\n        /* \"#utility.yul\":57:76   */\n      swap1\n      pop\n        /* \"#utility.yul\":7:82   */\n      swap1\n      jump\t// out\n        /* \"#utility.yul\":88:205   */\n    tag_201:\n        /* \"#utility.yul\":197:198   */\n      0x00\n        /* \"#utility.yul\":194:195   */\n      dup1\n        /* \"#utility.yul\":187:199   */\n      revert\n        /* \"#utility.yul\":211:328   */\n    tag_202:\n        /* \"#utility.yul\":320:321   */\n      0x00\n        /* \"#utility.yul\":317:318   */\n      dup1\n        /* \"#utility.yul\":310:322   */\n      revert\n        /* \"#utility.yul\":334:411   */\n    tag_203:\n        /* \"#utility.yul\":371:378   */\n      0x00\n        /* \"#utility.yul\":400:405   */\n      dup2\n        /* \"#utility.yul\":389:405   */\n      swap1\n      pop\n        /* \"#utility.yul\":334:411   */\n      swap2\n      swap1\n      pop\n      jump\t// out\n        /* \"#utility.yul\":417:539   */\n    tag_204:\n        /* \"#utility.yul\":490:514   */\n      tag_284\n        /* \"#utility.yul\":508:513   */\n      dup2\n        /* \"#utility.yul\":490:514   */\n      tag_203\n      jump\t// in\n    tag_284:\n        /* \"#utility.yul\":483:488   */\n      dup2\n        /* \"#utility.yul\":480:515   */\n      eq\n        /* \"#utility.yul\":470:533   */\n      tag_285\n      jumpi\n        /* \"#utility.yul\":529:530   */\n      0x00\n        /* \"#utility.yul\":526:527   */\n      dup1\n        /* \"#utility.yul\":519:531   */\n      revert\n        /* \"#utility.yul\":470:533   */\n    tag_285:\n        /* \"#utility.yul\":417:539   */\n      pop\n      jump\t// out\n        /* \"#utility.yul\":545:684   */\n    tag_205:\n        /* \"#utility.yul\":591:596   */\n      0x00\n        /* \"#utility.yul\":629:635   */\n      dup2\n        /* \"#utility.yul\":616:636   */\n      calldataload\n        /* \"#utility.yul\":607:636   */\n      swap1\n      pop\n        /* \"#utility.yul\":645:678   */\n      tag_287\n        /* \"#utility.yul\":672:677   */\n      dup2\n        /* \"#utility.yul\":645:678   */\n      tag_204\n      jump\t// in\n    tag_287:\n        /* \"#utility.yul\":545:684   */\n      swap3\n      swap2\n      pop\n      pop\n      jump\t// out\n        /* \"#utility.yul\":690:1019   */\n    tag_20:\n        /* \"#utility.yul\":749:755   */\n      0x00\n        /* \"#utility.yul\":798:800   */\n      0x20\n        /* \"#utility.yul\":786:795   */\n      dup3\n        /* \"#utility.yul\":777:784   */\n      dup5\n        /* \"#utility.yul\":773:796   */\n      sub\n        /* \"#utility.yul\":769:801   */\n      slt\n        /* \"#utility.yul\":766:885   */\n      iszero\n      tag_289\n      jumpi\n        /* \"#utility.yul\":804:883   */\n      tag_290\n      tag_201\n      jump\t// in\n    tag_290:\n        /* \"#utility.yul\":766:885   */\n    tag_289:\n        /* \"#utility.yul\":924:925   */\n      0x00\n        /* \"#utility.yul\":949:1002   */\n      tag_291\n        /* \"#utility.yul\":994:1001   */\n      dup5\n        /* \"#utility.yul\":985:991   */\n      dup3\n        /* \"#utility.yul\":974:983   */\n      dup6\n        /* \"#utility.yul\":970:992   */\n      add\n        /* \"#utility.yul\":949:1002   */\n      tag_205\n      jump\t// in\n    tag_291:\n        /* \"#utility.yul\":939:1002   */\n      swap2\n      pop\n        /* \"#utility.yul\":895:1012   */\n      pop\n        /* \"#utility.yul\":690:1019   */\n      swap3\n      swap2\n      pop\n      pop\n      jump\t// out\n        /* \"#utility.yul\":1025:1143   */\n    tag_206:\n        /* \"#utility.yul\":1112:1136   */\n      tag_293\n        /* \"#utility.yul\":1130:1135   */\n      dup2\n        /* \"#utility.yul\":1112:1136   */\n      tag_203\n      jump\t// in\n    tag_293:\n        /* \"#utility.yul\":1107:1110   */\n      dup3\n        /* \"#utility.yul\":1100:1137   */\n      mstore\n        /* \"#utility.yul\":1025:1143   */\n      pop\n      pop\n      jump\t// out\n        /* \"#utility.yul\":1149:1248   */\n    tag_207:\n        /* \"#utility.yul\":1201:1207   */\n      0x00\n        /* \"#utility.yul\":1235:1240   */\n      dup2\n        /* \"#utility.yul\":1229:1241   */\n      mload\n        /* \"#utility.yul\":1219:1241   */\n      swap1\n      pop\n        /* \"#utility.yul\":1149:1248   */\n      swap2\n      swap1\n      pop\n      jump\t// out\n        /* \"#utility.yul\":1254:1423   */\n    tag_208:\n        /* \"#utility.yul\":1338:1349   */\n      0x00\n        /* \"#utility.yul\":1372:1378   */\n      dup3\n        /* \"#utility.yul\":1367:1370   */\n      dup3\n        /* \"#utility.yul\":1360:1379   */\n      mstore\n        /* \"#utility.yul\":1412:1416   */\n      0x20\n        /* \"#utility.yul\":1407:1410   */\n      dup3\n        /* \"#utility.yul\":1403:1417   */\n      add\n        /* \"#utility.yul\":1388:1417   */\n      swap1\n      pop\n        /* \"#utility.yul\":1254:1423   */\n      swap3\n      swap2\n      pop\n      pop\n      jump\t// out\n        /* \"#utility.yul\":1429:1568   */\n    tag_209:\n        /* \"#utility.yul\":1518:1524   */\n      dup3\n        /* \"#utility.yul\":1513:1516   */\n      dup2\n        /* \"#utility.yul\":1508:1511   */\n      dup4\n        /* \"#utility.yul\":1502:1525   */\n      mcopy\n        /* \"#utility.yul\":1559:1560   */\n      0x00\n        /* \"#utility.yul\":1550:1556   */\n      dup4\n        /* \"#utility.yul\":1545:1548   */\n      dup4\n        /* \"#utility.yul\":1541:1557   */\n      add\n        /* \"#utility.yul\":1534:1561   */\n      mstore\n        /* \"#utility.yul\":1429:1568   */\n      pop\n      pop\n      pop\n      jump\t// out\n        /* \"#utility.yul\":1574:1676   */\n    tag_210:\n        /* \"#utility.yul\":1615:1621   */\n      0x00\n        /* \"#utility.yul\":1666:1668   */\n      0x1f\n        /* \"#utility.yul\":1662:1669   */\n      not\n        /* \"#utility.yul\":1657:1659   */\n      0x1f\n        /* \"#utility.yul\":1650:1655   */\n      dup4\n        /* \"#utility.yul\":1646:1660   */\n      add\n        /* \"#utility.yul\":1642:1670   */\n      and\n        /* \"#utility.yul\":1632:1670   */\n      swap1\n      pop\n        /* \"#utility.yul\":1574:1676   */\n      swap2\n      swap1\n      pop\n      jump\t// out\n        /* \"#utility.yul\":1682:2059   */\n    tag_211:\n        /* \"#utility.yul\":1770:1773   */\n      0x00\n        /* \"#utility.yul\":1798:1837   */\n      tag_299\n        /* \"#utility.yul\":1831:1836   */\n      dup3\n        /* \"#utility.yul\":1798:1837   */\n      tag_207\n      jump\t// in\n    tag_299:\n        /* \"#utility.yul\":1853:1924   */\n      tag_300\n        /* \"#utility.yul\":1917:1923   */\n      dup2\n        /* \"#utility.yul\":1912:1915   */\n      dup6\n        /* \"#utility.yul\":1853:1924   */\n      tag_208\n      jump\t// in\n    tag_300:\n        /* \"#utility.yul\":1846:1924   */\n      swap4\n      pop\n        /* \"#utility.yul\":1933:1998   */\n      tag_301\n        /* \"#utility.yul\":1991:1997   */\n      dup2\n        /* \"#utility.yul\":1986:1989   */\n      dup6\n        /* \"#utility.yul\":1979:1983   */\n      0x20\n        /* \"#utility.yul\":1972:1977   */\n      dup7\n        /* \"#utility.yul\":1968:1984   */\n      add\n        /* \"#utility.yul\":1933:1998   */\n      tag_209\n      jump\t// in\n    tag_301:\n        /* \"#utility.yul\":2023:2052   */\n      tag_302\n        /* \"#utility.yul\":2045:2051   */\n      dup2\n        /* \"#utility.yul\":2023:2052   */\n      tag_210\n      jump\t// in\n    tag_302:\n        /* \"#utility.yul\":2018:2021   */\n      dup5\n        /* \"#utility.yul\":2014:2053   */\n      add\n        /* \"#utility.yul\":2007:2053   */\n      swap2\n      pop\n        /* \"#utility.yul\":1774:2059   */\n      pop\n        /* \"#utility.yul\":1682:2059   */\n      swap3\n      swap2\n      pop\n      pop\n      jump\t// out\n        /* \"#utility.yul\":2065:2191   */\n    tag_212:\n        /* \"#utility.yul\":2102:2109   */\n      0x00\n        /* \"#utility.yul\":2142:2184   */\n      0xffffffffffffffffffffffffffffffffffffffff\n        /* \"#utility.yul\":2135:2140   */\n      dup3\n        /* \"#utility.yul\":2131:2185   */\n      and\n        /* \"#utility.yul\":2120:2185   */\n      swap1\n      pop\n        /* \"#utility.yul\":2065:2191   */\n      swap2\n      swap1\n      pop\n      jump\t// out\n        /* \"#utility.yul\":2197:2293   */\n    tag_213:\n        /* \"#utility.yul\":2234:2241   */\n      0x00\n        /* \"#utility.yul\":2263:2287   */\n      tag_305\n        /* \"#utility.yul\":2281:2286   */\n      dup3\n        /* \"#utility.yul\":2263:2287   */\n      tag_212\n      jump\t// in\n    tag_305:\n        /* \"#utility.yul\":2252:2287   */\n      swap1\n      pop\n        /* \"#utility.yul\":2197:2293   */\n      swap2\n      swap1\n      pop\n      jump\t// out\n        /* \"#utility.yul\":2299:2417   */\n    tag_214:\n        /* \"#utility.yul\":2386:2410   */\n      tag_307\n        /* \"#utility.yul\":2404:2409   */\n      dup2\n        /* \"#utility.yul\":2386:2410   */\n      tag_213\n      jump\t// in\n    tag_307:\n        /* \"#utility.yul\":2381:2384   */\n      dup3\n        /* \"#utility.yul\":2374:2411   */\n      mstore\n        /* \"#utility.yul\":2299:2417   */\n      pop\n      pop\n      jump\t// out\n        /* \"#utility.yul\":2423:2603   */\n    tag_105:\n        /* \"#utility.yul\":2471:2548   */\n      0x4e487b7100000000000000000000000000000000000000000000000000000000\n        /* \"#utility.yul\":2468:2469   */\n      0x00\n        /* \"#utility.yul\":2461:2549   */\n      mstore\n        /* \"#utility.yul\":2568:2572   */\n      0x21\n        /* \"#utility.yul\":2565:2566   */\n      0x04\n        /* \"#utility.yul\":2558:2573   */\n      mstore\n        /* \"#utility.yul\":2592:2596   */\n      0x24\n        /* \"#utility.yul\":2589:2590   */\n      0x00\n        /* \"#utility.yul\":2582:2597   */\n      revert\n        /* \"#utility.yul\":2609:2730   */\n    tag_215:\n        /* \"#utility.yul\":2698:2699   */\n      0x04\n        /* \"#utility.yul\":2691:2696   */\n      dup2\n        /* \"#utility.yul\":2688:2700   */\n      lt\n        /* \"#utility.yul\":2678:2724   */\n      tag_310\n      jumpi\n        /* \"#utility.yul\":2704:2722   */\n      tag_311\n      tag_105\n      jump\t// in\n    tag_311:\n        /* \"#utility.yul\":2678:2724   */\n    tag_310:\n        /* \"#utility.yul\":2609:2730   */\n      pop\n      jump\t// out\n        /* \"#utility.yul\":2736:2879   */\n    tag_216:\n        /* \"#utility.yul\":2789:2796   */\n      0x00\n        /* \"#utility.yul\":2818:2823   */\n      dup2\n        /* \"#utility.yul\":2807:2823   */\n      swap1\n      pop\n        /* \"#utility.yul\":2824:2873   */\n      tag_313\n        /* \"#utility.yul\":2867:2872   */\n      dup3\n        /* \"#utility.yul\":2824:2873   */\n      tag_215\n      jump\t// in\n    tag_313:\n        /* \"#utility.yul\":2736:2879   */\n      swap2\n      swap1\n      pop\n      jump\t// out\n        /* \"#utility.yul\":2885:3028   */\n    tag_217:\n        /* \"#utility.yul\":2949:2958   */\n      0x00\n        /* \"#utility.yul\":2982:3022   */\n      tag_315\n        /* \"#utility.yul\":3016:3021   */\n      dup3\n        /* \"#utility.yul\":2982:3022   */\n      tag_216\n      jump\t// in\n    tag_315:\n        /* \"#utility.yul\":2969:3022   */\n      swap1\n      pop\n        /* \"#utility.yul\":2885:3028   */\n      swap2\n      swap1\n      pop\n      jump\t// out\n        /* \"#utility.yul\":3034:3193   */\n    tag_218:\n        /* \"#utility.yul\":3135:3186   */\n      tag_317\n        /* \"#utility.yul\":3180:3185   */\n      dup2\n        /* \"#utility.yul\":3135:3186   */\n      tag_217\n      jump\t// in\n    tag_317:\n        /* \"#utility.yul\":3130:3133   */\n      dup3\n        /* \"#utility.yul\":3123:3187   */\n      mstore\n        /* \"#utility.yul\":3034:3193   */\n      pop\n      pop\n      jump\t// out\n        /* \"#utility.yul\":3199:4093   */\n    tag_23:\n        /* \"#utility.yul\":3466:3470   */\n      0x00\n        /* \"#utility.yul\":3504:3507   */\n      0xc0\n        /* \"#utility.yul\":3493:3502   */\n      dup3\n        /* \"#utility.yul\":3489:3508   */\n      add\n        /* \"#utility.yul\":3481:3508   */\n      swap1\n      pop\n        /* \"#utility.yul\":3518:3589   */\n      tag_319\n        /* \"#utility.yul\":3586:3587   */\n      0x00\n        /* \"#utility.yul\":3575:3584   */\n      dup4\n        /* \"#utility.yul\":3571:3588   */\n      add\n        /* \"#utility.yul\":3562:3568   */\n      dup10\n        /* \"#utility.yul\":3518:3589   */\n      tag_206\n      jump\t// in\n    tag_319:\n        /* \"#utility.yul\":3636:3645   */\n      dup2\n        /* \"#utility.yul\":3630:3634   */\n      dup2\n        /* \"#utility.yul\":3626:3646   */\n      sub\n        /* \"#utility.yul\":3621:3623   */\n      0x20\n        /* \"#utility.yul\":3610:3619   */\n      dup4\n        /* \"#utility.yul\":3606:3624   */\n      add\n        /* \"#utility.yul\":3599:3647   */\n      mstore\n        /* \"#utility.yul\":3664:3742   */\n      tag_320\n        /* \"#utility.yul\":3737:3741   */\n      dup2\n        /* \"#utility.yul\":3728:3734   */\n      dup9\n        /* \"#utility.yul\":3664:3742   */\n      tag_211\n      jump\t// in\n    tag_320:\n        /* \"#utility.yul\":3656:3742   */\n      swap1\n      pop\n        /* \"#utility.yul\":3752:3824   */\n      tag_321\n        /* \"#utility.yul\":3820:3822   */\n      0x40\n        /* \"#utility.yul\":3809:3818   */\n      dup4\n        /* \"#utility.yul\":3805:3823   */\n      add\n        /* \"#utility.yul\":3796:3802   */\n      dup8\n        /* \"#utility.yul\":3752:3824   */\n      tag_214\n      jump\t// in\n    tag_321:\n        /* \"#utility.yul\":3834:3906   */\n      tag_322\n        /* \"#utility.yul\":3902:3904   */\n      0x60\n        /* \"#utility.yul\":3891:3900   */\n      dup4\n        /* \"#utility.yul\":3887:3905   */\n      add\n        /* \"#utility.yul\":3878:3884   */\n      dup7\n        /* \"#utility.yul\":3834:3906   */\n      tag_206\n      jump\t// in\n    tag_322:\n        /* \"#utility.yul\":3916:3989   */\n      tag_323\n        /* \"#utility.yul\":3984:3987   */\n      0x80\n        /* \"#utility.yul\":3973:3982   */\n      dup4\n        /* \"#utility.yul\":3969:3988   */\n      add\n        /* \"#utility.yul\":3960:3966   */\n      dup6\n        /* \"#utility.yul\":3916:3989   */\n      tag_206\n      jump\t// in\n    tag_323:\n        /* \"#utility.yul\":3999:4086   */\n      tag_324\n        /* \"#utility.yul\":4081:4084   */\n      0xa0\n        /* \"#utility.yul\":4070:4079   */\n      dup4\n        /* \"#utility.yul\":4066:4085   */\n      add\n        /* \"#utility.yul\":4057:4063   */\n      dup5\n        /* \"#utility.yul\":3999:4086   */\n      tag_218\n      jump\t// in\n    tag_324:\n        /* \"#utility.yul\":3199:4093   */\n      swap8\n      swap7\n      pop\n      pop\n      pop\n      pop\n      pop\n      pop\n      pop\n      jump\t// out\n        /* \"#utility.yul\":4099:4221   */\n    tag_219:\n        /* \"#utility.yul\":4172:4196   */\n      tag_326\n        /* \"#utility.yul\":4190:4195   */\n      dup2\n        /* \"#utility.yul\":4172:4196   */\n      tag_213\n      jump\t// in\n    tag_326:\n        /* \"#utility.yul\":4165:4170   */\n      dup2\n        /* \"#utility.yul\":4162:4197   */\n      eq\n        /* \"#utility.yul\":4152:4215   */\n      tag_327\n      jumpi\n        /* \"#utility.yul\":4211:4212   */\n      0x00\n        /* \"#utility.yul\":4208:4209   */\n      dup1\n        /* \"#utility.yul\":4201:4213   */\n      revert\n        /* \"#utility.yul\":4152:4215   */\n    tag_327:\n        /* \"#utility.yul\":4099:4221   */\n      pop\n      jump\t// out\n        /* \"#utility.yul\":4227:4366   */\n    tag_220:\n        /* \"#utility.yul\":4273:4278   */\n      0x00\n        /* \"#utility.yul\":4311:4317   */\n      dup2\n        /* \"#utility.yul\":4298:4318   */\n      calldataload\n        /* \"#utility.yul\":4289:4318   */\n      swap1\n      pop\n        /* \"#utility.yul\":4327:4360   */\n      tag_329\n        /* \"#utility.yul\":4354:4359   */\n      dup2\n        /* \"#utility.yul\":4327:4360   */\n      tag_219\n      jump\t// in\n    tag_329:\n        /* \"#utility.yul\":4227:4366   */\n      swap3\n      swap2\n      pop\n      pop\n      jump\t// out\n        /* \"#utility.yul\":4372:4701   */\n    tag_27:\n        /* \"#utility.yul\":4431:4437   */\n      0x00\n        /* \"#utility.yul\":4480:4482   */\n      0x20\n        /* \"#utility.yul\":4468:4477   */\n      dup3\n        /* \"#utility.yul\":4459:4466   */\n      dup5\n        /* \"#utility.yul\":4455:4478   */\n      sub\n        /* \"#utility.yul\":4451:4483   */\n      slt\n        /* \"#utility.yul\":4448:4567   */\n      iszero\n      tag_331\n      jumpi\n        /* \"#utility.yul\":4486:4565   */\n      tag_332\n      tag_201\n      jump\t// in\n    tag_332:\n        /* \"#utility.yul\":4448:4567   */\n    tag_331:\n        /* \"#utility.yul\":4606:4607   */\n      0x00\n        /* \"#utility.yul\":4631:4684   */\n      tag_333\n        /* \"#utility.yul\":4676:4683   */\n      dup5\n        /* \"#utility.yul\":4667:4673   */\n      dup3\n        /* \"#utility.yul\":4656:4665   */\n      dup6\n        /* \"#utility.yul\":4652:4674   */\n      add\n        /* \"#utility.yul\":4631:4684   */\n      tag_220\n      jump\t// in\n    tag_333:\n        /* \"#utility.yul\":4621:4684   */\n      swap2\n      pop\n        /* \"#utility.yul\":4577:4694   */\n      pop\n        /* \"#utility.yul\":4372:4701   */\n      swap3\n      swap2\n      pop\n      pop\n      jump\t// out\n        /* \"#utility.yul\":4707:4797   */\n    tag_221:\n        /* \"#utility.yul\":4741:4748   */\n      0x00\n        /* \"#utility.yul\":4784:4789   */\n      dup2\n        /* \"#utility.yul\":4777:4790   */\n      iszero\n        /* \"#utility.yul\":4770:4791   */\n      iszero\n        /* \"#utility.yul\":4759:4791   */\n      swap1\n      pop\n        /* \"#utility.yul\":4707:4797   */\n      swap2\n      swap1\n      pop\n      jump\t// out\n        /* \"#utility.yul\":4803:4912   */\n    tag_222:\n        /* \"#utility.yul\":4884:4905   */\n      tag_336\n        /* \"#utility.yul\":4899:4904   */\n      dup2\n        /* \"#utility.yul\":4884:4905   */\n      tag_221\n      jump\t// in\n    tag_336:\n        /* \"#utility.yul\":4879:4882   */\n      dup3\n        /* \"#utility.yul\":4872:4906   */\n      mstore\n        /* \"#utility.yul\":4803:4912   */\n      pop\n      pop\n      jump\t// out\n        /* \"#utility.yul\":4918:5641   */\n    tag_30:\n        /* \"#utility.yul\":5129:5133   */\n      0x00\n        /* \"#utility.yul\":5167:5170   */\n      0x80\n        /* \"#utility.yul\":5156:5165   */\n      dup3\n        /* \"#utility.yul\":5152:5171   */\n      add\n        /* \"#utility.yul\":5144:5171   */\n      swap1\n      pop\n        /* \"#utility.yul\":5181:5252   */\n      tag_338\n        /* \"#utility.yul\":5249:5250   */\n      0x00\n        /* \"#utility.yul\":5238:5247   */\n      dup4\n        /* \"#utility.yul\":5234:5251   */\n      add\n        /* \"#utility.yul\":5225:5231   */\n      dup8\n        /* \"#utility.yul\":5181:5252   */\n      tag_214\n      jump\t// in\n    tag_338:\n        /* \"#utility.yul\":5299:5308   */\n      dup2\n        /* \"#utility.yul\":5293:5297   */\n      dup2\n        /* \"#utility.yul\":5289:5309   */\n      sub\n        /* \"#utility.yul\":5284:5286   */\n      0x20\n        /* \"#utility.yul\":5273:5282   */\n      dup4\n        /* \"#utility.yul\":5269:5287   */\n      add\n        /* \"#utility.yul\":5262:5310   */\n      mstore\n        /* \"#utility.yul\":5327:5405   */\n      tag_339\n        /* \"#utility.yul\":5400:5404   */\n      dup2\n        /* \"#utility.yul\":5391:5397   */\n      dup7\n        /* \"#utility.yul\":5327:5405   */\n      tag_211\n      jump\t// in\n    tag_339:\n        /* \"#utility.yul\":5319:5405   */\n      swap1\n      pop\n        /* \"#utility.yul\":5452:5461   */\n      dup2\n        /* \"#utility.yul\":5446:5450   */\n      dup2\n        /* \"#utility.yul\":5442:5462   */\n      sub\n        /* \"#utility.yul\":5437:5439   */\n      0x40\n        /* \"#utility.yul\":5426:5435   */\n      dup4\n        /* \"#utility.yul\":5422:5440   */\n      add\n        /* \"#utility.yul\":5415:5463   */\n      mstore\n        /* \"#utility.yul\":5480:5558   */\n      tag_340\n        /* \"#utility.yul\":5553:5557   */\n      dup2\n        /* \"#utility.yul\":5544:5550   */\n      dup6\n        /* \"#utility.yul\":5480:5558   */\n      tag_211\n      jump\t// in\n    tag_340:\n        /* \"#utility.yul\":5472:5558   */\n      swap1\n      pop\n        /* \"#utility.yul\":5568:5634   */\n      tag_341\n        /* \"#utility.yul\":5630:5632   */\n      0x60\n        /* \"#utility.yul\":5619:5628   */\n      dup4\n        /* \"#utility.yul\":5615:5633   */\n      add\n        /* \"#utility.yul\":5606:5612   */\n      dup5\n        /* \"#utility.yul\":5568:5634   */\n      tag_222\n      jump\t// in\n    tag_341:\n        /* \"#utility.yul\":4918:5641   */\n      swap6\n      swap5\n      pop\n      pop\n      pop\n      pop\n      pop\n      jump\t// out\n        /* \"#utility.yul\":5647:5869   */\n    tag_39:\n        /* \"#utility.yul\":5740:5744   */\n      0x00\n        /* \"#utility.yul\":5778:5780   */\n      0x20\n        /* \"#utility.yul\":5767:5776   */\n      dup3\n        /* \"#utility.yul\":5763:5781   */\n      add\n        /* \"#utility.yul\":5755:5781   */\n      swap1\n      pop\n        /* \"#utility.yul\":5791:5862   */\n      tag_343\n        /* \"#utility.yul\":5859:5860   */\n      0x00\n        /* \"#utility.yul\":5848:5857   */\n      dup4\n        /* \"#utility.yul\":5844:5861   */\n      add\n        /* \"#utility.yul\":5835:5841   */\n      dup5\n        /* \"#utility.yul\":5791:5862   */\n      tag_206\n      jump\t// in\n    tag_343:\n        /* \"#utility.yul\":5647:5869   */\n      swap3\n      swap2\n      pop\n      pop\n      jump\t// out\n        /* \"#utility.yul\":5875:5992   */\n    tag_223:\n        /* \"#utility.yul\":5984:5985   */\n      0x00\n        /* \"#utility.yul\":5981:5982   */\n      dup1\n        /* \"#utility.yul\":5974:5986   */\n      revert\n        /* \"#utility.yul\":5998:6115   */\n    tag_224:\n        /* \"#utility.yul\":6107:6108   */\n      0x00\n        /* \"#utility.yul\":6104:6105   */\n      dup1\n        /* \"#utility.yul\":6097:6109   */\n      revert\n        /* \"#utility.yul\":6121:6301   */\n    tag_225:\n        /* \"#utility.yul\":6169:6246   */\n      0x4e487b7100000000000000000000000000000000000000000000000000000000\n        /* \"#utility.yul\":6166:6167   */\n      0x00\n        /* \"#utility.yul\":6159:6247   */\n      mstore\n        /* \"#utility.yul\":6266:6270   */\n      0x41\n        /* \"#utility.yul\":6263:6264   */\n      0x04\n        /* \"#utility.yul\":6256:6271   */\n      mstore\n        /* \"#utility.yul\":6290:6294   */\n      0x24\n        /* \"#utility.yul\":6287:6288   */\n      0x00\n        /* \"#utility.yul\":6280:6295   */\n      revert\n        /* \"#utility.yul\":6307:6588   */\n    tag_226:\n        /* \"#utility.yul\":6390:6417   */\n      tag_348\n        /* \"#utility.yul\":6412:6416   */\n      dup3\n        /* \"#utility.yul\":6390:6417   */\n      tag_210\n      jump\t// in\n    tag_348:\n        /* \"#utility.yul\":6382:6388   */\n      dup2\n        /* \"#utility.yul\":6378:6418   */\n      add\n        /* \"#utility.yul\":6520:6526   */\n      dup2\n        /* \"#utility.yul\":6508:6518   */\n      dup2\n        /* \"#utility.yul\":6505:6527   */\n      lt\n        /* \"#utility.yul\":6484:6502   */\n      0xffffffffffffffff\n        /* \"#utility.yul\":6472:6482   */\n      dup3\n        /* \"#utility.yul\":6469:6503   */\n      gt\n        /* \"#utility.yul\":6466:6528   */\n      or\n        /* \"#utility.yul\":6463:6551   */\n      iszero\n      tag_349\n      jumpi\n        /* \"#utility.yul\":6531:6549   */\n      tag_350\n      tag_225\n      jump\t// in\n    tag_350:\n        /* \"#utility.yul\":6463:6551   */\n    tag_349:\n        /* \"#utility.yul\":6571:6581   */\n      dup1\n        /* \"#utility.yul\":6567:6569   */\n      0x40\n        /* \"#utility.yul\":6560:6582   */\n      mstore\n        /* \"#utility.yul\":6350:6588   */\n      pop\n        /* \"#utility.yul\":6307:6588   */\n      pop\n      pop\n      jump\t// out\n        /* \"#utility.yul\":6594:6723   */\n    tag_227:\n        /* \"#utility.yul\":6628:6634   */\n      0x00\n        /* \"#utility.yul\":6655:6675   */\n      tag_352\n      tag_200\n      jump\t// in\n    tag_352:\n        /* \"#utility.yul\":6645:6675   */\n      swap1\n      pop\n        /* \"#utility.yul\":6684:6717   */\n      tag_353\n        /* \"#utility.yul\":6712:6716   */\n      dup3\n        /* \"#utility.yul\":6704:6710   */\n      dup3\n        /* \"#utility.yul\":6684:6717   */\n      tag_226\n      jump\t// in\n    tag_353:\n        /* \"#utility.yul\":6594:6723   */\n      swap2\n      swap1\n      pop\n      jump\t// out\n        /* \"#utility.yul\":6729:7037   */\n    tag_228:\n        /* \"#utility.yul\":6791:6795   */\n      0x00\n        /* \"#utility.yul\":6881:6899   */\n      0xffffffffffffffff\n        /* \"#utility.yul\":6873:6879   */\n      dup3\n        /* \"#utility.yul\":6870:6900   */\n      gt\n        /* \"#utility.yul\":6867:6923   */\n      iszero\n      tag_355\n      jumpi\n        /* \"#utility.yul\":6903:6921   */\n      tag_356\n      tag_225\n      jump\t// in\n    tag_356:\n        /* \"#utility.yul\":6867:6923   */\n    tag_355:\n        /* \"#utility.yul\":6941:6970   */\n      tag_357\n        /* \"#utility.yul\":6963:6969   */\n      dup3\n        /* \"#utility.yul\":6941:6970   */\n      tag_210\n      jump\t// in\n    tag_357:\n        /* \"#utility.yul\":6933:6970   */\n      swap1\n      pop\n        /* \"#utility.yul\":7025:7029   */\n      0x20\n        /* \"#utility.yul\":7019:7023   */\n      dup2\n        /* \"#utility.yul\":7015:7030   */\n      add\n        /* \"#utility.yul\":7007:7030   */\n      swap1\n      pop\n        /* \"#utility.yul\":6729:7037   */\n      swap2\n      swap1\n      pop\n      jump\t// out\n        /* \"#utility.yul\":7043:7191   */\n    tag_229:\n        /* \"#utility.yul\":7141:7147   */\n      dup3\n        /* \"#utility.yul\":7136:7139   */\n      dup2\n        /* \"#utility.yul\":7131:7134   */\n      dup4\n        /* \"#utility.yul\":7118:7148   */\n      calldatacopy\n        /* \"#utility.yul\":7182:7183   */\n      0x00\n        /* \"#utility.yul\":7173:7179   */\n      dup4\n        /* \"#utility.yul\":7168:7171   */\n      dup4\n        /* \"#utility.yul\":7164:7180   */\n      add\n        /* \"#utility.yul\":7157:7184   */\n      mstore\n        /* \"#utility.yul\":7043:7191   */\n      pop\n      pop\n      pop\n      jump\t// out\n        /* \"#utility.yul\":7197:7622   */\n    tag_230:\n        /* \"#utility.yul\":7275:7280   */\n      0x00\n        /* \"#utility.yul\":7300:7366   */\n      tag_360\n        /* \"#utility.yul\":7316:7365   */\n      tag_361\n        /* \"#utility.yul\":7358:7364   */\n      dup5\n        /* \"#utility.yul\":7316:7365   */\n      tag_228\n      jump\t// in\n    tag_361:\n        /* \"#utility.yul\":7300:7366   */\n      tag_227\n      jump\t// in\n    tag_360:\n        /* \"#utility.yul\":7291:7366   */\n      swap1\n      pop\n        /* \"#utility.yul\":7389:7395   */\n      dup3\n        /* \"#utility.yul\":7382:7387   */\n      dup2\n        /* \"#utility.yul\":7375:7396   */\n      mstore\n        /* \"#utility.yul\":7427:7431   */\n      0x20\n        /* \"#utility.yul\":7420:7425   */\n      dup2\n        /* \"#utility.yul\":7416:7432   */\n      add\n        /* \"#utility.yul\":7465:7468   */\n      dup5\n        /* \"#utility.yul\":7456:7462   */\n      dup5\n        /* \"#utility.yul\":7451:7454   */\n      dup5\n        /* \"#utility.yul\":7447:7463   */\n      add\n        /* \"#utility.yul\":7444:7469   */\n      gt\n        /* \"#utility.yul\":7441:7553   */\n      iszero\n      tag_362\n      jumpi\n        /* \"#utility.yul\":7472:7551   */\n      tag_363\n      tag_224\n      jump\t// in\n    tag_363:\n        /* \"#utility.yul\":7441:7553   */\n    tag_362:\n        /* \"#utility.yul\":7562:7616   */\n      tag_364\n        /* \"#utility.yul\":7609:7615   */\n      dup5\n        /* \"#utility.yul\":7604:7607   */\n      dup3\n        /* \"#utility.yul\":7599:7602   */\n      dup6\n        /* \"#utility.yul\":7562:7616   */\n      tag_229\n      jump\t// in\n    tag_364:\n        /* \"#utility.yul\":7281:7622   */\n      pop\n        /* \"#utility.yul\":7197:7622   */\n      swap4\n      swap3\n      pop\n      pop\n      pop\n      jump\t// out\n        /* \"#utility.yul\":7642:7982   */\n    tag_231:\n        /* \"#utility.yul\":7698:7703   */\n      0x00\n        /* \"#utility.yul\":7747:7750   */\n      dup3\n        /* \"#utility.yul\":7740:7744   */\n      0x1f\n        /* \"#utility.yul\":7732:7738   */\n      dup4\n        /* \"#utility.yul\":7728:7745   */\n      add\n        /* \"#utility.yul\":7724:7751   */\n      slt\n        /* \"#utility.yul\":7714:7836   */\n      tag_366\n      jumpi\n        /* \"#utility.yul\":7755:7834   */\n      tag_367\n      tag_223\n      jump\t// in\n    tag_367:\n        /* \"#utility.yul\":7714:7836   */\n    tag_366:\n        /* \"#utility.yul\":7872:7878   */\n      dup2\n        /* \"#utility.yul\":7859:7879   */\n      calldataload\n        /* \"#utility.yul\":7897:7976   */\n      tag_368\n        /* \"#utility.yul\":7972:7975   */\n      dup5\n        /* \"#utility.yul\":7964:7970   */\n      dup3\n        /* \"#utility.yul\":7957:7961   */\n      0x20\n        /* \"#utility.yul\":7949:7955   */\n      dup7\n        /* \"#utility.yul\":7945:7962   */\n      add\n        /* \"#utility.yul\":7897:7976   */\n      tag_230\n      jump\t// in\n    tag_368:\n        /* \"#utility.yul\":7888:7976   */\n      swap2\n      pop\n        /* \"#utility.yul\":7704:7982   */\n      pop\n        /* \"#utility.yul\":7642:7982   */\n      swap3\n      swap2\n      pop\n      pop\n      jump\t// out\n        /* \"#utility.yul\":7988:8967   */\n    tag_43:\n        /* \"#utility.yul\":8085:8091   */\n      0x00\n        /* \"#utility.yul\":8093:8099   */\n      dup1\n        /* \"#utility.yul\":8101:8107   */\n      0x00\n        /* \"#utility.yul\":8150:8152   */\n      0x60\n        /* \"#utility.yul\":8138:8147   */\n      dup5\n        /* \"#utility.yul\":8129:8136   */\n      dup7\n        /* \"#utility.yul\":8125:8148   */\n      sub\n        /* \"#utility.yul\":8121:8153   */\n      slt\n        /* \"#utility.yul\":8118:8237   */\n      iszero\n      tag_370\n      jumpi\n        /* \"#utility.yul\":8156:8235   */\n      tag_371\n      tag_201\n      jump\t// in\n    tag_371:\n        /* \"#utility.yul\":8118:8237   */\n    tag_370:\n        /* \"#utility.yul\":8276:8277   */\n      0x00\n        /* \"#utility.yul\":8301:8354   */\n      tag_372\n        /* \"#utility.yul\":8346:8353   */\n      dup7\n        /* \"#utility.yul\":8337:8343   */\n      dup3\n        /* \"#utility.yul\":8326:8335   */\n      dup8\n        /* \"#utility.yul\":8322:8344   */\n      add\n        /* \"#utility.yul\":8301:8354   */\n      tag_220\n      jump\t// in\n    tag_372:\n        /* \"#utility.yul\":8291:8354   */\n      swap4\n      pop\n        /* \"#utility.yul\":8247:8364   */\n      pop\n        /* \"#utility.yul\":8431:8433   */\n      0x20\n        /* \"#utility.yul\":8420:8429   */\n      dup5\n        /* \"#utility.yul\":8416:8434   */\n      add\n        /* \"#utility.yul\":8403:8435   */\n      calldataload\n        /* \"#utility.yul\":8462:8480   */\n      0xffffffffffffffff\n        /* \"#utility.yul\":8454:8460   */\n      dup2\n        /* \"#utility.yul\":8451:8481   */\n      gt\n        /* \"#utility.yul\":8448:8565   */\n      iszero\n      tag_373\n      jumpi\n        /* \"#utility.yul\":8484:8563   */\n      tag_374\n      tag_202\n      jump\t// in\n    tag_374:\n        /* \"#utility.yul\":8448:8565   */\n    tag_373:\n        /* \"#utility.yul\":8589:8652   */\n      tag_375\n        /* \"#utility.yul\":8644:8651   */\n      dup7\n        /* \"#utility.yul\":8635:8641   */\n      dup3\n        /* \"#utility.yul\":8624:8633   */\n      dup8\n        /* \"#utility.yul\":8620:8642   */\n      add\n        /* \"#utility.yul\":8589:8652   */\n      tag_231\n      jump\t// in\n    tag_375:\n        /* \"#utility.yul\":8579:8652   */\n      swap3\n      pop\n        /* \"#utility.yul\":8374:8662   */\n      pop\n        /* \"#utility.yul\":8729:8731   */\n      0x40\n        /* \"#utility.yul\":8718:8727   */\n      dup5\n        /* \"#utility.yul\":8714:8732   */\n      add\n        /* \"#utility.yul\":8701:8733   */\n      calldataload\n        /* \"#utility.yul\":8760:8778   */\n      0xffffffffffffffff\n        /* \"#utility.yul\":8752:8758   */\n      dup2\n        /* \"#utility.yul\":8749:8779   */\n      gt\n        /* \"#utility.yul\":8746:8863   */\n      iszero\n      tag_376\n      jumpi\n        /* \"#utility.yul\":8782:8861   */\n      tag_377\n      tag_202\n      jump\t// in\n    tag_377:\n        /* \"#utility.yul\":8746:8863   */\n    tag_376:\n        /* \"#utility.yul\":8887:8950   */\n      tag_378\n        /* \"#utility.yul\":8942:8949   */\n      dup7\n        /* \"#utility.yul\":8933:8939   */\n      dup3\n        /* \"#utility.yul\":8922:8931   */\n      dup8\n        /* \"#utility.yul\":8918:8940   */\n      add\n        /* \"#utility.yul\":8887:8950   */\n      tag_231\n      jump\t// in\n    tag_378:\n        /* \"#utility.yul\":8877:8950   */\n      swap2\n      pop\n        /* \"#utility.yul\":8672:8960   */\n      pop\n        /* \"#utility.yul\":7988:8967   */\n      swap3\n      pop\n      swap3\n      pop\n      swap3\n      jump\t// out\n        /* \"#utility.yul\":8973:9447   */\n    tag_51:\n        /* \"#utility.yul\":9041:9047   */\n      0x00\n        /* \"#utility.yul\":9049:9055   */\n      dup1\n        /* \"#utility.yul\":9098:9100   */\n      0x40\n        /* \"#utility.yul\":9086:9095   */\n      dup4\n        /* \"#utility.yul\":9077:9084   */\n      dup6\n        /* \"#utility.yul\":9073:9096   */\n      sub\n        /* \"#utility.yul\":9069:9101   */\n      slt\n        /* \"#utility.yul\":9066:9185   */\n      iszero\n      tag_380\n      jumpi\n        /* \"#utility.yul\":9104:9183   */\n      tag_381\n      tag_201\n      jump\t// in\n    tag_381:\n        /* \"#utility.yul\":9066:9185   */\n    tag_380:\n        /* \"#utility.yul\":9224:9225   */\n      0x00\n        /* \"#utility.yul\":9249:9302   */\n      tag_382\n        /* \"#utility.yul\":9294:9301   */\n      dup6\n        /* \"#utility.yul\":9285:9291   */\n      dup3\n        /* \"#utility.yul\":9274:9283   */\n      dup7\n        /* \"#utility.yul\":9270:9292   */\n      add\n        /* \"#utility.yul\":9249:9302   */\n      tag_205\n      jump\t// in\n    tag_382:\n        /* \"#utility.yul\":9239:9302   */\n      swap3\n      pop\n        /* \"#utility.yul\":9195:9312   */\n      pop\n        /* \"#utility.yul\":9351:9353   */\n      0x20\n        /* \"#utility.yul\":9377:9430   */\n      tag_383\n        /* \"#utility.yul\":9422:9429   */\n      dup6\n        /* \"#utility.yul\":9413:9419   */\n      dup3\n        /* \"#utility.yul\":9402:9411   */\n      dup7\n        /* \"#utility.yul\":9398:9420   */\n      add\n        /* \"#utility.yul\":9377:9430   */\n      tag_205\n      jump\t// in\n    tag_383:\n        /* \"#utility.yul\":9367:9430   */\n      swap2\n      pop\n        /* \"#utility.yul\":9322:9440   */\n      pop\n        /* \"#utility.yul\":8973:9447   */\n      swap3\n      pop\n      swap3\n      swap1\n      pop\n      jump\t// out\n        /* \"#utility.yul\":9453:9785   */\n    tag_54:\n        /* \"#utility.yul\":9574:9578   */\n      0x00\n        /* \"#utility.yul\":9612:9614   */\n      0x40\n        /* \"#utility.yul\":9601:9610   */\n      dup3\n        /* \"#utility.yul\":9597:9615   */\n      add\n        /* \"#utility.yul\":9589:9615   */\n      swap1\n      pop\n        /* \"#utility.yul\":9625:9696   */\n      tag_385\n        /* \"#utility.yul\":9693:9694   */\n      0x00\n        /* \"#utility.yul\":9682:9691   */\n      dup4\n        /* \"#utility.yul\":9678:9695   */\n      add\n        /* \"#utility.yul\":9669:9675   */\n      dup6\n        /* \"#utility.yul\":9625:9696   */\n      tag_214\n      jump\t// in\n    tag_385:\n        /* \"#utility.yul\":9706:9778   */\n      tag_386\n        /* \"#utility.yul\":9774:9776   */\n      0x20\n        /* \"#utility.yul\":9763:9772   */\n      dup4\n        /* \"#utility.yul\":9759:9777   */\n      add\n        /* \"#utility.yul\":9750:9756   */\n      dup5\n        /* \"#utility.yul\":9706:9778   */\n      tag_206\n      jump\t// in\n    tag_386:\n        /* \"#utility.yul\":9453:9785   */\n      swap4\n      swap3\n      pop\n      pop\n      pop\n      jump\t// out\n        /* \"#utility.yul\":9791:10013   */\n    tag_59:\n        /* \"#utility.yul\":9884:9888   */\n      0x00\n        /* \"#utility.yul\":9922:9924   */\n      0x20\n        /* \"#utility.yul\":9911:9920   */\n      dup3\n        /* \"#utility.yul\":9907:9925   */\n      add\n        /* \"#utility.yul\":9899:9925   */\n      swap1\n      pop\n        /* \"#utility.yul\":9935:10006   */\n      tag_388\n        /* \"#utility.yul\":10003:10004   */\n      0x00\n        /* \"#utility.yul\":9992:10001   */\n      dup4\n        /* \"#utility.yul\":9988:10005   */\n      add\n        /* \"#utility.yul\":9979:9985   */\n      dup5\n        /* \"#utility.yul\":9935:10006   */\n      tag_214\n      jump\t// in\n    tag_388:\n        /* \"#utility.yul\":9791:10013   */\n      swap3\n      swap2\n      pop\n      pop\n      jump\t// out\n        /* \"#utility.yul\":10019:10673   */\n    tag_63:\n        /* \"#utility.yul\":10097:10103   */\n      0x00\n        /* \"#utility.yul\":10105:10111   */\n      dup1\n        /* \"#utility.yul\":10154:10156   */\n      0x40\n        /* \"#utility.yul\":10142:10151   */\n      dup4\n        /* \"#utility.yul\":10133:10140   */\n      dup6\n        /* \"#utility.yul\":10129:10152   */\n      sub\n        /* \"#utility.yul\":10125:10157   */\n      slt\n        /* \"#utility.yul\":10122:10241   */\n      iszero\n      tag_390\n      jumpi\n        /* \"#utility.yul\":10160:10239   */\n      tag_391\n      tag_201\n      jump\t// in\n    tag_391:\n        /* \"#utility.yul\":10122:10241   */\n    tag_390:\n        /* \"#utility.yul\":10308:10309   */\n      0x00\n        /* \"#utility.yul\":10297:10306   */\n      dup4\n        /* \"#utility.yul\":10293:10310   */\n      add\n        /* \"#utility.yul\":10280:10311   */\n      calldataload\n        /* \"#utility.yul\":10338:10356   */\n      0xffffffffffffffff\n        /* \"#utility.yul\":10330:10336   */\n      dup2\n        /* \"#utility.yul\":10327:10357   */\n      gt\n        /* \"#utility.yul\":10324:10441   */\n      iszero\n      tag_392\n      jumpi\n        /* \"#utility.yul\":10360:10439   */\n      tag_393\n      tag_202\n      jump\t// in\n    tag_393:\n        /* \"#utility.yul\":10324:10441   */\n    tag_392:\n        /* \"#utility.yul\":10465:10528   */\n      tag_394\n        /* \"#utility.yul\":10520:10527   */\n      dup6\n        /* \"#utility.yul\":10511:10517   */\n      dup3\n        /* \"#utility.yul\":10500:10509   */\n      dup7\n        /* \"#utility.yul\":10496:10518   */\n      add\n        /* \"#utility.yul\":10465:10528   */\n      tag_231\n      jump\t// in\n    tag_394:\n        /* \"#utility.yul\":10455:10528   */\n      swap3\n      pop\n        /* \"#utility.yul\":10251:10538   */\n      pop\n        /* \"#utility.yul\":10577:10579   */\n      0x20\n        /* \"#utility.yul\":10603:10656   */\n      tag_395\n        /* \"#utility.yul\":10648:10655   */\n      dup6\n        /* \"#utility.yul\":10639:10645   */\n      dup3\n        /* \"#utility.yul\":10628:10637   */\n      dup7\n        /* \"#utility.yul\":10624:10646   */\n      add\n        /* \"#utility.yul\":10603:10656   */\n      tag_205\n      jump\t// in\n    tag_395:\n        /* \"#utility.yul\":10593:10656   */\n      swap2\n      pop\n        /* \"#utility.yul\":10548:10666   */\n      pop\n        /* \"#utility.yul\":10019:10673   */\n      swap3\n      pop\n      swap3\n      swap1\n      pop\n      jump\t// out\n        /* \"#utility.yul\":10679:10787   */\n    tag_232:\n        /* \"#utility.yul\":10756:10780   */\n      tag_397\n        /* \"#utility.yul\":10774:10779   */\n      dup2\n        /* \"#utility.yul\":10756:10780   */\n      tag_213\n      jump\t// in\n    tag_397:\n        /* \"#utility.yul\":10751:10754   */\n      dup3\n        /* \"#utility.yul\":10744:10781   */\n      mstore\n        /* \"#utility.yul\":10679:10787   */\n      pop\n      pop\n      jump\t// out\n        /* \"#utility.yul\":10793:10952   */\n    tag_233:\n        /* \"#utility.yul\":10867:10878   */\n      0x00\n        /* \"#utility.yul\":10901:10907   */\n      dup3\n        /* \"#utility.yul\":10896:10899   */\n      dup3\n        /* \"#utility.yul\":10889:10908   */\n      mstore\n        /* \"#utility.yul\":10941:10945   */\n      0x20\n        /* \"#utility.yul\":10936:10939   */\n      dup3\n        /* \"#utility.yul\":10932:10946   */\n      add\n        /* \"#utility.yul\":10917:10946   */\n      swap1\n      pop\n        /* \"#utility.yul\":10793:10952   */\n      swap3\n      swap2\n      pop\n      pop\n      jump\t// out\n        /* \"#utility.yul\":10958:11315   */\n    tag_234:\n        /* \"#utility.yul\":11036:11039   */\n      0x00\n        /* \"#utility.yul\":11064:11103   */\n      tag_400\n        /* \"#utility.yul\":11097:11102   */\n      dup3\n        /* \"#utility.yul\":11064:11103   */\n      tag_207\n      jump\t// in\n    tag_400:\n        /* \"#utility.yul\":11119:11180   */\n      tag_401\n        /* \"#utility.yul\":11173:11179   */\n      dup2\n        /* \"#utility.yul\":11168:11171   */\n      dup6\n        /* \"#utility.yul\":11119:11180   */\n      tag_233\n      jump\t// in\n    tag_401:\n        /* \"#utility.yul\":11112:11180   */\n      swap4\n      pop\n        /* \"#utility.yul\":11189:11254   */\n      tag_402\n        /* \"#utility.yul\":11247:11253   */\n      dup2\n        /* \"#utility.yul\":11242:11245   */\n      dup6\n        /* \"#utility.yul\":11235:11239   */\n      0x20\n        /* \"#utility.yul\":11228:11233   */\n      dup7\n        /* \"#utility.yul\":11224:11240   */\n      add\n        /* \"#utility.yul\":11189:11254   */\n      tag_209\n      jump\t// in\n    tag_402:\n        /* \"#utility.yul\":11279:11308   */\n      tag_403\n        /* \"#utility.yul\":11301:11307   */\n      dup2\n        /* \"#utility.yul\":11279:11308   */\n      tag_210\n      jump\t// in\n    tag_403:\n        /* \"#utility.yul\":11274:11277   */\n      dup5\n        /* \"#utility.yul\":11270:11309   */\n      add\n        /* \"#utility.yul\":11263:11309   */\n      swap2\n      pop\n        /* \"#utility.yul\":11040:11315   */\n      pop\n        /* \"#utility.yul\":10958:11315   */\n      swap3\n      swap2\n      pop\n      pop\n      jump\t// out\n        /* \"#utility.yul\":11321:11420   */\n    tag_235:\n        /* \"#utility.yul\":11392:11413   */\n      tag_405\n        /* \"#utility.yul\":11407:11412   */\n      dup2\n        /* \"#utility.yul\":11392:11413   */\n      tag_221\n      jump\t// in\n    tag_405:\n        /* \"#utility.yul\":11387:11390   */\n      dup3\n        /* \"#utility.yul\":11380:11414   */\n      mstore\n        /* \"#utility.yul\":11321:11420   */\n      pop\n      pop\n      jump\t// out\n        /* \"#utility.yul\":11516:12553   */\n    tag_236:\n        /* \"#utility.yul\":11629:11632   */\n      0x00\n        /* \"#utility.yul\":11665:11669   */\n      0x80\n        /* \"#utility.yul\":11660:11663   */\n      dup4\n        /* \"#utility.yul\":11656:11670   */\n      add\n        /* \"#utility.yul\":11761:11765   */\n      0x00\n        /* \"#utility.yul\":11754:11759   */\n      dup4\n        /* \"#utility.yul\":11750:11766   */\n      add\n        /* \"#utility.yul\":11744:11767   */\n      mload\n        /* \"#utility.yul\":11780:11843   */\n      tag_407\n        /* \"#utility.yul\":11837:11841   */\n      0x00\n        /* \"#utility.yul\":11832:11835   */\n      dup7\n        /* \"#utility.yul\":11828:11842   */\n      add\n        /* \"#utility.yul\":11814:11826   */\n      dup3\n        /* \"#utility.yul\":11780:11843   */\n      tag_232\n      jump\t// in\n    tag_407:\n        /* \"#utility.yul\":11680:11853   */\n      pop\n        /* \"#utility.yul\":11935:11939   */\n      0x20\n        /* \"#utility.yul\":11928:11933   */\n      dup4\n        /* \"#utility.yul\":11924:11940   */\n      add\n        /* \"#utility.yul\":11918:11941   */\n      mload\n        /* \"#utility.yul\":11988:11991   */\n      dup5\n        /* \"#utility.yul\":11982:11986   */\n      dup3\n        /* \"#utility.yul\":11978:11992   */\n      sub\n        /* \"#utility.yul\":11971:11975   */\n      0x20\n        /* \"#utility.yul\":11966:11969   */\n      dup7\n        /* \"#utility.yul\":11962:11976   */\n      add\n        /* \"#utility.yul\":11955:11993   */\n      mstore\n        /* \"#utility.yul\":12014:12087   */\n      tag_408\n        /* \"#utility.yul\":12082:12086   */\n      dup3\n        /* \"#utility.yul\":12068:12080   */\n      dup3\n        /* \"#utility.yul\":12014:12087   */\n      tag_234\n      jump\t// in\n    tag_408:\n        /* \"#utility.yul\":12006:12087   */\n      swap2\n      pop\n        /* \"#utility.yul\":11863:12098   */\n      pop\n        /* \"#utility.yul\":12189:12193   */\n      0x40\n        /* \"#utility.yul\":12182:12187   */\n      dup4\n        /* \"#utility.yul\":12178:12194   */\n      add\n        /* \"#utility.yul\":12172:12195   */\n      mload\n        /* \"#utility.yul\":12242:12245   */\n      dup5\n        /* \"#utility.yul\":12236:12240   */\n      dup3\n        /* \"#utility.yul\":12232:12246   */\n      sub\n        /* \"#utility.yul\":12225:12229   */\n      0x40\n        /* \"#utility.yul\":12220:12223   */\n      dup7\n        /* \"#utility.yul\":12216:12230   */\n      add\n        /* \"#utility.yul\":12209:12247   */\n      mstore\n        /* \"#utility.yul\":12268:12341   */\n      tag_409\n        /* \"#utility.yul\":12336:12340   */\n      dup3\n        /* \"#utility.yul\":12322:12334   */\n      dup3\n        /* \"#utility.yul\":12268:12341   */\n      tag_234\n      jump\t// in\n    tag_409:\n        /* \"#utility.yul\":12260:12341   */\n      swap2\n      pop\n        /* \"#utility.yul\":12108:12352   */\n      pop\n        /* \"#utility.yul\":12440:12444   */\n      0x60\n        /* \"#utility.yul\":12433:12438   */\n      dup4\n        /* \"#utility.yul\":12429:12445   */\n      add\n        /* \"#utility.yul\":12423:12446   */\n      mload\n        /* \"#utility.yul\":12459:12516   */\n      tag_410\n        /* \"#utility.yul\":12510:12514   */\n      0x60\n        /* \"#utility.yul\":12505:12508   */\n      dup7\n        /* \"#utility.yul\":12501:12515   */\n      add\n        /* \"#utility.yul\":12487:12499   */\n      dup3\n        /* \"#utility.yul\":12459:12516   */\n      tag_235\n      jump\t// in\n    tag_410:\n        /* \"#utility.yul\":12362:12526   */\n      pop\n        /* \"#utility.yul\":12543:12547   */\n      dup1\n        /* \"#utility.yul\":12536:12547   */\n      swap2\n      pop\n        /* \"#utility.yul\":11634:12553   */\n      pop\n        /* \"#utility.yul\":11516:12553   */\n      swap3\n      swap2\n      pop\n      pop\n      jump\t// out\n        /* \"#utility.yul\":12559:12920   */\n    tag_70:\n        /* \"#utility.yul\":12696:12700   */\n      0x00\n        /* \"#utility.yul\":12734:12736   */\n      0x20\n        /* \"#utility.yul\":12723:12732   */\n      dup3\n        /* \"#utility.yul\":12719:12737   */\n      add\n        /* \"#utility.yul\":12711:12737   */\n      swap1\n      pop\n        /* \"#utility.yul\":12783:12792   */\n      dup2\n        /* \"#utility.yul\":12777:12781   */\n      dup2\n        /* \"#utility.yul\":12773:12793   */\n      sub\n        /* \"#utility.yul\":12769:12770   */\n      0x00\n        /* \"#utility.yul\":12758:12767   */\n      dup4\n        /* \"#utility.yul\":12754:12771   */\n      add\n        /* \"#utility.yul\":12747:12794   */\n      mstore\n        /* \"#utility.yul\":12811:12913   */\n      tag_412\n        /* \"#utility.yul\":12908:12912   */\n      dup2\n        /* \"#utility.yul\":12899:12905   */\n      dup5\n        /* \"#utility.yul\":12811:12913   */\n      tag_236\n      jump\t// in\n    tag_412:\n        /* \"#utility.yul\":12803:12913   */\n      swap1\n      pop\n        /* \"#utility.yul\":12559:12920   */\n      swap3\n      swap2\n      pop\n      pop\n      jump\t// out\n        /* \"#utility.yul\":12926:13034   */\n    tag_237:\n        /* \"#utility.yul\":13003:13027   */\n      tag_414\n        /* \"#utility.yul\":13021:13026   */\n      dup2\n        /* \"#utility.yul\":13003:13027   */\n      tag_203\n      jump\t// in\n    tag_414:\n        /* \"#utility.yul\":12998:13001   */\n      dup3\n        /* \"#utility.yul\":12991:13028   */\n      mstore\n        /* \"#utility.yul\":12926:13034   */\n      pop\n      pop\n      jump\t// out\n        /* \"#utility.yul\":13040:13189   */\n    tag_238:\n        /* \"#utility.yul\":13131:13182   */\n      tag_416\n        /* \"#utility.yul\":13176:13181   */\n      dup2\n        /* \"#utility.yul\":13131:13182   */\n      tag_217\n      jump\t// in\n    tag_416:\n        /* \"#utility.yul\":13126:13129   */\n      dup3\n        /* \"#utility.yul\":13119:13183   */\n      mstore\n        /* \"#utility.yul\":13040:13189   */\n      pop\n      pop\n      jump\t// out\n        /* \"#utility.yul\":13287:14617   */\n    tag_239:\n        /* \"#utility.yul\":13402:13405   */\n      0x00\n        /* \"#utility.yul\":13438:13442   */\n      0xc0\n        /* \"#utility.yul\":13433:13436   */\n      dup4\n        /* \"#utility.yul\":13429:13443   */\n      add\n        /* \"#utility.yul\":13523:13527   */\n      0x00\n        /* \"#utility.yul\":13516:13521   */\n      dup4\n        /* \"#utility.yul\":13512:13528   */\n      add\n        /* \"#utility.yul\":13506:13529   */\n      mload\n        /* \"#utility.yul\":13542:13605   */\n      tag_418\n        /* \"#utility.yul\":13599:13603   */\n      0x00\n        /* \"#utility.yul\":13594:13597   */\n      dup7\n        /* \"#utility.yul\":13590:13604   */\n      add\n        /* \"#utility.yul\":13576:13588   */\n      dup3\n        /* \"#utility.yul\":13542:13605   */\n      tag_237\n      jump\t// in\n    tag_418:\n        /* \"#utility.yul\":13453:13615   */\n      pop\n        /* \"#utility.yul\":13698:13702   */\n      0x20\n        /* \"#utility.yul\":13691:13696   */\n      dup4\n        /* \"#utility.yul\":13687:13703   */\n      add\n        /* \"#utility.yul\":13681:13704   */\n      mload\n        /* \"#utility.yul\":13751:13754   */\n      dup5\n        /* \"#utility.yul\":13745:13749   */\n      dup3\n        /* \"#utility.yul\":13741:13755   */\n      sub\n        /* \"#utility.yul\":13734:13738   */\n      0x20\n        /* \"#utility.yul\":13729:13732   */\n      dup7\n        /* \"#utility.yul\":13725:13739   */\n      add\n        /* \"#utility.yul\":13718:13756   */\n      mstore\n        /* \"#utility.yul\":13777:13850   */\n      tag_419\n        /* \"#utility.yul\":13845:13849   */\n      dup3\n        /* \"#utility.yul\":13831:13843   */\n      dup3\n        /* \"#utility.yul\":13777:13850   */\n      tag_234\n      jump\t// in\n    tag_419:\n        /* \"#utility.yul\":13769:13850   */\n      swap2\n      pop\n        /* \"#utility.yul\":13625:13861   */\n      pop\n        /* \"#utility.yul\":13946:13950   */\n      0x40\n        /* \"#utility.yul\":13939:13944   */\n      dup4\n        /* \"#utility.yul\":13935:13951   */\n      add\n        /* \"#utility.yul\":13929:13952   */\n      mload\n        /* \"#utility.yul\":13965:14028   */\n      tag_420\n        /* \"#utility.yul\":14022:14026   */\n      0x40\n        /* \"#utility.yul\":14017:14020   */\n      dup7\n        /* \"#utility.yul\":14013:14027   */\n      add\n        /* \"#utility.yul\":13999:14011   */\n      dup3\n        /* \"#utility.yul\":13965:14028   */\n      tag_232\n      jump\t// in\n    tag_420:\n        /* \"#utility.yul\":13871:14038   */\n      pop\n        /* \"#utility.yul\":14127:14131   */\n      0x60\n        /* \"#utility.yul\":14120:14125   */\n      dup4\n        /* \"#utility.yul\":14116:14132   */\n      add\n        /* \"#utility.yul\":14110:14133   */\n      mload\n        /* \"#utility.yul\":14146:14209   */\n      tag_421\n        /* \"#utility.yul\":14203:14207   */\n      0x60\n        /* \"#utility.yul\":14198:14201   */\n      dup7\n        /* \"#utility.yul\":14194:14208   */\n      add\n        /* \"#utility.yul\":14180:14192   */\n      dup3\n        /* \"#utility.yul\":14146:14209   */\n      tag_237\n      jump\t// in\n    tag_421:\n        /* \"#utility.yul\":14048:14219   */\n      pop\n        /* \"#utility.yul\":14308:14312   */\n      0x80\n        /* \"#utility.yul\":14301:14306   */\n      dup4\n        /* \"#utility.yul\":14297:14313   */\n      add\n        /* \"#utility.yul\":14291:14314   */\n      mload\n        /* \"#utility.yul\":14327:14390   */\n      tag_422\n        /* \"#utility.yul\":14384:14388   */\n      0x80\n        /* \"#utility.yul\":14379:14382   */\n      dup7\n        /* \"#utility.yul\":14375:14389   */\n      add\n        /* \"#utility.yul\":14361:14373   */\n      dup3\n        /* \"#utility.yul\":14327:14390   */\n      tag_237\n      jump\t// in\n    tag_422:\n        /* \"#utility.yul\":14229:14400   */\n      pop\n        /* \"#utility.yul\":14484:14488   */\n      0xa0\n        /* \"#utility.yul\":14477:14482   */\n      dup4\n        /* \"#utility.yul\":14473:14489   */\n      add\n        /* \"#utility.yul\":14467:14490   */\n      mload\n        /* \"#utility.yul\":14503:14580   */\n      tag_423\n        /* \"#utility.yul\":14574:14578   */\n      0xa0\n        /* \"#utility.yul\":14569:14572   */\n      dup7\n        /* \"#utility.yul\":14565:14579   */\n      add\n        /* \"#utility.yul\":14551:14563   */\n      dup3\n        /* \"#utility.yul\":14503:14580   */\n      tag_238\n      jump\t// in\n    tag_423:\n        /* \"#utility.yul\":14410:14590   */\n      pop\n        /* \"#utility.yul\":14607:14611   */\n      dup1\n        /* \"#utility.yul\":14600:14611   */\n      swap2\n      pop\n        /* \"#utility.yul\":13407:14617   */\n      pop\n        /* \"#utility.yul\":13287:14617   */\n      swap3\n      swap2\n      pop\n      pop\n      jump\t// out\n        /* \"#utility.yul\":14623:14988   */\n    tag_82:\n        /* \"#utility.yul\":14762:14766   */\n      0x00\n        /* \"#utility.yul\":14800:14802   */\n      0x20\n        /* \"#utility.yul\":14789:14798   */\n      dup3\n        /* \"#utility.yul\":14785:14803   */\n      add\n        /* \"#utility.yul\":14777:14803   */\n      swap1\n      pop\n        /* \"#utility.yul\":14849:14858   */\n      dup2\n        /* \"#utility.yul\":14843:14847   */\n      dup2\n        /* \"#utility.yul\":14839:14859   */\n      sub\n        /* \"#utility.yul\":14835:14836   */\n      0x00\n        /* \"#utility.yul\":14824:14833   */\n      dup4\n        /* \"#utility.yul\":14820:14837   */\n      add\n        /* \"#utility.yul\":14813:14860   */\n      mstore\n        /* \"#utility.yul\":14877:14981   */\n      tag_425\n        /* \"#utility.yul\":14976:14980   */\n      dup2\n        /* \"#utility.yul\":14967:14973   */\n      dup5\n        /* \"#utility.yul\":14877:14981   */\n      tag_239\n      jump\t// in\n    tag_425:\n        /* \"#utility.yul\":14869:14981   */\n      swap1\n      pop\n        /* \"#utility.yul\":14623:14988   */\n      swap3\n      swap2\n      pop\n      pop\n      jump\t// out\n        /* \"#utility.yul\":14994:15174   */\n    tag_240:\n        /* \"#utility.yul\":15042:15119   */\n      0x4e487b7100000000000000000000000000000000000000000000000000000000\n        /* \"#utility.yul\":15039:15040   */\n      0x00\n        /* \"#utility.yul\":15032:15120   */\n      mstore\n        /* \"#utility.yul\":15139:15143   */\n      0x22\n        /* \"#utility.yul\":15136:15137   */\n      0x04\n        /* \"#utility.yul\":15129:15144   */\n      mstore\n        /* \"#utility.yul\":15163:15167   */\n      0x24\n        /* \"#utility.yul\":15160:15161   */\n      0x00\n        /* \"#utility.yul\":15153:15168   */\n      revert\n        /* \"#utility.yul\":15180:15500   */\n    tag_84:\n        /* \"#utility.yul\":15224:15230   */\n      0x00\n        /* \"#utility.yul\":15261:15262   */\n      0x02\n        /* \"#utility.yul\":15255:15259   */\n      dup3\n        /* \"#utility.yul\":15251:15263   */\n      div\n        /* \"#utility.yul\":15241:15263   */\n      swap1\n      pop\n        /* \"#utility.yul\":15308:15309   */\n      0x01\n        /* \"#utility.yul\":15302:15306   */\n      dup3\n        /* \"#utility.yul\":15298:15310   */\n      and\n        /* \"#utility.yul\":15329:15347   */\n      dup1\n        /* \"#utility.yul\":15319:15400   */\n      tag_428\n      jumpi\n        /* \"#utility.yul\":15385:15389   */\n      0x7f\n        /* \"#utility.yul\":15377:15383   */\n      dup3\n        /* \"#utility.yul\":15373:15390   */\n      and\n        /* \"#utility.yul\":15363:15390   */\n      swap2\n      pop\n        /* \"#utility.yul\":15319:15400   */\n    tag_428:\n        /* \"#utility.yul\":15447:15449   */\n      0x20\n        /* \"#utility.yul\":15439:15445   */\n      dup3\n        /* \"#utility.yul\":15436:15450   */\n      lt\n        /* \"#utility.yul\":15416:15434   */\n      dup2\n        /* \"#utility.yul\":15413:15451   */\n      sub\n        /* \"#utility.yul\":15410:15494   */\n      tag_429\n      jumpi\n        /* \"#utility.yul\":15466:15484   */\n      tag_430\n      tag_240\n      jump\t// in\n    tag_430:\n        /* \"#utility.yul\":15410:15494   */\n    tag_429:\n        /* \"#utility.yul\":15231:15500   */\n      pop\n        /* \"#utility.yul\":15180:15500   */\n      swap2\n      swap1\n      pop\n      jump\t// out\n        /* \"#utility.yul\":15506:15737   */\n    tag_241:\n        /* \"#utility.yul\":15646:15680   */\n      0x4f6e6c79207468652070726f6a6563742063726561746f722063616e20776974\n        /* \"#utility.yul\":15642:15643   */\n      0x00\n        /* \"#utility.yul\":15634:15640   */\n      dup3\n        /* \"#utility.yul\":15630:15644   */\n      add\n        /* \"#utility.yul\":15623:15681   */\n      mstore\n        /* \"#utility.yul\":15715:15729   */\n      0x68647261772066756e64732e0000000000000000000000000000000000000000\n        /* \"#utility.yul\":15710:15712   */\n      0x20\n        /* \"#utility.yul\":15702:15708   */\n      dup3\n        /* \"#utility.yul\":15698:15713   */\n      add\n        /* \"#utility.yul\":15691:15730   */\n      mstore\n        /* \"#utility.yul\":15506:15737   */\n      pop\n      jump\t// out\n        /* \"#utility.yul\":15743:16109   */\n    tag_242:\n        /* \"#utility.yul\":15885:15888   */\n      0x00\n        /* \"#utility.yul\":15906:15973   */\n      tag_433\n        /* \"#utility.yul\":15970:15972   */\n      0x2c\n        /* \"#utility.yul\":15965:15968   */\n      dup4\n        /* \"#utility.yul\":15906:15973   */\n      tag_208\n      jump\t// in\n    tag_433:\n        /* \"#utility.yul\":15899:15973   */\n      swap2\n      pop\n        /* \"#utility.yul\":15982:16075   */\n      tag_434\n        /* \"#utility.yul\":16071:16074   */\n      dup3\n        /* \"#utility.yul\":15982:16075   */\n      tag_241\n      jump\t// in\n    tag_434:\n        /* \"#utility.yul\":16100:16102   */\n      0x40\n        /* \"#utility.yul\":16095:16098   */\n      dup3\n        /* \"#utility.yul\":16091:16103   */\n      add\n        /* \"#utility.yul\":16084:16103   */\n      swap1\n      pop\n        /* \"#utility.yul\":15743:16109   */\n      swap2\n      swap1\n      pop\n      jump\t// out\n        /* \"#utility.yul\":16115:16534   */\n    tag_102:\n        /* \"#utility.yul\":16281:16285   */\n      0x00\n        /* \"#utility.yul\":16319:16321   */\n      0x20\n        /* \"#utility.yul\":16308:16317   */\n      dup3\n        /* \"#utility.yul\":16304:16322   */\n      add\n        /* \"#utility.yul\":16296:16322   */\n      swap1\n      pop\n        /* \"#utility.yul\":16368:16377   */\n      dup2\n        /* \"#utility.yul\":16362:16366   */\n      dup2\n        /* \"#utility.yul\":16358:16378   */\n      sub\n        /* \"#utility.yul\":16354:16355   */\n      0x00\n        /* \"#utility.yul\":16343:16352   */\n      dup4\n        /* \"#utility.yul\":16339:16356   */\n      add\n        /* \"#utility.yul\":16332:16379   */\n      mstore\n        /* \"#utility.yul\":16396:16527   */\n      tag_436\n        /* \"#utility.yul\":16522:16526   */\n      dup2\n        /* \"#utility.yul\":16396:16527   */\n      tag_242\n      jump\t// in\n    tag_436:\n        /* \"#utility.yul\":16388:16527   */\n      swap1\n      pop\n        /* \"#utility.yul\":16115:16534   */\n      swap2\n      swap1\n      pop\n      jump\t// out\n        /* \"#utility.yul\":16540:16718   */\n    tag_243:\n        /* \"#utility.yul\":16680:16710   */\n      0x50726f6a656374206973206e6f742066756c6c792066756e6465642e00000000\n        /* \"#utility.yul\":16676:16677   */\n      0x00\n        /* \"#utility.yul\":16668:16674   */\n      dup3\n        /* \"#utility.yul\":16664:16678   */\n      add\n        /* \"#utility.yul\":16657:16711   */\n      mstore\n        /* \"#utility.yul\":16540:16718   */\n      pop\n      jump\t// out\n        /* \"#utility.yul\":16724:17090   */\n    tag_244:\n        /* \"#utility.yul\":16866:16869   */\n      0x00\n        /* \"#utility.yul\":16887:16954   */\n      tag_439\n        /* \"#utility.yul\":16951:16953   */\n      0x1c\n        /* \"#utility.yul\":16946:16949   */\n      dup4\n        /* \"#utility.yul\":16887:16954   */\n      tag_208\n      jump\t// in\n    tag_439:\n        /* \"#utility.yul\":16880:16954   */\n      swap2\n      pop\n        /* \"#utility.yul\":16963:17056   */\n      tag_440\n        /* \"#utility.yul\":17052:17055   */\n      dup3\n        /* \"#utility.yul\":16963:17056   */\n      tag_243\n      jump\t// in\n    tag_440:\n        /* \"#utility.yul\":17081:17083   */\n      0x20\n        /* \"#utility.yul\":17076:17079   */\n      dup3\n        /* \"#utility.yul\":17072:17084   */\n      add\n        /* \"#utility.yul\":17065:17084   */\n      swap1\n      pop\n        /* \"#utility.yul\":16724:17090   */\n      swap2\n      swap1\n      pop\n      jump\t// out\n        /* \"#utility.yul\":17096:17515   */\n    tag_110:\n        /* \"#utility.yul\":17262:17266   */\n      0x00\n        /* \"#utility.yul\":17300:17302   */\n      0x20\n        /* \"#utility.yul\":17289:17298   */\n      dup3\n        /* \"#utility.yul\":17285:17303   */\n      add\n        /* \"#utility.yul\":17277:17303   */\n      swap1\n      pop\n        /* \"#utility.yul\":17349:17358   */\n      dup2\n        /* \"#utility.yul\":17343:17347   */\n      dup2\n        /* \"#utility.yul\":17339:17359   */\n      sub\n        /* \"#utility.yul\":17335:17336   */\n      0x00\n        /* \"#utility.yul\":17324:17333   */\n      dup4\n        /* \"#utility.yul\":17320:17337   */\n      add\n        /* \"#utility.yul\":17313:17360   */\n      mstore\n        /* \"#utility.yul\":17377:17508   */\n      tag_442\n        /* \"#utility.yul\":17503:17507   */\n      dup2\n        /* \"#utility.yul\":17377:17508   */\n      tag_244\n      jump\t// in\n    tag_442:\n        /* \"#utility.yul\":17369:17508   */\n      swap1\n      pop\n        /* \"#utility.yul\":17096:17515   */\n      swap2\n      swap1\n      pop\n      jump\t// out\n        /* \"#utility.yul\":17521:17668   */\n    tag_245:\n        /* \"#utility.yul\":17622:17633   */\n      0x00\n        /* \"#utility.yul\":17659:17662   */\n      dup2\n        /* \"#utility.yul\":17644:17662   */\n      swap1\n      pop\n        /* \"#utility.yul\":17521:17668   */\n      swap3\n      swap2\n      pop\n      pop\n      jump\t// out\n        /* \"#utility.yul\":17674:17788   */\n    tag_246:\n      pop\n      jump\t// out\n        /* \"#utility.yul\":17794:18192   */\n    tag_247:\n        /* \"#utility.yul\":17953:17956   */\n      0x00\n        /* \"#utility.yul\":17974:18057   */\n      tag_446\n        /* \"#utility.yul\":18055:18056   */\n      0x00\n        /* \"#utility.yul\":18050:18053   */\n      dup4\n        /* \"#utility.yul\":17974:18057   */\n      tag_245\n      jump\t// in\n    tag_446:\n        /* \"#utility.yul\":17967:18057   */\n      swap2\n      pop\n        /* \"#utility.yul\":18066:18159   */\n      tag_447\n        /* \"#utility.yul\":18155:18158   */\n      dup3\n        /* \"#utility.yul\":18066:18159   */\n      tag_246\n      jump\t// in\n    tag_447:\n        /* \"#utility.yul\":18184:18185   */\n      0x00\n        /* \"#utility.yul\":18179:18182   */\n      dup3\n        /* \"#utility.yul\":18175:18186   */\n      add\n        /* \"#utility.yul\":18168:18186   */\n      swap1\n      pop\n        /* \"#utility.yul\":17794:18192   */\n      swap2\n      swap1\n      pop\n      jump\t// out\n        /* \"#utility.yul\":18198:18577   */\n    tag_114:\n        /* \"#utility.yul\":18382:18385   */\n      0x00\n        /* \"#utility.yul\":18404:18551   */\n      tag_449\n        /* \"#utility.yul\":18547:18550   */\n      dup3\n        /* \"#utility.yul\":18404:18551   */\n      tag_247\n      jump\t// in\n    tag_449:\n        /* \"#utility.yul\":18397:18551   */\n      swap2\n      pop\n        /* \"#utility.yul\":18568:18571   */\n      dup2\n        /* \"#utility.yul\":18561:18571   */\n      swap1\n      pop\n        /* \"#utility.yul\":18198:18577   */\n      swap2\n      swap1\n      pop\n      jump\t// out\n        /* \"#utility.yul\":18583:18749   */\n    tag_248:\n        /* \"#utility.yul\":18723:18741   */\n      0x5472616e73666572206661696c65642e00000000000000000000000000000000\n        /* \"#utility.yul\":18719:18720   */\n      0x00\n        /* \"#utility.yul\":18711:18717   */\n      dup3\n        /* \"#utility.yul\":18707:18721   */\n      add\n        /* \"#utility.yul\":18700:18742   */\n      mstore\n        /* \"#utility.yul\":18583:18749   */\n      pop\n      jump\t// out\n        /* \"#utility.yul\":18755:19121   */\n    tag_249:\n        /* \"#utility.yul\":18897:18900   */\n      0x00\n        /* \"#utility.yul\":18918:18985   */\n      tag_452\n        /* \"#utility.yul\":18982:18984   */\n      0x10\n        /* \"#utility.yul\":18977:18980   */\n      dup4\n        /* \"#utility.yul\":18918:18985   */\n      tag_208\n      jump\t// in\n    tag_452:\n        /* \"#utility.yul\":18911:18985   */\n      swap2\n      pop\n        /* \"#utility.yul\":18994:19087   */\n      tag_453\n        /* \"#utility.yul\":19083:19086   */\n      dup3\n        /* \"#utility.yul\":18994:19087   */\n      tag_248\n      jump\t// in\n    tag_453:\n        /* \"#utility.yul\":19112:19114   */\n      0x20\n        /* \"#utility.yul\":19107:19110   */\n      dup3\n        /* \"#utility.yul\":19103:19115   */\n      add\n        /* \"#utility.yul\":19096:19115   */\n      swap1\n      pop\n        /* \"#utility.yul\":18755:19121   */\n      swap2\n      swap1\n      pop\n      jump\t// out\n        /* \"#utility.yul\":19127:19546   */\n    tag_120:\n        /* \"#utility.yul\":19293:19297   */\n      0x00\n        /* \"#utility.yul\":19331:19333   */\n      0x20\n        /* \"#utility.yul\":19320:19329   */\n      dup3\n        /* \"#utility.yul\":19316:19334   */\n      add\n        /* \"#utility.yul\":19308:19334   */\n      swap1\n      pop\n        /* \"#utility.yul\":19380:19389   */\n      dup2\n        /* \"#utility.yul\":19374:19378   */\n      dup2\n        /* \"#utility.yul\":19370:19390   */\n      sub\n        /* \"#utility.yul\":19366:19367   */\n      0x00\n        /* \"#utility.yul\":19355:19364   */\n      dup4\n        /* \"#utility.yul\":19351:19368   */\n      add\n        /* \"#utility.yul\":19344:19391   */\n      mstore\n        /* \"#utility.yul\":19408:19539   */\n      tag_455\n        /* \"#utility.yul\":19534:19538   */\n      dup2\n        /* \"#utility.yul\":19408:19539   */\n      tag_249\n      jump\t// in\n    tag_455:\n        /* \"#utility.yul\":19400:19539   */\n      swap1\n      pop\n        /* \"#utility.yul\":19127:19546   */\n      swap2\n      swap1\n      pop\n      jump\t// out\n        /* \"#utility.yul\":19552:19777   */\n    tag_250:\n        /* \"#utility.yul\":19692:19726   */\n      0x4f6e6c7920746865206f776e65722063616e2063616c6c20746869732066756e\n        /* \"#utility.yul\":19688:19689   */\n      0x00\n        /* \"#utility.yul\":19680:19686   */\n      dup3\n        /* \"#utility.yul\":19676:19690   */\n      add\n        /* \"#utility.yul\":19669:19727   */\n      mstore\n        /* \"#utility.yul\":19761:19769   */\n      0x6374696f6e2e0000000000000000000000000000000000000000000000000000\n        /* \"#utility.yul\":19756:19758   */\n      0x20\n        /* \"#utility.yul\":19748:19754   */\n      dup3\n        /* \"#utility.yul\":19744:19759   */\n      add\n        /* \"#utility.yul\":19737:19770   */\n      mstore\n        /* \"#utility.yul\":19552:19777   */\n      pop\n      jump\t// out\n        /* \"#utility.yul\":19783:20149   */\n    tag_251:\n        /* \"#utility.yul\":19925:19928   */\n      0x00\n        /* \"#utility.yul\":19946:20013   */\n      tag_458\n        /* \"#utility.yul\":20010:20012   */\n      0x26\n        /* \"#utility.yul\":20005:20008   */\n      dup4\n        /* \"#utility.yul\":19946:20013   */\n      tag_208\n      jump\t// in\n    tag_458:\n        /* \"#utility.yul\":19939:20013   */\n      swap2\n      pop\n        /* \"#utility.yul\":20022:20115   */\n      tag_459\n        /* \"#utility.yul\":20111:20114   */\n      dup3\n        /* \"#utility.yul\":20022:20115   */\n      tag_250\n      jump\t// in\n    tag_459:\n        /* \"#utility.yul\":20140:20142   */\n      0x40\n        /* \"#utility.yul\":20135:20138   */\n      dup3\n        /* \"#utility.yul\":20131:20143   */\n      add\n        /* \"#utility.yul\":20124:20143   */\n      swap1\n      pop\n        /* \"#utility.yul\":19783:20149   */\n      swap2\n      swap1\n      pop\n      jump\t// out\n        /* \"#utility.yul\":20155:20574   */\n    tag_124:\n        /* \"#utility.yul\":20321:20325   */\n      0x00\n        /* \"#utility.yul\":20359:20361   */\n      0x20\n        /* \"#utility.yul\":20348:20357   */\n      dup3\n        /* \"#utility.yul\":20344:20362   */\n      add\n        /* \"#utility.yul\":20336:20362   */\n      swap1\n      pop\n        /* \"#utility.yul\":20408:20417   */\n      dup2\n        /* \"#utility.yul\":20402:20406   */\n      dup2\n        /* \"#utility.yul\":20398:20418   */\n      sub\n        /* \"#utility.yul\":20394:20395   */\n      0x00\n        /* \"#utility.yul\":20383:20392   */\n      dup4\n        /* \"#utility.yul\":20379:20396   */\n      add\n        /* \"#utility.yul\":20372:20419   */\n      mstore\n        /* \"#utility.yul\":20436:20567   */\n      tag_461\n        /* \"#utility.yul\":20562:20566   */\n      dup2\n        /* \"#utility.yul\":20436:20567   */\n      tag_251\n      jump\t// in\n    tag_461:\n        /* \"#utility.yul\":20428:20567   */\n      swap1\n      pop\n        /* \"#utility.yul\":20155:20574   */\n      swap2\n      swap1\n      pop\n      jump\t// out\n        /* \"#utility.yul\":20580:20754   */\n    tag_252:\n        /* \"#utility.yul\":20720:20746   */\n      0x45787065727420616c72656164792076657269666965642e0000000000000000\n        /* \"#utility.yul\":20716:20717   */\n      0x00\n        /* \"#utility.yul\":20708:20714   */\n      dup3\n        /* \"#utility.yul\":20704:20718   */\n      add\n        /* \"#utility.yul\":20697:20747   */\n      mstore\n        /* \"#utility.yul\":20580:20754   */\n      pop\n      jump\t// out\n        /* \"#utility.yul\":20760:21126   */\n    tag_253:\n        /* \"#utility.yul\":20902:20905   */\n      0x00\n        /* \"#utility.yul\":20923:20990   */\n      tag_464\n        /* \"#utility.yul\":20987:20989   */\n      0x18\n        /* \"#utility.yul\":20982:20985   */\n      dup4\n        /* \"#utility.yul\":20923:20990   */\n      tag_208\n      jump\t// in\n    tag_464:\n        /* \"#utility.yul\":20916:20990   */\n      swap2\n      pop\n        /* \"#utility.yul\":20999:21092   */\n      tag_465\n        /* \"#utility.yul\":21088:21091   */\n      dup3\n        /* \"#utility.yul\":20999:21092   */\n      tag_252\n      jump\t// in\n    tag_465:\n        /* \"#utility.yul\":21117:21119   */\n      0x20\n        /* \"#utility.yul\":21112:21115   */\n      dup3\n        /* \"#utility.yul\":21108:21120   */\n      add\n        /* \"#utility.yul\":21101:21120   */\n      swap1\n      pop\n        /* \"#utility.yul\":20760:21126   */\n      swap2\n      swap1\n      pop\n      jump\t// out\n        /* \"#utility.yul\":21132:21551   */\n    tag_128:\n        /* \"#utility.yul\":21298:21302   */\n      0x00\n        /* \"#utility.yul\":21336:21338   */\n      0x20\n        /* \"#utility.yul\":21325:21334   */\n      dup3\n        /* \"#utility.yul\":21321:21339   */\n      add\n        /* \"#utility.yul\":21313:21339   */\n      swap1\n      pop\n        /* \"#utility.yul\":21385:21394   */\n      dup2\n        /* \"#utility.yul\":21379:21383   */\n      dup2\n        /* \"#utility.yul\":21375:21395   */\n      sub\n        /* \"#utility.yul\":21371:21372   */\n      0x00\n        /* \"#utility.yul\":21360:21369   */\n      dup4\n        /* \"#utility.yul\":21356:21373   */\n      add\n        /* \"#utility.yul\":21349:21396   */\n      mstore\n        /* \"#utility.yul\":21413:21544   */\n      tag_467\n        /* \"#utility.yul\":21539:21543   */\n      dup2\n        /* \"#utility.yul\":21413:21544   */\n      tag_253\n      jump\t// in\n    tag_467:\n        /* \"#utility.yul\":21405:21544   */\n      swap1\n      pop\n        /* \"#utility.yul\":21132:21551   */\n      swap2\n      swap1\n      pop\n      jump\t// out\n        /* \"#utility.yul\":21557:21698   */\n    tag_254:\n        /* \"#utility.yul\":21606:21610   */\n      0x00\n        /* \"#utility.yul\":21629:21632   */\n      dup2\n        /* \"#utility.yul\":21621:21632   */\n      swap1\n      pop\n        /* \"#utility.yul\":21652:21655   */\n      dup2\n        /* \"#utility.yul\":21649:21650   */\n      0x00\n        /* \"#utility.yul\":21642:21656   */\n      mstore\n        /* \"#utility.yul\":21686:21690   */\n      0x20\n        /* \"#utility.yul\":21683:21684   */\n      0x00\n        /* \"#utility.yul\":21673:21691   */\n      keccak256\n        /* \"#utility.yul\":21665:21691   */\n      swap1\n      pop\n        /* \"#utility.yul\":21557:21698   */\n      swap2\n      swap1\n      pop\n      jump\t// out\n        /* \"#utility.yul\":21704:21797   */\n    tag_255:\n        /* \"#utility.yul\":21741:21747   */\n      0x00\n        /* \"#utility.yul\":21788:21790   */\n      0x20\n        /* \"#utility.yul\":21783:21785   */\n      0x1f\n        /* \"#utility.yul\":21776:21781   */\n      dup4\n        /* \"#utility.yul\":21772:21786   */\n      add\n        /* \"#utility.yul\":21768:21791   */\n      div\n        /* \"#utility.yul\":21758:21791   */\n      swap1\n      pop\n        /* \"#utility.yul\":21704:21797   */\n      swap2\n      swap1\n      pop\n      jump\t// out\n        /* \"#utility.yul\":21803:21910   */\n    tag_256:\n        /* \"#utility.yul\":21847:21855   */\n      0x00\n        /* \"#utility.yul\":21897:21902   */\n      dup3\n        /* \"#utility.yul\":21891:21895   */\n      dup3\n        /* \"#utility.yul\":21887:21903   */\n      shl\n        /* \"#utility.yul\":21866:21903   */\n      swap1\n      pop\n        /* \"#utility.yul\":21803:21910   */\n      swap3\n      swap2\n      pop\n      pop\n      jump\t// out\n        /* \"#utility.yul\":21916:22309   */\n    tag_257:\n        /* \"#utility.yul\":21985:21991   */\n      0x00\n        /* \"#utility.yul\":22035:22036   */\n      0x08\n        /* \"#utility.yul\":22023:22033   */\n      dup4\n        /* \"#utility.yul\":22019:22037   */\n      mul\n        /* \"#utility.yul\":22058:22155   */\n      tag_472\n        /* \"#utility.yul\":22088:22154   */\n      0xffffffffffffffffffffffffffffffffffffffffffffffffffffffffffffffff\n        /* \"#utility.yul\":22077:22086   */\n      dup3\n        /* \"#utility.yul\":22058:22155   */\n      tag_256\n      jump\t// in\n    tag_472:\n        /* \"#utility.yul\":22176:22215   */\n      tag_473\n        /* \"#utility.yul\":22206:22214   */\n      dup7\n        /* \"#utility.yul\":22195:22204   */\n      dup4\n        /* \"#utility.yul\":22176:22215   */\n      tag_256\n      jump\t// in\n    tag_473:\n        /* \"#utility.yul\":22164:22215   */\n      swap6\n      pop\n        /* \"#utility.yul\":22248:22252   */\n      dup1\n        /* \"#utility.yul\":22244:22253   */\n      not\n        /* \"#utility.yul\":22237:22242   */\n      dup5\n        /* \"#utility.yul\":22233:22254   */\n      and\n        /* \"#utility.yul\":22224:22254   */\n      swap4\n      pop\n        /* \"#utility.yul\":22297:22301   */\n      dup1\n        /* \"#utility.yul\":22287:22295   */\n      dup7\n        /* \"#utility.yul\":22283:22302   */\n      and\n        /* \"#utility.yul\":22276:22281   */\n      dup5\n        /* \"#utility.yul\":22273:22303   */\n      or\n        /* \"#utility.yul\":22263:22303   */\n      swap3\n      pop\n        /* \"#utility.yul\":21992:22309   */\n      pop\n      pop\n        /* \"#utility.yul\":21916:22309   */\n      swap4\n      swap3\n      pop\n      pop\n      pop\n      jump\t// out\n        /* \"#utility.yul\":22315:22375   */\n    tag_258:\n        /* \"#utility.yul\":22343:22346   */\n      0x00\n        /* \"#utility.yul\":22364:22369   */\n      dup2\n        /* \"#utility.yul\":22357:22369   */\n      swap1\n      pop\n        /* \"#utility.yul\":22315:22375   */\n      swap2\n      swap1\n      pop\n      jump\t// out\n        /* \"#utility.yul\":22381:22523   */\n    tag_259:\n        /* \"#utility.yul\":22431:22440   */\n      0x00\n        /* \"#utility.yul\":22464:22517   */\n      tag_476\n        /* \"#utility.yul\":22482:22516   */\n      tag_477\n        /* \"#utility.yul\":22491:22515   */\n      tag_478\n        /* \"#utility.yul\":22509:22514   */\n      dup5\n        /* \"#utility.yul\":22491:22515   */\n      tag_203\n      jump\t// in\n    tag_478:\n        /* \"#utility.yul\":22482:22516   */\n      tag_258\n      jump\t// in\n    tag_477:\n        /* \"#utility.yul\":22464:22517   */\n      tag_203\n      jump\t// in\n    tag_476:\n        /* \"#utility.yul\":22451:22517   */\n      swap1\n      pop\n        /* \"#utility.yul\":22381:22523   */\n      swap2\n      swap1\n      pop\n      jump\t// out\n        /* \"#utility.yul\":22529:22604   */\n    tag_260:\n        /* \"#utility.yul\":22572:22575   */\n      0x00\n        /* \"#utility.yul\":22593:22598   */\n      dup2\n        /* \"#utility.yul\":22586:22598   */\n      swap1\n      pop\n        /* \"#utility.yul\":22529:22604   */\n      swap2\n      swap1\n      pop\n      jump\t// out\n        /* \"#utility.yul\":22610:22879   */\n    tag_261:\n        /* \"#utility.yul\":22720:22759   */\n      tag_481\n        /* \"#utility.yul\":22751:22758   */\n      dup4\n        /* \"#utility.yul\":22720:22759   */\n      tag_259\n      jump\t// in\n    tag_481:\n        /* \"#utility.yul\":22781:22872   */\n      tag_482\n        /* \"#utility.yul\":22830:22871   */\n      tag_483\n        /* \"#utility.yul\":22854:22870   */\n      dup3\n        /* \"#utility.yul\":22830:22871   */\n      tag_260\n      jump\t// in\n    tag_483:\n        /* \"#utility.yul\":22822:22828   */\n      dup5\n        /* \"#utility.yul\":22815:22819   */\n      dup5\n        /* \"#utility.yul\":22809:22820   */\n      sload\n        /* \"#utility.yul\":22781:22872   */\n      tag_257\n      jump\t// in\n    tag_482:\n        /* \"#utility.yul\":22775:22779   */\n      dup3\n        /* \"#utility.yul\":22768:22873   */\n      sstore\n        /* \"#utility.yul\":22686:22879   */\n      pop\n        /* \"#utility.yul\":22610:22879   */\n      pop\n      pop\n      pop\n      jump\t// out\n        /* \"#utility.yul\":22885:22958   */\n    tag_262:\n        /* \"#utility.yul\":22930:22933   */\n      0x00\n        /* \"#utility.yul\":22885:22958   */\n      swap1\n      jump\t// out\n        /* \"#utility.yul\":22964:23153   */\n    tag_263:\n        /* \"#utility.yul\":23041:23073   */\n      tag_486\n      tag_262\n      jump\t// in\n    tag_486:\n        /* \"#utility.yul\":23082:23147   */\n      tag_487\n        /* \"#utility.yul\":23140:23146   */\n      dup2\n        /* \"#utility.yul\":23132:23138   */\n      dup5\n        /* \"#utility.yul\":23126:23130   */\n      dup5\n        /* \"#utility.yul\":23082:23147   */\n      tag_261\n      jump\t// in\n    tag_487:\n        /* \"#utility.yul\":23017:23153   */\n      pop\n        /* \"#utility.yul\":22964:23153   */\n      pop\n      pop\n      jump\t// out\n        /* \"#utility.yul\":23159:23345   */\n    tag_264:\n        /* \"#utility.yul\":23219:23339   */\n    tag_489:\n        /* \"#utility.yul\":23236:23239   */\n      dup2\n        /* \"#utility.yul\":23229:23234   */\n      dup2\n        /* \"#utility.yul\":23226:23240   */\n      lt\n        /* \"#utility.yul\":23219:23339   */\n      iszero\n      tag_491\n      jumpi\n        /* \"#utility.yul\":23290:23329   */\n      tag_492\n        /* \"#utility.yul\":23327:23328   */\n      0x00\n        /* \"#utility.yul\":23320:23325   */\n      dup3\n        /* \"#utility.yul\":23290:23329   */\n      tag_263\n      jump\t// in\n    tag_492:\n        /* \"#utility.yul\":23263:23264   */\n      0x01\n        /* \"#utility.yul\":23256:23261   */\n      dup2\n        /* \"#utility.yul\":23252:23265   */\n      add\n        /* \"#utility.yul\":23243:23265   */\n      swap1\n      pop\n        /* \"#utility.yul\":23219:23339   */\n      jump(tag_489)\n    tag_491:\n        /* \"#utility.yul\":23159:23345   */\n      pop\n      pop\n      jump\t// out\n        /* \"#utility.yul\":23351:23894   */\n    tag_265:\n        /* \"#utility.yul\":23452:23454   */\n      0x1f\n        /* \"#utility.yul\":23447:23450   */\n      dup3\n        /* \"#utility.yul\":23444:23455   */\n      gt\n        /* \"#utility.yul\":23441:23887   */\n      iszero\n      tag_494\n      jumpi\n        /* \"#utility.yul\":23486:23524   */\n      tag_495\n        /* \"#utility.yul\":23518:23523   */\n      dup2\n        /* \"#utility.yul\":23486:23524   */\n      tag_254\n      jump\t// in\n    tag_495:\n        /* \"#utility.yul\":23570:23599   */\n      tag_496\n        /* \"#utility.yul\":23588:23598   */\n      dup5\n        /* \"#utility.yul\":23570:23599   */\n      tag_255\n      jump\t// in\n    tag_496:\n        /* \"#utility.yul\":23560:23568   */\n      dup2\n        /* \"#utility.yul\":23556:23600   */\n      add\n        /* \"#utility.yul\":23753:23755   */\n      0x20\n        /* \"#utility.yul\":23741:23751   */\n      dup6\n        /* \"#utility.yul\":23738:23756   */\n      lt\n        /* \"#utility.yul\":23735:23784   */\n      iszero\n      tag_497\n      jumpi\n        /* \"#utility.yul\":23774:23782   */\n      dup2\n        /* \"#utility.yul\":23759:23782   */\n      swap1\n      pop\n        /* \"#utility.yul\":23735:23784   */\n    tag_497:\n        /* \"#utility.yul\":23797:23877   */\n      tag_498\n        /* \"#utility.yul\":23853:23875   */\n      tag_499\n        /* \"#utility.yul\":23871:23874   */\n      dup6\n        /* \"#utility.yul\":23853:23875   */\n      tag_255\n      jump\t// in\n    tag_499:\n        /* \"#utility.yul\":23843:23851   */\n      dup4\n        /* \"#utility.yul\":23839:23876   */\n      add\n        /* \"#utility.yul\":23826:23837   */\n      dup3\n        /* \"#utility.yul\":23797:23877   */\n      tag_264\n      jump\t// in\n    tag_498:\n        /* \"#utility.yul\":23456:23887   */\n      pop\n      pop\n        /* \"#utility.yul\":23441:23887   */\n    tag_494:\n        /* \"#utility.yul\":23351:23894   */\n      pop\n      pop\n      pop\n      jump\t// out\n        /* \"#utility.yul\":23900:24017   */\n    tag_266:\n        /* \"#utility.yul\":23954:23962   */\n      0x00\n        /* \"#utility.yul\":24004:24009   */\n      dup3\n        /* \"#utility.yul\":23998:24002   */\n      dup3\n        /* \"#utility.yul\":23994:24010   */\n      shr\n        /* \"#utility.yul\":23973:24010   */\n      swap1\n      pop\n        /* \"#utility.yul\":23900:24017   */\n      swap3\n      swap2\n      pop\n      pop\n      jump\t// out\n        /* \"#utility.yul\":24023:24192   */\n    tag_267:\n        /* \"#utility.yul\":24067:24073   */\n      0x00\n        /* \"#utility.yul\":24100:24151   */\n      tag_502\n        /* \"#utility.yul\":24148:24149   */\n      0x00\n        /* \"#utility.yul\":24144:24150   */\n      not\n        /* \"#utility.yul\":24136:24141   */\n      dup5\n        /* \"#utility.yul\":24133:24134   */\n      0x08\n        /* \"#utility.yul\":24129:24142   */\n      mul\n        /* \"#utility.yul\":24100:24151   */\n      tag_266\n      jump\t// in\n    tag_502:\n        /* \"#utility.yul\":24096:24152   */\n      not\n        /* \"#utility.yul\":24181:24185   */\n      dup1\n        /* \"#utility.yul\":24175:24179   */\n      dup4\n        /* \"#utility.yul\":24171:24186   */\n      and\n        /* \"#utility.yul\":24161:24186   */\n      swap2\n      pop\n        /* \"#utility.yul\":24074:24192   */\n      pop\n        /* \"#utility.yul\":24023:24192   */\n      swap3\n      swap2\n      pop\n      pop\n      jump\t// out\n        /* \"#utility.yul\":24197:24492   */\n    tag_268:\n        /* \"#utility.yul\":24273:24277   */\n      0x00\n        /* \"#utility.yul\":24419:24448   */\n      tag_504\n        /* \"#utility.yul\":24444:24447   */\n      dup4\n        /* \"#utility.yul\":24438:24442   */\n      dup4\n        /* \"#utility.yul\":24419:24448   */\n      tag_267\n      jump\t// in\n    tag_504:\n        /* \"#utility.yul\":24411:24448   */\n      swap2\n      pop\n        /* \"#utility.yul\":24481:24484   */\n      dup3\n        /* \"#utility.yul\":24478:24479   */\n      0x02\n        /* \"#utility.yul\":24474:24485   */\n      mul\n        /* \"#utility.yul\":24468:24472   */\n      dup3\n        /* \"#utility.yul\":24465:24486   */\n      or\n        /* \"#utility.yul\":24457:24486   */\n      swap1\n      pop\n        /* \"#utility.yul\":24197:24492   */\n      swap3\n      swap2\n      pop\n      pop\n      jump\t// out\n        /* \"#utility.yul\":24497:25892   */\n    tag_130:\n        /* \"#utility.yul\":24614:24651   */\n      tag_506\n        /* \"#utility.yul\":24647:24650   */\n      dup3\n        /* \"#utility.yul\":24614:24651   */\n      tag_207\n      jump\t// in\n    tag_506:\n        /* \"#utility.yul\":24716:24734   */\n      0xffffffffffffffff\n        /* \"#utility.yul\":24708:24714   */\n      dup2\n        /* \"#utility.yul\":24705:24735   */\n      gt\n        /* \"#utility.yul\":24702:24758   */\n      iszero\n      tag_507\n      jumpi\n        /* \"#utility.yul\":24738:24756   */\n      tag_508\n      tag_225\n      jump\t// in\n    tag_508:\n        /* \"#utility.yul\":24702:24758   */\n    tag_507:\n        /* \"#utility.yul\":24782:24820   */\n      tag_509\n        /* \"#utility.yul\":24814:24818   */\n      dup3\n        /* \"#utility.yul\":24808:24819   */\n      sload\n        /* \"#utility.yul\":24782:24820   */\n      tag_84\n      jump\t// in\n    tag_509:\n        /* \"#utility.yul\":24867:24934   */\n      tag_510\n        /* \"#utility.yul\":24927:24933   */\n      dup3\n        /* \"#utility.yul\":24919:24925   */\n      dup3\n        /* \"#utility.yul\":24913:24917   */\n      dup6\n        /* \"#utility.yul\":24867:24934   */\n      tag_265\n      jump\t// in\n    tag_510:\n        /* \"#utility.yul\":24961:24962   */\n      0x00\n        /* \"#utility.yul\":24985:24989   */\n      0x20\n        /* \"#utility.yul\":24972:24989   */\n      swap1\n      pop\n        /* \"#utility.yul\":25017:25019   */\n      0x1f\n        /* \"#utility.yul\":25009:25015   */\n      dup4\n        /* \"#utility.yul\":25006:25020   */\n      gt\n        /* \"#utility.yul\":25034:25035   */\n      0x01\n        /* \"#utility.yul\":25029:25647   */\n      dup2\n      eq\n      tag_512\n      jumpi\n        /* \"#utility.yul\":25691:25692   */\n      0x00\n        /* \"#utility.yul\":25708:25714   */\n      dup5\n        /* \"#utility.yul\":25705:25782   */\n      iszero\n      tag_513\n      jumpi\n        /* \"#utility.yul\":25757:25766   */\n      dup3\n        /* \"#utility.yul\":25752:25755   */\n      dup8\n        /* \"#utility.yul\":25748:25767   */\n      add\n        /* \"#utility.yul\":25742:25768   */\n      mload\n        /* \"#utility.yul\":25733:25768   */\n      swap1\n      pop\n        /* \"#utility.yul\":25705:25782   */\n    tag_513:\n        /* \"#utility.yul\":25808:25875   */\n      tag_514\n        /* \"#utility.yul\":25868:25874   */\n      dup6\n        /* \"#utility.yul\":25861:25866   */\n      dup3\n        /* \"#utility.yul\":25808:25875   */\n      tag_268\n      jump\t// in\n    tag_514:\n        /* \"#utility.yul\":25802:25806   */\n      dup7\n        /* \"#utility.yul\":25795:25876   */\n      sstore\n        /* \"#utility.yul\":25664:25886   */\n      pop\n        /* \"#utility.yul\":24999:25886   */\n      jump(tag_511)\n        /* \"#utility.yul\":25029:25647   */\n    tag_512:\n        /* \"#utility.yul\":25081:25085   */\n      0x1f\n        /* \"#utility.yul\":25077:25086   */\n      not\n        /* \"#utility.yul\":25069:25075   */\n      dup5\n        /* \"#utility.yul\":25065:25087   */\n      and\n        /* \"#utility.yul\":25115:25152   */\n      tag_515\n        /* \"#utility.yul\":25147:25151   */\n      dup7\n        /* \"#utility.yul\":25115:25152   */\n      tag_254\n      jump\t// in\n    tag_515:\n        /* \"#utility.yul\":25174:25175   */\n      0x00\n        /* \"#utility.yul\":25188:25396   */\n    tag_516:\n        /* \"#utility.yul\":25202:25209   */\n      dup3\n        /* \"#utility.yul\":25199:25200   */\n      dup2\n        /* \"#utility.yul\":25196:25210   */\n      lt\n        /* \"#utility.yul\":25188:25396   */\n      iszero\n      tag_518\n      jumpi\n        /* \"#utility.yul\":25281:25290   */\n      dup5\n        /* \"#utility.yul\":25276:25279   */\n      dup10\n        /* \"#utility.yul\":25272:25291   */\n      add\n        /* \"#utility.yul\":25266:25292   */\n      mload\n        /* \"#utility.yul\":25258:25264   */\n      dup3\n        /* \"#utility.yul\":25251:25293   */\n      sstore\n        /* \"#utility.yul\":25332:25333   */\n      0x01\n        /* \"#utility.yul\":25324:25330   */\n      dup3\n        /* \"#utility.yul\":25320:25334   */\n      add\n        /* \"#utility.yul\":25310:25334   */\n      swap2\n      pop\n        /* \"#utility.yul\":25379:25381   */\n      0x20\n        /* \"#utility.yul\":25368:25377   */\n      dup6\n        /* \"#utility.yul\":25364:25382   */\n      add\n        /* \"#utility.yul\":25351:25382   */\n      swap5\n      pop\n        /* \"#utility.yul\":25225:25229   */\n      0x20\n        /* \"#utility.yul\":25222:25223   */\n      dup2\n        /* \"#utility.yul\":25218:25230   */\n      add\n        /* \"#utility.yul\":25213:25230   */\n      swap1\n      pop\n        /* \"#utility.yul\":25188:25396   */\n      jump(tag_516)\n    tag_518:\n        /* \"#utility.yul\":25424:25430   */\n      dup7\n        /* \"#utility.yul\":25415:25422   */\n      dup4\n        /* \"#utility.yul\":25412:25431   */\n      lt\n        /* \"#utility.yul\":25409:25588   */\n      iszero\n      tag_519\n      jumpi\n        /* \"#utility.yul\":25482:25491   */\n      dup5\n        /* \"#utility.yul\":25477:25480   */\n      dup10\n        /* \"#utility.yul\":25473:25492   */\n      add\n        /* \"#utility.yul\":25467:25493   */\n      mload\n        /* \"#utility.yul\":25525:25573   */\n      tag_520\n        /* \"#utility.yul\":25567:25571   */\n      0x1f\n        /* \"#utility.yul\":25559:25565   */\n      dup10\n        /* \"#utility.yul\":25555:25572   */\n      and\n        /* \"#utility.yul\":25544:25553   */\n      dup3\n        /* \"#utility.yul\":25525:25573   */\n      tag_267\n      jump\t// in\n    tag_520:\n        /* \"#utility.yul\":25517:25523   */\n      dup4\n        /* \"#utility.yul\":25510:25574   */\n      sstore\n        /* \"#utility.yul\":25432:25588   */\n      pop\n        /* \"#utility.yul\":25409:25588   */\n    tag_519:\n        /* \"#utility.yul\":25634:25635   */\n      0x01\n        /* \"#utility.yul\":25630:25631   */\n      0x02\n        /* \"#utility.yul\":25622:25628   */\n      dup9\n        /* \"#utility.yul\":25618:25632   */\n      mul\n        /* \"#utility.yul\":25614:25636   */\n      add\n        /* \"#utility.yul\":25608:25612   */\n      dup9\n        /* \"#utility.yul\":25601:25637   */\n      sstore\n        /* \"#utility.yul\":25036:25647   */\n      pop\n      pop\n      pop\n        /* \"#utility.yul\":24999:25886   */\n    tag_511:\n      pop\n        /* \"#utility.yul\":24589:25892   */\n      pop\n      pop\n      pop\n        /* \"#utility.yul\":24497:25892   */\n      pop\n      pop\n      jump\t// out\n        /* \"#utility.yul\":25898:26412   */\n    tag_133:\n        /* \"#utility.yul\":26059:26063   */\n      0x00\n        /* \"#utility.yul\":26097:26099   */\n      0x40\n        /* \"#utility.yul\":26086:26095   */\n      dup3\n        /* \"#utility.yul\":26082:26100   */\n      add\n        /* \"#utility.yul\":26074:26100   */\n      swap1\n      pop\n        /* \"#utility.yul\":26146:26155   */\n      dup2\n        /* \"#utility.yul\":26140:26144   */\n      dup2\n        /* \"#utility.yul\":26136:26156   */\n      sub\n        /* \"#utility.yul\":26132:26133   */\n      0x00\n        /* \"#utility.yul\":26121:26130   */\n      dup4\n        /* \"#utility.yul\":26117:26134   */\n      add\n        /* \"#utility.yul\":26110:26157   */\n      mstore\n        /* \"#utility.yul\":26174:26252   */\n      tag_522\n        /* \"#utility.yul\":26247:26251   */\n      dup2\n        /* \"#utility.yul\":26238:26244   */\n      dup6\n        /* \"#utility.yul\":26174:26252   */\n      tag_211\n      jump\t// in\n    tag_522:\n        /* \"#utility.yul\":26166:26252   */\n      swap1\n      pop\n        /* \"#utility.yul\":26299:26308   */\n      dup2\n        /* \"#utility.yul\":26293:26297   */\n      dup2\n        /* \"#utility.yul\":26289:26309   */\n      sub\n        /* \"#utility.yul\":26284:26286   */\n      0x20\n        /* \"#utility.yul\":26273:26282   */\n      dup4\n        /* \"#utility.yul\":26269:26287   */\n      add\n        /* \"#utility.yul\":26262:26310   */\n      mstore\n        /* \"#utility.yul\":26327:26405   */\n      tag_523\n        /* \"#utility.yul\":26400:26404   */\n      dup2\n        /* \"#utility.yul\":26391:26397   */\n      dup5\n        /* \"#utility.yul\":26327:26405   */\n      tag_211\n      jump\t// in\n    tag_523:\n        /* \"#utility.yul\":26319:26405   */\n      swap1\n      pop\n        /* \"#utility.yul\":25898:26412   */\n      swap4\n      swap3\n      pop\n      pop\n      pop\n      jump\t// out\n        /* \"#utility.yul\":26418:26600   */\n    tag_269:\n        /* \"#utility.yul\":26558:26592   */\n      0x50726f6a656374206973206e6f74206f70656e20666f722066756e64696e672e\n        /* \"#utility.yul\":26554:26555   */\n      0x00\n        /* \"#utility.yul\":26546:26552   */\n      dup3\n        /* \"#utility.yul\":26542:26556   */\n      add\n        /* \"#utility.yul\":26535:26593   */\n      mstore\n        /* \"#utility.yul\":26418:26600   */\n      pop\n      jump\t// out\n        /* \"#utility.yul\":26606:26972   */\n    tag_270:\n        /* \"#utility.yul\":26748:26751   */\n      0x00\n        /* \"#utility.yul\":26769:26836   */\n      tag_526\n        /* \"#utility.yul\":26833:26835   */\n      0x20\n        /* \"#utility.yul\":26828:26831   */\n      dup4\n        /* \"#utility.yul\":26769:26836   */\n      tag_208\n      jump\t// in\n    tag_526:\n        /* \"#utility.yul\":26762:26836   */\n      swap2\n      pop\n        /* \"#utility.yul\":26845:26938   */\n      tag_527\n        /* \"#utility.yul\":26934:26937   */\n      dup3\n        /* \"#utility.yul\":26845:26938   */\n      tag_269\n      jump\t// in\n    tag_527:\n        /* \"#utility.yul\":26963:26965   */\n      0x20\n        /* \"#utility.yul\":26958:26961   */\n      dup3\n        /* \"#utility.yul\":26954:26966   */\n      add\n        /* \"#utility.yul\":26947:26966   */\n      swap1\n      pop\n        /* \"#utility.yul\":26606:26972   */\n      swap2\n      swap1\n      pop\n      jump\t// out\n        /* \"#utility.yul\":26978:27397   */\n    tag_141:\n        /* \"#utility.yul\":27144:27148   */\n      0x00\n        /* \"#utility.yul\":27182:27184   */\n      0x20\n        /* \"#utility.yul\":27171:27180   */\n      dup3\n        /* \"#utility.yul\":27167:27185   */\n      add\n        /* \"#utility.yul\":27159:27185   */\n      swap1\n      pop\n        /* \"#utility.yul\":27231:27240   */\n      dup2\n        /* \"#utility.yul\":27225:27229   */\n      dup2\n        /* \"#utility.yul\":27221:27241   */\n      sub\n        /* \"#utility.yul\":27217:27218   */\n      0x00\n        /* \"#utility.yul\":27206:27215   */\n      dup4\n        /* \"#utility.yul\":27202:27219   */\n      add\n        /* \"#utility.yul\":27195:27242   */\n      mstore\n        /* \"#utility.yul\":27259:27390   */\n      tag_529\n        /* \"#utility.yul\":27385:27389   */\n      dup2\n        /* \"#utility.yul\":27259:27390   */\n      tag_270\n      jump\t// in\n    tag_529:\n        /* \"#utility.yul\":27251:27390   */\n      swap1\n      pop\n        /* \"#utility.yul\":26978:27397   */\n      swap2\n      swap1\n      pop\n      jump\t// out\n        /* \"#utility.yul\":27403:27627   */\n    tag_271:\n        /* \"#utility.yul\":27543:27577   */\n      0x496e766573746d656e74206d7573742062652067726561746572207468616e20\n        /* \"#utility.yul\":27539:27540   */\n      0x00\n        /* \"#utility.yul\":27531:27537   */\n      dup3\n        /* \"#utility.yul\":27527:27541   */\n      add\n        /* \"#utility.yul\":27520:27578   */\n      mstore\n        /* \"#utility.yul\":27612:27619   */\n      0x7a65726f2e000000000000000000000000000000000000000000000000000000\n        /* \"#utility.yul\":27607:27609   */\n      0x20\n        /* \"#utility.yul\":27599:27605   */\n      dup3\n        /* \"#utility.yul\":27595:27610   */\n      add\n        /* \"#utility.yul\":27588:27620   */\n      mstore\n        /* \"#utility.yul\":27403:27627   */\n      pop\n      jump\t// out\n        /* \"#utility.yul\":27633:27999   */\n    tag_272:\n        /* \"#utility.yul\":27775:27778   */\n      0x00\n        /* \"#utility.yul\":27796:27863   */\n      tag_532\n        /* \"#utility.yul\":27860:27862   */\n      0x25\n        /* \"#utility.yul\":27855:27858   */\n      dup4\n        /* \"#utility.yul\":27796:27863   */\n      tag_208\n      jump\t// in\n    tag_532:\n        /* \"#utility.yul\":27789:27863   */\n      swap2\n      pop\n        /* \"#utility.yul\":27872:27965   */\n      tag_533\n        /* \"#utility.yul\":27961:27964   */\n      dup3\n        /* \"#utility.yul\":27872:27965   */\n      tag_271\n      jump\t// in\n    tag_533:\n        /* \"#utility.yul\":27990:27992   */\n      0x40\n        /* \"#utility.yul\":27985:27988   */\n      dup3\n        /* \"#utility.yul\":27981:27993   */\n      add\n        /* \"#utility.yul\":27974:27993   */\n      swap1\n      pop\n        /* \"#utility.yul\":27633:27999   */\n      swap2\n      swap1\n      pop\n      jump\t// out\n        /* \"#utility.yul\":28005:28424   */\n    tag_144:\n        /* \"#utility.yul\":28171:28175   */\n      0x00\n        /* \"#utility.yul\":28209:28211   */\n      0x20\n        /* \"#utility.yul\":28198:28207   */\n      dup3\n        /* \"#utility.yul\":28194:28212   */\n      add\n        /* \"#utility.yul\":28186:28212   */\n      swap1\n      pop\n        /* \"#utility.yul\":28258:28267   */\n      dup2\n        /* \"#utility.yul\":28252:28256   */\n      dup2\n        /* \"#utility.yul\":28248:28268   */\n      sub\n        /* \"#utility.yul\":28244:28245   */\n      0x00\n        /* \"#utility.yul\":28233:28242   */\n      dup4\n        /* \"#utility.yul\":28229:28246   */\n      add\n        /* \"#utility.yul\":28222:28269   */\n      mstore\n        /* \"#utility.yul\":28286:28417   */\n      tag_535\n        /* \"#utility.yul\":28412:28416   */\n      dup2\n        /* \"#utility.yul\":28286:28417   */\n      tag_272\n      jump\t// in\n    tag_535:\n        /* \"#utility.yul\":28278:28417   */\n      swap1\n      pop\n        /* \"#utility.yul\":28005:28424   */\n      swap2\n      swap1\n      pop\n      jump\t// out\n        /* \"#utility.yul\":28430:28610   */\n    tag_273:\n        /* \"#utility.yul\":28478:28555   */\n      0x4e487b7100000000000000000000000000000000000000000000000000000000\n        /* \"#utility.yul\":28475:28476   */\n      0x00\n        /* \"#utility.yul\":28468:28556   */\n      mstore\n        /* \"#utility.yul\":28575:28579   */\n      0x11\n        /* \"#utility.yul\":28572:28573   */\n      0x04\n        /* \"#utility.yul\":28565:28580   */\n      mstore\n        /* \"#utility.yul\":28599:28603   */\n      0x24\n        /* \"#utility.yul\":28596:28597   */\n      0x00\n        /* \"#utility.yul\":28589:28604   */\n      revert\n        /* \"#utility.yul\":28616:28807   */\n    tag_146:\n        /* \"#utility.yul\":28656:28659   */\n      0x00\n        /* \"#utility.yul\":28675:28695   */\n      tag_538\n        /* \"#utility.yul\":28693:28694   */\n      dup3\n        /* \"#utility.yul\":28675:28695   */\n      tag_203\n      jump\t// in\n    tag_538:\n        /* \"#utility.yul\":28670:28695   */\n      swap2\n      pop\n        /* \"#utility.yul\":28709:28729   */\n      tag_539\n        /* \"#utility.yul\":28727:28728   */\n      dup4\n        /* \"#utility.yul\":28709:28729   */\n      tag_203\n      jump\t// in\n    tag_539:\n        /* \"#utility.yul\":28704:28729   */\n      swap3\n      pop\n        /* \"#utility.yul\":28752:28753   */\n      dup3\n        /* \"#utility.yul\":28749:28750   */\n      dup3\n        /* \"#utility.yul\":28745:28754   */\n      add\n        /* \"#utility.yul\":28738:28754   */\n      swap1\n      pop\n        /* \"#utility.yul\":28773:28776   */\n      dup1\n        /* \"#utility.yul\":28770:28771   */\n      dup3\n        /* \"#utility.yul\":28767:28777   */\n      gt\n        /* \"#utility.yul\":28764:28800   */\n      iszero\n      tag_540\n      jumpi\n        /* \"#utility.yul\":28780:28798   */\n      tag_541\n      tag_273\n      jump\t// in\n    tag_541:\n        /* \"#utility.yul\":28764:28800   */\n    tag_540:\n        /* \"#utility.yul\":28616:28807   */\n      swap3\n      swap2\n      pop\n      pop\n      jump\t// out\n        /* \"#utility.yul\":28813:29041   */\n    tag_274:\n        /* \"#utility.yul\":28953:28987   */\n      0x46756e64696e67206e6565646564206d75737420626520677265617465722074\n        /* \"#utility.yul\":28949:28950   */\n      0x00\n        /* \"#utility.yul\":28941:28947   */\n      dup3\n        /* \"#utility.yul\":28937:28951   */\n      add\n        /* \"#utility.yul\":28930:28988   */\n      mstore\n        /* \"#utility.yul\":29022:29033   */\n      0x68616e207a65726f2e0000000000000000000000000000000000000000000000\n        /* \"#utility.yul\":29017:29019   */\n      0x20\n        /* \"#utility.yul\":29009:29015   */\n      dup3\n        /* \"#utility.yul\":29005:29020   */\n      add\n        /* \"#utility.yul\":28998:29034   */\n      mstore\n        /* \"#utility.yul\":28813:29041   */\n      pop\n      jump\t// out\n        /* \"#utility.yul\":29047:29413   */\n    tag_275:\n        /* \"#utility.yul\":29189:29192   */\n      0x00\n        /* \"#utility.yul\":29210:29277   */\n      tag_544\n        /* \"#utility.yul\":29274:29276   */\n      0x29\n        /* \"#utility.yul\":29269:29272   */\n      dup4\n        /* \"#utility.yul\":29210:29277   */\n      tag_208\n      jump\t// in\n    tag_544:\n        /* \"#utility.yul\":29203:29277   */\n      swap2\n      pop\n        /* \"#utility.yul\":29286:29379   */\n      tag_545\n        /* \"#utility.yul\":29375:29378   */\n      dup3\n        /* \"#utility.yul\":29286:29379   */\n      tag_274\n      jump\t// in\n    tag_545:\n        /* \"#utility.yul\":29404:29406   */\n      0x40\n        /* \"#utility.yul\":29399:29402   */\n      dup3\n        /* \"#utility.yul\":29395:29407   */\n      add\n        /* \"#utility.yul\":29388:29407   */\n      swap1\n      pop\n        /* \"#utility.yul\":29047:29413   */\n      swap2\n      swap1\n      pop\n      jump\t// out\n        /* \"#utility.yul\":29419:29838   */\n    tag_157:\n        /* \"#utility.yul\":29585:29589   */\n      0x00\n        /* \"#utility.yul\":29623:29625   */\n      0x20\n        /* \"#utility.yul\":29612:29621   */\n      dup3\n        /* \"#utility.yul\":29608:29626   */\n      add\n        /* \"#utility.yul\":29600:29626   */\n      swap1\n      pop\n        /* \"#utility.yul\":29672:29681   */\n      dup2\n        /* \"#utility.yul\":29666:29670   */\n      dup2\n        /* \"#utility.yul\":29662:29682   */\n      sub\n        /* \"#utility.yul\":29658:29659   */\n      0x00\n        /* \"#utility.yul\":29647:29656   */\n      dup4\n        /* \"#utility.yul\":29643:29660   */\n      add\n        /* \"#utility.yul\":29636:29683   */\n      mstore\n        /* \"#utility.yul\":29700:29831   */\n      tag_547\n        /* \"#utility.yul\":29826:29830   */\n      dup2\n        /* \"#utility.yul\":29700:29831   */\n      tag_275\n      jump\t// in\n    tag_547:\n        /* \"#utility.yul\":29692:29831   */\n      swap1\n      pop\n        /* \"#utility.yul\":29419:29838   */\n      swap2\n      swap1\n      pop\n      jump\t// out\n        /* \"#utility.yul\":29844:30077   */\n    tag_159:\n        /* \"#utility.yul\":29883:29886   */\n      0x00\n        /* \"#utility.yul\":29906:29930   */\n      tag_549\n        /* \"#utility.yul\":29924:29929   */\n      dup3\n        /* \"#utility.yul\":29906:29930   */\n      tag_203\n      jump\t// in\n    tag_549:\n        /* \"#utility.yul\":29897:29930   */\n      swap2\n      pop\n        /* \"#utility.yul\":29952:30018   */\n      0xffffffffffffffffffffffffffffffffffffffffffffffffffffffffffffffff\n        /* \"#utility.yul\":29945:29950   */\n      dup3\n        /* \"#utility.yul\":29942:30019   */\n      sub\n        /* \"#utility.yul\":29939:30042   */\n      tag_550\n      jumpi\n        /* \"#utility.yul\":30022:30040   */\n      tag_551\n      tag_273\n      jump\t// in\n    tag_551:\n        /* \"#utility.yul\":29939:30042   */\n    tag_550:\n        /* \"#utility.yul\":30069:30070   */\n      0x01\n        /* \"#utility.yul\":30062:30067   */\n      dup3\n        /* \"#utility.yul\":30058:30071   */\n      add\n        /* \"#utility.yul\":30051:30071   */\n      swap1\n      pop\n        /* \"#utility.yul\":29844:30077   */\n      swap2\n      swap1\n      pop\n      jump\t// out\n        /* \"#utility.yul\":30083:30506   */\n    tag_166:\n        /* \"#utility.yul\":30224:30228   */\n      0x00\n        /* \"#utility.yul\":30262:30264   */\n      0x40\n        /* \"#utility.yul\":30251:30260   */\n      dup3\n        /* \"#utility.yul\":30247:30265   */\n      add\n        /* \"#utility.yul\":30239:30265   */\n      swap1\n      pop\n        /* \"#utility.yul\":30311:30320   */\n      dup2\n        /* \"#utility.yul\":30305:30309   */\n      dup2\n        /* \"#utility.yul\":30301:30321   */\n      sub\n        /* \"#utility.yul\":30297:30298   */\n      0x00\n        /* \"#utility.yul\":30286:30295   */\n      dup4\n        /* \"#utility.yul\":30282:30299   */\n      add\n        /* \"#utility.yul\":30275:30322   */\n      mstore\n        /* \"#utility.yul\":30339:30417   */\n      tag_553\n        /* \"#utility.yul\":30412:30416   */\n      dup2\n        /* \"#utility.yul\":30403:30409   */\n      dup6\n        /* \"#utility.yul\":30339:30417   */\n      tag_211\n      jump\t// in\n    tag_553:\n        /* \"#utility.yul\":30331:30417   */\n      swap1\n      pop\n        /* \"#utility.yul\":30427:30499   */\n      tag_554\n        /* \"#utility.yul\":30495:30497   */\n      0x20\n        /* \"#utility.yul\":30484:30493   */\n      dup4\n        /* \"#utility.yul\":30480:30498   */\n      add\n        /* \"#utility.yul\":30471:30477   */\n      dup5\n        /* \"#utility.yul\":30427:30499   */\n      tag_206\n      jump\t// in\n    tag_554:\n        /* \"#utility.yul\":30083:30506   */\n      swap4\n      swap3\n      pop\n      pop\n      pop\n      jump\t// out\n        /* \"#utility.yul\":30512:30740   */\n    tag_276:\n        /* \"#utility.yul\":30652:30686   */\n      0x4465706f73697420616d6f756e74206d75737420626520677265617465722074\n        /* \"#utility.yul\":30648:30649   */\n      0x00\n        /* \"#utility.yul\":30640:30646   */\n      dup3\n        /* \"#utility.yul\":30636:30650   */\n      add\n        /* \"#utility.yul\":30629:30687   */\n      mstore\n        /* \"#utility.yul\":30721:30732   */\n      0x68616e207a65726f2e0000000000000000000000000000000000000000000000\n        /* \"#utility.yul\":30716:30718   */\n      0x20\n        /* \"#utility.yul\":30708:30714   */\n      dup3\n        /* \"#utility.yul\":30704:30719   */\n      add\n        /* \"#utility.yul\":30697:30733   */\n      mstore\n        /* \"#utility.yul\":30512:30740   */\n      pop\n      jump\t// out\n        /* \"#utility.yul\":30746:31112   */\n    tag_277:\n        /* \"#utility.yul\":30888:30891   */\n      0x00\n        /* \"#utility.yul\":30909:30976   */\n      tag_557\n        /* \"#utility.yul\":30973:30975   */\n      0x29\n        /* \"#utility.yul\":30968:30971   */\n      dup4\n        /* \"#utility.yul\":30909:30976   */\n      tag_208\n      jump\t// in\n    tag_557:\n        /* \"#utility.yul\":30902:30976   */\n      swap2\n      pop\n        /* \"#utility.yul\":30985:31078   */\n      tag_558\n        /* \"#utility.yul\":31074:31077   */\n      dup3\n        /* \"#utility.yul\":30985:31078   */\n      tag_276\n      jump\t// in\n    tag_558:\n        /* \"#utility.yul\":31103:31105   */\n      0x40\n        /* \"#utility.yul\":31098:31101   */\n      dup3\n        /* \"#utility.yul\":31094:31106   */\n      add\n        /* \"#utility.yul\":31087:31106   */\n      swap1\n      pop\n        /* \"#utility.yul\":30746:31112   */\n      swap2\n      swap1\n      pop\n      jump\t// out\n        /* \"#utility.yul\":31118:31537   */\n    tag_183:\n        /* \"#utility.yul\":31284:31288   */\n      0x00\n        /* \"#utility.yul\":31322:31324   */\n      0x20\n        /* \"#utility.yul\":31311:31320   */\n      dup3\n        /* \"#utility.yul\":31307:31325   */\n      add\n        /* \"#utility.yul\":31299:31325   */\n      swap1\n      pop\n        /* \"#utility.yul\":31371:31380   */\n      dup2\n        /* \"#utility.yul\":31365:31369   */\n      dup2\n        /* \"#utility.yul\":31361:31381   */\n      sub\n        /* \"#utility.yul\":31357:31358   */\n      0x00\n        /* \"#utility.yul\":31346:31355   */\n      dup4\n        /* \"#utility.yul\":31342:31359   */\n      add\n        /* \"#utility.yul\":31335:31382   */\n      mstore\n        /* \"#utility.yul\":31399:31530   */\n      tag_560\n        /* \"#utility.yul\":31525:31529   */\n      dup2\n        /* \"#utility.yul\":31399:31530   */\n      tag_277\n      jump\t// in\n    tag_560:\n        /* \"#utility.yul\":31391:31530   */\n      swap1\n      pop\n        /* \"#utility.yul\":31118:31537   */\n      swap2\n      swap1\n      pop\n      jump\t// out\n\n    auxdata: 0xa26469706673582212207a2f6787730646d8089fe0307472cc1cf7a3b7d94ac8a6cdb9bab2f894db417364736f6c634300081a0033\n}\n",
				"bytecode": {
					"linkReferences": {},
					"object": "6080604052348015600e575f80fd5b50335f806101000a81548173ffffffffffffffffffffffffffffffffffffffff021916908373ffffffffffffffffffffffffffffffffffffffff1602179055506122c38061005b5f395ff3fe6080604052600436106100c1575f3560e01c80638b44da951161007e578063946d16c911610058578063946d16c91461026a578063968ed600146102a6578063e2c41dbc146102d0578063f0f3f2c8146102da576100c1565b80638b44da95146101db5780638da5cb5b1461021857806391754a5d14610242576100c1565b8063107046bd146100c557806312572f5a14610106578063155dd5ee1461014557806336fbad261461016d57806359d91e93146101975780635b562fd8146101bf575b5f80fd5b3480156100d0575f80fd5b506100eb60048036038101906100e6919061133b565b610316565b6040516100fd96959493929190611497565b60405180910390f35b348015610111575f80fd5b5061012c60048036038101906101279190611527565b6103ff565b60405161013c949392919061156c565b60405180910390f35b348015610150575f80fd5b5061016b6004803603810190610166919061133b565b610562565b005b348015610178575f80fd5b50610181610769565b60405161018e91906115bd565b60405180910390f35b3480156101a2575f80fd5b506101bd60048036038101906101b89190611702565b61076f565b005b6101d960048036038101906101d4919061133b565b6109e7565b005b3480156101e6575f80fd5b5061020160048036038101906101fc919061178a565b610c3b565b60405161020f9291906117c8565b60405180910390f35b348015610223575f80fd5b5061022c610c94565b60405161023991906117ef565b60405180910390f35b34801561024d575f80fd5b5061026860048036038101906102639190611808565b610cb7565b005b348015610275575f80fd5b50610290600480360381019061028b9190611527565b610e64565b60405161029d919061192f565b60405180910390f35b3480156102b1575f80fd5b506102ba611049565b6040516102c791906115bd565b60405180910390f35b6102d861104f565b005b3480156102e5575f80fd5b5061030060048036038101906102fb919061133b565b6110f9565b60405161030d91906119f3565b60405180910390f35b6003602052805f5260405f205f91509050805f01549080600101805461033b90611a40565b80601f016020809104026020016040519081016040528092919081815260200182805461036790611a40565b80156103b25780601f10610389576101008083540402835291602001916103b2565b820191905f5260205f20905b81548152906001019060200180831161039557829003601f168201915b505050505090806002015f9054906101000a900473ffffffffffffffffffffffffffffffffffffffff1690806003015490806004015490806005015f9054906101000a900460ff16905086565b6002602052805f5260405f205f91509050805f015f9054906101000a900473ffffffffffffffffffffffffffffffffffffffff169080600101805461044390611a40565b80601f016020809104026020016040519081016040528092919081815260200182805461046f90611a40565b80156104ba5780601f10610491576101008083540402835291602001916104ba565b820191905f5260205f20905b81548152906001019060200180831161049d57829003601f168201915b5050505050908060020180546104cf90611a40565b80601f01602080910402602001604051908101604052809291908181526020018280546104fb90611a40565b80156105465780601f1061051d57610100808354040283529160200191610546565b820191905f5260205f20905b81548152906001019060200180831161052957829003601f168201915b505050505090806003015f9054906101000a900460ff16905084565b5f60035f8381526020019081526020015f2090503373ffffffffffffffffffffffffffffffffffffffff16816002015f9054906101000a900473ffffffffffffffffffffffffffffffffffffffff1673ffffffffffffffffffffffffffffffffffffffff1614610607576040517f08c379a00000000000000000000000000000000000000000000000000000000081526004016105fe90611ae0565b60405180910390fd5b6002600381111561061b5761061a611424565b5b816005015f9054906101000a900460ff16600381111561063e5761063d611424565b5b1461067e576040517f08c379a000000000000000000000000000000000000000000000000000000000815260040161067590611b48565b60405180910390fd5b5f816004015490505f82600401819055506003826005015f6101000a81548160ff021916908360038111156106b6576106b5611424565b5b02179055505f3373ffffffffffffffffffffffffffffffffffffffff16826040516106e090611b93565b5f6040518083038185875af1925050503d805f811461071a576040519150601f19603f3d011682016040523d82523d5f602084013e61071f565b606091505b5050905080610763576040517f08c379a000000000000000000000000000000000000000000000000000000000815260040161075a90611bf1565b60405180910390fd5b50505050565b60055481565b5f8054906101000a900473ffffffffffffffffffffffffffffffffffffffff1673ffffffffffffffffffffffffffffffffffffffff163373ffffffffffffffffffffffffffffffffffffffff16146107fc576040517f08c379a00000000000000000000000000000000000000000000000000000000081526004016107f390611c7f565b60405180910390fd5b60025f8473ffffffffffffffffffffffffffffffffffffffff1673ffffffffffffffffffffffffffffffffffffffff1681526020019081526020015f206003015f9054906101000a900460ff1615610889576040517f08c379a000000000000000000000000000000000000000000000000000000000815260040161088090611ce7565b60405180910390fd5b60405180608001604052808473ffffffffffffffffffffffffffffffffffffffff1681526020018381526020018281526020016001151581525060025f8573ffffffffffffffffffffffffffffffffffffffff1673ffffffffffffffffffffffffffffffffffffffff1681526020019081526020015f205f820151815f015f6101000a81548173ffffffffffffffffffffffffffffffffffffffff021916908373ffffffffffffffffffffffffffffffffffffffff16021790555060208201518160010190816109599190611ea2565b50604082015181600201908161096f9190611ea2565b506060820151816003015f6101000a81548160ff0219169083151502179055509050508273ffffffffffffffffffffffffffffffffffffffff167fd7df24ac28890c20efa8f52aaba3b31a824ec2b3bf477d72110c5e026a1e3bef83836040516109da929190611f71565b60405180910390a2505050565b5f60035f8381526020019081526020015f2090505f6003811115610a0e57610a0d611424565b5b816005015f9054906101000a900460ff166003811115610a3157610a30611424565b5b14610a71576040517f08c379a0000000000000000000000000000000000000000000000000000000008152600401610a6890611ff0565b60405180910390fd5b5f3411610ab3576040517f08c379a0000000000000000000000000000000000000000000000000000000008152600401610aaa9061207e565b60405180910390fd5b34816004015f828254610ac691906120c9565b9250508190555060045f8381526020019081526020015f2060405180604001604052803373ffffffffffffffffffffffffffffffffffffffff16815260200134815250908060018154018082558091505060019003905f5260205f2090600202015f909190919091505f820151815f015f6101000a81548173ffffffffffffffffffffffffffffffffffffffff021916908373ffffffffffffffffffffffffffffffffffffffff1602179055506020820151816001015550503373ffffffffffffffffffffffffffffffffffffffff16827ffb932f39cc5ea177af75a4f1502d59d13404be49a2edb139943b43e4fb3fe45b34604051610bc691906115bd565b60405180910390a38060030154816004015410610c37576002816005015f6101000a81548160ff02191690836003811115610c0457610c03611424565b5b0217905550817f2301e0a2ad8f6e28a7fbb09e96f5c14e588fac346ed5ce607e1a018bc768864660405160405180910390a25b5050565b6004602052815f5260405f208181548110610c54575f80fd5b905f5260205f2090600202015f9150915050805f015f9054906101000a900473ffffffffffffffffffffffffffffffffffffffff16908060010154905082565b5f8054906101000a900473ffffffffffffffffffffffffffffffffffffffff1681565b5f8111610cf9576040517f08c379a0000000000000000000000000000000000000000000000000000000008152600401610cf09061216c565b60405180910390fd5b60055f815480929190610d0b9061218a565b91905055506040518060c0016040528060055481526020018381526020013373ffffffffffffffffffffffffffffffffffffffff1681526020018281526020015f81526020015f6003811115610d6457610d63611424565b5b81525060035f60055481526020019081526020015f205f820151815f01556020820151816001019081610d979190611ea2565b506040820151816002015f6101000a81548173ffffffffffffffffffffffffffffffffffffffff021916908373ffffffffffffffffffffffffffffffffffffffff160217905550606082015181600301556080820151816004015560a0820151816005015f6101000a81548160ff02191690836003811115610e1c57610e1b611424565b5b02179055509050506005547f6245d01eb0db8df9242165c3ee1e2324367f93303d7b8f6a86e38a8767e643ae8383604051610e589291906121d1565b60405180910390a25050565b610e6c611260565b60025f8373ffffffffffffffffffffffffffffffffffffffff1673ffffffffffffffffffffffffffffffffffffffff1681526020019081526020015f206040518060800160405290815f82015f9054906101000a900473ffffffffffffffffffffffffffffffffffffffff1673ffffffffffffffffffffffffffffffffffffffff1673ffffffffffffffffffffffffffffffffffffffff168152602001600182018054610f1890611a40565b80601f0160208091040260200160405190810160405280929190818152602001828054610f4490611a40565b8015610f8f5780601f10610f6657610100808354040283529160200191610f8f565b820191905f5260205f20905b815481529060010190602001808311610f7257829003601f168201915b50505050508152602001600282018054610fa890611a40565b80601f0160208091040260200160405190810160405280929190818152602001828054610fd490611a40565b801561101f5780601f10610ff65761010080835404028352916020019161101f565b820191905f5260205f20905b81548152906001019060200180831161100257829003601f168201915b50505050508152602001600382015f9054906101000a900460ff1615151515815250509050919050565b60015481565b5f3411611091576040517f08c379a00000000000000000000000000000000000000000000000000000000081526004016110889061226f565b60405180910390fd5b3460015f8282546110a291906120c9565b925050819055503373ffffffffffffffffffffffffffffffffffffffff167f543ba50a5eec5e6178218e364b1d0f396157b3c8fa278522c2cb7fd99407d474346040516110ef91906115bd565b60405180910390a2565b61110161129e565b60035f8381526020019081526020015f206040518060c00160405290815f820154815260200160018201805461113690611a40565b80601f016020809104026020016040519081016040528092919081815260200182805461116290611a40565b80156111ad5780601f10611184576101008083540402835291602001916111ad565b820191905f5260205f20905b81548152906001019060200180831161119057829003601f168201915b50505050508152602001600282015f9054906101000a900473ffffffffffffffffffffffffffffffffffffffff1673ffffffffffffffffffffffffffffffffffffffff1673ffffffffffffffffffffffffffffffffffffffff1681526020016003820154815260200160048201548152602001600582015f9054906101000a900460ff16600381111561124357611242611424565b5b600381111561125557611254611424565b5b815250509050919050565b60405180608001604052805f73ffffffffffffffffffffffffffffffffffffffff16815260200160608152602001606081526020015f151581525090565b6040518060c001604052805f8152602001606081526020015f73ffffffffffffffffffffffffffffffffffffffff1681526020015f81526020015f81526020015f60038111156112f1576112f0611424565b5b81525090565b5f604051905090565b5f80fd5b5f80fd5b5f819050919050565b61131a81611308565b8114611324575f80fd5b50565b5f8135905061133581611311565b92915050565b5f602082840312156113505761134f611300565b5b5f61135d84828501611327565b91505092915050565b61136f81611308565b82525050565b5f81519050919050565b5f82825260208201905092915050565b8281835e5f83830152505050565b5f601f19601f8301169050919050565b5f6113b782611375565b6113c1818561137f565b93506113d181856020860161138f565b6113da8161139d565b840191505092915050565b5f73ffffffffffffffffffffffffffffffffffffffff82169050919050565b5f61140e826113e5565b9050919050565b61141e81611404565b82525050565b7f4e487b71000000000000000000000000000000000000000000000000000000005f52602160045260245ffd5b6004811061146257611461611424565b5b50565b5f81905061147282611451565b919050565b5f61148182611465565b9050919050565b61149181611477565b82525050565b5f60c0820190506114aa5f830189611366565b81810360208301526114bc81886113ad565b90506114cb6040830187611415565b6114d86060830186611366565b6114e56080830185611366565b6114f260a0830184611488565b979650505050505050565b61150681611404565b8114611510575f80fd5b50565b5f81359050611521816114fd565b92915050565b5f6020828403121561153c5761153b611300565b5b5f61154984828501611513565b91505092915050565b5f8115159050919050565b61156681611552565b82525050565b5f60808201905061157f5f830187611415565b818103602083015261159181866113ad565b905081810360408301526115a581856113ad565b90506115b4606083018461155d565b95945050505050565b5f6020820190506115d05f830184611366565b92915050565b5f80fd5b5f80fd5b7f4e487b71000000000000000000000000000000000000000000000000000000005f52604160045260245ffd5b6116148261139d565b810181811067ffffffffffffffff82111715611633576116326115de565b5b80604052505050565b5f6116456112f7565b9050611651828261160b565b919050565b5f67ffffffffffffffff8211156116705761166f6115de565b5b6116798261139d565b9050602081019050919050565b828183375f83830152505050565b5f6116a66116a184611656565b61163c565b9050828152602081018484840111156116c2576116c16115da565b5b6116cd848285611686565b509392505050565b5f82601f8301126116e9576116e86115d6565b5b81356116f9848260208601611694565b91505092915050565b5f805f6060848603121561171957611718611300565b5b5f61172686828701611513565b935050602084013567ffffffffffffffff81111561174757611746611304565b5b611753868287016116d5565b925050604084013567ffffffffffffffff81111561177457611773611304565b5b611780868287016116d5565b9150509250925092565b5f80604083850312156117a05761179f611300565b5b5f6117ad85828601611327565b92505060206117be85828601611327565b9150509250929050565b5f6040820190506117db5f830185611415565b6117e86020830184611366565b9392505050565b5f6020820190506118025f830184611415565b92915050565b5f806040838503121561181e5761181d611300565b5b5f83013567ffffffffffffffff81111561183b5761183a611304565b5b611847858286016116d5565b925050602061185885828601611327565b9150509250929050565b61186b81611404565b82525050565b5f82825260208201905092915050565b5f61188b82611375565b6118958185611871565b93506118a581856020860161138f565b6118ae8161139d565b840191505092915050565b6118c281611552565b82525050565b5f608083015f8301516118dd5f860182611862565b50602083015184820360208601526118f58282611881565b9150506040830151848203604086015261190f8282611881565b915050606083015161192460608601826118b9565b508091505092915050565b5f6020820190508181035f83015261194781846118c8565b905092915050565b61195881611308565b82525050565b61196781611477565b82525050565b5f60c083015f8301516119825f86018261194f565b506020830151848203602086015261199a8282611881565b91505060408301516119af6040860182611862565b5060608301516119c2606086018261194f565b5060808301516119d5608086018261194f565b5060a08301516119e860a086018261195e565b508091505092915050565b5f6020820190508181035f830152611a0b818461196d565b905092915050565b7f4e487b71000000000000000000000000000000000000000000000000000000005f52602260045260245ffd5b5f6002820490506001821680611a5757607f821691505b602082108103611a6a57611a69611a13565b5b50919050565b7f4f6e6c79207468652070726f6a6563742063726561746f722063616e207769745f8201527f68647261772066756e64732e0000000000000000000000000000000000000000602082015250565b5f611aca602c8361137f565b9150611ad582611a70565b604082019050919050565b5f6020820190508181035f830152611af781611abe565b9050919050565b7f50726f6a656374206973206e6f742066756c6c792066756e6465642e000000005f82015250565b5f611b32601c8361137f565b9150611b3d82611afe565b602082019050919050565b5f6020820190508181035f830152611b5f81611b26565b9050919050565b5f81905092915050565b50565b5f611b7e5f83611b66565b9150611b8982611b70565b5f82019050919050565b5f611b9d82611b73565b9150819050919050565b7f5472616e73666572206661696c65642e000000000000000000000000000000005f82015250565b5f611bdb60108361137f565b9150611be682611ba7565b602082019050919050565b5f6020820190508181035f830152611c0881611bcf565b9050919050565b7f4f6e6c7920746865206f776e65722063616e2063616c6c20746869732066756e5f8201527f6374696f6e2e0000000000000000000000000000000000000000000000000000602082015250565b5f611c6960268361137f565b9150611c7482611c0f565b604082019050919050565b5f6020820190508181035f830152611c9681611c5d565b9050919050565b7f45787065727420616c72656164792076657269666965642e00000000000000005f82015250565b5f611cd160188361137f565b9150611cdc82611c9d565b602082019050919050565b5f6020820190508181035f830152611cfe81611cc5565b9050919050565b5f819050815f5260205f209050919050565b5f6020601f8301049050919050565b5f82821b905092915050565b5f60088302611d617fffffffffffffffffffffffffffffffffffffffffffffffffffffffffffffffff82611d26565b611d6b8683611d26565b95508019841693508086168417925050509392505050565b5f819050919050565b5f611da6611da1611d9c84611308565b611d83565b611308565b9050919050565b5f819050919050565b611dbf83611d8c565b611dd3611dcb82611dad565b848454611d32565b825550505050565b5f90565b611de7611ddb565b611df2818484611db6565b505050565b5b81811015611e1557611e0a5f82611ddf565b600181019050611df8565b5050565b601f821115611e5a57611e2b81611d05565b611e3484611d17565b81016020851015611e43578190505b611e57611e4f85611d17565b830182611df7565b50505b505050565b5f82821c905092915050565b5f611e7a5f1984600802611e5f565b1980831691505092915050565b5f611e928383611e6b565b9150826002028217905092915050565b611eab82611375565b67ffffffffffffffff811115611ec457611ec36115de565b5b611ece8254611a40565b611ed9828285611e19565b5f60209050601f831160018114611f0a575f8415611ef8578287015190505b611f028582611e87565b865550611f69565b601f198416611f1886611d05565b5f5b82811015611f3f57848901518255600182019150602085019450602081019050611f1a565b86831015611f5c5784890151611f58601f891682611e6b565b8355505b6001600288020188555050505b505050505050565b5f6040820190508181035f830152611f8981856113ad565b90508181036020830152611f9d81846113ad565b90509392505050565b7f50726f6a656374206973206e6f74206f70656e20666f722066756e64696e672e5f82015250565b5f611fda60208361137f565b9150611fe582611fa6565b602082019050919050565b5f6020820190508181035f83015261200781611fce565b9050919050565b7f496e766573746d656e74206d7573742062652067726561746572207468616e205f8201527f7a65726f2e000000000000000000000000000000000000000000000000000000602082015250565b5f61206860258361137f565b91506120738261200e565b604082019050919050565b5f6020820190508181035f8301526120958161205c565b9050919050565b7f4e487b71000000000000000000000000000000000000000000000000000000005f52601160045260245ffd5b5f6120d382611308565b91506120de83611308565b92508282019050808211156120f6576120f561209c565b5b92915050565b7f46756e64696e67206e6565646564206d757374206265206772656174657220745f8201527f68616e207a65726f2e0000000000000000000000000000000000000000000000602082015250565b5f61215660298361137f565b9150612161826120fc565b604082019050919050565b5f6020820190508181035f8301526121838161214a565b9050919050565b5f61219482611308565b91507fffffffffffffffffffffffffffffffffffffffffffffffffffffffffffffffff82036121c6576121c561209c565b5b600182019050919050565b5f6040820190508181035f8301526121e981856113ad565b90506121f86020830184611366565b9392505050565b7f4465706f73697420616d6f756e74206d757374206265206772656174657220745f8201527f68616e207a65726f2e0000000000000000000000000000000000000000000000602082015250565b5f61225960298361137f565b9150612264826121ff565b604082019050919050565b5f6020820190508181035f8301526122868161224d565b905091905056fea26469706673582212207a2f6787730646d8089fe0307472cc1cf7a3b7d94ac8a6cdb9bab2f894db417364736f6c634300081a0033",
					"opcodes": "PUSH1 0x80 PUSH1 0x40 MSTORE CALLVALUE DUP1 ISZERO PUSH1 0xE JUMPI PUSH0 DUP1 REVERT JUMPDEST POP CALLER PUSH0 DUP1 PUSH2 0x100 EXP DUP2 SLOAD DUP2 PUSH20 0xFFFFFFFFFFFFFFFFFFFFFFFFFFFFFFFFFFFFFFFF MUL NOT AND SWAP1 DUP4 PUSH20 0xFFFFFFFFFFFFFFFFFFFFFFFFFFFFFFFFFFFFFFFF AND MUL OR SWAP1 SSTORE POP PUSH2 0x22C3 DUP1 PUSH2 0x5B PUSH0 CODECOPY PUSH0 RETURN INVALID PUSH1 0x80 PUSH1 0x40 MSTORE PUSH1 0x4 CALLDATASIZE LT PUSH2 0xC1 JUMPI PUSH0 CALLDATALOAD PUSH1 0xE0 SHR DUP1 PUSH4 0x8B44DA95 GT PUSH2 0x7E JUMPI DUP1 PUSH4 0x946D16C9 GT PUSH2 0x58 JUMPI DUP1 PUSH4 0x946D16C9 EQ PUSH2 0x26A JUMPI DUP1 PUSH4 0x968ED600 EQ PUSH2 0x2A6 JUMPI DUP1 PUSH4 0xE2C41DBC EQ PUSH2 0x2D0 JUMPI DUP1 PUSH4 0xF0F3F2C8 EQ PUSH2 0x2DA JUMPI PUSH2 0xC1 JUMP JUMPDEST DUP1 PUSH4 0x8B44DA95 EQ PUSH2 0x1DB JUMPI DUP1 PUSH4 0x8DA5CB5B EQ PUSH2 0x218 JUMPI DUP1 PUSH4 0x91754A5D EQ PUSH2 0x242 JUMPI PUSH2 0xC1 JUMP JUMPDEST DUP1 PUSH4 0x107046BD EQ PUSH2 0xC5 JUMPI DUP1 PUSH4 0x12572F5A EQ PUSH2 0x106 JUMPI DUP1 PUSH4 0x155DD5EE EQ PUSH2 0x145 JUMPI DUP1 PUSH4 0x36FBAD26 EQ PUSH2 0x16D JUMPI DUP1 PUSH4 0x59D91E93 EQ PUSH2 0x197 JUMPI DUP1 PUSH4 0x5B562FD8 EQ PUSH2 0x1BF JUMPI JUMPDEST PUSH0 DUP1 REVERT JUMPDEST CALLVALUE DUP1 ISZERO PUSH2 0xD0 JUMPI PUSH0 DUP1 REVERT JUMPDEST POP PUSH2 0xEB PUSH1 0x4 DUP1 CALLDATASIZE SUB DUP2 ADD SWAP1 PUSH2 0xE6 SWAP2 SWAP1 PUSH2 0x133B JUMP JUMPDEST PUSH2 0x316 JUMP JUMPDEST PUSH1 0x40 MLOAD PUSH2 0xFD SWAP7 SWAP6 SWAP5 SWAP4 SWAP3 SWAP2 SWAP1 PUSH2 0x1497 JUMP JUMPDEST PUSH1 0x40 MLOAD DUP1 SWAP2 SUB SWAP1 RETURN JUMPDEST CALLVALUE DUP1 ISZERO PUSH2 0x111 JUMPI PUSH0 DUP1 REVERT JUMPDEST POP PUSH2 0x12C PUSH1 0x4 DUP1 CALLDATASIZE SUB DUP2 ADD SWAP1 PUSH2 0x127 SWAP2 SWAP1 PUSH2 0x1527 JUMP JUMPDEST PUSH2 0x3FF JUMP JUMPDEST PUSH1 0x40 MLOAD PUSH2 0x13C SWAP5 SWAP4 SWAP3 SWAP2 SWAP1 PUSH2 0x156C JUMP JUMPDEST PUSH1 0x40 MLOAD DUP1 SWAP2 SUB SWAP1 RETURN JUMPDEST CALLVALUE DUP1 ISZERO PUSH2 0x150 JUMPI PUSH0 DUP1 REVERT JUMPDEST POP PUSH2 0x16B PUSH1 0x4 DUP1 CALLDATASIZE SUB DUP2 ADD SWAP1 PUSH2 0x166 SWAP2 SWAP1 PUSH2 0x133B JUMP JUMPDEST PUSH2 0x562 JUMP JUMPDEST STOP JUMPDEST CALLVALUE DUP1 ISZERO PUSH2 0x178 JUMPI PUSH0 DUP1 REVERT JUMPDEST POP PUSH2 0x181 PUSH2 0x769 JUMP JUMPDEST PUSH1 0x40 MLOAD PUSH2 0x18E SWAP2 SWAP1 PUSH2 0x15BD JUMP JUMPDEST PUSH1 0x40 MLOAD DUP1 SWAP2 SUB SWAP1 RETURN JUMPDEST CALLVALUE DUP1 ISZERO PUSH2 0x1A2 JUMPI PUSH0 DUP1 REVERT JUMPDEST POP PUSH2 0x1BD PUSH1 0x4 DUP1 CALLDATASIZE SUB DUP2 ADD SWAP1 PUSH2 0x1B8 SWAP2 SWAP1 PUSH2 0x1702 JUMP JUMPDEST PUSH2 0x76F JUMP JUMPDEST STOP JUMPDEST PUSH2 0x1D9 PUSH1 0x4 DUP1 CALLDATASIZE SUB DUP2 ADD SWAP1 PUSH2 0x1D4 SWAP2 SWAP1 PUSH2 0x133B JUMP JUMPDEST PUSH2 0x9E7 JUMP JUMPDEST STOP JUMPDEST CALLVALUE DUP1 ISZERO PUSH2 0x1E6 JUMPI PUSH0 DUP1 REVERT JUMPDEST POP PUSH2 0x201 PUSH1 0x4 DUP1 CALLDATASIZE SUB DUP2 ADD SWAP1 PUSH2 0x1FC SWAP2 SWAP1 PUSH2 0x178A JUMP JUMPDEST PUSH2 0xC3B JUMP JUMPDEST PUSH1 0x40 MLOAD PUSH2 0x20F SWAP3 SWAP2 SWAP1 PUSH2 0x17C8 JUMP JUMPDEST PUSH1 0x40 MLOAD DUP1 SWAP2 SUB SWAP1 RETURN JUMPDEST CALLVALUE DUP1 ISZERO PUSH2 0x223 JUMPI PUSH0 DUP1 REVERT JUMPDEST POP PUSH2 0x22C PUSH2 0xC94 JUMP JUMPDEST PUSH1 0x40 MLOAD PUSH2 0x239 SWAP2 SWAP1 PUSH2 0x17EF JUMP JUMPDEST PUSH1 0x40 MLOAD DUP1 SWAP2 SUB SWAP1 RETURN JUMPDEST CALLVALUE DUP1 ISZERO PUSH2 0x24D JUMPI PUSH0 DUP1 REVERT JUMPDEST POP PUSH2 0x268 PUSH1 0x4 DUP1 CALLDATASIZE SUB DUP2 ADD SWAP1 PUSH2 0x263 SWAP2 SWAP1 PUSH2 0x1808 JUMP JUMPDEST PUSH2 0xCB7 JUMP JUMPDEST STOP JUMPDEST CALLVALUE DUP1 ISZERO PUSH2 0x275 JUMPI PUSH0 DUP1 REVERT JUMPDEST POP PUSH2 0x290 PUSH1 0x4 DUP1 CALLDATASIZE SUB DUP2 ADD SWAP1 PUSH2 0x28B SWAP2 SWAP1 PUSH2 0x1527 JUMP JUMPDEST PUSH2 0xE64 JUMP JUMPDEST PUSH1 0x40 MLOAD PUSH2 0x29D SWAP2 SWAP1 PUSH2 0x192F JUMP JUMPDEST PUSH1 0x40 MLOAD DUP1 SWAP2 SUB SWAP1 RETURN JUMPDEST CALLVALUE DUP1 ISZERO PUSH2 0x2B1 JUMPI PUSH0 DUP1 REVERT JUMPDEST POP PUSH2 0x2BA PUSH2 0x1049 JUMP JUMPDEST PUSH1 0x40 MLOAD PUSH2 0x2C7 SWAP2 SWAP1 PUSH2 0x15BD JUMP JUMPDEST PUSH1 0x40 MLOAD DUP1 SWAP2 SUB SWAP1 RETURN JUMPDEST PUSH2 0x2D8 PUSH2 0x104F JUMP JUMPDEST STOP JUMPDEST CALLVALUE DUP1 ISZERO PUSH2 0x2E5 JUMPI PUSH0 DUP1 REVERT JUMPDEST POP PUSH2 0x300 PUSH1 0x4 DUP1 CALLDATASIZE SUB DUP2 ADD SWAP1 PUSH2 0x2FB SWAP2 SWAP1 PUSH2 0x133B JUMP JUMPDEST PUSH2 0x10F9 JUMP JUMPDEST PUSH1 0x40 MLOAD PUSH2 0x30D SWAP2 SWAP1 PUSH2 0x19F3 JUMP JUMPDEST PUSH1 0x40 MLOAD DUP1 SWAP2 SUB SWAP1 RETURN JUMPDEST PUSH1 0x3 PUSH1 0x20 MSTORE DUP1 PUSH0 MSTORE PUSH1 0x40 PUSH0 KECCAK256 PUSH0 SWAP2 POP SWAP1 POP DUP1 PUSH0 ADD SLOAD SWAP1 DUP1 PUSH1 0x1 ADD DUP1 SLOAD PUSH2 0x33B SWAP1 PUSH2 0x1A40 JUMP JUMPDEST DUP1 PUSH1 0x1F ADD PUSH1 0x20 DUP1 SWAP2 DIV MUL PUSH1 0x20 ADD PUSH1 0x40 MLOAD SWAP1 DUP2 ADD PUSH1 0x40 MSTORE DUP1 SWAP3 SWAP2 SWAP1 DUP2 DUP2 MSTORE PUSH1 0x20 ADD DUP3 DUP1 SLOAD PUSH2 0x367 SWAP1 PUSH2 0x1A40 JUMP JUMPDEST DUP1 ISZERO PUSH2 0x3B2 JUMPI DUP1 PUSH1 0x1F LT PUSH2 0x389 JUMPI PUSH2 0x100 DUP1 DUP4 SLOAD DIV MUL DUP4 MSTORE SWAP2 PUSH1 0x20 ADD SWAP2 PUSH2 0x3B2 JUMP JUMPDEST DUP3 ADD SWAP2 SWAP1 PUSH0 MSTORE PUSH1 0x20 PUSH0 KECCAK256 SWAP1 JUMPDEST DUP2 SLOAD DUP2 MSTORE SWAP1 PUSH1 0x1 ADD SWAP1 PUSH1 0x20 ADD DUP1 DUP4 GT PUSH2 0x395 JUMPI DUP3 SWAP1 SUB PUSH1 0x1F AND DUP3 ADD SWAP2 JUMPDEST POP POP POP POP POP SWAP1 DUP1 PUSH1 0x2 ADD PUSH0 SWAP1 SLOAD SWAP1 PUSH2 0x100 EXP SWAP1 DIV PUSH20 0xFFFFFFFFFFFFFFFFFFFFFFFFFFFFFFFFFFFFFFFF AND SWAP1 DUP1 PUSH1 0x3 ADD SLOAD SWAP1 DUP1 PUSH1 0x4 ADD SLOAD SWAP1 DUP1 PUSH1 0x5 ADD PUSH0 SWAP1 SLOAD SWAP1 PUSH2 0x100 EXP SWAP1 DIV PUSH1 0xFF AND SWAP1 POP DUP7 JUMP JUMPDEST PUSH1 0x2 PUSH1 0x20 MSTORE DUP1 PUSH0 MSTORE PUSH1 0x40 PUSH0 KECCAK256 PUSH0 SWAP2 POP SWAP1 POP DUP1 PUSH0 ADD PUSH0 SWAP1 SLOAD SWAP1 PUSH2 0x100 EXP SWAP1 DIV PUSH20 0xFFFFFFFFFFFFFFFFFFFFFFFFFFFFFFFFFFFFFFFF AND SWAP1 DUP1 PUSH1 0x1 ADD DUP1 SLOAD PUSH2 0x443 SWAP1 PUSH2 0x1A40 JUMP JUMPDEST DUP1 PUSH1 0x1F ADD PUSH1 0x20 DUP1 SWAP2 DIV MUL PUSH1 0x20 ADD PUSH1 0x40 MLOAD SWAP1 DUP2 ADD PUSH1 0x40 MSTORE DUP1 SWAP3 SWAP2 SWAP1 DUP2 DUP2 MSTORE PUSH1 0x20 ADD DUP3 DUP1 SLOAD PUSH2 0x46F SWAP1 PUSH2 0x1A40 JUMP JUMPDEST DUP1 ISZERO PUSH2 0x4BA JUMPI DUP1 PUSH1 0x1F LT PUSH2 0x491 JUMPI PUSH2 0x100 DUP1 DUP4 SLOAD DIV MUL DUP4 MSTORE SWAP2 PUSH1 0x20 ADD SWAP2 PUSH2 0x4BA JUMP JUMPDEST DUP3 ADD SWAP2 SWAP1 PUSH0 MSTORE PUSH1 0x20 PUSH0 KECCAK256 SWAP1 JUMPDEST DUP2 SLOAD DUP2 MSTORE SWAP1 PUSH1 0x1 ADD SWAP1 PUSH1 0x20 ADD DUP1 DUP4 GT PUSH2 0x49D JUMPI DUP3 SWAP1 SUB PUSH1 0x1F AND DUP3 ADD SWAP2 JUMPDEST POP POP POP POP POP SWAP1 DUP1 PUSH1 0x2 ADD DUP1 SLOAD PUSH2 0x4CF SWAP1 PUSH2 0x1A40 JUMP JUMPDEST DUP1 PUSH1 0x1F ADD PUSH1 0x20 DUP1 SWAP2 DIV MUL PUSH1 0x20 ADD PUSH1 0x40 MLOAD SWAP1 DUP2 ADD PUSH1 0x40 MSTORE DUP1 SWAP3 SWAP2 SWAP1 DUP2 DUP2 MSTORE PUSH1 0x20 ADD DUP3 DUP1 SLOAD PUSH2 0x4FB SWAP1 PUSH2 0x1A40 JUMP JUMPDEST DUP1 ISZERO PUSH2 0x546 JUMPI DUP1 PUSH1 0x1F LT PUSH2 0x51D JUMPI PUSH2 0x100 DUP1 DUP4 SLOAD DIV MUL DUP4 MSTORE SWAP2 PUSH1 0x20 ADD SWAP2 PUSH2 0x546 JUMP JUMPDEST DUP3 ADD SWAP2 SWAP1 PUSH0 MSTORE PUSH1 0x20 PUSH0 KECCAK256 SWAP1 JUMPDEST DUP2 SLOAD DUP2 MSTORE SWAP1 PUSH1 0x1 ADD SWAP1 PUSH1 0x20 ADD DUP1 DUP4 GT PUSH2 0x529 JUMPI DUP3 SWAP1 SUB PUSH1 0x1F AND DUP3 ADD SWAP2 JUMPDEST POP POP POP POP POP SWAP1 DUP1 PUSH1 0x3 ADD PUSH0 SWAP1 SLOAD SWAP1 PUSH2 0x100 EXP SWAP1 DIV PUSH1 0xFF AND SWAP1 POP DUP5 JUMP JUMPDEST PUSH0 PUSH1 0x3 PUSH0 DUP4 DUP2 MSTORE PUSH1 0x20 ADD SWAP1 DUP2 MSTORE PUSH1 0x20 ADD PUSH0 KECCAK256 SWAP1 POP CALLER PUSH20 0xFFFFFFFFFFFFFFFFFFFFFFFFFFFFFFFFFFFFFFFF AND DUP2 PUSH1 0x2 ADD PUSH0 SWAP1 SLOAD SWAP1 PUSH2 0x100 EXP SWAP1 DIV PUSH20 0xFFFFFFFFFFFFFFFFFFFFFFFFFFFFFFFFFFFFFFFF AND PUSH20 0xFFFFFFFFFFFFFFFFFFFFFFFFFFFFFFFFFFFFFFFF AND EQ PUSH2 0x607 JUMPI PUSH1 0x40 MLOAD PUSH32 0x8C379A000000000000000000000000000000000000000000000000000000000 DUP2 MSTORE PUSH1 0x4 ADD PUSH2 0x5FE SWAP1 PUSH2 0x1AE0 JUMP JUMPDEST PUSH1 0x40 MLOAD DUP1 SWAP2 SUB SWAP1 REVERT JUMPDEST PUSH1 0x2 PUSH1 0x3 DUP2 GT ISZERO PUSH2 0x61B JUMPI PUSH2 0x61A PUSH2 0x1424 JUMP JUMPDEST JUMPDEST DUP2 PUSH1 0x5 ADD PUSH0 SWAP1 SLOAD SWAP1 PUSH2 0x100 EXP SWAP1 DIV PUSH1 0xFF AND PUSH1 0x3 DUP2 GT ISZERO PUSH2 0x63E JUMPI PUSH2 0x63D PUSH2 0x1424 JUMP JUMPDEST JUMPDEST EQ PUSH2 0x67E JUMPI PUSH1 0x40 MLOAD PUSH32 0x8C379A000000000000000000000000000000000000000000000000000000000 DUP2 MSTORE PUSH1 0x4 ADD PUSH2 0x675 SWAP1 PUSH2 0x1B48 JUMP JUMPDEST PUSH1 0x40 MLOAD DUP1 SWAP2 SUB SWAP1 REVERT JUMPDEST PUSH0 DUP2 PUSH1 0x4 ADD SLOAD SWAP1 POP PUSH0 DUP3 PUSH1 0x4 ADD DUP2 SWAP1 SSTORE POP PUSH1 0x3 DUP3 PUSH1 0x5 ADD PUSH0 PUSH2 0x100 EXP DUP2 SLOAD DUP2 PUSH1 0xFF MUL NOT AND SWAP1 DUP4 PUSH1 0x3 DUP2 GT ISZERO PUSH2 0x6B6 JUMPI PUSH2 0x6B5 PUSH2 0x1424 JUMP JUMPDEST JUMPDEST MUL OR SWAP1 SSTORE POP PUSH0 CALLER PUSH20 0xFFFFFFFFFFFFFFFFFFFFFFFFFFFFFFFFFFFFFFFF AND DUP3 PUSH1 0x40 MLOAD PUSH2 0x6E0 SWAP1 PUSH2 0x1B93 JUMP JUMPDEST PUSH0 PUSH1 0x40 MLOAD DUP1 DUP4 SUB DUP2 DUP6 DUP8 GAS CALL SWAP3 POP POP POP RETURNDATASIZE DUP1 PUSH0 DUP2 EQ PUSH2 0x71A JUMPI PUSH1 0x40 MLOAD SWAP2 POP PUSH1 0x1F NOT PUSH1 0x3F RETURNDATASIZE ADD AND DUP3 ADD PUSH1 0x40 MSTORE RETURNDATASIZE DUP3 MSTORE RETURNDATASIZE PUSH0 PUSH1 0x20 DUP5 ADD RETURNDATACOPY PUSH2 0x71F JUMP JUMPDEST PUSH1 0x60 SWAP2 POP JUMPDEST POP POP SWAP1 POP DUP1 PUSH2 0x763 JUMPI PUSH1 0x40 MLOAD PUSH32 0x8C379A000000000000000000000000000000000000000000000000000000000 DUP2 MSTORE PUSH1 0x4 ADD PUSH2 0x75A SWAP1 PUSH2 0x1BF1 JUMP JUMPDEST PUSH1 0x40 MLOAD DUP1 SWAP2 SUB SWAP1 REVERT JUMPDEST POP POP POP POP JUMP JUMPDEST PUSH1 0x5 SLOAD DUP2 JUMP JUMPDEST PUSH0 DUP1 SLOAD SWAP1 PUSH2 0x100 EXP SWAP1 DIV PUSH20 0xFFFFFFFFFFFFFFFFFFFFFFFFFFFFFFFFFFFFFFFF AND PUSH20 0xFFFFFFFFFFFFFFFFFFFFFFFFFFFFFFFFFFFFFFFF AND CALLER PUSH20 0xFFFFFFFFFFFFFFFFFFFFFFFFFFFFFFFFFFFFFFFF AND EQ PUSH2 0x7FC JUMPI PUSH1 0x40 MLOAD PUSH32 0x8C379A000000000000000000000000000000000000000000000000000000000 DUP2 MSTORE PUSH1 0x4 ADD PUSH2 0x7F3 SWAP1 PUSH2 0x1C7F JUMP JUMPDEST PUSH1 0x40 MLOAD DUP1 SWAP2 SUB SWAP1 REVERT JUMPDEST PUSH1 0x2 PUSH0 DUP5 PUSH20 0xFFFFFFFFFFFFFFFFFFFFFFFFFFFFFFFFFFFFFFFF AND PUSH20 0xFFFFFFFFFFFFFFFFFFFFFFFFFFFFFFFFFFFFFFFF AND DUP2 MSTORE PUSH1 0x20 ADD SWAP1 DUP2 MSTORE PUSH1 0x20 ADD PUSH0 KECCAK256 PUSH1 0x3 ADD PUSH0 SWAP1 SLOAD SWAP1 PUSH2 0x100 EXP SWAP1 DIV PUSH1 0xFF AND ISZERO PUSH2 0x889 JUMPI PUSH1 0x40 MLOAD PUSH32 0x8C379A000000000000000000000000000000000000000000000000000000000 DUP2 MSTORE PUSH1 0x4 ADD PUSH2 0x880 SWAP1 PUSH2 0x1CE7 JUMP JUMPDEST PUSH1 0x40 MLOAD DUP1 SWAP2 SUB SWAP1 REVERT JUMPDEST PUSH1 0x40 MLOAD DUP1 PUSH1 0x80 ADD PUSH1 0x40 MSTORE DUP1 DUP5 PUSH20 0xFFFFFFFFFFFFFFFFFFFFFFFFFFFFFFFFFFFFFFFF AND DUP2 MSTORE PUSH1 0x20 ADD DUP4 DUP2 MSTORE PUSH1 0x20 ADD DUP3 DUP2 MSTORE PUSH1 0x20 ADD PUSH1 0x1 ISZERO ISZERO DUP2 MSTORE POP PUSH1 0x2 PUSH0 DUP6 PUSH20 0xFFFFFFFFFFFFFFFFFFFFFFFFFFFFFFFFFFFFFFFF AND PUSH20 0xFFFFFFFFFFFFFFFFFFFFFFFFFFFFFFFFFFFFFFFF AND DUP2 MSTORE PUSH1 0x20 ADD SWAP1 DUP2 MSTORE PUSH1 0x20 ADD PUSH0 KECCAK256 PUSH0 DUP3 ADD MLOAD DUP2 PUSH0 ADD PUSH0 PUSH2 0x100 EXP DUP2 SLOAD DUP2 PUSH20 0xFFFFFFFFFFFFFFFFFFFFFFFFFFFFFFFFFFFFFFFF MUL NOT AND SWAP1 DUP4 PUSH20 0xFFFFFFFFFFFFFFFFFFFFFFFFFFFFFFFFFFFFFFFF AND MUL OR SWAP1 SSTORE POP PUSH1 0x20 DUP3 ADD MLOAD DUP2 PUSH1 0x1 ADD SWAP1 DUP2 PUSH2 0x959 SWAP2 SWAP1 PUSH2 0x1EA2 JUMP JUMPDEST POP PUSH1 0x40 DUP3 ADD MLOAD DUP2 PUSH1 0x2 ADD SWAP1 DUP2 PUSH2 0x96F SWAP2 SWAP1 PUSH2 0x1EA2 JUMP JUMPDEST POP PUSH1 0x60 DUP3 ADD MLOAD DUP2 PUSH1 0x3 ADD PUSH0 PUSH2 0x100 EXP DUP2 SLOAD DUP2 PUSH1 0xFF MUL NOT AND SWAP1 DUP4 ISZERO ISZERO MUL OR SWAP1 SSTORE POP SWAP1 POP POP DUP3 PUSH20 0xFFFFFFFFFFFFFFFFFFFFFFFFFFFFFFFFFFFFFFFF AND PUSH32 0xD7DF24AC28890C20EFA8F52AABA3B31A824EC2B3BF477D72110C5E026A1E3BEF DUP4 DUP4 PUSH1 0x40 MLOAD PUSH2 0x9DA SWAP3 SWAP2 SWAP1 PUSH2 0x1F71 JUMP JUMPDEST PUSH1 0x40 MLOAD DUP1 SWAP2 SUB SWAP1 LOG2 POP POP POP JUMP JUMPDEST PUSH0 PUSH1 0x3 PUSH0 DUP4 DUP2 MSTORE PUSH1 0x20 ADD SWAP1 DUP2 MSTORE PUSH1 0x20 ADD PUSH0 KECCAK256 SWAP1 POP PUSH0 PUSH1 0x3 DUP2 GT ISZERO PUSH2 0xA0E JUMPI PUSH2 0xA0D PUSH2 0x1424 JUMP JUMPDEST JUMPDEST DUP2 PUSH1 0x5 ADD PUSH0 SWAP1 SLOAD SWAP1 PUSH2 0x100 EXP SWAP1 DIV PUSH1 0xFF AND PUSH1 0x3 DUP2 GT ISZERO PUSH2 0xA31 JUMPI PUSH2 0xA30 PUSH2 0x1424 JUMP JUMPDEST JUMPDEST EQ PUSH2 0xA71 JUMPI PUSH1 0x40 MLOAD PUSH32 0x8C379A000000000000000000000000000000000000000000000000000000000 DUP2 MSTORE PUSH1 0x4 ADD PUSH2 0xA68 SWAP1 PUSH2 0x1FF0 JUMP JUMPDEST PUSH1 0x40 MLOAD DUP1 SWAP2 SUB SWAP1 REVERT JUMPDEST PUSH0 CALLVALUE GT PUSH2 0xAB3 JUMPI PUSH1 0x40 MLOAD PUSH32 0x8C379A000000000000000000000000000000000000000000000000000000000 DUP2 MSTORE PUSH1 0x4 ADD PUSH2 0xAAA SWAP1 PUSH2 0x207E JUMP JUMPDEST PUSH1 0x40 MLOAD DUP1 SWAP2 SUB SWAP1 REVERT JUMPDEST CALLVALUE DUP2 PUSH1 0x4 ADD PUSH0 DUP3 DUP3 SLOAD PUSH2 0xAC6 SWAP2 SWAP1 PUSH2 0x20C9 JUMP JUMPDEST SWAP3 POP POP DUP2 SWAP1 SSTORE POP PUSH1 0x4 PUSH0 DUP4 DUP2 MSTORE PUSH1 0x20 ADD SWAP1 DUP2 MSTORE PUSH1 0x20 ADD PUSH0 KECCAK256 PUSH1 0x40 MLOAD DUP1 PUSH1 0x40 ADD PUSH1 0x40 MSTORE DUP1 CALLER PUSH20 0xFFFFFFFFFFFFFFFFFFFFFFFFFFFFFFFFFFFFFFFF AND DUP2 MSTORE PUSH1 0x20 ADD CALLVALUE DUP2 MSTORE POP SWAP1 DUP1 PUSH1 0x1 DUP2 SLOAD ADD DUP1 DUP3 SSTORE DUP1 SWAP2 POP POP PUSH1 0x1 SWAP1 SUB SWAP1 PUSH0 MSTORE PUSH1 0x20 PUSH0 KECCAK256 SWAP1 PUSH1 0x2 MUL ADD PUSH0 SWAP1 SWAP2 SWAP1 SWAP2 SWAP1 SWAP2 POP PUSH0 DUP3 ADD MLOAD DUP2 PUSH0 ADD PUSH0 PUSH2 0x100 EXP DUP2 SLOAD DUP2 PUSH20 0xFFFFFFFFFFFFFFFFFFFFFFFFFFFFFFFFFFFFFFFF MUL NOT AND SWAP1 DUP4 PUSH20 0xFFFFFFFFFFFFFFFFFFFFFFFFFFFFFFFFFFFFFFFF AND MUL OR SWAP1 SSTORE POP PUSH1 0x20 DUP3 ADD MLOAD DUP2 PUSH1 0x1 ADD SSTORE POP POP CALLER PUSH20 0xFFFFFFFFFFFFFFFFFFFFFFFFFFFFFFFFFFFFFFFF AND DUP3 PUSH32 0xFB932F39CC5EA177AF75A4F1502D59D13404BE49A2EDB139943B43E4FB3FE45B CALLVALUE PUSH1 0x40 MLOAD PUSH2 0xBC6 SWAP2 SWAP1 PUSH2 0x15BD JUMP JUMPDEST PUSH1 0x40 MLOAD DUP1 SWAP2 SUB SWAP1 LOG3 DUP1 PUSH1 0x3 ADD SLOAD DUP2 PUSH1 0x4 ADD SLOAD LT PUSH2 0xC37 JUMPI PUSH1 0x2 DUP2 PUSH1 0x5 ADD PUSH0 PUSH2 0x100 EXP DUP2 SLOAD DUP2 PUSH1 0xFF MUL NOT AND SWAP1 DUP4 PUSH1 0x3 DUP2 GT ISZERO PUSH2 0xC04 JUMPI PUSH2 0xC03 PUSH2 0x1424 JUMP JUMPDEST JUMPDEST MUL OR SWAP1 SSTORE POP DUP2 PUSH32 0x2301E0A2AD8F6E28A7FBB09E96F5C14E588FAC346ED5CE607E1A018BC7688646 PUSH1 0x40 MLOAD PUSH1 0x40 MLOAD DUP1 SWAP2 SUB SWAP1 LOG2 JUMPDEST POP POP JUMP JUMPDEST PUSH1 0x4 PUSH1 0x20 MSTORE DUP2 PUSH0 MSTORE PUSH1 0x40 PUSH0 KECCAK256 DUP2 DUP2 SLOAD DUP2 LT PUSH2 0xC54 JUMPI PUSH0 DUP1 REVERT JUMPDEST SWAP1 PUSH0 MSTORE PUSH1 0x20 PUSH0 KECCAK256 SWAP1 PUSH1 0x2 MUL ADD PUSH0 SWAP2 POP SWAP2 POP POP DUP1 PUSH0 ADD PUSH0 SWAP1 SLOAD SWAP1 PUSH2 0x100 EXP SWAP1 DIV PUSH20 0xFFFFFFFFFFFFFFFFFFFFFFFFFFFFFFFFFFFFFFFF AND SWAP1 DUP1 PUSH1 0x1 ADD SLOAD SWAP1 POP DUP3 JUMP JUMPDEST PUSH0 DUP1 SLOAD SWAP1 PUSH2 0x100 EXP SWAP1 DIV PUSH20 0xFFFFFFFFFFFFFFFFFFFFFFFFFFFFFFFFFFFFFFFF AND DUP2 JUMP JUMPDEST PUSH0 DUP2 GT PUSH2 0xCF9 JUMPI PUSH1 0x40 MLOAD PUSH32 0x8C379A000000000000000000000000000000000000000000000000000000000 DUP2 MSTORE PUSH1 0x4 ADD PUSH2 0xCF0 SWAP1 PUSH2 0x216C JUMP JUMPDEST PUSH1 0x40 MLOAD DUP1 SWAP2 SUB SWAP1 REVERT JUMPDEST PUSH1 0x5 PUSH0 DUP2 SLOAD DUP1 SWAP3 SWAP2 SWAP1 PUSH2 0xD0B SWAP1 PUSH2 0x218A JUMP JUMPDEST SWAP2 SWAP1 POP SSTORE POP PUSH1 0x40 MLOAD DUP1 PUSH1 0xC0 ADD PUSH1 0x40 MSTORE DUP1 PUSH1 0x5 SLOAD DUP2 MSTORE PUSH1 0x20 ADD DUP4 DUP2 MSTORE PUSH1 0x20 ADD CALLER PUSH20 0xFFFFFFFFFFFFFFFFFFFFFFFFFFFFFFFFFFFFFFFF AND DUP2 MSTORE PUSH1 0x20 ADD DUP3 DUP2 MSTORE PUSH1 0x20 ADD PUSH0 DUP2 MSTORE PUSH1 0x20 ADD PUSH0 PUSH1 0x3 DUP2 GT ISZERO PUSH2 0xD64 JUMPI PUSH2 0xD63 PUSH2 0x1424 JUMP JUMPDEST JUMPDEST DUP2 MSTORE POP PUSH1 0x3 PUSH0 PUSH1 0x5 SLOAD DUP2 MSTORE PUSH1 0x20 ADD SWAP1 DUP2 MSTORE PUSH1 0x20 ADD PUSH0 KECCAK256 PUSH0 DUP3 ADD MLOAD DUP2 PUSH0 ADD SSTORE PUSH1 0x20 DUP3 ADD MLOAD DUP2 PUSH1 0x1 ADD SWAP1 DUP2 PUSH2 0xD97 SWAP2 SWAP1 PUSH2 0x1EA2 JUMP JUMPDEST POP PUSH1 0x40 DUP3 ADD MLOAD DUP2 PUSH1 0x2 ADD PUSH0 PUSH2 0x100 EXP DUP2 SLOAD DUP2 PUSH20 0xFFFFFFFFFFFFFFFFFFFFFFFFFFFFFFFFFFFFFFFF MUL NOT AND SWAP1 DUP4 PUSH20 0xFFFFFFFFFFFFFFFFFFFFFFFFFFFFFFFFFFFFFFFF AND MUL OR SWAP1 SSTORE POP PUSH1 0x60 DUP3 ADD MLOAD DUP2 PUSH1 0x3 ADD SSTORE PUSH1 0x80 DUP3 ADD MLOAD DUP2 PUSH1 0x4 ADD SSTORE PUSH1 0xA0 DUP3 ADD MLOAD DUP2 PUSH1 0x5 ADD PUSH0 PUSH2 0x100 EXP DUP2 SLOAD DUP2 PUSH1 0xFF MUL NOT AND SWAP1 DUP4 PUSH1 0x3 DUP2 GT ISZERO PUSH2 0xE1C JUMPI PUSH2 0xE1B PUSH2 0x1424 JUMP JUMPDEST JUMPDEST MUL OR SWAP1 SSTORE POP SWAP1 POP POP PUSH1 0x5 SLOAD PUSH32 0x6245D01EB0DB8DF9242165C3EE1E2324367F93303D7B8F6A86E38A8767E643AE DUP4 DUP4 PUSH1 0x40 MLOAD PUSH2 0xE58 SWAP3 SWAP2 SWAP1 PUSH2 0x21D1 JUMP JUMPDEST PUSH1 0x40 MLOAD DUP1 SWAP2 SUB SWAP1 LOG2 POP POP JUMP JUMPDEST PUSH2 0xE6C PUSH2 0x1260 JUMP JUMPDEST PUSH1 0x2 PUSH0 DUP4 PUSH20 0xFFFFFFFFFFFFFFFFFFFFFFFFFFFFFFFFFFFFFFFF AND PUSH20 0xFFFFFFFFFFFFFFFFFFFFFFFFFFFFFFFFFFFFFFFF AND DUP2 MSTORE PUSH1 0x20 ADD SWAP1 DUP2 MSTORE PUSH1 0x20 ADD PUSH0 KECCAK256 PUSH1 0x40 MLOAD DUP1 PUSH1 0x80 ADD PUSH1 0x40 MSTORE SWAP1 DUP2 PUSH0 DUP3 ADD PUSH0 SWAP1 SLOAD SWAP1 PUSH2 0x100 EXP SWAP1 DIV PUSH20 0xFFFFFFFFFFFFFFFFFFFFFFFFFFFFFFFFFFFFFFFF AND PUSH20 0xFFFFFFFFFFFFFFFFFFFFFFFFFFFFFFFFFFFFFFFF AND PUSH20 0xFFFFFFFFFFFFFFFFFFFFFFFFFFFFFFFFFFFFFFFF AND DUP2 MSTORE PUSH1 0x20 ADD PUSH1 0x1 DUP3 ADD DUP1 SLOAD PUSH2 0xF18 SWAP1 PUSH2 0x1A40 JUMP JUMPDEST DUP1 PUSH1 0x1F ADD PUSH1 0x20 DUP1 SWAP2 DIV MUL PUSH1 0x20 ADD PUSH1 0x40 MLOAD SWAP1 DUP2 ADD PUSH1 0x40 MSTORE DUP1 SWAP3 SWAP2 SWAP1 DUP2 DUP2 MSTORE PUSH1 0x20 ADD DUP3 DUP1 SLOAD PUSH2 0xF44 SWAP1 PUSH2 0x1A40 JUMP JUMPDEST DUP1 ISZERO PUSH2 0xF8F JUMPI DUP1 PUSH1 0x1F LT PUSH2 0xF66 JUMPI PUSH2 0x100 DUP1 DUP4 SLOAD DIV MUL DUP4 MSTORE SWAP2 PUSH1 0x20 ADD SWAP2 PUSH2 0xF8F JUMP JUMPDEST DUP3 ADD SWAP2 SWAP1 PUSH0 MSTORE PUSH1 0x20 PUSH0 KECCAK256 SWAP1 JUMPDEST DUP2 SLOAD DUP2 MSTORE SWAP1 PUSH1 0x1 ADD SWAP1 PUSH1 0x20 ADD DUP1 DUP4 GT PUSH2 0xF72 JUMPI DUP3 SWAP1 SUB PUSH1 0x1F AND DUP3 ADD SWAP2 JUMPDEST POP POP POP POP POP DUP2 MSTORE PUSH1 0x20 ADD PUSH1 0x2 DUP3 ADD DUP1 SLOAD PUSH2 0xFA8 SWAP1 PUSH2 0x1A40 JUMP JUMPDEST DUP1 PUSH1 0x1F ADD PUSH1 0x20 DUP1 SWAP2 DIV MUL PUSH1 0x20 ADD PUSH1 0x40 MLOAD SWAP1 DUP2 ADD PUSH1 0x40 MSTORE DUP1 SWAP3 SWAP2 SWAP1 DUP2 DUP2 MSTORE PUSH1 0x20 ADD DUP3 DUP1 SLOAD PUSH2 0xFD4 SWAP1 PUSH2 0x1A40 JUMP JUMPDEST DUP1 ISZERO PUSH2 0x101F JUMPI DUP1 PUSH1 0x1F LT PUSH2 0xFF6 JUMPI PUSH2 0x100 DUP1 DUP4 SLOAD DIV MUL DUP4 MSTORE SWAP2 PUSH1 0x20 ADD SWAP2 PUSH2 0x101F JUMP JUMPDEST DUP3 ADD SWAP2 SWAP1 PUSH0 MSTORE PUSH1 0x20 PUSH0 KECCAK256 SWAP1 JUMPDEST DUP2 SLOAD DUP2 MSTORE SWAP1 PUSH1 0x1 ADD SWAP1 PUSH1 0x20 ADD DUP1 DUP4 GT PUSH2 0x1002 JUMPI DUP3 SWAP1 SUB PUSH1 0x1F AND DUP3 ADD SWAP2 JUMPDEST POP POP POP POP POP DUP2 MSTORE PUSH1 0x20 ADD PUSH1 0x3 DUP3 ADD PUSH0 SWAP1 SLOAD SWAP1 PUSH2 0x100 EXP SWAP1 DIV PUSH1 0xFF AND ISZERO ISZERO ISZERO ISZERO DUP2 MSTORE POP POP SWAP1 POP SWAP2 SWAP1 POP JUMP JUMPDEST PUSH1 0x1 SLOAD DUP2 JUMP JUMPDEST PUSH0 CALLVALUE GT PUSH2 0x1091 JUMPI PUSH1 0x40 MLOAD PUSH32 0x8C379A000000000000000000000000000000000000000000000000000000000 DUP2 MSTORE PUSH1 0x4 ADD PUSH2 0x1088 SWAP1 PUSH2 0x226F JUMP JUMPDEST PUSH1 0x40 MLOAD DUP1 SWAP2 SUB SWAP1 REVERT JUMPDEST CALLVALUE PUSH1 0x1 PUSH0 DUP3 DUP3 SLOAD PUSH2 0x10A2 SWAP2 SWAP1 PUSH2 0x20C9 JUMP JUMPDEST SWAP3 POP POP DUP2 SWAP1 SSTORE POP CALLER PUSH20 0xFFFFFFFFFFFFFFFFFFFFFFFFFFFFFFFFFFFFFFFF AND PUSH32 0x543BA50A5EEC5E6178218E364B1D0F396157B3C8FA278522C2CB7FD99407D474 CALLVALUE PUSH1 0x40 MLOAD PUSH2 0x10EF SWAP2 SWAP1 PUSH2 0x15BD JUMP JUMPDEST PUSH1 0x40 MLOAD DUP1 SWAP2 SUB SWAP1 LOG2 JUMP JUMPDEST PUSH2 0x1101 PUSH2 0x129E JUMP JUMPDEST PUSH1 0x3 PUSH0 DUP4 DUP2 MSTORE PUSH1 0x20 ADD SWAP1 DUP2 MSTORE PUSH1 0x20 ADD PUSH0 KECCAK256 PUSH1 0x40 MLOAD DUP1 PUSH1 0xC0 ADD PUSH1 0x40 MSTORE SWAP1 DUP2 PUSH0 DUP3 ADD SLOAD DUP2 MSTORE PUSH1 0x20 ADD PUSH1 0x1 DUP3 ADD DUP1 SLOAD PUSH2 0x1136 SWAP1 PUSH2 0x1A40 JUMP JUMPDEST DUP1 PUSH1 0x1F ADD PUSH1 0x20 DUP1 SWAP2 DIV MUL PUSH1 0x20 ADD PUSH1 0x40 MLOAD SWAP1 DUP2 ADD PUSH1 0x40 MSTORE DUP1 SWAP3 SWAP2 SWAP1 DUP2 DUP2 MSTORE PUSH1 0x20 ADD DUP3 DUP1 SLOAD PUSH2 0x1162 SWAP1 PUSH2 0x1A40 JUMP JUMPDEST DUP1 ISZERO PUSH2 0x11AD JUMPI DUP1 PUSH1 0x1F LT PUSH2 0x1184 JUMPI PUSH2 0x100 DUP1 DUP4 SLOAD DIV MUL DUP4 MSTORE SWAP2 PUSH1 0x20 ADD SWAP2 PUSH2 0x11AD JUMP JUMPDEST DUP3 ADD SWAP2 SWAP1 PUSH0 MSTORE PUSH1 0x20 PUSH0 KECCAK256 SWAP1 JUMPDEST DUP2 SLOAD DUP2 MSTORE SWAP1 PUSH1 0x1 ADD SWAP1 PUSH1 0x20 ADD DUP1 DUP4 GT PUSH2 0x1190 JUMPI DUP3 SWAP1 SUB PUSH1 0x1F AND DUP3 ADD SWAP2 JUMPDEST POP POP POP POP POP DUP2 MSTORE PUSH1 0x20 ADD PUSH1 0x2 DUP3 ADD PUSH0 SWAP1 SLOAD SWAP1 PUSH2 0x100 EXP SWAP1 DIV PUSH20 0xFFFFFFFFFFFFFFFFFFFFFFFFFFFFFFFFFFFFFFFF AND PUSH20 0xFFFFFFFFFFFFFFFFFFFFFFFFFFFFFFFFFFFFFFFF AND PUSH20 0xFFFFFFFFFFFFFFFFFFFFFFFFFFFFFFFFFFFFFFFF AND DUP2 MSTORE PUSH1 0x20 ADD PUSH1 0x3 DUP3 ADD SLOAD DUP2 MSTORE PUSH1 0x20 ADD PUSH1 0x4 DUP3 ADD SLOAD DUP2 MSTORE PUSH1 0x20 ADD PUSH1 0x5 DUP3 ADD PUSH0 SWAP1 SLOAD SWAP1 PUSH2 0x100 EXP SWAP1 DIV PUSH1 0xFF AND PUSH1 0x3 DUP2 GT ISZERO PUSH2 0x1243 JUMPI PUSH2 0x1242 PUSH2 0x1424 JUMP JUMPDEST JUMPDEST PUSH1 0x3 DUP2 GT ISZERO PUSH2 0x1255 JUMPI PUSH2 0x1254 PUSH2 0x1424 JUMP JUMPDEST JUMPDEST DUP2 MSTORE POP POP SWAP1 POP SWAP2 SWAP1 POP JUMP JUMPDEST PUSH1 0x40 MLOAD DUP1 PUSH1 0x80 ADD PUSH1 0x40 MSTORE DUP1 PUSH0 PUSH20 0xFFFFFFFFFFFFFFFFFFFFFFFFFFFFFFFFFFFFFFFF AND DUP2 MSTORE PUSH1 0x20 ADD PUSH1 0x60 DUP2 MSTORE PUSH1 0x20 ADD PUSH1 0x60 DUP2 MSTORE PUSH1 0x20 ADD PUSH0 ISZERO ISZERO DUP2 MSTORE POP SWAP1 JUMP JUMPDEST PUSH1 0x40 MLOAD DUP1 PUSH1 0xC0 ADD PUSH1 0x40 MSTORE DUP1 PUSH0 DUP2 MSTORE PUSH1 0x20 ADD PUSH1 0x60 DUP2 MSTORE PUSH1 0x20 ADD PUSH0 PUSH20 0xFFFFFFFFFFFFFFFFFFFFFFFFFFFFFFFFFFFFFFFF AND DUP2 MSTORE PUSH1 0x20 ADD PUSH0 DUP2 MSTORE PUSH1 0x20 ADD PUSH0 DUP2 MSTORE PUSH1 0x20 ADD PUSH0 PUSH1 0x3 DUP2 GT ISZERO PUSH2 0x12F1 JUMPI PUSH2 0x12F0 PUSH2 0x1424 JUMP JUMPDEST JUMPDEST DUP2 MSTORE POP SWAP1 JUMP JUMPDEST PUSH0 PUSH1 0x40 MLOAD SWAP1 POP SWAP1 JUMP JUMPDEST PUSH0 DUP1 REVERT JUMPDEST PUSH0 DUP1 REVERT JUMPDEST PUSH0 DUP2 SWAP1 POP SWAP2 SWAP1 POP JUMP JUMPDEST PUSH2 0x131A DUP2 PUSH2 0x1308 JUMP JUMPDEST DUP2 EQ PUSH2 0x1324 JUMPI PUSH0 DUP1 REVERT JUMPDEST POP JUMP JUMPDEST PUSH0 DUP2 CALLDATALOAD SWAP1 POP PUSH2 0x1335 DUP2 PUSH2 0x1311 JUMP JUMPDEST SWAP3 SWAP2 POP POP JUMP JUMPDEST PUSH0 PUSH1 0x20 DUP3 DUP5 SUB SLT ISZERO PUSH2 0x1350 JUMPI PUSH2 0x134F PUSH2 0x1300 JUMP JUMPDEST JUMPDEST PUSH0 PUSH2 0x135D DUP5 DUP3 DUP6 ADD PUSH2 0x1327 JUMP JUMPDEST SWAP2 POP POP SWAP3 SWAP2 POP POP JUMP JUMPDEST PUSH2 0x136F DUP2 PUSH2 0x1308 JUMP JUMPDEST DUP3 MSTORE POP POP JUMP JUMPDEST PUSH0 DUP2 MLOAD SWAP1 POP SWAP2 SWAP1 POP JUMP JUMPDEST PUSH0 DUP3 DUP3 MSTORE PUSH1 0x20 DUP3 ADD SWAP1 POP SWAP3 SWAP2 POP POP JUMP JUMPDEST DUP3 DUP2 DUP4 MCOPY PUSH0 DUP4 DUP4 ADD MSTORE POP POP POP JUMP JUMPDEST PUSH0 PUSH1 0x1F NOT PUSH1 0x1F DUP4 ADD AND SWAP1 POP SWAP2 SWAP1 POP JUMP JUMPDEST PUSH0 PUSH2 0x13B7 DUP3 PUSH2 0x1375 JUMP JUMPDEST PUSH2 0x13C1 DUP2 DUP6 PUSH2 0x137F JUMP JUMPDEST SWAP4 POP PUSH2 0x13D1 DUP2 DUP6 PUSH1 0x20 DUP7 ADD PUSH2 0x138F JUMP JUMPDEST PUSH2 0x13DA DUP2 PUSH2 0x139D JUMP JUMPDEST DUP5 ADD SWAP2 POP POP SWAP3 SWAP2 POP POP JUMP JUMPDEST PUSH0 PUSH20 0xFFFFFFFFFFFFFFFFFFFFFFFFFFFFFFFFFFFFFFFF DUP3 AND SWAP1 POP SWAP2 SWAP1 POP JUMP JUMPDEST PUSH0 PUSH2 0x140E DUP3 PUSH2 0x13E5 JUMP JUMPDEST SWAP1 POP SWAP2 SWAP1 POP JUMP JUMPDEST PUSH2 0x141E DUP2 PUSH2 0x1404 JUMP JUMPDEST DUP3 MSTORE POP POP JUMP JUMPDEST PUSH32 0x4E487B7100000000000000000000000000000000000000000000000000000000 PUSH0 MSTORE PUSH1 0x21 PUSH1 0x4 MSTORE PUSH1 0x24 PUSH0 REVERT JUMPDEST PUSH1 0x4 DUP2 LT PUSH2 0x1462 JUMPI PUSH2 0x1461 PUSH2 0x1424 JUMP JUMPDEST JUMPDEST POP JUMP JUMPDEST PUSH0 DUP2 SWAP1 POP PUSH2 0x1472 DUP3 PUSH2 0x1451 JUMP JUMPDEST SWAP2 SWAP1 POP JUMP JUMPDEST PUSH0 PUSH2 0x1481 DUP3 PUSH2 0x1465 JUMP JUMPDEST SWAP1 POP SWAP2 SWAP1 POP JUMP JUMPDEST PUSH2 0x1491 DUP2 PUSH2 0x1477 JUMP JUMPDEST DUP3 MSTORE POP POP JUMP JUMPDEST PUSH0 PUSH1 0xC0 DUP3 ADD SWAP1 POP PUSH2 0x14AA PUSH0 DUP4 ADD DUP10 PUSH2 0x1366 JUMP JUMPDEST DUP2 DUP2 SUB PUSH1 0x20 DUP4 ADD MSTORE PUSH2 0x14BC DUP2 DUP9 PUSH2 0x13AD JUMP JUMPDEST SWAP1 POP PUSH2 0x14CB PUSH1 0x40 DUP4 ADD DUP8 PUSH2 0x1415 JUMP JUMPDEST PUSH2 0x14D8 PUSH1 0x60 DUP4 ADD DUP7 PUSH2 0x1366 JUMP JUMPDEST PUSH2 0x14E5 PUSH1 0x80 DUP4 ADD DUP6 PUSH2 0x1366 JUMP JUMPDEST PUSH2 0x14F2 PUSH1 0xA0 DUP4 ADD DUP5 PUSH2 0x1488 JUMP JUMPDEST SWAP8 SWAP7 POP POP POP POP POP POP POP JUMP JUMPDEST PUSH2 0x1506 DUP2 PUSH2 0x1404 JUMP JUMPDEST DUP2 EQ PUSH2 0x1510 JUMPI PUSH0 DUP1 REVERT JUMPDEST POP JUMP JUMPDEST PUSH0 DUP2 CALLDATALOAD SWAP1 POP PUSH2 0x1521 DUP2 PUSH2 0x14FD JUMP JUMPDEST SWAP3 SWAP2 POP POP JUMP JUMPDEST PUSH0 PUSH1 0x20 DUP3 DUP5 SUB SLT ISZERO PUSH2 0x153C JUMPI PUSH2 0x153B PUSH2 0x1300 JUMP JUMPDEST JUMPDEST PUSH0 PUSH2 0x1549 DUP5 DUP3 DUP6 ADD PUSH2 0x1513 JUMP JUMPDEST SWAP2 POP POP SWAP3 SWAP2 POP POP JUMP JUMPDEST PUSH0 DUP2 ISZERO ISZERO SWAP1 POP SWAP2 SWAP1 POP JUMP JUMPDEST PUSH2 0x1566 DUP2 PUSH2 0x1552 JUMP JUMPDEST DUP3 MSTORE POP POP JUMP JUMPDEST PUSH0 PUSH1 0x80 DUP3 ADD SWAP1 POP PUSH2 0x157F PUSH0 DUP4 ADD DUP8 PUSH2 0x1415 JUMP JUMPDEST DUP2 DUP2 SUB PUSH1 0x20 DUP4 ADD MSTORE PUSH2 0x1591 DUP2 DUP7 PUSH2 0x13AD JUMP JUMPDEST SWAP1 POP DUP2 DUP2 SUB PUSH1 0x40 DUP4 ADD MSTORE PUSH2 0x15A5 DUP2 DUP6 PUSH2 0x13AD JUMP JUMPDEST SWAP1 POP PUSH2 0x15B4 PUSH1 0x60 DUP4 ADD DUP5 PUSH2 0x155D JUMP JUMPDEST SWAP6 SWAP5 POP POP POP POP POP JUMP JUMPDEST PUSH0 PUSH1 0x20 DUP3 ADD SWAP1 POP PUSH2 0x15D0 PUSH0 DUP4 ADD DUP5 PUSH2 0x1366 JUMP JUMPDEST SWAP3 SWAP2 POP POP JUMP JUMPDEST PUSH0 DUP1 REVERT JUMPDEST PUSH0 DUP1 REVERT JUMPDEST PUSH32 0x4E487B7100000000000000000000000000000000000000000000000000000000 PUSH0 MSTORE PUSH1 0x41 PUSH1 0x4 MSTORE PUSH1 0x24 PUSH0 REVERT JUMPDEST PUSH2 0x1614 DUP3 PUSH2 0x139D JUMP JUMPDEST DUP2 ADD DUP2 DUP2 LT PUSH8 0xFFFFFFFFFFFFFFFF DUP3 GT OR ISZERO PUSH2 0x1633 JUMPI PUSH2 0x1632 PUSH2 0x15DE JUMP JUMPDEST JUMPDEST DUP1 PUSH1 0x40 MSTORE POP POP POP JUMP JUMPDEST PUSH0 PUSH2 0x1645 PUSH2 0x12F7 JUMP JUMPDEST SWAP1 POP PUSH2 0x1651 DUP3 DUP3 PUSH2 0x160B JUMP JUMPDEST SWAP2 SWAP1 POP JUMP JUMPDEST PUSH0 PUSH8 0xFFFFFFFFFFFFFFFF DUP3 GT ISZERO PUSH2 0x1670 JUMPI PUSH2 0x166F PUSH2 0x15DE JUMP JUMPDEST JUMPDEST PUSH2 0x1679 DUP3 PUSH2 0x139D JUMP JUMPDEST SWAP1 POP PUSH1 0x20 DUP2 ADD SWAP1 POP SWAP2 SWAP1 POP JUMP JUMPDEST DUP3 DUP2 DUP4 CALLDATACOPY PUSH0 DUP4 DUP4 ADD MSTORE POP POP POP JUMP JUMPDEST PUSH0 PUSH2 0x16A6 PUSH2 0x16A1 DUP5 PUSH2 0x1656 JUMP JUMPDEST PUSH2 0x163C JUMP JUMPDEST SWAP1 POP DUP3 DUP2 MSTORE PUSH1 0x20 DUP2 ADD DUP5 DUP5 DUP5 ADD GT ISZERO PUSH2 0x16C2 JUMPI PUSH2 0x16C1 PUSH2 0x15DA JUMP JUMPDEST JUMPDEST PUSH2 0x16CD DUP5 DUP3 DUP6 PUSH2 0x1686 JUMP JUMPDEST POP SWAP4 SWAP3 POP POP POP JUMP JUMPDEST PUSH0 DUP3 PUSH1 0x1F DUP4 ADD SLT PUSH2 0x16E9 JUMPI PUSH2 0x16E8 PUSH2 0x15D6 JUMP JUMPDEST JUMPDEST DUP2 CALLDATALOAD PUSH2 0x16F9 DUP5 DUP3 PUSH1 0x20 DUP7 ADD PUSH2 0x1694 JUMP JUMPDEST SWAP2 POP POP SWAP3 SWAP2 POP POP JUMP JUMPDEST PUSH0 DUP1 PUSH0 PUSH1 0x60 DUP5 DUP7 SUB SLT ISZERO PUSH2 0x1719 JUMPI PUSH2 0x1718 PUSH2 0x1300 JUMP JUMPDEST JUMPDEST PUSH0 PUSH2 0x1726 DUP7 DUP3 DUP8 ADD PUSH2 0x1513 JUMP JUMPDEST SWAP4 POP POP PUSH1 0x20 DUP5 ADD CALLDATALOAD PUSH8 0xFFFFFFFFFFFFFFFF DUP2 GT ISZERO PUSH2 0x1747 JUMPI PUSH2 0x1746 PUSH2 0x1304 JUMP JUMPDEST JUMPDEST PUSH2 0x1753 DUP7 DUP3 DUP8 ADD PUSH2 0x16D5 JUMP JUMPDEST SWAP3 POP POP PUSH1 0x40 DUP5 ADD CALLDATALOAD PUSH8 0xFFFFFFFFFFFFFFFF DUP2 GT ISZERO PUSH2 0x1774 JUMPI PUSH2 0x1773 PUSH2 0x1304 JUMP JUMPDEST JUMPDEST PUSH2 0x1780 DUP7 DUP3 DUP8 ADD PUSH2 0x16D5 JUMP JUMPDEST SWAP2 POP POP SWAP3 POP SWAP3 POP SWAP3 JUMP JUMPDEST PUSH0 DUP1 PUSH1 0x40 DUP4 DUP6 SUB SLT ISZERO PUSH2 0x17A0 JUMPI PUSH2 0x179F PUSH2 0x1300 JUMP JUMPDEST JUMPDEST PUSH0 PUSH2 0x17AD DUP6 DUP3 DUP7 ADD PUSH2 0x1327 JUMP JUMPDEST SWAP3 POP POP PUSH1 0x20 PUSH2 0x17BE DUP6 DUP3 DUP7 ADD PUSH2 0x1327 JUMP JUMPDEST SWAP2 POP POP SWAP3 POP SWAP3 SWAP1 POP JUMP JUMPDEST PUSH0 PUSH1 0x40 DUP3 ADD SWAP1 POP PUSH2 0x17DB PUSH0 DUP4 ADD DUP6 PUSH2 0x1415 JUMP JUMPDEST PUSH2 0x17E8 PUSH1 0x20 DUP4 ADD DUP5 PUSH2 0x1366 JUMP JUMPDEST SWAP4 SWAP3 POP POP POP JUMP JUMPDEST PUSH0 PUSH1 0x20 DUP3 ADD SWAP1 POP PUSH2 0x1802 PUSH0 DUP4 ADD DUP5 PUSH2 0x1415 JUMP JUMPDEST SWAP3 SWAP2 POP POP JUMP JUMPDEST PUSH0 DUP1 PUSH1 0x40 DUP4 DUP6 SUB SLT ISZERO PUSH2 0x181E JUMPI PUSH2 0x181D PUSH2 0x1300 JUMP JUMPDEST JUMPDEST PUSH0 DUP4 ADD CALLDATALOAD PUSH8 0xFFFFFFFFFFFFFFFF DUP2 GT ISZERO PUSH2 0x183B JUMPI PUSH2 0x183A PUSH2 0x1304 JUMP JUMPDEST JUMPDEST PUSH2 0x1847 DUP6 DUP3 DUP7 ADD PUSH2 0x16D5 JUMP JUMPDEST SWAP3 POP POP PUSH1 0x20 PUSH2 0x1858 DUP6 DUP3 DUP7 ADD PUSH2 0x1327 JUMP JUMPDEST SWAP2 POP POP SWAP3 POP SWAP3 SWAP1 POP JUMP JUMPDEST PUSH2 0x186B DUP2 PUSH2 0x1404 JUMP JUMPDEST DUP3 MSTORE POP POP JUMP JUMPDEST PUSH0 DUP3 DUP3 MSTORE PUSH1 0x20 DUP3 ADD SWAP1 POP SWAP3 SWAP2 POP POP JUMP JUMPDEST PUSH0 PUSH2 0x188B DUP3 PUSH2 0x1375 JUMP JUMPDEST PUSH2 0x1895 DUP2 DUP6 PUSH2 0x1871 JUMP JUMPDEST SWAP4 POP PUSH2 0x18A5 DUP2 DUP6 PUSH1 0x20 DUP7 ADD PUSH2 0x138F JUMP JUMPDEST PUSH2 0x18AE DUP2 PUSH2 0x139D JUMP JUMPDEST DUP5 ADD SWAP2 POP POP SWAP3 SWAP2 POP POP JUMP JUMPDEST PUSH2 0x18C2 DUP2 PUSH2 0x1552 JUMP JUMPDEST DUP3 MSTORE POP POP JUMP JUMPDEST PUSH0 PUSH1 0x80 DUP4 ADD PUSH0 DUP4 ADD MLOAD PUSH2 0x18DD PUSH0 DUP7 ADD DUP3 PUSH2 0x1862 JUMP JUMPDEST POP PUSH1 0x20 DUP4 ADD MLOAD DUP5 DUP3 SUB PUSH1 0x20 DUP7 ADD MSTORE PUSH2 0x18F5 DUP3 DUP3 PUSH2 0x1881 JUMP JUMPDEST SWAP2 POP POP PUSH1 0x40 DUP4 ADD MLOAD DUP5 DUP3 SUB PUSH1 0x40 DUP7 ADD MSTORE PUSH2 0x190F DUP3 DUP3 PUSH2 0x1881 JUMP JUMPDEST SWAP2 POP POP PUSH1 0x60 DUP4 ADD MLOAD PUSH2 0x1924 PUSH1 0x60 DUP7 ADD DUP3 PUSH2 0x18B9 JUMP JUMPDEST POP DUP1 SWAP2 POP POP SWAP3 SWAP2 POP POP JUMP JUMPDEST PUSH0 PUSH1 0x20 DUP3 ADD SWAP1 POP DUP2 DUP2 SUB PUSH0 DUP4 ADD MSTORE PUSH2 0x1947 DUP2 DUP5 PUSH2 0x18C8 JUMP JUMPDEST SWAP1 POP SWAP3 SWAP2 POP POP JUMP JUMPDEST PUSH2 0x1958 DUP2 PUSH2 0x1308 JUMP JUMPDEST DUP3 MSTORE POP POP JUMP JUMPDEST PUSH2 0x1967 DUP2 PUSH2 0x1477 JUMP JUMPDEST DUP3 MSTORE POP POP JUMP JUMPDEST PUSH0 PUSH1 0xC0 DUP4 ADD PUSH0 DUP4 ADD MLOAD PUSH2 0x1982 PUSH0 DUP7 ADD DUP3 PUSH2 0x194F JUMP JUMPDEST POP PUSH1 0x20 DUP4 ADD MLOAD DUP5 DUP3 SUB PUSH1 0x20 DUP7 ADD MSTORE PUSH2 0x199A DUP3 DUP3 PUSH2 0x1881 JUMP JUMPDEST SWAP2 POP POP PUSH1 0x40 DUP4 ADD MLOAD PUSH2 0x19AF PUSH1 0x40 DUP7 ADD DUP3 PUSH2 0x1862 JUMP JUMPDEST POP PUSH1 0x60 DUP4 ADD MLOAD PUSH2 0x19C2 PUSH1 0x60 DUP7 ADD DUP3 PUSH2 0x194F JUMP JUMPDEST POP PUSH1 0x80 DUP4 ADD MLOAD PUSH2 0x19D5 PUSH1 0x80 DUP7 ADD DUP3 PUSH2 0x194F JUMP JUMPDEST POP PUSH1 0xA0 DUP4 ADD MLOAD PUSH2 0x19E8 PUSH1 0xA0 DUP7 ADD DUP3 PUSH2 0x195E JUMP JUMPDEST POP DUP1 SWAP2 POP POP SWAP3 SWAP2 POP POP JUMP JUMPDEST PUSH0 PUSH1 0x20 DUP3 ADD SWAP1 POP DUP2 DUP2 SUB PUSH0 DUP4 ADD MSTORE PUSH2 0x1A0B DUP2 DUP5 PUSH2 0x196D JUMP JUMPDEST SWAP1 POP SWAP3 SWAP2 POP POP JUMP JUMPDEST PUSH32 0x4E487B7100000000000000000000000000000000000000000000000000000000 PUSH0 MSTORE PUSH1 0x22 PUSH1 0x4 MSTORE PUSH1 0x24 PUSH0 REVERT JUMPDEST PUSH0 PUSH1 0x2 DUP3 DIV SWAP1 POP PUSH1 0x1 DUP3 AND DUP1 PUSH2 0x1A57 JUMPI PUSH1 0x7F DUP3 AND SWAP2 POP JUMPDEST PUSH1 0x20 DUP3 LT DUP2 SUB PUSH2 0x1A6A JUMPI PUSH2 0x1A69 PUSH2 0x1A13 JUMP JUMPDEST JUMPDEST POP SWAP2 SWAP1 POP JUMP JUMPDEST PUSH32 0x4F6E6C79207468652070726F6A6563742063726561746F722063616E20776974 PUSH0 DUP3 ADD MSTORE PUSH32 0x68647261772066756E64732E0000000000000000000000000000000000000000 PUSH1 0x20 DUP3 ADD MSTORE POP JUMP JUMPDEST PUSH0 PUSH2 0x1ACA PUSH1 0x2C DUP4 PUSH2 0x137F JUMP JUMPDEST SWAP2 POP PUSH2 0x1AD5 DUP3 PUSH2 0x1A70 JUMP JUMPDEST PUSH1 0x40 DUP3 ADD SWAP1 POP SWAP2 SWAP1 POP JUMP JUMPDEST PUSH0 PUSH1 0x20 DUP3 ADD SWAP1 POP DUP2 DUP2 SUB PUSH0 DUP4 ADD MSTORE PUSH2 0x1AF7 DUP2 PUSH2 0x1ABE JUMP JUMPDEST SWAP1 POP SWAP2 SWAP1 POP JUMP JUMPDEST PUSH32 0x50726F6A656374206973206E6F742066756C6C792066756E6465642E00000000 PUSH0 DUP3 ADD MSTORE POP JUMP JUMPDEST PUSH0 PUSH2 0x1B32 PUSH1 0x1C DUP4 PUSH2 0x137F JUMP JUMPDEST SWAP2 POP PUSH2 0x1B3D DUP3 PUSH2 0x1AFE JUMP JUMPDEST PUSH1 0x20 DUP3 ADD SWAP1 POP SWAP2 SWAP1 POP JUMP JUMPDEST PUSH0 PUSH1 0x20 DUP3 ADD SWAP1 POP DUP2 DUP2 SUB PUSH0 DUP4 ADD MSTORE PUSH2 0x1B5F DUP2 PUSH2 0x1B26 JUMP JUMPDEST SWAP1 POP SWAP2 SWAP1 POP JUMP JUMPDEST PUSH0 DUP2 SWAP1 POP SWAP3 SWAP2 POP POP JUMP JUMPDEST POP JUMP JUMPDEST PUSH0 PUSH2 0x1B7E PUSH0 DUP4 PUSH2 0x1B66 JUMP JUMPDEST SWAP2 POP PUSH2 0x1B89 DUP3 PUSH2 0x1B70 JUMP JUMPDEST PUSH0 DUP3 ADD SWAP1 POP SWAP2 SWAP1 POP JUMP JUMPDEST PUSH0 PUSH2 0x1B9D DUP3 PUSH2 0x1B73 JUMP JUMPDEST SWAP2 POP DUP2 SWAP1 POP SWAP2 SWAP1 POP JUMP JUMPDEST PUSH32 0x5472616E73666572206661696C65642E00000000000000000000000000000000 PUSH0 DUP3 ADD MSTORE POP JUMP JUMPDEST PUSH0 PUSH2 0x1BDB PUSH1 0x10 DUP4 PUSH2 0x137F JUMP JUMPDEST SWAP2 POP PUSH2 0x1BE6 DUP3 PUSH2 0x1BA7 JUMP JUMPDEST PUSH1 0x20 DUP3 ADD SWAP1 POP SWAP2 SWAP1 POP JUMP JUMPDEST PUSH0 PUSH1 0x20 DUP3 ADD SWAP1 POP DUP2 DUP2 SUB PUSH0 DUP4 ADD MSTORE PUSH2 0x1C08 DUP2 PUSH2 0x1BCF JUMP JUMPDEST SWAP1 POP SWAP2 SWAP1 POP JUMP JUMPDEST PUSH32 0x4F6E6C7920746865206F776E65722063616E2063616C6C20746869732066756E PUSH0 DUP3 ADD MSTORE PUSH32 0x6374696F6E2E0000000000000000000000000000000000000000000000000000 PUSH1 0x20 DUP3 ADD MSTORE POP JUMP JUMPDEST PUSH0 PUSH2 0x1C69 PUSH1 0x26 DUP4 PUSH2 0x137F JUMP JUMPDEST SWAP2 POP PUSH2 0x1C74 DUP3 PUSH2 0x1C0F JUMP JUMPDEST PUSH1 0x40 DUP3 ADD SWAP1 POP SWAP2 SWAP1 POP JUMP JUMPDEST PUSH0 PUSH1 0x20 DUP3 ADD SWAP1 POP DUP2 DUP2 SUB PUSH0 DUP4 ADD MSTORE PUSH2 0x1C96 DUP2 PUSH2 0x1C5D JUMP JUMPDEST SWAP1 POP SWAP2 SWAP1 POP JUMP JUMPDEST PUSH32 0x45787065727420616C72656164792076657269666965642E0000000000000000 PUSH0 DUP3 ADD MSTORE POP JUMP JUMPDEST PUSH0 PUSH2 0x1CD1 PUSH1 0x18 DUP4 PUSH2 0x137F JUMP JUMPDEST SWAP2 POP PUSH2 0x1CDC DUP3 PUSH2 0x1C9D JUMP JUMPDEST PUSH1 0x20 DUP3 ADD SWAP1 POP SWAP2 SWAP1 POP JUMP JUMPDEST PUSH0 PUSH1 0x20 DUP3 ADD SWAP1 POP DUP2 DUP2 SUB PUSH0 DUP4 ADD MSTORE PUSH2 0x1CFE DUP2 PUSH2 0x1CC5 JUMP JUMPDEST SWAP1 POP SWAP2 SWAP1 POP JUMP JUMPDEST PUSH0 DUP2 SWAP1 POP DUP2 PUSH0 MSTORE PUSH1 0x20 PUSH0 KECCAK256 SWAP1 POP SWAP2 SWAP1 POP JUMP JUMPDEST PUSH0 PUSH1 0x20 PUSH1 0x1F DUP4 ADD DIV SWAP1 POP SWAP2 SWAP1 POP JUMP JUMPDEST PUSH0 DUP3 DUP3 SHL SWAP1 POP SWAP3 SWAP2 POP POP JUMP JUMPDEST PUSH0 PUSH1 0x8 DUP4 MUL PUSH2 0x1D61 PUSH32 0xFFFFFFFFFFFFFFFFFFFFFFFFFFFFFFFFFFFFFFFFFFFFFFFFFFFFFFFFFFFFFFFF DUP3 PUSH2 0x1D26 JUMP JUMPDEST PUSH2 0x1D6B DUP7 DUP4 PUSH2 0x1D26 JUMP JUMPDEST SWAP6 POP DUP1 NOT DUP5 AND SWAP4 POP DUP1 DUP7 AND DUP5 OR SWAP3 POP POP POP SWAP4 SWAP3 POP POP POP JUMP JUMPDEST PUSH0 DUP2 SWAP1 POP SWAP2 SWAP1 POP JUMP JUMPDEST PUSH0 PUSH2 0x1DA6 PUSH2 0x1DA1 PUSH2 0x1D9C DUP5 PUSH2 0x1308 JUMP JUMPDEST PUSH2 0x1D83 JUMP JUMPDEST PUSH2 0x1308 JUMP JUMPDEST SWAP1 POP SWAP2 SWAP1 POP JUMP JUMPDEST PUSH0 DUP2 SWAP1 POP SWAP2 SWAP1 POP JUMP JUMPDEST PUSH2 0x1DBF DUP4 PUSH2 0x1D8C JUMP JUMPDEST PUSH2 0x1DD3 PUSH2 0x1DCB DUP3 PUSH2 0x1DAD JUMP JUMPDEST DUP5 DUP5 SLOAD PUSH2 0x1D32 JUMP JUMPDEST DUP3 SSTORE POP POP POP POP JUMP JUMPDEST PUSH0 SWAP1 JUMP JUMPDEST PUSH2 0x1DE7 PUSH2 0x1DDB JUMP JUMPDEST PUSH2 0x1DF2 DUP2 DUP5 DUP5 PUSH2 0x1DB6 JUMP JUMPDEST POP POP POP JUMP JUMPDEST JUMPDEST DUP2 DUP2 LT ISZERO PUSH2 0x1E15 JUMPI PUSH2 0x1E0A PUSH0 DUP3 PUSH2 0x1DDF JUMP JUMPDEST PUSH1 0x1 DUP2 ADD SWAP1 POP PUSH2 0x1DF8 JUMP JUMPDEST POP POP JUMP JUMPDEST PUSH1 0x1F DUP3 GT ISZERO PUSH2 0x1E5A JUMPI PUSH2 0x1E2B DUP2 PUSH2 0x1D05 JUMP JUMPDEST PUSH2 0x1E34 DUP5 PUSH2 0x1D17 JUMP JUMPDEST DUP2 ADD PUSH1 0x20 DUP6 LT ISZERO PUSH2 0x1E43 JUMPI DUP2 SWAP1 POP JUMPDEST PUSH2 0x1E57 PUSH2 0x1E4F DUP6 PUSH2 0x1D17 JUMP JUMPDEST DUP4 ADD DUP3 PUSH2 0x1DF7 JUMP JUMPDEST POP POP JUMPDEST POP POP POP JUMP JUMPDEST PUSH0 DUP3 DUP3 SHR SWAP1 POP SWAP3 SWAP2 POP POP JUMP JUMPDEST PUSH0 PUSH2 0x1E7A PUSH0 NOT DUP5 PUSH1 0x8 MUL PUSH2 0x1E5F JUMP JUMPDEST NOT DUP1 DUP4 AND SWAP2 POP POP SWAP3 SWAP2 POP POP JUMP JUMPDEST PUSH0 PUSH2 0x1E92 DUP4 DUP4 PUSH2 0x1E6B JUMP JUMPDEST SWAP2 POP DUP3 PUSH1 0x2 MUL DUP3 OR SWAP1 POP SWAP3 SWAP2 POP POP JUMP JUMPDEST PUSH2 0x1EAB DUP3 PUSH2 0x1375 JUMP JUMPDEST PUSH8 0xFFFFFFFFFFFFFFFF DUP2 GT ISZERO PUSH2 0x1EC4 JUMPI PUSH2 0x1EC3 PUSH2 0x15DE JUMP JUMPDEST JUMPDEST PUSH2 0x1ECE DUP3 SLOAD PUSH2 0x1A40 JUMP JUMPDEST PUSH2 0x1ED9 DUP3 DUP3 DUP6 PUSH2 0x1E19 JUMP JUMPDEST PUSH0 PUSH1 0x20 SWAP1 POP PUSH1 0x1F DUP4 GT PUSH1 0x1 DUP2 EQ PUSH2 0x1F0A JUMPI PUSH0 DUP5 ISZERO PUSH2 0x1EF8 JUMPI DUP3 DUP8 ADD MLOAD SWAP1 POP JUMPDEST PUSH2 0x1F02 DUP6 DUP3 PUSH2 0x1E87 JUMP JUMPDEST DUP7 SSTORE POP PUSH2 0x1F69 JUMP JUMPDEST PUSH1 0x1F NOT DUP5 AND PUSH2 0x1F18 DUP7 PUSH2 0x1D05 JUMP JUMPDEST PUSH0 JUMPDEST DUP3 DUP2 LT ISZERO PUSH2 0x1F3F JUMPI DUP5 DUP10 ADD MLOAD DUP3 SSTORE PUSH1 0x1 DUP3 ADD SWAP2 POP PUSH1 0x20 DUP6 ADD SWAP5 POP PUSH1 0x20 DUP2 ADD SWAP1 POP PUSH2 0x1F1A JUMP JUMPDEST DUP7 DUP4 LT ISZERO PUSH2 0x1F5C JUMPI DUP5 DUP10 ADD MLOAD PUSH2 0x1F58 PUSH1 0x1F DUP10 AND DUP3 PUSH2 0x1E6B JUMP JUMPDEST DUP4 SSTORE POP JUMPDEST PUSH1 0x1 PUSH1 0x2 DUP9 MUL ADD DUP9 SSTORE POP POP POP JUMPDEST POP POP POP POP POP POP JUMP JUMPDEST PUSH0 PUSH1 0x40 DUP3 ADD SWAP1 POP DUP2 DUP2 SUB PUSH0 DUP4 ADD MSTORE PUSH2 0x1F89 DUP2 DUP6 PUSH2 0x13AD JUMP JUMPDEST SWAP1 POP DUP2 DUP2 SUB PUSH1 0x20 DUP4 ADD MSTORE PUSH2 0x1F9D DUP2 DUP5 PUSH2 0x13AD JUMP JUMPDEST SWAP1 POP SWAP4 SWAP3 POP POP POP JUMP JUMPDEST PUSH32 0x50726F6A656374206973206E6F74206F70656E20666F722066756E64696E672E PUSH0 DUP3 ADD MSTORE POP JUMP JUMPDEST PUSH0 PUSH2 0x1FDA PUSH1 0x20 DUP4 PUSH2 0x137F JUMP JUMPDEST SWAP2 POP PUSH2 0x1FE5 DUP3 PUSH2 0x1FA6 JUMP JUMPDEST PUSH1 0x20 DUP3 ADD SWAP1 POP SWAP2 SWAP1 POP JUMP JUMPDEST PUSH0 PUSH1 0x20 DUP3 ADD SWAP1 POP DUP2 DUP2 SUB PUSH0 DUP4 ADD MSTORE PUSH2 0x2007 DUP2 PUSH2 0x1FCE JUMP JUMPDEST SWAP1 POP SWAP2 SWAP1 POP JUMP JUMPDEST PUSH32 0x496E766573746D656E74206D7573742062652067726561746572207468616E20 PUSH0 DUP3 ADD MSTORE PUSH32 0x7A65726F2E000000000000000000000000000000000000000000000000000000 PUSH1 0x20 DUP3 ADD MSTORE POP JUMP JUMPDEST PUSH0 PUSH2 0x2068 PUSH1 0x25 DUP4 PUSH2 0x137F JUMP JUMPDEST SWAP2 POP PUSH2 0x2073 DUP3 PUSH2 0x200E JUMP JUMPDEST PUSH1 0x40 DUP3 ADD SWAP1 POP SWAP2 SWAP1 POP JUMP JUMPDEST PUSH0 PUSH1 0x20 DUP3 ADD SWAP1 POP DUP2 DUP2 SUB PUSH0 DUP4 ADD MSTORE PUSH2 0x2095 DUP2 PUSH2 0x205C JUMP JUMPDEST SWAP1 POP SWAP2 SWAP1 POP JUMP JUMPDEST PUSH32 0x4E487B7100000000000000000000000000000000000000000000000000000000 PUSH0 MSTORE PUSH1 0x11 PUSH1 0x4 MSTORE PUSH1 0x24 PUSH0 REVERT JUMPDEST PUSH0 PUSH2 0x20D3 DUP3 PUSH2 0x1308 JUMP JUMPDEST SWAP2 POP PUSH2 0x20DE DUP4 PUSH2 0x1308 JUMP JUMPDEST SWAP3 POP DUP3 DUP3 ADD SWAP1 POP DUP1 DUP3 GT ISZERO PUSH2 0x20F6 JUMPI PUSH2 0x20F5 PUSH2 0x209C JUMP JUMPDEST JUMPDEST SWAP3 SWAP2 POP POP JUMP JUMPDEST PUSH32 0x46756E64696E67206E6565646564206D75737420626520677265617465722074 PUSH0 DUP3 ADD MSTORE PUSH32 0x68616E207A65726F2E0000000000000000000000000000000000000000000000 PUSH1 0x20 DUP3 ADD MSTORE POP JUMP JUMPDEST PUSH0 PUSH2 0x2156 PUSH1 0x29 DUP4 PUSH2 0x137F JUMP JUMPDEST SWAP2 POP PUSH2 0x2161 DUP3 PUSH2 0x20FC JUMP JUMPDEST PUSH1 0x40 DUP3 ADD SWAP1 POP SWAP2 SWAP1 POP JUMP JUMPDEST PUSH0 PUSH1 0x20 DUP3 ADD SWAP1 POP DUP2 DUP2 SUB PUSH0 DUP4 ADD MSTORE PUSH2 0x2183 DUP2 PUSH2 0x214A JUMP JUMPDEST SWAP1 POP SWAP2 SWAP1 POP JUMP JUMPDEST PUSH0 PUSH2 0x2194 DUP3 PUSH2 0x1308 JUMP JUMPDEST SWAP2 POP PUSH32 0xFFFFFFFFFFFFFFFFFFFFFFFFFFFFFFFFFFFFFFFFFFFFFFFFFFFFFFFFFFFFFFFF DUP3 SUB PUSH2 0x21C6 JUMPI PUSH2 0x21C5 PUSH2 0x209C JUMP JUMPDEST JUMPDEST PUSH1 0x1 DUP3 ADD SWAP1 POP SWAP2 SWAP1 POP JUMP JUMPDEST PUSH0 PUSH1 0x40 DUP3 ADD SWAP1 POP DUP2 DUP2 SUB PUSH0 DUP4 ADD MSTORE PUSH2 0x21E9 DUP2 DUP6 PUSH2 0x13AD JUMP JUMPDEST SWAP1 POP PUSH2 0x21F8 PUSH1 0x20 DUP4 ADD DUP5 PUSH2 0x1366 JUMP JUMPDEST SWAP4 SWAP3 POP POP POP JUMP JUMPDEST PUSH32 0x4465706F73697420616D6F756E74206D75737420626520677265617465722074 PUSH0 DUP3 ADD MSTORE PUSH32 0x68616E207A65726F2E0000000000000000000000000000000000000000000000 PUSH1 0x20 DUP3 ADD MSTORE POP JUMP JUMPDEST PUSH0 PUSH2 0x2259 PUSH1 0x29 DUP4 PUSH2 0x137F JUMP JUMPDEST SWAP2 POP PUSH2 0x2264 DUP3 PUSH2 0x21FF JUMP JUMPDEST PUSH1 0x40 DUP3 ADD SWAP1 POP SWAP2 SWAP1 POP JUMP JUMPDEST PUSH0 PUSH1 0x20 DUP3 ADD SWAP1 POP DUP2 DUP2 SUB PUSH0 DUP4 ADD MSTORE PUSH2 0x2286 DUP2 PUSH2 0x224D JUMP JUMPDEST SWAP1 POP SWAP2 SWAP1 POP JUMP INVALID LOG2 PUSH5 0x6970667358 0x22 SLT KECCAK256 PUSH27 0x2F6787730646D8089FE0307472CC1CF7A3B7D94AC8A6CDB9BAB2F8 SWAP5 0xDB COINBASE PUSH20 0x64736F6C634300081A0033000000000000000000 "
				},
				"gasEstimates": {
					"creation": {
						"codeDepositCost": "1779800",
						"executionCost": "26140",
						"totalCost": "1805940"
					},
					"external": {
						"addExpert(address,string,string)": "infinite",
						"createProject(string,uint256)": "infinite",
						"depositFunds()": "infinite",
						"experts(address)": "infinite",
						"getExpert(address)": "infinite",
						"getProject(uint256)": "infinite",
						"investInProject(uint256)": "infinite",
						"owner()": "2550",
						"projectCount()": "2492",
						"projectInvestors(uint256,uint256)": "infinite",
						"projects(uint256)": "infinite",
						"totalFunds()": "2469",
						"withdrawFunds(uint256)": "infinite"
					}
				},
				"methodIdentifiers": {
					"addExpert(address,string,string)": "59d91e93",
					"createProject(string,uint256)": "91754a5d",
					"depositFunds()": "e2c41dbc",
					"experts(address)": "12572f5a",
					"getExpert(address)": "946d16c9",
					"getProject(uint256)": "f0f3f2c8",
					"investInProject(uint256)": "5b562fd8",
					"owner()": "8da5cb5b",
					"projectCount()": "36fbad26",
					"projectInvestors(uint256,uint256)": "8b44da95",
					"projects(uint256)": "107046bd",
					"totalFunds()": "968ed600",
					"withdrawFunds(uint256)": "155dd5ee"
				}
			},
			"storageLayout": {
				"storage": [
					{
						"astId": 3,
						"contract": "contracts/smartcontractldoge.sol:MemeCoinSecurityEcosystem",
						"label": "owner",
						"offset": 0,
						"slot": "0",
						"type": "t_address"
					},
					{
						"astId": 5,
						"contract": "contracts/smartcontractldoge.sol:MemeCoinSecurityEcosystem",
						"label": "totalFunds",
						"offset": 0,
						"slot": "1",
						"type": "t_uint256"
					},
					{
						"astId": 55,
						"contract": "contracts/smartcontractldoge.sol:MemeCoinSecurityEcosystem",
						"label": "experts",
						"offset": 0,
						"slot": "2",
						"type": "t_mapping(t_address,t_struct(Expert)31_storage)"
					},
					{
						"astId": 60,
						"contract": "contracts/smartcontractldoge.sol:MemeCoinSecurityEcosystem",
						"label": "projects",
						"offset": 0,
						"slot": "3",
						"type": "t_mapping(t_uint256,t_struct(Project)45_storage)"
					},
					{
						"astId": 66,
						"contract": "contracts/smartcontractldoge.sol:MemeCoinSecurityEcosystem",
						"label": "projectInvestors",
						"offset": 0,
						"slot": "4",
						"type": "t_mapping(t_uint256,t_array(t_struct(Investor)50_storage)dyn_storage)"
					},
					{
						"astId": 68,
						"contract": "contracts/smartcontractldoge.sol:MemeCoinSecurityEcosystem",
						"label": "projectCount",
						"offset": 0,
						"slot": "5",
						"type": "t_uint256"
					}
				],
				"types": {
					"t_address": {
						"encoding": "inplace",
						"label": "address",
						"numberOfBytes": "20"
					},
					"t_array(t_struct(Investor)50_storage)dyn_storage": {
						"base": "t_struct(Investor)50_storage",
						"encoding": "dynamic_array",
						"label": "struct MemeCoinSecurityEcosystem.Investor[]",
						"numberOfBytes": "32"
					},
					"t_bool": {
						"encoding": "inplace",
						"label": "bool",
						"numberOfBytes": "1"
					},
					"t_enum(ProjectStatus)22": {
						"encoding": "inplace",
						"label": "enum MemeCoinSecurityEcosystem.ProjectStatus",
						"numberOfBytes": "1"
					},
					"t_mapping(t_address,t_struct(Expert)31_storage)": {
						"encoding": "mapping",
						"key": "t_address",
						"label": "mapping(address => struct MemeCoinSecurityEcosystem.Expert)",
						"numberOfBytes": "32",
						"value": "t_struct(Expert)31_storage"
					},
					"t_mapping(t_uint256,t_array(t_struct(Investor)50_storage)dyn_storage)": {
						"encoding": "mapping",
						"key": "t_uint256",
						"label": "mapping(uint256 => struct MemeCoinSecurityEcosystem.Investor[])",
						"numberOfBytes": "32",
						"value": "t_array(t_struct(Investor)50_storage)dyn_storage"
					},
					"t_mapping(t_uint256,t_struct(Project)45_storage)": {
						"encoding": "mapping",
						"key": "t_uint256",
						"label": "mapping(uint256 => struct MemeCoinSecurityEcosystem.Project)",
						"numberOfBytes": "32",
						"value": "t_struct(Project)45_storage"
					},
					"t_string_storage": {
						"encoding": "bytes",
						"label": "string",
						"numberOfBytes": "32"
					},
					"t_struct(Expert)31_storage": {
						"encoding": "inplace",
						"label": "struct MemeCoinSecurityEcosystem.Expert",
						"members": [
							{
								"astId": 24,
								"contract": "contracts/smartcontractldoge.sol:MemeCoinSecurityEcosystem",
								"label": "expertAddress",
								"offset": 0,
								"slot": "0",
								"type": "t_address"
							},
							{
								"astId": 26,
								"contract": "contracts/smartcontractldoge.sol:MemeCoinSecurityEcosystem",
								"label": "name",
								"offset": 0,
								"slot": "1",
								"type": "t_string_storage"
							},
							{
								"astId": 28,
								"contract": "contracts/smartcontractldoge.sol:MemeCoinSecurityEcosystem",
								"label": "expertiseArea",
								"offset": 0,
								"slot": "2",
								"type": "t_string_storage"
							},
							{
								"astId": 30,
								"contract": "contracts/smartcontractldoge.sol:MemeCoinSecurityEcosystem",
								"label": "isVerified",
								"offset": 0,
								"slot": "3",
								"type": "t_bool"
							}
						],
						"numberOfBytes": "128"
					},
					"t_struct(Investor)50_storage": {
						"encoding": "inplace",
						"label": "struct MemeCoinSecurityEcosystem.Investor",
						"members": [
							{
								"astId": 47,
								"contract": "contracts/smartcontractldoge.sol:MemeCoinSecurityEcosystem",
								"label": "investorAddress",
								"offset": 0,
								"slot": "0",
								"type": "t_address"
							},
							{
								"astId": 49,
								"contract": "contracts/smartcontractldoge.sol:MemeCoinSecurityEcosystem",
								"label": "amountInvested",
								"offset": 0,
								"slot": "1",
								"type": "t_uint256"
							}
						],
						"numberOfBytes": "64"
					},
					"t_struct(Project)45_storage": {
						"encoding": "inplace",
						"label": "struct MemeCoinSecurityEcosystem.Project",
						"members": [
							{
								"astId": 33,
								"contract": "contracts/smartcontractldoge.sol:MemeCoinSecurityEcosystem",
								"label": "id",
								"offset": 0,
								"slot": "0",
								"type": "t_uint256"
							},
							{
								"astId": 35,
								"contract": "contracts/smartcontractldoge.sol:MemeCoinSecurityEcosystem",
								"label": "title",
								"offset": 0,
								"slot": "1",
								"type": "t_string_storage"
							},
							{
								"astId": 37,
								"contract": "contracts/smartcontractldoge.sol:MemeCoinSecurityEcosystem",
								"label": "creator",
								"offset": 0,
								"slot": "2",
								"type": "t_address"
							},
							{
								"astId": 39,
								"contract": "contracts/smartcontractldoge.sol:MemeCoinSecurityEcosystem",
								"label": "fundsNeeded",
								"offset": 0,
								"slot": "3",
								"type": "t_uint256"
							},
							{
								"astId": 41,
								"contract": "contracts/smartcontractldoge.sol:MemeCoinSecurityEcosystem",
								"label": "fundsRaised",
								"offset": 0,
								"slot": "4",
								"type": "t_uint256"
							},
							{
								"astId": 44,
								"contract": "contracts/smartcontractldoge.sol:MemeCoinSecurityEcosystem",
								"label": "status",
								"offset": 0,
								"slot": "5",
								"type": "t_enum(ProjectStatus)22"
							}
						],
						"numberOfBytes": "192"
					},
					"t_uint256": {
						"encoding": "inplace",
						"label": "uint256",
						"numberOfBytes": "32"
					}
				}
			},
			"userdoc": {
				"kind": "user",
				"methods": {},
				"version": 1
			}
		}
	}
}