{
	"contracts/Votingapp.sol": {
		"VotingContract": {
			"abi": [
				{
					"inputs": [],
					"stateMutability": "nonpayable",
					"type": "constructor"
				},
				{
					"anonymous": false,
					"inputs": [
						{
							"indexed": false,
							"internalType": "uint256",
							"name": "candidateId",
							"type": "uint256"
						},
						{
							"indexed": false,
							"internalType": "string",
							"name": "candidateName",
							"type": "string"
						}
					],
					"name": "CandidateAdded",
					"type": "event"
				},
				{
					"anonymous": false,
					"inputs": [
						{
							"indexed": false,
							"internalType": "address",
							"name": "voter",
							"type": "address"
						},
						{
							"indexed": false,
							"internalType": "uint256",
							"name": "candidateId",
							"type": "uint256"
						}
					],
					"name": "VoteCast",
					"type": "event"
				},
				{
					"anonymous": false,
					"inputs": [
						{
							"indexed": false,
							"internalType": "address",
							"name": "voter",
							"type": "address"
						}
					],
					"name": "VoterAdded",
					"type": "event"
				},
				{
					"anonymous": false,
					"inputs": [],
					"name": "VotingClosed",
					"type": "event"
				},
				{
					"anonymous": false,
					"inputs": [],
					"name": "VotingOpened",
					"type": "event"
				},
				{
					"inputs": [
						{
							"internalType": "string",
							"name": "_name",
							"type": "string"
						}
					],
					"name": "addCandidate",
					"outputs": [],
					"stateMutability": "nonpayable",
					"type": "function"
				},
				{
					"inputs": [
						{
							"internalType": "address",
							"name": "_voter",
							"type": "address"
						}
					],
					"name": "addVoter",
					"outputs": [],
					"stateMutability": "nonpayable",
					"type": "function"
				},
				{
					"inputs": [],
					"name": "admin",
					"outputs": [
						{
							"internalType": "address",
							"name": "",
							"type": "address"
						}
					],
					"stateMutability": "view",
					"type": "function"
				},
				{
					"inputs": [],
					"name": "candidateCount",
					"outputs": [
						{
							"internalType": "uint256",
							"name": "",
							"type": "uint256"
						}
					],
					"stateMutability": "view",
					"type": "function"
				},
				{
					"inputs": [
						{
							"internalType": "uint256",
							"name": "",
							"type": "uint256"
						}
					],
					"name": "candidates",
					"outputs": [
						{
							"internalType": "uint256",
							"name": "id",
							"type": "uint256"
						},
						{
							"internalType": "string",
							"name": "name",
							"type": "string"
						},
						{
							"internalType": "uint256",
							"name": "voteCount",
							"type": "uint256"
						}
					],
					"stateMutability": "view",
					"type": "function"
				},
				{
					"inputs": [],
					"name": "closeVoting",
					"outputs": [],
					"stateMutability": "nonpayable",
					"type": "function"
				},
				{
					"inputs": [],
					"name": "electionPhase",
					"outputs": [
						{
							"internalType": "enum VotingContract.ElectionPhase",
							"name": "",
							"type": "uint8"
						}
					],
					"stateMutability": "view",
					"type": "function"
				},
				{
					"inputs": [
						{
							"internalType": "uint256",
							"name": "_candidateId",
							"type": "uint256"
						}
					],
					"name": "getCandidateVotes",
					"outputs": [
						{
							"internalType": "uint256",
							"name": "",
							"type": "uint256"
						}
					],
					"stateMutability": "view",
					"type": "function"
				},
				{
					"inputs": [],
					"name": "getElectionStatus",
					"outputs": [
						{
							"internalType": "string",
							"name": "",
							"type": "string"
						}
					],
					"stateMutability": "view",
					"type": "function"
				},
				{
					"inputs": [],
					"name": "openVoting",
					"outputs": [],
					"stateMutability": "nonpayable",
					"type": "function"
				},
				{
					"inputs": [
						{
							"internalType": "uint256",
							"name": "_candidateId",
							"type": "uint256"
						}
					],
					"name": "vote",
					"outputs": [],
					"stateMutability": "nonpayable",
					"type": "function"
				},
				{
					"inputs": [
						{
							"internalType": "address",
							"name": "",
							"type": "address"
						}
					],
					"name": "voters",
					"outputs": [
						{
							"internalType": "bool",
							"name": "hasVoted",
							"type": "bool"
						},
						{
							"internalType": "uint256",
							"name": "votedCandidateId",
							"type": "uint256"
						}
					],
					"stateMutability": "view",
					"type": "function"
				}
			],
			"devdoc": {
				"kind": "dev",
				"methods": {},
				"version": 1
			},
			"evm": {
				"assembly": "    /* \"contracts/Votingapp.sol\":60:3512  contract VotingContract {... */\n  mstore(0x40, 0x80)\n    /* \"contracts/Votingapp.sol\":1266:1368  constructor() {... */\n  callvalue\n  dup1\n  iszero\n  tag_1\n  jumpi\n  0x00\n  dup1\n  revert\ntag_1:\n  pop\n    /* \"contracts/Votingapp.sol\":1299:1309  msg.sender */\n  caller\n    /* \"contracts/Votingapp.sol\":1291:1296  admin */\n  0x00\n  0x01\n    /* \"contracts/Votingapp.sol\":1291:1309  admin = msg.sender */\n  0x0100\n  exp\n  dup2\n  sload\n  dup2\n  0xffffffffffffffffffffffffffffffffffffffff\n  mul\n  not\n  and\n  swap1\n  dup4\n  0xffffffffffffffffffffffffffffffffffffffff\n  and\n  mul\n  or\n  swap1\n  sstore\n  pop\n    /* \"contracts/Votingapp.sol\":1336:1360  ElectionPhase.NotStarted */\n  0x00\n    /* \"contracts/Votingapp.sol\":1320:1333  electionPhase */\n  dup1\n  0x00\n    /* \"contracts/Votingapp.sol\":1320:1360  electionPhase = ElectionPhase.NotStarted */\n  0x0100\n  exp\n  dup2\n  sload\n  dup2\n  0xff\n  mul\n  not\n  and\n  swap1\n  dup4\n  0x02\n  dup2\n  gt\n  iszero\n  tag_4\n  jumpi\n  tag_5\n  tag_6\n  jump\t// in\ntag_5:\ntag_4:\n  mul\n  or\n  swap1\n  sstore\n  pop\n    /* \"contracts/Votingapp.sol\":60:3512  contract VotingContract {... */\n  jump(tag_7)\n    /* \"#utility.yul\":7:187   */\ntag_6:\n    /* \"#utility.yul\":55:132   */\n  0x4e487b7100000000000000000000000000000000000000000000000000000000\n    /* \"#utility.yul\":52:53   */\n  0x00\n    /* \"#utility.yul\":45:133   */\n  mstore\n    /* \"#utility.yul\":152:156   */\n  0x21\n    /* \"#utility.yul\":149:150   */\n  0x04\n    /* \"#utility.yul\":142:157   */\n  mstore\n    /* \"#utility.yul\":176:180   */\n  0x24\n    /* \"#utility.yul\":173:174   */\n  0x00\n    /* \"#utility.yul\":166:181   */\n  revert\n    /* \"contracts/Votingapp.sol\":60:3512  contract VotingContract {... */\ntag_7:\n  dataSize(sub_0)\n  dup1\n  dataOffset(sub_0)\n  0x00\n  codecopy\n  0x00\n  return\nstop\n\nsub_0: assembly {\n        /* \"contracts/Votingapp.sol\":60:3512  contract VotingContract {... */\n      mstore(0x40, 0x80)\n      callvalue\n      dup1\n      iszero\n      tag_1\n      jumpi\n      0x00\n      dup1\n      revert\n    tag_1:\n      pop\n      jumpi(tag_2, lt(calldatasize, 0x04))\n      shr(0xe0, calldataload(0x00))\n      dup1\n      0xa3ec138d\n      gt\n      tag_15\n      jumpi\n      dup1\n      0xa3ec138d\n      eq\n      tag_9\n      jumpi\n      dup1\n      0xa9a981a3\n      eq\n      tag_10\n      jumpi\n      dup1\n      0xaffc0670\n      eq\n      tag_11\n      jumpi\n      dup1\n      0xc631b292\n      eq\n      tag_12\n      jumpi\n      dup1\n      0xf4ab9adf\n      eq\n      tag_13\n      jumpi\n      dup1\n      0xf851a440\n      eq\n      tag_14\n      jumpi\n      jump(tag_2)\n    tag_15:\n      dup1\n      0x0121b93f\n      eq\n      tag_3\n      jumpi\n      dup1\n      0x122902a6\n      eq\n      tag_4\n      jumpi\n      dup1\n      0x265050b6\n      eq\n      tag_5\n      jumpi\n      dup1\n      0x3477ee2e\n      eq\n      tag_6\n      jumpi\n      dup1\n      0x462e91ec\n      eq\n      tag_7\n      jumpi\n      dup1\n      0x866163c0\n      eq\n      tag_8\n      jumpi\n    tag_2:\n      0x00\n      dup1\n      revert\n        /* \"contracts/Votingapp.sol\":2502:2929  function vote(uint _candidateId) public onlyDuringVoting onlyOnce {... */\n    tag_3:\n      tag_16\n      0x04\n      dup1\n      calldatasize\n      sub\n      dup2\n      add\n      swap1\n      tag_17\n      swap2\n      swap1\n      tag_18\n      jump\t// in\n    tag_17:\n      tag_19\n      jump\t// in\n    tag_16:\n      stop\n        /* \"contracts/Votingapp.sol\":3204:3509  function getElectionStatus() public view returns (string memory) {... */\n    tag_4:\n      tag_20\n      tag_21\n      jump\t// in\n    tag_20:\n      mload(0x40)\n      tag_22\n      swap2\n      swap1\n      tag_23\n      jump\t// in\n    tag_22:\n      mload(0x40)\n      dup1\n      swap2\n      sub\n      swap1\n      return\n        /* \"contracts/Votingapp.sol\":186:220  ElectionPhase public electionPhase */\n    tag_5:\n      tag_24\n      tag_25\n      jump\t// in\n    tag_24:\n      mload(0x40)\n      tag_26\n      swap2\n      swap1\n      tag_27\n      jump\t// in\n    tag_26:\n      mload(0x40)\n      dup1\n      swap2\n      sub\n      swap1\n      return\n        /* \"contracts/Votingapp.sol\":538:582  mapping(uint => Candidate) public candidates */\n    tag_6:\n      tag_28\n      0x04\n      dup1\n      calldatasize\n      sub\n      dup2\n      add\n      swap1\n      tag_29\n      swap2\n      swap1\n      tag_18\n      jump\t// in\n    tag_29:\n      tag_30\n      jump\t// in\n    tag_28:\n      mload(0x40)\n      tag_31\n      swap4\n      swap3\n      swap2\n      swap1\n      tag_32\n      jump\t// in\n    tag_31:\n      mload(0x40)\n      dup1\n      swap2\n      sub\n      swap1\n      return\n        /* \"contracts/Votingapp.sol\":1442:1665  function addCandidate(string memory _name) public onlyAdmin {... */\n    tag_7:\n      tag_33\n      0x04\n      dup1\n      calldatasize\n      sub\n      dup2\n      add\n      swap1\n      tag_34\n      swap2\n      swap1\n      tag_35\n      jump\t// in\n    tag_34:\n      tag_36\n      jump\t// in\n    tag_33:\n      stop\n        /* \"contracts/Votingapp.sol\":3006:3139  function getCandidateVotes(uint _candidateId) public view returns (uint) {... */\n    tag_8:\n      tag_37\n      0x04\n      dup1\n      calldatasize\n      sub\n      dup2\n      add\n      swap1\n      tag_38\n      swap2\n      swap1\n      tag_18\n      jump\t// in\n    tag_38:\n      tag_39\n      jump\t// in\n    tag_37:\n      mload(0x40)\n      tag_40\n      swap2\n      swap1\n      tag_41\n      jump\t// in\n    tag_40:\n      mload(0x40)\n      dup1\n      swap2\n      sub\n      swap1\n      return\n        /* \"contracts/Votingapp.sol\":589:628  mapping(address => Voter) public voters */\n    tag_9:\n      tag_42\n      0x04\n      dup1\n      calldatasize\n      sub\n      dup2\n      add\n      swap1\n      tag_43\n      swap2\n      swap1\n      tag_44\n      jump\t// in\n    tag_43:\n      tag_45\n      jump\t// in\n    tag_42:\n      mload(0x40)\n      tag_46\n      swap3\n      swap2\n      swap1\n      tag_47\n      jump\t// in\n    tag_46:\n      mload(0x40)\n      dup1\n      swap2\n      sub\n      swap1\n      return\n        /* \"contracts/Votingapp.sol\":505:531  uint public candidateCount */\n    tag_10:\n      tag_48\n      tag_49\n      jump\t// in\n    tag_48:\n      mload(0x40)\n      tag_50\n      swap2\n      swap1\n      tag_41\n      jump\t// in\n    tag_50:\n      mload(0x40)\n      dup1\n      swap2\n      sub\n      swap1\n      return\n        /* \"contracts/Votingapp.sol\":1941:2165  function openVoting() public onlyAdmin {... */\n    tag_11:\n      tag_51\n      tag_52\n      jump\t// in\n    tag_51:\n      stop\n        /* \"contracts/Votingapp.sol\":2236:2440  function closeVoting() public onlyAdmin {... */\n    tag_12:\n      tag_53\n      tag_54\n      jump\t// in\n    tag_53:\n      stop\n        /* \"contracts/Votingapp.sol\":1735:1871  function addVoter(address _voter) public onlyAdmin {... */\n    tag_13:\n      tag_55\n      0x04\n      dup1\n      calldatasize\n      sub\n      dup2\n      add\n      swap1\n      tag_56\n      swap2\n      swap1\n      tag_44\n      jump\t// in\n    tag_56:\n      tag_57\n      jump\t// in\n    tag_55:\n      stop\n        /* \"contracts/Votingapp.sol\":478:498  address public admin */\n    tag_14:\n      tag_58\n      tag_59\n      jump\t// in\n    tag_58:\n      mload(0x40)\n      tag_60\n      swap2\n      swap1\n      tag_61\n      jump\t// in\n    tag_60:\n      mload(0x40)\n      dup1\n      swap2\n      sub\n      swap1\n      return\n        /* \"contracts/Votingapp.sol\":2502:2929  function vote(uint _candidateId) public onlyDuringVoting onlyOnce {... */\n    tag_19:\n        /* \"contracts/Votingapp.sol\":1075:1093  ElectionPhase.Open */\n      0x01\n        /* \"contracts/Votingapp.sol\":1058:1093  electionPhase == ElectionPhase.Open */\n      0x02\n      dup2\n      gt\n      iszero\n      tag_63\n      jumpi\n      tag_64\n      tag_65\n      jump\t// in\n    tag_64:\n    tag_63:\n        /* \"contracts/Votingapp.sol\":1058:1071  electionPhase */\n      0x00\n      dup1\n      sload\n      swap1\n      0x0100\n      exp\n      swap1\n      div\n      0xff\n      and\n        /* \"contracts/Votingapp.sol\":1058:1093  electionPhase == ElectionPhase.Open */\n      0x02\n      dup2\n      gt\n      iszero\n      tag_66\n      jumpi\n      tag_67\n      tag_65\n      jump\t// in\n    tag_67:\n    tag_66:\n      eq\n        /* \"contracts/Votingapp.sol\":1050:1116  require(electionPhase == ElectionPhase.Open, \"Voting is not open\") */\n      tag_68\n      jumpi\n      mload(0x40)\n      0x08c379a000000000000000000000000000000000000000000000000000000000\n      dup2\n      mstore\n      0x04\n      add\n      tag_69\n      swap1\n      tag_70\n      jump\t// in\n    tag_69:\n      mload(0x40)\n      dup1\n      swap2\n      sub\n      swap1\n      revert\n    tag_68:\n        /* \"contracts/Votingapp.sol\":1184:1190  voters */\n      0x03\n        /* \"contracts/Votingapp.sol\":1184:1202  voters[msg.sender] */\n      0x00\n        /* \"contracts/Votingapp.sol\":1191:1201  msg.sender */\n      caller\n        /* \"contracts/Votingapp.sol\":1184:1202  voters[msg.sender] */\n      0xffffffffffffffffffffffffffffffffffffffff\n      and\n      0xffffffffffffffffffffffffffffffffffffffff\n      and\n      dup2\n      mstore\n      0x20\n      add\n      swap1\n      dup2\n      mstore\n      0x20\n      add\n      0x00\n      keccak256\n        /* \"contracts/Votingapp.sol\":1184:1211  voters[msg.sender].hasVoted */\n      0x00\n      add\n      0x00\n      swap1\n      sload\n      swap1\n      0x0100\n      exp\n      swap1\n      div\n      0xff\n      and\n        /* \"contracts/Votingapp.sol\":1183:1211  !voters[msg.sender].hasVoted */\n      iszero\n        /* \"contracts/Votingapp.sol\":1175:1238  require(!voters[msg.sender].hasVoted, \"You can only vote once\") */\n      tag_72\n      jumpi\n      mload(0x40)\n      0x08c379a000000000000000000000000000000000000000000000000000000000\n      dup2\n      mstore\n      0x04\n      add\n      tag_73\n      swap1\n      tag_74\n      jump\t// in\n    tag_73:\n      mload(0x40)\n      dup1\n      swap2\n      sub\n      swap1\n      revert\n    tag_72:\n        /* \"contracts/Votingapp.sol\":2618:2623  false */\n      0x00\n        /* \"contracts/Votingapp.sol\":2587:2623  voters[msg.sender].hasVoted == false */\n      iszero\n      iszero\n        /* \"contracts/Votingapp.sol\":2587:2593  voters */\n      0x03\n        /* \"contracts/Votingapp.sol\":2587:2605  voters[msg.sender] */\n      0x00\n        /* \"contracts/Votingapp.sol\":2594:2604  msg.sender */\n      caller\n        /* \"contracts/Votingapp.sol\":2587:2605  voters[msg.sender] */\n      0xffffffffffffffffffffffffffffffffffffffff\n      and\n      0xffffffffffffffffffffffffffffffffffffffff\n      and\n      dup2\n      mstore\n      0x20\n      add\n      swap1\n      dup2\n      mstore\n      0x20\n      add\n      0x00\n      keccak256\n        /* \"contracts/Votingapp.sol\":2587:2614  voters[msg.sender].hasVoted */\n      0x00\n      add\n      0x00\n      swap1\n      sload\n      swap1\n      0x0100\n      exp\n      swap1\n      div\n      0xff\n      and\n        /* \"contracts/Votingapp.sol\":2587:2623  voters[msg.sender].hasVoted == false */\n      iszero\n      iszero\n      eq\n        /* \"contracts/Votingapp.sol\":2579:2641  require(voters[msg.sender].hasVoted == false, \"Already voted\") */\n      tag_76\n      jumpi\n      mload(0x40)\n      0x08c379a000000000000000000000000000000000000000000000000000000000\n      dup2\n      mstore\n      0x04\n      add\n      tag_77\n      swap1\n      tag_78\n      jump\t// in\n    tag_77:\n      mload(0x40)\n      dup1\n      swap2\n      sub\n      swap1\n      revert\n    tag_76:\n        /* \"contracts/Votingapp.sol\":2691:2692  0 */\n      0x00\n        /* \"contracts/Votingapp.sol\":2660:2670  candidates */\n      0x02\n        /* \"contracts/Votingapp.sol\":2660:2684  candidates[_candidateId] */\n      0x00\n        /* \"contracts/Votingapp.sol\":2671:2683  _candidateId */\n      dup4\n        /* \"contracts/Votingapp.sol\":2660:2684  candidates[_candidateId] */\n      dup2\n      mstore\n      0x20\n      add\n      swap1\n      dup2\n      mstore\n      0x20\n      add\n      0x00\n      keccak256\n        /* \"contracts/Votingapp.sol\":2660:2687  candidates[_candidateId].id */\n      0x00\n      add\n      sload\n        /* \"contracts/Votingapp.sol\":2660:2692  candidates[_candidateId].id != 0 */\n      sub\n        /* \"contracts/Votingapp.sol\":2652:2714  require(candidates[_candidateId].id != 0, \"Invalid candidate\") */\n      tag_79\n      jumpi\n      mload(0x40)\n      0x08c379a000000000000000000000000000000000000000000000000000000000\n      dup2\n      mstore\n      0x04\n      add\n      tag_80\n      swap1\n      tag_81\n      jump\t// in\n    tag_80:\n      mload(0x40)\n      dup1\n      swap2\n      sub\n      swap1\n      revert\n    tag_79:\n        /* \"contracts/Votingapp.sol\":2757:2761  true */\n      0x01\n        /* \"contracts/Votingapp.sol\":2727:2733  voters */\n      0x03\n        /* \"contracts/Votingapp.sol\":2727:2745  voters[msg.sender] */\n      0x00\n        /* \"contracts/Votingapp.sol\":2734:2744  msg.sender */\n      caller\n        /* \"contracts/Votingapp.sol\":2727:2745  voters[msg.sender] */\n      0xffffffffffffffffffffffffffffffffffffffff\n      and\n      0xffffffffffffffffffffffffffffffffffffffff\n      and\n      dup2\n      mstore\n      0x20\n      add\n      swap1\n      dup2\n      mstore\n      0x20\n      add\n      0x00\n      keccak256\n        /* \"contracts/Votingapp.sol\":2727:2754  voters[msg.sender].hasVoted */\n      0x00\n      add\n      0x00\n        /* \"contracts/Votingapp.sol\":2727:2761  voters[msg.sender].hasVoted = true */\n      0x0100\n      exp\n      dup2\n      sload\n      dup2\n      0xff\n      mul\n      not\n      and\n      swap1\n      dup4\n      iszero\n      iszero\n      mul\n      or\n      swap1\n      sstore\n      pop\n        /* \"contracts/Votingapp.sol\":2810:2822  _candidateId */\n      dup1\n        /* \"contracts/Votingapp.sol\":2772:2778  voters */\n      0x03\n        /* \"contracts/Votingapp.sol\":2772:2790  voters[msg.sender] */\n      0x00\n        /* \"contracts/Votingapp.sol\":2779:2789  msg.sender */\n      caller\n        /* \"contracts/Votingapp.sol\":2772:2790  voters[msg.sender] */\n      0xffffffffffffffffffffffffffffffffffffffff\n      and\n      0xffffffffffffffffffffffffffffffffffffffff\n      and\n      dup2\n      mstore\n      0x20\n      add\n      swap1\n      dup2\n      mstore\n      0x20\n      add\n      0x00\n      keccak256\n        /* \"contracts/Votingapp.sol\":2772:2807  voters[msg.sender].votedCandidateId */\n      0x01\n      add\n        /* \"contracts/Votingapp.sol\":2772:2822  voters[msg.sender].votedCandidateId = _candidateId */\n      dup2\n      swap1\n      sstore\n      pop\n        /* \"contracts/Votingapp.sol\":2833:2843  candidates */\n      0x02\n        /* \"contracts/Votingapp.sol\":2833:2857  candidates[_candidateId] */\n      0x00\n        /* \"contracts/Votingapp.sol\":2844:2856  _candidateId */\n      dup3\n        /* \"contracts/Votingapp.sol\":2833:2857  candidates[_candidateId] */\n      dup2\n      mstore\n      0x20\n      add\n      swap1\n      dup2\n      mstore\n      0x20\n      add\n      0x00\n      keccak256\n        /* \"contracts/Votingapp.sol\":2833:2867  candidates[_candidateId].voteCount */\n      0x02\n      add\n      0x00\n        /* \"contracts/Votingapp.sol\":2833:2869  candidates[_candidateId].voteCount++ */\n      dup2\n      sload\n      dup1\n      swap3\n      swap2\n      swap1\n      tag_82\n      swap1\n      tag_83\n      jump\t// in\n    tag_82:\n      swap2\n      swap1\n      pop\n      sstore\n      pop\n        /* \"contracts/Votingapp.sol\":2887:2921  VoteCast(msg.sender, _candidateId) */\n      0xa36cc2bebb74db33e9f88110a07ef56e1b31b24b4c4f51b54b1664266e29f45b\n        /* \"contracts/Votingapp.sol\":2896:2906  msg.sender */\n      caller\n        /* \"contracts/Votingapp.sol\":2908:2920  _candidateId */\n      dup3\n        /* \"contracts/Votingapp.sol\":2887:2921  VoteCast(msg.sender, _candidateId) */\n      mload(0x40)\n      tag_84\n      swap3\n      swap2\n      swap1\n      tag_85\n      jump\t// in\n    tag_84:\n      mload(0x40)\n      dup1\n      swap2\n      sub\n      swap1\n      log1\n        /* \"contracts/Votingapp.sol\":2502:2929  function vote(uint _candidateId) public onlyDuringVoting onlyOnce {... */\n      pop\n      jump\t// out\n        /* \"contracts/Votingapp.sol\":3204:3509  function getElectionStatus() public view returns (string memory) {... */\n    tag_21:\n        /* \"contracts/Votingapp.sol\":3254:3267  string memory */\n      0x60\n        /* \"contracts/Votingapp.sol\":3301:3325  ElectionPhase.NotStarted */\n      0x00\n        /* \"contracts/Votingapp.sol\":3284:3325  electionPhase == ElectionPhase.NotStarted */\n      0x02\n      dup2\n      gt\n      iszero\n      tag_87\n      jumpi\n      tag_88\n      tag_65\n      jump\t// in\n    tag_88:\n    tag_87:\n        /* \"contracts/Votingapp.sol\":3284:3297  electionPhase */\n      0x00\n      dup1\n      sload\n      swap1\n      0x0100\n      exp\n      swap1\n      div\n      0xff\n      and\n        /* \"contracts/Votingapp.sol\":3284:3325  electionPhase == ElectionPhase.NotStarted */\n      0x02\n      dup2\n      gt\n      iszero\n      tag_89\n      jumpi\n      tag_90\n      tag_65\n      jump\t// in\n    tag_90:\n    tag_89:\n      sub\n        /* \"contracts/Votingapp.sol\":3280:3347  if (electionPhase == ElectionPhase.NotStarted) return \"Not Started\" */\n      tag_91\n      jumpi\n        /* \"contracts/Votingapp.sol\":3327:3347  return \"Not Started\" */\n      mload(0x40)\n      dup1\n      0x40\n      add\n      0x40\n      mstore\n      dup1\n      0x0b\n      dup2\n      mstore\n      0x20\n      add\n      0x4e6f742053746172746564000000000000000000000000000000000000000000\n      dup2\n      mstore\n      pop\n      swap1\n      pop\n      jump(tag_86)\n        /* \"contracts/Votingapp.sol\":3280:3347  if (electionPhase == ElectionPhase.NotStarted) return \"Not Started\" */\n    tag_91:\n        /* \"contracts/Votingapp.sol\":3379:3397  ElectionPhase.Open */\n      0x01\n        /* \"contracts/Votingapp.sol\":3362:3397  electionPhase == ElectionPhase.Open */\n      0x02\n      dup2\n      gt\n      iszero\n      tag_92\n      jumpi\n      tag_93\n      tag_65\n      jump\t// in\n    tag_93:\n    tag_92:\n        /* \"contracts/Votingapp.sol\":3362:3375  electionPhase */\n      0x00\n      dup1\n      sload\n      swap1\n      0x0100\n      exp\n      swap1\n      div\n      0xff\n      and\n        /* \"contracts/Votingapp.sol\":3362:3397  electionPhase == ElectionPhase.Open */\n      0x02\n      dup2\n      gt\n      iszero\n      tag_94\n      jumpi\n      tag_95\n      tag_65\n      jump\t// in\n    tag_95:\n    tag_94:\n      sub\n        /* \"contracts/Votingapp.sol\":3358:3412  if (electionPhase == ElectionPhase.Open) return \"Open\" */\n      tag_96\n      jumpi\n        /* \"contracts/Votingapp.sol\":3399:3412  return \"Open\" */\n      mload(0x40)\n      dup1\n      0x40\n      add\n      0x40\n      mstore\n      dup1\n      0x04\n      dup2\n      mstore\n      0x20\n      add\n      0x4f70656e00000000000000000000000000000000000000000000000000000000\n      dup2\n      mstore\n      pop\n      swap1\n      pop\n      jump(tag_86)\n        /* \"contracts/Votingapp.sol\":3358:3412  if (electionPhase == ElectionPhase.Open) return \"Open\" */\n    tag_96:\n        /* \"contracts/Votingapp.sol\":3444:3464  ElectionPhase.Closed */\n      0x02\n        /* \"contracts/Votingapp.sol\":3427:3464  electionPhase == ElectionPhase.Closed */\n      dup1\n      dup2\n      gt\n      iszero\n      tag_97\n      jumpi\n      tag_98\n      tag_65\n      jump\t// in\n    tag_98:\n    tag_97:\n        /* \"contracts/Votingapp.sol\":3427:3440  electionPhase */\n      0x00\n      dup1\n      sload\n      swap1\n      0x0100\n      exp\n      swap1\n      div\n      0xff\n      and\n        /* \"contracts/Votingapp.sol\":3427:3464  electionPhase == ElectionPhase.Closed */\n      0x02\n      dup2\n      gt\n      iszero\n      tag_99\n      jumpi\n      tag_100\n      tag_65\n      jump\t// in\n    tag_100:\n    tag_99:\n      sub\n        /* \"contracts/Votingapp.sol\":3423:3481  if (electionPhase == ElectionPhase.Closed) return \"Closed\" */\n      tag_101\n      jumpi\n        /* \"contracts/Votingapp.sol\":3466:3481  return \"Closed\" */\n      mload(0x40)\n      dup1\n      0x40\n      add\n      0x40\n      mstore\n      dup1\n      0x06\n      dup2\n      mstore\n      0x20\n      add\n      0x436c6f7365640000000000000000000000000000000000000000000000000000\n      dup2\n      mstore\n      pop\n      swap1\n      pop\n      jump(tag_86)\n        /* \"contracts/Votingapp.sol\":3423:3481  if (electionPhase == ElectionPhase.Closed) return \"Closed\" */\n    tag_101:\n        /* \"contracts/Votingapp.sol\":3492:3501  return \"\" */\n      mload(0x40)\n      dup1\n      0x20\n      add\n      0x40\n      mstore\n      dup1\n      0x00\n      dup2\n      mstore\n      pop\n      swap1\n      pop\n        /* \"contracts/Votingapp.sol\":3204:3509  function getElectionStatus() public view returns (string memory) {... */\n    tag_86:\n      swap1\n      jump\t// out\n        /* \"contracts/Votingapp.sol\":186:220  ElectionPhase public electionPhase */\n    tag_25:\n      0x00\n      dup1\n      sload\n      swap1\n      0x0100\n      exp\n      swap1\n      div\n      0xff\n      and\n      dup2\n      jump\t// out\n        /* \"contracts/Votingapp.sol\":538:582  mapping(uint => Candidate) public candidates */\n    tag_30:\n      mstore(0x20, 0x02)\n      dup1\n      0x00\n      mstore\n      keccak256(0x00, 0x40)\n      0x00\n      swap2\n      pop\n      swap1\n      pop\n      dup1\n      0x00\n      add\n      sload\n      swap1\n      dup1\n      0x01\n      add\n      dup1\n      sload\n      tag_102\n      swap1\n      tag_103\n      jump\t// in\n    tag_102:\n      dup1\n      0x1f\n      add\n      0x20\n      dup1\n      swap2\n      div\n      mul\n      0x20\n      add\n      mload(0x40)\n      swap1\n      dup2\n      add\n      0x40\n      mstore\n      dup1\n      swap3\n      swap2\n      swap1\n      dup2\n      dup2\n      mstore\n      0x20\n      add\n      dup3\n      dup1\n      sload\n      tag_104\n      swap1\n      tag_103\n      jump\t// in\n    tag_104:\n      dup1\n      iszero\n      tag_105\n      jumpi\n      dup1\n      0x1f\n      lt\n      tag_106\n      jumpi\n      0x0100\n      dup1\n      dup4\n      sload\n      div\n      mul\n      dup4\n      mstore\n      swap2\n      0x20\n      add\n      swap2\n      jump(tag_105)\n    tag_106:\n      dup3\n      add\n      swap2\n      swap1\n      0x00\n      mstore\n      keccak256(0x00, 0x20)\n      swap1\n    tag_107:\n      dup2\n      sload\n      dup2\n      mstore\n      swap1\n      0x01\n      add\n      swap1\n      0x20\n      add\n      dup1\n      dup4\n      gt\n      tag_107\n      jumpi\n      dup3\n      swap1\n      sub\n      0x1f\n      and\n      dup3\n      add\n      swap2\n    tag_105:\n      pop\n      pop\n      pop\n      pop\n      pop\n      swap1\n      dup1\n      0x02\n      add\n      sload\n      swap1\n      pop\n      dup4\n      jump\t// out\n        /* \"contracts/Votingapp.sol\":1442:1665  function addCandidate(string memory _name) public onlyAdmin {... */\n    tag_36:\n        /* \"contracts/Votingapp.sol\":939:944  admin */\n      0x00\n      0x01\n      swap1\n      sload\n      swap1\n      0x0100\n      exp\n      swap1\n      div\n      0xffffffffffffffffffffffffffffffffffffffff\n      and\n        /* \"contracts/Votingapp.sol\":925:944  msg.sender == admin */\n      0xffffffffffffffffffffffffffffffffffffffff\n      and\n        /* \"contracts/Votingapp.sol\":925:935  msg.sender */\n      caller\n        /* \"contracts/Votingapp.sol\":925:944  msg.sender == admin */\n      0xffffffffffffffffffffffffffffffffffffffff\n      and\n      eq\n        /* \"contracts/Votingapp.sol\":917:983  require(msg.sender == admin, \"Only admin can perform this action\") */\n      tag_109\n      jumpi\n      mload(0x40)\n      0x08c379a000000000000000000000000000000000000000000000000000000000\n      dup2\n      mstore\n      0x04\n      add\n      tag_110\n      swap1\n      tag_111\n      jump\t// in\n    tag_110:\n      mload(0x40)\n      dup1\n      swap2\n      sub\n      swap1\n      revert\n    tag_109:\n        /* \"contracts/Votingapp.sol\":1513:1527  candidateCount */\n      0x01\n      0x00\n        /* \"contracts/Votingapp.sol\":1513:1529  candidateCount++ */\n      dup2\n      sload\n      dup1\n      swap3\n      swap2\n      swap1\n      tag_113\n      swap1\n      tag_83\n      jump\t// in\n    tag_113:\n      swap2\n      swap1\n      pop\n      sstore\n      pop\n        /* \"contracts/Votingapp.sol\":1569:1604  Candidate(candidateCount, _name, 0) */\n      mload(0x40)\n      dup1\n      0x60\n      add\n      0x40\n      mstore\n      dup1\n        /* \"contracts/Votingapp.sol\":1579:1593  candidateCount */\n      sload(0x01)\n        /* \"contracts/Votingapp.sol\":1569:1604  Candidate(candidateCount, _name, 0) */\n      dup2\n      mstore\n      0x20\n      add\n        /* \"contracts/Votingapp.sol\":1595:1600  _name */\n      dup3\n        /* \"contracts/Votingapp.sol\":1569:1604  Candidate(candidateCount, _name, 0) */\n      dup2\n      mstore\n      0x20\n      add\n        /* \"contracts/Votingapp.sol\":1602:1603  0 */\n      0x00\n        /* \"contracts/Votingapp.sol\":1569:1604  Candidate(candidateCount, _name, 0) */\n      dup2\n      mstore\n      pop\n        /* \"contracts/Votingapp.sol\":1540:1550  candidates */\n      0x02\n        /* \"contracts/Votingapp.sol\":1540:1566  candidates[candidateCount] */\n      0x00\n        /* \"contracts/Votingapp.sol\":1551:1565  candidateCount */\n      sload(0x01)\n        /* \"contracts/Votingapp.sol\":1540:1566  candidates[candidateCount] */\n      dup2\n      mstore\n      0x20\n      add\n      swap1\n      dup2\n      mstore\n      0x20\n      add\n      0x00\n      keccak256\n        /* \"contracts/Votingapp.sol\":1540:1604  candidates[candidateCount] = Candidate(candidateCount, _name, 0) */\n      0x00\n      dup3\n      add\n      mload\n      dup2\n      0x00\n      add\n      sstore\n      0x20\n      dup3\n      add\n      mload\n      dup2\n      0x01\n      add\n      swap1\n      dup2\n      tag_114\n      swap2\n      swap1\n      tag_115\n      jump\t// in\n    tag_114:\n      pop\n      0x40\n      dup3\n      add\n      mload\n      dup2\n      0x02\n      add\n      sstore\n      swap1\n      pop\n      pop\n        /* \"contracts/Votingapp.sol\":1620:1657  CandidateAdded(candidateCount, _name) */\n      0xe83b2a43e7e82d975c8a0a6d2f045153c869e111136a34d1889ab7b598e396a3\n        /* \"contracts/Votingapp.sol\":1635:1649  candidateCount */\n      sload(0x01)\n        /* \"contracts/Votingapp.sol\":1651:1656  _name */\n      dup3\n        /* \"contracts/Votingapp.sol\":1620:1657  CandidateAdded(candidateCount, _name) */\n      mload(0x40)\n      tag_116\n      swap3\n      swap2\n      swap1\n      tag_117\n      jump\t// in\n    tag_116:\n      mload(0x40)\n      dup1\n      swap2\n      sub\n      swap1\n      log1\n        /* \"contracts/Votingapp.sol\":1442:1665  function addCandidate(string memory _name) public onlyAdmin {... */\n      pop\n      jump\t// out\n        /* \"contracts/Votingapp.sol\":3006:3139  function getCandidateVotes(uint _candidateId) public view returns (uint) {... */\n    tag_39:\n        /* \"contracts/Votingapp.sol\":3073:3077  uint */\n      0x00\n        /* \"contracts/Votingapp.sol\":3097:3107  candidates */\n      0x02\n        /* \"contracts/Votingapp.sol\":3097:3121  candidates[_candidateId] */\n      0x00\n        /* \"contracts/Votingapp.sol\":3108:3120  _candidateId */\n      dup4\n        /* \"contracts/Votingapp.sol\":3097:3121  candidates[_candidateId] */\n      dup2\n      mstore\n      0x20\n      add\n      swap1\n      dup2\n      mstore\n      0x20\n      add\n      0x00\n      keccak256\n        /* \"contracts/Votingapp.sol\":3097:3131  candidates[_candidateId].voteCount */\n      0x02\n      add\n      sload\n        /* \"contracts/Votingapp.sol\":3090:3131  return candidates[_candidateId].voteCount */\n      swap1\n      pop\n        /* \"contracts/Votingapp.sol\":3006:3139  function getCandidateVotes(uint _candidateId) public view returns (uint) {... */\n      swap2\n      swap1\n      pop\n      jump\t// out\n        /* \"contracts/Votingapp.sol\":589:628  mapping(address => Voter) public voters */\n    tag_45:\n      mstore(0x20, 0x03)\n      dup1\n      0x00\n      mstore\n      keccak256(0x00, 0x40)\n      0x00\n      swap2\n      pop\n      swap1\n      pop\n      dup1\n      0x00\n      add\n      0x00\n      swap1\n      sload\n      swap1\n      0x0100\n      exp\n      swap1\n      div\n      0xff\n      and\n      swap1\n      dup1\n      0x01\n      add\n      sload\n      swap1\n      pop\n      dup3\n      jump\t// out\n        /* \"contracts/Votingapp.sol\":505:531  uint public candidateCount */\n    tag_49:\n      sload(0x01)\n      dup2\n      jump\t// out\n        /* \"contracts/Votingapp.sol\":1941:2165  function openVoting() public onlyAdmin {... */\n    tag_52:\n        /* \"contracts/Votingapp.sol\":939:944  admin */\n      0x00\n      0x01\n      swap1\n      sload\n      swap1\n      0x0100\n      exp\n      swap1\n      div\n      0xffffffffffffffffffffffffffffffffffffffff\n      and\n        /* \"contracts/Votingapp.sol\":925:944  msg.sender == admin */\n      0xffffffffffffffffffffffffffffffffffffffff\n      and\n        /* \"contracts/Votingapp.sol\":925:935  msg.sender */\n      caller\n        /* \"contracts/Votingapp.sol\":925:944  msg.sender == admin */\n      0xffffffffffffffffffffffffffffffffffffffff\n      and\n      eq\n        /* \"contracts/Votingapp.sol\":917:983  require(msg.sender == admin, \"Only admin can perform this action\") */\n      tag_120\n      jumpi\n      mload(0x40)\n      0x08c379a000000000000000000000000000000000000000000000000000000000\n      dup2\n      mstore\n      0x04\n      add\n      tag_121\n      swap1\n      tag_111\n      jump\t// in\n    tag_121:\n      mload(0x40)\n      dup1\n      swap2\n      sub\n      swap1\n      revert\n    tag_120:\n        /* \"contracts/Votingapp.sol\":2016:2040  ElectionPhase.NotStarted */\n      0x00\n        /* \"contracts/Votingapp.sol\":1999:2040  electionPhase == ElectionPhase.NotStarted */\n      0x02\n      dup2\n      gt\n      iszero\n      tag_123\n      jumpi\n      tag_124\n      tag_65\n      jump\t// in\n    tag_124:\n    tag_123:\n        /* \"contracts/Votingapp.sol\":1999:2012  electionPhase */\n      0x00\n      dup1\n      sload\n      swap1\n      0x0100\n      exp\n      swap1\n      div\n      0xff\n      and\n        /* \"contracts/Votingapp.sol\":1999:2040  electionPhase == ElectionPhase.NotStarted */\n      0x02\n      dup2\n      gt\n      iszero\n      tag_125\n      jumpi\n      tag_126\n      tag_65\n      jump\t// in\n    tag_126:\n    tag_125:\n      eq\n        /* \"contracts/Votingapp.sol\":1991:2082  require(electionPhase == ElectionPhase.NotStarted, \"Election is already started or closed\") */\n      tag_127\n      jumpi\n      mload(0x40)\n      0x08c379a000000000000000000000000000000000000000000000000000000000\n      dup2\n      mstore\n      0x04\n      add\n      tag_128\n      swap1\n      tag_129\n      jump\t// in\n    tag_128:\n      mload(0x40)\n      dup1\n      swap2\n      sub\n      swap1\n      revert\n    tag_127:\n        /* \"contracts/Votingapp.sol\":2109:2127  ElectionPhase.Open */\n      0x01\n        /* \"contracts/Votingapp.sol\":2093:2106  electionPhase */\n      0x00\n      dup1\n        /* \"contracts/Votingapp.sol\":2093:2127  electionPhase = ElectionPhase.Open */\n      0x0100\n      exp\n      dup2\n      sload\n      dup2\n      0xff\n      mul\n      not\n      and\n      swap1\n      dup4\n      0x02\n      dup2\n      gt\n      iszero\n      tag_130\n      jumpi\n      tag_131\n      tag_65\n      jump\t// in\n    tag_131:\n    tag_130:\n      mul\n      or\n      swap1\n      sstore\n      pop\n        /* \"contracts/Votingapp.sol\":2143:2157  VotingOpened() */\n      0xa737faa632a36c00ccb4220893426e922f9442f1cab67acd8301f88a596d4abc\n      mload(0x40)\n      mload(0x40)\n      dup1\n      swap2\n      sub\n      swap1\n      log1\n        /* \"contracts/Votingapp.sol\":1941:2165  function openVoting() public onlyAdmin {... */\n      jump\t// out\n        /* \"contracts/Votingapp.sol\":2236:2440  function closeVoting() public onlyAdmin {... */\n    tag_54:\n        /* \"contracts/Votingapp.sol\":939:944  admin */\n      0x00\n      0x01\n      swap1\n      sload\n      swap1\n      0x0100\n      exp\n      swap1\n      div\n      0xffffffffffffffffffffffffffffffffffffffff\n      and\n        /* \"contracts/Votingapp.sol\":925:944  msg.sender == admin */\n      0xffffffffffffffffffffffffffffffffffffffff\n      and\n        /* \"contracts/Votingapp.sol\":925:935  msg.sender */\n      caller\n        /* \"contracts/Votingapp.sol\":925:944  msg.sender == admin */\n      0xffffffffffffffffffffffffffffffffffffffff\n      and\n      eq\n        /* \"contracts/Votingapp.sol\":917:983  require(msg.sender == admin, \"Only admin can perform this action\") */\n      tag_133\n      jumpi\n      mload(0x40)\n      0x08c379a000000000000000000000000000000000000000000000000000000000\n      dup2\n      mstore\n      0x04\n      add\n      tag_134\n      swap1\n      tag_111\n      jump\t// in\n    tag_134:\n      mload(0x40)\n      dup1\n      swap2\n      sub\n      swap1\n      revert\n    tag_133:\n        /* \"contracts/Votingapp.sol\":2312:2330  ElectionPhase.Open */\n      0x01\n        /* \"contracts/Votingapp.sol\":2295:2330  electionPhase == ElectionPhase.Open */\n      0x02\n      dup2\n      gt\n      iszero\n      tag_136\n      jumpi\n      tag_137\n      tag_65\n      jump\t// in\n    tag_137:\n    tag_136:\n        /* \"contracts/Votingapp.sol\":2295:2308  electionPhase */\n      0x00\n      dup1\n      sload\n      swap1\n      0x0100\n      exp\n      swap1\n      div\n      0xff\n      and\n        /* \"contracts/Votingapp.sol\":2295:2330  electionPhase == ElectionPhase.Open */\n      0x02\n      dup2\n      gt\n      iszero\n      tag_138\n      jumpi\n      tag_139\n      tag_65\n      jump\t// in\n    tag_139:\n    tag_138:\n      eq\n        /* \"contracts/Votingapp.sol\":2287:2355  require(electionPhase == ElectionPhase.Open, \"Election is not open\") */\n      tag_140\n      jumpi\n      mload(0x40)\n      0x08c379a000000000000000000000000000000000000000000000000000000000\n      dup2\n      mstore\n      0x04\n      add\n      tag_141\n      swap1\n      tag_142\n      jump\t// in\n    tag_141:\n      mload(0x40)\n      dup1\n      swap2\n      sub\n      swap1\n      revert\n    tag_140:\n        /* \"contracts/Votingapp.sol\":2382:2402  ElectionPhase.Closed */\n      0x02\n        /* \"contracts/Votingapp.sol\":2366:2379  electionPhase */\n      0x00\n      dup1\n        /* \"contracts/Votingapp.sol\":2366:2402  electionPhase = ElectionPhase.Closed */\n      0x0100\n      exp\n      dup2\n      sload\n      dup2\n      0xff\n      mul\n      not\n      and\n      swap1\n      dup4\n      0x02\n      dup2\n      gt\n      iszero\n      tag_143\n      jumpi\n      tag_144\n      tag_65\n      jump\t// in\n    tag_144:\n    tag_143:\n      mul\n      or\n      swap1\n      sstore\n      pop\n        /* \"contracts/Votingapp.sol\":2418:2432  VotingClosed() */\n      0x66b6cb4a09abc3bf1cacc3c67420258856ffdad0deba9078cbd1658957b50218\n      mload(0x40)\n      mload(0x40)\n      dup1\n      swap2\n      sub\n      swap1\n      log1\n        /* \"contracts/Votingapp.sol\":2236:2440  function closeVoting() public onlyAdmin {... */\n      jump\t// out\n        /* \"contracts/Votingapp.sol\":1735:1871  function addVoter(address _voter) public onlyAdmin {... */\n    tag_57:\n        /* \"contracts/Votingapp.sol\":939:944  admin */\n      0x00\n      0x01\n      swap1\n      sload\n      swap1\n      0x0100\n      exp\n      swap1\n      div\n      0xffffffffffffffffffffffffffffffffffffffff\n      and\n        /* \"contracts/Votingapp.sol\":925:944  msg.sender == admin */\n      0xffffffffffffffffffffffffffffffffffffffff\n      and\n        /* \"contracts/Votingapp.sol\":925:935  msg.sender */\n      caller\n        /* \"contracts/Votingapp.sol\":925:944  msg.sender == admin */\n      0xffffffffffffffffffffffffffffffffffffffff\n      and\n      eq\n        /* \"contracts/Votingapp.sol\":917:983  require(msg.sender == admin, \"Only admin can perform this action\") */\n      tag_146\n      jumpi\n      mload(0x40)\n      0x08c379a000000000000000000000000000000000000000000000000000000000\n      dup2\n      mstore\n      0x04\n      add\n      tag_147\n      swap1\n      tag_111\n      jump\t// in\n    tag_147:\n      mload(0x40)\n      dup1\n      swap2\n      sub\n      swap1\n      revert\n    tag_146:\n        /* \"contracts/Votingapp.sol\":1814:1829  Voter(false, 0) */\n      mload(0x40)\n      dup1\n      0x40\n      add\n      0x40\n      mstore\n      dup1\n        /* \"contracts/Votingapp.sol\":1820:1825  false */\n      0x00\n        /* \"contracts/Votingapp.sol\":1814:1829  Voter(false, 0) */\n      iszero\n      iszero\n      dup2\n      mstore\n      0x20\n      add\n        /* \"contracts/Votingapp.sol\":1827:1828  0 */\n      0x00\n        /* \"contracts/Votingapp.sol\":1814:1829  Voter(false, 0) */\n      dup2\n      mstore\n      pop\n        /* \"contracts/Votingapp.sol\":1797:1803  voters */\n      0x03\n        /* \"contracts/Votingapp.sol\":1797:1811  voters[_voter] */\n      0x00\n        /* \"contracts/Votingapp.sol\":1804:1810  _voter */\n      dup4\n        /* \"contracts/Votingapp.sol\":1797:1811  voters[_voter] */\n      0xffffffffffffffffffffffffffffffffffffffff\n      and\n      0xffffffffffffffffffffffffffffffffffffffff\n      and\n      dup2\n      mstore\n      0x20\n      add\n      swap1\n      dup2\n      mstore\n      0x20\n      add\n      0x00\n      keccak256\n        /* \"contracts/Votingapp.sol\":1797:1829  voters[_voter] = Voter(false, 0) */\n      0x00\n      dup3\n      add\n      mload\n      dup2\n      0x00\n      add\n      exp(0x0100, 0x00)\n      dup2\n      sload\n      dup2\n      0xff\n      mul\n      not\n      and\n      swap1\n      dup4\n      iszero\n      iszero\n      mul\n      or\n      swap1\n      sstore\n      pop\n      0x20\n      dup3\n      add\n      mload\n      dup2\n      0x01\n      add\n      sstore\n      swap1\n      pop\n      pop\n        /* \"contracts/Votingapp.sol\":1845:1863  VoterAdded(_voter) */\n      0xa636f4a11e2d3ba7f89d042ecb0a6b886716e98cd49d8fd876ee0f73bced42b8\n        /* \"contracts/Votingapp.sol\":1856:1862  _voter */\n      dup2\n        /* \"contracts/Votingapp.sol\":1845:1863  VoterAdded(_voter) */\n      mload(0x40)\n      tag_149\n      swap2\n      swap1\n      tag_61\n      jump\t// in\n    tag_149:\n      mload(0x40)\n      dup1\n      swap2\n      sub\n      swap1\n      log1\n        /* \"contracts/Votingapp.sol\":1735:1871  function addVoter(address _voter) public onlyAdmin {... */\n      pop\n      jump\t// out\n        /* \"contracts/Votingapp.sol\":478:498  address public admin */\n    tag_59:\n      0x00\n      0x01\n      swap1\n      sload\n      swap1\n      0x0100\n      exp\n      swap1\n      div\n      0xffffffffffffffffffffffffffffffffffffffff\n      and\n      dup2\n      jump\t// out\n        /* \"#utility.yul\":7:82   */\n    tag_150:\n        /* \"#utility.yul\":40:46   */\n      0x00\n        /* \"#utility.yul\":73:75   */\n      0x40\n        /* \"#utility.yul\":67:76   */\n      mload\n        /* \"#utility.yul\":57:76   */\n      swap1\n      pop\n        /* \"#utility.yul\":7:82   */\n      swap1\n      jump\t// out\n        /* \"#utility.yul\":88:205   */\n    tag_151:\n        /* \"#utility.yul\":197:198   */\n      0x00\n        /* \"#utility.yul\":194:195   */\n      dup1\n        /* \"#utility.yul\":187:199   */\n      revert\n        /* \"#utility.yul\":211:328   */\n    tag_152:\n        /* \"#utility.yul\":320:321   */\n      0x00\n        /* \"#utility.yul\":317:318   */\n      dup1\n        /* \"#utility.yul\":310:322   */\n      revert\n        /* \"#utility.yul\":334:411   */\n    tag_153:\n        /* \"#utility.yul\":371:378   */\n      0x00\n        /* \"#utility.yul\":400:405   */\n      dup2\n        /* \"#utility.yul\":389:405   */\n      swap1\n      pop\n        /* \"#utility.yul\":334:411   */\n      swap2\n      swap1\n      pop\n      jump\t// out\n        /* \"#utility.yul\":417:539   */\n    tag_154:\n        /* \"#utility.yul\":490:514   */\n      tag_219\n        /* \"#utility.yul\":508:513   */\n      dup2\n        /* \"#utility.yul\":490:514   */\n      tag_153\n      jump\t// in\n    tag_219:\n        /* \"#utility.yul\":483:488   */\n      dup2\n        /* \"#utility.yul\":480:515   */\n      eq\n        /* \"#utility.yul\":470:533   */\n      tag_220\n      jumpi\n        /* \"#utility.yul\":529:530   */\n      0x00\n        /* \"#utility.yul\":526:527   */\n      dup1\n        /* \"#utility.yul\":519:531   */\n      revert\n        /* \"#utility.yul\":470:533   */\n    tag_220:\n        /* \"#utility.yul\":417:539   */\n      pop\n      jump\t// out\n        /* \"#utility.yul\":545:684   */\n    tag_155:\n        /* \"#utility.yul\":591:596   */\n      0x00\n        /* \"#utility.yul\":629:635   */\n      dup2\n        /* \"#utility.yul\":616:636   */\n      calldataload\n        /* \"#utility.yul\":607:636   */\n      swap1\n      pop\n        /* \"#utility.yul\":645:678   */\n      tag_222\n        /* \"#utility.yul\":672:677   */\n      dup2\n        /* \"#utility.yul\":645:678   */\n      tag_154\n      jump\t// in\n    tag_222:\n        /* \"#utility.yul\":545:684   */\n      swap3\n      swap2\n      pop\n      pop\n      jump\t// out\n        /* \"#utility.yul\":690:1019   */\n    tag_18:\n        /* \"#utility.yul\":749:755   */\n      0x00\n        /* \"#utility.yul\":798:800   */\n      0x20\n        /* \"#utility.yul\":786:795   */\n      dup3\n        /* \"#utility.yul\":777:784   */\n      dup5\n        /* \"#utility.yul\":773:796   */\n      sub\n        /* \"#utility.yul\":769:801   */\n      slt\n        /* \"#utility.yul\":766:885   */\n      iszero\n      tag_224\n      jumpi\n        /* \"#utility.yul\":804:883   */\n      tag_225\n      tag_151\n      jump\t// in\n    tag_225:\n        /* \"#utility.yul\":766:885   */\n    tag_224:\n        /* \"#utility.yul\":924:925   */\n      0x00\n        /* \"#utility.yul\":949:1002   */\n      tag_226\n        /* \"#utility.yul\":994:1001   */\n      dup5\n        /* \"#utility.yul\":985:991   */\n      dup3\n        /* \"#utility.yul\":974:983   */\n      dup6\n        /* \"#utility.yul\":970:992   */\n      add\n        /* \"#utility.yul\":949:1002   */\n      tag_155\n      jump\t// in\n    tag_226:\n        /* \"#utility.yul\":939:1002   */\n      swap2\n      pop\n        /* \"#utility.yul\":895:1012   */\n      pop\n        /* \"#utility.yul\":690:1019   */\n      swap3\n      swap2\n      pop\n      pop\n      jump\t// out\n        /* \"#utility.yul\":1025:1124   */\n    tag_156:\n        /* \"#utility.yul\":1077:1083   */\n      0x00\n        /* \"#utility.yul\":1111:1116   */\n      dup2\n        /* \"#utility.yul\":1105:1117   */\n      mload\n        /* \"#utility.yul\":1095:1117   */\n      swap1\n      pop\n        /* \"#utility.yul\":1025:1124   */\n      swap2\n      swap1\n      pop\n      jump\t// out\n        /* \"#utility.yul\":1130:1299   */\n    tag_157:\n        /* \"#utility.yul\":1214:1225   */\n      0x00\n        /* \"#utility.yul\":1248:1254   */\n      dup3\n        /* \"#utility.yul\":1243:1246   */\n      dup3\n        /* \"#utility.yul\":1236:1255   */\n      mstore\n        /* \"#utility.yul\":1288:1292   */\n      0x20\n        /* \"#utility.yul\":1283:1286   */\n      dup3\n        /* \"#utility.yul\":1279:1293   */\n      add\n        /* \"#utility.yul\":1264:1293   */\n      swap1\n      pop\n        /* \"#utility.yul\":1130:1299   */\n      swap3\n      swap2\n      pop\n      pop\n      jump\t// out\n        /* \"#utility.yul\":1305:1444   */\n    tag_158:\n        /* \"#utility.yul\":1394:1400   */\n      dup3\n        /* \"#utility.yul\":1389:1392   */\n      dup2\n        /* \"#utility.yul\":1384:1387   */\n      dup4\n        /* \"#utility.yul\":1378:1401   */\n      mcopy\n        /* \"#utility.yul\":1435:1436   */\n      0x00\n        /* \"#utility.yul\":1426:1432   */\n      dup4\n        /* \"#utility.yul\":1421:1424   */\n      dup4\n        /* \"#utility.yul\":1417:1433   */\n      add\n        /* \"#utility.yul\":1410:1437   */\n      mstore\n        /* \"#utility.yul\":1305:1444   */\n      pop\n      pop\n      pop\n      jump\t// out\n        /* \"#utility.yul\":1450:1552   */\n    tag_159:\n        /* \"#utility.yul\":1491:1497   */\n      0x00\n        /* \"#utility.yul\":1542:1544   */\n      0x1f\n        /* \"#utility.yul\":1538:1545   */\n      not\n        /* \"#utility.yul\":1533:1535   */\n      0x1f\n        /* \"#utility.yul\":1526:1531   */\n      dup4\n        /* \"#utility.yul\":1522:1536   */\n      add\n        /* \"#utility.yul\":1518:1546   */\n      and\n        /* \"#utility.yul\":1508:1546   */\n      swap1\n      pop\n        /* \"#utility.yul\":1450:1552   */\n      swap2\n      swap1\n      pop\n      jump\t// out\n        /* \"#utility.yul\":1558:1935   */\n    tag_160:\n        /* \"#utility.yul\":1646:1649   */\n      0x00\n        /* \"#utility.yul\":1674:1713   */\n      tag_232\n        /* \"#utility.yul\":1707:1712   */\n      dup3\n        /* \"#utility.yul\":1674:1713   */\n      tag_156\n      jump\t// in\n    tag_232:\n        /* \"#utility.yul\":1729:1800   */\n      tag_233\n        /* \"#utility.yul\":1793:1799   */\n      dup2\n        /* \"#utility.yul\":1788:1791   */\n      dup6\n        /* \"#utility.yul\":1729:1800   */\n      tag_157\n      jump\t// in\n    tag_233:\n        /* \"#utility.yul\":1722:1800   */\n      swap4\n      pop\n        /* \"#utility.yul\":1809:1874   */\n      tag_234\n        /* \"#utility.yul\":1867:1873   */\n      dup2\n        /* \"#utility.yul\":1862:1865   */\n      dup6\n        /* \"#utility.yul\":1855:1859   */\n      0x20\n        /* \"#utility.yul\":1848:1853   */\n      dup7\n        /* \"#utility.yul\":1844:1860   */\n      add\n        /* \"#utility.yul\":1809:1874   */\n      tag_158\n      jump\t// in\n    tag_234:\n        /* \"#utility.yul\":1899:1928   */\n      tag_235\n        /* \"#utility.yul\":1921:1927   */\n      dup2\n        /* \"#utility.yul\":1899:1928   */\n      tag_159\n      jump\t// in\n    tag_235:\n        /* \"#utility.yul\":1894:1897   */\n      dup5\n        /* \"#utility.yul\":1890:1929   */\n      add\n        /* \"#utility.yul\":1883:1929   */\n      swap2\n      pop\n        /* \"#utility.yul\":1650:1935   */\n      pop\n        /* \"#utility.yul\":1558:1935   */\n      swap3\n      swap2\n      pop\n      pop\n      jump\t// out\n        /* \"#utility.yul\":1941:2254   */\n    tag_23:\n        /* \"#utility.yul\":2054:2058   */\n      0x00\n        /* \"#utility.yul\":2092:2094   */\n      0x20\n        /* \"#utility.yul\":2081:2090   */\n      dup3\n        /* \"#utility.yul\":2077:2095   */\n      add\n        /* \"#utility.yul\":2069:2095   */\n      swap1\n      pop\n        /* \"#utility.yul\":2141:2150   */\n      dup2\n        /* \"#utility.yul\":2135:2139   */\n      dup2\n        /* \"#utility.yul\":2131:2151   */\n      sub\n        /* \"#utility.yul\":2127:2128   */\n      0x00\n        /* \"#utility.yul\":2116:2125   */\n      dup4\n        /* \"#utility.yul\":2112:2129   */\n      add\n        /* \"#utility.yul\":2105:2152   */\n      mstore\n        /* \"#utility.yul\":2169:2247   */\n      tag_237\n        /* \"#utility.yul\":2242:2246   */\n      dup2\n        /* \"#utility.yul\":2233:2239   */\n      dup5\n        /* \"#utility.yul\":2169:2247   */\n      tag_160\n      jump\t// in\n    tag_237:\n        /* \"#utility.yul\":2161:2247   */\n      swap1\n      pop\n        /* \"#utility.yul\":1941:2254   */\n      swap3\n      swap2\n      pop\n      pop\n      jump\t// out\n        /* \"#utility.yul\":2260:2440   */\n    tag_65:\n        /* \"#utility.yul\":2308:2385   */\n      0x4e487b7100000000000000000000000000000000000000000000000000000000\n        /* \"#utility.yul\":2305:2306   */\n      0x00\n        /* \"#utility.yul\":2298:2386   */\n      mstore\n        /* \"#utility.yul\":2405:2409   */\n      0x21\n        /* \"#utility.yul\":2402:2403   */\n      0x04\n        /* \"#utility.yul\":2395:2410   */\n      mstore\n        /* \"#utility.yul\":2429:2433   */\n      0x24\n        /* \"#utility.yul\":2426:2427   */\n      0x00\n        /* \"#utility.yul\":2419:2434   */\n      revert\n        /* \"#utility.yul\":2446:2566   */\n    tag_161:\n        /* \"#utility.yul\":2534:2535   */\n      0x03\n        /* \"#utility.yul\":2527:2532   */\n      dup2\n        /* \"#utility.yul\":2524:2536   */\n      lt\n        /* \"#utility.yul\":2514:2560   */\n      tag_240\n      jumpi\n        /* \"#utility.yul\":2540:2558   */\n      tag_241\n      tag_65\n      jump\t// in\n    tag_241:\n        /* \"#utility.yul\":2514:2560   */\n    tag_240:\n        /* \"#utility.yul\":2446:2566   */\n      pop\n      jump\t// out\n        /* \"#utility.yul\":2572:2713   */\n    tag_162:\n        /* \"#utility.yul\":2624:2631   */\n      0x00\n        /* \"#utility.yul\":2653:2658   */\n      dup2\n        /* \"#utility.yul\":2642:2658   */\n      swap1\n      pop\n        /* \"#utility.yul\":2659:2707   */\n      tag_243\n        /* \"#utility.yul\":2701:2706   */\n      dup3\n        /* \"#utility.yul\":2659:2707   */\n      tag_161\n      jump\t// in\n    tag_243:\n        /* \"#utility.yul\":2572:2713   */\n      swap2\n      swap1\n      pop\n      jump\t// out\n        /* \"#utility.yul\":2719:2860   */\n    tag_163:\n        /* \"#utility.yul\":2782:2791   */\n      0x00\n        /* \"#utility.yul\":2815:2854   */\n      tag_245\n        /* \"#utility.yul\":2848:2853   */\n      dup3\n        /* \"#utility.yul\":2815:2854   */\n      tag_162\n      jump\t// in\n    tag_245:\n        /* \"#utility.yul\":2802:2854   */\n      swap1\n      pop\n        /* \"#utility.yul\":2719:2860   */\n      swap2\n      swap1\n      pop\n      jump\t// out\n        /* \"#utility.yul\":2866:3023   */\n    tag_164:\n        /* \"#utility.yul\":2966:3016   */\n      tag_247\n        /* \"#utility.yul\":3010:3015   */\n      dup2\n        /* \"#utility.yul\":2966:3016   */\n      tag_163\n      jump\t// in\n    tag_247:\n        /* \"#utility.yul\":2961:2964   */\n      dup3\n        /* \"#utility.yul\":2954:3017   */\n      mstore\n        /* \"#utility.yul\":2866:3023   */\n      pop\n      pop\n      jump\t// out\n        /* \"#utility.yul\":3029:3277   */\n    tag_27:\n        /* \"#utility.yul\":3135:3139   */\n      0x00\n        /* \"#utility.yul\":3173:3175   */\n      0x20\n        /* \"#utility.yul\":3162:3171   */\n      dup3\n        /* \"#utility.yul\":3158:3176   */\n      add\n        /* \"#utility.yul\":3150:3176   */\n      swap1\n      pop\n        /* \"#utility.yul\":3186:3270   */\n      tag_249\n        /* \"#utility.yul\":3267:3268   */\n      0x00\n        /* \"#utility.yul\":3256:3265   */\n      dup4\n        /* \"#utility.yul\":3252:3269   */\n      add\n        /* \"#utility.yul\":3243:3249   */\n      dup5\n        /* \"#utility.yul\":3186:3270   */\n      tag_164\n      jump\t// in\n    tag_249:\n        /* \"#utility.yul\":3029:3277   */\n      swap3\n      swap2\n      pop\n      pop\n      jump\t// out\n        /* \"#utility.yul\":3283:3401   */\n    tag_165:\n        /* \"#utility.yul\":3370:3394   */\n      tag_251\n        /* \"#utility.yul\":3388:3393   */\n      dup2\n        /* \"#utility.yul\":3370:3394   */\n      tag_153\n      jump\t// in\n    tag_251:\n        /* \"#utility.yul\":3365:3368   */\n      dup3\n        /* \"#utility.yul\":3358:3395   */\n      mstore\n        /* \"#utility.yul\":3283:3401   */\n      pop\n      pop\n      jump\t// out\n        /* \"#utility.yul\":3407:3940   */\n    tag_32:\n        /* \"#utility.yul\":3576:3580   */\n      0x00\n        /* \"#utility.yul\":3614:3616   */\n      0x60\n        /* \"#utility.yul\":3603:3612   */\n      dup3\n        /* \"#utility.yul\":3599:3617   */\n      add\n        /* \"#utility.yul\":3591:3617   */\n      swap1\n      pop\n        /* \"#utility.yul\":3627:3698   */\n      tag_253\n        /* \"#utility.yul\":3695:3696   */\n      0x00\n        /* \"#utility.yul\":3684:3693   */\n      dup4\n        /* \"#utility.yul\":3680:3697   */\n      add\n        /* \"#utility.yul\":3671:3677   */\n      dup7\n        /* \"#utility.yul\":3627:3698   */\n      tag_165\n      jump\t// in\n    tag_253:\n        /* \"#utility.yul\":3745:3754   */\n      dup2\n        /* \"#utility.yul\":3739:3743   */\n      dup2\n        /* \"#utility.yul\":3735:3755   */\n      sub\n        /* \"#utility.yul\":3730:3732   */\n      0x20\n        /* \"#utility.yul\":3719:3728   */\n      dup4\n        /* \"#utility.yul\":3715:3733   */\n      add\n        /* \"#utility.yul\":3708:3756   */\n      mstore\n        /* \"#utility.yul\":3773:3851   */\n      tag_254\n        /* \"#utility.yul\":3846:3850   */\n      dup2\n        /* \"#utility.yul\":3837:3843   */\n      dup6\n        /* \"#utility.yul\":3773:3851   */\n      tag_160\n      jump\t// in\n    tag_254:\n        /* \"#utility.yul\":3765:3851   */\n      swap1\n      pop\n        /* \"#utility.yul\":3861:3933   */\n      tag_255\n        /* \"#utility.yul\":3929:3931   */\n      0x40\n        /* \"#utility.yul\":3918:3927   */\n      dup4\n        /* \"#utility.yul\":3914:3932   */\n      add\n        /* \"#utility.yul\":3905:3911   */\n      dup5\n        /* \"#utility.yul\":3861:3933   */\n      tag_165\n      jump\t// in\n    tag_255:\n        /* \"#utility.yul\":3407:3940   */\n      swap5\n      swap4\n      pop\n      pop\n      pop\n      pop\n      jump\t// out\n        /* \"#utility.yul\":3946:4063   */\n    tag_166:\n        /* \"#utility.yul\":4055:4056   */\n      0x00\n        /* \"#utility.yul\":4052:4053   */\n      dup1\n        /* \"#utility.yul\":4045:4057   */\n      revert\n        /* \"#utility.yul\":4069:4186   */\n    tag_167:\n        /* \"#utility.yul\":4178:4179   */\n      0x00\n        /* \"#utility.yul\":4175:4176   */\n      dup1\n        /* \"#utility.yul\":4168:4180   */\n      revert\n        /* \"#utility.yul\":4192:4372   */\n    tag_168:\n        /* \"#utility.yul\":4240:4317   */\n      0x4e487b7100000000000000000000000000000000000000000000000000000000\n        /* \"#utility.yul\":4237:4238   */\n      0x00\n        /* \"#utility.yul\":4230:4318   */\n      mstore\n        /* \"#utility.yul\":4337:4341   */\n      0x41\n        /* \"#utility.yul\":4334:4335   */\n      0x04\n        /* \"#utility.yul\":4327:4342   */\n      mstore\n        /* \"#utility.yul\":4361:4365   */\n      0x24\n        /* \"#utility.yul\":4358:4359   */\n      0x00\n        /* \"#utility.yul\":4351:4366   */\n      revert\n        /* \"#utility.yul\":4378:4659   */\n    tag_169:\n        /* \"#utility.yul\":4461:4488   */\n      tag_260\n        /* \"#utility.yul\":4483:4487   */\n      dup3\n        /* \"#utility.yul\":4461:4488   */\n      tag_159\n      jump\t// in\n    tag_260:\n        /* \"#utility.yul\":4453:4459   */\n      dup2\n        /* \"#utility.yul\":4449:4489   */\n      add\n        /* \"#utility.yul\":4591:4597   */\n      dup2\n        /* \"#utility.yul\":4579:4589   */\n      dup2\n        /* \"#utility.yul\":4576:4598   */\n      lt\n        /* \"#utility.yul\":4555:4573   */\n      0xffffffffffffffff\n        /* \"#utility.yul\":4543:4553   */\n      dup3\n        /* \"#utility.yul\":4540:4574   */\n      gt\n        /* \"#utility.yul\":4537:4599   */\n      or\n        /* \"#utility.yul\":4534:4622   */\n      iszero\n      tag_261\n      jumpi\n        /* \"#utility.yul\":4602:4620   */\n      tag_262\n      tag_168\n      jump\t// in\n    tag_262:\n        /* \"#utility.yul\":4534:4622   */\n    tag_261:\n        /* \"#utility.yul\":4642:4652   */\n      dup1\n        /* \"#utility.yul\":4638:4640   */\n      0x40\n        /* \"#utility.yul\":4631:4653   */\n      mstore\n        /* \"#utility.yul\":4421:4659   */\n      pop\n        /* \"#utility.yul\":4378:4659   */\n      pop\n      pop\n      jump\t// out\n        /* \"#utility.yul\":4665:4794   */\n    tag_170:\n        /* \"#utility.yul\":4699:4705   */\n      0x00\n        /* \"#utility.yul\":4726:4746   */\n      tag_264\n      tag_150\n      jump\t// in\n    tag_264:\n        /* \"#utility.yul\":4716:4746   */\n      swap1\n      pop\n        /* \"#utility.yul\":4755:4788   */\n      tag_265\n        /* \"#utility.yul\":4783:4787   */\n      dup3\n        /* \"#utility.yul\":4775:4781   */\n      dup3\n        /* \"#utility.yul\":4755:4788   */\n      tag_169\n      jump\t// in\n    tag_265:\n        /* \"#utility.yul\":4665:4794   */\n      swap2\n      swap1\n      pop\n      jump\t// out\n        /* \"#utility.yul\":4800:5108   */\n    tag_171:\n        /* \"#utility.yul\":4862:4866   */\n      0x00\n        /* \"#utility.yul\":4952:4970   */\n      0xffffffffffffffff\n        /* \"#utility.yul\":4944:4950   */\n      dup3\n        /* \"#utility.yul\":4941:4971   */\n      gt\n        /* \"#utility.yul\":4938:4994   */\n      iszero\n      tag_267\n      jumpi\n        /* \"#utility.yul\":4974:4992   */\n      tag_268\n      tag_168\n      jump\t// in\n    tag_268:\n        /* \"#utility.yul\":4938:4994   */\n    tag_267:\n        /* \"#utility.yul\":5012:5041   */\n      tag_269\n        /* \"#utility.yul\":5034:5040   */\n      dup3\n        /* \"#utility.yul\":5012:5041   */\n      tag_159\n      jump\t// in\n    tag_269:\n        /* \"#utility.yul\":5004:5041   */\n      swap1\n      pop\n        /* \"#utility.yul\":5096:5100   */\n      0x20\n        /* \"#utility.yul\":5090:5094   */\n      dup2\n        /* \"#utility.yul\":5086:5101   */\n      add\n        /* \"#utility.yul\":5078:5101   */\n      swap1\n      pop\n        /* \"#utility.yul\":4800:5108   */\n      swap2\n      swap1\n      pop\n      jump\t// out\n        /* \"#utility.yul\":5114:5262   */\n    tag_172:\n        /* \"#utility.yul\":5212:5218   */\n      dup3\n        /* \"#utility.yul\":5207:5210   */\n      dup2\n        /* \"#utility.yul\":5202:5205   */\n      dup4\n        /* \"#utility.yul\":5189:5219   */\n      calldatacopy\n        /* \"#utility.yul\":5253:5254   */\n      0x00\n        /* \"#utility.yul\":5244:5250   */\n      dup4\n        /* \"#utility.yul\":5239:5242   */\n      dup4\n        /* \"#utility.yul\":5235:5251   */\n      add\n        /* \"#utility.yul\":5228:5255   */\n      mstore\n        /* \"#utility.yul\":5114:5262   */\n      pop\n      pop\n      pop\n      jump\t// out\n        /* \"#utility.yul\":5268:5693   */\n    tag_173:\n        /* \"#utility.yul\":5346:5351   */\n      0x00\n        /* \"#utility.yul\":5371:5437   */\n      tag_272\n        /* \"#utility.yul\":5387:5436   */\n      tag_273\n        /* \"#utility.yul\":5429:5435   */\n      dup5\n        /* \"#utility.yul\":5387:5436   */\n      tag_171\n      jump\t// in\n    tag_273:\n        /* \"#utility.yul\":5371:5437   */\n      tag_170\n      jump\t// in\n    tag_272:\n        /* \"#utility.yul\":5362:5437   */\n      swap1\n      pop\n        /* \"#utility.yul\":5460:5466   */\n      dup3\n        /* \"#utility.yul\":5453:5458   */\n      dup2\n        /* \"#utility.yul\":5446:5467   */\n      mstore\n        /* \"#utility.yul\":5498:5502   */\n      0x20\n        /* \"#utility.yul\":5491:5496   */\n      dup2\n        /* \"#utility.yul\":5487:5503   */\n      add\n        /* \"#utility.yul\":5536:5539   */\n      dup5\n        /* \"#utility.yul\":5527:5533   */\n      dup5\n        /* \"#utility.yul\":5522:5525   */\n      dup5\n        /* \"#utility.yul\":5518:5534   */\n      add\n        /* \"#utility.yul\":5515:5540   */\n      gt\n        /* \"#utility.yul\":5512:5624   */\n      iszero\n      tag_274\n      jumpi\n        /* \"#utility.yul\":5543:5622   */\n      tag_275\n      tag_167\n      jump\t// in\n    tag_275:\n        /* \"#utility.yul\":5512:5624   */\n    tag_274:\n        /* \"#utility.yul\":5633:5687   */\n      tag_276\n        /* \"#utility.yul\":5680:5686   */\n      dup5\n        /* \"#utility.yul\":5675:5678   */\n      dup3\n        /* \"#utility.yul\":5670:5673   */\n      dup6\n        /* \"#utility.yul\":5633:5687   */\n      tag_172\n      jump\t// in\n    tag_276:\n        /* \"#utility.yul\":5352:5693   */\n      pop\n        /* \"#utility.yul\":5268:5693   */\n      swap4\n      swap3\n      pop\n      pop\n      pop\n      jump\t// out\n        /* \"#utility.yul\":5713:6053   */\n    tag_174:\n        /* \"#utility.yul\":5769:5774   */\n      0x00\n        /* \"#utility.yul\":5818:5821   */\n      dup3\n        /* \"#utility.yul\":5811:5815   */\n      0x1f\n        /* \"#utility.yul\":5803:5809   */\n      dup4\n        /* \"#utility.yul\":5799:5816   */\n      add\n        /* \"#utility.yul\":5795:5822   */\n      slt\n        /* \"#utility.yul\":5785:5907   */\n      tag_278\n      jumpi\n        /* \"#utility.yul\":5826:5905   */\n      tag_279\n      tag_166\n      jump\t// in\n    tag_279:\n        /* \"#utility.yul\":5785:5907   */\n    tag_278:\n        /* \"#utility.yul\":5943:5949   */\n      dup2\n        /* \"#utility.yul\":5930:5950   */\n      calldataload\n        /* \"#utility.yul\":5968:6047   */\n      tag_280\n        /* \"#utility.yul\":6043:6046   */\n      dup5\n        /* \"#utility.yul\":6035:6041   */\n      dup3\n        /* \"#utility.yul\":6028:6032   */\n      0x20\n        /* \"#utility.yul\":6020:6026   */\n      dup7\n        /* \"#utility.yul\":6016:6033   */\n      add\n        /* \"#utility.yul\":5968:6047   */\n      tag_173\n      jump\t// in\n    tag_280:\n        /* \"#utility.yul\":5959:6047   */\n      swap2\n      pop\n        /* \"#utility.yul\":5775:6053   */\n      pop\n        /* \"#utility.yul\":5713:6053   */\n      swap3\n      swap2\n      pop\n      pop\n      jump\t// out\n        /* \"#utility.yul\":6059:6568   */\n    tag_35:\n        /* \"#utility.yul\":6128:6134   */\n      0x00\n        /* \"#utility.yul\":6177:6179   */\n      0x20\n        /* \"#utility.yul\":6165:6174   */\n      dup3\n        /* \"#utility.yul\":6156:6163   */\n      dup5\n        /* \"#utility.yul\":6152:6175   */\n      sub\n        /* \"#utility.yul\":6148:6180   */\n      slt\n        /* \"#utility.yul\":6145:6264   */\n      iszero\n      tag_282\n      jumpi\n        /* \"#utility.yul\":6183:6262   */\n      tag_283\n      tag_151\n      jump\t// in\n    tag_283:\n        /* \"#utility.yul\":6145:6264   */\n    tag_282:\n        /* \"#utility.yul\":6331:6332   */\n      0x00\n        /* \"#utility.yul\":6320:6329   */\n      dup3\n        /* \"#utility.yul\":6316:6333   */\n      add\n        /* \"#utility.yul\":6303:6334   */\n      calldataload\n        /* \"#utility.yul\":6361:6379   */\n      0xffffffffffffffff\n        /* \"#utility.yul\":6353:6359   */\n      dup2\n        /* \"#utility.yul\":6350:6380   */\n      gt\n        /* \"#utility.yul\":6347:6464   */\n      iszero\n      tag_284\n      jumpi\n        /* \"#utility.yul\":6383:6462   */\n      tag_285\n      tag_152\n      jump\t// in\n    tag_285:\n        /* \"#utility.yul\":6347:6464   */\n    tag_284:\n        /* \"#utility.yul\":6488:6551   */\n      tag_286\n        /* \"#utility.yul\":6543:6550   */\n      dup5\n        /* \"#utility.yul\":6534:6540   */\n      dup3\n        /* \"#utility.yul\":6523:6532   */\n      dup6\n        /* \"#utility.yul\":6519:6541   */\n      add\n        /* \"#utility.yul\":6488:6551   */\n      tag_174\n      jump\t// in\n    tag_286:\n        /* \"#utility.yul\":6478:6551   */\n      swap2\n      pop\n        /* \"#utility.yul\":6274:6561   */\n      pop\n        /* \"#utility.yul\":6059:6568   */\n      swap3\n      swap2\n      pop\n      pop\n      jump\t// out\n        /* \"#utility.yul\":6574:6796   */\n    tag_41:\n        /* \"#utility.yul\":6667:6671   */\n      0x00\n        /* \"#utility.yul\":6705:6707   */\n      0x20\n        /* \"#utility.yul\":6694:6703   */\n      dup3\n        /* \"#utility.yul\":6690:6708   */\n      add\n        /* \"#utility.yul\":6682:6708   */\n      swap1\n      pop\n        /* \"#utility.yul\":6718:6789   */\n      tag_288\n        /* \"#utility.yul\":6786:6787   */\n      0x00\n        /* \"#utility.yul\":6775:6784   */\n      dup4\n        /* \"#utility.yul\":6771:6788   */\n      add\n        /* \"#utility.yul\":6762:6768   */\n      dup5\n        /* \"#utility.yul\":6718:6789   */\n      tag_165\n      jump\t// in\n    tag_288:\n        /* \"#utility.yul\":6574:6796   */\n      swap3\n      swap2\n      pop\n      pop\n      jump\t// out\n        /* \"#utility.yul\":6802:6928   */\n    tag_175:\n        /* \"#utility.yul\":6839:6846   */\n      0x00\n        /* \"#utility.yul\":6879:6921   */\n      0xffffffffffffffffffffffffffffffffffffffff\n        /* \"#utility.yul\":6872:6877   */\n      dup3\n        /* \"#utility.yul\":6868:6922   */\n      and\n        /* \"#utility.yul\":6857:6922   */\n      swap1\n      pop\n        /* \"#utility.yul\":6802:6928   */\n      swap2\n      swap1\n      pop\n      jump\t// out\n        /* \"#utility.yul\":6934:7030   */\n    tag_176:\n        /* \"#utility.yul\":6971:6978   */\n      0x00\n        /* \"#utility.yul\":7000:7024   */\n      tag_291\n        /* \"#utility.yul\":7018:7023   */\n      dup3\n        /* \"#utility.yul\":7000:7024   */\n      tag_175\n      jump\t// in\n    tag_291:\n        /* \"#utility.yul\":6989:7024   */\n      swap1\n      pop\n        /* \"#utility.yul\":6934:7030   */\n      swap2\n      swap1\n      pop\n      jump\t// out\n        /* \"#utility.yul\":7036:7158   */\n    tag_177:\n        /* \"#utility.yul\":7109:7133   */\n      tag_293\n        /* \"#utility.yul\":7127:7132   */\n      dup2\n        /* \"#utility.yul\":7109:7133   */\n      tag_176\n      jump\t// in\n    tag_293:\n        /* \"#utility.yul\":7102:7107   */\n      dup2\n        /* \"#utility.yul\":7099:7134   */\n      eq\n        /* \"#utility.yul\":7089:7152   */\n      tag_294\n      jumpi\n        /* \"#utility.yul\":7148:7149   */\n      0x00\n        /* \"#utility.yul\":7145:7146   */\n      dup1\n        /* \"#utility.yul\":7138:7150   */\n      revert\n        /* \"#utility.yul\":7089:7152   */\n    tag_294:\n        /* \"#utility.yul\":7036:7158   */\n      pop\n      jump\t// out\n        /* \"#utility.yul\":7164:7303   */\n    tag_178:\n        /* \"#utility.yul\":7210:7215   */\n      0x00\n        /* \"#utility.yul\":7248:7254   */\n      dup2\n        /* \"#utility.yul\":7235:7255   */\n      calldataload\n        /* \"#utility.yul\":7226:7255   */\n      swap1\n      pop\n        /* \"#utility.yul\":7264:7297   */\n      tag_296\n        /* \"#utility.yul\":7291:7296   */\n      dup2\n        /* \"#utility.yul\":7264:7297   */\n      tag_177\n      jump\t// in\n    tag_296:\n        /* \"#utility.yul\":7164:7303   */\n      swap3\n      swap2\n      pop\n      pop\n      jump\t// out\n        /* \"#utility.yul\":7309:7638   */\n    tag_44:\n        /* \"#utility.yul\":7368:7374   */\n      0x00\n        /* \"#utility.yul\":7417:7419   */\n      0x20\n        /* \"#utility.yul\":7405:7414   */\n      dup3\n        /* \"#utility.yul\":7396:7403   */\n      dup5\n        /* \"#utility.yul\":7392:7415   */\n      sub\n        /* \"#utility.yul\":7388:7420   */\n      slt\n        /* \"#utility.yul\":7385:7504   */\n      iszero\n      tag_298\n      jumpi\n        /* \"#utility.yul\":7423:7502   */\n      tag_299\n      tag_151\n      jump\t// in\n    tag_299:\n        /* \"#utility.yul\":7385:7504   */\n    tag_298:\n        /* \"#utility.yul\":7543:7544   */\n      0x00\n        /* \"#utility.yul\":7568:7621   */\n      tag_300\n        /* \"#utility.yul\":7613:7620   */\n      dup5\n        /* \"#utility.yul\":7604:7610   */\n      dup3\n        /* \"#utility.yul\":7593:7602   */\n      dup6\n        /* \"#utility.yul\":7589:7611   */\n      add\n        /* \"#utility.yul\":7568:7621   */\n      tag_178\n      jump\t// in\n    tag_300:\n        /* \"#utility.yul\":7558:7621   */\n      swap2\n      pop\n        /* \"#utility.yul\":7514:7631   */\n      pop\n        /* \"#utility.yul\":7309:7638   */\n      swap3\n      swap2\n      pop\n      pop\n      jump\t// out\n        /* \"#utility.yul\":7644:7734   */\n    tag_179:\n        /* \"#utility.yul\":7678:7685   */\n      0x00\n        /* \"#utility.yul\":7721:7726   */\n      dup2\n        /* \"#utility.yul\":7714:7727   */\n      iszero\n        /* \"#utility.yul\":7707:7728   */\n      iszero\n        /* \"#utility.yul\":7696:7728   */\n      swap1\n      pop\n        /* \"#utility.yul\":7644:7734   */\n      swap2\n      swap1\n      pop\n      jump\t// out\n        /* \"#utility.yul\":7740:7849   */\n    tag_180:\n        /* \"#utility.yul\":7821:7842   */\n      tag_303\n        /* \"#utility.yul\":7836:7841   */\n      dup2\n        /* \"#utility.yul\":7821:7842   */\n      tag_179\n      jump\t// in\n    tag_303:\n        /* \"#utility.yul\":7816:7819   */\n      dup3\n        /* \"#utility.yul\":7809:7843   */\n      mstore\n        /* \"#utility.yul\":7740:7849   */\n      pop\n      pop\n      jump\t// out\n        /* \"#utility.yul\":7855:8175   */\n    tag_47:\n        /* \"#utility.yul\":7970:7974   */\n      0x00\n        /* \"#utility.yul\":8008:8010   */\n      0x40\n        /* \"#utility.yul\":7997:8006   */\n      dup3\n        /* \"#utility.yul\":7993:8011   */\n      add\n        /* \"#utility.yul\":7985:8011   */\n      swap1\n      pop\n        /* \"#utility.yul\":8021:8086   */\n      tag_305\n        /* \"#utility.yul\":8083:8084   */\n      0x00\n        /* \"#utility.yul\":8072:8081   */\n      dup4\n        /* \"#utility.yul\":8068:8085   */\n      add\n        /* \"#utility.yul\":8059:8065   */\n      dup6\n        /* \"#utility.yul\":8021:8086   */\n      tag_180\n      jump\t// in\n    tag_305:\n        /* \"#utility.yul\":8096:8168   */\n      tag_306\n        /* \"#utility.yul\":8164:8166   */\n      0x20\n        /* \"#utility.yul\":8153:8162   */\n      dup4\n        /* \"#utility.yul\":8149:8167   */\n      add\n        /* \"#utility.yul\":8140:8146   */\n      dup5\n        /* \"#utility.yul\":8096:8168   */\n      tag_165\n      jump\t// in\n    tag_306:\n        /* \"#utility.yul\":7855:8175   */\n      swap4\n      swap3\n      pop\n      pop\n      pop\n      jump\t// out\n        /* \"#utility.yul\":8181:8299   */\n    tag_181:\n        /* \"#utility.yul\":8268:8292   */\n      tag_308\n        /* \"#utility.yul\":8286:8291   */\n      dup2\n        /* \"#utility.yul\":8268:8292   */\n      tag_176\n      jump\t// in\n    tag_308:\n        /* \"#utility.yul\":8263:8266   */\n      dup3\n        /* \"#utility.yul\":8256:8293   */\n      mstore\n        /* \"#utility.yul\":8181:8299   */\n      pop\n      pop\n      jump\t// out\n        /* \"#utility.yul\":8305:8527   */\n    tag_61:\n        /* \"#utility.yul\":8398:8402   */\n      0x00\n        /* \"#utility.yul\":8436:8438   */\n      0x20\n        /* \"#utility.yul\":8425:8434   */\n      dup3\n        /* \"#utility.yul\":8421:8439   */\n      add\n        /* \"#utility.yul\":8413:8439   */\n      swap1\n      pop\n        /* \"#utility.yul\":8449:8520   */\n      tag_310\n        /* \"#utility.yul\":8517:8518   */\n      0x00\n        /* \"#utility.yul\":8506:8515   */\n      dup4\n        /* \"#utility.yul\":8502:8519   */\n      add\n        /* \"#utility.yul\":8493:8499   */\n      dup5\n        /* \"#utility.yul\":8449:8520   */\n      tag_181\n      jump\t// in\n    tag_310:\n        /* \"#utility.yul\":8305:8527   */\n      swap3\n      swap2\n      pop\n      pop\n      jump\t// out\n        /* \"#utility.yul\":8533:8701   */\n    tag_182:\n        /* \"#utility.yul\":8673:8693   */\n      0x566f74696e67206973206e6f74206f70656e0000000000000000000000000000\n        /* \"#utility.yul\":8669:8670   */\n      0x00\n        /* \"#utility.yul\":8661:8667   */\n      dup3\n        /* \"#utility.yul\":8657:8671   */\n      add\n        /* \"#utility.yul\":8650:8694   */\n      mstore\n        /* \"#utility.yul\":8533:8701   */\n      pop\n      jump\t// out\n        /* \"#utility.yul\":8707:9073   */\n    tag_183:\n        /* \"#utility.yul\":8849:8852   */\n      0x00\n        /* \"#utility.yul\":8870:8937   */\n      tag_313\n        /* \"#utility.yul\":8934:8936   */\n      0x12\n        /* \"#utility.yul\":8929:8932   */\n      dup4\n        /* \"#utility.yul\":8870:8937   */\n      tag_157\n      jump\t// in\n    tag_313:\n        /* \"#utility.yul\":8863:8937   */\n      swap2\n      pop\n        /* \"#utility.yul\":8946:9039   */\n      tag_314\n        /* \"#utility.yul\":9035:9038   */\n      dup3\n        /* \"#utility.yul\":8946:9039   */\n      tag_182\n      jump\t// in\n    tag_314:\n        /* \"#utility.yul\":9064:9066   */\n      0x20\n        /* \"#utility.yul\":9059:9062   */\n      dup3\n        /* \"#utility.yul\":9055:9067   */\n      add\n        /* \"#utility.yul\":9048:9067   */\n      swap1\n      pop\n        /* \"#utility.yul\":8707:9073   */\n      swap2\n      swap1\n      pop\n      jump\t// out\n        /* \"#utility.yul\":9079:9498   */\n    tag_70:\n        /* \"#utility.yul\":9245:9249   */\n      0x00\n        /* \"#utility.yul\":9283:9285   */\n      0x20\n        /* \"#utility.yul\":9272:9281   */\n      dup3\n        /* \"#utility.yul\":9268:9286   */\n      add\n        /* \"#utility.yul\":9260:9286   */\n      swap1\n      pop\n        /* \"#utility.yul\":9332:9341   */\n      dup2\n        /* \"#utility.yul\":9326:9330   */\n      dup2\n        /* \"#utility.yul\":9322:9342   */\n      sub\n        /* \"#utility.yul\":9318:9319   */\n      0x00\n        /* \"#utility.yul\":9307:9316   */\n      dup4\n        /* \"#utility.yul\":9303:9320   */\n      add\n        /* \"#utility.yul\":9296:9343   */\n      mstore\n        /* \"#utility.yul\":9360:9491   */\n      tag_316\n        /* \"#utility.yul\":9486:9490   */\n      dup2\n        /* \"#utility.yul\":9360:9491   */\n      tag_183\n      jump\t// in\n    tag_316:\n        /* \"#utility.yul\":9352:9491   */\n      swap1\n      pop\n        /* \"#utility.yul\":9079:9498   */\n      swap2\n      swap1\n      pop\n      jump\t// out\n        /* \"#utility.yul\":9504:9676   */\n    tag_184:\n        /* \"#utility.yul\":9644:9668   */\n      0x596f752063616e206f6e6c7920766f7465206f6e636500000000000000000000\n        /* \"#utility.yul\":9640:9641   */\n      0x00\n        /* \"#utility.yul\":9632:9638   */\n      dup3\n        /* \"#utility.yul\":9628:9642   */\n      add\n        /* \"#utility.yul\":9621:9669   */\n      mstore\n        /* \"#utility.yul\":9504:9676   */\n      pop\n      jump\t// out\n        /* \"#utility.yul\":9682:10048   */\n    tag_185:\n        /* \"#utility.yul\":9824:9827   */\n      0x00\n        /* \"#utility.yul\":9845:9912   */\n      tag_319\n        /* \"#utility.yul\":9909:9911   */\n      0x16\n        /* \"#utility.yul\":9904:9907   */\n      dup4\n        /* \"#utility.yul\":9845:9912   */\n      tag_157\n      jump\t// in\n    tag_319:\n        /* \"#utility.yul\":9838:9912   */\n      swap2\n      pop\n        /* \"#utility.yul\":9921:10014   */\n      tag_320\n        /* \"#utility.yul\":10010:10013   */\n      dup3\n        /* \"#utility.yul\":9921:10014   */\n      tag_184\n      jump\t// in\n    tag_320:\n        /* \"#utility.yul\":10039:10041   */\n      0x20\n        /* \"#utility.yul\":10034:10037   */\n      dup3\n        /* \"#utility.yul\":10030:10042   */\n      add\n        /* \"#utility.yul\":10023:10042   */\n      swap1\n      pop\n        /* \"#utility.yul\":9682:10048   */\n      swap2\n      swap1\n      pop\n      jump\t// out\n        /* \"#utility.yul\":10054:10473   */\n    tag_74:\n        /* \"#utility.yul\":10220:10224   */\n      0x00\n        /* \"#utility.yul\":10258:10260   */\n      0x20\n        /* \"#utility.yul\":10247:10256   */\n      dup3\n        /* \"#utility.yul\":10243:10261   */\n      add\n        /* \"#utility.yul\":10235:10261   */\n      swap1\n      pop\n        /* \"#utility.yul\":10307:10316   */\n      dup2\n        /* \"#utility.yul\":10301:10305   */\n      dup2\n        /* \"#utility.yul\":10297:10317   */\n      sub\n        /* \"#utility.yul\":10293:10294   */\n      0x00\n        /* \"#utility.yul\":10282:10291   */\n      dup4\n        /* \"#utility.yul\":10278:10295   */\n      add\n        /* \"#utility.yul\":10271:10318   */\n      mstore\n        /* \"#utility.yul\":10335:10466   */\n      tag_322\n        /* \"#utility.yul\":10461:10465   */\n      dup2\n        /* \"#utility.yul\":10335:10466   */\n      tag_185\n      jump\t// in\n    tag_322:\n        /* \"#utility.yul\":10327:10466   */\n      swap1\n      pop\n        /* \"#utility.yul\":10054:10473   */\n      swap2\n      swap1\n      pop\n      jump\t// out\n        /* \"#utility.yul\":10479:10642   */\n    tag_186:\n        /* \"#utility.yul\":10619:10634   */\n      0x416c726561647920766f74656400000000000000000000000000000000000000\n        /* \"#utility.yul\":10615:10616   */\n      0x00\n        /* \"#utility.yul\":10607:10613   */\n      dup3\n        /* \"#utility.yul\":10603:10617   */\n      add\n        /* \"#utility.yul\":10596:10635   */\n      mstore\n        /* \"#utility.yul\":10479:10642   */\n      pop\n      jump\t// out\n        /* \"#utility.yul\":10648:11014   */\n    tag_187:\n        /* \"#utility.yul\":10790:10793   */\n      0x00\n        /* \"#utility.yul\":10811:10878   */\n      tag_325\n        /* \"#utility.yul\":10875:10877   */\n      0x0d\n        /* \"#utility.yul\":10870:10873   */\n      dup4\n        /* \"#utility.yul\":10811:10878   */\n      tag_157\n      jump\t// in\n    tag_325:\n        /* \"#utility.yul\":10804:10878   */\n      swap2\n      pop\n        /* \"#utility.yul\":10887:10980   */\n      tag_326\n        /* \"#utility.yul\":10976:10979   */\n      dup3\n        /* \"#utility.yul\":10887:10980   */\n      tag_186\n      jump\t// in\n    tag_326:\n        /* \"#utility.yul\":11005:11007   */\n      0x20\n        /* \"#utility.yul\":11000:11003   */\n      dup3\n        /* \"#utility.yul\":10996:11008   */\n      add\n        /* \"#utility.yul\":10989:11008   */\n      swap1\n      pop\n        /* \"#utility.yul\":10648:11014   */\n      swap2\n      swap1\n      pop\n      jump\t// out\n        /* \"#utility.yul\":11020:11439   */\n    tag_78:\n        /* \"#utility.yul\":11186:11190   */\n      0x00\n        /* \"#utility.yul\":11224:11226   */\n      0x20\n        /* \"#utility.yul\":11213:11222   */\n      dup3\n        /* \"#utility.yul\":11209:11227   */\n      add\n        /* \"#utility.yul\":11201:11227   */\n      swap1\n      pop\n        /* \"#utility.yul\":11273:11282   */\n      dup2\n        /* \"#utility.yul\":11267:11271   */\n      dup2\n        /* \"#utility.yul\":11263:11283   */\n      sub\n        /* \"#utility.yul\":11259:11260   */\n      0x00\n        /* \"#utility.yul\":11248:11257   */\n      dup4\n        /* \"#utility.yul\":11244:11261   */\n      add\n        /* \"#utility.yul\":11237:11284   */\n      mstore\n        /* \"#utility.yul\":11301:11432   */\n      tag_328\n        /* \"#utility.yul\":11427:11431   */\n      dup2\n        /* \"#utility.yul\":11301:11432   */\n      tag_187\n      jump\t// in\n    tag_328:\n        /* \"#utility.yul\":11293:11432   */\n      swap1\n      pop\n        /* \"#utility.yul\":11020:11439   */\n      swap2\n      swap1\n      pop\n      jump\t// out\n        /* \"#utility.yul\":11445:11612   */\n    tag_188:\n        /* \"#utility.yul\":11585:11604   */\n      0x496e76616c69642063616e646964617465000000000000000000000000000000\n        /* \"#utility.yul\":11581:11582   */\n      0x00\n        /* \"#utility.yul\":11573:11579   */\n      dup3\n        /* \"#utility.yul\":11569:11583   */\n      add\n        /* \"#utility.yul\":11562:11605   */\n      mstore\n        /* \"#utility.yul\":11445:11612   */\n      pop\n      jump\t// out\n        /* \"#utility.yul\":11618:11984   */\n    tag_189:\n        /* \"#utility.yul\":11760:11763   */\n      0x00\n        /* \"#utility.yul\":11781:11848   */\n      tag_331\n        /* \"#utility.yul\":11845:11847   */\n      0x11\n        /* \"#utility.yul\":11840:11843   */\n      dup4\n        /* \"#utility.yul\":11781:11848   */\n      tag_157\n      jump\t// in\n    tag_331:\n        /* \"#utility.yul\":11774:11848   */\n      swap2\n      pop\n        /* \"#utility.yul\":11857:11950   */\n      tag_332\n        /* \"#utility.yul\":11946:11949   */\n      dup3\n        /* \"#utility.yul\":11857:11950   */\n      tag_188\n      jump\t// in\n    tag_332:\n        /* \"#utility.yul\":11975:11977   */\n      0x20\n        /* \"#utility.yul\":11970:11973   */\n      dup3\n        /* \"#utility.yul\":11966:11978   */\n      add\n        /* \"#utility.yul\":11959:11978   */\n      swap1\n      pop\n        /* \"#utility.yul\":11618:11984   */\n      swap2\n      swap1\n      pop\n      jump\t// out\n        /* \"#utility.yul\":11990:12409   */\n    tag_81:\n        /* \"#utility.yul\":12156:12160   */\n      0x00\n        /* \"#utility.yul\":12194:12196   */\n      0x20\n        /* \"#utility.yul\":12183:12192   */\n      dup3\n        /* \"#utility.yul\":12179:12197   */\n      add\n        /* \"#utility.yul\":12171:12197   */\n      swap1\n      pop\n        /* \"#utility.yul\":12243:12252   */\n      dup2\n        /* \"#utility.yul\":12237:12241   */\n      dup2\n        /* \"#utility.yul\":12233:12253   */\n      sub\n        /* \"#utility.yul\":12229:12230   */\n      0x00\n        /* \"#utility.yul\":12218:12227   */\n      dup4\n        /* \"#utility.yul\":12214:12231   */\n      add\n        /* \"#utility.yul\":12207:12254   */\n      mstore\n        /* \"#utility.yul\":12271:12402   */\n      tag_334\n        /* \"#utility.yul\":12397:12401   */\n      dup2\n        /* \"#utility.yul\":12271:12402   */\n      tag_189\n      jump\t// in\n    tag_334:\n        /* \"#utility.yul\":12263:12402   */\n      swap1\n      pop\n        /* \"#utility.yul\":11990:12409   */\n      swap2\n      swap1\n      pop\n      jump\t// out\n        /* \"#utility.yul\":12415:12595   */\n    tag_190:\n        /* \"#utility.yul\":12463:12540   */\n      0x4e487b7100000000000000000000000000000000000000000000000000000000\n        /* \"#utility.yul\":12460:12461   */\n      0x00\n        /* \"#utility.yul\":12453:12541   */\n      mstore\n        /* \"#utility.yul\":12560:12564   */\n      0x11\n        /* \"#utility.yul\":12557:12558   */\n      0x04\n        /* \"#utility.yul\":12550:12565   */\n      mstore\n        /* \"#utility.yul\":12584:12588   */\n      0x24\n        /* \"#utility.yul\":12581:12582   */\n      0x00\n        /* \"#utility.yul\":12574:12589   */\n      revert\n        /* \"#utility.yul\":12601:12834   */\n    tag_83:\n        /* \"#utility.yul\":12640:12643   */\n      0x00\n        /* \"#utility.yul\":12663:12687   */\n      tag_337\n        /* \"#utility.yul\":12681:12686   */\n      dup3\n        /* \"#utility.yul\":12663:12687   */\n      tag_153\n      jump\t// in\n    tag_337:\n        /* \"#utility.yul\":12654:12687   */\n      swap2\n      pop\n        /* \"#utility.yul\":12709:12775   */\n      0xffffffffffffffffffffffffffffffffffffffffffffffffffffffffffffffff\n        /* \"#utility.yul\":12702:12707   */\n      dup3\n        /* \"#utility.yul\":12699:12776   */\n      sub\n        /* \"#utility.yul\":12696:12799   */\n      tag_338\n      jumpi\n        /* \"#utility.yul\":12779:12797   */\n      tag_339\n      tag_190\n      jump\t// in\n    tag_339:\n        /* \"#utility.yul\":12696:12799   */\n    tag_338:\n        /* \"#utility.yul\":12826:12827   */\n      0x01\n        /* \"#utility.yul\":12819:12824   */\n      dup3\n        /* \"#utility.yul\":12815:12828   */\n      add\n        /* \"#utility.yul\":12808:12828   */\n      swap1\n      pop\n        /* \"#utility.yul\":12601:12834   */\n      swap2\n      swap1\n      pop\n      jump\t// out\n        /* \"#utility.yul\":12840:13172   */\n    tag_85:\n        /* \"#utility.yul\":12961:12965   */\n      0x00\n        /* \"#utility.yul\":12999:13001   */\n      0x40\n        /* \"#utility.yul\":12988:12997   */\n      dup3\n        /* \"#utility.yul\":12984:13002   */\n      add\n        /* \"#utility.yul\":12976:13002   */\n      swap1\n      pop\n        /* \"#utility.yul\":13012:13083   */\n      tag_341\n        /* \"#utility.yul\":13080:13081   */\n      0x00\n        /* \"#utility.yul\":13069:13078   */\n      dup4\n        /* \"#utility.yul\":13065:13082   */\n      add\n        /* \"#utility.yul\":13056:13062   */\n      dup6\n        /* \"#utility.yul\":13012:13083   */\n      tag_181\n      jump\t// in\n    tag_341:\n        /* \"#utility.yul\":13093:13165   */\n      tag_342\n        /* \"#utility.yul\":13161:13163   */\n      0x20\n        /* \"#utility.yul\":13150:13159   */\n      dup4\n        /* \"#utility.yul\":13146:13164   */\n      add\n        /* \"#utility.yul\":13137:13143   */\n      dup5\n        /* \"#utility.yul\":13093:13165   */\n      tag_165\n      jump\t// in\n    tag_342:\n        /* \"#utility.yul\":12840:13172   */\n      swap4\n      swap3\n      pop\n      pop\n      pop\n      jump\t// out\n        /* \"#utility.yul\":13178:13358   */\n    tag_191:\n        /* \"#utility.yul\":13226:13303   */\n      0x4e487b7100000000000000000000000000000000000000000000000000000000\n        /* \"#utility.yul\":13223:13224   */\n      0x00\n        /* \"#utility.yul\":13216:13304   */\n      mstore\n        /* \"#utility.yul\":13323:13327   */\n      0x22\n        /* \"#utility.yul\":13320:13321   */\n      0x04\n        /* \"#utility.yul\":13313:13328   */\n      mstore\n        /* \"#utility.yul\":13347:13351   */\n      0x24\n        /* \"#utility.yul\":13344:13345   */\n      0x00\n        /* \"#utility.yul\":13337:13352   */\n      revert\n        /* \"#utility.yul\":13364:13684   */\n    tag_103:\n        /* \"#utility.yul\":13408:13414   */\n      0x00\n        /* \"#utility.yul\":13445:13446   */\n      0x02\n        /* \"#utility.yul\":13439:13443   */\n      dup3\n        /* \"#utility.yul\":13435:13447   */\n      div\n        /* \"#utility.yul\":13425:13447   */\n      swap1\n      pop\n        /* \"#utility.yul\":13492:13493   */\n      0x01\n        /* \"#utility.yul\":13486:13490   */\n      dup3\n        /* \"#utility.yul\":13482:13494   */\n      and\n        /* \"#utility.yul\":13513:13531   */\n      dup1\n        /* \"#utility.yul\":13503:13584   */\n      tag_345\n      jumpi\n        /* \"#utility.yul\":13569:13573   */\n      0x7f\n        /* \"#utility.yul\":13561:13567   */\n      dup3\n        /* \"#utility.yul\":13557:13574   */\n      and\n        /* \"#utility.yul\":13547:13574   */\n      swap2\n      pop\n        /* \"#utility.yul\":13503:13584   */\n    tag_345:\n        /* \"#utility.yul\":13631:13633   */\n      0x20\n        /* \"#utility.yul\":13623:13629   */\n      dup3\n        /* \"#utility.yul\":13620:13634   */\n      lt\n        /* \"#utility.yul\":13600:13618   */\n      dup2\n        /* \"#utility.yul\":13597:13635   */\n      sub\n        /* \"#utility.yul\":13594:13678   */\n      tag_346\n      jumpi\n        /* \"#utility.yul\":13650:13668   */\n      tag_347\n      tag_191\n      jump\t// in\n    tag_347:\n        /* \"#utility.yul\":13594:13678   */\n    tag_346:\n        /* \"#utility.yul\":13415:13684   */\n      pop\n        /* \"#utility.yul\":13364:13684   */\n      swap2\n      swap1\n      pop\n      jump\t// out\n        /* \"#utility.yul\":13690:13911   */\n    tag_192:\n        /* \"#utility.yul\":13830:13864   */\n      0x4f6e6c792061646d696e2063616e20706572666f726d20746869732061637469\n        /* \"#utility.yul\":13826:13827   */\n      0x00\n        /* \"#utility.yul\":13818:13824   */\n      dup3\n        /* \"#utility.yul\":13814:13828   */\n      add\n        /* \"#utility.yul\":13807:13865   */\n      mstore\n        /* \"#utility.yul\":13899:13903   */\n      0x6f6e000000000000000000000000000000000000000000000000000000000000\n        /* \"#utility.yul\":13894:13896   */\n      0x20\n        /* \"#utility.yul\":13886:13892   */\n      dup3\n        /* \"#utility.yul\":13882:13897   */\n      add\n        /* \"#utility.yul\":13875:13904   */\n      mstore\n        /* \"#utility.yul\":13690:13911   */\n      pop\n      jump\t// out\n        /* \"#utility.yul\":13917:14283   */\n    tag_193:\n        /* \"#utility.yul\":14059:14062   */\n      0x00\n        /* \"#utility.yul\":14080:14147   */\n      tag_350\n        /* \"#utility.yul\":14144:14146   */\n      0x22\n        /* \"#utility.yul\":14139:14142   */\n      dup4\n        /* \"#utility.yul\":14080:14147   */\n      tag_157\n      jump\t// in\n    tag_350:\n        /* \"#utility.yul\":14073:14147   */\n      swap2\n      pop\n        /* \"#utility.yul\":14156:14249   */\n      tag_351\n        /* \"#utility.yul\":14245:14248   */\n      dup3\n        /* \"#utility.yul\":14156:14249   */\n      tag_192\n      jump\t// in\n    tag_351:\n        /* \"#utility.yul\":14274:14276   */\n      0x40\n        /* \"#utility.yul\":14269:14272   */\n      dup3\n        /* \"#utility.yul\":14265:14277   */\n      add\n        /* \"#utility.yul\":14258:14277   */\n      swap1\n      pop\n        /* \"#utility.yul\":13917:14283   */\n      swap2\n      swap1\n      pop\n      jump\t// out\n        /* \"#utility.yul\":14289:14708   */\n    tag_111:\n        /* \"#utility.yul\":14455:14459   */\n      0x00\n        /* \"#utility.yul\":14493:14495   */\n      0x20\n        /* \"#utility.yul\":14482:14491   */\n      dup3\n        /* \"#utility.yul\":14478:14496   */\n      add\n        /* \"#utility.yul\":14470:14496   */\n      swap1\n      pop\n        /* \"#utility.yul\":14542:14551   */\n      dup2\n        /* \"#utility.yul\":14536:14540   */\n      dup2\n        /* \"#utility.yul\":14532:14552   */\n      sub\n        /* \"#utility.yul\":14528:14529   */\n      0x00\n        /* \"#utility.yul\":14517:14526   */\n      dup4\n        /* \"#utility.yul\":14513:14530   */\n      add\n        /* \"#utility.yul\":14506:14553   */\n      mstore\n        /* \"#utility.yul\":14570:14701   */\n      tag_353\n        /* \"#utility.yul\":14696:14700   */\n      dup2\n        /* \"#utility.yul\":14570:14701   */\n      tag_193\n      jump\t// in\n    tag_353:\n        /* \"#utility.yul\":14562:14701   */\n      swap1\n      pop\n        /* \"#utility.yul\":14289:14708   */\n      swap2\n      swap1\n      pop\n      jump\t// out\n        /* \"#utility.yul\":14714:14855   */\n    tag_194:\n        /* \"#utility.yul\":14763:14767   */\n      0x00\n        /* \"#utility.yul\":14786:14789   */\n      dup2\n        /* \"#utility.yul\":14778:14789   */\n      swap1\n      pop\n        /* \"#utility.yul\":14809:14812   */\n      dup2\n        /* \"#utility.yul\":14806:14807   */\n      0x00\n        /* \"#utility.yul\":14799:14813   */\n      mstore\n        /* \"#utility.yul\":14843:14847   */\n      0x20\n        /* \"#utility.yul\":14840:14841   */\n      0x00\n        /* \"#utility.yul\":14830:14848   */\n      keccak256\n        /* \"#utility.yul\":14822:14848   */\n      swap1\n      pop\n        /* \"#utility.yul\":14714:14855   */\n      swap2\n      swap1\n      pop\n      jump\t// out\n        /* \"#utility.yul\":14861:14954   */\n    tag_195:\n        /* \"#utility.yul\":14898:14904   */\n      0x00\n        /* \"#utility.yul\":14945:14947   */\n      0x20\n        /* \"#utility.yul\":14940:14942   */\n      0x1f\n        /* \"#utility.yul\":14933:14938   */\n      dup4\n        /* \"#utility.yul\":14929:14943   */\n      add\n        /* \"#utility.yul\":14925:14948   */\n      div\n        /* \"#utility.yul\":14915:14948   */\n      swap1\n      pop\n        /* \"#utility.yul\":14861:14954   */\n      swap2\n      swap1\n      pop\n      jump\t// out\n        /* \"#utility.yul\":14960:15067   */\n    tag_196:\n        /* \"#utility.yul\":15004:15012   */\n      0x00\n        /* \"#utility.yul\":15054:15059   */\n      dup3\n        /* \"#utility.yul\":15048:15052   */\n      dup3\n        /* \"#utility.yul\":15044:15060   */\n      shl\n        /* \"#utility.yul\":15023:15060   */\n      swap1\n      pop\n        /* \"#utility.yul\":14960:15067   */\n      swap3\n      swap2\n      pop\n      pop\n      jump\t// out\n        /* \"#utility.yul\":15073:15466   */\n    tag_197:\n        /* \"#utility.yul\":15142:15148   */\n      0x00\n        /* \"#utility.yul\":15192:15193   */\n      0x08\n        /* \"#utility.yul\":15180:15190   */\n      dup4\n        /* \"#utility.yul\":15176:15194   */\n      mul\n        /* \"#utility.yul\":15215:15312   */\n      tag_358\n        /* \"#utility.yul\":15245:15311   */\n      0xffffffffffffffffffffffffffffffffffffffffffffffffffffffffffffffff\n        /* \"#utility.yul\":15234:15243   */\n      dup3\n        /* \"#utility.yul\":15215:15312   */\n      tag_196\n      jump\t// in\n    tag_358:\n        /* \"#utility.yul\":15333:15372   */\n      tag_359\n        /* \"#utility.yul\":15363:15371   */\n      dup7\n        /* \"#utility.yul\":15352:15361   */\n      dup4\n        /* \"#utility.yul\":15333:15372   */\n      tag_196\n      jump\t// in\n    tag_359:\n        /* \"#utility.yul\":15321:15372   */\n      swap6\n      pop\n        /* \"#utility.yul\":15405:15409   */\n      dup1\n        /* \"#utility.yul\":15401:15410   */\n      not\n        /* \"#utility.yul\":15394:15399   */\n      dup5\n        /* \"#utility.yul\":15390:15411   */\n      and\n        /* \"#utility.yul\":15381:15411   */\n      swap4\n      pop\n        /* \"#utility.yul\":15454:15458   */\n      dup1\n        /* \"#utility.yul\":15444:15452   */\n      dup7\n        /* \"#utility.yul\":15440:15459   */\n      and\n        /* \"#utility.yul\":15433:15438   */\n      dup5\n        /* \"#utility.yul\":15430:15460   */\n      or\n        /* \"#utility.yul\":15420:15460   */\n      swap3\n      pop\n        /* \"#utility.yul\":15149:15466   */\n      pop\n      pop\n        /* \"#utility.yul\":15073:15466   */\n      swap4\n      swap3\n      pop\n      pop\n      pop\n      jump\t// out\n        /* \"#utility.yul\":15472:15532   */\n    tag_198:\n        /* \"#utility.yul\":15500:15503   */\n      0x00\n        /* \"#utility.yul\":15521:15526   */\n      dup2\n        /* \"#utility.yul\":15514:15526   */\n      swap1\n      pop\n        /* \"#utility.yul\":15472:15532   */\n      swap2\n      swap1\n      pop\n      jump\t// out\n        /* \"#utility.yul\":15538:15680   */\n    tag_199:\n        /* \"#utility.yul\":15588:15597   */\n      0x00\n        /* \"#utility.yul\":15621:15674   */\n      tag_362\n        /* \"#utility.yul\":15639:15673   */\n      tag_363\n        /* \"#utility.yul\":15648:15672   */\n      tag_364\n        /* \"#utility.yul\":15666:15671   */\n      dup5\n        /* \"#utility.yul\":15648:15672   */\n      tag_153\n      jump\t// in\n    tag_364:\n        /* \"#utility.yul\":15639:15673   */\n      tag_198\n      jump\t// in\n    tag_363:\n        /* \"#utility.yul\":15621:15674   */\n      tag_153\n      jump\t// in\n    tag_362:\n        /* \"#utility.yul\":15608:15674   */\n      swap1\n      pop\n        /* \"#utility.yul\":15538:15680   */\n      swap2\n      swap1\n      pop\n      jump\t// out\n        /* \"#utility.yul\":15686:15761   */\n    tag_200:\n        /* \"#utility.yul\":15729:15732   */\n      0x00\n        /* \"#utility.yul\":15750:15755   */\n      dup2\n        /* \"#utility.yul\":15743:15755   */\n      swap1\n      pop\n        /* \"#utility.yul\":15686:15761   */\n      swap2\n      swap1\n      pop\n      jump\t// out\n        /* \"#utility.yul\":15767:16036   */\n    tag_201:\n        /* \"#utility.yul\":15877:15916   */\n      tag_367\n        /* \"#utility.yul\":15908:15915   */\n      dup4\n        /* \"#utility.yul\":15877:15916   */\n      tag_199\n      jump\t// in\n    tag_367:\n        /* \"#utility.yul\":15938:16029   */\n      tag_368\n        /* \"#utility.yul\":15987:16028   */\n      tag_369\n        /* \"#utility.yul\":16011:16027   */\n      dup3\n        /* \"#utility.yul\":15987:16028   */\n      tag_200\n      jump\t// in\n    tag_369:\n        /* \"#utility.yul\":15979:15985   */\n      dup5\n        /* \"#utility.yul\":15972:15976   */\n      dup5\n        /* \"#utility.yul\":15966:15977   */\n      sload\n        /* \"#utility.yul\":15938:16029   */\n      tag_197\n      jump\t// in\n    tag_368:\n        /* \"#utility.yul\":15932:15936   */\n      dup3\n        /* \"#utility.yul\":15925:16030   */\n      sstore\n        /* \"#utility.yul\":15843:16036   */\n      pop\n        /* \"#utility.yul\":15767:16036   */\n      pop\n      pop\n      pop\n      jump\t// out\n        /* \"#utility.yul\":16042:16115   */\n    tag_202:\n        /* \"#utility.yul\":16087:16090   */\n      0x00\n        /* \"#utility.yul\":16042:16115   */\n      swap1\n      jump\t// out\n        /* \"#utility.yul\":16121:16310   */\n    tag_203:\n        /* \"#utility.yul\":16198:16230   */\n      tag_372\n      tag_202\n      jump\t// in\n    tag_372:\n        /* \"#utility.yul\":16239:16304   */\n      tag_373\n        /* \"#utility.yul\":16297:16303   */\n      dup2\n        /* \"#utility.yul\":16289:16295   */\n      dup5\n        /* \"#utility.yul\":16283:16287   */\n      dup5\n        /* \"#utility.yul\":16239:16304   */\n      tag_201\n      jump\t// in\n    tag_373:\n        /* \"#utility.yul\":16174:16310   */\n      pop\n        /* \"#utility.yul\":16121:16310   */\n      pop\n      pop\n      jump\t// out\n        /* \"#utility.yul\":16316:16502   */\n    tag_204:\n        /* \"#utility.yul\":16376:16496   */\n    tag_375:\n        /* \"#utility.yul\":16393:16396   */\n      dup2\n        /* \"#utility.yul\":16386:16391   */\n      dup2\n        /* \"#utility.yul\":16383:16397   */\n      lt\n        /* \"#utility.yul\":16376:16496   */\n      iszero\n      tag_377\n      jumpi\n        /* \"#utility.yul\":16447:16486   */\n      tag_378\n        /* \"#utility.yul\":16484:16485   */\n      0x00\n        /* \"#utility.yul\":16477:16482   */\n      dup3\n        /* \"#utility.yul\":16447:16486   */\n      tag_203\n      jump\t// in\n    tag_378:\n        /* \"#utility.yul\":16420:16421   */\n      0x01\n        /* \"#utility.yul\":16413:16418   */\n      dup2\n        /* \"#utility.yul\":16409:16422   */\n      add\n        /* \"#utility.yul\":16400:16422   */\n      swap1\n      pop\n        /* \"#utility.yul\":16376:16496   */\n      jump(tag_375)\n    tag_377:\n        /* \"#utility.yul\":16316:16502   */\n      pop\n      pop\n      jump\t// out\n        /* \"#utility.yul\":16508:17051   */\n    tag_205:\n        /* \"#utility.yul\":16609:16611   */\n      0x1f\n        /* \"#utility.yul\":16604:16607   */\n      dup3\n        /* \"#utility.yul\":16601:16612   */\n      gt\n        /* \"#utility.yul\":16598:17044   */\n      iszero\n      tag_380\n      jumpi\n        /* \"#utility.yul\":16643:16681   */\n      tag_381\n        /* \"#utility.yul\":16675:16680   */\n      dup2\n        /* \"#utility.yul\":16643:16681   */\n      tag_194\n      jump\t// in\n    tag_381:\n        /* \"#utility.yul\":16727:16756   */\n      tag_382\n        /* \"#utility.yul\":16745:16755   */\n      dup5\n        /* \"#utility.yul\":16727:16756   */\n      tag_195\n      jump\t// in\n    tag_382:\n        /* \"#utility.yul\":16717:16725   */\n      dup2\n        /* \"#utility.yul\":16713:16757   */\n      add\n        /* \"#utility.yul\":16910:16912   */\n      0x20\n        /* \"#utility.yul\":16898:16908   */\n      dup6\n        /* \"#utility.yul\":16895:16913   */\n      lt\n        /* \"#utility.yul\":16892:16941   */\n      iszero\n      tag_383\n      jumpi\n        /* \"#utility.yul\":16931:16939   */\n      dup2\n        /* \"#utility.yul\":16916:16939   */\n      swap1\n      pop\n        /* \"#utility.yul\":16892:16941   */\n    tag_383:\n        /* \"#utility.yul\":16954:17034   */\n      tag_384\n        /* \"#utility.yul\":17010:17032   */\n      tag_385\n        /* \"#utility.yul\":17028:17031   */\n      dup6\n        /* \"#utility.yul\":17010:17032   */\n      tag_195\n      jump\t// in\n    tag_385:\n        /* \"#utility.yul\":17000:17008   */\n      dup4\n        /* \"#utility.yul\":16996:17033   */\n      add\n        /* \"#utility.yul\":16983:16994   */\n      dup3\n        /* \"#utility.yul\":16954:17034   */\n      tag_204\n      jump\t// in\n    tag_384:\n        /* \"#utility.yul\":16613:17044   */\n      pop\n      pop\n        /* \"#utility.yul\":16598:17044   */\n    tag_380:\n        /* \"#utility.yul\":16508:17051   */\n      pop\n      pop\n      pop\n      jump\t// out\n        /* \"#utility.yul\":17057:17174   */\n    tag_206:\n        /* \"#utility.yul\":17111:17119   */\n      0x00\n        /* \"#utility.yul\":17161:17166   */\n      dup3\n        /* \"#utility.yul\":17155:17159   */\n      dup3\n        /* \"#utility.yul\":17151:17167   */\n      shr\n        /* \"#utility.yul\":17130:17167   */\n      swap1\n      pop\n        /* \"#utility.yul\":17057:17174   */\n      swap3\n      swap2\n      pop\n      pop\n      jump\t// out\n        /* \"#utility.yul\":17180:17349   */\n    tag_207:\n        /* \"#utility.yul\":17224:17230   */\n      0x00\n        /* \"#utility.yul\":17257:17308   */\n      tag_388\n        /* \"#utility.yul\":17305:17306   */\n      0x00\n        /* \"#utility.yul\":17301:17307   */\n      not\n        /* \"#utility.yul\":17293:17298   */\n      dup5\n        /* \"#utility.yul\":17290:17291   */\n      0x08\n        /* \"#utility.yul\":17286:17299   */\n      mul\n        /* \"#utility.yul\":17257:17308   */\n      tag_206\n      jump\t// in\n    tag_388:\n        /* \"#utility.yul\":17253:17309   */\n      not\n        /* \"#utility.yul\":17338:17342   */\n      dup1\n        /* \"#utility.yul\":17332:17336   */\n      dup4\n        /* \"#utility.yul\":17328:17343   */\n      and\n        /* \"#utility.yul\":17318:17343   */\n      swap2\n      pop\n        /* \"#utility.yul\":17231:17349   */\n      pop\n        /* \"#utility.yul\":17180:17349   */\n      swap3\n      swap2\n      pop\n      pop\n      jump\t// out\n        /* \"#utility.yul\":17354:17649   */\n    tag_208:\n        /* \"#utility.yul\":17430:17434   */\n      0x00\n        /* \"#utility.yul\":17576:17605   */\n      tag_390\n        /* \"#utility.yul\":17601:17604   */\n      dup4\n        /* \"#utility.yul\":17595:17599   */\n      dup4\n        /* \"#utility.yul\":17576:17605   */\n      tag_207\n      jump\t// in\n    tag_390:\n        /* \"#utility.yul\":17568:17605   */\n      swap2\n      pop\n        /* \"#utility.yul\":17638:17641   */\n      dup3\n        /* \"#utility.yul\":17635:17636   */\n      0x02\n        /* \"#utility.yul\":17631:17642   */\n      mul\n        /* \"#utility.yul\":17625:17629   */\n      dup3\n        /* \"#utility.yul\":17622:17643   */\n      or\n        /* \"#utility.yul\":17614:17643   */\n      swap1\n      pop\n        /* \"#utility.yul\":17354:17649   */\n      swap3\n      swap2\n      pop\n      pop\n      jump\t// out\n        /* \"#utility.yul\":17654:19049   */\n    tag_115:\n        /* \"#utility.yul\":17771:17808   */\n      tag_392\n        /* \"#utility.yul\":17804:17807   */\n      dup3\n        /* \"#utility.yul\":17771:17808   */\n      tag_156\n      jump\t// in\n    tag_392:\n        /* \"#utility.yul\":17873:17891   */\n      0xffffffffffffffff\n        /* \"#utility.yul\":17865:17871   */\n      dup2\n        /* \"#utility.yul\":17862:17892   */\n      gt\n        /* \"#utility.yul\":17859:17915   */\n      iszero\n      tag_393\n      jumpi\n        /* \"#utility.yul\":17895:17913   */\n      tag_394\n      tag_168\n      jump\t// in\n    tag_394:\n        /* \"#utility.yul\":17859:17915   */\n    tag_393:\n        /* \"#utility.yul\":17939:17977   */\n      tag_395\n        /* \"#utility.yul\":17971:17975   */\n      dup3\n        /* \"#utility.yul\":17965:17976   */\n      sload\n        /* \"#utility.yul\":17939:17977   */\n      tag_103\n      jump\t// in\n    tag_395:\n        /* \"#utility.yul\":18024:18091   */\n      tag_396\n        /* \"#utility.yul\":18084:18090   */\n      dup3\n        /* \"#utility.yul\":18076:18082   */\n      dup3\n        /* \"#utility.yul\":18070:18074   */\n      dup6\n        /* \"#utility.yul\":18024:18091   */\n      tag_205\n      jump\t// in\n    tag_396:\n        /* \"#utility.yul\":18118:18119   */\n      0x00\n        /* \"#utility.yul\":18142:18146   */\n      0x20\n        /* \"#utility.yul\":18129:18146   */\n      swap1\n      pop\n        /* \"#utility.yul\":18174:18176   */\n      0x1f\n        /* \"#utility.yul\":18166:18172   */\n      dup4\n        /* \"#utility.yul\":18163:18177   */\n      gt\n        /* \"#utility.yul\":18191:18192   */\n      0x01\n        /* \"#utility.yul\":18186:18804   */\n      dup2\n      eq\n      tag_398\n      jumpi\n        /* \"#utility.yul\":18848:18849   */\n      0x00\n        /* \"#utility.yul\":18865:18871   */\n      dup5\n        /* \"#utility.yul\":18862:18939   */\n      iszero\n      tag_399\n      jumpi\n        /* \"#utility.yul\":18914:18923   */\n      dup3\n        /* \"#utility.yul\":18909:18912   */\n      dup8\n        /* \"#utility.yul\":18905:18924   */\n      add\n        /* \"#utility.yul\":18899:18925   */\n      mload\n        /* \"#utility.yul\":18890:18925   */\n      swap1\n      pop\n        /* \"#utility.yul\":18862:18939   */\n    tag_399:\n        /* \"#utility.yul\":18965:19032   */\n      tag_400\n        /* \"#utility.yul\":19025:19031   */\n      dup6\n        /* \"#utility.yul\":19018:19023   */\n      dup3\n        /* \"#utility.yul\":18965:19032   */\n      tag_208\n      jump\t// in\n    tag_400:\n        /* \"#utility.yul\":18959:18963   */\n      dup7\n        /* \"#utility.yul\":18952:19033   */\n      sstore\n        /* \"#utility.yul\":18821:19043   */\n      pop\n        /* \"#utility.yul\":18156:19043   */\n      jump(tag_397)\n        /* \"#utility.yul\":18186:18804   */\n    tag_398:\n        /* \"#utility.yul\":18238:18242   */\n      0x1f\n        /* \"#utility.yul\":18234:18243   */\n      not\n        /* \"#utility.yul\":18226:18232   */\n      dup5\n        /* \"#utility.yul\":18222:18244   */\n      and\n        /* \"#utility.yul\":18272:18309   */\n      tag_401\n        /* \"#utility.yul\":18304:18308   */\n      dup7\n        /* \"#utility.yul\":18272:18309   */\n      tag_194\n      jump\t// in\n    tag_401:\n        /* \"#utility.yul\":18331:18332   */\n      0x00\n        /* \"#utility.yul\":18345:18553   */\n    tag_402:\n        /* \"#utility.yul\":18359:18366   */\n      dup3\n        /* \"#utility.yul\":18356:18357   */\n      dup2\n        /* \"#utility.yul\":18353:18367   */\n      lt\n        /* \"#utility.yul\":18345:18553   */\n      iszero\n      tag_404\n      jumpi\n        /* \"#utility.yul\":18438:18447   */\n      dup5\n        /* \"#utility.yul\":18433:18436   */\n      dup10\n        /* \"#utility.yul\":18429:18448   */\n      add\n        /* \"#utility.yul\":18423:18449   */\n      mload\n        /* \"#utility.yul\":18415:18421   */\n      dup3\n        /* \"#utility.yul\":18408:18450   */\n      sstore\n        /* \"#utility.yul\":18489:18490   */\n      0x01\n        /* \"#utility.yul\":18481:18487   */\n      dup3\n        /* \"#utility.yul\":18477:18491   */\n      add\n        /* \"#utility.yul\":18467:18491   */\n      swap2\n      pop\n        /* \"#utility.yul\":18536:18538   */\n      0x20\n        /* \"#utility.yul\":18525:18534   */\n      dup6\n        /* \"#utility.yul\":18521:18539   */\n      add\n        /* \"#utility.yul\":18508:18539   */\n      swap5\n      pop\n        /* \"#utility.yul\":18382:18386   */\n      0x20\n        /* \"#utility.yul\":18379:18380   */\n      dup2\n        /* \"#utility.yul\":18375:18387   */\n      add\n        /* \"#utility.yul\":18370:18387   */\n      swap1\n      pop\n        /* \"#utility.yul\":18345:18553   */\n      jump(tag_402)\n    tag_404:\n        /* \"#utility.yul\":18581:18587   */\n      dup7\n        /* \"#utility.yul\":18572:18579   */\n      dup4\n        /* \"#utility.yul\":18569:18588   */\n      lt\n        /* \"#utility.yul\":18566:18745   */\n      iszero\n      tag_405\n      jumpi\n        /* \"#utility.yul\":18639:18648   */\n      dup5\n        /* \"#utility.yul\":18634:18637   */\n      dup10\n        /* \"#utility.yul\":18630:18649   */\n      add\n        /* \"#utility.yul\":18624:18650   */\n      mload\n        /* \"#utility.yul\":18682:18730   */\n      tag_406\n        /* \"#utility.yul\":18724:18728   */\n      0x1f\n        /* \"#utility.yul\":18716:18722   */\n      dup10\n        /* \"#utility.yul\":18712:18729   */\n      and\n        /* \"#utility.yul\":18701:18710   */\n      dup3\n        /* \"#utility.yul\":18682:18730   */\n      tag_207\n      jump\t// in\n    tag_406:\n        /* \"#utility.yul\":18674:18680   */\n      dup4\n        /* \"#utility.yul\":18667:18731   */\n      sstore\n        /* \"#utility.yul\":18589:18745   */\n      pop\n        /* \"#utility.yul\":18566:18745   */\n    tag_405:\n        /* \"#utility.yul\":18791:18792   */\n      0x01\n        /* \"#utility.yul\":18787:18788   */\n      0x02\n        /* \"#utility.yul\":18779:18785   */\n      dup9\n        /* \"#utility.yul\":18775:18789   */\n      mul\n        /* \"#utility.yul\":18771:18793   */\n      add\n        /* \"#utility.yul\":18765:18769   */\n      dup9\n        /* \"#utility.yul\":18758:18794   */\n      sstore\n        /* \"#utility.yul\":18193:18804   */\n      pop\n      pop\n      pop\n        /* \"#utility.yul\":18156:19043   */\n    tag_397:\n      pop\n        /* \"#utility.yul\":17746:19049   */\n      pop\n      pop\n      pop\n        /* \"#utility.yul\":17654:19049   */\n      pop\n      pop\n      jump\t// out\n        /* \"#utility.yul\":19055:19478   */\n    tag_117:\n        /* \"#utility.yul\":19196:19200   */\n      0x00\n        /* \"#utility.yul\":19234:19236   */\n      0x40\n        /* \"#utility.yul\":19223:19232   */\n      dup3\n        /* \"#utility.yul\":19219:19237   */\n      add\n        /* \"#utility.yul\":19211:19237   */\n      swap1\n      pop\n        /* \"#utility.yul\":19247:19318   */\n      tag_408\n        /* \"#utility.yul\":19315:19316   */\n      0x00\n        /* \"#utility.yul\":19304:19313   */\n      dup4\n        /* \"#utility.yul\":19300:19317   */\n      add\n        /* \"#utility.yul\":19291:19297   */\n      dup6\n        /* \"#utility.yul\":19247:19318   */\n      tag_165\n      jump\t// in\n    tag_408:\n        /* \"#utility.yul\":19365:19374   */\n      dup2\n        /* \"#utility.yul\":19359:19363   */\n      dup2\n        /* \"#utility.yul\":19355:19375   */\n      sub\n        /* \"#utility.yul\":19350:19352   */\n      0x20\n        /* \"#utility.yul\":19339:19348   */\n      dup4\n        /* \"#utility.yul\":19335:19353   */\n      add\n        /* \"#utility.yul\":19328:19376   */\n      mstore\n        /* \"#utility.yul\":19393:19471   */\n      tag_409\n        /* \"#utility.yul\":19466:19470   */\n      dup2\n        /* \"#utility.yul\":19457:19463   */\n      dup5\n        /* \"#utility.yul\":19393:19471   */\n      tag_160\n      jump\t// in\n    tag_409:\n        /* \"#utility.yul\":19385:19471   */\n      swap1\n      pop\n        /* \"#utility.yul\":19055:19478   */\n      swap4\n      swap3\n      pop\n      pop\n      pop\n      jump\t// out\n        /* \"#utility.yul\":19484:19708   */\n    tag_209:\n        /* \"#utility.yul\":19624:19658   */\n      0x456c656374696f6e20697320616c72656164792073746172746564206f722063\n        /* \"#utility.yul\":19620:19621   */\n      0x00\n        /* \"#utility.yul\":19612:19618   */\n      dup3\n        /* \"#utility.yul\":19608:19622   */\n      add\n        /* \"#utility.yul\":19601:19659   */\n      mstore\n        /* \"#utility.yul\":19693:19700   */\n      0x6c6f736564000000000000000000000000000000000000000000000000000000\n        /* \"#utility.yul\":19688:19690   */\n      0x20\n        /* \"#utility.yul\":19680:19686   */\n      dup3\n        /* \"#utility.yul\":19676:19691   */\n      add\n        /* \"#utility.yul\":19669:19701   */\n      mstore\n        /* \"#utility.yul\":19484:19708   */\n      pop\n      jump\t// out\n        /* \"#utility.yul\":19714:20080   */\n    tag_210:\n        /* \"#utility.yul\":19856:19859   */\n      0x00\n        /* \"#utility.yul\":19877:19944   */\n      tag_412\n        /* \"#utility.yul\":19941:19943   */\n      0x25\n        /* \"#utility.yul\":19936:19939   */\n      dup4\n        /* \"#utility.yul\":19877:19944   */\n      tag_157\n      jump\t// in\n    tag_412:\n        /* \"#utility.yul\":19870:19944   */\n      swap2\n      pop\n        /* \"#utility.yul\":19953:20046   */\n      tag_413\n        /* \"#utility.yul\":20042:20045   */\n      dup3\n        /* \"#utility.yul\":19953:20046   */\n      tag_209\n      jump\t// in\n    tag_413:\n        /* \"#utility.yul\":20071:20073   */\n      0x40\n        /* \"#utility.yul\":20066:20069   */\n      dup3\n        /* \"#utility.yul\":20062:20074   */\n      add\n        /* \"#utility.yul\":20055:20074   */\n      swap1\n      pop\n        /* \"#utility.yul\":19714:20080   */\n      swap2\n      swap1\n      pop\n      jump\t// out\n        /* \"#utility.yul\":20086:20505   */\n    tag_129:\n        /* \"#utility.yul\":20252:20256   */\n      0x00\n        /* \"#utility.yul\":20290:20292   */\n      0x20\n        /* \"#utility.yul\":20279:20288   */\n      dup3\n        /* \"#utility.yul\":20275:20293   */\n      add\n        /* \"#utility.yul\":20267:20293   */\n      swap1\n      pop\n        /* \"#utility.yul\":20339:20348   */\n      dup2\n        /* \"#utility.yul\":20333:20337   */\n      dup2\n        /* \"#utility.yul\":20329:20349   */\n      sub\n        /* \"#utility.yul\":20325:20326   */\n      0x00\n        /* \"#utility.yul\":20314:20323   */\n      dup4\n        /* \"#utility.yul\":20310:20327   */\n      add\n        /* \"#utility.yul\":20303:20350   */\n      mstore\n        /* \"#utility.yul\":20367:20498   */\n      tag_415\n        /* \"#utility.yul\":20493:20497   */\n      dup2\n        /* \"#utility.yul\":20367:20498   */\n      tag_210\n      jump\t// in\n    tag_415:\n        /* \"#utility.yul\":20359:20498   */\n      swap1\n      pop\n        /* \"#utility.yul\":20086:20505   */\n      swap2\n      swap1\n      pop\n      jump\t// out\n        /* \"#utility.yul\":20511:20681   */\n    tag_211:\n        /* \"#utility.yul\":20651:20673   */\n      0x456c656374696f6e206973206e6f74206f70656e000000000000000000000000\n        /* \"#utility.yul\":20647:20648   */\n      0x00\n        /* \"#utility.yul\":20639:20645   */\n      dup3\n        /* \"#utility.yul\":20635:20649   */\n      add\n        /* \"#utility.yul\":20628:20674   */\n      mstore\n        /* \"#utility.yul\":20511:20681   */\n      pop\n      jump\t// out\n        /* \"#utility.yul\":20687:21053   */\n    tag_212:\n        /* \"#utility.yul\":20829:20832   */\n      0x00\n        /* \"#utility.yul\":20850:20917   */\n      tag_418\n        /* \"#utility.yul\":20914:20916   */\n      0x14\n        /* \"#utility.yul\":20909:20912   */\n      dup4\n        /* \"#utility.yul\":20850:20917   */\n      tag_157\n      jump\t// in\n    tag_418:\n        /* \"#utility.yul\":20843:20917   */\n      swap2\n      pop\n        /* \"#utility.yul\":20926:21019   */\n      tag_419\n        /* \"#utility.yul\":21015:21018   */\n      dup3\n        /* \"#utility.yul\":20926:21019   */\n      tag_211\n      jump\t// in\n    tag_419:\n        /* \"#utility.yul\":21044:21046   */\n      0x20\n        /* \"#utility.yul\":21039:21042   */\n      dup3\n        /* \"#utility.yul\":21035:21047   */\n      add\n        /* \"#utility.yul\":21028:21047   */\n      swap1\n      pop\n        /* \"#utility.yul\":20687:21053   */\n      swap2\n      swap1\n      pop\n      jump\t// out\n        /* \"#utility.yul\":21059:21478   */\n    tag_142:\n        /* \"#utility.yul\":21225:21229   */\n      0x00\n        /* \"#utility.yul\":21263:21265   */\n      0x20\n        /* \"#utility.yul\":21252:21261   */\n      dup3\n        /* \"#utility.yul\":21248:21266   */\n      add\n        /* \"#utility.yul\":21240:21266   */\n      swap1\n      pop\n        /* \"#utility.yul\":21312:21321   */\n      dup2\n        /* \"#utility.yul\":21306:21310   */\n      dup2\n        /* \"#utility.yul\":21302:21322   */\n      sub\n        /* \"#utility.yul\":21298:21299   */\n      0x00\n        /* \"#utility.yul\":21287:21296   */\n      dup4\n        /* \"#utility.yul\":21283:21300   */\n      add\n        /* \"#utility.yul\":21276:21323   */\n      mstore\n        /* \"#utility.yul\":21340:21471   */\n      tag_421\n        /* \"#utility.yul\":21466:21470   */\n      dup2\n        /* \"#utility.yul\":21340:21471   */\n      tag_212\n      jump\t// in\n    tag_421:\n        /* \"#utility.yul\":21332:21471   */\n      swap1\n      pop\n        /* \"#utility.yul\":21059:21478   */\n      swap2\n      swap1\n      pop\n      jump\t// out\n\n    auxdata: 0xa2646970667358221220505ca69a11d122344491470abb0d4fdecf6b42e6f4a71c61d2fb84423f73c9a164736f6c634300081a0033\n}\n",
				"bytecode": {
					"linkReferences": {},
					"object": "6080604052348015600e575f80fd5b50335f60016101000a81548173ffffffffffffffffffffffffffffffffffffffff021916908373ffffffffffffffffffffffffffffffffffffffff1602179055505f805f6101000a81548160ff02191690836002811115606f57606e6078565b5b021790555060a5565b7f4e487b71000000000000000000000000000000000000000000000000000000005f52602160045260245ffd5b611826806100b25f395ff3fe608060405234801561000f575f80fd5b50600436106100b2575f3560e01c8063a3ec138d1161006f578063a3ec138d1461018c578063a9a981a3146101bd578063affc0670146101db578063c631b292146101e5578063f4ab9adf146101ef578063f851a4401461020b576100b2565b80630121b93f146100b6578063122902a6146100d2578063265050b6146100f05780633477ee2e1461010e578063462e91ec14610140578063866163c01461015c575b5f80fd5b6100d060048036038101906100cb9190610d2e565b610229565b005b6100da61050f565b6040516100e79190610dc9565b60405180910390f35b6100f8610683565b6040516101059190610e5c565b60405180910390f35b61012860048036038101906101239190610d2e565b610693565b60405161013793929190610e84565b60405180910390f35b61015a60048036038101906101559190610fec565b61073f565b005b61017660048036038101906101719190610d2e565b61087e565b6040516101839190611033565b60405180910390f35b6101a660048036038101906101a191906110a6565b61089b565b6040516101b49291906110eb565b60405180910390f35b6101c56108c7565b6040516101d29190611033565b60405180910390f35b6101e36108cd565b005b6101ed610a25565b005b610209600480360381019061020491906110a6565b610b7e565b005b610213610cc5565b6040516102209190611121565b60405180910390f35b6001600281111561023d5761023c610de9565b5b5f8054906101000a900460ff16600281111561025c5761025b610de9565b5b1461029c576040517f08c379a000000000000000000000000000000000000000000000000000000000815260040161029390611184565b60405180910390fd5b60035f3373ffffffffffffffffffffffffffffffffffffffff1673ffffffffffffffffffffffffffffffffffffffff1681526020019081526020015f205f015f9054906101000a900460ff1615610328576040517f08c379a000000000000000000000000000000000000000000000000000000000815260040161031f906111ec565b60405180910390fd5b5f151560035f3373ffffffffffffffffffffffffffffffffffffffff1673ffffffffffffffffffffffffffffffffffffffff1681526020019081526020015f205f015f9054906101000a900460ff161515146103b9576040517f08c379a00000000000000000000000000000000000000000000000000000000081526004016103b090611254565b60405180910390fd5b5f60025f8381526020019081526020015f205f01540361040e576040517f08c379a0000000000000000000000000000000000000000000000000000000008152600401610405906112bc565b60405180910390fd5b600160035f3373ffffffffffffffffffffffffffffffffffffffff1673ffffffffffffffffffffffffffffffffffffffff1681526020019081526020015f205f015f6101000a81548160ff0219169083151502179055508060035f3373ffffffffffffffffffffffffffffffffffffffff1673ffffffffffffffffffffffffffffffffffffffff1681526020019081526020015f206001018190555060025f8281526020019081526020015f206002015f8154809291906104ce90611307565b91905055507fa36cc2bebb74db33e9f88110a07ef56e1b31b24b4c4f51b54b1664266e29f45b338260405161050492919061134e565b60405180910390a150565b60605f600281111561052457610523610de9565b5b5f8054906101000a900460ff16600281111561054357610542610de9565b5b03610585576040518060400160405280600b81526020017f4e6f7420537461727465640000000000000000000000000000000000000000008152509050610680565b6001600281111561059957610598610de9565b5b5f8054906101000a900460ff1660028111156105b8576105b7610de9565b5b036105fa576040518060400160405280600481526020017f4f70656e000000000000000000000000000000000000000000000000000000008152509050610680565b60028081111561060d5761060c610de9565b5b5f8054906101000a900460ff16600281111561062c5761062b610de9565b5b0361066e576040518060400160405280600681526020017f436c6f73656400000000000000000000000000000000000000000000000000008152509050610680565b60405180602001604052805f81525090505b90565b5f8054906101000a900460ff1681565b6002602052805f5260405f205f91509050805f0154908060010180546106b8906113a2565b80601f01602080910402602001604051908101604052809291908181526020018280546106e4906113a2565b801561072f5780601f106107065761010080835404028352916020019161072f565b820191905f5260205f20905b81548152906001019060200180831161071257829003601f168201915b5050505050908060020154905083565b5f60019054906101000a900473ffffffffffffffffffffffffffffffffffffffff1673ffffffffffffffffffffffffffffffffffffffff163373ffffffffffffffffffffffffffffffffffffffff16146107ce576040517f08c379a00000000000000000000000000000000000000000000000000000000081526004016107c590611442565b60405180910390fd5b60015f8154809291906107e090611307565b9190505550604051806060016040528060015481526020018281526020015f81525060025f60015481526020019081526020015f205f820151815f0155602082015181600101908161083291906115fd565b50604082015181600201559050507fe83b2a43e7e82d975c8a0a6d2f045153c869e111136a34d1889ab7b598e396a3600154826040516108739291906116cc565b60405180910390a150565b5f60025f8381526020019081526020015f20600201549050919050565b6003602052805f5260405f205f91509050805f015f9054906101000a900460ff16908060010154905082565b60015481565b5f60019054906101000a900473ffffffffffffffffffffffffffffffffffffffff1673ffffffffffffffffffffffffffffffffffffffff163373ffffffffffffffffffffffffffffffffffffffff161461095c576040517f08c379a000000000000000000000000000000000000000000000000000000000815260040161095390611442565b60405180910390fd5b5f600281111561096f5761096e610de9565b5b5f8054906101000a900460ff16600281111561098e5761098d610de9565b5b146109ce576040517f08c379a00000000000000000000000000000000000000000000000000000000081526004016109c59061176a565b60405180910390fd5b60015f806101000a81548160ff021916908360028111156109f2576109f1610de9565b5b02179055507fa737faa632a36c00ccb4220893426e922f9442f1cab67acd8301f88a596d4abc60405160405180910390a1565b5f60019054906101000a900473ffffffffffffffffffffffffffffffffffffffff1673ffffffffffffffffffffffffffffffffffffffff163373ffffffffffffffffffffffffffffffffffffffff1614610ab4576040517f08c379a0000000000000000000000000000000000000000000000000000000008152600401610aab90611442565b60405180910390fd5b60016002811115610ac857610ac7610de9565b5b5f8054906101000a900460ff166002811115610ae757610ae6610de9565b5b14610b27576040517f08c379a0000000000000000000000000000000000000000000000000000000008152600401610b1e906117d2565b60405180910390fd5b60025f806101000a81548160ff02191690836002811115610b4b57610b4a610de9565b5b02179055507f66b6cb4a09abc3bf1cacc3c67420258856ffdad0deba9078cbd1658957b5021860405160405180910390a1565b5f60019054906101000a900473ffffffffffffffffffffffffffffffffffffffff1673ffffffffffffffffffffffffffffffffffffffff163373ffffffffffffffffffffffffffffffffffffffff1614610c0d576040517f08c379a0000000000000000000000000000000000000000000000000000000008152600401610c0490611442565b60405180910390fd5b60405180604001604052805f151581526020015f81525060035f8373ffffffffffffffffffffffffffffffffffffffff1673ffffffffffffffffffffffffffffffffffffffff1681526020019081526020015f205f820151815f015f6101000a81548160ff021916908315150217905550602082015181600101559050507fa636f4a11e2d3ba7f89d042ecb0a6b886716e98cd49d8fd876ee0f73bced42b881604051610cba9190611121565b60405180910390a150565b5f60019054906101000a900473ffffffffffffffffffffffffffffffffffffffff1681565b5f604051905090565b5f80fd5b5f80fd5b5f819050919050565b610d0d81610cfb565b8114610d17575f80fd5b50565b5f81359050610d2881610d04565b92915050565b5f60208284031215610d4357610d42610cf3565b5b5f610d5084828501610d1a565b91505092915050565b5f81519050919050565b5f82825260208201905092915050565b8281835e5f83830152505050565b5f601f19601f8301169050919050565b5f610d9b82610d59565b610da58185610d63565b9350610db5818560208601610d73565b610dbe81610d81565b840191505092915050565b5f6020820190508181035f830152610de18184610d91565b905092915050565b7f4e487b71000000000000000000000000000000000000000000000000000000005f52602160045260245ffd5b60038110610e2757610e26610de9565b5b50565b5f819050610e3782610e16565b919050565b5f610e4682610e2a565b9050919050565b610e5681610e3c565b82525050565b5f602082019050610e6f5f830184610e4d565b92915050565b610e7e81610cfb565b82525050565b5f606082019050610e975f830186610e75565b8181036020830152610ea98185610d91565b9050610eb86040830184610e75565b949350505050565b5f80fd5b5f80fd5b7f4e487b71000000000000000000000000000000000000000000000000000000005f52604160045260245ffd5b610efe82610d81565b810181811067ffffffffffffffff82111715610f1d57610f1c610ec8565b5b80604052505050565b5f610f2f610cea565b9050610f3b8282610ef5565b919050565b5f67ffffffffffffffff821115610f5a57610f59610ec8565b5b610f6382610d81565b9050602081019050919050565b828183375f83830152505050565b5f610f90610f8b84610f40565b610f26565b905082815260208101848484011115610fac57610fab610ec4565b5b610fb7848285610f70565b509392505050565b5f82601f830112610fd357610fd2610ec0565b5b8135610fe3848260208601610f7e565b91505092915050565b5f6020828403121561100157611000610cf3565b5b5f82013567ffffffffffffffff81111561101e5761101d610cf7565b5b61102a84828501610fbf565b91505092915050565b5f6020820190506110465f830184610e75565b92915050565b5f73ffffffffffffffffffffffffffffffffffffffff82169050919050565b5f6110758261104c565b9050919050565b6110858161106b565b811461108f575f80fd5b50565b5f813590506110a08161107c565b92915050565b5f602082840312156110bb576110ba610cf3565b5b5f6110c884828501611092565b91505092915050565b5f8115159050919050565b6110e5816110d1565b82525050565b5f6040820190506110fe5f8301856110dc565b61110b6020830184610e75565b9392505050565b61111b8161106b565b82525050565b5f6020820190506111345f830184611112565b92915050565b7f566f74696e67206973206e6f74206f70656e00000000000000000000000000005f82015250565b5f61116e601283610d63565b91506111798261113a565b602082019050919050565b5f6020820190508181035f83015261119b81611162565b9050919050565b7f596f752063616e206f6e6c7920766f7465206f6e6365000000000000000000005f82015250565b5f6111d6601683610d63565b91506111e1826111a2565b602082019050919050565b5f6020820190508181035f830152611203816111ca565b9050919050565b7f416c726561647920766f746564000000000000000000000000000000000000005f82015250565b5f61123e600d83610d63565b91506112498261120a565b602082019050919050565b5f6020820190508181035f83015261126b81611232565b9050919050565b7f496e76616c69642063616e6469646174650000000000000000000000000000005f82015250565b5f6112a6601183610d63565b91506112b182611272565b602082019050919050565b5f6020820190508181035f8301526112d38161129a565b9050919050565b7f4e487b71000000000000000000000000000000000000000000000000000000005f52601160045260245ffd5b5f61131182610cfb565b91507fffffffffffffffffffffffffffffffffffffffffffffffffffffffffffffffff8203611343576113426112da565b5b600182019050919050565b5f6040820190506113615f830185611112565b61136e6020830184610e75565b9392505050565b7f4e487b71000000000000000000000000000000000000000000000000000000005f52602260045260245ffd5b5f60028204905060018216806113b957607f821691505b6020821081036113cc576113cb611375565b5b50919050565b7f4f6e6c792061646d696e2063616e20706572666f726d207468697320616374695f8201527f6f6e000000000000000000000000000000000000000000000000000000000000602082015250565b5f61142c602283610d63565b9150611437826113d2565b604082019050919050565b5f6020820190508181035f83015261145981611420565b9050919050565b5f819050815f5260205f209050919050565b5f6020601f8301049050919050565b5f82821b905092915050565b5f600883026114bc7fffffffffffffffffffffffffffffffffffffffffffffffffffffffffffffffff82611481565b6114c68683611481565b95508019841693508086168417925050509392505050565b5f819050919050565b5f6115016114fc6114f784610cfb565b6114de565b610cfb565b9050919050565b5f819050919050565b61151a836114e7565b61152e61152682611508565b84845461148d565b825550505050565b5f90565b611542611536565b61154d818484611511565b505050565b5b81811015611570576115655f8261153a565b600181019050611553565b5050565b601f8211156115b55761158681611460565b61158f84611472565b8101602085101561159e578190505b6115b26115aa85611472565b830182611552565b50505b505050565b5f82821c905092915050565b5f6115d55f19846008026115ba565b1980831691505092915050565b5f6115ed83836115c6565b9150826002028217905092915050565b61160682610d59565b67ffffffffffffffff81111561161f5761161e610ec8565b5b61162982546113a2565b611634828285611574565b5f60209050601f831160018114611665575f8415611653578287015190505b61165d85826115e2565b8655506116c4565b601f19841661167386611460565b5f5b8281101561169a57848901518255600182019150602085019450602081019050611675565b868310156116b757848901516116b3601f8916826115c6565b8355505b6001600288020188555050505b505050505050565b5f6040820190506116df5f830185610e75565b81810360208301526116f18184610d91565b90509392505050565b7f456c656374696f6e20697320616c72656164792073746172746564206f7220635f8201527f6c6f736564000000000000000000000000000000000000000000000000000000602082015250565b5f611754602583610d63565b915061175f826116fa565b604082019050919050565b5f6020820190508181035f83015261178181611748565b9050919050565b7f456c656374696f6e206973206e6f74206f70656e0000000000000000000000005f82015250565b5f6117bc601483610d63565b91506117c782611788565b602082019050919050565b5f6020820190508181035f8301526117e9816117b0565b905091905056fea2646970667358221220505ca69a11d122344491470abb0d4fdecf6b42e6f4a71c61d2fb84423f73c9a164736f6c634300081a0033",
					"opcodes": "PUSH1 0x80 PUSH1 0x40 MSTORE CALLVALUE DUP1 ISZERO PUSH1 0xE JUMPI PUSH0 DUP1 REVERT JUMPDEST POP CALLER PUSH0 PUSH1 0x1 PUSH2 0x100 EXP DUP2 SLOAD DUP2 PUSH20 0xFFFFFFFFFFFFFFFFFFFFFFFFFFFFFFFFFFFFFFFF MUL NOT AND SWAP1 DUP4 PUSH20 0xFFFFFFFFFFFFFFFFFFFFFFFFFFFFFFFFFFFFFFFF AND MUL OR SWAP1 SSTORE POP PUSH0 DUP1 PUSH0 PUSH2 0x100 EXP DUP2 SLOAD DUP2 PUSH1 0xFF MUL NOT AND SWAP1 DUP4 PUSH1 0x2 DUP2 GT ISZERO PUSH1 0x6F JUMPI PUSH1 0x6E PUSH1 0x78 JUMP JUMPDEST JUMPDEST MUL OR SWAP1 SSTORE POP PUSH1 0xA5 JUMP JUMPDEST PUSH32 0x4E487B7100000000000000000000000000000000000000000000000000000000 PUSH0 MSTORE PUSH1 0x21 PUSH1 0x4 MSTORE PUSH1 0x24 PUSH0 REVERT JUMPDEST PUSH2 0x1826 DUP1 PUSH2 0xB2 PUSH0 CODECOPY PUSH0 RETURN INVALID PUSH1 0x80 PUSH1 0x40 MSTORE CALLVALUE DUP1 ISZERO PUSH2 0xF JUMPI PUSH0 DUP1 REVERT JUMPDEST POP PUSH1 0x4 CALLDATASIZE LT PUSH2 0xB2 JUMPI PUSH0 CALLDATALOAD PUSH1 0xE0 SHR DUP1 PUSH4 0xA3EC138D GT PUSH2 0x6F JUMPI DUP1 PUSH4 0xA3EC138D EQ PUSH2 0x18C JUMPI DUP1 PUSH4 0xA9A981A3 EQ PUSH2 0x1BD JUMPI DUP1 PUSH4 0xAFFC0670 EQ PUSH2 0x1DB JUMPI DUP1 PUSH4 0xC631B292 EQ PUSH2 0x1E5 JUMPI DUP1 PUSH4 0xF4AB9ADF EQ PUSH2 0x1EF JUMPI DUP1 PUSH4 0xF851A440 EQ PUSH2 0x20B JUMPI PUSH2 0xB2 JUMP JUMPDEST DUP1 PUSH4 0x121B93F EQ PUSH2 0xB6 JUMPI DUP1 PUSH4 0x122902A6 EQ PUSH2 0xD2 JUMPI DUP1 PUSH4 0x265050B6 EQ PUSH2 0xF0 JUMPI DUP1 PUSH4 0x3477EE2E EQ PUSH2 0x10E JUMPI DUP1 PUSH4 0x462E91EC EQ PUSH2 0x140 JUMPI DUP1 PUSH4 0x866163C0 EQ PUSH2 0x15C JUMPI JUMPDEST PUSH0 DUP1 REVERT JUMPDEST PUSH2 0xD0 PUSH1 0x4 DUP1 CALLDATASIZE SUB DUP2 ADD SWAP1 PUSH2 0xCB SWAP2 SWAP1 PUSH2 0xD2E JUMP JUMPDEST PUSH2 0x229 JUMP JUMPDEST STOP JUMPDEST PUSH2 0xDA PUSH2 0x50F JUMP JUMPDEST PUSH1 0x40 MLOAD PUSH2 0xE7 SWAP2 SWAP1 PUSH2 0xDC9 JUMP JUMPDEST PUSH1 0x40 MLOAD DUP1 SWAP2 SUB SWAP1 RETURN JUMPDEST PUSH2 0xF8 PUSH2 0x683 JUMP JUMPDEST PUSH1 0x40 MLOAD PUSH2 0x105 SWAP2 SWAP1 PUSH2 0xE5C JUMP JUMPDEST PUSH1 0x40 MLOAD DUP1 SWAP2 SUB SWAP1 RETURN JUMPDEST PUSH2 0x128 PUSH1 0x4 DUP1 CALLDATASIZE SUB DUP2 ADD SWAP1 PUSH2 0x123 SWAP2 SWAP1 PUSH2 0xD2E JUMP JUMPDEST PUSH2 0x693 JUMP JUMPDEST PUSH1 0x40 MLOAD PUSH2 0x137 SWAP4 SWAP3 SWAP2 SWAP1 PUSH2 0xE84 JUMP JUMPDEST PUSH1 0x40 MLOAD DUP1 SWAP2 SUB SWAP1 RETURN JUMPDEST PUSH2 0x15A PUSH1 0x4 DUP1 CALLDATASIZE SUB DUP2 ADD SWAP1 PUSH2 0x155 SWAP2 SWAP1 PUSH2 0xFEC JUMP JUMPDEST PUSH2 0x73F JUMP JUMPDEST STOP JUMPDEST PUSH2 0x176 PUSH1 0x4 DUP1 CALLDATASIZE SUB DUP2 ADD SWAP1 PUSH2 0x171 SWAP2 SWAP1 PUSH2 0xD2E JUMP JUMPDEST PUSH2 0x87E JUMP JUMPDEST PUSH1 0x40 MLOAD PUSH2 0x183 SWAP2 SWAP1 PUSH2 0x1033 JUMP JUMPDEST PUSH1 0x40 MLOAD DUP1 SWAP2 SUB SWAP1 RETURN JUMPDEST PUSH2 0x1A6 PUSH1 0x4 DUP1 CALLDATASIZE SUB DUP2 ADD SWAP1 PUSH2 0x1A1 SWAP2 SWAP1 PUSH2 0x10A6 JUMP JUMPDEST PUSH2 0x89B JUMP JUMPDEST PUSH1 0x40 MLOAD PUSH2 0x1B4 SWAP3 SWAP2 SWAP1 PUSH2 0x10EB JUMP JUMPDEST PUSH1 0x40 MLOAD DUP1 SWAP2 SUB SWAP1 RETURN JUMPDEST PUSH2 0x1C5 PUSH2 0x8C7 JUMP JUMPDEST PUSH1 0x40 MLOAD PUSH2 0x1D2 SWAP2 SWAP1 PUSH2 0x1033 JUMP JUMPDEST PUSH1 0x40 MLOAD DUP1 SWAP2 SUB SWAP1 RETURN JUMPDEST PUSH2 0x1E3 PUSH2 0x8CD JUMP JUMPDEST STOP JUMPDEST PUSH2 0x1ED PUSH2 0xA25 JUMP JUMPDEST STOP JUMPDEST PUSH2 0x209 PUSH1 0x4 DUP1 CALLDATASIZE SUB DUP2 ADD SWAP1 PUSH2 0x204 SWAP2 SWAP1 PUSH2 0x10A6 JUMP JUMPDEST PUSH2 0xB7E JUMP JUMPDEST STOP JUMPDEST PUSH2 0x213 PUSH2 0xCC5 JUMP JUMPDEST PUSH1 0x40 MLOAD PUSH2 0x220 SWAP2 SWAP1 PUSH2 0x1121 JUMP JUMPDEST PUSH1 0x40 MLOAD DUP1 SWAP2 SUB SWAP1 RETURN JUMPDEST PUSH1 0x1 PUSH1 0x2 DUP2 GT ISZERO PUSH2 0x23D JUMPI PUSH2 0x23C PUSH2 0xDE9 JUMP JUMPDEST JUMPDEST PUSH0 DUP1 SLOAD SWAP1 PUSH2 0x100 EXP SWAP1 DIV PUSH1 0xFF AND PUSH1 0x2 DUP2 GT ISZERO PUSH2 0x25C JUMPI PUSH2 0x25B PUSH2 0xDE9 JUMP JUMPDEST JUMPDEST EQ PUSH2 0x29C JUMPI PUSH1 0x40 MLOAD PUSH32 0x8C379A000000000000000000000000000000000000000000000000000000000 DUP2 MSTORE PUSH1 0x4 ADD PUSH2 0x293 SWAP1 PUSH2 0x1184 JUMP JUMPDEST PUSH1 0x40 MLOAD DUP1 SWAP2 SUB SWAP1 REVERT JUMPDEST PUSH1 0x3 PUSH0 CALLER PUSH20 0xFFFFFFFFFFFFFFFFFFFFFFFFFFFFFFFFFFFFFFFF AND PUSH20 0xFFFFFFFFFFFFFFFFFFFFFFFFFFFFFFFFFFFFFFFF AND DUP2 MSTORE PUSH1 0x20 ADD SWAP1 DUP2 MSTORE PUSH1 0x20 ADD PUSH0 KECCAK256 PUSH0 ADD PUSH0 SWAP1 SLOAD SWAP1 PUSH2 0x100 EXP SWAP1 DIV PUSH1 0xFF AND ISZERO PUSH2 0x328 JUMPI PUSH1 0x40 MLOAD PUSH32 0x8C379A000000000000000000000000000000000000000000000000000000000 DUP2 MSTORE PUSH1 0x4 ADD PUSH2 0x31F SWAP1 PUSH2 0x11EC JUMP JUMPDEST PUSH1 0x40 MLOAD DUP1 SWAP2 SUB SWAP1 REVERT JUMPDEST PUSH0 ISZERO ISZERO PUSH1 0x3 PUSH0 CALLER PUSH20 0xFFFFFFFFFFFFFFFFFFFFFFFFFFFFFFFFFFFFFFFF AND PUSH20 0xFFFFFFFFFFFFFFFFFFFFFFFFFFFFFFFFFFFFFFFF AND DUP2 MSTORE PUSH1 0x20 ADD SWAP1 DUP2 MSTORE PUSH1 0x20 ADD PUSH0 KECCAK256 PUSH0 ADD PUSH0 SWAP1 SLOAD SWAP1 PUSH2 0x100 EXP SWAP1 DIV PUSH1 0xFF AND ISZERO ISZERO EQ PUSH2 0x3B9 JUMPI PUSH1 0x40 MLOAD PUSH32 0x8C379A000000000000000000000000000000000000000000000000000000000 DUP2 MSTORE PUSH1 0x4 ADD PUSH2 0x3B0 SWAP1 PUSH2 0x1254 JUMP JUMPDEST PUSH1 0x40 MLOAD DUP1 SWAP2 SUB SWAP1 REVERT JUMPDEST PUSH0 PUSH1 0x2 PUSH0 DUP4 DUP2 MSTORE PUSH1 0x20 ADD SWAP1 DUP2 MSTORE PUSH1 0x20 ADD PUSH0 KECCAK256 PUSH0 ADD SLOAD SUB PUSH2 0x40E JUMPI PUSH1 0x40 MLOAD PUSH32 0x8C379A000000000000000000000000000000000000000000000000000000000 DUP2 MSTORE PUSH1 0x4 ADD PUSH2 0x405 SWAP1 PUSH2 0x12BC JUMP JUMPDEST PUSH1 0x40 MLOAD DUP1 SWAP2 SUB SWAP1 REVERT JUMPDEST PUSH1 0x1 PUSH1 0x3 PUSH0 CALLER PUSH20 0xFFFFFFFFFFFFFFFFFFFFFFFFFFFFFFFFFFFFFFFF AND PUSH20 0xFFFFFFFFFFFFFFFFFFFFFFFFFFFFFFFFFFFFFFFF AND DUP2 MSTORE PUSH1 0x20 ADD SWAP1 DUP2 MSTORE PUSH1 0x20 ADD PUSH0 KECCAK256 PUSH0 ADD PUSH0 PUSH2 0x100 EXP DUP2 SLOAD DUP2 PUSH1 0xFF MUL NOT AND SWAP1 DUP4 ISZERO ISZERO MUL OR SWAP1 SSTORE POP DUP1 PUSH1 0x3 PUSH0 CALLER PUSH20 0xFFFFFFFFFFFFFFFFFFFFFFFFFFFFFFFFFFFFFFFF AND PUSH20 0xFFFFFFFFFFFFFFFFFFFFFFFFFFFFFFFFFFFFFFFF AND DUP2 MSTORE PUSH1 0x20 ADD SWAP1 DUP2 MSTORE PUSH1 0x20 ADD PUSH0 KECCAK256 PUSH1 0x1 ADD DUP2 SWAP1 SSTORE POP PUSH1 0x2 PUSH0 DUP3 DUP2 MSTORE PUSH1 0x20 ADD SWAP1 DUP2 MSTORE PUSH1 0x20 ADD PUSH0 KECCAK256 PUSH1 0x2 ADD PUSH0 DUP2 SLOAD DUP1 SWAP3 SWAP2 SWAP1 PUSH2 0x4CE SWAP1 PUSH2 0x1307 JUMP JUMPDEST SWAP2 SWAP1 POP SSTORE POP PUSH32 0xA36CC2BEBB74DB33E9F88110A07EF56E1B31B24B4C4F51B54B1664266E29F45B CALLER DUP3 PUSH1 0x40 MLOAD PUSH2 0x504 SWAP3 SWAP2 SWAP1 PUSH2 0x134E JUMP JUMPDEST PUSH1 0x40 MLOAD DUP1 SWAP2 SUB SWAP1 LOG1 POP JUMP JUMPDEST PUSH1 0x60 PUSH0 PUSH1 0x2 DUP2 GT ISZERO PUSH2 0x524 JUMPI PUSH2 0x523 PUSH2 0xDE9 JUMP JUMPDEST JUMPDEST PUSH0 DUP1 SLOAD SWAP1 PUSH2 0x100 EXP SWAP1 DIV PUSH1 0xFF AND PUSH1 0x2 DUP2 GT ISZERO PUSH2 0x543 JUMPI PUSH2 0x542 PUSH2 0xDE9 JUMP JUMPDEST JUMPDEST SUB PUSH2 0x585 JUMPI PUSH1 0x40 MLOAD DUP1 PUSH1 0x40 ADD PUSH1 0x40 MSTORE DUP1 PUSH1 0xB DUP2 MSTORE PUSH1 0x20 ADD PUSH32 0x4E6F742053746172746564000000000000000000000000000000000000000000 DUP2 MSTORE POP SWAP1 POP PUSH2 0x680 JUMP JUMPDEST PUSH1 0x1 PUSH1 0x2 DUP2 GT ISZERO PUSH2 0x599 JUMPI PUSH2 0x598 PUSH2 0xDE9 JUMP JUMPDEST JUMPDEST PUSH0 DUP1 SLOAD SWAP1 PUSH2 0x100 EXP SWAP1 DIV PUSH1 0xFF AND PUSH1 0x2 DUP2 GT ISZERO PUSH2 0x5B8 JUMPI PUSH2 0x5B7 PUSH2 0xDE9 JUMP JUMPDEST JUMPDEST SUB PUSH2 0x5FA JUMPI PUSH1 0x40 MLOAD DUP1 PUSH1 0x40 ADD PUSH1 0x40 MSTORE DUP1 PUSH1 0x4 DUP2 MSTORE PUSH1 0x20 ADD PUSH32 0x4F70656E00000000000000000000000000000000000000000000000000000000 DUP2 MSTORE POP SWAP1 POP PUSH2 0x680 JUMP JUMPDEST PUSH1 0x2 DUP1 DUP2 GT ISZERO PUSH2 0x60D JUMPI PUSH2 0x60C PUSH2 0xDE9 JUMP JUMPDEST JUMPDEST PUSH0 DUP1 SLOAD SWAP1 PUSH2 0x100 EXP SWAP1 DIV PUSH1 0xFF AND PUSH1 0x2 DUP2 GT ISZERO PUSH2 0x62C JUMPI PUSH2 0x62B PUSH2 0xDE9 JUMP JUMPDEST JUMPDEST SUB PUSH2 0x66E JUMPI PUSH1 0x40 MLOAD DUP1 PUSH1 0x40 ADD PUSH1 0x40 MSTORE DUP1 PUSH1 0x6 DUP2 MSTORE PUSH1 0x20 ADD PUSH32 0x436C6F7365640000000000000000000000000000000000000000000000000000 DUP2 MSTORE POP SWAP1 POP PUSH2 0x680 JUMP JUMPDEST PUSH1 0x40 MLOAD DUP1 PUSH1 0x20 ADD PUSH1 0x40 MSTORE DUP1 PUSH0 DUP2 MSTORE POP SWAP1 POP JUMPDEST SWAP1 JUMP JUMPDEST PUSH0 DUP1 SLOAD SWAP1 PUSH2 0x100 EXP SWAP1 DIV PUSH1 0xFF AND DUP2 JUMP JUMPDEST PUSH1 0x2 PUSH1 0x20 MSTORE DUP1 PUSH0 MSTORE PUSH1 0x40 PUSH0 KECCAK256 PUSH0 SWAP2 POP SWAP1 POP DUP1 PUSH0 ADD SLOAD SWAP1 DUP1 PUSH1 0x1 ADD DUP1 SLOAD PUSH2 0x6B8 SWAP1 PUSH2 0x13A2 JUMP JUMPDEST DUP1 PUSH1 0x1F ADD PUSH1 0x20 DUP1 SWAP2 DIV MUL PUSH1 0x20 ADD PUSH1 0x40 MLOAD SWAP1 DUP2 ADD PUSH1 0x40 MSTORE DUP1 SWAP3 SWAP2 SWAP1 DUP2 DUP2 MSTORE PUSH1 0x20 ADD DUP3 DUP1 SLOAD PUSH2 0x6E4 SWAP1 PUSH2 0x13A2 JUMP JUMPDEST DUP1 ISZERO PUSH2 0x72F JUMPI DUP1 PUSH1 0x1F LT PUSH2 0x706 JUMPI PUSH2 0x100 DUP1 DUP4 SLOAD DIV MUL DUP4 MSTORE SWAP2 PUSH1 0x20 ADD SWAP2 PUSH2 0x72F JUMP JUMPDEST DUP3 ADD SWAP2 SWAP1 PUSH0 MSTORE PUSH1 0x20 PUSH0 KECCAK256 SWAP1 JUMPDEST DUP2 SLOAD DUP2 MSTORE SWAP1 PUSH1 0x1 ADD SWAP1 PUSH1 0x20 ADD DUP1 DUP4 GT PUSH2 0x712 JUMPI DUP3 SWAP1 SUB PUSH1 0x1F AND DUP3 ADD SWAP2 JUMPDEST POP POP POP POP POP SWAP1 DUP1 PUSH1 0x2 ADD SLOAD SWAP1 POP DUP4 JUMP JUMPDEST PUSH0 PUSH1 0x1 SWAP1 SLOAD SWAP1 PUSH2 0x100 EXP SWAP1 DIV PUSH20 0xFFFFFFFFFFFFFFFFFFFFFFFFFFFFFFFFFFFFFFFF AND PUSH20 0xFFFFFFFFFFFFFFFFFFFFFFFFFFFFFFFFFFFFFFFF AND CALLER PUSH20 0xFFFFFFFFFFFFFFFFFFFFFFFFFFFFFFFFFFFFFFFF AND EQ PUSH2 0x7CE JUMPI PUSH1 0x40 MLOAD PUSH32 0x8C379A000000000000000000000000000000000000000000000000000000000 DUP2 MSTORE PUSH1 0x4 ADD PUSH2 0x7C5 SWAP1 PUSH2 0x1442 JUMP JUMPDEST PUSH1 0x40 MLOAD DUP1 SWAP2 SUB SWAP1 REVERT JUMPDEST PUSH1 0x1 PUSH0 DUP2 SLOAD DUP1 SWAP3 SWAP2 SWAP1 PUSH2 0x7E0 SWAP1 PUSH2 0x1307 JUMP JUMPDEST SWAP2 SWAP1 POP SSTORE POP PUSH1 0x40 MLOAD DUP1 PUSH1 0x60 ADD PUSH1 0x40 MSTORE DUP1 PUSH1 0x1 SLOAD DUP2 MSTORE PUSH1 0x20 ADD DUP3 DUP2 MSTORE PUSH1 0x20 ADD PUSH0 DUP2 MSTORE POP PUSH1 0x2 PUSH0 PUSH1 0x1 SLOAD DUP2 MSTORE PUSH1 0x20 ADD SWAP1 DUP2 MSTORE PUSH1 0x20 ADD PUSH0 KECCAK256 PUSH0 DUP3 ADD MLOAD DUP2 PUSH0 ADD SSTORE PUSH1 0x20 DUP3 ADD MLOAD DUP2 PUSH1 0x1 ADD SWAP1 DUP2 PUSH2 0x832 SWAP2 SWAP1 PUSH2 0x15FD JUMP JUMPDEST POP PUSH1 0x40 DUP3 ADD MLOAD DUP2 PUSH1 0x2 ADD SSTORE SWAP1 POP POP PUSH32 0xE83B2A43E7E82D975C8A0A6D2F045153C869E111136A34D1889AB7B598E396A3 PUSH1 0x1 SLOAD DUP3 PUSH1 0x40 MLOAD PUSH2 0x873 SWAP3 SWAP2 SWAP1 PUSH2 0x16CC JUMP JUMPDEST PUSH1 0x40 MLOAD DUP1 SWAP2 SUB SWAP1 LOG1 POP JUMP JUMPDEST PUSH0 PUSH1 0x2 PUSH0 DUP4 DUP2 MSTORE PUSH1 0x20 ADD SWAP1 DUP2 MSTORE PUSH1 0x20 ADD PUSH0 KECCAK256 PUSH1 0x2 ADD SLOAD SWAP1 POP SWAP2 SWAP1 POP JUMP JUMPDEST PUSH1 0x3 PUSH1 0x20 MSTORE DUP1 PUSH0 MSTORE PUSH1 0x40 PUSH0 KECCAK256 PUSH0 SWAP2 POP SWAP1 POP DUP1 PUSH0 ADD PUSH0 SWAP1 SLOAD SWAP1 PUSH2 0x100 EXP SWAP1 DIV PUSH1 0xFF AND SWAP1 DUP1 PUSH1 0x1 ADD SLOAD SWAP1 POP DUP3 JUMP JUMPDEST PUSH1 0x1 SLOAD DUP2 JUMP JUMPDEST PUSH0 PUSH1 0x1 SWAP1 SLOAD SWAP1 PUSH2 0x100 EXP SWAP1 DIV PUSH20 0xFFFFFFFFFFFFFFFFFFFFFFFFFFFFFFFFFFFFFFFF AND PUSH20 0xFFFFFFFFFFFFFFFFFFFFFFFFFFFFFFFFFFFFFFFF AND CALLER PUSH20 0xFFFFFFFFFFFFFFFFFFFFFFFFFFFFFFFFFFFFFFFF AND EQ PUSH2 0x95C JUMPI PUSH1 0x40 MLOAD PUSH32 0x8C379A000000000000000000000000000000000000000000000000000000000 DUP2 MSTORE PUSH1 0x4 ADD PUSH2 0x953 SWAP1 PUSH2 0x1442 JUMP JUMPDEST PUSH1 0x40 MLOAD DUP1 SWAP2 SUB SWAP1 REVERT JUMPDEST PUSH0 PUSH1 0x2 DUP2 GT ISZERO PUSH2 0x96F JUMPI PUSH2 0x96E PUSH2 0xDE9 JUMP JUMPDEST JUMPDEST PUSH0 DUP1 SLOAD SWAP1 PUSH2 0x100 EXP SWAP1 DIV PUSH1 0xFF AND PUSH1 0x2 DUP2 GT ISZERO PUSH2 0x98E JUMPI PUSH2 0x98D PUSH2 0xDE9 JUMP JUMPDEST JUMPDEST EQ PUSH2 0x9CE JUMPI PUSH1 0x40 MLOAD PUSH32 0x8C379A000000000000000000000000000000000000000000000000000000000 DUP2 MSTORE PUSH1 0x4 ADD PUSH2 0x9C5 SWAP1 PUSH2 0x176A JUMP JUMPDEST PUSH1 0x40 MLOAD DUP1 SWAP2 SUB SWAP1 REVERT JUMPDEST PUSH1 0x1 PUSH0 DUP1 PUSH2 0x100 EXP DUP2 SLOAD DUP2 PUSH1 0xFF MUL NOT AND SWAP1 DUP4 PUSH1 0x2 DUP2 GT ISZERO PUSH2 0x9F2 JUMPI PUSH2 0x9F1 PUSH2 0xDE9 JUMP JUMPDEST JUMPDEST MUL OR SWAP1 SSTORE POP PUSH32 0xA737FAA632A36C00CCB4220893426E922F9442F1CAB67ACD8301F88A596D4ABC PUSH1 0x40 MLOAD PUSH1 0x40 MLOAD DUP1 SWAP2 SUB SWAP1 LOG1 JUMP JUMPDEST PUSH0 PUSH1 0x1 SWAP1 SLOAD SWAP1 PUSH2 0x100 EXP SWAP1 DIV PUSH20 0xFFFFFFFFFFFFFFFFFFFFFFFFFFFFFFFFFFFFFFFF AND PUSH20 0xFFFFFFFFFFFFFFFFFFFFFFFFFFFFFFFFFFFFFFFF AND CALLER PUSH20 0xFFFFFFFFFFFFFFFFFFFFFFFFFFFFFFFFFFFFFFFF AND EQ PUSH2 0xAB4 JUMPI PUSH1 0x40 MLOAD PUSH32 0x8C379A000000000000000000000000000000000000000000000000000000000 DUP2 MSTORE PUSH1 0x4 ADD PUSH2 0xAAB SWAP1 PUSH2 0x1442 JUMP JUMPDEST PUSH1 0x40 MLOAD DUP1 SWAP2 SUB SWAP1 REVERT JUMPDEST PUSH1 0x1 PUSH1 0x2 DUP2 GT ISZERO PUSH2 0xAC8 JUMPI PUSH2 0xAC7 PUSH2 0xDE9 JUMP JUMPDEST JUMPDEST PUSH0 DUP1 SLOAD SWAP1 PUSH2 0x100 EXP SWAP1 DIV PUSH1 0xFF AND PUSH1 0x2 DUP2 GT ISZERO PUSH2 0xAE7 JUMPI PUSH2 0xAE6 PUSH2 0xDE9 JUMP JUMPDEST JUMPDEST EQ PUSH2 0xB27 JUMPI PUSH1 0x40 MLOAD PUSH32 0x8C379A000000000000000000000000000000000000000000000000000000000 DUP2 MSTORE PUSH1 0x4 ADD PUSH2 0xB1E SWAP1 PUSH2 0x17D2 JUMP JUMPDEST PUSH1 0x40 MLOAD DUP1 SWAP2 SUB SWAP1 REVERT JUMPDEST PUSH1 0x2 PUSH0 DUP1 PUSH2 0x100 EXP DUP2 SLOAD DUP2 PUSH1 0xFF MUL NOT AND SWAP1 DUP4 PUSH1 0x2 DUP2 GT ISZERO PUSH2 0xB4B JUMPI PUSH2 0xB4A PUSH2 0xDE9 JUMP JUMPDEST JUMPDEST MUL OR SWAP1 SSTORE POP PUSH32 0x66B6CB4A09ABC3BF1CACC3C67420258856FFDAD0DEBA9078CBD1658957B50218 PUSH1 0x40 MLOAD PUSH1 0x40 MLOAD DUP1 SWAP2 SUB SWAP1 LOG1 JUMP JUMPDEST PUSH0 PUSH1 0x1 SWAP1 SLOAD SWAP1 PUSH2 0x100 EXP SWAP1 DIV PUSH20 0xFFFFFFFFFFFFFFFFFFFFFFFFFFFFFFFFFFFFFFFF AND PUSH20 0xFFFFFFFFFFFFFFFFFFFFFFFFFFFFFFFFFFFFFFFF AND CALLER PUSH20 0xFFFFFFFFFFFFFFFFFFFFFFFFFFFFFFFFFFFFFFFF AND EQ PUSH2 0xC0D JUMPI PUSH1 0x40 MLOAD PUSH32 0x8C379A000000000000000000000000000000000000000000000000000000000 DUP2 MSTORE PUSH1 0x4 ADD PUSH2 0xC04 SWAP1 PUSH2 0x1442 JUMP JUMPDEST PUSH1 0x40 MLOAD DUP1 SWAP2 SUB SWAP1 REVERT JUMPDEST PUSH1 0x40 MLOAD DUP1 PUSH1 0x40 ADD PUSH1 0x40 MSTORE DUP1 PUSH0 ISZERO ISZERO DUP2 MSTORE PUSH1 0x20 ADD PUSH0 DUP2 MSTORE POP PUSH1 0x3 PUSH0 DUP4 PUSH20 0xFFFFFFFFFFFFFFFFFFFFFFFFFFFFFFFFFFFFFFFF AND PUSH20 0xFFFFFFFFFFFFFFFFFFFFFFFFFFFFFFFFFFFFFFFF AND DUP2 MSTORE PUSH1 0x20 ADD SWAP1 DUP2 MSTORE PUSH1 0x20 ADD PUSH0 KECCAK256 PUSH0 DUP3 ADD MLOAD DUP2 PUSH0 ADD PUSH0 PUSH2 0x100 EXP DUP2 SLOAD DUP2 PUSH1 0xFF MUL NOT AND SWAP1 DUP4 ISZERO ISZERO MUL OR SWAP1 SSTORE POP PUSH1 0x20 DUP3 ADD MLOAD DUP2 PUSH1 0x1 ADD SSTORE SWAP1 POP POP PUSH32 0xA636F4A11E2D3BA7F89D042ECB0A6B886716E98CD49D8FD876EE0F73BCED42B8 DUP2 PUSH1 0x40 MLOAD PUSH2 0xCBA SWAP2 SWAP1 PUSH2 0x1121 JUMP JUMPDEST PUSH1 0x40 MLOAD DUP1 SWAP2 SUB SWAP1 LOG1 POP JUMP JUMPDEST PUSH0 PUSH1 0x1 SWAP1 SLOAD SWAP1 PUSH2 0x100 EXP SWAP1 DIV PUSH20 0xFFFFFFFFFFFFFFFFFFFFFFFFFFFFFFFFFFFFFFFF AND DUP2 JUMP JUMPDEST PUSH0 PUSH1 0x40 MLOAD SWAP1 POP SWAP1 JUMP JUMPDEST PUSH0 DUP1 REVERT JUMPDEST PUSH0 DUP1 REVERT JUMPDEST PUSH0 DUP2 SWAP1 POP SWAP2 SWAP1 POP JUMP JUMPDEST PUSH2 0xD0D DUP2 PUSH2 0xCFB JUMP JUMPDEST DUP2 EQ PUSH2 0xD17 JUMPI PUSH0 DUP1 REVERT JUMPDEST POP JUMP JUMPDEST PUSH0 DUP2 CALLDATALOAD SWAP1 POP PUSH2 0xD28 DUP2 PUSH2 0xD04 JUMP JUMPDEST SWAP3 SWAP2 POP POP JUMP JUMPDEST PUSH0 PUSH1 0x20 DUP3 DUP5 SUB SLT ISZERO PUSH2 0xD43 JUMPI PUSH2 0xD42 PUSH2 0xCF3 JUMP JUMPDEST JUMPDEST PUSH0 PUSH2 0xD50 DUP5 DUP3 DUP6 ADD PUSH2 0xD1A JUMP JUMPDEST SWAP2 POP POP SWAP3 SWAP2 POP POP JUMP JUMPDEST PUSH0 DUP2 MLOAD SWAP1 POP SWAP2 SWAP1 POP JUMP JUMPDEST PUSH0 DUP3 DUP3 MSTORE PUSH1 0x20 DUP3 ADD SWAP1 POP SWAP3 SWAP2 POP POP JUMP JUMPDEST DUP3 DUP2 DUP4 MCOPY PUSH0 DUP4 DUP4 ADD MSTORE POP POP POP JUMP JUMPDEST PUSH0 PUSH1 0x1F NOT PUSH1 0x1F DUP4 ADD AND SWAP1 POP SWAP2 SWAP1 POP JUMP JUMPDEST PUSH0 PUSH2 0xD9B DUP3 PUSH2 0xD59 JUMP JUMPDEST PUSH2 0xDA5 DUP2 DUP6 PUSH2 0xD63 JUMP JUMPDEST SWAP4 POP PUSH2 0xDB5 DUP2 DUP6 PUSH1 0x20 DUP7 ADD PUSH2 0xD73 JUMP JUMPDEST PUSH2 0xDBE DUP2 PUSH2 0xD81 JUMP JUMPDEST DUP5 ADD SWAP2 POP POP SWAP3 SWAP2 POP POP JUMP JUMPDEST PUSH0 PUSH1 0x20 DUP3 ADD SWAP1 POP DUP2 DUP2 SUB PUSH0 DUP4 ADD MSTORE PUSH2 0xDE1 DUP2 DUP5 PUSH2 0xD91 JUMP JUMPDEST SWAP1 POP SWAP3 SWAP2 POP POP JUMP JUMPDEST PUSH32 0x4E487B7100000000000000000000000000000000000000000000000000000000 PUSH0 MSTORE PUSH1 0x21 PUSH1 0x4 MSTORE PUSH1 0x24 PUSH0 REVERT JUMPDEST PUSH1 0x3 DUP2 LT PUSH2 0xE27 JUMPI PUSH2 0xE26 PUSH2 0xDE9 JUMP JUMPDEST JUMPDEST POP JUMP JUMPDEST PUSH0 DUP2 SWAP1 POP PUSH2 0xE37 DUP3 PUSH2 0xE16 JUMP JUMPDEST SWAP2 SWAP1 POP JUMP JUMPDEST PUSH0 PUSH2 0xE46 DUP3 PUSH2 0xE2A JUMP JUMPDEST SWAP1 POP SWAP2 SWAP1 POP JUMP JUMPDEST PUSH2 0xE56 DUP2 PUSH2 0xE3C JUMP JUMPDEST DUP3 MSTORE POP POP JUMP JUMPDEST PUSH0 PUSH1 0x20 DUP3 ADD SWAP1 POP PUSH2 0xE6F PUSH0 DUP4 ADD DUP5 PUSH2 0xE4D JUMP JUMPDEST SWAP3 SWAP2 POP POP JUMP JUMPDEST PUSH2 0xE7E DUP2 PUSH2 0xCFB JUMP JUMPDEST DUP3 MSTORE POP POP JUMP JUMPDEST PUSH0 PUSH1 0x60 DUP3 ADD SWAP1 POP PUSH2 0xE97 PUSH0 DUP4 ADD DUP7 PUSH2 0xE75 JUMP JUMPDEST DUP2 DUP2 SUB PUSH1 0x20 DUP4 ADD MSTORE PUSH2 0xEA9 DUP2 DUP6 PUSH2 0xD91 JUMP JUMPDEST SWAP1 POP PUSH2 0xEB8 PUSH1 0x40 DUP4 ADD DUP5 PUSH2 0xE75 JUMP JUMPDEST SWAP5 SWAP4 POP POP POP POP JUMP JUMPDEST PUSH0 DUP1 REVERT JUMPDEST PUSH0 DUP1 REVERT JUMPDEST PUSH32 0x4E487B7100000000000000000000000000000000000000000000000000000000 PUSH0 MSTORE PUSH1 0x41 PUSH1 0x4 MSTORE PUSH1 0x24 PUSH0 REVERT JUMPDEST PUSH2 0xEFE DUP3 PUSH2 0xD81 JUMP JUMPDEST DUP2 ADD DUP2 DUP2 LT PUSH8 0xFFFFFFFFFFFFFFFF DUP3 GT OR ISZERO PUSH2 0xF1D JUMPI PUSH2 0xF1C PUSH2 0xEC8 JUMP JUMPDEST JUMPDEST DUP1 PUSH1 0x40 MSTORE POP POP POP JUMP JUMPDEST PUSH0 PUSH2 0xF2F PUSH2 0xCEA JUMP JUMPDEST SWAP1 POP PUSH2 0xF3B DUP3 DUP3 PUSH2 0xEF5 JUMP JUMPDEST SWAP2 SWAP1 POP JUMP JUMPDEST PUSH0 PUSH8 0xFFFFFFFFFFFFFFFF DUP3 GT ISZERO PUSH2 0xF5A JUMPI PUSH2 0xF59 PUSH2 0xEC8 JUMP JUMPDEST JUMPDEST PUSH2 0xF63 DUP3 PUSH2 0xD81 JUMP JUMPDEST SWAP1 POP PUSH1 0x20 DUP2 ADD SWAP1 POP SWAP2 SWAP1 POP JUMP JUMPDEST DUP3 DUP2 DUP4 CALLDATACOPY PUSH0 DUP4 DUP4 ADD MSTORE POP POP POP JUMP JUMPDEST PUSH0 PUSH2 0xF90 PUSH2 0xF8B DUP5 PUSH2 0xF40 JUMP JUMPDEST PUSH2 0xF26 JUMP JUMPDEST SWAP1 POP DUP3 DUP2 MSTORE PUSH1 0x20 DUP2 ADD DUP5 DUP5 DUP5 ADD GT ISZERO PUSH2 0xFAC JUMPI PUSH2 0xFAB PUSH2 0xEC4 JUMP JUMPDEST JUMPDEST PUSH2 0xFB7 DUP5 DUP3 DUP6 PUSH2 0xF70 JUMP JUMPDEST POP SWAP4 SWAP3 POP POP POP JUMP JUMPDEST PUSH0 DUP3 PUSH1 0x1F DUP4 ADD SLT PUSH2 0xFD3 JUMPI PUSH2 0xFD2 PUSH2 0xEC0 JUMP JUMPDEST JUMPDEST DUP2 CALLDATALOAD PUSH2 0xFE3 DUP5 DUP3 PUSH1 0x20 DUP7 ADD PUSH2 0xF7E JUMP JUMPDEST SWAP2 POP POP SWAP3 SWAP2 POP POP JUMP JUMPDEST PUSH0 PUSH1 0x20 DUP3 DUP5 SUB SLT ISZERO PUSH2 0x1001 JUMPI PUSH2 0x1000 PUSH2 0xCF3 JUMP JUMPDEST JUMPDEST PUSH0 DUP3 ADD CALLDATALOAD PUSH8 0xFFFFFFFFFFFFFFFF DUP2 GT ISZERO PUSH2 0x101E JUMPI PUSH2 0x101D PUSH2 0xCF7 JUMP JUMPDEST JUMPDEST PUSH2 0x102A DUP5 DUP3 DUP6 ADD PUSH2 0xFBF JUMP JUMPDEST SWAP2 POP POP SWAP3 SWAP2 POP POP JUMP JUMPDEST PUSH0 PUSH1 0x20 DUP3 ADD SWAP1 POP PUSH2 0x1046 PUSH0 DUP4 ADD DUP5 PUSH2 0xE75 JUMP JUMPDEST SWAP3 SWAP2 POP POP JUMP JUMPDEST PUSH0 PUSH20 0xFFFFFFFFFFFFFFFFFFFFFFFFFFFFFFFFFFFFFFFF DUP3 AND SWAP1 POP SWAP2 SWAP1 POP JUMP JUMPDEST PUSH0 PUSH2 0x1075 DUP3 PUSH2 0x104C JUMP JUMPDEST SWAP1 POP SWAP2 SWAP1 POP JUMP JUMPDEST PUSH2 0x1085 DUP2 PUSH2 0x106B JUMP JUMPDEST DUP2 EQ PUSH2 0x108F JUMPI PUSH0 DUP1 REVERT JUMPDEST POP JUMP JUMPDEST PUSH0 DUP2 CALLDATALOAD SWAP1 POP PUSH2 0x10A0 DUP2 PUSH2 0x107C JUMP JUMPDEST SWAP3 SWAP2 POP POP JUMP JUMPDEST PUSH0 PUSH1 0x20 DUP3 DUP5 SUB SLT ISZERO PUSH2 0x10BB JUMPI PUSH2 0x10BA PUSH2 0xCF3 JUMP JUMPDEST JUMPDEST PUSH0 PUSH2 0x10C8 DUP5 DUP3 DUP6 ADD PUSH2 0x1092 JUMP JUMPDEST SWAP2 POP POP SWAP3 SWAP2 POP POP JUMP JUMPDEST PUSH0 DUP2 ISZERO ISZERO SWAP1 POP SWAP2 SWAP1 POP JUMP JUMPDEST PUSH2 0x10E5 DUP2 PUSH2 0x10D1 JUMP JUMPDEST DUP3 MSTORE POP POP JUMP JUMPDEST PUSH0 PUSH1 0x40 DUP3 ADD SWAP1 POP PUSH2 0x10FE PUSH0 DUP4 ADD DUP6 PUSH2 0x10DC JUMP JUMPDEST PUSH2 0x110B PUSH1 0x20 DUP4 ADD DUP5 PUSH2 0xE75 JUMP JUMPDEST SWAP4 SWAP3 POP POP POP JUMP JUMPDEST PUSH2 0x111B DUP2 PUSH2 0x106B JUMP JUMPDEST DUP3 MSTORE POP POP JUMP JUMPDEST PUSH0 PUSH1 0x20 DUP3 ADD SWAP1 POP PUSH2 0x1134 PUSH0 DUP4 ADD DUP5 PUSH2 0x1112 JUMP JUMPDEST SWAP3 SWAP2 POP POP JUMP JUMPDEST PUSH32 0x566F74696E67206973206E6F74206F70656E0000000000000000000000000000 PUSH0 DUP3 ADD MSTORE POP JUMP JUMPDEST PUSH0 PUSH2 0x116E PUSH1 0x12 DUP4 PUSH2 0xD63 JUMP JUMPDEST SWAP2 POP PUSH2 0x1179 DUP3 PUSH2 0x113A JUMP JUMPDEST PUSH1 0x20 DUP3 ADD SWAP1 POP SWAP2 SWAP1 POP JUMP JUMPDEST PUSH0 PUSH1 0x20 DUP3 ADD SWAP1 POP DUP2 DUP2 SUB PUSH0 DUP4 ADD MSTORE PUSH2 0x119B DUP2 PUSH2 0x1162 JUMP JUMPDEST SWAP1 POP SWAP2 SWAP1 POP JUMP JUMPDEST PUSH32 0x596F752063616E206F6E6C7920766F7465206F6E636500000000000000000000 PUSH0 DUP3 ADD MSTORE POP JUMP JUMPDEST PUSH0 PUSH2 0x11D6 PUSH1 0x16 DUP4 PUSH2 0xD63 JUMP JUMPDEST SWAP2 POP PUSH2 0x11E1 DUP3 PUSH2 0x11A2 JUMP JUMPDEST PUSH1 0x20 DUP3 ADD SWAP1 POP SWAP2 SWAP1 POP JUMP JUMPDEST PUSH0 PUSH1 0x20 DUP3 ADD SWAP1 POP DUP2 DUP2 SUB PUSH0 DUP4 ADD MSTORE PUSH2 0x1203 DUP2 PUSH2 0x11CA JUMP JUMPDEST SWAP1 POP SWAP2 SWAP1 POP JUMP JUMPDEST PUSH32 0x416C726561647920766F74656400000000000000000000000000000000000000 PUSH0 DUP3 ADD MSTORE POP JUMP JUMPDEST PUSH0 PUSH2 0x123E PUSH1 0xD DUP4 PUSH2 0xD63 JUMP JUMPDEST SWAP2 POP PUSH2 0x1249 DUP3 PUSH2 0x120A JUMP JUMPDEST PUSH1 0x20 DUP3 ADD SWAP1 POP SWAP2 SWAP1 POP JUMP JUMPDEST PUSH0 PUSH1 0x20 DUP3 ADD SWAP1 POP DUP2 DUP2 SUB PUSH0 DUP4 ADD MSTORE PUSH2 0x126B DUP2 PUSH2 0x1232 JUMP JUMPDEST SWAP1 POP SWAP2 SWAP1 POP JUMP JUMPDEST PUSH32 0x496E76616C69642063616E646964617465000000000000000000000000000000 PUSH0 DUP3 ADD MSTORE POP JUMP JUMPDEST PUSH0 PUSH2 0x12A6 PUSH1 0x11 DUP4 PUSH2 0xD63 JUMP JUMPDEST SWAP2 POP PUSH2 0x12B1 DUP3 PUSH2 0x1272 JUMP JUMPDEST PUSH1 0x20 DUP3 ADD SWAP1 POP SWAP2 SWAP1 POP JUMP JUMPDEST PUSH0 PUSH1 0x20 DUP3 ADD SWAP1 POP DUP2 DUP2 SUB PUSH0 DUP4 ADD MSTORE PUSH2 0x12D3 DUP2 PUSH2 0x129A JUMP JUMPDEST SWAP1 POP SWAP2 SWAP1 POP JUMP JUMPDEST PUSH32 0x4E487B7100000000000000000000000000000000000000000000000000000000 PUSH0 MSTORE PUSH1 0x11 PUSH1 0x4 MSTORE PUSH1 0x24 PUSH0 REVERT JUMPDEST PUSH0 PUSH2 0x1311 DUP3 PUSH2 0xCFB JUMP JUMPDEST SWAP2 POP PUSH32 0xFFFFFFFFFFFFFFFFFFFFFFFFFFFFFFFFFFFFFFFFFFFFFFFFFFFFFFFFFFFFFFFF DUP3 SUB PUSH2 0x1343 JUMPI PUSH2 0x1342 PUSH2 0x12DA JUMP JUMPDEST JUMPDEST PUSH1 0x1 DUP3 ADD SWAP1 POP SWAP2 SWAP1 POP JUMP JUMPDEST PUSH0 PUSH1 0x40 DUP3 ADD SWAP1 POP PUSH2 0x1361 PUSH0 DUP4 ADD DUP6 PUSH2 0x1112 JUMP JUMPDEST PUSH2 0x136E PUSH1 0x20 DUP4 ADD DUP5 PUSH2 0xE75 JUMP JUMPDEST SWAP4 SWAP3 POP POP POP JUMP JUMPDEST PUSH32 0x4E487B7100000000000000000000000000000000000000000000000000000000 PUSH0 MSTORE PUSH1 0x22 PUSH1 0x4 MSTORE PUSH1 0x24 PUSH0 REVERT JUMPDEST PUSH0 PUSH1 0x2 DUP3 DIV SWAP1 POP PUSH1 0x1 DUP3 AND DUP1 PUSH2 0x13B9 JUMPI PUSH1 0x7F DUP3 AND SWAP2 POP JUMPDEST PUSH1 0x20 DUP3 LT DUP2 SUB PUSH2 0x13CC JUMPI PUSH2 0x13CB PUSH2 0x1375 JUMP JUMPDEST JUMPDEST POP SWAP2 SWAP1 POP JUMP JUMPDEST PUSH32 0x4F6E6C792061646D696E2063616E20706572666F726D20746869732061637469 PUSH0 DUP3 ADD MSTORE PUSH32 0x6F6E000000000000000000000000000000000000000000000000000000000000 PUSH1 0x20 DUP3 ADD MSTORE POP JUMP JUMPDEST PUSH0 PUSH2 0x142C PUSH1 0x22 DUP4 PUSH2 0xD63 JUMP JUMPDEST SWAP2 POP PUSH2 0x1437 DUP3 PUSH2 0x13D2 JUMP JUMPDEST PUSH1 0x40 DUP3 ADD SWAP1 POP SWAP2 SWAP1 POP JUMP JUMPDEST PUSH0 PUSH1 0x20 DUP3 ADD SWAP1 POP DUP2 DUP2 SUB PUSH0 DUP4 ADD MSTORE PUSH2 0x1459 DUP2 PUSH2 0x1420 JUMP JUMPDEST SWAP1 POP SWAP2 SWAP1 POP JUMP JUMPDEST PUSH0 DUP2 SWAP1 POP DUP2 PUSH0 MSTORE PUSH1 0x20 PUSH0 KECCAK256 SWAP1 POP SWAP2 SWAP1 POP JUMP JUMPDEST PUSH0 PUSH1 0x20 PUSH1 0x1F DUP4 ADD DIV SWAP1 POP SWAP2 SWAP1 POP JUMP JUMPDEST PUSH0 DUP3 DUP3 SHL SWAP1 POP SWAP3 SWAP2 POP POP JUMP JUMPDEST PUSH0 PUSH1 0x8 DUP4 MUL PUSH2 0x14BC PUSH32 0xFFFFFFFFFFFFFFFFFFFFFFFFFFFFFFFFFFFFFFFFFFFFFFFFFFFFFFFFFFFFFFFF DUP3 PUSH2 0x1481 JUMP JUMPDEST PUSH2 0x14C6 DUP7 DUP4 PUSH2 0x1481 JUMP JUMPDEST SWAP6 POP DUP1 NOT DUP5 AND SWAP4 POP DUP1 DUP7 AND DUP5 OR SWAP3 POP POP POP SWAP4 SWAP3 POP POP POP JUMP JUMPDEST PUSH0 DUP2 SWAP1 POP SWAP2 SWAP1 POP JUMP JUMPDEST PUSH0 PUSH2 0x1501 PUSH2 0x14FC PUSH2 0x14F7 DUP5 PUSH2 0xCFB JUMP JUMPDEST PUSH2 0x14DE JUMP JUMPDEST PUSH2 0xCFB JUMP JUMPDEST SWAP1 POP SWAP2 SWAP1 POP JUMP JUMPDEST PUSH0 DUP2 SWAP1 POP SWAP2 SWAP1 POP JUMP JUMPDEST PUSH2 0x151A DUP4 PUSH2 0x14E7 JUMP JUMPDEST PUSH2 0x152E PUSH2 0x1526 DUP3 PUSH2 0x1508 JUMP JUMPDEST DUP5 DUP5 SLOAD PUSH2 0x148D JUMP JUMPDEST DUP3 SSTORE POP POP POP POP JUMP JUMPDEST PUSH0 SWAP1 JUMP JUMPDEST PUSH2 0x1542 PUSH2 0x1536 JUMP JUMPDEST PUSH2 0x154D DUP2 DUP5 DUP5 PUSH2 0x1511 JUMP JUMPDEST POP POP POP JUMP JUMPDEST JUMPDEST DUP2 DUP2 LT ISZERO PUSH2 0x1570 JUMPI PUSH2 0x1565 PUSH0 DUP3 PUSH2 0x153A JUMP JUMPDEST PUSH1 0x1 DUP2 ADD SWAP1 POP PUSH2 0x1553 JUMP JUMPDEST POP POP JUMP JUMPDEST PUSH1 0x1F DUP3 GT ISZERO PUSH2 0x15B5 JUMPI PUSH2 0x1586 DUP2 PUSH2 0x1460 JUMP JUMPDEST PUSH2 0x158F DUP5 PUSH2 0x1472 JUMP JUMPDEST DUP2 ADD PUSH1 0x20 DUP6 LT ISZERO PUSH2 0x159E JUMPI DUP2 SWAP1 POP JUMPDEST PUSH2 0x15B2 PUSH2 0x15AA DUP6 PUSH2 0x1472 JUMP JUMPDEST DUP4 ADD DUP3 PUSH2 0x1552 JUMP JUMPDEST POP POP JUMPDEST POP POP POP JUMP JUMPDEST PUSH0 DUP3 DUP3 SHR SWAP1 POP SWAP3 SWAP2 POP POP JUMP JUMPDEST PUSH0 PUSH2 0x15D5 PUSH0 NOT DUP5 PUSH1 0x8 MUL PUSH2 0x15BA JUMP JUMPDEST NOT DUP1 DUP4 AND SWAP2 POP POP SWAP3 SWAP2 POP POP JUMP JUMPDEST PUSH0 PUSH2 0x15ED DUP4 DUP4 PUSH2 0x15C6 JUMP JUMPDEST SWAP2 POP DUP3 PUSH1 0x2 MUL DUP3 OR SWAP1 POP SWAP3 SWAP2 POP POP JUMP JUMPDEST PUSH2 0x1606 DUP3 PUSH2 0xD59 JUMP JUMPDEST PUSH8 0xFFFFFFFFFFFFFFFF DUP2 GT ISZERO PUSH2 0x161F JUMPI PUSH2 0x161E PUSH2 0xEC8 JUMP JUMPDEST JUMPDEST PUSH2 0x1629 DUP3 SLOAD PUSH2 0x13A2 JUMP JUMPDEST PUSH2 0x1634 DUP3 DUP3 DUP6 PUSH2 0x1574 JUMP JUMPDEST PUSH0 PUSH1 0x20 SWAP1 POP PUSH1 0x1F DUP4 GT PUSH1 0x1 DUP2 EQ PUSH2 0x1665 JUMPI PUSH0 DUP5 ISZERO PUSH2 0x1653 JUMPI DUP3 DUP8 ADD MLOAD SWAP1 POP JUMPDEST PUSH2 0x165D DUP6 DUP3 PUSH2 0x15E2 JUMP JUMPDEST DUP7 SSTORE POP PUSH2 0x16C4 JUMP JUMPDEST PUSH1 0x1F NOT DUP5 AND PUSH2 0x1673 DUP7 PUSH2 0x1460 JUMP JUMPDEST PUSH0 JUMPDEST DUP3 DUP2 LT ISZERO PUSH2 0x169A JUMPI DUP5 DUP10 ADD MLOAD DUP3 SSTORE PUSH1 0x1 DUP3 ADD SWAP2 POP PUSH1 0x20 DUP6 ADD SWAP5 POP PUSH1 0x20 DUP2 ADD SWAP1 POP PUSH2 0x1675 JUMP JUMPDEST DUP7 DUP4 LT ISZERO PUSH2 0x16B7 JUMPI DUP5 DUP10 ADD MLOAD PUSH2 0x16B3 PUSH1 0x1F DUP10 AND DUP3 PUSH2 0x15C6 JUMP JUMPDEST DUP4 SSTORE POP JUMPDEST PUSH1 0x1 PUSH1 0x2 DUP9 MUL ADD DUP9 SSTORE POP POP POP JUMPDEST POP POP POP POP POP POP JUMP JUMPDEST PUSH0 PUSH1 0x40 DUP3 ADD SWAP1 POP PUSH2 0x16DF PUSH0 DUP4 ADD DUP6 PUSH2 0xE75 JUMP JUMPDEST DUP2 DUP2 SUB PUSH1 0x20 DUP4 ADD MSTORE PUSH2 0x16F1 DUP2 DUP5 PUSH2 0xD91 JUMP JUMPDEST SWAP1 POP SWAP4 SWAP3 POP POP POP JUMP JUMPDEST PUSH32 0x456C656374696F6E20697320616C72656164792073746172746564206F722063 PUSH0 DUP3 ADD MSTORE PUSH32 0x6C6F736564000000000000000000000000000000000000000000000000000000 PUSH1 0x20 DUP3 ADD MSTORE POP JUMP JUMPDEST PUSH0 PUSH2 0x1754 PUSH1 0x25 DUP4 PUSH2 0xD63 JUMP JUMPDEST SWAP2 POP PUSH2 0x175F DUP3 PUSH2 0x16FA JUMP JUMPDEST PUSH1 0x40 DUP3 ADD SWAP1 POP SWAP2 SWAP1 POP JUMP JUMPDEST PUSH0 PUSH1 0x20 DUP3 ADD SWAP1 POP DUP2 DUP2 SUB PUSH0 DUP4 ADD MSTORE PUSH2 0x1781 DUP2 PUSH2 0x1748 JUMP JUMPDEST SWAP1 POP SWAP2 SWAP1 POP JUMP JUMPDEST PUSH32 0x456C656374696F6E206973206E6F74206F70656E000000000000000000000000 PUSH0 DUP3 ADD MSTORE POP JUMP JUMPDEST PUSH0 PUSH2 0x17BC PUSH1 0x14 DUP4 PUSH2 0xD63 JUMP JUMPDEST SWAP2 POP PUSH2 0x17C7 DUP3 PUSH2 0x1788 JUMP JUMPDEST PUSH1 0x20 DUP3 ADD SWAP1 POP SWAP2 SWAP1 POP JUMP JUMPDEST PUSH0 PUSH1 0x20 DUP3 ADD SWAP1 POP DUP2 DUP2 SUB PUSH0 DUP4 ADD MSTORE PUSH2 0x17E9 DUP2 PUSH2 0x17B0 JUMP JUMPDEST SWAP1 POP SWAP2 SWAP1 POP JUMP INVALID LOG2 PUSH5 0x6970667358 0x22 SLT KECCAK256 POP TLOAD 0xA6 SWAP11 GT 0xD1 0x22 CALLVALUE PREVRANDAO SWAP2 SELFBALANCE EXP 0xBB 0xD 0x4F 0xDE 0xCF PUSH12 0x42E6F4A71C61D2FB84423F73 0xC9 LOG1 PUSH5 0x736F6C6343 STOP ADDMOD BYTE STOP CALLER "
				},
				"gasEstimates": {
					"creation": {
						"codeDepositCost": "1236400",
						"executionCost": "49898",
						"totalCost": "1286298"
					},
					"external": {
						"addCandidate(string)": "infinite",
						"addVoter(address)": "infinite",
						"admin()": "2668",
						"candidateCount()": "2447",
						"candidates(uint256)": "infinite",
						"closeVoting()": "29698",
						"electionPhase()": "2596",
						"getCandidateVotes(uint256)": "infinite",
						"getElectionStatus()": "infinite",
						"openVoting()": "29675",
						"vote(uint256)": "infinite",
						"voters(address)": "5067"
					}
				},
				"methodIdentifiers": {
					"addCandidate(string)": "462e91ec",
					"addVoter(address)": "f4ab9adf",
					"admin()": "f851a440",
					"candidateCount()": "a9a981a3",
					"candidates(uint256)": "3477ee2e",
					"closeVoting()": "c631b292",
					"electionPhase()": "265050b6",
					"getCandidateVotes(uint256)": "866163c0",
					"getElectionStatus()": "122902a6",
					"openVoting()": "affc0670",
					"vote(uint256)": "0121b93f",
					"voters(address)": "a3ec138d"
				}
			},
			"storageLayout": {
				"storage": [
					{
						"astId": 8,
						"contract": "contracts/Votingapp.sol:VotingContract",
						"label": "electionPhase",
						"offset": 0,
						"slot": "0",
						"type": "t_enum(ElectionPhase)5"
					},
					{
						"astId": 22,
						"contract": "contracts/Votingapp.sol:VotingContract",
						"label": "admin",
						"offset": 1,
						"slot": "0",
						"type": "t_address"
					},
					{
						"astId": 24,
						"contract": "contracts/Votingapp.sol:VotingContract",
						"label": "candidateCount",
						"offset": 0,
						"slot": "1",
						"type": "t_uint256"
					},
					{
						"astId": 29,
						"contract": "contracts/Votingapp.sol:VotingContract",
						"label": "candidates",
						"offset": 0,
						"slot": "2",
						"type": "t_mapping(t_uint256,t_struct(Candidate)15_storage)"
					},
					{
						"astId": 34,
						"contract": "contracts/Votingapp.sol:VotingContract",
						"label": "voters",
						"offset": 0,
						"slot": "3",
						"type": "t_mapping(t_address,t_struct(Voter)20_storage)"
					}
				],
				"types": {
					"t_address": {
						"encoding": "inplace",
						"label": "address",
						"numberOfBytes": "20"
					},
					"t_bool": {
						"encoding": "inplace",
						"label": "bool",
						"numberOfBytes": "1"
					},
					"t_enum(ElectionPhase)5": {
						"encoding": "inplace",
						"label": "enum VotingContract.ElectionPhase",
						"numberOfBytes": "1"
					},
					"t_mapping(t_address,t_struct(Voter)20_storage)": {
						"encoding": "mapping",
						"key": "t_address",
						"label": "mapping(address => struct VotingContract.Voter)",
						"numberOfBytes": "32",
						"value": "t_struct(Voter)20_storage"
					},
					"t_mapping(t_uint256,t_struct(Candidate)15_storage)": {
						"encoding": "mapping",
						"key": "t_uint256",
						"label": "mapping(uint256 => struct VotingContract.Candidate)",
						"numberOfBytes": "32",
						"value": "t_struct(Candidate)15_storage"
					},
					"t_string_storage": {
						"encoding": "bytes",
						"label": "string",
						"numberOfBytes": "32"
					},
					"t_struct(Candidate)15_storage": {
						"encoding": "inplace",
						"label": "struct VotingContract.Candidate",
						"members": [
							{
								"astId": 10,
								"contract": "contracts/Votingapp.sol:VotingContract",
								"label": "id",
								"offset": 0,
								"slot": "0",
								"type": "t_uint256"
							},
							{
								"astId": 12,
								"contract": "contracts/Votingapp.sol:VotingContract",
								"label": "name",
								"offset": 0,
								"slot": "1",
								"type": "t_string_storage"
							},
							{
								"astId": 14,
								"contract": "contracts/Votingapp.sol:VotingContract",
								"label": "voteCount",
								"offset": 0,
								"slot": "2",
								"type": "t_uint256"
							}
						],
						"numberOfBytes": "96"
					},
					"t_struct(Voter)20_storage": {
						"encoding": "inplace",
						"label": "struct VotingContract.Voter",
						"members": [
							{
								"astId": 17,
								"contract": "contracts/Votingapp.sol:VotingContract",
								"label": "hasVoted",
								"offset": 0,
								"slot": "0",
								"type": "t_bool"
							},
							{
								"astId": 19,
								"contract": "contracts/Votingapp.sol:VotingContract",
								"label": "votedCandidateId",
								"offset": 0,
								"slot": "1",
								"type": "t_uint256"
							}
						],
						"numberOfBytes": "64"
					},
					"t_uint256": {
						"encoding": "inplace",
						"label": "uint256",
						"numberOfBytes": "32"
					}
				}
			},
			"userdoc": {
				"kind": "user",
				"methods": {},
				"version": 1
			}
		}
	}
}