{
	"contracts/SmartContractLockeyDoge-Funding.sol": {
		"LockyDogeFunding": {
			"abi": [
				{
					"inputs": [],
					"stateMutability": "nonpayable",
					"type": "constructor"
				},
				{
					"anonymous": false,
					"inputs": [
						{
							"indexed": false,
							"internalType": "uint256",
							"name": "projectId",
							"type": "uint256"
						}
					],
					"name": "FundingClosed",
					"type": "event"
				},
				{
					"anonymous": false,
					"inputs": [
						{
							"indexed": false,
							"internalType": "uint256",
							"name": "projectId",
							"type": "uint256"
						},
						{
							"indexed": true,
							"internalType": "address",
							"name": "investor",
							"type": "address"
						},
						{
							"indexed": false,
							"internalType": "uint256",
							"name": "amount",
							"type": "uint256"
						}
					],
					"name": "FundingReceived",
					"type": "event"
				},
				{
					"anonymous": false,
					"inputs": [
						{
							"indexed": false,
							"internalType": "uint256",
							"name": "projectId",
							"type": "uint256"
						},
						{
							"indexed": false,
							"internalType": "uint256",
							"name": "amount",
							"type": "uint256"
						}
					],
					"name": "FundsWithdrawn",
					"type": "event"
				},
				{
					"anonymous": false,
					"inputs": [
						{
							"indexed": false,
							"internalType": "uint256",
							"name": "projectId",
							"type": "uint256"
						}
					],
					"name": "ProjectApproved",
					"type": "event"
				},
				{
					"anonymous": false,
					"inputs": [
						{
							"indexed": false,
							"internalType": "uint256",
							"name": "projectId",
							"type": "uint256"
						},
						{
							"indexed": true,
							"internalType": "address",
							"name": "owner",
							"type": "address"
						},
						{
							"indexed": false,
							"internalType": "string",
							"name": "description",
							"type": "string"
						},
						{
							"indexed": false,
							"internalType": "uint256",
							"name": "fundingGoal",
							"type": "uint256"
						}
					],
					"name": "ProjectCreated",
					"type": "event"
				},
				{
					"anonymous": false,
					"inputs": [
						{
							"indexed": false,
							"internalType": "uint256",
							"name": "projectId",
							"type": "uint256"
						}
					],
					"name": "ProjectStarted",
					"type": "event"
				},
				{
					"inputs": [],
					"name": "admin",
					"outputs": [
						{
							"internalType": "address",
							"name": "",
							"type": "address"
						}
					],
					"stateMutability": "view",
					"type": "function"
				},
				{
					"inputs": [
						{
							"internalType": "uint256",
							"name": "projectId",
							"type": "uint256"
						}
					],
					"name": "approveProject",
					"outputs": [],
					"stateMutability": "nonpayable",
					"type": "function"
				},
				{
					"inputs": [
						{
							"internalType": "uint256",
							"name": "projectId",
							"type": "uint256"
						}
					],
					"name": "closeFundingPeriod",
					"outputs": [],
					"stateMutability": "nonpayable",
					"type": "function"
				},
				{
					"inputs": [
						{
							"internalType": "uint256",
							"name": "",
							"type": "uint256"
						},
						{
							"internalType": "address",
							"name": "",
							"type": "address"
						}
					],
					"name": "contributions",
					"outputs": [
						{
							"internalType": "uint256",
							"name": "",
							"type": "uint256"
						}
					],
					"stateMutability": "view",
					"type": "function"
				},
				{
					"inputs": [
						{
							"internalType": "string",
							"name": "description",
							"type": "string"
						},
						{
							"internalType": "uint256",
							"name": "fundingGoal",
							"type": "uint256"
						}
					],
					"name": "createProject",
					"outputs": [],
					"stateMutability": "nonpayable",
					"type": "function"
				},
				{
					"inputs": [
						{
							"internalType": "uint256",
							"name": "projectId",
							"type": "uint256"
						}
					],
					"name": "fundProject",
					"outputs": [],
					"stateMutability": "payable",
					"type": "function"
				},
				{
					"inputs": [
						{
							"internalType": "uint256",
							"name": "projectId",
							"type": "uint256"
						}
					],
					"name": "getProject",
					"outputs": [
						{
							"internalType": "address",
							"name": "",
							"type": "address"
						},
						{
							"internalType": "string",
							"name": "",
							"type": "string"
						},
						{
							"internalType": "uint256",
							"name": "",
							"type": "uint256"
						},
						{
							"internalType": "uint256",
							"name": "",
							"type": "uint256"
						},
						{
							"internalType": "enum LockyDogeFunding.ProjectState",
							"name": "",
							"type": "uint8"
						}
					],
					"stateMutability": "view",
					"type": "function"
				},
				{
					"inputs": [],
					"name": "projectCount",
					"outputs": [
						{
							"internalType": "uint256",
							"name": "",
							"type": "uint256"
						}
					],
					"stateMutability": "view",
					"type": "function"
				},
				{
					"inputs": [
						{
							"internalType": "uint256",
							"name": "",
							"type": "uint256"
						}
					],
					"name": "projects",
					"outputs": [
						{
							"internalType": "address payable",
							"name": "owner",
							"type": "address"
						},
						{
							"internalType": "string",
							"name": "description",
							"type": "string"
						},
						{
							"internalType": "uint256",
							"name": "fundingGoal",
							"type": "uint256"
						},
						{
							"internalType": "uint256",
							"name": "amountRaised",
							"type": "uint256"
						},
						{
							"internalType": "enum LockyDogeFunding.ProjectState",
							"name": "state",
							"type": "uint8"
						}
					],
					"stateMutability": "view",
					"type": "function"
				},
				{
					"inputs": [
						{
							"internalType": "uint256",
							"name": "projectId",
							"type": "uint256"
						}
					],
					"name": "withdrawFunds",
					"outputs": [],
					"stateMutability": "nonpayable",
					"type": "function"
				}
			],
			"devdoc": {
				"kind": "dev",
				"methods": {},
				"version": 1
			},
			"evm": {
				"assembly": "    /* \"contracts/SmartContractLockeyDoge-Funding.sol\":60:4260  contract LockyDogeFunding {... */\n  mstore(0x40, 0x80)\n    /* \"contracts/SmartContractLockeyDoge-Funding.sol\":1653:1704  constructor() {... */\n  callvalue\n  dup1\n  iszero\n  tag_1\n  jumpi\n  0x00\n  dup1\n  revert\ntag_1:\n  pop\n    /* \"contracts/SmartContractLockeyDoge-Funding.sol\":1686:1696  msg.sender */\n  caller\n    /* \"contracts/SmartContractLockeyDoge-Funding.sol\":1678:1683  admin */\n  0x03\n  0x00\n    /* \"contracts/SmartContractLockeyDoge-Funding.sol\":1678:1696  admin = msg.sender */\n  0x0100\n  exp\n  dup2\n  sload\n  dup2\n  0xffffffffffffffffffffffffffffffffffffffff\n  mul\n  not\n  and\n  swap1\n  dup4\n  0xffffffffffffffffffffffffffffffffffffffff\n  and\n  mul\n  or\n  swap1\n  sstore\n  pop\n    /* \"contracts/SmartContractLockeyDoge-Funding.sol\":60:4260  contract LockyDogeFunding {... */\n  dataSize(sub_0)\n  dup1\n  dataOffset(sub_0)\n  0x00\n  codecopy\n  0x00\n  return\nstop\n\nsub_0: assembly {\n        /* \"contracts/SmartContractLockeyDoge-Funding.sol\":60:4260  contract LockyDogeFunding {... */\n      mstore(0x40, 0x80)\n      jumpi(tag_1, lt(calldatasize, 0x04))\n      shr(0xe0, calldataload(0x00))\n      dup1\n      0x6c563abe\n      gt\n      tag_12\n      jumpi\n      dup1\n      0x6c563abe\n      eq\n      tag_7\n      jumpi\n      dup1\n      0x91754a5d\n      eq\n      tag_8\n      jumpi\n      dup1\n      0xf0f3f2c8\n      eq\n      tag_9\n      jumpi\n      dup1\n      0xf851a440\n      eq\n      tag_10\n      jumpi\n      dup1\n      0xfc69d836\n      eq\n      tag_11\n      jumpi\n      jump(tag_1)\n    tag_12:\n      dup1\n      0x107046bd\n      eq\n      tag_2\n      jumpi\n      dup1\n      0x155dd5ee\n      eq\n      tag_3\n      jumpi\n      dup1\n      0x36fbad26\n      eq\n      tag_4\n      jumpi\n      dup1\n      0x3d891f59\n      eq\n      tag_5\n      jumpi\n      dup1\n      0x58733dec\n      eq\n      tag_6\n      jumpi\n    tag_1:\n      0x00\n      dup1\n      revert\n        /* \"contracts/SmartContractLockeyDoge-Funding.sol\":459:499  mapping(uint => Project) public projects */\n    tag_2:\n      callvalue\n      dup1\n      iszero\n      tag_13\n      jumpi\n      0x00\n      dup1\n      revert\n    tag_13:\n      pop\n      tag_14\n      0x04\n      dup1\n      calldatasize\n      sub\n      dup2\n      add\n      swap1\n      tag_15\n      swap2\n      swap1\n      tag_16\n      jump\t// in\n    tag_15:\n      tag_17\n      jump\t// in\n    tag_14:\n      mload(0x40)\n      tag_18\n      swap6\n      swap5\n      swap4\n      swap3\n      swap2\n      swap1\n      tag_19\n      jump\t// in\n    tag_18:\n      mload(0x40)\n      dup1\n      swap2\n      sub\n      swap1\n      return\n        /* \"contracts/SmartContractLockeyDoge-Funding.sol\":3364:3917  function withdrawFunds(uint projectId) public onlyOwner(projectId) inState(projectId, ProjectState.FundingClosed) {... */\n    tag_3:\n      callvalue\n      dup1\n      iszero\n      tag_20\n      jumpi\n      0x00\n      dup1\n      revert\n    tag_20:\n      pop\n      tag_21\n      0x04\n      dup1\n      calldatasize\n      sub\n      dup2\n      add\n      swap1\n      tag_22\n      swap2\n      swap1\n      tag_16\n      jump\t// in\n    tag_22:\n      tag_23\n      jump\t// in\n    tag_21:\n      stop\n        /* \"contracts/SmartContractLockeyDoge-Funding.sol\":575:599  uint public projectCount */\n    tag_4:\n      callvalue\n      dup1\n      iszero\n      tag_24\n      jumpi\n      0x00\n      dup1\n      revert\n    tag_24:\n      pop\n      tag_25\n      tag_26\n      jump\t// in\n    tag_25:\n      mload(0x40)\n      tag_27\n      swap2\n      swap1\n      tag_28\n      jump\t// in\n    tag_27:\n      mload(0x40)\n      dup1\n      swap2\n      sub\n      swap1\n      return\n        /* \"contracts/SmartContractLockeyDoge-Funding.sol\":506:568  mapping(uint => mapping(address => uint)) public contributions */\n    tag_5:\n      callvalue\n      dup1\n      iszero\n      tag_29\n      jumpi\n      0x00\n      dup1\n      revert\n    tag_29:\n      pop\n      tag_30\n      0x04\n      dup1\n      calldatasize\n      sub\n      dup2\n      add\n      swap1\n      tag_31\n      swap2\n      swap1\n      tag_32\n      jump\t// in\n    tag_31:\n      tag_33\n      jump\t// in\n    tag_30:\n      mload(0x40)\n      tag_34\n      swap2\n      swap1\n      tag_28\n      jump\t// in\n    tag_34:\n      mload(0x40)\n      dup1\n      swap2\n      sub\n      swap1\n      return\n        /* \"contracts/SmartContractLockeyDoge-Funding.sol\":2560:2782  function closeFundingPeriod(uint projectId) public onlyAdmin inState(projectId, ProjectState.OpenForFunding) {... */\n    tag_6:\n      callvalue\n      dup1\n      iszero\n      tag_35\n      jumpi\n      0x00\n      dup1\n      revert\n    tag_35:\n      pop\n      tag_36\n      0x04\n      dup1\n      calldatasize\n      sub\n      dup2\n      add\n      swap1\n      tag_37\n      swap2\n      swap1\n      tag_16\n      jump\t// in\n    tag_37:\n      tag_38\n      jump\t// in\n    tag_36:\n      stop\n        /* \"contracts/SmartContractLockeyDoge-Funding.sol\":2844:3274  function fundProject(uint projectId) public payable inState(projectId, ProjectState.OpenForFunding) {... */\n    tag_7:\n      tag_39\n      0x04\n      dup1\n      calldatasize\n      sub\n      dup2\n      add\n      swap1\n      tag_40\n      swap2\n      swap1\n      tag_16\n      jump\t// in\n    tag_40:\n      tag_41\n      jump\t// in\n    tag_39:\n      stop\n        /* \"contracts/SmartContractLockeyDoge-Funding.sol\":1769:2206  function createProject(string memory description, uint fundingGoal) public {... */\n    tag_8:\n      callvalue\n      dup1\n      iszero\n      tag_42\n      jumpi\n      0x00\n      dup1\n      revert\n    tag_42:\n      pop\n      tag_43\n      0x04\n      dup1\n      calldatasize\n      sub\n      dup2\n      add\n      swap1\n      tag_44\n      swap2\n      swap1\n      tag_45\n      jump\t// in\n    tag_44:\n      tag_46\n      jump\t// in\n    tag_43:\n      stop\n        /* \"contracts/SmartContractLockeyDoge-Funding.sol\":3974:4257  function getProject(uint projectId) public view returns (address, string memory, uint, uint, ProjectState) {... */\n    tag_9:\n      callvalue\n      dup1\n      iszero\n      tag_47\n      jumpi\n      0x00\n      dup1\n      revert\n    tag_47:\n      pop\n      tag_48\n      0x04\n      dup1\n      calldatasize\n      sub\n      dup2\n      add\n      swap1\n      tag_49\n      swap2\n      swap1\n      tag_16\n      jump\t// in\n    tag_49:\n      tag_50\n      jump\t// in\n    tag_48:\n      mload(0x40)\n      tag_51\n      swap6\n      swap5\n      swap4\n      swap3\n      swap2\n      swap1\n      tag_52\n      jump\t// in\n    tag_51:\n      mload(0x40)\n      dup1\n      swap2\n      sub\n      swap1\n      return\n        /* \"contracts/SmartContractLockeyDoge-Funding.sol\":606:626  address public admin */\n    tag_10:\n      callvalue\n      dup1\n      iszero\n      tag_53\n      jumpi\n      0x00\n      dup1\n      revert\n    tag_53:\n      pop\n      tag_54\n      tag_55\n      jump\t// in\n    tag_54:\n      mload(0x40)\n      tag_56\n      swap2\n      swap1\n      tag_57\n      jump\t// in\n    tag_56:\n      mload(0x40)\n      dup1\n      swap2\n      sub\n      swap1\n      return\n        /* \"contracts/SmartContractLockeyDoge-Funding.sol\":2283:2497  function approveProject(uint projectId) public onlyAdmin inState(projectId, ProjectState.Created) {... */\n    tag_11:\n      callvalue\n      dup1\n      iszero\n      tag_58\n      jumpi\n      0x00\n      dup1\n      revert\n    tag_58:\n      pop\n      tag_59\n      0x04\n      dup1\n      calldatasize\n      sub\n      dup2\n      add\n      swap1\n      tag_60\n      swap2\n      swap1\n      tag_16\n      jump\t// in\n    tag_60:\n      tag_61\n      jump\t// in\n    tag_59:\n      stop\n        /* \"contracts/SmartContractLockeyDoge-Funding.sol\":459:499  mapping(uint => Project) public projects */\n    tag_17:\n      mstore(0x20, 0x00)\n      dup1\n      0x00\n      mstore\n      keccak256(0x00, 0x40)\n      0x00\n      swap2\n      pop\n      swap1\n      pop\n      dup1\n      0x00\n      add\n      0x00\n      swap1\n      sload\n      swap1\n      0x0100\n      exp\n      swap1\n      div\n      0xffffffffffffffffffffffffffffffffffffffff\n      and\n      swap1\n      dup1\n      0x01\n      add\n      dup1\n      sload\n      tag_62\n      swap1\n      tag_63\n      jump\t// in\n    tag_62:\n      dup1\n      0x1f\n      add\n      0x20\n      dup1\n      swap2\n      div\n      mul\n      0x20\n      add\n      mload(0x40)\n      swap1\n      dup2\n      add\n      0x40\n      mstore\n      dup1\n      swap3\n      swap2\n      swap1\n      dup2\n      dup2\n      mstore\n      0x20\n      add\n      dup3\n      dup1\n      sload\n      tag_64\n      swap1\n      tag_63\n      jump\t// in\n    tag_64:\n      dup1\n      iszero\n      tag_65\n      jumpi\n      dup1\n      0x1f\n      lt\n      tag_66\n      jumpi\n      0x0100\n      dup1\n      dup4\n      sload\n      div\n      mul\n      dup4\n      mstore\n      swap2\n      0x20\n      add\n      swap2\n      jump(tag_65)\n    tag_66:\n      dup3\n      add\n      swap2\n      swap1\n      0x00\n      mstore\n      keccak256(0x00, 0x20)\n      swap1\n    tag_67:\n      dup2\n      sload\n      dup2\n      mstore\n      swap1\n      0x01\n      add\n      swap1\n      0x20\n      add\n      dup1\n      dup4\n      gt\n      tag_67\n      jumpi\n      dup3\n      swap1\n      sub\n      0x1f\n      and\n      dup3\n      add\n      swap2\n    tag_65:\n      pop\n      pop\n      pop\n      pop\n      pop\n      swap1\n      dup1\n      0x02\n      add\n      sload\n      swap1\n      dup1\n      0x03\n      add\n      sload\n      swap1\n      dup1\n      0x04\n      add\n      0x00\n      swap1\n      sload\n      swap1\n      0x0100\n      exp\n      swap1\n      div\n      0xff\n      and\n      swap1\n      pop\n      dup6\n      jump\t// out\n        /* \"contracts/SmartContractLockeyDoge-Funding.sol\":3364:3917  function withdrawFunds(uint projectId) public onlyOwner(projectId) inState(projectId, ProjectState.FundingClosed) {... */\n    tag_23:\n        /* \"contracts/SmartContractLockeyDoge-Funding.sol\":3420:3429  projectId */\n      dup1\n        /* \"contracts/SmartContractLockeyDoge-Funding.sol\":1286:1294  projects */\n      0x00\n        /* \"contracts/SmartContractLockeyDoge-Funding.sol\":1286:1305  projects[projectId] */\n      dup1\n        /* \"contracts/SmartContractLockeyDoge-Funding.sol\":1295:1304  projectId */\n      dup3\n        /* \"contracts/SmartContractLockeyDoge-Funding.sol\":1286:1305  projects[projectId] */\n      dup2\n      mstore\n      0x20\n      add\n      swap1\n      dup2\n      mstore\n      0x20\n      add\n      0x00\n      keccak256\n        /* \"contracts/SmartContractLockeyDoge-Funding.sol\":1286:1311  projects[projectId].owner */\n      0x00\n      add\n      0x00\n      swap1\n      sload\n      swap1\n      0x0100\n      exp\n      swap1\n      div\n      0xffffffffffffffffffffffffffffffffffffffff\n      and\n        /* \"contracts/SmartContractLockeyDoge-Funding.sol\":1272:1311  msg.sender == projects[projectId].owner */\n      0xffffffffffffffffffffffffffffffffffffffff\n      and\n        /* \"contracts/SmartContractLockeyDoge-Funding.sol\":1272:1282  msg.sender */\n      caller\n        /* \"contracts/SmartContractLockeyDoge-Funding.sol\":1272:1311  msg.sender == projects[projectId].owner */\n      0xffffffffffffffffffffffffffffffffffffffff\n      and\n      eq\n        /* \"contracts/SmartContractLockeyDoge-Funding.sol\":1264:1362  require(msg.sender == projects[projectId].owner, \"Only the project owner can perform this action\") */\n      tag_69\n      jumpi\n      mload(0x40)\n      0x08c379a000000000000000000000000000000000000000000000000000000000\n      dup2\n      mstore\n      0x04\n      add\n      tag_70\n      swap1\n      tag_71\n      jump\t// in\n    tag_70:\n      mload(0x40)\n      dup1\n      swap2\n      sub\n      swap1\n      revert\n    tag_69:\n        /* \"contracts/SmartContractLockeyDoge-Funding.sol\":3439:3448  projectId */\n      dup2\n        /* \"contracts/SmartContractLockeyDoge-Funding.sol\":3450:3476  ProjectState.FundingClosed */\n      0x02\n        /* \"contracts/SmartContractLockeyDoge-Funding.sol\":1536:1542  _state */\n      dup1\n        /* \"contracts/SmartContractLockeyDoge-Funding.sol\":1507:1542  projects[projectId].state == _state */\n      0x03\n      dup2\n      gt\n      iszero\n      tag_73\n      jumpi\n      tag_74\n      tag_75\n      jump\t// in\n    tag_74:\n    tag_73:\n        /* \"contracts/SmartContractLockeyDoge-Funding.sol\":1507:1515  projects */\n      0x00\n        /* \"contracts/SmartContractLockeyDoge-Funding.sol\":1507:1526  projects[projectId] */\n      dup1\n        /* \"contracts/SmartContractLockeyDoge-Funding.sol\":1516:1525  projectId */\n      dup5\n        /* \"contracts/SmartContractLockeyDoge-Funding.sol\":1507:1526  projects[projectId] */\n      dup2\n      mstore\n      0x20\n      add\n      swap1\n      dup2\n      mstore\n      0x20\n      add\n      0x00\n      keccak256\n        /* \"contracts/SmartContractLockeyDoge-Funding.sol\":1507:1532  projects[projectId].state */\n      0x04\n      add\n      0x00\n      swap1\n      sload\n      swap1\n      0x0100\n      exp\n      swap1\n      div\n      0xff\n      and\n        /* \"contracts/SmartContractLockeyDoge-Funding.sol\":1507:1542  projects[projectId].state == _state */\n      0x03\n      dup2\n      gt\n      iszero\n      tag_76\n      jumpi\n      tag_77\n      tag_75\n      jump\t// in\n    tag_77:\n    tag_76:\n      eq\n        /* \"contracts/SmartContractLockeyDoge-Funding.sol\":1499:1584  require(projects[projectId].state == _state, \"Invalid project state for this action\") */\n      tag_78\n      jumpi\n      mload(0x40)\n      0x08c379a000000000000000000000000000000000000000000000000000000000\n      dup2\n      mstore\n      0x04\n      add\n      tag_79\n      swap1\n      tag_80\n      jump\t// in\n    tag_79:\n      mload(0x40)\n      dup1\n      swap2\n      sub\n      swap1\n      revert\n    tag_78:\n        /* \"contracts/SmartContractLockeyDoge-Funding.sol\":3489:3512  Project storage project */\n      0x00\n        /* \"contracts/SmartContractLockeyDoge-Funding.sol\":3515:3523  projects */\n      dup1\n        /* \"contracts/SmartContractLockeyDoge-Funding.sol\":3515:3534  projects[projectId] */\n      0x00\n        /* \"contracts/SmartContractLockeyDoge-Funding.sol\":3524:3533  projectId */\n      dup7\n        /* \"contracts/SmartContractLockeyDoge-Funding.sol\":3515:3534  projects[projectId] */\n      dup2\n      mstore\n      0x20\n      add\n      swap1\n      dup2\n      mstore\n      0x20\n      add\n      0x00\n      keccak256\n        /* \"contracts/SmartContractLockeyDoge-Funding.sol\":3489:3534  Project storage project = projects[projectId] */\n      swap1\n      pop\n        /* \"contracts/SmartContractLockeyDoge-Funding.sol\":3577:3584  project */\n      dup1\n        /* \"contracts/SmartContractLockeyDoge-Funding.sol\":3577:3596  project.fundingGoal */\n      0x02\n      add\n      sload\n        /* \"contracts/SmartContractLockeyDoge-Funding.sol\":3553:3560  project */\n      dup2\n        /* \"contracts/SmartContractLockeyDoge-Funding.sol\":3553:3573  project.amountRaised */\n      0x03\n      add\n      sload\n        /* \"contracts/SmartContractLockeyDoge-Funding.sol\":3553:3596  project.amountRaised >= project.fundingGoal */\n      lt\n      iszero\n        /* \"contracts/SmartContractLockeyDoge-Funding.sol\":3545:3625  require(project.amountRaised >= project.fundingGoal, \"Funding goal not reached\") */\n      tag_82\n      jumpi\n      mload(0x40)\n      0x08c379a000000000000000000000000000000000000000000000000000000000\n      dup2\n      mstore\n      0x04\n      add\n      tag_83\n      swap1\n      tag_84\n      jump\t// in\n    tag_83:\n      mload(0x40)\n      dup1\n      swap2\n      sub\n      swap1\n      revert\n    tag_82:\n        /* \"contracts/SmartContractLockeyDoge-Funding.sol\":3646:3657  uint amount */\n      0x00\n        /* \"contracts/SmartContractLockeyDoge-Funding.sol\":3660:3667  project */\n      dup2\n        /* \"contracts/SmartContractLockeyDoge-Funding.sol\":3660:3680  project.amountRaised */\n      0x03\n      add\n      sload\n        /* \"contracts/SmartContractLockeyDoge-Funding.sol\":3646:3680  uint amount = project.amountRaised */\n      swap1\n      pop\n        /* \"contracts/SmartContractLockeyDoge-Funding.sol\":3714:3715  0 */\n      0x00\n        /* \"contracts/SmartContractLockeyDoge-Funding.sol\":3691:3698  project */\n      dup3\n        /* \"contracts/SmartContractLockeyDoge-Funding.sol\":3691:3711  project.amountRaised */\n      0x03\n      add\n        /* \"contracts/SmartContractLockeyDoge-Funding.sol\":3691:3715  project.amountRaised = 0 */\n      dup2\n      swap1\n      sstore\n      pop\n        /* \"contracts/SmartContractLockeyDoge-Funding.sol\":3742:3768  ProjectState.FundWithdrawn */\n      0x03\n        /* \"contracts/SmartContractLockeyDoge-Funding.sol\":3726:3733  project */\n      dup3\n        /* \"contracts/SmartContractLockeyDoge-Funding.sol\":3726:3739  project.state */\n      0x04\n      add\n      0x00\n        /* \"contracts/SmartContractLockeyDoge-Funding.sol\":3726:3768  project.state = ProjectState.FundWithdrawn */\n      0x0100\n      exp\n      dup2\n      sload\n      dup2\n      0xff\n      mul\n      not\n      and\n      swap1\n      dup4\n      0x03\n      dup2\n      gt\n      iszero\n      tag_85\n      jumpi\n      tag_86\n      tag_75\n      jump\t// in\n    tag_86:\n    tag_85:\n      mul\n      or\n      swap1\n      sstore\n      pop\n        /* \"contracts/SmartContractLockeyDoge-Funding.sol\":3789:3796  project */\n      dup2\n        /* \"contracts/SmartContractLockeyDoge-Funding.sol\":3789:3802  project.owner */\n      0x00\n      add\n      0x00\n      swap1\n      sload\n      swap1\n      0x0100\n      exp\n      swap1\n      div\n      0xffffffffffffffffffffffffffffffffffffffff\n      and\n        /* \"contracts/SmartContractLockeyDoge-Funding.sol\":3789:3811  project.owner.transfer */\n      0xffffffffffffffffffffffffffffffffffffffff\n      and\n        /* \"contracts/SmartContractLockeyDoge-Funding.sol\":3789:3819  project.owner.transfer(amount) */\n      0x08fc\n        /* \"contracts/SmartContractLockeyDoge-Funding.sol\":3812:3818  amount */\n      dup3\n        /* \"contracts/SmartContractLockeyDoge-Funding.sol\":3789:3819  project.owner.transfer(amount) */\n      swap1\n      dup2\n      iszero\n      mul\n      swap1\n      mload(0x40)\n      0x00\n      mload(0x40)\n      dup1\n      dup4\n      sub\n      dup2\n      dup6\n      dup9\n      dup9\n      call\n      swap4\n      pop\n      pop\n      pop\n      pop\n      iszero\n      dup1\n      iszero\n      tag_88\n      jumpi\n      returndatasize\n      0x00\n      dup1\n      returndatacopy\n      revert(0x00, returndatasize)\n    tag_88:\n      pop\n        /* \"contracts/SmartContractLockeyDoge-Funding.sol\":3835:3868  FundsWithdrawn(projectId, amount) */\n      0xd66662c0ded9e58fd31d5e44944bcfd07ffc15e6927ecc1382e7941cb7bd24c4\n        /* \"contracts/SmartContractLockeyDoge-Funding.sol\":3850:3859  projectId */\n      dup7\n        /* \"contracts/SmartContractLockeyDoge-Funding.sol\":3861:3867  amount */\n      dup3\n        /* \"contracts/SmartContractLockeyDoge-Funding.sol\":3835:3868  FundsWithdrawn(projectId, amount) */\n      mload(0x40)\n      tag_89\n      swap3\n      swap2\n      swap1\n      tag_90\n      jump\t// in\n    tag_89:\n      mload(0x40)\n      dup1\n      swap2\n      sub\n      swap1\n      log1\n        /* \"contracts/SmartContractLockeyDoge-Funding.sol\":3884:3909  ProjectStarted(projectId) */\n      0xc6103cc0479d202218c64bbfa4df30c34a1f97e64c85a5a441103a0766241e66\n        /* \"contracts/SmartContractLockeyDoge-Funding.sol\":3899:3908  projectId */\n      dup7\n        /* \"contracts/SmartContractLockeyDoge-Funding.sol\":3884:3909  ProjectStarted(projectId) */\n      mload(0x40)\n      tag_91\n      swap2\n      swap1\n      tag_28\n      jump\t// in\n    tag_91:\n      mload(0x40)\n      dup1\n      swap2\n      sub\n      swap1\n      log1\n        /* \"contracts/SmartContractLockeyDoge-Funding.sol\":3478:3917  {... */\n      pop\n      pop\n        /* \"contracts/SmartContractLockeyDoge-Funding.sol\":1373:1374  _ */\n      pop\n      pop\n        /* \"contracts/SmartContractLockeyDoge-Funding.sol\":3364:3917  function withdrawFunds(uint projectId) public onlyOwner(projectId) inState(projectId, ProjectState.FundingClosed) {... */\n      pop\n      pop\n      jump\t// out\n        /* \"contracts/SmartContractLockeyDoge-Funding.sol\":575:599  uint public projectCount */\n    tag_26:\n      sload(0x02)\n      dup2\n      jump\t// out\n        /* \"contracts/SmartContractLockeyDoge-Funding.sol\":506:568  mapping(uint => mapping(address => uint)) public contributions */\n    tag_33:\n      mstore(0x20, 0x01)\n      dup2\n      0x00\n      mstore\n      mstore(0x20, keccak256(0x00, 0x40))\n      dup1\n      0x00\n      mstore\n      keccak256(0x00, 0x40)\n      0x00\n      swap2\n      pop\n      swap2\n      pop\n      pop\n      sload\n      dup2\n      jump\t// out\n        /* \"contracts/SmartContractLockeyDoge-Funding.sol\":2560:2782  function closeFundingPeriod(uint projectId) public onlyAdmin inState(projectId, ProjectState.OpenForFunding) {... */\n    tag_38:\n        /* \"contracts/SmartContractLockeyDoge-Funding.sol\":1114:1119  admin */\n      0x03\n      0x00\n      swap1\n      sload\n      swap1\n      0x0100\n      exp\n      swap1\n      div\n      0xffffffffffffffffffffffffffffffffffffffff\n      and\n        /* \"contracts/SmartContractLockeyDoge-Funding.sol\":1100:1119  msg.sender == admin */\n      0xffffffffffffffffffffffffffffffffffffffff\n      and\n        /* \"contracts/SmartContractLockeyDoge-Funding.sol\":1100:1110  msg.sender */\n      caller\n        /* \"contracts/SmartContractLockeyDoge-Funding.sol\":1100:1119  msg.sender == admin */\n      0xffffffffffffffffffffffffffffffffffffffff\n      and\n      eq\n        /* \"contracts/SmartContractLockeyDoge-Funding.sol\":1092:1158  require(msg.sender == admin, \"Only admin can perform this action\") */\n      tag_93\n      jumpi\n      mload(0x40)\n      0x08c379a000000000000000000000000000000000000000000000000000000000\n      dup2\n      mstore\n      0x04\n      add\n      tag_94\n      swap1\n      tag_95\n      jump\t// in\n    tag_94:\n      mload(0x40)\n      dup1\n      swap2\n      sub\n      swap1\n      revert\n    tag_93:\n        /* \"contracts/SmartContractLockeyDoge-Funding.sol\":2629:2638  projectId */\n      dup1\n        /* \"contracts/SmartContractLockeyDoge-Funding.sol\":2640:2667  ProjectState.OpenForFunding */\n      0x01\n        /* \"contracts/SmartContractLockeyDoge-Funding.sol\":1536:1542  _state */\n      dup1\n        /* \"contracts/SmartContractLockeyDoge-Funding.sol\":1507:1542  projects[projectId].state == _state */\n      0x03\n      dup2\n      gt\n      iszero\n      tag_97\n      jumpi\n      tag_98\n      tag_75\n      jump\t// in\n    tag_98:\n    tag_97:\n        /* \"contracts/SmartContractLockeyDoge-Funding.sol\":1507:1515  projects */\n      0x00\n        /* \"contracts/SmartContractLockeyDoge-Funding.sol\":1507:1526  projects[projectId] */\n      dup1\n        /* \"contracts/SmartContractLockeyDoge-Funding.sol\":1516:1525  projectId */\n      dup5\n        /* \"contracts/SmartContractLockeyDoge-Funding.sol\":1507:1526  projects[projectId] */\n      dup2\n      mstore\n      0x20\n      add\n      swap1\n      dup2\n      mstore\n      0x20\n      add\n      0x00\n      keccak256\n        /* \"contracts/SmartContractLockeyDoge-Funding.sol\":1507:1532  projects[projectId].state */\n      0x04\n      add\n      0x00\n      swap1\n      sload\n      swap1\n      0x0100\n      exp\n      swap1\n      div\n      0xff\n      and\n        /* \"contracts/SmartContractLockeyDoge-Funding.sol\":1507:1542  projects[projectId].state == _state */\n      0x03\n      dup2\n      gt\n      iszero\n      tag_99\n      jumpi\n      tag_100\n      tag_75\n      jump\t// in\n    tag_100:\n    tag_99:\n      eq\n        /* \"contracts/SmartContractLockeyDoge-Funding.sol\":1499:1584  require(projects[projectId].state == _state, \"Invalid project state for this action\") */\n      tag_101\n      jumpi\n      mload(0x40)\n      0x08c379a000000000000000000000000000000000000000000000000000000000\n      dup2\n      mstore\n      0x04\n      add\n      tag_102\n      swap1\n      tag_80\n      jump\t// in\n    tag_102:\n      mload(0x40)\n      dup1\n      swap2\n      sub\n      swap1\n      revert\n    tag_101:\n        /* \"contracts/SmartContractLockeyDoge-Funding.sol\":2708:2734  ProjectState.FundingClosed */\n      0x02\n        /* \"contracts/SmartContractLockeyDoge-Funding.sol\":2680:2688  projects */\n      0x00\n        /* \"contracts/SmartContractLockeyDoge-Funding.sol\":2680:2699  projects[projectId] */\n      dup1\n        /* \"contracts/SmartContractLockeyDoge-Funding.sol\":2689:2698  projectId */\n      dup6\n        /* \"contracts/SmartContractLockeyDoge-Funding.sol\":2680:2699  projects[projectId] */\n      dup2\n      mstore\n      0x20\n      add\n      swap1\n      dup2\n      mstore\n      0x20\n      add\n      0x00\n      keccak256\n        /* \"contracts/SmartContractLockeyDoge-Funding.sol\":2680:2705  projects[projectId].state */\n      0x04\n      add\n      0x00\n        /* \"contracts/SmartContractLockeyDoge-Funding.sol\":2680:2734  projects[projectId].state = ProjectState.FundingClosed */\n      0x0100\n      exp\n      dup2\n      sload\n      dup2\n      0xff\n      mul\n      not\n      and\n      swap1\n      dup4\n      0x03\n      dup2\n      gt\n      iszero\n      tag_104\n      jumpi\n      tag_105\n      tag_75\n      jump\t// in\n    tag_105:\n    tag_104:\n      mul\n      or\n      swap1\n      sstore\n      pop\n        /* \"contracts/SmartContractLockeyDoge-Funding.sol\":2750:2774  FundingClosed(projectId) */\n      0x3d4e2838c2c18bf2acccc9e82df8a8b76b0ca4118a6faf7a387fd77dec6aba34\n        /* \"contracts/SmartContractLockeyDoge-Funding.sol\":2764:2773  projectId */\n      dup4\n        /* \"contracts/SmartContractLockeyDoge-Funding.sol\":2750:2774  FundingClosed(projectId) */\n      mload(0x40)\n      tag_106\n      swap2\n      swap1\n      tag_28\n      jump\t// in\n    tag_106:\n      mload(0x40)\n      dup1\n      swap2\n      sub\n      swap1\n      log1\n        /* \"contracts/SmartContractLockeyDoge-Funding.sol\":1169:1170  _ */\n      pop\n      pop\n        /* \"contracts/SmartContractLockeyDoge-Funding.sol\":2560:2782  function closeFundingPeriod(uint projectId) public onlyAdmin inState(projectId, ProjectState.OpenForFunding) {... */\n      pop\n      jump\t// out\n        /* \"contracts/SmartContractLockeyDoge-Funding.sol\":2844:3274  function fundProject(uint projectId) public payable inState(projectId, ProjectState.OpenForFunding) {... */\n    tag_41:\n        /* \"contracts/SmartContractLockeyDoge-Funding.sol\":2904:2913  projectId */\n      dup1\n        /* \"contracts/SmartContractLockeyDoge-Funding.sol\":2915:2942  ProjectState.OpenForFunding */\n      0x01\n        /* \"contracts/SmartContractLockeyDoge-Funding.sol\":1536:1542  _state */\n      dup1\n        /* \"contracts/SmartContractLockeyDoge-Funding.sol\":1507:1542  projects[projectId].state == _state */\n      0x03\n      dup2\n      gt\n      iszero\n      tag_108\n      jumpi\n      tag_109\n      tag_75\n      jump\t// in\n    tag_109:\n    tag_108:\n        /* \"contracts/SmartContractLockeyDoge-Funding.sol\":1507:1515  projects */\n      0x00\n        /* \"contracts/SmartContractLockeyDoge-Funding.sol\":1507:1526  projects[projectId] */\n      dup1\n        /* \"contracts/SmartContractLockeyDoge-Funding.sol\":1516:1525  projectId */\n      dup5\n        /* \"contracts/SmartContractLockeyDoge-Funding.sol\":1507:1526  projects[projectId] */\n      dup2\n      mstore\n      0x20\n      add\n      swap1\n      dup2\n      mstore\n      0x20\n      add\n      0x00\n      keccak256\n        /* \"contracts/SmartContractLockeyDoge-Funding.sol\":1507:1532  projects[projectId].state */\n      0x04\n      add\n      0x00\n      swap1\n      sload\n      swap1\n      0x0100\n      exp\n      swap1\n      div\n      0xff\n      and\n        /* \"contracts/SmartContractLockeyDoge-Funding.sol\":1507:1542  projects[projectId].state == _state */\n      0x03\n      dup2\n      gt\n      iszero\n      tag_110\n      jumpi\n      tag_111\n      tag_75\n      jump\t// in\n    tag_111:\n    tag_110:\n      eq\n        /* \"contracts/SmartContractLockeyDoge-Funding.sol\":1499:1584  require(projects[projectId].state == _state, \"Invalid project state for this action\") */\n      tag_112\n      jumpi\n      mload(0x40)\n      0x08c379a000000000000000000000000000000000000000000000000000000000\n      dup2\n      mstore\n      0x04\n      add\n      tag_113\n      swap1\n      tag_80\n      jump\t// in\n    tag_113:\n      mload(0x40)\n      dup1\n      swap2\n      sub\n      swap1\n      revert\n    tag_112:\n        /* \"contracts/SmartContractLockeyDoge-Funding.sol\":2975:2976  0 */\n      0x00\n        /* \"contracts/SmartContractLockeyDoge-Funding.sol\":2963:2972  msg.value */\n      callvalue\n        /* \"contracts/SmartContractLockeyDoge-Funding.sol\":2963:2976  msg.value > 0 */\n      gt\n        /* \"contracts/SmartContractLockeyDoge-Funding.sol\":2955:3021  require(msg.value > 0, \"Funding amount must be greater than zero\") */\n      tag_115\n      jumpi\n      mload(0x40)\n      0x08c379a000000000000000000000000000000000000000000000000000000000\n      dup2\n      mstore\n      0x04\n      add\n      tag_116\n      swap1\n      tag_117\n      jump\t// in\n    tag_116:\n      mload(0x40)\n      dup1\n      swap2\n      sub\n      swap1\n      revert\n    tag_115:\n        /* \"contracts/SmartContractLockeyDoge-Funding.sol\":3042:3065  Project storage project */\n      0x00\n        /* \"contracts/SmartContractLockeyDoge-Funding.sol\":3068:3076  projects */\n      dup1\n        /* \"contracts/SmartContractLockeyDoge-Funding.sol\":3068:3087  projects[projectId] */\n      0x00\n        /* \"contracts/SmartContractLockeyDoge-Funding.sol\":3077:3086  projectId */\n      dup6\n        /* \"contracts/SmartContractLockeyDoge-Funding.sol\":3068:3087  projects[projectId] */\n      dup2\n      mstore\n      0x20\n      add\n      swap1\n      dup2\n      mstore\n      0x20\n      add\n      0x00\n      keccak256\n        /* \"contracts/SmartContractLockeyDoge-Funding.sol\":3042:3087  Project storage project = projects[projectId] */\n      swap1\n      pop\n        /* \"contracts/SmartContractLockeyDoge-Funding.sol\":3122:3131  msg.value */\n      callvalue\n        /* \"contracts/SmartContractLockeyDoge-Funding.sol\":3098:3105  project */\n      dup2\n        /* \"contracts/SmartContractLockeyDoge-Funding.sol\":3098:3118  project.amountRaised */\n      0x03\n      add\n      0x00\n        /* \"contracts/SmartContractLockeyDoge-Funding.sol\":3098:3131  project.amountRaised += msg.value */\n      dup3\n      dup3\n      sload\n      tag_118\n      swap2\n      swap1\n      tag_119\n      jump\t// in\n    tag_118:\n      swap3\n      pop\n      pop\n      dup2\n      swap1\n      sstore\n      pop\n        /* \"contracts/SmartContractLockeyDoge-Funding.sol\":3182:3191  msg.value */\n      callvalue\n        /* \"contracts/SmartContractLockeyDoge-Funding.sol\":3142:3155  contributions */\n      0x01\n        /* \"contracts/SmartContractLockeyDoge-Funding.sol\":3142:3166  contributions[projectId] */\n      0x00\n        /* \"contracts/SmartContractLockeyDoge-Funding.sol\":3156:3165  projectId */\n      dup7\n        /* \"contracts/SmartContractLockeyDoge-Funding.sol\":3142:3166  contributions[projectId] */\n      dup2\n      mstore\n      0x20\n      add\n      swap1\n      dup2\n      mstore\n      0x20\n      add\n      0x00\n      keccak256\n        /* \"contracts/SmartContractLockeyDoge-Funding.sol\":3142:3178  contributions[projectId][msg.sender] */\n      0x00\n        /* \"contracts/SmartContractLockeyDoge-Funding.sol\":3167:3177  msg.sender */\n      caller\n        /* \"contracts/SmartContractLockeyDoge-Funding.sol\":3142:3178  contributions[projectId][msg.sender] */\n      0xffffffffffffffffffffffffffffffffffffffff\n      and\n      0xffffffffffffffffffffffffffffffffffffffff\n      and\n      dup2\n      mstore\n      0x20\n      add\n      swap1\n      dup2\n      mstore\n      0x20\n      add\n      0x00\n      keccak256\n      0x00\n        /* \"contracts/SmartContractLockeyDoge-Funding.sol\":3142:3191  contributions[projectId][msg.sender] += msg.value */\n      dup3\n      dup3\n      sload\n      tag_120\n      swap2\n      swap1\n      tag_119\n      jump\t// in\n    tag_120:\n      swap3\n      pop\n      pop\n      dup2\n      swap1\n      sstore\n      pop\n        /* \"contracts/SmartContractLockeyDoge-Funding.sol\":3244:3254  msg.sender */\n      caller\n        /* \"contracts/SmartContractLockeyDoge-Funding.sol\":3217:3266  FundingReceived(projectId, msg.sender, msg.value) */\n      0xffffffffffffffffffffffffffffffffffffffff\n      and\n      0xc8fceb94d8cfaf3010a32f39dbdb0c0b361b10cdd6c7299d60376c85ff612837\n        /* \"contracts/SmartContractLockeyDoge-Funding.sol\":3233:3242  projectId */\n      dup6\n        /* \"contracts/SmartContractLockeyDoge-Funding.sol\":3256:3265  msg.value */\n      callvalue\n        /* \"contracts/SmartContractLockeyDoge-Funding.sol\":3217:3266  FundingReceived(projectId, msg.sender, msg.value) */\n      mload(0x40)\n      tag_121\n      swap3\n      swap2\n      swap1\n      tag_90\n      jump\t// in\n    tag_121:\n      mload(0x40)\n      dup1\n      swap2\n      sub\n      swap1\n      log2\n        /* \"contracts/SmartContractLockeyDoge-Funding.sol\":2944:3274  {... */\n      pop\n        /* \"contracts/SmartContractLockeyDoge-Funding.sol\":2844:3274  function fundProject(uint projectId) public payable inState(projectId, ProjectState.OpenForFunding) {... */\n      pop\n      pop\n      pop\n      jump\t// out\n        /* \"contracts/SmartContractLockeyDoge-Funding.sol\":1769:2206  function createProject(string memory description, uint fundingGoal) public {... */\n    tag_46:\n        /* \"contracts/SmartContractLockeyDoge-Funding.sol\":1855:1867  projectCount */\n      0x02\n      0x00\n        /* \"contracts/SmartContractLockeyDoge-Funding.sol\":1855:1869  projectCount++ */\n      dup2\n      sload\n      dup1\n      swap3\n      swap2\n      swap1\n      tag_123\n      swap1\n      tag_124\n      jump\t// in\n    tag_123:\n      swap2\n      swap1\n      pop\n      sstore\n      pop\n        /* \"contracts/SmartContractLockeyDoge-Funding.sol\":1905:2116  Project({... */\n      mload(0x40)\n      dup1\n      0xa0\n      add\n      0x40\n      mstore\n      dup1\n        /* \"contracts/SmartContractLockeyDoge-Funding.sol\":1943:1953  msg.sender */\n      caller\n        /* \"contracts/SmartContractLockeyDoge-Funding.sol\":1905:2116  Project({... */\n      0xffffffffffffffffffffffffffffffffffffffff\n      and\n      dup2\n      mstore\n      0x20\n      add\n        /* \"contracts/SmartContractLockeyDoge-Funding.sol\":1982:1993  description */\n      dup4\n        /* \"contracts/SmartContractLockeyDoge-Funding.sol\":1905:2116  Project({... */\n      dup2\n      mstore\n      0x20\n      add\n        /* \"contracts/SmartContractLockeyDoge-Funding.sol\":2021:2032  fundingGoal */\n      dup3\n        /* \"contracts/SmartContractLockeyDoge-Funding.sol\":1905:2116  Project({... */\n      dup2\n      mstore\n      0x20\n      add\n        /* \"contracts/SmartContractLockeyDoge-Funding.sol\":2061:2062  0 */\n      0x00\n        /* \"contracts/SmartContractLockeyDoge-Funding.sol\":1905:2116  Project({... */\n      dup2\n      mstore\n      0x20\n      add\n        /* \"contracts/SmartContractLockeyDoge-Funding.sol\":2084:2104  ProjectState.Created */\n      0x00\n        /* \"contracts/SmartContractLockeyDoge-Funding.sol\":1905:2116  Project({... */\n      0x03\n      dup2\n      gt\n      iszero\n      tag_125\n      jumpi\n      tag_126\n      tag_75\n      jump\t// in\n    tag_126:\n    tag_125:\n      dup2\n      mstore\n      pop\n        /* \"contracts/SmartContractLockeyDoge-Funding.sol\":1880:1888  projects */\n      0x00\n        /* \"contracts/SmartContractLockeyDoge-Funding.sol\":1880:1902  projects[projectCount] */\n      dup1\n        /* \"contracts/SmartContractLockeyDoge-Funding.sol\":1889:1901  projectCount */\n      sload(0x02)\n        /* \"contracts/SmartContractLockeyDoge-Funding.sol\":1880:1902  projects[projectCount] */\n      dup2\n      mstore\n      0x20\n      add\n      swap1\n      dup2\n      mstore\n      0x20\n      add\n      0x00\n      keccak256\n        /* \"contracts/SmartContractLockeyDoge-Funding.sol\":1880:2116  projects[projectCount] = Project({... */\n      0x00\n      dup3\n      add\n      mload\n      dup2\n      0x00\n      add\n      exp(0x0100, 0x00)\n      dup2\n      sload\n      dup2\n      0xffffffffffffffffffffffffffffffffffffffff\n      mul\n      not\n      and\n      swap1\n      dup4\n      0xffffffffffffffffffffffffffffffffffffffff\n      and\n      mul\n      or\n      swap1\n      sstore\n      pop\n      0x20\n      dup3\n      add\n      mload\n      dup2\n      0x01\n      add\n      swap1\n      dup2\n      tag_127\n      swap2\n      swap1\n      tag_128\n      jump\t// in\n    tag_127:\n      pop\n      0x40\n      dup3\n      add\n      mload\n      dup2\n      0x02\n      add\n      sstore\n      0x60\n      dup3\n      add\n      mload\n      dup2\n      0x03\n      add\n      sstore\n      0x80\n      dup3\n      add\n      mload\n      dup2\n      0x04\n      add\n      exp(0x0100, 0x00)\n      dup2\n      sload\n      dup2\n      0xff\n      mul\n      not\n      and\n      swap1\n      dup4\n      0x03\n      dup2\n      gt\n      iszero\n      tag_129\n      jumpi\n      tag_130\n      tag_75\n      jump\t// in\n    tag_130:\n    tag_129:\n      mul\n      or\n      swap1\n      sstore\n      pop\n      swap1\n      pop\n      pop\n        /* \"contracts/SmartContractLockeyDoge-Funding.sol\":2161:2171  msg.sender */\n      caller\n        /* \"contracts/SmartContractLockeyDoge-Funding.sol\":2132:2198  ProjectCreated(projectCount, msg.sender, description, fundingGoal) */\n      0xffffffffffffffffffffffffffffffffffffffff\n      and\n      0x51d08cb6cfa640a387210fb69df925dfb70169ae7373f8ecd40b977b0c800d9a\n        /* \"contracts/SmartContractLockeyDoge-Funding.sol\":2147:2159  projectCount */\n      sload(0x02)\n        /* \"contracts/SmartContractLockeyDoge-Funding.sol\":2173:2184  description */\n      dup5\n        /* \"contracts/SmartContractLockeyDoge-Funding.sol\":2186:2197  fundingGoal */\n      dup5\n        /* \"contracts/SmartContractLockeyDoge-Funding.sol\":2132:2198  ProjectCreated(projectCount, msg.sender, description, fundingGoal) */\n      mload(0x40)\n      tag_131\n      swap4\n      swap3\n      swap2\n      swap1\n      tag_132\n      jump\t// in\n    tag_131:\n      mload(0x40)\n      dup1\n      swap2\n      sub\n      swap1\n      log2\n        /* \"contracts/SmartContractLockeyDoge-Funding.sol\":1769:2206  function createProject(string memory description, uint fundingGoal) public {... */\n      pop\n      pop\n      jump\t// out\n        /* \"contracts/SmartContractLockeyDoge-Funding.sol\":3974:4257  function getProject(uint projectId) public view returns (address, string memory, uint, uint, ProjectState) {... */\n    tag_50:\n        /* \"contracts/SmartContractLockeyDoge-Funding.sol\":4031:4038  address */\n      0x00\n        /* \"contracts/SmartContractLockeyDoge-Funding.sol\":4040:4053  string memory */\n      0x60\n        /* \"contracts/SmartContractLockeyDoge-Funding.sol\":4055:4059  uint */\n      0x00\n        /* \"contracts/SmartContractLockeyDoge-Funding.sol\":4061:4065  uint */\n      dup1\n        /* \"contracts/SmartContractLockeyDoge-Funding.sol\":4067:4079  ProjectState */\n      0x00\n        /* \"contracts/SmartContractLockeyDoge-Funding.sol\":4092:4115  Project storage project */\n      dup1\n        /* \"contracts/SmartContractLockeyDoge-Funding.sol\":4118:4126  projects */\n      0x00\n        /* \"contracts/SmartContractLockeyDoge-Funding.sol\":4118:4137  projects[projectId] */\n      dup1\n        /* \"contracts/SmartContractLockeyDoge-Funding.sol\":4127:4136  projectId */\n      dup9\n        /* \"contracts/SmartContractLockeyDoge-Funding.sol\":4118:4137  projects[projectId] */\n      dup2\n      mstore\n      0x20\n      add\n      swap1\n      dup2\n      mstore\n      0x20\n      add\n      0x00\n      keccak256\n        /* \"contracts/SmartContractLockeyDoge-Funding.sol\":4092:4137  Project storage project = projects[projectId] */\n      swap1\n      pop\n        /* \"contracts/SmartContractLockeyDoge-Funding.sol\":4156:4163  project */\n      dup1\n        /* \"contracts/SmartContractLockeyDoge-Funding.sol\":4156:4169  project.owner */\n      0x00\n      add\n      0x00\n      swap1\n      sload\n      swap1\n      0x0100\n      exp\n      swap1\n      div\n      0xffffffffffffffffffffffffffffffffffffffff\n      and\n        /* \"contracts/SmartContractLockeyDoge-Funding.sol\":4171:4178  project */\n      dup2\n        /* \"contracts/SmartContractLockeyDoge-Funding.sol\":4171:4190  project.description */\n      0x01\n      add\n        /* \"contracts/SmartContractLockeyDoge-Funding.sol\":4192:4199  project */\n      dup3\n        /* \"contracts/SmartContractLockeyDoge-Funding.sol\":4192:4211  project.fundingGoal */\n      0x02\n      add\n      sload\n        /* \"contracts/SmartContractLockeyDoge-Funding.sol\":4213:4220  project */\n      dup4\n        /* \"contracts/SmartContractLockeyDoge-Funding.sol\":4213:4233  project.amountRaised */\n      0x03\n      add\n      sload\n        /* \"contracts/SmartContractLockeyDoge-Funding.sol\":4235:4242  project */\n      dup5\n        /* \"contracts/SmartContractLockeyDoge-Funding.sol\":4235:4248  project.state */\n      0x04\n      add\n      0x00\n      swap1\n      sload\n      swap1\n      0x0100\n      exp\n      swap1\n      div\n      0xff\n      and\n        /* \"contracts/SmartContractLockeyDoge-Funding.sol\":4148:4249  return (project.owner, project.description, project.fundingGoal, project.amountRaised, project.state) */\n      dup4\n      dup1\n      sload\n      tag_134\n      swap1\n      tag_63\n      jump\t// in\n    tag_134:\n      dup1\n      0x1f\n      add\n      0x20\n      dup1\n      swap2\n      div\n      mul\n      0x20\n      add\n      mload(0x40)\n      swap1\n      dup2\n      add\n      0x40\n      mstore\n      dup1\n      swap3\n      swap2\n      swap1\n      dup2\n      dup2\n      mstore\n      0x20\n      add\n      dup3\n      dup1\n      sload\n      tag_135\n      swap1\n      tag_63\n      jump\t// in\n    tag_135:\n      dup1\n      iszero\n      tag_136\n      jumpi\n      dup1\n      0x1f\n      lt\n      tag_137\n      jumpi\n      0x0100\n      dup1\n      dup4\n      sload\n      div\n      mul\n      dup4\n      mstore\n      swap2\n      0x20\n      add\n      swap2\n      jump(tag_136)\n    tag_137:\n      dup3\n      add\n      swap2\n      swap1\n      0x00\n      mstore\n      keccak256(0x00, 0x20)\n      swap1\n    tag_138:\n      dup2\n      sload\n      dup2\n      mstore\n      swap1\n      0x01\n      add\n      swap1\n      0x20\n      add\n      dup1\n      dup4\n      gt\n      tag_138\n      jumpi\n      dup3\n      swap1\n      sub\n      0x1f\n      and\n      dup3\n      add\n      swap2\n    tag_136:\n      pop\n      pop\n      pop\n      pop\n      pop\n      swap4\n      pop\n      swap6\n      pop\n      swap6\n      pop\n      swap6\n      pop\n      swap6\n      pop\n      swap6\n      pop\n      pop\n        /* \"contracts/SmartContractLockeyDoge-Funding.sol\":3974:4257  function getProject(uint projectId) public view returns (address, string memory, uint, uint, ProjectState) {... */\n      swap2\n      swap4\n      swap6\n      swap1\n      swap3\n      swap5\n      pop\n      jump\t// out\n        /* \"contracts/SmartContractLockeyDoge-Funding.sol\":606:626  address public admin */\n    tag_55:\n      0x03\n      0x00\n      swap1\n      sload\n      swap1\n      0x0100\n      exp\n      swap1\n      div\n      0xffffffffffffffffffffffffffffffffffffffff\n      and\n      dup2\n      jump\t// out\n        /* \"contracts/SmartContractLockeyDoge-Funding.sol\":2283:2497  function approveProject(uint projectId) public onlyAdmin inState(projectId, ProjectState.Created) {... */\n    tag_61:\n        /* \"contracts/SmartContractLockeyDoge-Funding.sol\":1114:1119  admin */\n      0x03\n      0x00\n      swap1\n      sload\n      swap1\n      0x0100\n      exp\n      swap1\n      div\n      0xffffffffffffffffffffffffffffffffffffffff\n      and\n        /* \"contracts/SmartContractLockeyDoge-Funding.sol\":1100:1119  msg.sender == admin */\n      0xffffffffffffffffffffffffffffffffffffffff\n      and\n        /* \"contracts/SmartContractLockeyDoge-Funding.sol\":1100:1110  msg.sender */\n      caller\n        /* \"contracts/SmartContractLockeyDoge-Funding.sol\":1100:1119  msg.sender == admin */\n      0xffffffffffffffffffffffffffffffffffffffff\n      and\n      eq\n        /* \"contracts/SmartContractLockeyDoge-Funding.sol\":1092:1158  require(msg.sender == admin, \"Only admin can perform this action\") */\n      tag_140\n      jumpi\n      mload(0x40)\n      0x08c379a000000000000000000000000000000000000000000000000000000000\n      dup2\n      mstore\n      0x04\n      add\n      tag_141\n      swap1\n      tag_95\n      jump\t// in\n    tag_141:\n      mload(0x40)\n      dup1\n      swap2\n      sub\n      swap1\n      revert\n    tag_140:\n        /* \"contracts/SmartContractLockeyDoge-Funding.sol\":2348:2357  projectId */\n      dup1\n        /* \"contracts/SmartContractLockeyDoge-Funding.sol\":2359:2379  ProjectState.Created */\n      0x00\n        /* \"contracts/SmartContractLockeyDoge-Funding.sol\":1536:1542  _state */\n      dup1\n        /* \"contracts/SmartContractLockeyDoge-Funding.sol\":1507:1542  projects[projectId].state == _state */\n      0x03\n      dup2\n      gt\n      iszero\n      tag_143\n      jumpi\n      tag_144\n      tag_75\n      jump\t// in\n    tag_144:\n    tag_143:\n        /* \"contracts/SmartContractLockeyDoge-Funding.sol\":1507:1515  projects */\n      0x00\n        /* \"contracts/SmartContractLockeyDoge-Funding.sol\":1507:1526  projects[projectId] */\n      dup1\n        /* \"contracts/SmartContractLockeyDoge-Funding.sol\":1516:1525  projectId */\n      dup5\n        /* \"contracts/SmartContractLockeyDoge-Funding.sol\":1507:1526  projects[projectId] */\n      dup2\n      mstore\n      0x20\n      add\n      swap1\n      dup2\n      mstore\n      0x20\n      add\n      0x00\n      keccak256\n        /* \"contracts/SmartContractLockeyDoge-Funding.sol\":1507:1532  projects[projectId].state */\n      0x04\n      add\n      0x00\n      swap1\n      sload\n      swap1\n      0x0100\n      exp\n      swap1\n      div\n      0xff\n      and\n        /* \"contracts/SmartContractLockeyDoge-Funding.sol\":1507:1542  projects[projectId].state == _state */\n      0x03\n      dup2\n      gt\n      iszero\n      tag_145\n      jumpi\n      tag_146\n      tag_75\n      jump\t// in\n    tag_146:\n    tag_145:\n      eq\n        /* \"contracts/SmartContractLockeyDoge-Funding.sol\":1499:1584  require(projects[projectId].state == _state, \"Invalid project state for this action\") */\n      tag_147\n      jumpi\n      mload(0x40)\n      0x08c379a000000000000000000000000000000000000000000000000000000000\n      dup2\n      mstore\n      0x04\n      add\n      tag_148\n      swap1\n      tag_80\n      jump\t// in\n    tag_148:\n      mload(0x40)\n      dup1\n      swap2\n      sub\n      swap1\n      revert\n    tag_147:\n        /* \"contracts/SmartContractLockeyDoge-Funding.sol\":2420:2447  ProjectState.OpenForFunding */\n      0x01\n        /* \"contracts/SmartContractLockeyDoge-Funding.sol\":2392:2400  projects */\n      0x00\n        /* \"contracts/SmartContractLockeyDoge-Funding.sol\":2392:2411  projects[projectId] */\n      dup1\n        /* \"contracts/SmartContractLockeyDoge-Funding.sol\":2401:2410  projectId */\n      dup6\n        /* \"contracts/SmartContractLockeyDoge-Funding.sol\":2392:2411  projects[projectId] */\n      dup2\n      mstore\n      0x20\n      add\n      swap1\n      dup2\n      mstore\n      0x20\n      add\n      0x00\n      keccak256\n        /* \"contracts/SmartContractLockeyDoge-Funding.sol\":2392:2417  projects[projectId].state */\n      0x04\n      add\n      0x00\n        /* \"contracts/SmartContractLockeyDoge-Funding.sol\":2392:2447  projects[projectId].state = ProjectState.OpenForFunding */\n      0x0100\n      exp\n      dup2\n      sload\n      dup2\n      0xff\n      mul\n      not\n      and\n      swap1\n      dup4\n      0x03\n      dup2\n      gt\n      iszero\n      tag_150\n      jumpi\n      tag_151\n      tag_75\n      jump\t// in\n    tag_151:\n    tag_150:\n      mul\n      or\n      swap1\n      sstore\n      pop\n        /* \"contracts/SmartContractLockeyDoge-Funding.sol\":2463:2489  ProjectApproved(projectId) */\n      0xfc534544f8ed1b516bf078b4ae88509d8f81f4fafefb10e9aad53e3e1fbce9bb\n        /* \"contracts/SmartContractLockeyDoge-Funding.sol\":2479:2488  projectId */\n      dup4\n        /* \"contracts/SmartContractLockeyDoge-Funding.sol\":2463:2489  ProjectApproved(projectId) */\n      mload(0x40)\n      tag_152\n      swap2\n      swap1\n      tag_28\n      jump\t// in\n    tag_152:\n      mload(0x40)\n      dup1\n      swap2\n      sub\n      swap1\n      log1\n        /* \"contracts/SmartContractLockeyDoge-Funding.sol\":1169:1170  _ */\n      pop\n      pop\n        /* \"contracts/SmartContractLockeyDoge-Funding.sol\":2283:2497  function approveProject(uint projectId) public onlyAdmin inState(projectId, ProjectState.Created) {... */\n      pop\n      jump\t// out\n        /* \"#utility.yul\":7:82   */\n    tag_153:\n        /* \"#utility.yul\":40:46   */\n      0x00\n        /* \"#utility.yul\":73:75   */\n      0x40\n        /* \"#utility.yul\":67:76   */\n      mload\n        /* \"#utility.yul\":57:76   */\n      swap1\n      pop\n        /* \"#utility.yul\":7:82   */\n      swap1\n      jump\t// out\n        /* \"#utility.yul\":88:205   */\n    tag_154:\n        /* \"#utility.yul\":197:198   */\n      0x00\n        /* \"#utility.yul\":194:195   */\n      dup1\n        /* \"#utility.yul\":187:199   */\n      revert\n        /* \"#utility.yul\":211:328   */\n    tag_155:\n        /* \"#utility.yul\":320:321   */\n      0x00\n        /* \"#utility.yul\":317:318   */\n      dup1\n        /* \"#utility.yul\":310:322   */\n      revert\n        /* \"#utility.yul\":334:411   */\n    tag_156:\n        /* \"#utility.yul\":371:378   */\n      0x00\n        /* \"#utility.yul\":400:405   */\n      dup2\n        /* \"#utility.yul\":389:405   */\n      swap1\n      pop\n        /* \"#utility.yul\":334:411   */\n      swap2\n      swap1\n      pop\n      jump\t// out\n        /* \"#utility.yul\":417:539   */\n    tag_157:\n        /* \"#utility.yul\":490:514   */\n      tag_218\n        /* \"#utility.yul\":508:513   */\n      dup2\n        /* \"#utility.yul\":490:514   */\n      tag_156\n      jump\t// in\n    tag_218:\n        /* \"#utility.yul\":483:488   */\n      dup2\n        /* \"#utility.yul\":480:515   */\n      eq\n        /* \"#utility.yul\":470:533   */\n      tag_219\n      jumpi\n        /* \"#utility.yul\":529:530   */\n      0x00\n        /* \"#utility.yul\":526:527   */\n      dup1\n        /* \"#utility.yul\":519:531   */\n      revert\n        /* \"#utility.yul\":470:533   */\n    tag_219:\n        /* \"#utility.yul\":417:539   */\n      pop\n      jump\t// out\n        /* \"#utility.yul\":545:684   */\n    tag_158:\n        /* \"#utility.yul\":591:596   */\n      0x00\n        /* \"#utility.yul\":629:635   */\n      dup2\n        /* \"#utility.yul\":616:636   */\n      calldataload\n        /* \"#utility.yul\":607:636   */\n      swap1\n      pop\n        /* \"#utility.yul\":645:678   */\n      tag_221\n        /* \"#utility.yul\":672:677   */\n      dup2\n        /* \"#utility.yul\":645:678   */\n      tag_157\n      jump\t// in\n    tag_221:\n        /* \"#utility.yul\":545:684   */\n      swap3\n      swap2\n      pop\n      pop\n      jump\t// out\n        /* \"#utility.yul\":690:1019   */\n    tag_16:\n        /* \"#utility.yul\":749:755   */\n      0x00\n        /* \"#utility.yul\":798:800   */\n      0x20\n        /* \"#utility.yul\":786:795   */\n      dup3\n        /* \"#utility.yul\":777:784   */\n      dup5\n        /* \"#utility.yul\":773:796   */\n      sub\n        /* \"#utility.yul\":769:801   */\n      slt\n        /* \"#utility.yul\":766:885   */\n      iszero\n      tag_223\n      jumpi\n        /* \"#utility.yul\":804:883   */\n      tag_224\n      tag_154\n      jump\t// in\n    tag_224:\n        /* \"#utility.yul\":766:885   */\n    tag_223:\n        /* \"#utility.yul\":924:925   */\n      0x00\n        /* \"#utility.yul\":949:1002   */\n      tag_225\n        /* \"#utility.yul\":994:1001   */\n      dup5\n        /* \"#utility.yul\":985:991   */\n      dup3\n        /* \"#utility.yul\":974:983   */\n      dup6\n        /* \"#utility.yul\":970:992   */\n      add\n        /* \"#utility.yul\":949:1002   */\n      tag_158\n      jump\t// in\n    tag_225:\n        /* \"#utility.yul\":939:1002   */\n      swap2\n      pop\n        /* \"#utility.yul\":895:1012   */\n      pop\n        /* \"#utility.yul\":690:1019   */\n      swap3\n      swap2\n      pop\n      pop\n      jump\t// out\n        /* \"#utility.yul\":1025:1151   */\n    tag_159:\n        /* \"#utility.yul\":1062:1069   */\n      0x00\n        /* \"#utility.yul\":1102:1144   */\n      0xffffffffffffffffffffffffffffffffffffffff\n        /* \"#utility.yul\":1095:1100   */\n      dup3\n        /* \"#utility.yul\":1091:1145   */\n      and\n        /* \"#utility.yul\":1080:1145   */\n      swap1\n      pop\n        /* \"#utility.yul\":1025:1151   */\n      swap2\n      swap1\n      pop\n      jump\t// out\n        /* \"#utility.yul\":1157:1261   */\n    tag_160:\n        /* \"#utility.yul\":1202:1209   */\n      0x00\n        /* \"#utility.yul\":1231:1255   */\n      tag_228\n        /* \"#utility.yul\":1249:1254   */\n      dup3\n        /* \"#utility.yul\":1231:1255   */\n      tag_159\n      jump\t// in\n    tag_228:\n        /* \"#utility.yul\":1220:1255   */\n      swap1\n      pop\n        /* \"#utility.yul\":1157:1261   */\n      swap2\n      swap1\n      pop\n      jump\t// out\n        /* \"#utility.yul\":1267:1409   */\n    tag_161:\n        /* \"#utility.yul\":1370:1402   */\n      tag_230\n        /* \"#utility.yul\":1396:1401   */\n      dup2\n        /* \"#utility.yul\":1370:1402   */\n      tag_160\n      jump\t// in\n    tag_230:\n        /* \"#utility.yul\":1365:1368   */\n      dup3\n        /* \"#utility.yul\":1358:1403   */\n      mstore\n        /* \"#utility.yul\":1267:1409   */\n      pop\n      pop\n      jump\t// out\n        /* \"#utility.yul\":1415:1514   */\n    tag_162:\n        /* \"#utility.yul\":1467:1473   */\n      0x00\n        /* \"#utility.yul\":1501:1506   */\n      dup2\n        /* \"#utility.yul\":1495:1507   */\n      mload\n        /* \"#utility.yul\":1485:1507   */\n      swap1\n      pop\n        /* \"#utility.yul\":1415:1514   */\n      swap2\n      swap1\n      pop\n      jump\t// out\n        /* \"#utility.yul\":1520:1689   */\n    tag_163:\n        /* \"#utility.yul\":1604:1615   */\n      0x00\n        /* \"#utility.yul\":1638:1644   */\n      dup3\n        /* \"#utility.yul\":1633:1636   */\n      dup3\n        /* \"#utility.yul\":1626:1645   */\n      mstore\n        /* \"#utility.yul\":1678:1682   */\n      0x20\n        /* \"#utility.yul\":1673:1676   */\n      dup3\n        /* \"#utility.yul\":1669:1683   */\n      add\n        /* \"#utility.yul\":1654:1683   */\n      swap1\n      pop\n        /* \"#utility.yul\":1520:1689   */\n      swap3\n      swap2\n      pop\n      pop\n      jump\t// out\n        /* \"#utility.yul\":1695:1834   */\n    tag_164:\n        /* \"#utility.yul\":1784:1790   */\n      dup3\n        /* \"#utility.yul\":1779:1782   */\n      dup2\n        /* \"#utility.yul\":1774:1777   */\n      dup4\n        /* \"#utility.yul\":1768:1791   */\n      mcopy\n        /* \"#utility.yul\":1825:1826   */\n      0x00\n        /* \"#utility.yul\":1816:1822   */\n      dup4\n        /* \"#utility.yul\":1811:1814   */\n      dup4\n        /* \"#utility.yul\":1807:1823   */\n      add\n        /* \"#utility.yul\":1800:1827   */\n      mstore\n        /* \"#utility.yul\":1695:1834   */\n      pop\n      pop\n      pop\n      jump\t// out\n        /* \"#utility.yul\":1840:1942   */\n    tag_165:\n        /* \"#utility.yul\":1881:1887   */\n      0x00\n        /* \"#utility.yul\":1932:1934   */\n      0x1f\n        /* \"#utility.yul\":1928:1935   */\n      not\n        /* \"#utility.yul\":1923:1925   */\n      0x1f\n        /* \"#utility.yul\":1916:1921   */\n      dup4\n        /* \"#utility.yul\":1912:1926   */\n      add\n        /* \"#utility.yul\":1908:1936   */\n      and\n        /* \"#utility.yul\":1898:1936   */\n      swap1\n      pop\n        /* \"#utility.yul\":1840:1942   */\n      swap2\n      swap1\n      pop\n      jump\t// out\n        /* \"#utility.yul\":1948:2325   */\n    tag_166:\n        /* \"#utility.yul\":2036:2039   */\n      0x00\n        /* \"#utility.yul\":2064:2103   */\n      tag_236\n        /* \"#utility.yul\":2097:2102   */\n      dup3\n        /* \"#utility.yul\":2064:2103   */\n      tag_162\n      jump\t// in\n    tag_236:\n        /* \"#utility.yul\":2119:2190   */\n      tag_237\n        /* \"#utility.yul\":2183:2189   */\n      dup2\n        /* \"#utility.yul\":2178:2181   */\n      dup6\n        /* \"#utility.yul\":2119:2190   */\n      tag_163\n      jump\t// in\n    tag_237:\n        /* \"#utility.yul\":2112:2190   */\n      swap4\n      pop\n        /* \"#utility.yul\":2199:2264   */\n      tag_238\n        /* \"#utility.yul\":2257:2263   */\n      dup2\n        /* \"#utility.yul\":2252:2255   */\n      dup6\n        /* \"#utility.yul\":2245:2249   */\n      0x20\n        /* \"#utility.yul\":2238:2243   */\n      dup7\n        /* \"#utility.yul\":2234:2250   */\n      add\n        /* \"#utility.yul\":2199:2264   */\n      tag_164\n      jump\t// in\n    tag_238:\n        /* \"#utility.yul\":2289:2318   */\n      tag_239\n        /* \"#utility.yul\":2311:2317   */\n      dup2\n        /* \"#utility.yul\":2289:2318   */\n      tag_165\n      jump\t// in\n    tag_239:\n        /* \"#utility.yul\":2284:2287   */\n      dup5\n        /* \"#utility.yul\":2280:2319   */\n      add\n        /* \"#utility.yul\":2273:2319   */\n      swap2\n      pop\n        /* \"#utility.yul\":2040:2325   */\n      pop\n        /* \"#utility.yul\":1948:2325   */\n      swap3\n      swap2\n      pop\n      pop\n      jump\t// out\n        /* \"#utility.yul\":2331:2449   */\n    tag_167:\n        /* \"#utility.yul\":2418:2442   */\n      tag_241\n        /* \"#utility.yul\":2436:2441   */\n      dup2\n        /* \"#utility.yul\":2418:2442   */\n      tag_156\n      jump\t// in\n    tag_241:\n        /* \"#utility.yul\":2413:2416   */\n      dup3\n        /* \"#utility.yul\":2406:2443   */\n      mstore\n        /* \"#utility.yul\":2331:2449   */\n      pop\n      pop\n      jump\t// out\n        /* \"#utility.yul\":2455:2635   */\n    tag_75:\n        /* \"#utility.yul\":2503:2580   */\n      0x4e487b7100000000000000000000000000000000000000000000000000000000\n        /* \"#utility.yul\":2500:2501   */\n      0x00\n        /* \"#utility.yul\":2493:2581   */\n      mstore\n        /* \"#utility.yul\":2600:2604   */\n      0x21\n        /* \"#utility.yul\":2597:2598   */\n      0x04\n        /* \"#utility.yul\":2590:2605   */\n      mstore\n        /* \"#utility.yul\":2624:2628   */\n      0x24\n        /* \"#utility.yul\":2621:2622   */\n      0x00\n        /* \"#utility.yul\":2614:2629   */\n      revert\n        /* \"#utility.yul\":2641:2760   */\n    tag_168:\n        /* \"#utility.yul\":2728:2729   */\n      0x04\n        /* \"#utility.yul\":2721:2726   */\n      dup2\n        /* \"#utility.yul\":2718:2730   */\n      lt\n        /* \"#utility.yul\":2708:2754   */\n      tag_244\n      jumpi\n        /* \"#utility.yul\":2734:2752   */\n      tag_245\n      tag_75\n      jump\t// in\n    tag_245:\n        /* \"#utility.yul\":2708:2754   */\n    tag_244:\n        /* \"#utility.yul\":2641:2760   */\n      pop\n      jump\t// out\n        /* \"#utility.yul\":2766:2905   */\n    tag_169:\n        /* \"#utility.yul\":2817:2824   */\n      0x00\n        /* \"#utility.yul\":2846:2851   */\n      dup2\n        /* \"#utility.yul\":2835:2851   */\n      swap1\n      pop\n        /* \"#utility.yul\":2852:2899   */\n      tag_247\n        /* \"#utility.yul\":2893:2898   */\n      dup3\n        /* \"#utility.yul\":2852:2899   */\n      tag_168\n      jump\t// in\n    tag_247:\n        /* \"#utility.yul\":2766:2905   */\n      swap2\n      swap1\n      pop\n      jump\t// out\n        /* \"#utility.yul\":2911:3050   */\n    tag_170:\n        /* \"#utility.yul\":2973:2982   */\n      0x00\n        /* \"#utility.yul\":3006:3044   */\n      tag_249\n        /* \"#utility.yul\":3038:3043   */\n      dup3\n        /* \"#utility.yul\":3006:3044   */\n      tag_169\n      jump\t// in\n    tag_249:\n        /* \"#utility.yul\":2993:3044   */\n      swap1\n      pop\n        /* \"#utility.yul\":2911:3050   */\n      swap2\n      swap1\n      pop\n      jump\t// out\n        /* \"#utility.yul\":3056:3211   */\n    tag_171:\n        /* \"#utility.yul\":3155:3204   */\n      tag_251\n        /* \"#utility.yul\":3198:3203   */\n      dup2\n        /* \"#utility.yul\":3155:3204   */\n      tag_170\n      jump\t// in\n    tag_251:\n        /* \"#utility.yul\":3150:3153   */\n      dup3\n        /* \"#utility.yul\":3143:3205   */\n      mstore\n        /* \"#utility.yul\":3056:3211   */\n      pop\n      pop\n      jump\t// out\n        /* \"#utility.yul\":3217:4028   */\n    tag_19:\n        /* \"#utility.yul\":3470:3474   */\n      0x00\n        /* \"#utility.yul\":3508:3511   */\n      0xa0\n        /* \"#utility.yul\":3497:3506   */\n      dup3\n        /* \"#utility.yul\":3493:3512   */\n      add\n        /* \"#utility.yul\":3485:3512   */\n      swap1\n      pop\n        /* \"#utility.yul\":3522:3609   */\n      tag_253\n        /* \"#utility.yul\":3606:3607   */\n      0x00\n        /* \"#utility.yul\":3595:3604   */\n      dup4\n        /* \"#utility.yul\":3591:3608   */\n      add\n        /* \"#utility.yul\":3582:3588   */\n      dup9\n        /* \"#utility.yul\":3522:3609   */\n      tag_161\n      jump\t// in\n    tag_253:\n        /* \"#utility.yul\":3656:3665   */\n      dup2\n        /* \"#utility.yul\":3650:3654   */\n      dup2\n        /* \"#utility.yul\":3646:3666   */\n      sub\n        /* \"#utility.yul\":3641:3643   */\n      0x20\n        /* \"#utility.yul\":3630:3639   */\n      dup4\n        /* \"#utility.yul\":3626:3644   */\n      add\n        /* \"#utility.yul\":3619:3667   */\n      mstore\n        /* \"#utility.yul\":3684:3762   */\n      tag_254\n        /* \"#utility.yul\":3757:3761   */\n      dup2\n        /* \"#utility.yul\":3748:3754   */\n      dup8\n        /* \"#utility.yul\":3684:3762   */\n      tag_166\n      jump\t// in\n    tag_254:\n        /* \"#utility.yul\":3676:3762   */\n      swap1\n      pop\n        /* \"#utility.yul\":3772:3844   */\n      tag_255\n        /* \"#utility.yul\":3840:3842   */\n      0x40\n        /* \"#utility.yul\":3829:3838   */\n      dup4\n        /* \"#utility.yul\":3825:3843   */\n      add\n        /* \"#utility.yul\":3816:3822   */\n      dup7\n        /* \"#utility.yul\":3772:3844   */\n      tag_167\n      jump\t// in\n    tag_255:\n        /* \"#utility.yul\":3854:3926   */\n      tag_256\n        /* \"#utility.yul\":3922:3924   */\n      0x60\n        /* \"#utility.yul\":3911:3920   */\n      dup4\n        /* \"#utility.yul\":3907:3925   */\n      add\n        /* \"#utility.yul\":3898:3904   */\n      dup6\n        /* \"#utility.yul\":3854:3926   */\n      tag_167\n      jump\t// in\n    tag_256:\n        /* \"#utility.yul\":3936:4021   */\n      tag_257\n        /* \"#utility.yul\":4016:4019   */\n      0x80\n        /* \"#utility.yul\":4005:4014   */\n      dup4\n        /* \"#utility.yul\":4001:4020   */\n      add\n        /* \"#utility.yul\":3992:3998   */\n      dup5\n        /* \"#utility.yul\":3936:4021   */\n      tag_171\n      jump\t// in\n    tag_257:\n        /* \"#utility.yul\":3217:4028   */\n      swap7\n      swap6\n      pop\n      pop\n      pop\n      pop\n      pop\n      pop\n      jump\t// out\n        /* \"#utility.yul\":4034:4256   */\n    tag_28:\n        /* \"#utility.yul\":4127:4131   */\n      0x00\n        /* \"#utility.yul\":4165:4167   */\n      0x20\n        /* \"#utility.yul\":4154:4163   */\n      dup3\n        /* \"#utility.yul\":4150:4168   */\n      add\n        /* \"#utility.yul\":4142:4168   */\n      swap1\n      pop\n        /* \"#utility.yul\":4178:4249   */\n      tag_259\n        /* \"#utility.yul\":4246:4247   */\n      0x00\n        /* \"#utility.yul\":4235:4244   */\n      dup4\n        /* \"#utility.yul\":4231:4248   */\n      add\n        /* \"#utility.yul\":4222:4228   */\n      dup5\n        /* \"#utility.yul\":4178:4249   */\n      tag_167\n      jump\t// in\n    tag_259:\n        /* \"#utility.yul\":4034:4256   */\n      swap3\n      swap2\n      pop\n      pop\n      jump\t// out\n        /* \"#utility.yul\":4262:4358   */\n    tag_172:\n        /* \"#utility.yul\":4299:4306   */\n      0x00\n        /* \"#utility.yul\":4328:4352   */\n      tag_261\n        /* \"#utility.yul\":4346:4351   */\n      dup3\n        /* \"#utility.yul\":4328:4352   */\n      tag_159\n      jump\t// in\n    tag_261:\n        /* \"#utility.yul\":4317:4352   */\n      swap1\n      pop\n        /* \"#utility.yul\":4262:4358   */\n      swap2\n      swap1\n      pop\n      jump\t// out\n        /* \"#utility.yul\":4364:4486   */\n    tag_173:\n        /* \"#utility.yul\":4437:4461   */\n      tag_263\n        /* \"#utility.yul\":4455:4460   */\n      dup2\n        /* \"#utility.yul\":4437:4461   */\n      tag_172\n      jump\t// in\n    tag_263:\n        /* \"#utility.yul\":4430:4435   */\n      dup2\n        /* \"#utility.yul\":4427:4462   */\n      eq\n        /* \"#utility.yul\":4417:4480   */\n      tag_264\n      jumpi\n        /* \"#utility.yul\":4476:4477   */\n      0x00\n        /* \"#utility.yul\":4473:4474   */\n      dup1\n        /* \"#utility.yul\":4466:4478   */\n      revert\n        /* \"#utility.yul\":4417:4480   */\n    tag_264:\n        /* \"#utility.yul\":4364:4486   */\n      pop\n      jump\t// out\n        /* \"#utility.yul\":4492:4631   */\n    tag_174:\n        /* \"#utility.yul\":4538:4543   */\n      0x00\n        /* \"#utility.yul\":4576:4582   */\n      dup2\n        /* \"#utility.yul\":4563:4583   */\n      calldataload\n        /* \"#utility.yul\":4554:4583   */\n      swap1\n      pop\n        /* \"#utility.yul\":4592:4625   */\n      tag_266\n        /* \"#utility.yul\":4619:4624   */\n      dup2\n        /* \"#utility.yul\":4592:4625   */\n      tag_173\n      jump\t// in\n    tag_266:\n        /* \"#utility.yul\":4492:4631   */\n      swap3\n      swap2\n      pop\n      pop\n      jump\t// out\n        /* \"#utility.yul\":4637:5111   */\n    tag_32:\n        /* \"#utility.yul\":4705:4711   */\n      0x00\n        /* \"#utility.yul\":4713:4719   */\n      dup1\n        /* \"#utility.yul\":4762:4764   */\n      0x40\n        /* \"#utility.yul\":4750:4759   */\n      dup4\n        /* \"#utility.yul\":4741:4748   */\n      dup6\n        /* \"#utility.yul\":4737:4760   */\n      sub\n        /* \"#utility.yul\":4733:4765   */\n      slt\n        /* \"#utility.yul\":4730:4849   */\n      iszero\n      tag_268\n      jumpi\n        /* \"#utility.yul\":4768:4847   */\n      tag_269\n      tag_154\n      jump\t// in\n    tag_269:\n        /* \"#utility.yul\":4730:4849   */\n    tag_268:\n        /* \"#utility.yul\":4888:4889   */\n      0x00\n        /* \"#utility.yul\":4913:4966   */\n      tag_270\n        /* \"#utility.yul\":4958:4965   */\n      dup6\n        /* \"#utility.yul\":4949:4955   */\n      dup3\n        /* \"#utility.yul\":4938:4947   */\n      dup7\n        /* \"#utility.yul\":4934:4956   */\n      add\n        /* \"#utility.yul\":4913:4966   */\n      tag_158\n      jump\t// in\n    tag_270:\n        /* \"#utility.yul\":4903:4966   */\n      swap3\n      pop\n        /* \"#utility.yul\":4859:4976   */\n      pop\n        /* \"#utility.yul\":5015:5017   */\n      0x20\n        /* \"#utility.yul\":5041:5094   */\n      tag_271\n        /* \"#utility.yul\":5086:5093   */\n      dup6\n        /* \"#utility.yul\":5077:5083   */\n      dup3\n        /* \"#utility.yul\":5066:5075   */\n      dup7\n        /* \"#utility.yul\":5062:5084   */\n      add\n        /* \"#utility.yul\":5041:5094   */\n      tag_174\n      jump\t// in\n    tag_271:\n        /* \"#utility.yul\":5031:5094   */\n      swap2\n      pop\n        /* \"#utility.yul\":4986:5104   */\n      pop\n        /* \"#utility.yul\":4637:5111   */\n      swap3\n      pop\n      swap3\n      swap1\n      pop\n      jump\t// out\n        /* \"#utility.yul\":5117:5234   */\n    tag_175:\n        /* \"#utility.yul\":5226:5227   */\n      0x00\n        /* \"#utility.yul\":5223:5224   */\n      dup1\n        /* \"#utility.yul\":5216:5228   */\n      revert\n        /* \"#utility.yul\":5240:5357   */\n    tag_176:\n        /* \"#utility.yul\":5349:5350   */\n      0x00\n        /* \"#utility.yul\":5346:5347   */\n      dup1\n        /* \"#utility.yul\":5339:5351   */\n      revert\n        /* \"#utility.yul\":5363:5543   */\n    tag_177:\n        /* \"#utility.yul\":5411:5488   */\n      0x4e487b7100000000000000000000000000000000000000000000000000000000\n        /* \"#utility.yul\":5408:5409   */\n      0x00\n        /* \"#utility.yul\":5401:5489   */\n      mstore\n        /* \"#utility.yul\":5508:5512   */\n      0x41\n        /* \"#utility.yul\":5505:5506   */\n      0x04\n        /* \"#utility.yul\":5498:5513   */\n      mstore\n        /* \"#utility.yul\":5532:5536   */\n      0x24\n        /* \"#utility.yul\":5529:5530   */\n      0x00\n        /* \"#utility.yul\":5522:5537   */\n      revert\n        /* \"#utility.yul\":5549:5830   */\n    tag_178:\n        /* \"#utility.yul\":5632:5659   */\n      tag_276\n        /* \"#utility.yul\":5654:5658   */\n      dup3\n        /* \"#utility.yul\":5632:5659   */\n      tag_165\n      jump\t// in\n    tag_276:\n        /* \"#utility.yul\":5624:5630   */\n      dup2\n        /* \"#utility.yul\":5620:5660   */\n      add\n        /* \"#utility.yul\":5762:5768   */\n      dup2\n        /* \"#utility.yul\":5750:5760   */\n      dup2\n        /* \"#utility.yul\":5747:5769   */\n      lt\n        /* \"#utility.yul\":5726:5744   */\n      0xffffffffffffffff\n        /* \"#utility.yul\":5714:5724   */\n      dup3\n        /* \"#utility.yul\":5711:5745   */\n      gt\n        /* \"#utility.yul\":5708:5770   */\n      or\n        /* \"#utility.yul\":5705:5793   */\n      iszero\n      tag_277\n      jumpi\n        /* \"#utility.yul\":5773:5791   */\n      tag_278\n      tag_177\n      jump\t// in\n    tag_278:\n        /* \"#utility.yul\":5705:5793   */\n    tag_277:\n        /* \"#utility.yul\":5813:5823   */\n      dup1\n        /* \"#utility.yul\":5809:5811   */\n      0x40\n        /* \"#utility.yul\":5802:5824   */\n      mstore\n        /* \"#utility.yul\":5592:5830   */\n      pop\n        /* \"#utility.yul\":5549:5830   */\n      pop\n      pop\n      jump\t// out\n        /* \"#utility.yul\":5836:5965   */\n    tag_179:\n        /* \"#utility.yul\":5870:5876   */\n      0x00\n        /* \"#utility.yul\":5897:5917   */\n      tag_280\n      tag_153\n      jump\t// in\n    tag_280:\n        /* \"#utility.yul\":5887:5917   */\n      swap1\n      pop\n        /* \"#utility.yul\":5926:5959   */\n      tag_281\n        /* \"#utility.yul\":5954:5958   */\n      dup3\n        /* \"#utility.yul\":5946:5952   */\n      dup3\n        /* \"#utility.yul\":5926:5959   */\n      tag_178\n      jump\t// in\n    tag_281:\n        /* \"#utility.yul\":5836:5965   */\n      swap2\n      swap1\n      pop\n      jump\t// out\n        /* \"#utility.yul\":5971:6279   */\n    tag_180:\n        /* \"#utility.yul\":6033:6037   */\n      0x00\n        /* \"#utility.yul\":6123:6141   */\n      0xffffffffffffffff\n        /* \"#utility.yul\":6115:6121   */\n      dup3\n        /* \"#utility.yul\":6112:6142   */\n      gt\n        /* \"#utility.yul\":6109:6165   */\n      iszero\n      tag_283\n      jumpi\n        /* \"#utility.yul\":6145:6163   */\n      tag_284\n      tag_177\n      jump\t// in\n    tag_284:\n        /* \"#utility.yul\":6109:6165   */\n    tag_283:\n        /* \"#utility.yul\":6183:6212   */\n      tag_285\n        /* \"#utility.yul\":6205:6211   */\n      dup3\n        /* \"#utility.yul\":6183:6212   */\n      tag_165\n      jump\t// in\n    tag_285:\n        /* \"#utility.yul\":6175:6212   */\n      swap1\n      pop\n        /* \"#utility.yul\":6267:6271   */\n      0x20\n        /* \"#utility.yul\":6261:6265   */\n      dup2\n        /* \"#utility.yul\":6257:6272   */\n      add\n        /* \"#utility.yul\":6249:6272   */\n      swap1\n      pop\n        /* \"#utility.yul\":5971:6279   */\n      swap2\n      swap1\n      pop\n      jump\t// out\n        /* \"#utility.yul\":6285:6433   */\n    tag_181:\n        /* \"#utility.yul\":6383:6389   */\n      dup3\n        /* \"#utility.yul\":6378:6381   */\n      dup2\n        /* \"#utility.yul\":6373:6376   */\n      dup4\n        /* \"#utility.yul\":6360:6390   */\n      calldatacopy\n        /* \"#utility.yul\":6424:6425   */\n      0x00\n        /* \"#utility.yul\":6415:6421   */\n      dup4\n        /* \"#utility.yul\":6410:6413   */\n      dup4\n        /* \"#utility.yul\":6406:6422   */\n      add\n        /* \"#utility.yul\":6399:6426   */\n      mstore\n        /* \"#utility.yul\":6285:6433   */\n      pop\n      pop\n      pop\n      jump\t// out\n        /* \"#utility.yul\":6439:6864   */\n    tag_182:\n        /* \"#utility.yul\":6517:6522   */\n      0x00\n        /* \"#utility.yul\":6542:6608   */\n      tag_288\n        /* \"#utility.yul\":6558:6607   */\n      tag_289\n        /* \"#utility.yul\":6600:6606   */\n      dup5\n        /* \"#utility.yul\":6558:6607   */\n      tag_180\n      jump\t// in\n    tag_289:\n        /* \"#utility.yul\":6542:6608   */\n      tag_179\n      jump\t// in\n    tag_288:\n        /* \"#utility.yul\":6533:6608   */\n      swap1\n      pop\n        /* \"#utility.yul\":6631:6637   */\n      dup3\n        /* \"#utility.yul\":6624:6629   */\n      dup2\n        /* \"#utility.yul\":6617:6638   */\n      mstore\n        /* \"#utility.yul\":6669:6673   */\n      0x20\n        /* \"#utility.yul\":6662:6667   */\n      dup2\n        /* \"#utility.yul\":6658:6674   */\n      add\n        /* \"#utility.yul\":6707:6710   */\n      dup5\n        /* \"#utility.yul\":6698:6704   */\n      dup5\n        /* \"#utility.yul\":6693:6696   */\n      dup5\n        /* \"#utility.yul\":6689:6705   */\n      add\n        /* \"#utility.yul\":6686:6711   */\n      gt\n        /* \"#utility.yul\":6683:6795   */\n      iszero\n      tag_290\n      jumpi\n        /* \"#utility.yul\":6714:6793   */\n      tag_291\n      tag_176\n      jump\t// in\n    tag_291:\n        /* \"#utility.yul\":6683:6795   */\n    tag_290:\n        /* \"#utility.yul\":6804:6858   */\n      tag_292\n        /* \"#utility.yul\":6851:6857   */\n      dup5\n        /* \"#utility.yul\":6846:6849   */\n      dup3\n        /* \"#utility.yul\":6841:6844   */\n      dup6\n        /* \"#utility.yul\":6804:6858   */\n      tag_181\n      jump\t// in\n    tag_292:\n        /* \"#utility.yul\":6523:6864   */\n      pop\n        /* \"#utility.yul\":6439:6864   */\n      swap4\n      swap3\n      pop\n      pop\n      pop\n      jump\t// out\n        /* \"#utility.yul\":6884:7224   */\n    tag_183:\n        /* \"#utility.yul\":6940:6945   */\n      0x00\n        /* \"#utility.yul\":6989:6992   */\n      dup3\n        /* \"#utility.yul\":6982:6986   */\n      0x1f\n        /* \"#utility.yul\":6974:6980   */\n      dup4\n        /* \"#utility.yul\":6970:6987   */\n      add\n        /* \"#utility.yul\":6966:6993   */\n      slt\n        /* \"#utility.yul\":6956:7078   */\n      tag_294\n      jumpi\n        /* \"#utility.yul\":6997:7076   */\n      tag_295\n      tag_175\n      jump\t// in\n    tag_295:\n        /* \"#utility.yul\":6956:7078   */\n    tag_294:\n        /* \"#utility.yul\":7114:7120   */\n      dup2\n        /* \"#utility.yul\":7101:7121   */\n      calldataload\n        /* \"#utility.yul\":7139:7218   */\n      tag_296\n        /* \"#utility.yul\":7214:7217   */\n      dup5\n        /* \"#utility.yul\":7206:7212   */\n      dup3\n        /* \"#utility.yul\":7199:7203   */\n      0x20\n        /* \"#utility.yul\":7191:7197   */\n      dup7\n        /* \"#utility.yul\":7187:7204   */\n      add\n        /* \"#utility.yul\":7139:7218   */\n      tag_182\n      jump\t// in\n    tag_296:\n        /* \"#utility.yul\":7130:7218   */\n      swap2\n      pop\n        /* \"#utility.yul\":6946:7224   */\n      pop\n        /* \"#utility.yul\":6884:7224   */\n      swap3\n      swap2\n      pop\n      pop\n      jump\t// out\n        /* \"#utility.yul\":7230:7884   */\n    tag_45:\n        /* \"#utility.yul\":7308:7314   */\n      0x00\n        /* \"#utility.yul\":7316:7322   */\n      dup1\n        /* \"#utility.yul\":7365:7367   */\n      0x40\n        /* \"#utility.yul\":7353:7362   */\n      dup4\n        /* \"#utility.yul\":7344:7351   */\n      dup6\n        /* \"#utility.yul\":7340:7363   */\n      sub\n        /* \"#utility.yul\":7336:7368   */\n      slt\n        /* \"#utility.yul\":7333:7452   */\n      iszero\n      tag_298\n      jumpi\n        /* \"#utility.yul\":7371:7450   */\n      tag_299\n      tag_154\n      jump\t// in\n    tag_299:\n        /* \"#utility.yul\":7333:7452   */\n    tag_298:\n        /* \"#utility.yul\":7519:7520   */\n      0x00\n        /* \"#utility.yul\":7508:7517   */\n      dup4\n        /* \"#utility.yul\":7504:7521   */\n      add\n        /* \"#utility.yul\":7491:7522   */\n      calldataload\n        /* \"#utility.yul\":7549:7567   */\n      0xffffffffffffffff\n        /* \"#utility.yul\":7541:7547   */\n      dup2\n        /* \"#utility.yul\":7538:7568   */\n      gt\n        /* \"#utility.yul\":7535:7652   */\n      iszero\n      tag_300\n      jumpi\n        /* \"#utility.yul\":7571:7650   */\n      tag_301\n      tag_155\n      jump\t// in\n    tag_301:\n        /* \"#utility.yul\":7535:7652   */\n    tag_300:\n        /* \"#utility.yul\":7676:7739   */\n      tag_302\n        /* \"#utility.yul\":7731:7738   */\n      dup6\n        /* \"#utility.yul\":7722:7728   */\n      dup3\n        /* \"#utility.yul\":7711:7720   */\n      dup7\n        /* \"#utility.yul\":7707:7729   */\n      add\n        /* \"#utility.yul\":7676:7739   */\n      tag_183\n      jump\t// in\n    tag_302:\n        /* \"#utility.yul\":7666:7739   */\n      swap3\n      pop\n        /* \"#utility.yul\":7462:7749   */\n      pop\n        /* \"#utility.yul\":7788:7790   */\n      0x20\n        /* \"#utility.yul\":7814:7867   */\n      tag_303\n        /* \"#utility.yul\":7859:7866   */\n      dup6\n        /* \"#utility.yul\":7850:7856   */\n      dup3\n        /* \"#utility.yul\":7839:7848   */\n      dup7\n        /* \"#utility.yul\":7835:7857   */\n      add\n        /* \"#utility.yul\":7814:7867   */\n      tag_158\n      jump\t// in\n    tag_303:\n        /* \"#utility.yul\":7804:7867   */\n      swap2\n      pop\n        /* \"#utility.yul\":7759:7877   */\n      pop\n        /* \"#utility.yul\":7230:7884   */\n      swap3\n      pop\n      swap3\n      swap1\n      pop\n      jump\t// out\n        /* \"#utility.yul\":7890:8008   */\n    tag_184:\n        /* \"#utility.yul\":7977:8001   */\n      tag_305\n        /* \"#utility.yul\":7995:8000   */\n      dup2\n        /* \"#utility.yul\":7977:8001   */\n      tag_172\n      jump\t// in\n    tag_305:\n        /* \"#utility.yul\":7972:7975   */\n      dup3\n        /* \"#utility.yul\":7965:8002   */\n      mstore\n        /* \"#utility.yul\":7890:8008   */\n      pop\n      pop\n      jump\t// out\n        /* \"#utility.yul\":8014:8793   */\n    tag_52:\n        /* \"#utility.yul\":8251:8255   */\n      0x00\n        /* \"#utility.yul\":8289:8292   */\n      0xa0\n        /* \"#utility.yul\":8278:8287   */\n      dup3\n        /* \"#utility.yul\":8274:8293   */\n      add\n        /* \"#utility.yul\":8266:8293   */\n      swap1\n      pop\n        /* \"#utility.yul\":8303:8374   */\n      tag_307\n        /* \"#utility.yul\":8371:8372   */\n      0x00\n        /* \"#utility.yul\":8360:8369   */\n      dup4\n        /* \"#utility.yul\":8356:8373   */\n      add\n        /* \"#utility.yul\":8347:8353   */\n      dup9\n        /* \"#utility.yul\":8303:8374   */\n      tag_184\n      jump\t// in\n    tag_307:\n        /* \"#utility.yul\":8421:8430   */\n      dup2\n        /* \"#utility.yul\":8415:8419   */\n      dup2\n        /* \"#utility.yul\":8411:8431   */\n      sub\n        /* \"#utility.yul\":8406:8408   */\n      0x20\n        /* \"#utility.yul\":8395:8404   */\n      dup4\n        /* \"#utility.yul\":8391:8409   */\n      add\n        /* \"#utility.yul\":8384:8432   */\n      mstore\n        /* \"#utility.yul\":8449:8527   */\n      tag_308\n        /* \"#utility.yul\":8522:8526   */\n      dup2\n        /* \"#utility.yul\":8513:8519   */\n      dup8\n        /* \"#utility.yul\":8449:8527   */\n      tag_166\n      jump\t// in\n    tag_308:\n        /* \"#utility.yul\":8441:8527   */\n      swap1\n      pop\n        /* \"#utility.yul\":8537:8609   */\n      tag_309\n        /* \"#utility.yul\":8605:8607   */\n      0x40\n        /* \"#utility.yul\":8594:8603   */\n      dup4\n        /* \"#utility.yul\":8590:8608   */\n      add\n        /* \"#utility.yul\":8581:8587   */\n      dup7\n        /* \"#utility.yul\":8537:8609   */\n      tag_167\n      jump\t// in\n    tag_309:\n        /* \"#utility.yul\":8619:8691   */\n      tag_310\n        /* \"#utility.yul\":8687:8689   */\n      0x60\n        /* \"#utility.yul\":8676:8685   */\n      dup4\n        /* \"#utility.yul\":8672:8690   */\n      add\n        /* \"#utility.yul\":8663:8669   */\n      dup6\n        /* \"#utility.yul\":8619:8691   */\n      tag_167\n      jump\t// in\n    tag_310:\n        /* \"#utility.yul\":8701:8786   */\n      tag_311\n        /* \"#utility.yul\":8781:8784   */\n      0x80\n        /* \"#utility.yul\":8770:8779   */\n      dup4\n        /* \"#utility.yul\":8766:8785   */\n      add\n        /* \"#utility.yul\":8757:8763   */\n      dup5\n        /* \"#utility.yul\":8701:8786   */\n      tag_171\n      jump\t// in\n    tag_311:\n        /* \"#utility.yul\":8014:8793   */\n      swap7\n      swap6\n      pop\n      pop\n      pop\n      pop\n      pop\n      pop\n      jump\t// out\n        /* \"#utility.yul\":8799:9021   */\n    tag_57:\n        /* \"#utility.yul\":8892:8896   */\n      0x00\n        /* \"#utility.yul\":8930:8932   */\n      0x20\n        /* \"#utility.yul\":8919:8928   */\n      dup3\n        /* \"#utility.yul\":8915:8933   */\n      add\n        /* \"#utility.yul\":8907:8933   */\n      swap1\n      pop\n        /* \"#utility.yul\":8943:9014   */\n      tag_313\n        /* \"#utility.yul\":9011:9012   */\n      0x00\n        /* \"#utility.yul\":9000:9009   */\n      dup4\n        /* \"#utility.yul\":8996:9013   */\n      add\n        /* \"#utility.yul\":8987:8993   */\n      dup5\n        /* \"#utility.yul\":8943:9014   */\n      tag_184\n      jump\t// in\n    tag_313:\n        /* \"#utility.yul\":8799:9021   */\n      swap3\n      swap2\n      pop\n      pop\n      jump\t// out\n        /* \"#utility.yul\":9027:9207   */\n    tag_185:\n        /* \"#utility.yul\":9075:9152   */\n      0x4e487b7100000000000000000000000000000000000000000000000000000000\n        /* \"#utility.yul\":9072:9073   */\n      0x00\n        /* \"#utility.yul\":9065:9153   */\n      mstore\n        /* \"#utility.yul\":9172:9176   */\n      0x22\n        /* \"#utility.yul\":9169:9170   */\n      0x04\n        /* \"#utility.yul\":9162:9177   */\n      mstore\n        /* \"#utility.yul\":9196:9200   */\n      0x24\n        /* \"#utility.yul\":9193:9194   */\n      0x00\n        /* \"#utility.yul\":9186:9201   */\n      revert\n        /* \"#utility.yul\":9213:9533   */\n    tag_63:\n        /* \"#utility.yul\":9257:9263   */\n      0x00\n        /* \"#utility.yul\":9294:9295   */\n      0x02\n        /* \"#utility.yul\":9288:9292   */\n      dup3\n        /* \"#utility.yul\":9284:9296   */\n      div\n        /* \"#utility.yul\":9274:9296   */\n      swap1\n      pop\n        /* \"#utility.yul\":9341:9342   */\n      0x01\n        /* \"#utility.yul\":9335:9339   */\n      dup3\n        /* \"#utility.yul\":9331:9343   */\n      and\n        /* \"#utility.yul\":9362:9380   */\n      dup1\n        /* \"#utility.yul\":9352:9433   */\n      tag_316\n      jumpi\n        /* \"#utility.yul\":9418:9422   */\n      0x7f\n        /* \"#utility.yul\":9410:9416   */\n      dup3\n        /* \"#utility.yul\":9406:9423   */\n      and\n        /* \"#utility.yul\":9396:9423   */\n      swap2\n      pop\n        /* \"#utility.yul\":9352:9433   */\n    tag_316:\n        /* \"#utility.yul\":9480:9482   */\n      0x20\n        /* \"#utility.yul\":9472:9478   */\n      dup3\n        /* \"#utility.yul\":9469:9483   */\n      lt\n        /* \"#utility.yul\":9449:9467   */\n      dup2\n        /* \"#utility.yul\":9446:9484   */\n      sub\n        /* \"#utility.yul\":9443:9527   */\n      tag_317\n      jumpi\n        /* \"#utility.yul\":9499:9517   */\n      tag_318\n      tag_185\n      jump\t// in\n    tag_318:\n        /* \"#utility.yul\":9443:9527   */\n    tag_317:\n        /* \"#utility.yul\":9264:9533   */\n      pop\n        /* \"#utility.yul\":9213:9533   */\n      swap2\n      swap1\n      pop\n      jump\t// out\n        /* \"#utility.yul\":9539:9772   */\n    tag_186:\n        /* \"#utility.yul\":9679:9713   */\n      0x4f6e6c79207468652070726f6a656374206f776e65722063616e20706572666f\n        /* \"#utility.yul\":9675:9676   */\n      0x00\n        /* \"#utility.yul\":9667:9673   */\n      dup3\n        /* \"#utility.yul\":9663:9677   */\n      add\n        /* \"#utility.yul\":9656:9714   */\n      mstore\n        /* \"#utility.yul\":9748:9764   */\n      0x726d207468697320616374696f6e000000000000000000000000000000000000\n        /* \"#utility.yul\":9743:9745   */\n      0x20\n        /* \"#utility.yul\":9735:9741   */\n      dup3\n        /* \"#utility.yul\":9731:9746   */\n      add\n        /* \"#utility.yul\":9724:9765   */\n      mstore\n        /* \"#utility.yul\":9539:9772   */\n      pop\n      jump\t// out\n        /* \"#utility.yul\":9778:10144   */\n    tag_187:\n        /* \"#utility.yul\":9920:9923   */\n      0x00\n        /* \"#utility.yul\":9941:10008   */\n      tag_321\n        /* \"#utility.yul\":10005:10007   */\n      0x2e\n        /* \"#utility.yul\":10000:10003   */\n      dup4\n        /* \"#utility.yul\":9941:10008   */\n      tag_163\n      jump\t// in\n    tag_321:\n        /* \"#utility.yul\":9934:10008   */\n      swap2\n      pop\n        /* \"#utility.yul\":10017:10110   */\n      tag_322\n        /* \"#utility.yul\":10106:10109   */\n      dup3\n        /* \"#utility.yul\":10017:10110   */\n      tag_186\n      jump\t// in\n    tag_322:\n        /* \"#utility.yul\":10135:10137   */\n      0x40\n        /* \"#utility.yul\":10130:10133   */\n      dup3\n        /* \"#utility.yul\":10126:10138   */\n      add\n        /* \"#utility.yul\":10119:10138   */\n      swap1\n      pop\n        /* \"#utility.yul\":9778:10144   */\n      swap2\n      swap1\n      pop\n      jump\t// out\n        /* \"#utility.yul\":10150:10569   */\n    tag_71:\n        /* \"#utility.yul\":10316:10320   */\n      0x00\n        /* \"#utility.yul\":10354:10356   */\n      0x20\n        /* \"#utility.yul\":10343:10352   */\n      dup3\n        /* \"#utility.yul\":10339:10357   */\n      add\n        /* \"#utility.yul\":10331:10357   */\n      swap1\n      pop\n        /* \"#utility.yul\":10403:10412   */\n      dup2\n        /* \"#utility.yul\":10397:10401   */\n      dup2\n        /* \"#utility.yul\":10393:10413   */\n      sub\n        /* \"#utility.yul\":10389:10390   */\n      0x00\n        /* \"#utility.yul\":10378:10387   */\n      dup4\n        /* \"#utility.yul\":10374:10391   */\n      add\n        /* \"#utility.yul\":10367:10414   */\n      mstore\n        /* \"#utility.yul\":10431:10562   */\n      tag_324\n        /* \"#utility.yul\":10557:10561   */\n      dup2\n        /* \"#utility.yul\":10431:10562   */\n      tag_187\n      jump\t// in\n    tag_324:\n        /* \"#utility.yul\":10423:10562   */\n      swap1\n      pop\n        /* \"#utility.yul\":10150:10569   */\n      swap2\n      swap1\n      pop\n      jump\t// out\n        /* \"#utility.yul\":10575:10799   */\n    tag_188:\n        /* \"#utility.yul\":10715:10749   */\n      0x496e76616c69642070726f6a65637420737461746520666f7220746869732061\n        /* \"#utility.yul\":10711:10712   */\n      0x00\n        /* \"#utility.yul\":10703:10709   */\n      dup3\n        /* \"#utility.yul\":10699:10713   */\n      add\n        /* \"#utility.yul\":10692:10750   */\n      mstore\n        /* \"#utility.yul\":10784:10791   */\n      0x6374696f6e000000000000000000000000000000000000000000000000000000\n        /* \"#utility.yul\":10779:10781   */\n      0x20\n        /* \"#utility.yul\":10771:10777   */\n      dup3\n        /* \"#utility.yul\":10767:10782   */\n      add\n        /* \"#utility.yul\":10760:10792   */\n      mstore\n        /* \"#utility.yul\":10575:10799   */\n      pop\n      jump\t// out\n        /* \"#utility.yul\":10805:11171   */\n    tag_189:\n        /* \"#utility.yul\":10947:10950   */\n      0x00\n        /* \"#utility.yul\":10968:11035   */\n      tag_327\n        /* \"#utility.yul\":11032:11034   */\n      0x25\n        /* \"#utility.yul\":11027:11030   */\n      dup4\n        /* \"#utility.yul\":10968:11035   */\n      tag_163\n      jump\t// in\n    tag_327:\n        /* \"#utility.yul\":10961:11035   */\n      swap2\n      pop\n        /* \"#utility.yul\":11044:11137   */\n      tag_328\n        /* \"#utility.yul\":11133:11136   */\n      dup3\n        /* \"#utility.yul\":11044:11137   */\n      tag_188\n      jump\t// in\n    tag_328:\n        /* \"#utility.yul\":11162:11164   */\n      0x40\n        /* \"#utility.yul\":11157:11160   */\n      dup3\n        /* \"#utility.yul\":11153:11165   */\n      add\n        /* \"#utility.yul\":11146:11165   */\n      swap1\n      pop\n        /* \"#utility.yul\":10805:11171   */\n      swap2\n      swap1\n      pop\n      jump\t// out\n        /* \"#utility.yul\":11177:11596   */\n    tag_80:\n        /* \"#utility.yul\":11343:11347   */\n      0x00\n        /* \"#utility.yul\":11381:11383   */\n      0x20\n        /* \"#utility.yul\":11370:11379   */\n      dup3\n        /* \"#utility.yul\":11366:11384   */\n      add\n        /* \"#utility.yul\":11358:11384   */\n      swap1\n      pop\n        /* \"#utility.yul\":11430:11439   */\n      dup2\n        /* \"#utility.yul\":11424:11428   */\n      dup2\n        /* \"#utility.yul\":11420:11440   */\n      sub\n        /* \"#utility.yul\":11416:11417   */\n      0x00\n        /* \"#utility.yul\":11405:11414   */\n      dup4\n        /* \"#utility.yul\":11401:11418   */\n      add\n        /* \"#utility.yul\":11394:11441   */\n      mstore\n        /* \"#utility.yul\":11458:11589   */\n      tag_330\n        /* \"#utility.yul\":11584:11588   */\n      dup2\n        /* \"#utility.yul\":11458:11589   */\n      tag_189\n      jump\t// in\n    tag_330:\n        /* \"#utility.yul\":11450:11589   */\n      swap1\n      pop\n        /* \"#utility.yul\":11177:11596   */\n      swap2\n      swap1\n      pop\n      jump\t// out\n        /* \"#utility.yul\":11602:11776   */\n    tag_190:\n        /* \"#utility.yul\":11742:11768   */\n      0x46756e64696e6720676f616c206e6f7420726561636865640000000000000000\n        /* \"#utility.yul\":11738:11739   */\n      0x00\n        /* \"#utility.yul\":11730:11736   */\n      dup3\n        /* \"#utility.yul\":11726:11740   */\n      add\n        /* \"#utility.yul\":11719:11769   */\n      mstore\n        /* \"#utility.yul\":11602:11776   */\n      pop\n      jump\t// out\n        /* \"#utility.yul\":11782:12148   */\n    tag_191:\n        /* \"#utility.yul\":11924:11927   */\n      0x00\n        /* \"#utility.yul\":11945:12012   */\n      tag_333\n        /* \"#utility.yul\":12009:12011   */\n      0x18\n        /* \"#utility.yul\":12004:12007   */\n      dup4\n        /* \"#utility.yul\":11945:12012   */\n      tag_163\n      jump\t// in\n    tag_333:\n        /* \"#utility.yul\":11938:12012   */\n      swap2\n      pop\n        /* \"#utility.yul\":12021:12114   */\n      tag_334\n        /* \"#utility.yul\":12110:12113   */\n      dup3\n        /* \"#utility.yul\":12021:12114   */\n      tag_190\n      jump\t// in\n    tag_334:\n        /* \"#utility.yul\":12139:12141   */\n      0x20\n        /* \"#utility.yul\":12134:12137   */\n      dup3\n        /* \"#utility.yul\":12130:12142   */\n      add\n        /* \"#utility.yul\":12123:12142   */\n      swap1\n      pop\n        /* \"#utility.yul\":11782:12148   */\n      swap2\n      swap1\n      pop\n      jump\t// out\n        /* \"#utility.yul\":12154:12573   */\n    tag_84:\n        /* \"#utility.yul\":12320:12324   */\n      0x00\n        /* \"#utility.yul\":12358:12360   */\n      0x20\n        /* \"#utility.yul\":12347:12356   */\n      dup3\n        /* \"#utility.yul\":12343:12361   */\n      add\n        /* \"#utility.yul\":12335:12361   */\n      swap1\n      pop\n        /* \"#utility.yul\":12407:12416   */\n      dup2\n        /* \"#utility.yul\":12401:12405   */\n      dup2\n        /* \"#utility.yul\":12397:12417   */\n      sub\n        /* \"#utility.yul\":12393:12394   */\n      0x00\n        /* \"#utility.yul\":12382:12391   */\n      dup4\n        /* \"#utility.yul\":12378:12395   */\n      add\n        /* \"#utility.yul\":12371:12418   */\n      mstore\n        /* \"#utility.yul\":12435:12566   */\n      tag_336\n        /* \"#utility.yul\":12561:12565   */\n      dup2\n        /* \"#utility.yul\":12435:12566   */\n      tag_191\n      jump\t// in\n    tag_336:\n        /* \"#utility.yul\":12427:12566   */\n      swap1\n      pop\n        /* \"#utility.yul\":12154:12573   */\n      swap2\n      swap1\n      pop\n      jump\t// out\n        /* \"#utility.yul\":12579:12911   */\n    tag_90:\n        /* \"#utility.yul\":12700:12704   */\n      0x00\n        /* \"#utility.yul\":12738:12740   */\n      0x40\n        /* \"#utility.yul\":12727:12736   */\n      dup3\n        /* \"#utility.yul\":12723:12741   */\n      add\n        /* \"#utility.yul\":12715:12741   */\n      swap1\n      pop\n        /* \"#utility.yul\":12751:12822   */\n      tag_338\n        /* \"#utility.yul\":12819:12820   */\n      0x00\n        /* \"#utility.yul\":12808:12817   */\n      dup4\n        /* \"#utility.yul\":12804:12821   */\n      add\n        /* \"#utility.yul\":12795:12801   */\n      dup6\n        /* \"#utility.yul\":12751:12822   */\n      tag_167\n      jump\t// in\n    tag_338:\n        /* \"#utility.yul\":12832:12904   */\n      tag_339\n        /* \"#utility.yul\":12900:12902   */\n      0x20\n        /* \"#utility.yul\":12889:12898   */\n      dup4\n        /* \"#utility.yul\":12885:12903   */\n      add\n        /* \"#utility.yul\":12876:12882   */\n      dup5\n        /* \"#utility.yul\":12832:12904   */\n      tag_167\n      jump\t// in\n    tag_339:\n        /* \"#utility.yul\":12579:12911   */\n      swap4\n      swap3\n      pop\n      pop\n      pop\n      jump\t// out\n        /* \"#utility.yul\":12917:13138   */\n    tag_192:\n        /* \"#utility.yul\":13057:13091   */\n      0x4f6e6c792061646d696e2063616e20706572666f726d20746869732061637469\n        /* \"#utility.yul\":13053:13054   */\n      0x00\n        /* \"#utility.yul\":13045:13051   */\n      dup3\n        /* \"#utility.yul\":13041:13055   */\n      add\n        /* \"#utility.yul\":13034:13092   */\n      mstore\n        /* \"#utility.yul\":13126:13130   */\n      0x6f6e000000000000000000000000000000000000000000000000000000000000\n        /* \"#utility.yul\":13121:13123   */\n      0x20\n        /* \"#utility.yul\":13113:13119   */\n      dup3\n        /* \"#utility.yul\":13109:13124   */\n      add\n        /* \"#utility.yul\":13102:13131   */\n      mstore\n        /* \"#utility.yul\":12917:13138   */\n      pop\n      jump\t// out\n        /* \"#utility.yul\":13144:13510   */\n    tag_193:\n        /* \"#utility.yul\":13286:13289   */\n      0x00\n        /* \"#utility.yul\":13307:13374   */\n      tag_342\n        /* \"#utility.yul\":13371:13373   */\n      0x22\n        /* \"#utility.yul\":13366:13369   */\n      dup4\n        /* \"#utility.yul\":13307:13374   */\n      tag_163\n      jump\t// in\n    tag_342:\n        /* \"#utility.yul\":13300:13374   */\n      swap2\n      pop\n        /* \"#utility.yul\":13383:13476   */\n      tag_343\n        /* \"#utility.yul\":13472:13475   */\n      dup3\n        /* \"#utility.yul\":13383:13476   */\n      tag_192\n      jump\t// in\n    tag_343:\n        /* \"#utility.yul\":13501:13503   */\n      0x40\n        /* \"#utility.yul\":13496:13499   */\n      dup3\n        /* \"#utility.yul\":13492:13504   */\n      add\n        /* \"#utility.yul\":13485:13504   */\n      swap1\n      pop\n        /* \"#utility.yul\":13144:13510   */\n      swap2\n      swap1\n      pop\n      jump\t// out\n        /* \"#utility.yul\":13516:13935   */\n    tag_95:\n        /* \"#utility.yul\":13682:13686   */\n      0x00\n        /* \"#utility.yul\":13720:13722   */\n      0x20\n        /* \"#utility.yul\":13709:13718   */\n      dup3\n        /* \"#utility.yul\":13705:13723   */\n      add\n        /* \"#utility.yul\":13697:13723   */\n      swap1\n      pop\n        /* \"#utility.yul\":13769:13778   */\n      dup2\n        /* \"#utility.yul\":13763:13767   */\n      dup2\n        /* \"#utility.yul\":13759:13779   */\n      sub\n        /* \"#utility.yul\":13755:13756   */\n      0x00\n        /* \"#utility.yul\":13744:13753   */\n      dup4\n        /* \"#utility.yul\":13740:13757   */\n      add\n        /* \"#utility.yul\":13733:13780   */\n      mstore\n        /* \"#utility.yul\":13797:13928   */\n      tag_345\n        /* \"#utility.yul\":13923:13927   */\n      dup2\n        /* \"#utility.yul\":13797:13928   */\n      tag_193\n      jump\t// in\n    tag_345:\n        /* \"#utility.yul\":13789:13928   */\n      swap1\n      pop\n        /* \"#utility.yul\":13516:13935   */\n      swap2\n      swap1\n      pop\n      jump\t// out\n        /* \"#utility.yul\":13941:14168   */\n    tag_194:\n        /* \"#utility.yul\":14081:14115   */\n      0x46756e64696e6720616d6f756e74206d75737420626520677265617465722074\n        /* \"#utility.yul\":14077:14078   */\n      0x00\n        /* \"#utility.yul\":14069:14075   */\n      dup3\n        /* \"#utility.yul\":14065:14079   */\n      add\n        /* \"#utility.yul\":14058:14116   */\n      mstore\n        /* \"#utility.yul\":14150:14160   */\n      0x68616e207a65726f000000000000000000000000000000000000000000000000\n        /* \"#utility.yul\":14145:14147   */\n      0x20\n        /* \"#utility.yul\":14137:14143   */\n      dup3\n        /* \"#utility.yul\":14133:14148   */\n      add\n        /* \"#utility.yul\":14126:14161   */\n      mstore\n        /* \"#utility.yul\":13941:14168   */\n      pop\n      jump\t// out\n        /* \"#utility.yul\":14174:14540   */\n    tag_195:\n        /* \"#utility.yul\":14316:14319   */\n      0x00\n        /* \"#utility.yul\":14337:14404   */\n      tag_348\n        /* \"#utility.yul\":14401:14403   */\n      0x28\n        /* \"#utility.yul\":14396:14399   */\n      dup4\n        /* \"#utility.yul\":14337:14404   */\n      tag_163\n      jump\t// in\n    tag_348:\n        /* \"#utility.yul\":14330:14404   */\n      swap2\n      pop\n        /* \"#utility.yul\":14413:14506   */\n      tag_349\n        /* \"#utility.yul\":14502:14505   */\n      dup3\n        /* \"#utility.yul\":14413:14506   */\n      tag_194\n      jump\t// in\n    tag_349:\n        /* \"#utility.yul\":14531:14533   */\n      0x40\n        /* \"#utility.yul\":14526:14529   */\n      dup3\n        /* \"#utility.yul\":14522:14534   */\n      add\n        /* \"#utility.yul\":14515:14534   */\n      swap1\n      pop\n        /* \"#utility.yul\":14174:14540   */\n      swap2\n      swap1\n      pop\n      jump\t// out\n        /* \"#utility.yul\":14546:14965   */\n    tag_117:\n        /* \"#utility.yul\":14712:14716   */\n      0x00\n        /* \"#utility.yul\":14750:14752   */\n      0x20\n        /* \"#utility.yul\":14739:14748   */\n      dup3\n        /* \"#utility.yul\":14735:14753   */\n      add\n        /* \"#utility.yul\":14727:14753   */\n      swap1\n      pop\n        /* \"#utility.yul\":14799:14808   */\n      dup2\n        /* \"#utility.yul\":14793:14797   */\n      dup2\n        /* \"#utility.yul\":14789:14809   */\n      sub\n        /* \"#utility.yul\":14785:14786   */\n      0x00\n        /* \"#utility.yul\":14774:14783   */\n      dup4\n        /* \"#utility.yul\":14770:14787   */\n      add\n        /* \"#utility.yul\":14763:14810   */\n      mstore\n        /* \"#utility.yul\":14827:14958   */\n      tag_351\n        /* \"#utility.yul\":14953:14957   */\n      dup2\n        /* \"#utility.yul\":14827:14958   */\n      tag_195\n      jump\t// in\n    tag_351:\n        /* \"#utility.yul\":14819:14958   */\n      swap1\n      pop\n        /* \"#utility.yul\":14546:14965   */\n      swap2\n      swap1\n      pop\n      jump\t// out\n        /* \"#utility.yul\":14971:15151   */\n    tag_196:\n        /* \"#utility.yul\":15019:15096   */\n      0x4e487b7100000000000000000000000000000000000000000000000000000000\n        /* \"#utility.yul\":15016:15017   */\n      0x00\n        /* \"#utility.yul\":15009:15097   */\n      mstore\n        /* \"#utility.yul\":15116:15120   */\n      0x11\n        /* \"#utility.yul\":15113:15114   */\n      0x04\n        /* \"#utility.yul\":15106:15121   */\n      mstore\n        /* \"#utility.yul\":15140:15144   */\n      0x24\n        /* \"#utility.yul\":15137:15138   */\n      0x00\n        /* \"#utility.yul\":15130:15145   */\n      revert\n        /* \"#utility.yul\":15157:15348   */\n    tag_119:\n        /* \"#utility.yul\":15197:15200   */\n      0x00\n        /* \"#utility.yul\":15216:15236   */\n      tag_354\n        /* \"#utility.yul\":15234:15235   */\n      dup3\n        /* \"#utility.yul\":15216:15236   */\n      tag_156\n      jump\t// in\n    tag_354:\n        /* \"#utility.yul\":15211:15236   */\n      swap2\n      pop\n        /* \"#utility.yul\":15250:15270   */\n      tag_355\n        /* \"#utility.yul\":15268:15269   */\n      dup4\n        /* \"#utility.yul\":15250:15270   */\n      tag_156\n      jump\t// in\n    tag_355:\n        /* \"#utility.yul\":15245:15270   */\n      swap3\n      pop\n        /* \"#utility.yul\":15293:15294   */\n      dup3\n        /* \"#utility.yul\":15290:15291   */\n      dup3\n        /* \"#utility.yul\":15286:15295   */\n      add\n        /* \"#utility.yul\":15279:15295   */\n      swap1\n      pop\n        /* \"#utility.yul\":15314:15317   */\n      dup1\n        /* \"#utility.yul\":15311:15312   */\n      dup3\n        /* \"#utility.yul\":15308:15318   */\n      gt\n        /* \"#utility.yul\":15305:15341   */\n      iszero\n      tag_356\n      jumpi\n        /* \"#utility.yul\":15321:15339   */\n      tag_357\n      tag_196\n      jump\t// in\n    tag_357:\n        /* \"#utility.yul\":15305:15341   */\n    tag_356:\n        /* \"#utility.yul\":15157:15348   */\n      swap3\n      swap2\n      pop\n      pop\n      jump\t// out\n        /* \"#utility.yul\":15354:15587   */\n    tag_124:\n        /* \"#utility.yul\":15393:15396   */\n      0x00\n        /* \"#utility.yul\":15416:15440   */\n      tag_359\n        /* \"#utility.yul\":15434:15439   */\n      dup3\n        /* \"#utility.yul\":15416:15440   */\n      tag_156\n      jump\t// in\n    tag_359:\n        /* \"#utility.yul\":15407:15440   */\n      swap2\n      pop\n        /* \"#utility.yul\":15462:15528   */\n      0xffffffffffffffffffffffffffffffffffffffffffffffffffffffffffffffff\n        /* \"#utility.yul\":15455:15460   */\n      dup3\n        /* \"#utility.yul\":15452:15529   */\n      sub\n        /* \"#utility.yul\":15449:15552   */\n      tag_360\n      jumpi\n        /* \"#utility.yul\":15532:15550   */\n      tag_361\n      tag_196\n      jump\t// in\n    tag_361:\n        /* \"#utility.yul\":15449:15552   */\n    tag_360:\n        /* \"#utility.yul\":15579:15580   */\n      0x01\n        /* \"#utility.yul\":15572:15577   */\n      dup3\n        /* \"#utility.yul\":15568:15581   */\n      add\n        /* \"#utility.yul\":15561:15581   */\n      swap1\n      pop\n        /* \"#utility.yul\":15354:15587   */\n      swap2\n      swap1\n      pop\n      jump\t// out\n        /* \"#utility.yul\":15593:15734   */\n    tag_197:\n        /* \"#utility.yul\":15642:15646   */\n      0x00\n        /* \"#utility.yul\":15665:15668   */\n      dup2\n        /* \"#utility.yul\":15657:15668   */\n      swap1\n      pop\n        /* \"#utility.yul\":15688:15691   */\n      dup2\n        /* \"#utility.yul\":15685:15686   */\n      0x00\n        /* \"#utility.yul\":15678:15692   */\n      mstore\n        /* \"#utility.yul\":15722:15726   */\n      0x20\n        /* \"#utility.yul\":15719:15720   */\n      0x00\n        /* \"#utility.yul\":15709:15727   */\n      keccak256\n        /* \"#utility.yul\":15701:15727   */\n      swap1\n      pop\n        /* \"#utility.yul\":15593:15734   */\n      swap2\n      swap1\n      pop\n      jump\t// out\n        /* \"#utility.yul\":15740:15833   */\n    tag_198:\n        /* \"#utility.yul\":15777:15783   */\n      0x00\n        /* \"#utility.yul\":15824:15826   */\n      0x20\n        /* \"#utility.yul\":15819:15821   */\n      0x1f\n        /* \"#utility.yul\":15812:15817   */\n      dup4\n        /* \"#utility.yul\":15808:15822   */\n      add\n        /* \"#utility.yul\":15804:15827   */\n      div\n        /* \"#utility.yul\":15794:15827   */\n      swap1\n      pop\n        /* \"#utility.yul\":15740:15833   */\n      swap2\n      swap1\n      pop\n      jump\t// out\n        /* \"#utility.yul\":15839:15946   */\n    tag_199:\n        /* \"#utility.yul\":15883:15891   */\n      0x00\n        /* \"#utility.yul\":15933:15938   */\n      dup3\n        /* \"#utility.yul\":15927:15931   */\n      dup3\n        /* \"#utility.yul\":15923:15939   */\n      shl\n        /* \"#utility.yul\":15902:15939   */\n      swap1\n      pop\n        /* \"#utility.yul\":15839:15946   */\n      swap3\n      swap2\n      pop\n      pop\n      jump\t// out\n        /* \"#utility.yul\":15952:16345   */\n    tag_200:\n        /* \"#utility.yul\":16021:16027   */\n      0x00\n        /* \"#utility.yul\":16071:16072   */\n      0x08\n        /* \"#utility.yul\":16059:16069   */\n      dup4\n        /* \"#utility.yul\":16055:16073   */\n      mul\n        /* \"#utility.yul\":16094:16191   */\n      tag_366\n        /* \"#utility.yul\":16124:16190   */\n      0xffffffffffffffffffffffffffffffffffffffffffffffffffffffffffffffff\n        /* \"#utility.yul\":16113:16122   */\n      dup3\n        /* \"#utility.yul\":16094:16191   */\n      tag_199\n      jump\t// in\n    tag_366:\n        /* \"#utility.yul\":16212:16251   */\n      tag_367\n        /* \"#utility.yul\":16242:16250   */\n      dup7\n        /* \"#utility.yul\":16231:16240   */\n      dup4\n        /* \"#utility.yul\":16212:16251   */\n      tag_199\n      jump\t// in\n    tag_367:\n        /* \"#utility.yul\":16200:16251   */\n      swap6\n      pop\n        /* \"#utility.yul\":16284:16288   */\n      dup1\n        /* \"#utility.yul\":16280:16289   */\n      not\n        /* \"#utility.yul\":16273:16278   */\n      dup5\n        /* \"#utility.yul\":16269:16290   */\n      and\n        /* \"#utility.yul\":16260:16290   */\n      swap4\n      pop\n        /* \"#utility.yul\":16333:16337   */\n      dup1\n        /* \"#utility.yul\":16323:16331   */\n      dup7\n        /* \"#utility.yul\":16319:16338   */\n      and\n        /* \"#utility.yul\":16312:16317   */\n      dup5\n        /* \"#utility.yul\":16309:16339   */\n      or\n        /* \"#utility.yul\":16299:16339   */\n      swap3\n      pop\n        /* \"#utility.yul\":16028:16345   */\n      pop\n      pop\n        /* \"#utility.yul\":15952:16345   */\n      swap4\n      swap3\n      pop\n      pop\n      pop\n      jump\t// out\n        /* \"#utility.yul\":16351:16411   */\n    tag_201:\n        /* \"#utility.yul\":16379:16382   */\n      0x00\n        /* \"#utility.yul\":16400:16405   */\n      dup2\n        /* \"#utility.yul\":16393:16405   */\n      swap1\n      pop\n        /* \"#utility.yul\":16351:16411   */\n      swap2\n      swap1\n      pop\n      jump\t// out\n        /* \"#utility.yul\":16417:16559   */\n    tag_202:\n        /* \"#utility.yul\":16467:16476   */\n      0x00\n        /* \"#utility.yul\":16500:16553   */\n      tag_370\n        /* \"#utility.yul\":16518:16552   */\n      tag_371\n        /* \"#utility.yul\":16527:16551   */\n      tag_372\n        /* \"#utility.yul\":16545:16550   */\n      dup5\n        /* \"#utility.yul\":16527:16551   */\n      tag_156\n      jump\t// in\n    tag_372:\n        /* \"#utility.yul\":16518:16552   */\n      tag_201\n      jump\t// in\n    tag_371:\n        /* \"#utility.yul\":16500:16553   */\n      tag_156\n      jump\t// in\n    tag_370:\n        /* \"#utility.yul\":16487:16553   */\n      swap1\n      pop\n        /* \"#utility.yul\":16417:16559   */\n      swap2\n      swap1\n      pop\n      jump\t// out\n        /* \"#utility.yul\":16565:16640   */\n    tag_203:\n        /* \"#utility.yul\":16608:16611   */\n      0x00\n        /* \"#utility.yul\":16629:16634   */\n      dup2\n        /* \"#utility.yul\":16622:16634   */\n      swap1\n      pop\n        /* \"#utility.yul\":16565:16640   */\n      swap2\n      swap1\n      pop\n      jump\t// out\n        /* \"#utility.yul\":16646:16915   */\n    tag_204:\n        /* \"#utility.yul\":16756:16795   */\n      tag_375\n        /* \"#utility.yul\":16787:16794   */\n      dup4\n        /* \"#utility.yul\":16756:16795   */\n      tag_202\n      jump\t// in\n    tag_375:\n        /* \"#utility.yul\":16817:16908   */\n      tag_376\n        /* \"#utility.yul\":16866:16907   */\n      tag_377\n        /* \"#utility.yul\":16890:16906   */\n      dup3\n        /* \"#utility.yul\":16866:16907   */\n      tag_203\n      jump\t// in\n    tag_377:\n        /* \"#utility.yul\":16858:16864   */\n      dup5\n        /* \"#utility.yul\":16851:16855   */\n      dup5\n        /* \"#utility.yul\":16845:16856   */\n      sload\n        /* \"#utility.yul\":16817:16908   */\n      tag_200\n      jump\t// in\n    tag_376:\n        /* \"#utility.yul\":16811:16815   */\n      dup3\n        /* \"#utility.yul\":16804:16909   */\n      sstore\n        /* \"#utility.yul\":16722:16915   */\n      pop\n        /* \"#utility.yul\":16646:16915   */\n      pop\n      pop\n      pop\n      jump\t// out\n        /* \"#utility.yul\":16921:16994   */\n    tag_205:\n        /* \"#utility.yul\":16966:16969   */\n      0x00\n        /* \"#utility.yul\":16921:16994   */\n      swap1\n      jump\t// out\n        /* \"#utility.yul\":17000:17189   */\n    tag_206:\n        /* \"#utility.yul\":17077:17109   */\n      tag_380\n      tag_205\n      jump\t// in\n    tag_380:\n        /* \"#utility.yul\":17118:17183   */\n      tag_381\n        /* \"#utility.yul\":17176:17182   */\n      dup2\n        /* \"#utility.yul\":17168:17174   */\n      dup5\n        /* \"#utility.yul\":17162:17166   */\n      dup5\n        /* \"#utility.yul\":17118:17183   */\n      tag_204\n      jump\t// in\n    tag_381:\n        /* \"#utility.yul\":17053:17189   */\n      pop\n        /* \"#utility.yul\":17000:17189   */\n      pop\n      pop\n      jump\t// out\n        /* \"#utility.yul\":17195:17381   */\n    tag_207:\n        /* \"#utility.yul\":17255:17375   */\n    tag_383:\n        /* \"#utility.yul\":17272:17275   */\n      dup2\n        /* \"#utility.yul\":17265:17270   */\n      dup2\n        /* \"#utility.yul\":17262:17276   */\n      lt\n        /* \"#utility.yul\":17255:17375   */\n      iszero\n      tag_385\n      jumpi\n        /* \"#utility.yul\":17326:17365   */\n      tag_386\n        /* \"#utility.yul\":17363:17364   */\n      0x00\n        /* \"#utility.yul\":17356:17361   */\n      dup3\n        /* \"#utility.yul\":17326:17365   */\n      tag_206\n      jump\t// in\n    tag_386:\n        /* \"#utility.yul\":17299:17300   */\n      0x01\n        /* \"#utility.yul\":17292:17297   */\n      dup2\n        /* \"#utility.yul\":17288:17301   */\n      add\n        /* \"#utility.yul\":17279:17301   */\n      swap1\n      pop\n        /* \"#utility.yul\":17255:17375   */\n      jump(tag_383)\n    tag_385:\n        /* \"#utility.yul\":17195:17381   */\n      pop\n      pop\n      jump\t// out\n        /* \"#utility.yul\":17387:17930   */\n    tag_208:\n        /* \"#utility.yul\":17488:17490   */\n      0x1f\n        /* \"#utility.yul\":17483:17486   */\n      dup3\n        /* \"#utility.yul\":17480:17491   */\n      gt\n        /* \"#utility.yul\":17477:17923   */\n      iszero\n      tag_388\n      jumpi\n        /* \"#utility.yul\":17522:17560   */\n      tag_389\n        /* \"#utility.yul\":17554:17559   */\n      dup2\n        /* \"#utility.yul\":17522:17560   */\n      tag_197\n      jump\t// in\n    tag_389:\n        /* \"#utility.yul\":17606:17635   */\n      tag_390\n        /* \"#utility.yul\":17624:17634   */\n      dup5\n        /* \"#utility.yul\":17606:17635   */\n      tag_198\n      jump\t// in\n    tag_390:\n        /* \"#utility.yul\":17596:17604   */\n      dup2\n        /* \"#utility.yul\":17592:17636   */\n      add\n        /* \"#utility.yul\":17789:17791   */\n      0x20\n        /* \"#utility.yul\":17777:17787   */\n      dup6\n        /* \"#utility.yul\":17774:17792   */\n      lt\n        /* \"#utility.yul\":17771:17820   */\n      iszero\n      tag_391\n      jumpi\n        /* \"#utility.yul\":17810:17818   */\n      dup2\n        /* \"#utility.yul\":17795:17818   */\n      swap1\n      pop\n        /* \"#utility.yul\":17771:17820   */\n    tag_391:\n        /* \"#utility.yul\":17833:17913   */\n      tag_392\n        /* \"#utility.yul\":17889:17911   */\n      tag_393\n        /* \"#utility.yul\":17907:17910   */\n      dup6\n        /* \"#utility.yul\":17889:17911   */\n      tag_198\n      jump\t// in\n    tag_393:\n        /* \"#utility.yul\":17879:17887   */\n      dup4\n        /* \"#utility.yul\":17875:17912   */\n      add\n        /* \"#utility.yul\":17862:17873   */\n      dup3\n        /* \"#utility.yul\":17833:17913   */\n      tag_207\n      jump\t// in\n    tag_392:\n        /* \"#utility.yul\":17492:17923   */\n      pop\n      pop\n        /* \"#utility.yul\":17477:17923   */\n    tag_388:\n        /* \"#utility.yul\":17387:17930   */\n      pop\n      pop\n      pop\n      jump\t// out\n        /* \"#utility.yul\":17936:18053   */\n    tag_209:\n        /* \"#utility.yul\":17990:17998   */\n      0x00\n        /* \"#utility.yul\":18040:18045   */\n      dup3\n        /* \"#utility.yul\":18034:18038   */\n      dup3\n        /* \"#utility.yul\":18030:18046   */\n      shr\n        /* \"#utility.yul\":18009:18046   */\n      swap1\n      pop\n        /* \"#utility.yul\":17936:18053   */\n      swap3\n      swap2\n      pop\n      pop\n      jump\t// out\n        /* \"#utility.yul\":18059:18228   */\n    tag_210:\n        /* \"#utility.yul\":18103:18109   */\n      0x00\n        /* \"#utility.yul\":18136:18187   */\n      tag_396\n        /* \"#utility.yul\":18184:18185   */\n      0x00\n        /* \"#utility.yul\":18180:18186   */\n      not\n        /* \"#utility.yul\":18172:18177   */\n      dup5\n        /* \"#utility.yul\":18169:18170   */\n      0x08\n        /* \"#utility.yul\":18165:18178   */\n      mul\n        /* \"#utility.yul\":18136:18187   */\n      tag_209\n      jump\t// in\n    tag_396:\n        /* \"#utility.yul\":18132:18188   */\n      not\n        /* \"#utility.yul\":18217:18221   */\n      dup1\n        /* \"#utility.yul\":18211:18215   */\n      dup4\n        /* \"#utility.yul\":18207:18222   */\n      and\n        /* \"#utility.yul\":18197:18222   */\n      swap2\n      pop\n        /* \"#utility.yul\":18110:18228   */\n      pop\n        /* \"#utility.yul\":18059:18228   */\n      swap3\n      swap2\n      pop\n      pop\n      jump\t// out\n        /* \"#utility.yul\":18233:18528   */\n    tag_211:\n        /* \"#utility.yul\":18309:18313   */\n      0x00\n        /* \"#utility.yul\":18455:18484   */\n      tag_398\n        /* \"#utility.yul\":18480:18483   */\n      dup4\n        /* \"#utility.yul\":18474:18478   */\n      dup4\n        /* \"#utility.yul\":18455:18484   */\n      tag_210\n      jump\t// in\n    tag_398:\n        /* \"#utility.yul\":18447:18484   */\n      swap2\n      pop\n        /* \"#utility.yul\":18517:18520   */\n      dup3\n        /* \"#utility.yul\":18514:18515   */\n      0x02\n        /* \"#utility.yul\":18510:18521   */\n      mul\n        /* \"#utility.yul\":18504:18508   */\n      dup3\n        /* \"#utility.yul\":18501:18522   */\n      or\n        /* \"#utility.yul\":18493:18522   */\n      swap1\n      pop\n        /* \"#utility.yul\":18233:18528   */\n      swap3\n      swap2\n      pop\n      pop\n      jump\t// out\n        /* \"#utility.yul\":18533:19928   */\n    tag_128:\n        /* \"#utility.yul\":18650:18687   */\n      tag_400\n        /* \"#utility.yul\":18683:18686   */\n      dup3\n        /* \"#utility.yul\":18650:18687   */\n      tag_162\n      jump\t// in\n    tag_400:\n        /* \"#utility.yul\":18752:18770   */\n      0xffffffffffffffff\n        /* \"#utility.yul\":18744:18750   */\n      dup2\n        /* \"#utility.yul\":18741:18771   */\n      gt\n        /* \"#utility.yul\":18738:18794   */\n      iszero\n      tag_401\n      jumpi\n        /* \"#utility.yul\":18774:18792   */\n      tag_402\n      tag_177\n      jump\t// in\n    tag_402:\n        /* \"#utility.yul\":18738:18794   */\n    tag_401:\n        /* \"#utility.yul\":18818:18856   */\n      tag_403\n        /* \"#utility.yul\":18850:18854   */\n      dup3\n        /* \"#utility.yul\":18844:18855   */\n      sload\n        /* \"#utility.yul\":18818:18856   */\n      tag_63\n      jump\t// in\n    tag_403:\n        /* \"#utility.yul\":18903:18970   */\n      tag_404\n        /* \"#utility.yul\":18963:18969   */\n      dup3\n        /* \"#utility.yul\":18955:18961   */\n      dup3\n        /* \"#utility.yul\":18949:18953   */\n      dup6\n        /* \"#utility.yul\":18903:18970   */\n      tag_208\n      jump\t// in\n    tag_404:\n        /* \"#utility.yul\":18997:18998   */\n      0x00\n        /* \"#utility.yul\":19021:19025   */\n      0x20\n        /* \"#utility.yul\":19008:19025   */\n      swap1\n      pop\n        /* \"#utility.yul\":19053:19055   */\n      0x1f\n        /* \"#utility.yul\":19045:19051   */\n      dup4\n        /* \"#utility.yul\":19042:19056   */\n      gt\n        /* \"#utility.yul\":19070:19071   */\n      0x01\n        /* \"#utility.yul\":19065:19683   */\n      dup2\n      eq\n      tag_406\n      jumpi\n        /* \"#utility.yul\":19727:19728   */\n      0x00\n        /* \"#utility.yul\":19744:19750   */\n      dup5\n        /* \"#utility.yul\":19741:19818   */\n      iszero\n      tag_407\n      jumpi\n        /* \"#utility.yul\":19793:19802   */\n      dup3\n        /* \"#utility.yul\":19788:19791   */\n      dup8\n        /* \"#utility.yul\":19784:19803   */\n      add\n        /* \"#utility.yul\":19778:19804   */\n      mload\n        /* \"#utility.yul\":19769:19804   */\n      swap1\n      pop\n        /* \"#utility.yul\":19741:19818   */\n    tag_407:\n        /* \"#utility.yul\":19844:19911   */\n      tag_408\n        /* \"#utility.yul\":19904:19910   */\n      dup6\n        /* \"#utility.yul\":19897:19902   */\n      dup3\n        /* \"#utility.yul\":19844:19911   */\n      tag_211\n      jump\t// in\n    tag_408:\n        /* \"#utility.yul\":19838:19842   */\n      dup7\n        /* \"#utility.yul\":19831:19912   */\n      sstore\n        /* \"#utility.yul\":19700:19922   */\n      pop\n        /* \"#utility.yul\":19035:19922   */\n      jump(tag_405)\n        /* \"#utility.yul\":19065:19683   */\n    tag_406:\n        /* \"#utility.yul\":19117:19121   */\n      0x1f\n        /* \"#utility.yul\":19113:19122   */\n      not\n        /* \"#utility.yul\":19105:19111   */\n      dup5\n        /* \"#utility.yul\":19101:19123   */\n      and\n        /* \"#utility.yul\":19151:19188   */\n      tag_409\n        /* \"#utility.yul\":19183:19187   */\n      dup7\n        /* \"#utility.yul\":19151:19188   */\n      tag_197\n      jump\t// in\n    tag_409:\n        /* \"#utility.yul\":19210:19211   */\n      0x00\n        /* \"#utility.yul\":19224:19432   */\n    tag_410:\n        /* \"#utility.yul\":19238:19245   */\n      dup3\n        /* \"#utility.yul\":19235:19236   */\n      dup2\n        /* \"#utility.yul\":19232:19246   */\n      lt\n        /* \"#utility.yul\":19224:19432   */\n      iszero\n      tag_412\n      jumpi\n        /* \"#utility.yul\":19317:19326   */\n      dup5\n        /* \"#utility.yul\":19312:19315   */\n      dup10\n        /* \"#utility.yul\":19308:19327   */\n      add\n        /* \"#utility.yul\":19302:19328   */\n      mload\n        /* \"#utility.yul\":19294:19300   */\n      dup3\n        /* \"#utility.yul\":19287:19329   */\n      sstore\n        /* \"#utility.yul\":19368:19369   */\n      0x01\n        /* \"#utility.yul\":19360:19366   */\n      dup3\n        /* \"#utility.yul\":19356:19370   */\n      add\n        /* \"#utility.yul\":19346:19370   */\n      swap2\n      pop\n        /* \"#utility.yul\":19415:19417   */\n      0x20\n        /* \"#utility.yul\":19404:19413   */\n      dup6\n        /* \"#utility.yul\":19400:19418   */\n      add\n        /* \"#utility.yul\":19387:19418   */\n      swap5\n      pop\n        /* \"#utility.yul\":19261:19265   */\n      0x20\n        /* \"#utility.yul\":19258:19259   */\n      dup2\n        /* \"#utility.yul\":19254:19266   */\n      add\n        /* \"#utility.yul\":19249:19266   */\n      swap1\n      pop\n        /* \"#utility.yul\":19224:19432   */\n      jump(tag_410)\n    tag_412:\n        /* \"#utility.yul\":19460:19466   */\n      dup7\n        /* \"#utility.yul\":19451:19458   */\n      dup4\n        /* \"#utility.yul\":19448:19467   */\n      lt\n        /* \"#utility.yul\":19445:19624   */\n      iszero\n      tag_413\n      jumpi\n        /* \"#utility.yul\":19518:19527   */\n      dup5\n        /* \"#utility.yul\":19513:19516   */\n      dup10\n        /* \"#utility.yul\":19509:19528   */\n      add\n        /* \"#utility.yul\":19503:19529   */\n      mload\n        /* \"#utility.yul\":19561:19609   */\n      tag_414\n        /* \"#utility.yul\":19603:19607   */\n      0x1f\n        /* \"#utility.yul\":19595:19601   */\n      dup10\n        /* \"#utility.yul\":19591:19608   */\n      and\n        /* \"#utility.yul\":19580:19589   */\n      dup3\n        /* \"#utility.yul\":19561:19609   */\n      tag_210\n      jump\t// in\n    tag_414:\n        /* \"#utility.yul\":19553:19559   */\n      dup4\n        /* \"#utility.yul\":19546:19610   */\n      sstore\n        /* \"#utility.yul\":19468:19624   */\n      pop\n        /* \"#utility.yul\":19445:19624   */\n    tag_413:\n        /* \"#utility.yul\":19670:19671   */\n      0x01\n        /* \"#utility.yul\":19666:19667   */\n      0x02\n        /* \"#utility.yul\":19658:19664   */\n      dup9\n        /* \"#utility.yul\":19654:19668   */\n      mul\n        /* \"#utility.yul\":19650:19672   */\n      add\n        /* \"#utility.yul\":19644:19648   */\n      dup9\n        /* \"#utility.yul\":19637:19673   */\n      sstore\n        /* \"#utility.yul\":19072:19683   */\n      pop\n      pop\n      pop\n        /* \"#utility.yul\":19035:19922   */\n    tag_405:\n      pop\n        /* \"#utility.yul\":18625:19928   */\n      pop\n      pop\n      pop\n        /* \"#utility.yul\":18533:19928   */\n      pop\n      pop\n      jump\t// out\n        /* \"#utility.yul\":19934:20467   */\n    tag_132:\n        /* \"#utility.yul\":20103:20107   */\n      0x00\n        /* \"#utility.yul\":20141:20143   */\n      0x60\n        /* \"#utility.yul\":20130:20139   */\n      dup3\n        /* \"#utility.yul\":20126:20144   */\n      add\n        /* \"#utility.yul\":20118:20144   */\n      swap1\n      pop\n        /* \"#utility.yul\":20154:20225   */\n      tag_416\n        /* \"#utility.yul\":20222:20223   */\n      0x00\n        /* \"#utility.yul\":20211:20220   */\n      dup4\n        /* \"#utility.yul\":20207:20224   */\n      add\n        /* \"#utility.yul\":20198:20204   */\n      dup7\n        /* \"#utility.yul\":20154:20225   */\n      tag_167\n      jump\t// in\n    tag_416:\n        /* \"#utility.yul\":20272:20281   */\n      dup2\n        /* \"#utility.yul\":20266:20270   */\n      dup2\n        /* \"#utility.yul\":20262:20282   */\n      sub\n        /* \"#utility.yul\":20257:20259   */\n      0x20\n        /* \"#utility.yul\":20246:20255   */\n      dup4\n        /* \"#utility.yul\":20242:20260   */\n      add\n        /* \"#utility.yul\":20235:20283   */\n      mstore\n        /* \"#utility.yul\":20300:20378   */\n      tag_417\n        /* \"#utility.yul\":20373:20377   */\n      dup2\n        /* \"#utility.yul\":20364:20370   */\n      dup6\n        /* \"#utility.yul\":20300:20378   */\n      tag_166\n      jump\t// in\n    tag_417:\n        /* \"#utility.yul\":20292:20378   */\n      swap1\n      pop\n        /* \"#utility.yul\":20388:20460   */\n      tag_418\n        /* \"#utility.yul\":20456:20458   */\n      0x40\n        /* \"#utility.yul\":20445:20454   */\n      dup4\n        /* \"#utility.yul\":20441:20459   */\n      add\n        /* \"#utility.yul\":20432:20438   */\n      dup5\n        /* \"#utility.yul\":20388:20460   */\n      tag_167\n      jump\t// in\n    tag_418:\n        /* \"#utility.yul\":19934:20467   */\n      swap5\n      swap4\n      pop\n      pop\n      pop\n      pop\n      jump\t// out\n\n    auxdata: 0xa26469706673582212201ad73673354321d70fe68284088a99e8ec6d0db4baf5a01711971c6ddd11666964736f6c634300081a0033\n}\n",
				"bytecode": {
					"linkReferences": {},
					"object": "6080604052348015600e575f80fd5b503360035f6101000a81548173ffffffffffffffffffffffffffffffffffffffff021916908373ffffffffffffffffffffffffffffffffffffffff16021790555061189a8061005c5f395ff3fe608060405260043610610090575f3560e01c80636c563abe116100585780636c563abe1461018a57806391754a5d146101a6578063f0f3f2c8146101ce578063f851a4401461020e578063fc69d8361461023857610090565b8063107046bd14610094578063155dd5ee146100d457806336fbad26146100fc5780633d891f591461012657806358733dec14610162575b5f80fd5b34801561009f575f80fd5b506100ba60048036038101906100b59190610da5565b610260565b6040516100cb959493929190610f01565b60405180910390f35b3480156100df575f80fd5b506100fa60048036038101906100f59190610da5565b610342565b005b348015610107575f80fd5b506101106105e3565b60405161011d9190610f59565b60405180910390f35b348015610131575f80fd5b5061014c60048036038101906101479190610fad565b6105e9565b6040516101599190610f59565b60405180910390f35b34801561016d575f80fd5b5061018860048036038101906101839190610da5565b610609565b005b6101a4600480360381019061019f9190610da5565b610797565b005b3480156101b1575f80fd5b506101cc60048036038101906101c79190611117565b610946565b005b3480156101d9575f80fd5b506101f460048036038101906101ef9190610da5565b610ab6565b604051610205959493929190611180565b60405180910390f35b348015610219575f80fd5b50610222610baf565b60405161022f91906111d8565b60405180910390f35b348015610243575f80fd5b5061025e60048036038101906102599190610da5565b610bd4565b005b5f602052805f5260405f205f91509050805f015f9054906101000a900473ffffffffffffffffffffffffffffffffffffffff16908060010180546102a39061121e565b80601f01602080910402602001604051908101604052809291908181526020018280546102cf9061121e565b801561031a5780601f106102f15761010080835404028352916020019161031a565b820191905f5260205f20905b8154815290600101906020018083116102fd57829003601f168201915b505050505090806002015490806003015490806004015f9054906101000a900460ff16905085565b805f808281526020019081526020015f205f015f9054906101000a900473ffffffffffffffffffffffffffffffffffffffff1673ffffffffffffffffffffffffffffffffffffffff163373ffffffffffffffffffffffffffffffffffffffff16146103e2576040517f08c379a00000000000000000000000000000000000000000000000000000000081526004016103d9906112be565b60405180910390fd5b8160028060038111156103f8576103f7610e8e565b5b5f808481526020019081526020015f206004015f9054906101000a900460ff16600381111561042a57610429610e8e565b5b1461046a576040517f08c379a00000000000000000000000000000000000000000000000000000000081526004016104619061134c565b60405180910390fd5b5f805f8681526020019081526020015f2090508060020154816003015410156104c8576040517f08c379a00000000000000000000000000000000000000000000000000000000081526004016104bf906113b4565b60405180910390fd5b5f816003015490505f82600301819055506003826004015f6101000a81548160ff02191690836003811115610500576104ff610e8e565b5b0217905550815f015f9054906101000a900473ffffffffffffffffffffffffffffffffffffffff1673ffffffffffffffffffffffffffffffffffffffff166108fc8290811502906040515f60405180830381858888f1935050505015801561056a573d5f803e3d5ffd5b507fd66662c0ded9e58fd31d5e44944bcfd07ffc15e6927ecc1382e7941cb7bd24c4868260405161059c9291906113d2565b60405180910390a17fc6103cc0479d202218c64bbfa4df30c34a1f97e64c85a5a441103a0766241e66866040516105d39190610f59565b60405180910390a1505050505050565b60025481565b6001602052815f5260405f20602052805f5260405f205f91509150505481565b60035f9054906101000a900473ffffffffffffffffffffffffffffffffffffffff1673ffffffffffffffffffffffffffffffffffffffff163373ffffffffffffffffffffffffffffffffffffffff1614610698576040517f08c379a000000000000000000000000000000000000000000000000000000000815260040161068f90611469565b60405180910390fd5b8060018060038111156106ae576106ad610e8e565b5b5f808481526020019081526020015f206004015f9054906101000a900460ff1660038111156106e0576106df610e8e565b5b14610720576040517f08c379a00000000000000000000000000000000000000000000000000000000081526004016107179061134c565b60405180910390fd5b60025f808581526020019081526020015f206004015f6101000a81548160ff0219169083600381111561075657610755610e8e565b5b02179055507f3d4e2838c2c18bf2acccc9e82df8a8b76b0ca4118a6faf7a387fd77dec6aba348360405161078a9190610f59565b60405180910390a1505050565b8060018060038111156107ad576107ac610e8e565b5b5f808481526020019081526020015f206004015f9054906101000a900460ff1660038111156107df576107de610e8e565b5b1461081f576040517f08c379a00000000000000000000000000000000000000000000000000000000081526004016108169061134c565b60405180910390fd5b5f3411610861576040517f08c379a0000000000000000000000000000000000000000000000000000000008152600401610858906114f7565b60405180910390fd5b5f805f8581526020019081526020015f20905034816003015f8282546108879190611542565b925050819055503460015f8681526020019081526020015f205f3373ffffffffffffffffffffffffffffffffffffffff1673ffffffffffffffffffffffffffffffffffffffff1681526020019081526020015f205f8282546108e99190611542565b925050819055503373ffffffffffffffffffffffffffffffffffffffff167fc8fceb94d8cfaf3010a32f39dbdb0c0b361b10cdd6c7299d60376c85ff61283785346040516109389291906113d2565b60405180910390a250505050565b60025f81548092919061095890611575565b91905055506040518060a001604052803373ffffffffffffffffffffffffffffffffffffffff1681526020018381526020018281526020015f81526020015f60038111156109a9576109a8610e8e565b5b8152505f8060025481526020019081526020015f205f820151815f015f6101000a81548173ffffffffffffffffffffffffffffffffffffffff021916908373ffffffffffffffffffffffffffffffffffffffff1602179055506020820151816001019081610a179190611759565b5060408201518160020155606082015181600301556080820151816004015f6101000a81548160ff02191690836003811115610a5657610a55610e8e565b5b02179055509050503373ffffffffffffffffffffffffffffffffffffffff167f51d08cb6cfa640a387210fb69df925dfb70169ae7373f8ecd40b977b0c800d9a6002548484604051610aaa93929190611828565b60405180910390a25050565b5f60605f805f805f808881526020019081526020015f209050805f015f9054906101000a900473ffffffffffffffffffffffffffffffffffffffff168160010182600201548360030154846004015f9054906101000a900460ff16838054610b1d9061121e565b80601f0160208091040260200160405190810160405280929190818152602001828054610b499061121e565b8015610b945780601f10610b6b57610100808354040283529160200191610b94565b820191905f5260205f20905b815481529060010190602001808311610b7757829003601f168201915b50505050509350955095509550955095505091939590929450565b60035f9054906101000a900473ffffffffffffffffffffffffffffffffffffffff1681565b60035f9054906101000a900473ffffffffffffffffffffffffffffffffffffffff1673ffffffffffffffffffffffffffffffffffffffff163373ffffffffffffffffffffffffffffffffffffffff1614610c63576040517f08c379a0000000000000000000000000000000000000000000000000000000008152600401610c5a90611469565b60405180910390fd5b805f806003811115610c7857610c77610e8e565b5b5f808481526020019081526020015f206004015f9054906101000a900460ff166003811115610caa57610ca9610e8e565b5b14610cea576040517f08c379a0000000000000000000000000000000000000000000000000000000008152600401610ce19061134c565b60405180910390fd5b60015f808581526020019081526020015f206004015f6101000a81548160ff02191690836003811115610d2057610d1f610e8e565b5b02179055507ffc534544f8ed1b516bf078b4ae88509d8f81f4fafefb10e9aad53e3e1fbce9bb83604051610d549190610f59565b60405180910390a1505050565b5f604051905090565b5f80fd5b5f80fd5b5f819050919050565b610d8481610d72565b8114610d8e575f80fd5b50565b5f81359050610d9f81610d7b565b92915050565b5f60208284031215610dba57610db9610d6a565b5b5f610dc784828501610d91565b91505092915050565b5f73ffffffffffffffffffffffffffffffffffffffff82169050919050565b5f610df982610dd0565b9050919050565b610e0981610def565b82525050565b5f81519050919050565b5f82825260208201905092915050565b8281835e5f83830152505050565b5f601f19601f8301169050919050565b5f610e5182610e0f565b610e5b8185610e19565b9350610e6b818560208601610e29565b610e7481610e37565b840191505092915050565b610e8881610d72565b82525050565b7f4e487b71000000000000000000000000000000000000000000000000000000005f52602160045260245ffd5b60048110610ecc57610ecb610e8e565b5b50565b5f819050610edc82610ebb565b919050565b5f610eeb82610ecf565b9050919050565b610efb81610ee1565b82525050565b5f60a082019050610f145f830188610e00565b8181036020830152610f268187610e47565b9050610f356040830186610e7f565b610f426060830185610e7f565b610f4f6080830184610ef2565b9695505050505050565b5f602082019050610f6c5f830184610e7f565b92915050565b5f610f7c82610dd0565b9050919050565b610f8c81610f72565b8114610f96575f80fd5b50565b5f81359050610fa781610f83565b92915050565b5f8060408385031215610fc357610fc2610d6a565b5b5f610fd085828601610d91565b9250506020610fe185828601610f99565b9150509250929050565b5f80fd5b5f80fd5b7f4e487b71000000000000000000000000000000000000000000000000000000005f52604160045260245ffd5b61102982610e37565b810181811067ffffffffffffffff8211171561104857611047610ff3565b5b80604052505050565b5f61105a610d61565b90506110668282611020565b919050565b5f67ffffffffffffffff82111561108557611084610ff3565b5b61108e82610e37565b9050602081019050919050565b828183375f83830152505050565b5f6110bb6110b68461106b565b611051565b9050828152602081018484840111156110d7576110d6610fef565b5b6110e284828561109b565b509392505050565b5f82601f8301126110fe576110fd610feb565b5b813561110e8482602086016110a9565b91505092915050565b5f806040838503121561112d5761112c610d6a565b5b5f83013567ffffffffffffffff81111561114a57611149610d6e565b5b611156858286016110ea565b925050602061116785828601610d91565b9150509250929050565b61117a81610f72565b82525050565b5f60a0820190506111935f830188611171565b81810360208301526111a58187610e47565b90506111b46040830186610e7f565b6111c16060830185610e7f565b6111ce6080830184610ef2565b9695505050505050565b5f6020820190506111eb5f830184611171565b92915050565b7f4e487b71000000000000000000000000000000000000000000000000000000005f52602260045260245ffd5b5f600282049050600182168061123557607f821691505b602082108103611248576112476111f1565b5b50919050565b7f4f6e6c79207468652070726f6a656374206f776e65722063616e20706572666f5f8201527f726d207468697320616374696f6e000000000000000000000000000000000000602082015250565b5f6112a8602e83610e19565b91506112b38261124e565b604082019050919050565b5f6020820190508181035f8301526112d58161129c565b9050919050565b7f496e76616c69642070726f6a65637420737461746520666f72207468697320615f8201527f6374696f6e000000000000000000000000000000000000000000000000000000602082015250565b5f611336602583610e19565b9150611341826112dc565b604082019050919050565b5f6020820190508181035f8301526113638161132a565b9050919050565b7f46756e64696e6720676f616c206e6f74207265616368656400000000000000005f82015250565b5f61139e601883610e19565b91506113a98261136a565b602082019050919050565b5f6020820190508181035f8301526113cb81611392565b9050919050565b5f6040820190506113e55f830185610e7f565b6113f26020830184610e7f565b9392505050565b7f4f6e6c792061646d696e2063616e20706572666f726d207468697320616374695f8201527f6f6e000000000000000000000000000000000000000000000000000000000000602082015250565b5f611453602283610e19565b915061145e826113f9565b604082019050919050565b5f6020820190508181035f83015261148081611447565b9050919050565b7f46756e64696e6720616d6f756e74206d757374206265206772656174657220745f8201527f68616e207a65726f000000000000000000000000000000000000000000000000602082015250565b5f6114e1602883610e19565b91506114ec82611487565b604082019050919050565b5f6020820190508181035f83015261150e816114d5565b9050919050565b7f4e487b71000000000000000000000000000000000000000000000000000000005f52601160045260245ffd5b5f61154c82610d72565b915061155783610d72565b925082820190508082111561156f5761156e611515565b5b92915050565b5f61157f82610d72565b91507fffffffffffffffffffffffffffffffffffffffffffffffffffffffffffffffff82036115b1576115b0611515565b5b600182019050919050565b5f819050815f5260205f209050919050565b5f6020601f8301049050919050565b5f82821b905092915050565b5f600883026116187fffffffffffffffffffffffffffffffffffffffffffffffffffffffffffffffff826115dd565b61162286836115dd565b95508019841693508086168417925050509392505050565b5f819050919050565b5f61165d61165861165384610d72565b61163a565b610d72565b9050919050565b5f819050919050565b61167683611643565b61168a61168282611664565b8484546115e9565b825550505050565b5f90565b61169e611692565b6116a981848461166d565b505050565b5b818110156116cc576116c15f82611696565b6001810190506116af565b5050565b601f821115611711576116e2816115bc565b6116eb846115ce565b810160208510156116fa578190505b61170e611706856115ce565b8301826116ae565b50505b505050565b5f82821c905092915050565b5f6117315f1984600802611716565b1980831691505092915050565b5f6117498383611722565b9150826002028217905092915050565b61176282610e0f565b67ffffffffffffffff81111561177b5761177a610ff3565b5b611785825461121e565b6117908282856116d0565b5f60209050601f8311600181146117c1575f84156117af578287015190505b6117b9858261173e565b865550611820565b601f1984166117cf866115bc565b5f5b828110156117f6578489015182556001820191506020850194506020810190506117d1565b86831015611813578489015161180f601f891682611722565b8355505b6001600288020188555050505b505050505050565b5f60608201905061183b5f830186610e7f565b818103602083015261184d8185610e47565b905061185c6040830184610e7f565b94935050505056fea26469706673582212201ad73673354321d70fe68284088a99e8ec6d0db4baf5a01711971c6ddd11666964736f6c634300081a0033",
					"opcodes": "PUSH1 0x80 PUSH1 0x40 MSTORE CALLVALUE DUP1 ISZERO PUSH1 0xE JUMPI PUSH0 DUP1 REVERT JUMPDEST POP CALLER PUSH1 0x3 PUSH0 PUSH2 0x100 EXP DUP2 SLOAD DUP2 PUSH20 0xFFFFFFFFFFFFFFFFFFFFFFFFFFFFFFFFFFFFFFFF MUL NOT AND SWAP1 DUP4 PUSH20 0xFFFFFFFFFFFFFFFFFFFFFFFFFFFFFFFFFFFFFFFF AND MUL OR SWAP1 SSTORE POP PUSH2 0x189A DUP1 PUSH2 0x5C PUSH0 CODECOPY PUSH0 RETURN INVALID PUSH1 0x80 PUSH1 0x40 MSTORE PUSH1 0x4 CALLDATASIZE LT PUSH2 0x90 JUMPI PUSH0 CALLDATALOAD PUSH1 0xE0 SHR DUP1 PUSH4 0x6C563ABE GT PUSH2 0x58 JUMPI DUP1 PUSH4 0x6C563ABE EQ PUSH2 0x18A JUMPI DUP1 PUSH4 0x91754A5D EQ PUSH2 0x1A6 JUMPI DUP1 PUSH4 0xF0F3F2C8 EQ PUSH2 0x1CE JUMPI DUP1 PUSH4 0xF851A440 EQ PUSH2 0x20E JUMPI DUP1 PUSH4 0xFC69D836 EQ PUSH2 0x238 JUMPI PUSH2 0x90 JUMP JUMPDEST DUP1 PUSH4 0x107046BD EQ PUSH2 0x94 JUMPI DUP1 PUSH4 0x155DD5EE EQ PUSH2 0xD4 JUMPI DUP1 PUSH4 0x36FBAD26 EQ PUSH2 0xFC JUMPI DUP1 PUSH4 0x3D891F59 EQ PUSH2 0x126 JUMPI DUP1 PUSH4 0x58733DEC EQ PUSH2 0x162 JUMPI JUMPDEST PUSH0 DUP1 REVERT JUMPDEST CALLVALUE DUP1 ISZERO PUSH2 0x9F JUMPI PUSH0 DUP1 REVERT JUMPDEST POP PUSH2 0xBA PUSH1 0x4 DUP1 CALLDATASIZE SUB DUP2 ADD SWAP1 PUSH2 0xB5 SWAP2 SWAP1 PUSH2 0xDA5 JUMP JUMPDEST PUSH2 0x260 JUMP JUMPDEST PUSH1 0x40 MLOAD PUSH2 0xCB SWAP6 SWAP5 SWAP4 SWAP3 SWAP2 SWAP1 PUSH2 0xF01 JUMP JUMPDEST PUSH1 0x40 MLOAD DUP1 SWAP2 SUB SWAP1 RETURN JUMPDEST CALLVALUE DUP1 ISZERO PUSH2 0xDF JUMPI PUSH0 DUP1 REVERT JUMPDEST POP PUSH2 0xFA PUSH1 0x4 DUP1 CALLDATASIZE SUB DUP2 ADD SWAP1 PUSH2 0xF5 SWAP2 SWAP1 PUSH2 0xDA5 JUMP JUMPDEST PUSH2 0x342 JUMP JUMPDEST STOP JUMPDEST CALLVALUE DUP1 ISZERO PUSH2 0x107 JUMPI PUSH0 DUP1 REVERT JUMPDEST POP PUSH2 0x110 PUSH2 0x5E3 JUMP JUMPDEST PUSH1 0x40 MLOAD PUSH2 0x11D SWAP2 SWAP1 PUSH2 0xF59 JUMP JUMPDEST PUSH1 0x40 MLOAD DUP1 SWAP2 SUB SWAP1 RETURN JUMPDEST CALLVALUE DUP1 ISZERO PUSH2 0x131 JUMPI PUSH0 DUP1 REVERT JUMPDEST POP PUSH2 0x14C PUSH1 0x4 DUP1 CALLDATASIZE SUB DUP2 ADD SWAP1 PUSH2 0x147 SWAP2 SWAP1 PUSH2 0xFAD JUMP JUMPDEST PUSH2 0x5E9 JUMP JUMPDEST PUSH1 0x40 MLOAD PUSH2 0x159 SWAP2 SWAP1 PUSH2 0xF59 JUMP JUMPDEST PUSH1 0x40 MLOAD DUP1 SWAP2 SUB SWAP1 RETURN JUMPDEST CALLVALUE DUP1 ISZERO PUSH2 0x16D JUMPI PUSH0 DUP1 REVERT JUMPDEST POP PUSH2 0x188 PUSH1 0x4 DUP1 CALLDATASIZE SUB DUP2 ADD SWAP1 PUSH2 0x183 SWAP2 SWAP1 PUSH2 0xDA5 JUMP JUMPDEST PUSH2 0x609 JUMP JUMPDEST STOP JUMPDEST PUSH2 0x1A4 PUSH1 0x4 DUP1 CALLDATASIZE SUB DUP2 ADD SWAP1 PUSH2 0x19F SWAP2 SWAP1 PUSH2 0xDA5 JUMP JUMPDEST PUSH2 0x797 JUMP JUMPDEST STOP JUMPDEST CALLVALUE DUP1 ISZERO PUSH2 0x1B1 JUMPI PUSH0 DUP1 REVERT JUMPDEST POP PUSH2 0x1CC PUSH1 0x4 DUP1 CALLDATASIZE SUB DUP2 ADD SWAP1 PUSH2 0x1C7 SWAP2 SWAP1 PUSH2 0x1117 JUMP JUMPDEST PUSH2 0x946 JUMP JUMPDEST STOP JUMPDEST CALLVALUE DUP1 ISZERO PUSH2 0x1D9 JUMPI PUSH0 DUP1 REVERT JUMPDEST POP PUSH2 0x1F4 PUSH1 0x4 DUP1 CALLDATASIZE SUB DUP2 ADD SWAP1 PUSH2 0x1EF SWAP2 SWAP1 PUSH2 0xDA5 JUMP JUMPDEST PUSH2 0xAB6 JUMP JUMPDEST PUSH1 0x40 MLOAD PUSH2 0x205 SWAP6 SWAP5 SWAP4 SWAP3 SWAP2 SWAP1 PUSH2 0x1180 JUMP JUMPDEST PUSH1 0x40 MLOAD DUP1 SWAP2 SUB SWAP1 RETURN JUMPDEST CALLVALUE DUP1 ISZERO PUSH2 0x219 JUMPI PUSH0 DUP1 REVERT JUMPDEST POP PUSH2 0x222 PUSH2 0xBAF JUMP JUMPDEST PUSH1 0x40 MLOAD PUSH2 0x22F SWAP2 SWAP1 PUSH2 0x11D8 JUMP JUMPDEST PUSH1 0x40 MLOAD DUP1 SWAP2 SUB SWAP1 RETURN JUMPDEST CALLVALUE DUP1 ISZERO PUSH2 0x243 JUMPI PUSH0 DUP1 REVERT JUMPDEST POP PUSH2 0x25E PUSH1 0x4 DUP1 CALLDATASIZE SUB DUP2 ADD SWAP1 PUSH2 0x259 SWAP2 SWAP1 PUSH2 0xDA5 JUMP JUMPDEST PUSH2 0xBD4 JUMP JUMPDEST STOP JUMPDEST PUSH0 PUSH1 0x20 MSTORE DUP1 PUSH0 MSTORE PUSH1 0x40 PUSH0 KECCAK256 PUSH0 SWAP2 POP SWAP1 POP DUP1 PUSH0 ADD PUSH0 SWAP1 SLOAD SWAP1 PUSH2 0x100 EXP SWAP1 DIV PUSH20 0xFFFFFFFFFFFFFFFFFFFFFFFFFFFFFFFFFFFFFFFF AND SWAP1 DUP1 PUSH1 0x1 ADD DUP1 SLOAD PUSH2 0x2A3 SWAP1 PUSH2 0x121E JUMP JUMPDEST DUP1 PUSH1 0x1F ADD PUSH1 0x20 DUP1 SWAP2 DIV MUL PUSH1 0x20 ADD PUSH1 0x40 MLOAD SWAP1 DUP2 ADD PUSH1 0x40 MSTORE DUP1 SWAP3 SWAP2 SWAP1 DUP2 DUP2 MSTORE PUSH1 0x20 ADD DUP3 DUP1 SLOAD PUSH2 0x2CF SWAP1 PUSH2 0x121E JUMP JUMPDEST DUP1 ISZERO PUSH2 0x31A JUMPI DUP1 PUSH1 0x1F LT PUSH2 0x2F1 JUMPI PUSH2 0x100 DUP1 DUP4 SLOAD DIV MUL DUP4 MSTORE SWAP2 PUSH1 0x20 ADD SWAP2 PUSH2 0x31A JUMP JUMPDEST DUP3 ADD SWAP2 SWAP1 PUSH0 MSTORE PUSH1 0x20 PUSH0 KECCAK256 SWAP1 JUMPDEST DUP2 SLOAD DUP2 MSTORE SWAP1 PUSH1 0x1 ADD SWAP1 PUSH1 0x20 ADD DUP1 DUP4 GT PUSH2 0x2FD JUMPI DUP3 SWAP1 SUB PUSH1 0x1F AND DUP3 ADD SWAP2 JUMPDEST POP POP POP POP POP SWAP1 DUP1 PUSH1 0x2 ADD SLOAD SWAP1 DUP1 PUSH1 0x3 ADD SLOAD SWAP1 DUP1 PUSH1 0x4 ADD PUSH0 SWAP1 SLOAD SWAP1 PUSH2 0x100 EXP SWAP1 DIV PUSH1 0xFF AND SWAP1 POP DUP6 JUMP JUMPDEST DUP1 PUSH0 DUP1 DUP3 DUP2 MSTORE PUSH1 0x20 ADD SWAP1 DUP2 MSTORE PUSH1 0x20 ADD PUSH0 KECCAK256 PUSH0 ADD PUSH0 SWAP1 SLOAD SWAP1 PUSH2 0x100 EXP SWAP1 DIV PUSH20 0xFFFFFFFFFFFFFFFFFFFFFFFFFFFFFFFFFFFFFFFF AND PUSH20 0xFFFFFFFFFFFFFFFFFFFFFFFFFFFFFFFFFFFFFFFF AND CALLER PUSH20 0xFFFFFFFFFFFFFFFFFFFFFFFFFFFFFFFFFFFFFFFF AND EQ PUSH2 0x3E2 JUMPI PUSH1 0x40 MLOAD PUSH32 0x8C379A000000000000000000000000000000000000000000000000000000000 DUP2 MSTORE PUSH1 0x4 ADD PUSH2 0x3D9 SWAP1 PUSH2 0x12BE JUMP JUMPDEST PUSH1 0x40 MLOAD DUP1 SWAP2 SUB SWAP1 REVERT JUMPDEST DUP2 PUSH1 0x2 DUP1 PUSH1 0x3 DUP2 GT ISZERO PUSH2 0x3F8 JUMPI PUSH2 0x3F7 PUSH2 0xE8E JUMP JUMPDEST JUMPDEST PUSH0 DUP1 DUP5 DUP2 MSTORE PUSH1 0x20 ADD SWAP1 DUP2 MSTORE PUSH1 0x20 ADD PUSH0 KECCAK256 PUSH1 0x4 ADD PUSH0 SWAP1 SLOAD SWAP1 PUSH2 0x100 EXP SWAP1 DIV PUSH1 0xFF AND PUSH1 0x3 DUP2 GT ISZERO PUSH2 0x42A JUMPI PUSH2 0x429 PUSH2 0xE8E JUMP JUMPDEST JUMPDEST EQ PUSH2 0x46A JUMPI PUSH1 0x40 MLOAD PUSH32 0x8C379A000000000000000000000000000000000000000000000000000000000 DUP2 MSTORE PUSH1 0x4 ADD PUSH2 0x461 SWAP1 PUSH2 0x134C JUMP JUMPDEST PUSH1 0x40 MLOAD DUP1 SWAP2 SUB SWAP1 REVERT JUMPDEST PUSH0 DUP1 PUSH0 DUP7 DUP2 MSTORE PUSH1 0x20 ADD SWAP1 DUP2 MSTORE PUSH1 0x20 ADD PUSH0 KECCAK256 SWAP1 POP DUP1 PUSH1 0x2 ADD SLOAD DUP2 PUSH1 0x3 ADD SLOAD LT ISZERO PUSH2 0x4C8 JUMPI PUSH1 0x40 MLOAD PUSH32 0x8C379A000000000000000000000000000000000000000000000000000000000 DUP2 MSTORE PUSH1 0x4 ADD PUSH2 0x4BF SWAP1 PUSH2 0x13B4 JUMP JUMPDEST PUSH1 0x40 MLOAD DUP1 SWAP2 SUB SWAP1 REVERT JUMPDEST PUSH0 DUP2 PUSH1 0x3 ADD SLOAD SWAP1 POP PUSH0 DUP3 PUSH1 0x3 ADD DUP2 SWAP1 SSTORE POP PUSH1 0x3 DUP3 PUSH1 0x4 ADD PUSH0 PUSH2 0x100 EXP DUP2 SLOAD DUP2 PUSH1 0xFF MUL NOT AND SWAP1 DUP4 PUSH1 0x3 DUP2 GT ISZERO PUSH2 0x500 JUMPI PUSH2 0x4FF PUSH2 0xE8E JUMP JUMPDEST JUMPDEST MUL OR SWAP1 SSTORE POP DUP2 PUSH0 ADD PUSH0 SWAP1 SLOAD SWAP1 PUSH2 0x100 EXP SWAP1 DIV PUSH20 0xFFFFFFFFFFFFFFFFFFFFFFFFFFFFFFFFFFFFFFFF AND PUSH20 0xFFFFFFFFFFFFFFFFFFFFFFFFFFFFFFFFFFFFFFFF AND PUSH2 0x8FC DUP3 SWAP1 DUP2 ISZERO MUL SWAP1 PUSH1 0x40 MLOAD PUSH0 PUSH1 0x40 MLOAD DUP1 DUP4 SUB DUP2 DUP6 DUP9 DUP9 CALL SWAP4 POP POP POP POP ISZERO DUP1 ISZERO PUSH2 0x56A JUMPI RETURNDATASIZE PUSH0 DUP1 RETURNDATACOPY RETURNDATASIZE PUSH0 REVERT JUMPDEST POP PUSH32 0xD66662C0DED9E58FD31D5E44944BCFD07FFC15E6927ECC1382E7941CB7BD24C4 DUP7 DUP3 PUSH1 0x40 MLOAD PUSH2 0x59C SWAP3 SWAP2 SWAP1 PUSH2 0x13D2 JUMP JUMPDEST PUSH1 0x40 MLOAD DUP1 SWAP2 SUB SWAP1 LOG1 PUSH32 0xC6103CC0479D202218C64BBFA4DF30C34A1F97E64C85A5A441103A0766241E66 DUP7 PUSH1 0x40 MLOAD PUSH2 0x5D3 SWAP2 SWAP1 PUSH2 0xF59 JUMP JUMPDEST PUSH1 0x40 MLOAD DUP1 SWAP2 SUB SWAP1 LOG1 POP POP POP POP POP POP JUMP JUMPDEST PUSH1 0x2 SLOAD DUP2 JUMP JUMPDEST PUSH1 0x1 PUSH1 0x20 MSTORE DUP2 PUSH0 MSTORE PUSH1 0x40 PUSH0 KECCAK256 PUSH1 0x20 MSTORE DUP1 PUSH0 MSTORE PUSH1 0x40 PUSH0 KECCAK256 PUSH0 SWAP2 POP SWAP2 POP POP SLOAD DUP2 JUMP JUMPDEST PUSH1 0x3 PUSH0 SWAP1 SLOAD SWAP1 PUSH2 0x100 EXP SWAP1 DIV PUSH20 0xFFFFFFFFFFFFFFFFFFFFFFFFFFFFFFFFFFFFFFFF AND PUSH20 0xFFFFFFFFFFFFFFFFFFFFFFFFFFFFFFFFFFFFFFFF AND CALLER PUSH20 0xFFFFFFFFFFFFFFFFFFFFFFFFFFFFFFFFFFFFFFFF AND EQ PUSH2 0x698 JUMPI PUSH1 0x40 MLOAD PUSH32 0x8C379A000000000000000000000000000000000000000000000000000000000 DUP2 MSTORE PUSH1 0x4 ADD PUSH2 0x68F SWAP1 PUSH2 0x1469 JUMP JUMPDEST PUSH1 0x40 MLOAD DUP1 SWAP2 SUB SWAP1 REVERT JUMPDEST DUP1 PUSH1 0x1 DUP1 PUSH1 0x3 DUP2 GT ISZERO PUSH2 0x6AE JUMPI PUSH2 0x6AD PUSH2 0xE8E JUMP JUMPDEST JUMPDEST PUSH0 DUP1 DUP5 DUP2 MSTORE PUSH1 0x20 ADD SWAP1 DUP2 MSTORE PUSH1 0x20 ADD PUSH0 KECCAK256 PUSH1 0x4 ADD PUSH0 SWAP1 SLOAD SWAP1 PUSH2 0x100 EXP SWAP1 DIV PUSH1 0xFF AND PUSH1 0x3 DUP2 GT ISZERO PUSH2 0x6E0 JUMPI PUSH2 0x6DF PUSH2 0xE8E JUMP JUMPDEST JUMPDEST EQ PUSH2 0x720 JUMPI PUSH1 0x40 MLOAD PUSH32 0x8C379A000000000000000000000000000000000000000000000000000000000 DUP2 MSTORE PUSH1 0x4 ADD PUSH2 0x717 SWAP1 PUSH2 0x134C JUMP JUMPDEST PUSH1 0x40 MLOAD DUP1 SWAP2 SUB SWAP1 REVERT JUMPDEST PUSH1 0x2 PUSH0 DUP1 DUP6 DUP2 MSTORE PUSH1 0x20 ADD SWAP1 DUP2 MSTORE PUSH1 0x20 ADD PUSH0 KECCAK256 PUSH1 0x4 ADD PUSH0 PUSH2 0x100 EXP DUP2 SLOAD DUP2 PUSH1 0xFF MUL NOT AND SWAP1 DUP4 PUSH1 0x3 DUP2 GT ISZERO PUSH2 0x756 JUMPI PUSH2 0x755 PUSH2 0xE8E JUMP JUMPDEST JUMPDEST MUL OR SWAP1 SSTORE POP PUSH32 0x3D4E2838C2C18BF2ACCCC9E82DF8A8B76B0CA4118A6FAF7A387FD77DEC6ABA34 DUP4 PUSH1 0x40 MLOAD PUSH2 0x78A SWAP2 SWAP1 PUSH2 0xF59 JUMP JUMPDEST PUSH1 0x40 MLOAD DUP1 SWAP2 SUB SWAP1 LOG1 POP POP POP JUMP JUMPDEST DUP1 PUSH1 0x1 DUP1 PUSH1 0x3 DUP2 GT ISZERO PUSH2 0x7AD JUMPI PUSH2 0x7AC PUSH2 0xE8E JUMP JUMPDEST JUMPDEST PUSH0 DUP1 DUP5 DUP2 MSTORE PUSH1 0x20 ADD SWAP1 DUP2 MSTORE PUSH1 0x20 ADD PUSH0 KECCAK256 PUSH1 0x4 ADD PUSH0 SWAP1 SLOAD SWAP1 PUSH2 0x100 EXP SWAP1 DIV PUSH1 0xFF AND PUSH1 0x3 DUP2 GT ISZERO PUSH2 0x7DF JUMPI PUSH2 0x7DE PUSH2 0xE8E JUMP JUMPDEST JUMPDEST EQ PUSH2 0x81F JUMPI PUSH1 0x40 MLOAD PUSH32 0x8C379A000000000000000000000000000000000000000000000000000000000 DUP2 MSTORE PUSH1 0x4 ADD PUSH2 0x816 SWAP1 PUSH2 0x134C JUMP JUMPDEST PUSH1 0x40 MLOAD DUP1 SWAP2 SUB SWAP1 REVERT JUMPDEST PUSH0 CALLVALUE GT PUSH2 0x861 JUMPI PUSH1 0x40 MLOAD PUSH32 0x8C379A000000000000000000000000000000000000000000000000000000000 DUP2 MSTORE PUSH1 0x4 ADD PUSH2 0x858 SWAP1 PUSH2 0x14F7 JUMP JUMPDEST PUSH1 0x40 MLOAD DUP1 SWAP2 SUB SWAP1 REVERT JUMPDEST PUSH0 DUP1 PUSH0 DUP6 DUP2 MSTORE PUSH1 0x20 ADD SWAP1 DUP2 MSTORE PUSH1 0x20 ADD PUSH0 KECCAK256 SWAP1 POP CALLVALUE DUP2 PUSH1 0x3 ADD PUSH0 DUP3 DUP3 SLOAD PUSH2 0x887 SWAP2 SWAP1 PUSH2 0x1542 JUMP JUMPDEST SWAP3 POP POP DUP2 SWAP1 SSTORE POP CALLVALUE PUSH1 0x1 PUSH0 DUP7 DUP2 MSTORE PUSH1 0x20 ADD SWAP1 DUP2 MSTORE PUSH1 0x20 ADD PUSH0 KECCAK256 PUSH0 CALLER PUSH20 0xFFFFFFFFFFFFFFFFFFFFFFFFFFFFFFFFFFFFFFFF AND PUSH20 0xFFFFFFFFFFFFFFFFFFFFFFFFFFFFFFFFFFFFFFFF AND DUP2 MSTORE PUSH1 0x20 ADD SWAP1 DUP2 MSTORE PUSH1 0x20 ADD PUSH0 KECCAK256 PUSH0 DUP3 DUP3 SLOAD PUSH2 0x8E9 SWAP2 SWAP1 PUSH2 0x1542 JUMP JUMPDEST SWAP3 POP POP DUP2 SWAP1 SSTORE POP CALLER PUSH20 0xFFFFFFFFFFFFFFFFFFFFFFFFFFFFFFFFFFFFFFFF AND PUSH32 0xC8FCEB94D8CFAF3010A32F39DBDB0C0B361B10CDD6C7299D60376C85FF612837 DUP6 CALLVALUE PUSH1 0x40 MLOAD PUSH2 0x938 SWAP3 SWAP2 SWAP1 PUSH2 0x13D2 JUMP JUMPDEST PUSH1 0x40 MLOAD DUP1 SWAP2 SUB SWAP1 LOG2 POP POP POP POP JUMP JUMPDEST PUSH1 0x2 PUSH0 DUP2 SLOAD DUP1 SWAP3 SWAP2 SWAP1 PUSH2 0x958 SWAP1 PUSH2 0x1575 JUMP JUMPDEST SWAP2 SWAP1 POP SSTORE POP PUSH1 0x40 MLOAD DUP1 PUSH1 0xA0 ADD PUSH1 0x40 MSTORE DUP1 CALLER PUSH20 0xFFFFFFFFFFFFFFFFFFFFFFFFFFFFFFFFFFFFFFFF AND DUP2 MSTORE PUSH1 0x20 ADD DUP4 DUP2 MSTORE PUSH1 0x20 ADD DUP3 DUP2 MSTORE PUSH1 0x20 ADD PUSH0 DUP2 MSTORE PUSH1 0x20 ADD PUSH0 PUSH1 0x3 DUP2 GT ISZERO PUSH2 0x9A9 JUMPI PUSH2 0x9A8 PUSH2 0xE8E JUMP JUMPDEST JUMPDEST DUP2 MSTORE POP PUSH0 DUP1 PUSH1 0x2 SLOAD DUP2 MSTORE PUSH1 0x20 ADD SWAP1 DUP2 MSTORE PUSH1 0x20 ADD PUSH0 KECCAK256 PUSH0 DUP3 ADD MLOAD DUP2 PUSH0 ADD PUSH0 PUSH2 0x100 EXP DUP2 SLOAD DUP2 PUSH20 0xFFFFFFFFFFFFFFFFFFFFFFFFFFFFFFFFFFFFFFFF MUL NOT AND SWAP1 DUP4 PUSH20 0xFFFFFFFFFFFFFFFFFFFFFFFFFFFFFFFFFFFFFFFF AND MUL OR SWAP1 SSTORE POP PUSH1 0x20 DUP3 ADD MLOAD DUP2 PUSH1 0x1 ADD SWAP1 DUP2 PUSH2 0xA17 SWAP2 SWAP1 PUSH2 0x1759 JUMP JUMPDEST POP PUSH1 0x40 DUP3 ADD MLOAD DUP2 PUSH1 0x2 ADD SSTORE PUSH1 0x60 DUP3 ADD MLOAD DUP2 PUSH1 0x3 ADD SSTORE PUSH1 0x80 DUP3 ADD MLOAD DUP2 PUSH1 0x4 ADD PUSH0 PUSH2 0x100 EXP DUP2 SLOAD DUP2 PUSH1 0xFF MUL NOT AND SWAP1 DUP4 PUSH1 0x3 DUP2 GT ISZERO PUSH2 0xA56 JUMPI PUSH2 0xA55 PUSH2 0xE8E JUMP JUMPDEST JUMPDEST MUL OR SWAP1 SSTORE POP SWAP1 POP POP CALLER PUSH20 0xFFFFFFFFFFFFFFFFFFFFFFFFFFFFFFFFFFFFFFFF AND PUSH32 0x51D08CB6CFA640A387210FB69DF925DFB70169AE7373F8ECD40B977B0C800D9A PUSH1 0x2 SLOAD DUP5 DUP5 PUSH1 0x40 MLOAD PUSH2 0xAAA SWAP4 SWAP3 SWAP2 SWAP1 PUSH2 0x1828 JUMP JUMPDEST PUSH1 0x40 MLOAD DUP1 SWAP2 SUB SWAP1 LOG2 POP POP JUMP JUMPDEST PUSH0 PUSH1 0x60 PUSH0 DUP1 PUSH0 DUP1 PUSH0 DUP1 DUP9 DUP2 MSTORE PUSH1 0x20 ADD SWAP1 DUP2 MSTORE PUSH1 0x20 ADD PUSH0 KECCAK256 SWAP1 POP DUP1 PUSH0 ADD PUSH0 SWAP1 SLOAD SWAP1 PUSH2 0x100 EXP SWAP1 DIV PUSH20 0xFFFFFFFFFFFFFFFFFFFFFFFFFFFFFFFFFFFFFFFF AND DUP2 PUSH1 0x1 ADD DUP3 PUSH1 0x2 ADD SLOAD DUP4 PUSH1 0x3 ADD SLOAD DUP5 PUSH1 0x4 ADD PUSH0 SWAP1 SLOAD SWAP1 PUSH2 0x100 EXP SWAP1 DIV PUSH1 0xFF AND DUP4 DUP1 SLOAD PUSH2 0xB1D SWAP1 PUSH2 0x121E JUMP JUMPDEST DUP1 PUSH1 0x1F ADD PUSH1 0x20 DUP1 SWAP2 DIV MUL PUSH1 0x20 ADD PUSH1 0x40 MLOAD SWAP1 DUP2 ADD PUSH1 0x40 MSTORE DUP1 SWAP3 SWAP2 SWAP1 DUP2 DUP2 MSTORE PUSH1 0x20 ADD DUP3 DUP1 SLOAD PUSH2 0xB49 SWAP1 PUSH2 0x121E JUMP JUMPDEST DUP1 ISZERO PUSH2 0xB94 JUMPI DUP1 PUSH1 0x1F LT PUSH2 0xB6B JUMPI PUSH2 0x100 DUP1 DUP4 SLOAD DIV MUL DUP4 MSTORE SWAP2 PUSH1 0x20 ADD SWAP2 PUSH2 0xB94 JUMP JUMPDEST DUP3 ADD SWAP2 SWAP1 PUSH0 MSTORE PUSH1 0x20 PUSH0 KECCAK256 SWAP1 JUMPDEST DUP2 SLOAD DUP2 MSTORE SWAP1 PUSH1 0x1 ADD SWAP1 PUSH1 0x20 ADD DUP1 DUP4 GT PUSH2 0xB77 JUMPI DUP3 SWAP1 SUB PUSH1 0x1F AND DUP3 ADD SWAP2 JUMPDEST POP POP POP POP POP SWAP4 POP SWAP6 POP SWAP6 POP SWAP6 POP SWAP6 POP SWAP6 POP POP SWAP2 SWAP4 SWAP6 SWAP1 SWAP3 SWAP5 POP JUMP JUMPDEST PUSH1 0x3 PUSH0 SWAP1 SLOAD SWAP1 PUSH2 0x100 EXP SWAP1 DIV PUSH20 0xFFFFFFFFFFFFFFFFFFFFFFFFFFFFFFFFFFFFFFFF AND DUP2 JUMP JUMPDEST PUSH1 0x3 PUSH0 SWAP1 SLOAD SWAP1 PUSH2 0x100 EXP SWAP1 DIV PUSH20 0xFFFFFFFFFFFFFFFFFFFFFFFFFFFFFFFFFFFFFFFF AND PUSH20 0xFFFFFFFFFFFFFFFFFFFFFFFFFFFFFFFFFFFFFFFF AND CALLER PUSH20 0xFFFFFFFFFFFFFFFFFFFFFFFFFFFFFFFFFFFFFFFF AND EQ PUSH2 0xC63 JUMPI PUSH1 0x40 MLOAD PUSH32 0x8C379A000000000000000000000000000000000000000000000000000000000 DUP2 MSTORE PUSH1 0x4 ADD PUSH2 0xC5A SWAP1 PUSH2 0x1469 JUMP JUMPDEST PUSH1 0x40 MLOAD DUP1 SWAP2 SUB SWAP1 REVERT JUMPDEST DUP1 PUSH0 DUP1 PUSH1 0x3 DUP2 GT ISZERO PUSH2 0xC78 JUMPI PUSH2 0xC77 PUSH2 0xE8E JUMP JUMPDEST JUMPDEST PUSH0 DUP1 DUP5 DUP2 MSTORE PUSH1 0x20 ADD SWAP1 DUP2 MSTORE PUSH1 0x20 ADD PUSH0 KECCAK256 PUSH1 0x4 ADD PUSH0 SWAP1 SLOAD SWAP1 PUSH2 0x100 EXP SWAP1 DIV PUSH1 0xFF AND PUSH1 0x3 DUP2 GT ISZERO PUSH2 0xCAA JUMPI PUSH2 0xCA9 PUSH2 0xE8E JUMP JUMPDEST JUMPDEST EQ PUSH2 0xCEA JUMPI PUSH1 0x40 MLOAD PUSH32 0x8C379A000000000000000000000000000000000000000000000000000000000 DUP2 MSTORE PUSH1 0x4 ADD PUSH2 0xCE1 SWAP1 PUSH2 0x134C JUMP JUMPDEST PUSH1 0x40 MLOAD DUP1 SWAP2 SUB SWAP1 REVERT JUMPDEST PUSH1 0x1 PUSH0 DUP1 DUP6 DUP2 MSTORE PUSH1 0x20 ADD SWAP1 DUP2 MSTORE PUSH1 0x20 ADD PUSH0 KECCAK256 PUSH1 0x4 ADD PUSH0 PUSH2 0x100 EXP DUP2 SLOAD DUP2 PUSH1 0xFF MUL NOT AND SWAP1 DUP4 PUSH1 0x3 DUP2 GT ISZERO PUSH2 0xD20 JUMPI PUSH2 0xD1F PUSH2 0xE8E JUMP JUMPDEST JUMPDEST MUL OR SWAP1 SSTORE POP PUSH32 0xFC534544F8ED1B516BF078B4AE88509D8F81F4FAFEFB10E9AAD53E3E1FBCE9BB DUP4 PUSH1 0x40 MLOAD PUSH2 0xD54 SWAP2 SWAP1 PUSH2 0xF59 JUMP JUMPDEST PUSH1 0x40 MLOAD DUP1 SWAP2 SUB SWAP1 LOG1 POP POP POP JUMP JUMPDEST PUSH0 PUSH1 0x40 MLOAD SWAP1 POP SWAP1 JUMP JUMPDEST PUSH0 DUP1 REVERT JUMPDEST PUSH0 DUP1 REVERT JUMPDEST PUSH0 DUP2 SWAP1 POP SWAP2 SWAP1 POP JUMP JUMPDEST PUSH2 0xD84 DUP2 PUSH2 0xD72 JUMP JUMPDEST DUP2 EQ PUSH2 0xD8E JUMPI PUSH0 DUP1 REVERT JUMPDEST POP JUMP JUMPDEST PUSH0 DUP2 CALLDATALOAD SWAP1 POP PUSH2 0xD9F DUP2 PUSH2 0xD7B JUMP JUMPDEST SWAP3 SWAP2 POP POP JUMP JUMPDEST PUSH0 PUSH1 0x20 DUP3 DUP5 SUB SLT ISZERO PUSH2 0xDBA JUMPI PUSH2 0xDB9 PUSH2 0xD6A JUMP JUMPDEST JUMPDEST PUSH0 PUSH2 0xDC7 DUP5 DUP3 DUP6 ADD PUSH2 0xD91 JUMP JUMPDEST SWAP2 POP POP SWAP3 SWAP2 POP POP JUMP JUMPDEST PUSH0 PUSH20 0xFFFFFFFFFFFFFFFFFFFFFFFFFFFFFFFFFFFFFFFF DUP3 AND SWAP1 POP SWAP2 SWAP1 POP JUMP JUMPDEST PUSH0 PUSH2 0xDF9 DUP3 PUSH2 0xDD0 JUMP JUMPDEST SWAP1 POP SWAP2 SWAP1 POP JUMP JUMPDEST PUSH2 0xE09 DUP2 PUSH2 0xDEF JUMP JUMPDEST DUP3 MSTORE POP POP JUMP JUMPDEST PUSH0 DUP2 MLOAD SWAP1 POP SWAP2 SWAP1 POP JUMP JUMPDEST PUSH0 DUP3 DUP3 MSTORE PUSH1 0x20 DUP3 ADD SWAP1 POP SWAP3 SWAP2 POP POP JUMP JUMPDEST DUP3 DUP2 DUP4 MCOPY PUSH0 DUP4 DUP4 ADD MSTORE POP POP POP JUMP JUMPDEST PUSH0 PUSH1 0x1F NOT PUSH1 0x1F DUP4 ADD AND SWAP1 POP SWAP2 SWAP1 POP JUMP JUMPDEST PUSH0 PUSH2 0xE51 DUP3 PUSH2 0xE0F JUMP JUMPDEST PUSH2 0xE5B DUP2 DUP6 PUSH2 0xE19 JUMP JUMPDEST SWAP4 POP PUSH2 0xE6B DUP2 DUP6 PUSH1 0x20 DUP7 ADD PUSH2 0xE29 JUMP JUMPDEST PUSH2 0xE74 DUP2 PUSH2 0xE37 JUMP JUMPDEST DUP5 ADD SWAP2 POP POP SWAP3 SWAP2 POP POP JUMP JUMPDEST PUSH2 0xE88 DUP2 PUSH2 0xD72 JUMP JUMPDEST DUP3 MSTORE POP POP JUMP JUMPDEST PUSH32 0x4E487B7100000000000000000000000000000000000000000000000000000000 PUSH0 MSTORE PUSH1 0x21 PUSH1 0x4 MSTORE PUSH1 0x24 PUSH0 REVERT JUMPDEST PUSH1 0x4 DUP2 LT PUSH2 0xECC JUMPI PUSH2 0xECB PUSH2 0xE8E JUMP JUMPDEST JUMPDEST POP JUMP JUMPDEST PUSH0 DUP2 SWAP1 POP PUSH2 0xEDC DUP3 PUSH2 0xEBB JUMP JUMPDEST SWAP2 SWAP1 POP JUMP JUMPDEST PUSH0 PUSH2 0xEEB DUP3 PUSH2 0xECF JUMP JUMPDEST SWAP1 POP SWAP2 SWAP1 POP JUMP JUMPDEST PUSH2 0xEFB DUP2 PUSH2 0xEE1 JUMP JUMPDEST DUP3 MSTORE POP POP JUMP JUMPDEST PUSH0 PUSH1 0xA0 DUP3 ADD SWAP1 POP PUSH2 0xF14 PUSH0 DUP4 ADD DUP9 PUSH2 0xE00 JUMP JUMPDEST DUP2 DUP2 SUB PUSH1 0x20 DUP4 ADD MSTORE PUSH2 0xF26 DUP2 DUP8 PUSH2 0xE47 JUMP JUMPDEST SWAP1 POP PUSH2 0xF35 PUSH1 0x40 DUP4 ADD DUP7 PUSH2 0xE7F JUMP JUMPDEST PUSH2 0xF42 PUSH1 0x60 DUP4 ADD DUP6 PUSH2 0xE7F JUMP JUMPDEST PUSH2 0xF4F PUSH1 0x80 DUP4 ADD DUP5 PUSH2 0xEF2 JUMP JUMPDEST SWAP7 SWAP6 POP POP POP POP POP POP JUMP JUMPDEST PUSH0 PUSH1 0x20 DUP3 ADD SWAP1 POP PUSH2 0xF6C PUSH0 DUP4 ADD DUP5 PUSH2 0xE7F JUMP JUMPDEST SWAP3 SWAP2 POP POP JUMP JUMPDEST PUSH0 PUSH2 0xF7C DUP3 PUSH2 0xDD0 JUMP JUMPDEST SWAP1 POP SWAP2 SWAP1 POP JUMP JUMPDEST PUSH2 0xF8C DUP2 PUSH2 0xF72 JUMP JUMPDEST DUP2 EQ PUSH2 0xF96 JUMPI PUSH0 DUP1 REVERT JUMPDEST POP JUMP JUMPDEST PUSH0 DUP2 CALLDATALOAD SWAP1 POP PUSH2 0xFA7 DUP2 PUSH2 0xF83 JUMP JUMPDEST SWAP3 SWAP2 POP POP JUMP JUMPDEST PUSH0 DUP1 PUSH1 0x40 DUP4 DUP6 SUB SLT ISZERO PUSH2 0xFC3 JUMPI PUSH2 0xFC2 PUSH2 0xD6A JUMP JUMPDEST JUMPDEST PUSH0 PUSH2 0xFD0 DUP6 DUP3 DUP7 ADD PUSH2 0xD91 JUMP JUMPDEST SWAP3 POP POP PUSH1 0x20 PUSH2 0xFE1 DUP6 DUP3 DUP7 ADD PUSH2 0xF99 JUMP JUMPDEST SWAP2 POP POP SWAP3 POP SWAP3 SWAP1 POP JUMP JUMPDEST PUSH0 DUP1 REVERT JUMPDEST PUSH0 DUP1 REVERT JUMPDEST PUSH32 0x4E487B7100000000000000000000000000000000000000000000000000000000 PUSH0 MSTORE PUSH1 0x41 PUSH1 0x4 MSTORE PUSH1 0x24 PUSH0 REVERT JUMPDEST PUSH2 0x1029 DUP3 PUSH2 0xE37 JUMP JUMPDEST DUP2 ADD DUP2 DUP2 LT PUSH8 0xFFFFFFFFFFFFFFFF DUP3 GT OR ISZERO PUSH2 0x1048 JUMPI PUSH2 0x1047 PUSH2 0xFF3 JUMP JUMPDEST JUMPDEST DUP1 PUSH1 0x40 MSTORE POP POP POP JUMP JUMPDEST PUSH0 PUSH2 0x105A PUSH2 0xD61 JUMP JUMPDEST SWAP1 POP PUSH2 0x1066 DUP3 DUP3 PUSH2 0x1020 JUMP JUMPDEST SWAP2 SWAP1 POP JUMP JUMPDEST PUSH0 PUSH8 0xFFFFFFFFFFFFFFFF DUP3 GT ISZERO PUSH2 0x1085 JUMPI PUSH2 0x1084 PUSH2 0xFF3 JUMP JUMPDEST JUMPDEST PUSH2 0x108E DUP3 PUSH2 0xE37 JUMP JUMPDEST SWAP1 POP PUSH1 0x20 DUP2 ADD SWAP1 POP SWAP2 SWAP1 POP JUMP JUMPDEST DUP3 DUP2 DUP4 CALLDATACOPY PUSH0 DUP4 DUP4 ADD MSTORE POP POP POP JUMP JUMPDEST PUSH0 PUSH2 0x10BB PUSH2 0x10B6 DUP5 PUSH2 0x106B JUMP JUMPDEST PUSH2 0x1051 JUMP JUMPDEST SWAP1 POP DUP3 DUP2 MSTORE PUSH1 0x20 DUP2 ADD DUP5 DUP5 DUP5 ADD GT ISZERO PUSH2 0x10D7 JUMPI PUSH2 0x10D6 PUSH2 0xFEF JUMP JUMPDEST JUMPDEST PUSH2 0x10E2 DUP5 DUP3 DUP6 PUSH2 0x109B JUMP JUMPDEST POP SWAP4 SWAP3 POP POP POP JUMP JUMPDEST PUSH0 DUP3 PUSH1 0x1F DUP4 ADD SLT PUSH2 0x10FE JUMPI PUSH2 0x10FD PUSH2 0xFEB JUMP JUMPDEST JUMPDEST DUP2 CALLDATALOAD PUSH2 0x110E DUP5 DUP3 PUSH1 0x20 DUP7 ADD PUSH2 0x10A9 JUMP JUMPDEST SWAP2 POP POP SWAP3 SWAP2 POP POP JUMP JUMPDEST PUSH0 DUP1 PUSH1 0x40 DUP4 DUP6 SUB SLT ISZERO PUSH2 0x112D JUMPI PUSH2 0x112C PUSH2 0xD6A JUMP JUMPDEST JUMPDEST PUSH0 DUP4 ADD CALLDATALOAD PUSH8 0xFFFFFFFFFFFFFFFF DUP2 GT ISZERO PUSH2 0x114A JUMPI PUSH2 0x1149 PUSH2 0xD6E JUMP JUMPDEST JUMPDEST PUSH2 0x1156 DUP6 DUP3 DUP7 ADD PUSH2 0x10EA JUMP JUMPDEST SWAP3 POP POP PUSH1 0x20 PUSH2 0x1167 DUP6 DUP3 DUP7 ADD PUSH2 0xD91 JUMP JUMPDEST SWAP2 POP POP SWAP3 POP SWAP3 SWAP1 POP JUMP JUMPDEST PUSH2 0x117A DUP2 PUSH2 0xF72 JUMP JUMPDEST DUP3 MSTORE POP POP JUMP JUMPDEST PUSH0 PUSH1 0xA0 DUP3 ADD SWAP1 POP PUSH2 0x1193 PUSH0 DUP4 ADD DUP9 PUSH2 0x1171 JUMP JUMPDEST DUP2 DUP2 SUB PUSH1 0x20 DUP4 ADD MSTORE PUSH2 0x11A5 DUP2 DUP8 PUSH2 0xE47 JUMP JUMPDEST SWAP1 POP PUSH2 0x11B4 PUSH1 0x40 DUP4 ADD DUP7 PUSH2 0xE7F JUMP JUMPDEST PUSH2 0x11C1 PUSH1 0x60 DUP4 ADD DUP6 PUSH2 0xE7F JUMP JUMPDEST PUSH2 0x11CE PUSH1 0x80 DUP4 ADD DUP5 PUSH2 0xEF2 JUMP JUMPDEST SWAP7 SWAP6 POP POP POP POP POP POP JUMP JUMPDEST PUSH0 PUSH1 0x20 DUP3 ADD SWAP1 POP PUSH2 0x11EB PUSH0 DUP4 ADD DUP5 PUSH2 0x1171 JUMP JUMPDEST SWAP3 SWAP2 POP POP JUMP JUMPDEST PUSH32 0x4E487B7100000000000000000000000000000000000000000000000000000000 PUSH0 MSTORE PUSH1 0x22 PUSH1 0x4 MSTORE PUSH1 0x24 PUSH0 REVERT JUMPDEST PUSH0 PUSH1 0x2 DUP3 DIV SWAP1 POP PUSH1 0x1 DUP3 AND DUP1 PUSH2 0x1235 JUMPI PUSH1 0x7F DUP3 AND SWAP2 POP JUMPDEST PUSH1 0x20 DUP3 LT DUP2 SUB PUSH2 0x1248 JUMPI PUSH2 0x1247 PUSH2 0x11F1 JUMP JUMPDEST JUMPDEST POP SWAP2 SWAP1 POP JUMP JUMPDEST PUSH32 0x4F6E6C79207468652070726F6A656374206F776E65722063616E20706572666F PUSH0 DUP3 ADD MSTORE PUSH32 0x726D207468697320616374696F6E000000000000000000000000000000000000 PUSH1 0x20 DUP3 ADD MSTORE POP JUMP JUMPDEST PUSH0 PUSH2 0x12A8 PUSH1 0x2E DUP4 PUSH2 0xE19 JUMP JUMPDEST SWAP2 POP PUSH2 0x12B3 DUP3 PUSH2 0x124E JUMP JUMPDEST PUSH1 0x40 DUP3 ADD SWAP1 POP SWAP2 SWAP1 POP JUMP JUMPDEST PUSH0 PUSH1 0x20 DUP3 ADD SWAP1 POP DUP2 DUP2 SUB PUSH0 DUP4 ADD MSTORE PUSH2 0x12D5 DUP2 PUSH2 0x129C JUMP JUMPDEST SWAP1 POP SWAP2 SWAP1 POP JUMP JUMPDEST PUSH32 0x496E76616C69642070726F6A65637420737461746520666F7220746869732061 PUSH0 DUP3 ADD MSTORE PUSH32 0x6374696F6E000000000000000000000000000000000000000000000000000000 PUSH1 0x20 DUP3 ADD MSTORE POP JUMP JUMPDEST PUSH0 PUSH2 0x1336 PUSH1 0x25 DUP4 PUSH2 0xE19 JUMP JUMPDEST SWAP2 POP PUSH2 0x1341 DUP3 PUSH2 0x12DC JUMP JUMPDEST PUSH1 0x40 DUP3 ADD SWAP1 POP SWAP2 SWAP1 POP JUMP JUMPDEST PUSH0 PUSH1 0x20 DUP3 ADD SWAP1 POP DUP2 DUP2 SUB PUSH0 DUP4 ADD MSTORE PUSH2 0x1363 DUP2 PUSH2 0x132A JUMP JUMPDEST SWAP1 POP SWAP2 SWAP1 POP JUMP JUMPDEST PUSH32 0x46756E64696E6720676F616C206E6F7420726561636865640000000000000000 PUSH0 DUP3 ADD MSTORE POP JUMP JUMPDEST PUSH0 PUSH2 0x139E PUSH1 0x18 DUP4 PUSH2 0xE19 JUMP JUMPDEST SWAP2 POP PUSH2 0x13A9 DUP3 PUSH2 0x136A JUMP JUMPDEST PUSH1 0x20 DUP3 ADD SWAP1 POP SWAP2 SWAP1 POP JUMP JUMPDEST PUSH0 PUSH1 0x20 DUP3 ADD SWAP1 POP DUP2 DUP2 SUB PUSH0 DUP4 ADD MSTORE PUSH2 0x13CB DUP2 PUSH2 0x1392 JUMP JUMPDEST SWAP1 POP SWAP2 SWAP1 POP JUMP JUMPDEST PUSH0 PUSH1 0x40 DUP3 ADD SWAP1 POP PUSH2 0x13E5 PUSH0 DUP4 ADD DUP6 PUSH2 0xE7F JUMP JUMPDEST PUSH2 0x13F2 PUSH1 0x20 DUP4 ADD DUP5 PUSH2 0xE7F JUMP JUMPDEST SWAP4 SWAP3 POP POP POP JUMP JUMPDEST PUSH32 0x4F6E6C792061646D696E2063616E20706572666F726D20746869732061637469 PUSH0 DUP3 ADD MSTORE PUSH32 0x6F6E000000000000000000000000000000000000000000000000000000000000 PUSH1 0x20 DUP3 ADD MSTORE POP JUMP JUMPDEST PUSH0 PUSH2 0x1453 PUSH1 0x22 DUP4 PUSH2 0xE19 JUMP JUMPDEST SWAP2 POP PUSH2 0x145E DUP3 PUSH2 0x13F9 JUMP JUMPDEST PUSH1 0x40 DUP3 ADD SWAP1 POP SWAP2 SWAP1 POP JUMP JUMPDEST PUSH0 PUSH1 0x20 DUP3 ADD SWAP1 POP DUP2 DUP2 SUB PUSH0 DUP4 ADD MSTORE PUSH2 0x1480 DUP2 PUSH2 0x1447 JUMP JUMPDEST SWAP1 POP SWAP2 SWAP1 POP JUMP JUMPDEST PUSH32 0x46756E64696E6720616D6F756E74206D75737420626520677265617465722074 PUSH0 DUP3 ADD MSTORE PUSH32 0x68616E207A65726F000000000000000000000000000000000000000000000000 PUSH1 0x20 DUP3 ADD MSTORE POP JUMP JUMPDEST PUSH0 PUSH2 0x14E1 PUSH1 0x28 DUP4 PUSH2 0xE19 JUMP JUMPDEST SWAP2 POP PUSH2 0x14EC DUP3 PUSH2 0x1487 JUMP JUMPDEST PUSH1 0x40 DUP3 ADD SWAP1 POP SWAP2 SWAP1 POP JUMP JUMPDEST PUSH0 PUSH1 0x20 DUP3 ADD SWAP1 POP DUP2 DUP2 SUB PUSH0 DUP4 ADD MSTORE PUSH2 0x150E DUP2 PUSH2 0x14D5 JUMP JUMPDEST SWAP1 POP SWAP2 SWAP1 POP JUMP JUMPDEST PUSH32 0x4E487B7100000000000000000000000000000000000000000000000000000000 PUSH0 MSTORE PUSH1 0x11 PUSH1 0x4 MSTORE PUSH1 0x24 PUSH0 REVERT JUMPDEST PUSH0 PUSH2 0x154C DUP3 PUSH2 0xD72 JUMP JUMPDEST SWAP2 POP PUSH2 0x1557 DUP4 PUSH2 0xD72 JUMP JUMPDEST SWAP3 POP DUP3 DUP3 ADD SWAP1 POP DUP1 DUP3 GT ISZERO PUSH2 0x156F JUMPI PUSH2 0x156E PUSH2 0x1515 JUMP JUMPDEST JUMPDEST SWAP3 SWAP2 POP POP JUMP JUMPDEST PUSH0 PUSH2 0x157F DUP3 PUSH2 0xD72 JUMP JUMPDEST SWAP2 POP PUSH32 0xFFFFFFFFFFFFFFFFFFFFFFFFFFFFFFFFFFFFFFFFFFFFFFFFFFFFFFFFFFFFFFFF DUP3 SUB PUSH2 0x15B1 JUMPI PUSH2 0x15B0 PUSH2 0x1515 JUMP JUMPDEST JUMPDEST PUSH1 0x1 DUP3 ADD SWAP1 POP SWAP2 SWAP1 POP JUMP JUMPDEST PUSH0 DUP2 SWAP1 POP DUP2 PUSH0 MSTORE PUSH1 0x20 PUSH0 KECCAK256 SWAP1 POP SWAP2 SWAP1 POP JUMP JUMPDEST PUSH0 PUSH1 0x20 PUSH1 0x1F DUP4 ADD DIV SWAP1 POP SWAP2 SWAP1 POP JUMP JUMPDEST PUSH0 DUP3 DUP3 SHL SWAP1 POP SWAP3 SWAP2 POP POP JUMP JUMPDEST PUSH0 PUSH1 0x8 DUP4 MUL PUSH2 0x1618 PUSH32 0xFFFFFFFFFFFFFFFFFFFFFFFFFFFFFFFFFFFFFFFFFFFFFFFFFFFFFFFFFFFFFFFF DUP3 PUSH2 0x15DD JUMP JUMPDEST PUSH2 0x1622 DUP7 DUP4 PUSH2 0x15DD JUMP JUMPDEST SWAP6 POP DUP1 NOT DUP5 AND SWAP4 POP DUP1 DUP7 AND DUP5 OR SWAP3 POP POP POP SWAP4 SWAP3 POP POP POP JUMP JUMPDEST PUSH0 DUP2 SWAP1 POP SWAP2 SWAP1 POP JUMP JUMPDEST PUSH0 PUSH2 0x165D PUSH2 0x1658 PUSH2 0x1653 DUP5 PUSH2 0xD72 JUMP JUMPDEST PUSH2 0x163A JUMP JUMPDEST PUSH2 0xD72 JUMP JUMPDEST SWAP1 POP SWAP2 SWAP1 POP JUMP JUMPDEST PUSH0 DUP2 SWAP1 POP SWAP2 SWAP1 POP JUMP JUMPDEST PUSH2 0x1676 DUP4 PUSH2 0x1643 JUMP JUMPDEST PUSH2 0x168A PUSH2 0x1682 DUP3 PUSH2 0x1664 JUMP JUMPDEST DUP5 DUP5 SLOAD PUSH2 0x15E9 JUMP JUMPDEST DUP3 SSTORE POP POP POP POP JUMP JUMPDEST PUSH0 SWAP1 JUMP JUMPDEST PUSH2 0x169E PUSH2 0x1692 JUMP JUMPDEST PUSH2 0x16A9 DUP2 DUP5 DUP5 PUSH2 0x166D JUMP JUMPDEST POP POP POP JUMP JUMPDEST JUMPDEST DUP2 DUP2 LT ISZERO PUSH2 0x16CC JUMPI PUSH2 0x16C1 PUSH0 DUP3 PUSH2 0x1696 JUMP JUMPDEST PUSH1 0x1 DUP2 ADD SWAP1 POP PUSH2 0x16AF JUMP JUMPDEST POP POP JUMP JUMPDEST PUSH1 0x1F DUP3 GT ISZERO PUSH2 0x1711 JUMPI PUSH2 0x16E2 DUP2 PUSH2 0x15BC JUMP JUMPDEST PUSH2 0x16EB DUP5 PUSH2 0x15CE JUMP JUMPDEST DUP2 ADD PUSH1 0x20 DUP6 LT ISZERO PUSH2 0x16FA JUMPI DUP2 SWAP1 POP JUMPDEST PUSH2 0x170E PUSH2 0x1706 DUP6 PUSH2 0x15CE JUMP JUMPDEST DUP4 ADD DUP3 PUSH2 0x16AE JUMP JUMPDEST POP POP JUMPDEST POP POP POP JUMP JUMPDEST PUSH0 DUP3 DUP3 SHR SWAP1 POP SWAP3 SWAP2 POP POP JUMP JUMPDEST PUSH0 PUSH2 0x1731 PUSH0 NOT DUP5 PUSH1 0x8 MUL PUSH2 0x1716 JUMP JUMPDEST NOT DUP1 DUP4 AND SWAP2 POP POP SWAP3 SWAP2 POP POP JUMP JUMPDEST PUSH0 PUSH2 0x1749 DUP4 DUP4 PUSH2 0x1722 JUMP JUMPDEST SWAP2 POP DUP3 PUSH1 0x2 MUL DUP3 OR SWAP1 POP SWAP3 SWAP2 POP POP JUMP JUMPDEST PUSH2 0x1762 DUP3 PUSH2 0xE0F JUMP JUMPDEST PUSH8 0xFFFFFFFFFFFFFFFF DUP2 GT ISZERO PUSH2 0x177B JUMPI PUSH2 0x177A PUSH2 0xFF3 JUMP JUMPDEST JUMPDEST PUSH2 0x1785 DUP3 SLOAD PUSH2 0x121E JUMP JUMPDEST PUSH2 0x1790 DUP3 DUP3 DUP6 PUSH2 0x16D0 JUMP JUMPDEST PUSH0 PUSH1 0x20 SWAP1 POP PUSH1 0x1F DUP4 GT PUSH1 0x1 DUP2 EQ PUSH2 0x17C1 JUMPI PUSH0 DUP5 ISZERO PUSH2 0x17AF JUMPI DUP3 DUP8 ADD MLOAD SWAP1 POP JUMPDEST PUSH2 0x17B9 DUP6 DUP3 PUSH2 0x173E JUMP JUMPDEST DUP7 SSTORE POP PUSH2 0x1820 JUMP JUMPDEST PUSH1 0x1F NOT DUP5 AND PUSH2 0x17CF DUP7 PUSH2 0x15BC JUMP JUMPDEST PUSH0 JUMPDEST DUP3 DUP2 LT ISZERO PUSH2 0x17F6 JUMPI DUP5 DUP10 ADD MLOAD DUP3 SSTORE PUSH1 0x1 DUP3 ADD SWAP2 POP PUSH1 0x20 DUP6 ADD SWAP5 POP PUSH1 0x20 DUP2 ADD SWAP1 POP PUSH2 0x17D1 JUMP JUMPDEST DUP7 DUP4 LT ISZERO PUSH2 0x1813 JUMPI DUP5 DUP10 ADD MLOAD PUSH2 0x180F PUSH1 0x1F DUP10 AND DUP3 PUSH2 0x1722 JUMP JUMPDEST DUP4 SSTORE POP JUMPDEST PUSH1 0x1 PUSH1 0x2 DUP9 MUL ADD DUP9 SSTORE POP POP POP JUMPDEST POP POP POP POP POP POP JUMP JUMPDEST PUSH0 PUSH1 0x60 DUP3 ADD SWAP1 POP PUSH2 0x183B PUSH0 DUP4 ADD DUP7 PUSH2 0xE7F JUMP JUMPDEST DUP2 DUP2 SUB PUSH1 0x20 DUP4 ADD MSTORE PUSH2 0x184D DUP2 DUP6 PUSH2 0xE47 JUMP JUMPDEST SWAP1 POP PUSH2 0x185C PUSH1 0x40 DUP4 ADD DUP5 PUSH2 0xE7F JUMP JUMPDEST SWAP5 SWAP4 POP POP POP POP JUMP INVALID LOG2 PUSH5 0x6970667358 0x22 SLT KECCAK256 BYTE 0xD7 CALLDATASIZE PUSH20 0x354321D70FE68284088A99E8EC6D0DB4BAF5A017 GT SWAP8 SHR PUSH14 0xDD11666964736F6C634300081A00 CALLER "
				},
				"gasEstimates": {
					"creation": {
						"codeDepositCost": "1259600",
						"executionCost": "25571",
						"totalCost": "1285171"
					},
					"external": {
						"admin()": "2574",
						"approveProject(uint256)": "infinite",
						"closeFundingPeriod(uint256)": "infinite",
						"contributions(uint256,address)": "infinite",
						"createProject(string,uint256)": "infinite",
						"fundProject(uint256)": "infinite",
						"getProject(uint256)": "infinite",
						"projectCount()": "2470",
						"projects(uint256)": "infinite",
						"withdrawFunds(uint256)": "infinite"
					}
				},
				"methodIdentifiers": {
					"admin()": "f851a440",
					"approveProject(uint256)": "fc69d836",
					"closeFundingPeriod(uint256)": "58733dec",
					"contributions(uint256,address)": "3d891f59",
					"createProject(string,uint256)": "91754a5d",
					"fundProject(uint256)": "6c563abe",
					"getProject(uint256)": "f0f3f2c8",
					"projectCount()": "36fbad26",
					"projects(uint256)": "107046bd",
					"withdrawFunds(uint256)": "155dd5ee"
				}
			},
			"storageLayout": {
				"storage": [
					{
						"astId": 23,
						"contract": "contracts/SmartContractLockeyDoge-Funding.sol:LockyDogeFunding",
						"label": "projects",
						"offset": 0,
						"slot": "0",
						"type": "t_mapping(t_uint256,t_struct(Project)18_storage)"
					},
					{
						"astId": 29,
						"contract": "contracts/SmartContractLockeyDoge-Funding.sol:LockyDogeFunding",
						"label": "contributions",
						"offset": 0,
						"slot": "1",
						"type": "t_mapping(t_uint256,t_mapping(t_address,t_uint256))"
					},
					{
						"astId": 31,
						"contract": "contracts/SmartContractLockeyDoge-Funding.sol:LockyDogeFunding",
						"label": "projectCount",
						"offset": 0,
						"slot": "2",
						"type": "t_uint256"
					},
					{
						"astId": 33,
						"contract": "contracts/SmartContractLockeyDoge-Funding.sol:LockyDogeFunding",
						"label": "admin",
						"offset": 0,
						"slot": "3",
						"type": "t_address"
					}
				],
				"types": {
					"t_address": {
						"encoding": "inplace",
						"label": "address",
						"numberOfBytes": "20"
					},
					"t_address_payable": {
						"encoding": "inplace",
						"label": "address payable",
						"numberOfBytes": "20"
					},
					"t_enum(ProjectState)6": {
						"encoding": "inplace",
						"label": "enum LockyDogeFunding.ProjectState",
						"numberOfBytes": "1"
					},
					"t_mapping(t_address,t_uint256)": {
						"encoding": "mapping",
						"key": "t_address",
						"label": "mapping(address => uint256)",
						"numberOfBytes": "32",
						"value": "t_uint256"
					},
					"t_mapping(t_uint256,t_mapping(t_address,t_uint256))": {
						"encoding": "mapping",
						"key": "t_uint256",
						"label": "mapping(uint256 => mapping(address => uint256))",
						"numberOfBytes": "32",
						"value": "t_mapping(t_address,t_uint256)"
					},
					"t_mapping(t_uint256,t_struct(Project)18_storage)": {
						"encoding": "mapping",
						"key": "t_uint256",
						"label": "mapping(uint256 => struct LockyDogeFunding.Project)",
						"numberOfBytes": "32",
						"value": "t_struct(Project)18_storage"
					},
					"t_string_storage": {
						"encoding": "bytes",
						"label": "string",
						"numberOfBytes": "32"
					},
					"t_struct(Project)18_storage": {
						"encoding": "inplace",
						"label": "struct LockyDogeFunding.Project",
						"members": [
							{
								"astId": 8,
								"contract": "contracts/SmartContractLockeyDoge-Funding.sol:LockyDogeFunding",
								"label": "owner",
								"offset": 0,
								"slot": "0",
								"type": "t_address_payable"
							},
							{
								"astId": 10,
								"contract": "contracts/SmartContractLockeyDoge-Funding.sol:LockyDogeFunding",
								"label": "description",
								"offset": 0,
								"slot": "1",
								"type": "t_string_storage"
							},
							{
								"astId": 12,
								"contract": "contracts/SmartContractLockeyDoge-Funding.sol:LockyDogeFunding",
								"label": "fundingGoal",
								"offset": 0,
								"slot": "2",
								"type": "t_uint256"
							},
							{
								"astId": 14,
								"contract": "contracts/SmartContractLockeyDoge-Funding.sol:LockyDogeFunding",
								"label": "amountRaised",
								"offset": 0,
								"slot": "3",
								"type": "t_uint256"
							},
							{
								"astId": 17,
								"contract": "contracts/SmartContractLockeyDoge-Funding.sol:LockyDogeFunding",
								"label": "state",
								"offset": 0,
								"slot": "4",
								"type": "t_enum(ProjectState)6"
							}
						],
						"numberOfBytes": "160"
					},
					"t_uint256": {
						"encoding": "inplace",
						"label": "uint256",
						"numberOfBytes": "32"
					}
				}
			},
			"userdoc": {
				"kind": "user",
				"methods": {},
				"version": 1
			}
		}
	}
}