{
	"contracts/bagibagimario.sol": {
		"EtherGiveaway": {
			"abi": [
				{
					"inputs": [],
					"stateMutability": "nonpayable",
					"type": "constructor"
				},
				{
					"anonymous": false,
					"inputs": [
						{
							"indexed": true,
							"internalType": "address",
							"name": "donor",
							"type": "address"
						},
						{
							"indexed": false,
							"internalType": "uint256",
							"name": "amount",
							"type": "uint256"
						},
						{
							"indexed": false,
							"internalType": "uint256",
							"name": "couponId",
							"type": "uint256"
						}
					],
					"name": "EtherDonated",
					"type": "event"
				},
				{
					"anonymous": false,
					"inputs": [
						{
							"indexed": false,
							"internalType": "uint256",
							"name": "couponId",
							"type": "uint256"
						},
						{
							"indexed": true,
							"internalType": "address",
							"name": "winner",
							"type": "address"
						}
					],
					"name": "WinnerSelected",
					"type": "event"
				},
				{
					"inputs": [],
					"name": "admin",
					"outputs": [
						{
							"internalType": "address",
							"name": "",
							"type": "address"
						}
					],
					"stateMutability": "view",
					"type": "function"
				},
				{
					"inputs": [
						{
							"internalType": "uint256",
							"name": "",
							"type": "uint256"
						}
					],
					"name": "couponBook",
					"outputs": [
						{
							"internalType": "address",
							"name": "donor",
							"type": "address"
						},
						{
							"internalType": "uint256",
							"name": "etherAmount",
							"type": "uint256"
						},
						{
							"internalType": "address",
							"name": "winner",
							"type": "address"
						},
						{
							"internalType": "bool",
							"name": "isClaimed",
							"type": "bool"
						}
					],
					"stateMutability": "view",
					"type": "function"
				},
				{
					"inputs": [],
					"name": "createDonation",
					"outputs": [],
					"stateMutability": "payable",
					"type": "function"
				},
				{
					"inputs": [
						{
							"internalType": "uint256",
							"name": "couponId",
							"type": "uint256"
						}
					],
					"name": "redeemCoupon",
					"outputs": [],
					"stateMutability": "nonpayable",
					"type": "function"
				},
				{
					"inputs": [
						{
							"internalType": "uint256",
							"name": "couponId",
							"type": "uint256"
						},
						{
							"internalType": "address",
							"name": "winnerAddress",
							"type": "address"
						}
					],
					"name": "selectWinner",
					"outputs": [],
					"stateMutability": "nonpayable",
					"type": "function"
				},
				{
					"inputs": [],
					"name": "totalCoupons",
					"outputs": [
						{
							"internalType": "uint256",
							"name": "",
							"type": "uint256"
						}
					],
					"stateMutability": "view",
					"type": "function"
				},
				{
					"inputs": [
						{
							"internalType": "uint256",
							"name": "couponId",
							"type": "uint256"
						}
					],
					"name": "viewCoupon",
					"outputs": [
						{
							"internalType": "address",
							"name": "",
							"type": "address"
						},
						{
							"internalType": "uint256",
							"name": "",
							"type": "uint256"
						},
						{
							"internalType": "address",
							"name": "",
							"type": "address"
						},
						{
							"internalType": "bool",
							"name": "",
							"type": "bool"
						}
					],
					"stateMutability": "view",
					"type": "function"
				}
			],
			"devdoc": {
				"kind": "dev",
				"methods": {},
				"version": 1
			},
			"evm": {
				"assembly": "    /* \"contracts/bagibagimario.sol\":60:2992  contract EtherGiveaway {... */\n  mstore(0x40, 0x80)\n    /* \"contracts/bagibagimario.sol\":147:148  0 */\n  0x00\n    /* \"contracts/bagibagimario.sol\":117:148  uint256 public totalCoupons = 0 */\n  0x01\n  sstore\n    /* \"contracts/bagibagimario.sol\":1065:1116  constructor() {... */\n  callvalue\n  dup1\n  iszero\n  tag_1\n  jumpi\n  0x00\n  dup1\n  revert\ntag_1:\n  pop\n    /* \"contracts/bagibagimario.sol\":1098:1108  msg.sender */\n  caller\n    /* \"contracts/bagibagimario.sol\":1090:1095  admin */\n  0x00\n  dup1\n    /* \"contracts/bagibagimario.sol\":1090:1108  admin = msg.sender */\n  0x0100\n  exp\n  dup2\n  sload\n  dup2\n  0xffffffffffffffffffffffffffffffffffffffff\n  mul\n  not\n  and\n  swap1\n  dup4\n  0xffffffffffffffffffffffffffffffffffffffff\n  and\n  mul\n  or\n  swap1\n  sstore\n  pop\n    /* \"contracts/bagibagimario.sol\":60:2992  contract EtherGiveaway {... */\n  dataSize(sub_0)\n  dup1\n  dataOffset(sub_0)\n  0x00\n  codecopy\n  0x00\n  return\nstop\n\nsub_0: assembly {\n        /* \"contracts/bagibagimario.sol\":60:2992  contract EtherGiveaway {... */\n      mstore(0x40, 0x80)\n      jumpi(tag_1, lt(calldatasize, 0x04))\n      shr(0xe0, calldataload(0x00))\n      dup1\n      0x9a649edc\n      gt\n      tag_9\n      jumpi\n      dup1\n      0x9a649edc\n      eq\n      tag_5\n      jumpi\n      dup1\n      0xa00147fa\n      eq\n      tag_6\n      jumpi\n      dup1\n      0xab4de606\n      eq\n      tag_7\n      jumpi\n      dup1\n      0xf851a440\n      eq\n      tag_8\n      jumpi\n      jump(tag_1)\n    tag_9:\n      dup1\n      0x08196a9e\n      eq\n      tag_2\n      jumpi\n      dup1\n      0x4ffab34b\n      eq\n      tag_3\n      jumpi\n      dup1\n      0x68876c7b\n      eq\n      tag_4\n      jumpi\n    tag_1:\n      0x00\n      dup1\n      revert\n        /* \"contracts/bagibagimario.sol\":1188:1643  function createDonation() external payable {... */\n    tag_2:\n      tag_10\n      tag_11\n      jump\t// in\n    tag_10:\n      stop\n        /* \"contracts/bagibagimario.sol\":2152:2615  function redeemCoupon(uint256 couponId) external isWinner(couponId) {... */\n    tag_3:\n      callvalue\n      dup1\n      iszero\n      tag_12\n      jumpi\n      0x00\n      dup1\n      revert\n    tag_12:\n      pop\n      tag_13\n      0x04\n      dup1\n      calldatasize\n      sub\n      dup2\n      add\n      swap1\n      tag_14\n      swap2\n      swap1\n      tag_15\n      jump\t// in\n    tag_14:\n      tag_16\n      jump\t// in\n    tag_13:\n      stop\n        /* \"contracts/bagibagimario.sol\":2676:2989  function viewCoupon(uint256 couponId) external view returns (address, uint256, address, bool) {... */\n    tag_4:\n      callvalue\n      dup1\n      iszero\n      tag_17\n      jumpi\n      0x00\n      dup1\n      revert\n    tag_17:\n      pop\n      tag_18\n      0x04\n      dup1\n      calldatasize\n      sub\n      dup2\n      add\n      swap1\n      tag_19\n      swap2\n      swap1\n      tag_15\n      jump\t// in\n    tag_19:\n      tag_20\n      jump\t// in\n    tag_18:\n      mload(0x40)\n      tag_21\n      swap5\n      swap4\n      swap3\n      swap2\n      swap1\n      tag_22\n      jump\t// in\n    tag_21:\n      mload(0x40)\n      dup1\n      swap2\n      sub\n      swap1\n      return\n        /* \"contracts/bagibagimario.sol\":117:148  uint256 public totalCoupons = 0 */\n    tag_5:\n      callvalue\n      dup1\n      iszero\n      tag_23\n      jumpi\n      0x00\n      dup1\n      revert\n    tag_23:\n      pop\n      tag_24\n      tag_25\n      jump\t// in\n    tag_24:\n      mload(0x40)\n      tag_26\n      swap2\n      swap1\n      tag_27\n      jump\t// in\n    tag_26:\n      mload(0x40)\n      dup1\n      swap2\n      sub\n      swap1\n      return\n        /* \"contracts/bagibagimario.sol\":967:1019  mapping(uint256 => GiveawayCoupon) public couponBook */\n    tag_6:\n      callvalue\n      dup1\n      iszero\n      tag_28\n      jumpi\n      0x00\n      dup1\n      revert\n    tag_28:\n      pop\n      tag_29\n      0x04\n      dup1\n      calldatasize\n      sub\n      dup2\n      add\n      swap1\n      tag_30\n      swap2\n      swap1\n      tag_15\n      jump\t// in\n    tag_30:\n      tag_31\n      jump\t// in\n    tag_29:\n      mload(0x40)\n      tag_32\n      swap5\n      swap4\n      swap3\n      swap2\n      swap1\n      tag_22\n      jump\t// in\n    tag_32:\n      mload(0x40)\n      dup1\n      swap2\n      sub\n      swap1\n      return\n        /* \"contracts/bagibagimario.sol\":1715:2077  function selectWinner(uint256 couponId, address winnerAddress) external onlyAdmin {... */\n    tag_7:\n      callvalue\n      dup1\n      iszero\n      tag_33\n      jumpi\n      0x00\n      dup1\n      revert\n    tag_33:\n      pop\n      tag_34\n      0x04\n      dup1\n      calldatasize\n      sub\n      dup2\n      add\n      swap1\n      tag_35\n      swap2\n      swap1\n      tag_36\n      jump\t// in\n    tag_35:\n      tag_37\n      jump\t// in\n    tag_34:\n      stop\n        /* \"contracts/bagibagimario.sol\":90:110  address public admin */\n    tag_8:\n      callvalue\n      dup1\n      iszero\n      tag_38\n      jumpi\n      0x00\n      dup1\n      revert\n    tag_38:\n      pop\n      tag_39\n      tag_40\n      jump\t// in\n    tag_39:\n      mload(0x40)\n      tag_41\n      swap2\n      swap1\n      tag_42\n      jump\t// in\n    tag_41:\n      mload(0x40)\n      dup1\n      swap2\n      sub\n      swap1\n      return\n        /* \"contracts/bagibagimario.sol\":1188:1643  function createDonation() external payable {... */\n    tag_11:\n        /* \"contracts/bagibagimario.sol\":1262:1263  0 */\n      0x00\n        /* \"contracts/bagibagimario.sol\":1250:1259  msg.value */\n      callvalue\n        /* \"contracts/bagibagimario.sol\":1250:1263  msg.value > 0 */\n      gt\n        /* \"contracts/bagibagimario.sol\":1242:1302  require(msg.value > 0, \"Donation must be greater than zero\") */\n      tag_44\n      jumpi\n      mload(0x40)\n      0x08c379a000000000000000000000000000000000000000000000000000000000\n      dup2\n      mstore\n      0x04\n      add\n      tag_45\n      swap1\n      tag_46\n      jump\t// in\n    tag_45:\n      mload(0x40)\n      dup1\n      swap2\n      sub\n      swap1\n      revert\n    tag_44:\n        /* \"contracts/bagibagimario.sol\":1383:1543  GiveawayCoupon({... */\n      mload(0x40)\n      dup1\n      0x80\n      add\n      0x40\n      mstore\n      dup1\n        /* \"contracts/bagibagimario.sol\":1420:1430  msg.sender */\n      caller\n        /* \"contracts/bagibagimario.sol\":1383:1543  GiveawayCoupon({... */\n      0xffffffffffffffffffffffffffffffffffffffff\n      and\n      dup2\n      mstore\n      0x20\n      add\n        /* \"contracts/bagibagimario.sol\":1458:1467  msg.value */\n      callvalue\n        /* \"contracts/bagibagimario.sol\":1383:1543  GiveawayCoupon({... */\n      dup2\n      mstore\n      0x20\n      add\n        /* \"contracts/bagibagimario.sol\":1498:1499  0 */\n      0x00\n        /* \"contracts/bagibagimario.sol\":1383:1543  GiveawayCoupon({... */\n      0xffffffffffffffffffffffffffffffffffffffff\n      and\n      dup2\n      mstore\n      0x20\n      add\n        /* \"contracts/bagibagimario.sol\":1526:1531  false */\n      0x00\n        /* \"contracts/bagibagimario.sol\":1383:1543  GiveawayCoupon({... */\n      iszero\n      iszero\n      dup2\n      mstore\n      pop\n        /* \"contracts/bagibagimario.sol\":1356:1366  couponBook */\n      0x02\n        /* \"contracts/bagibagimario.sol\":1356:1380  couponBook[totalCoupons] */\n      0x00\n        /* \"contracts/bagibagimario.sol\":1367:1379  totalCoupons */\n      sload(0x01)\n        /* \"contracts/bagibagimario.sol\":1356:1380  couponBook[totalCoupons] */\n      dup2\n      mstore\n      0x20\n      add\n      swap1\n      dup2\n      mstore\n      0x20\n      add\n      0x00\n      keccak256\n        /* \"contracts/bagibagimario.sol\":1356:1543  couponBook[totalCoupons] = GiveawayCoupon({... */\n      0x00\n      dup3\n      add\n      mload\n      dup2\n      0x00\n      add\n      exp(0x0100, 0x00)\n      dup2\n      sload\n      dup2\n      0xffffffffffffffffffffffffffffffffffffffff\n      mul\n      not\n      and\n      swap1\n      dup4\n      0xffffffffffffffffffffffffffffffffffffffff\n      and\n      mul\n      or\n      swap1\n      sstore\n      pop\n      0x20\n      dup3\n      add\n      mload\n      dup2\n      0x01\n      add\n      sstore\n      0x40\n      dup3\n      add\n      mload\n      dup2\n      0x02\n      add\n      exp(0x0100, 0x00)\n      dup2\n      sload\n      dup2\n      0xffffffffffffffffffffffffffffffffffffffff\n      mul\n      not\n      and\n      swap1\n      dup4\n      0xffffffffffffffffffffffffffffffffffffffff\n      and\n      mul\n      or\n      swap1\n      sstore\n      pop\n      0x60\n      dup3\n      add\n      mload\n      dup2\n      0x02\n      add\n      exp(0x0100, 0x14)\n      dup2\n      sload\n      dup2\n      0xff\n      mul\n      not\n      and\n      swap1\n      dup4\n      iszero\n      iszero\n      mul\n      or\n      swap1\n      sstore\n      pop\n      swap1\n      pop\n      pop\n        /* \"contracts/bagibagimario.sol\":1574:1584  msg.sender */\n      caller\n        /* \"contracts/bagibagimario.sol\":1561:1610  EtherDonated(msg.sender, msg.value, totalCoupons) */\n      0xffffffffffffffffffffffffffffffffffffffff\n      and\n      0x102b1c022315b4acb695ae32c8540b78f97ed01bbd6b8664d58e767144fe24bd\n        /* \"contracts/bagibagimario.sol\":1586:1595  msg.value */\n      callvalue\n        /* \"contracts/bagibagimario.sol\":1597:1609  totalCoupons */\n      sload(0x01)\n        /* \"contracts/bagibagimario.sol\":1561:1610  EtherDonated(msg.sender, msg.value, totalCoupons) */\n      mload(0x40)\n      tag_47\n      swap3\n      swap2\n      swap1\n      tag_48\n      jump\t// in\n    tag_47:\n      mload(0x40)\n      dup1\n      swap2\n      sub\n      swap1\n      log2\n        /* \"contracts/bagibagimario.sol\":1621:1633  totalCoupons */\n      0x01\n      0x00\n        /* \"contracts/bagibagimario.sol\":1621:1635  totalCoupons++ */\n      dup2\n      sload\n      dup1\n      swap3\n      swap2\n      swap1\n      tag_49\n      swap1\n      tag_50\n      jump\t// in\n    tag_49:\n      swap2\n      swap1\n      pop\n      sstore\n      pop\n        /* \"contracts/bagibagimario.sol\":1188:1643  function createDonation() external payable {... */\n      jump\t// out\n        /* \"contracts/bagibagimario.sol\":2152:2615  function redeemCoupon(uint256 couponId) external isWinner(couponId) {... */\n    tag_16:\n        /* \"contracts/bagibagimario.sol\":2210:2218  couponId */\n      dup1\n        /* \"contracts/bagibagimario.sol\":473:483  msg.sender */\n      caller\n        /* \"contracts/bagibagimario.sol\":442:483  couponBook[couponId].winner == msg.sender */\n      0xffffffffffffffffffffffffffffffffffffffff\n      and\n        /* \"contracts/bagibagimario.sol\":442:452  couponBook */\n      0x02\n        /* \"contracts/bagibagimario.sol\":442:462  couponBook[couponId] */\n      0x00\n        /* \"contracts/bagibagimario.sol\":453:461  couponId */\n      dup4\n        /* \"contracts/bagibagimario.sol\":442:462  couponBook[couponId] */\n      dup2\n      mstore\n      0x20\n      add\n      swap1\n      dup2\n      mstore\n      0x20\n      add\n      0x00\n      keccak256\n        /* \"contracts/bagibagimario.sol\":442:469  couponBook[couponId].winner */\n      0x02\n      add\n      0x00\n      swap1\n      sload\n      swap1\n      0x0100\n      exp\n      swap1\n      div\n      0xffffffffffffffffffffffffffffffffffffffff\n      and\n        /* \"contracts/bagibagimario.sol\":442:483  couponBook[couponId].winner == msg.sender */\n      0xffffffffffffffffffffffffffffffffffffffff\n      and\n      eq\n        /* \"contracts/bagibagimario.sol\":434:521  require(couponBook[couponId].winner == msg.sender, \"Caller is not the assigned winner\") */\n      tag_52\n      jumpi\n      mload(0x40)\n      0x08c379a000000000000000000000000000000000000000000000000000000000\n      dup2\n      mstore\n      0x04\n      add\n      tag_53\n      swap1\n      tag_54\n      jump\t// in\n    tag_53:\n      mload(0x40)\n      dup1\n      swap2\n      sub\n      swap1\n      revert\n    tag_52:\n        /* \"contracts/bagibagimario.sol\":2250:2262  totalCoupons */\n      sload(0x01)\n        /* \"contracts/bagibagimario.sol\":2239:2247  couponId */\n      dup3\n        /* \"contracts/bagibagimario.sol\":2239:2262  couponId < totalCoupons */\n      lt\n        /* \"contracts/bagibagimario.sol\":2231:2284  require(couponId < totalCoupons, \"Invalid coupon ID\") */\n      tag_56\n      jumpi\n      mload(0x40)\n      0x08c379a000000000000000000000000000000000000000000000000000000000\n      dup2\n      mstore\n      0x04\n      add\n      tag_57\n      swap1\n      tag_58\n      jump\t// in\n    tag_57:\n      mload(0x40)\n      dup1\n      swap2\n      sub\n      swap1\n      revert\n    tag_56:\n        /* \"contracts/bagibagimario.sol\":2304:2314  couponBook */\n      0x02\n        /* \"contracts/bagibagimario.sol\":2304:2324  couponBook[couponId] */\n      0x00\n        /* \"contracts/bagibagimario.sol\":2315:2323  couponId */\n      dup4\n        /* \"contracts/bagibagimario.sol\":2304:2324  couponBook[couponId] */\n      dup2\n      mstore\n      0x20\n      add\n      swap1\n      dup2\n      mstore\n      0x20\n      add\n      0x00\n      keccak256\n        /* \"contracts/bagibagimario.sol\":2304:2334  couponBook[couponId].isClaimed */\n      0x02\n      add\n      0x14\n      swap1\n      sload\n      swap1\n      0x0100\n      exp\n      swap1\n      div\n      0xff\n      and\n        /* \"contracts/bagibagimario.sol\":2303:2334  !couponBook[couponId].isClaimed */\n      iszero\n        /* \"contracts/bagibagimario.sol\":2295:2375  require(!couponBook[couponId].isClaimed, \"This coupon has already been claimed\") */\n      tag_59\n      jumpi\n      mload(0x40)\n      0x08c379a000000000000000000000000000000000000000000000000000000000\n      dup2\n      mstore\n      0x04\n      add\n      tag_60\n      swap1\n      tag_61\n      jump\t// in\n    tag_60:\n      mload(0x40)\n      dup1\n      swap2\n      sub\n      swap1\n      revert\n    tag_59:\n        /* \"contracts/bagibagimario.sol\":2388:2407  uint256 prizeAmount */\n      0x00\n        /* \"contracts/bagibagimario.sol\":2410:2420  couponBook */\n      0x02\n        /* \"contracts/bagibagimario.sol\":2410:2430  couponBook[couponId] */\n      0x00\n        /* \"contracts/bagibagimario.sol\":2421:2429  couponId */\n      dup5\n        /* \"contracts/bagibagimario.sol\":2410:2430  couponBook[couponId] */\n      dup2\n      mstore\n      0x20\n      add\n      swap1\n      dup2\n      mstore\n      0x20\n      add\n      0x00\n      keccak256\n        /* \"contracts/bagibagimario.sol\":2410:2442  couponBook[couponId].etherAmount */\n      0x01\n      add\n      sload\n        /* \"contracts/bagibagimario.sol\":2388:2442  uint256 prizeAmount = couponBook[couponId].etherAmount */\n      swap1\n      pop\n        /* \"contracts/bagibagimario.sol\":2486:2490  true */\n      0x01\n        /* \"contracts/bagibagimario.sol\":2453:2463  couponBook */\n      0x02\n        /* \"contracts/bagibagimario.sol\":2453:2473  couponBook[couponId] */\n      0x00\n        /* \"contracts/bagibagimario.sol\":2464:2472  couponId */\n      dup6\n        /* \"contracts/bagibagimario.sol\":2453:2473  couponBook[couponId] */\n      dup2\n      mstore\n      0x20\n      add\n      swap1\n      dup2\n      mstore\n      0x20\n      add\n      0x00\n      keccak256\n        /* \"contracts/bagibagimario.sol\":2453:2483  couponBook[couponId].isClaimed */\n      0x02\n      add\n      0x14\n        /* \"contracts/bagibagimario.sol\":2453:2490  couponBook[couponId].isClaimed = true */\n      0x0100\n      exp\n      dup2\n      sload\n      dup2\n      0xff\n      mul\n      not\n      and\n      swap1\n      dup4\n      iszero\n      iszero\n      mul\n      or\n      swap1\n      sstore\n      pop\n        /* \"contracts/bagibagimario.sol\":2504:2513  bool sent */\n      0x00\n        /* \"contracts/bagibagimario.sol\":2519:2529  msg.sender */\n      caller\n        /* \"contracts/bagibagimario.sol\":2519:2534  msg.sender.call */\n      0xffffffffffffffffffffffffffffffffffffffff\n      and\n        /* \"contracts/bagibagimario.sol\":2542:2553  prizeAmount */\n      dup3\n        /* \"contracts/bagibagimario.sol\":2519:2558  msg.sender.call{value: prizeAmount}(\"\") */\n      mload(0x40)\n      tag_62\n      swap1\n      tag_63\n      jump\t// in\n    tag_62:\n      0x00\n      mload(0x40)\n      dup1\n      dup4\n      sub\n      dup2\n      dup6\n      dup8\n      gas\n      call\n      swap3\n      pop\n      pop\n      pop\n      returndatasize\n      dup1\n      0x00\n      dup2\n      eq\n      tag_66\n      jumpi\n      mload(0x40)\n      swap2\n      pop\n      and(add(returndatasize, 0x3f), not(0x1f))\n      dup3\n      add\n      0x40\n      mstore\n      returndatasize\n      dup3\n      mstore\n      returndatasize\n      0x00\n      0x20\n      dup5\n      add\n      returndatacopy\n      jump(tag_65)\n    tag_66:\n      0x60\n      swap2\n      pop\n    tag_65:\n      pop\n        /* \"contracts/bagibagimario.sol\":2503:2558  (bool sent, ) = msg.sender.call{value: prizeAmount}(\"\") */\n      pop\n      swap1\n      pop\n        /* \"contracts/bagibagimario.sol\":2577:2581  sent */\n      dup1\n        /* \"contracts/bagibagimario.sol\":2569:2607  require(sent, \"Ether transfer failed\") */\n      tag_67\n      jumpi\n      mload(0x40)\n      0x08c379a000000000000000000000000000000000000000000000000000000000\n      dup2\n      mstore\n      0x04\n      add\n      tag_68\n      swap1\n      tag_69\n      jump\t// in\n    tag_68:\n      mload(0x40)\n      dup1\n      swap2\n      sub\n      swap1\n      revert\n    tag_67:\n        /* \"contracts/bagibagimario.sol\":2220:2615  {... */\n      pop\n      pop\n        /* \"contracts/bagibagimario.sol\":2152:2615  function redeemCoupon(uint256 couponId) external isWinner(couponId) {... */\n      pop\n      pop\n      jump\t// out\n        /* \"contracts/bagibagimario.sol\":2676:2989  function viewCoupon(uint256 couponId) external view returns (address, uint256, address, bool) {... */\n    tag_20:\n        /* \"contracts/bagibagimario.sol\":2737:2744  address */\n      0x00\n        /* \"contracts/bagibagimario.sol\":2746:2753  uint256 */\n      dup1\n        /* \"contracts/bagibagimario.sol\":2755:2762  address */\n      0x00\n        /* \"contracts/bagibagimario.sol\":2764:2768  bool */\n      dup1\n        /* \"contracts/bagibagimario.sol\":2800:2812  totalCoupons */\n      sload(0x01)\n        /* \"contracts/bagibagimario.sol\":2789:2797  couponId */\n      dup6\n        /* \"contracts/bagibagimario.sol\":2789:2812  couponId < totalCoupons */\n      lt\n        /* \"contracts/bagibagimario.sol\":2781:2834  require(couponId < totalCoupons, \"Invalid coupon ID\") */\n      tag_71\n      jumpi\n      mload(0x40)\n      0x08c379a000000000000000000000000000000000000000000000000000000000\n      dup2\n      mstore\n      0x04\n      add\n      tag_72\n      swap1\n      tag_58\n      jump\t// in\n    tag_72:\n      mload(0x40)\n      dup1\n      swap2\n      sub\n      swap1\n      revert\n    tag_71:\n        /* \"contracts/bagibagimario.sol\":2845:2873  GiveawayCoupon memory coupon */\n      0x00\n        /* \"contracts/bagibagimario.sol\":2876:2886  couponBook */\n      0x02\n        /* \"contracts/bagibagimario.sol\":2876:2896  couponBook[couponId] */\n      0x00\n        /* \"contracts/bagibagimario.sol\":2887:2895  couponId */\n      dup8\n        /* \"contracts/bagibagimario.sol\":2876:2896  couponBook[couponId] */\n      dup2\n      mstore\n      0x20\n      add\n      swap1\n      dup2\n      mstore\n      0x20\n      add\n      0x00\n      keccak256\n        /* \"contracts/bagibagimario.sol\":2845:2896  GiveawayCoupon memory coupon = couponBook[couponId] */\n      mload(0x40)\n      dup1\n      0x80\n      add\n      0x40\n      mstore\n      swap1\n      dup2\n      0x00\n      dup3\n      add\n      0x00\n      swap1\n      sload\n      swap1\n      0x0100\n      exp\n      swap1\n      div\n      0xffffffffffffffffffffffffffffffffffffffff\n      and\n      0xffffffffffffffffffffffffffffffffffffffff\n      and\n      0xffffffffffffffffffffffffffffffffffffffff\n      and\n      dup2\n      mstore\n      0x20\n      add\n      0x01\n      dup3\n      add\n      sload\n      dup2\n      mstore\n      0x20\n      add\n      0x02\n      dup3\n      add\n      0x00\n      swap1\n      sload\n      swap1\n      0x0100\n      exp\n      swap1\n      div\n      0xffffffffffffffffffffffffffffffffffffffff\n      and\n      0xffffffffffffffffffffffffffffffffffffffff\n      and\n      0xffffffffffffffffffffffffffffffffffffffff\n      and\n      dup2\n      mstore\n      0x20\n      add\n      0x02\n      dup3\n      add\n      0x14\n      swap1\n      sload\n      swap1\n      0x0100\n      exp\n      swap1\n      div\n      0xff\n      and\n      iszero\n      iszero\n      iszero\n      iszero\n      dup2\n      mstore\n      pop\n      pop\n      swap1\n      pop\n        /* \"contracts/bagibagimario.sol\":2915:2921  coupon */\n      dup1\n        /* \"contracts/bagibagimario.sol\":2915:2927  coupon.donor */\n      0x00\n      add\n      mload\n        /* \"contracts/bagibagimario.sol\":2929:2935  coupon */\n      dup2\n        /* \"contracts/bagibagimario.sol\":2929:2947  coupon.etherAmount */\n      0x20\n      add\n      mload\n        /* \"contracts/bagibagimario.sol\":2949:2955  coupon */\n      dup3\n        /* \"contracts/bagibagimario.sol\":2949:2962  coupon.winner */\n      0x40\n      add\n      mload\n        /* \"contracts/bagibagimario.sol\":2964:2970  coupon */\n      dup4\n        /* \"contracts/bagibagimario.sol\":2964:2980  coupon.isClaimed */\n      0x60\n      add\n      mload\n        /* \"contracts/bagibagimario.sol\":2907:2981  return (coupon.donor, coupon.etherAmount, coupon.winner, coupon.isClaimed) */\n      swap5\n      pop\n      swap5\n      pop\n      swap5\n      pop\n      swap5\n      pop\n      pop\n        /* \"contracts/bagibagimario.sol\":2676:2989  function viewCoupon(uint256 couponId) external view returns (address, uint256, address, bool) {... */\n      swap2\n      swap4\n      pop\n      swap2\n      swap4\n      jump\t// out\n        /* \"contracts/bagibagimario.sol\":117:148  uint256 public totalCoupons = 0 */\n    tag_25:\n      sload(0x01)\n      dup2\n      jump\t// out\n        /* \"contracts/bagibagimario.sol\":967:1019  mapping(uint256 => GiveawayCoupon) public couponBook */\n    tag_31:\n      mstore(0x20, 0x02)\n      dup1\n      0x00\n      mstore\n      keccak256(0x00, 0x40)\n      0x00\n      swap2\n      pop\n      swap1\n      pop\n      dup1\n      0x00\n      add\n      0x00\n      swap1\n      sload\n      swap1\n      0x0100\n      exp\n      swap1\n      div\n      0xffffffffffffffffffffffffffffffffffffffff\n      and\n      swap1\n      dup1\n      0x01\n      add\n      sload\n      swap1\n      dup1\n      0x02\n      add\n      0x00\n      swap1\n      sload\n      swap1\n      0x0100\n      exp\n      swap1\n      div\n      0xffffffffffffffffffffffffffffffffffffffff\n      and\n      swap1\n      dup1\n      0x02\n      add\n      0x14\n      swap1\n      sload\n      swap1\n      0x0100\n      exp\n      swap1\n      div\n      0xff\n      and\n      swap1\n      pop\n      dup5\n      jump\t// out\n        /* \"contracts/bagibagimario.sol\":1715:2077  function selectWinner(uint256 couponId, address winnerAddress) external onlyAdmin {... */\n    tag_37:\n        /* \"contracts/bagibagimario.sol\":260:265  admin */\n      0x00\n      dup1\n      sload\n      swap1\n      0x0100\n      exp\n      swap1\n      div\n      0xffffffffffffffffffffffffffffffffffffffff\n      and\n        /* \"contracts/bagibagimario.sol\":246:265  msg.sender == admin */\n      0xffffffffffffffffffffffffffffffffffffffff\n      and\n        /* \"contracts/bagibagimario.sol\":246:256  msg.sender */\n      caller\n        /* \"contracts/bagibagimario.sol\":246:265  msg.sender == admin */\n      0xffffffffffffffffffffffffffffffffffffffff\n      and\n      eq\n        /* \"contracts/bagibagimario.sol\":238:296  require(msg.sender == admin, \"Action restricted to admin\") */\n      tag_74\n      jumpi\n      mload(0x40)\n      0x08c379a000000000000000000000000000000000000000000000000000000000\n      dup2\n      mstore\n      0x04\n      add\n      tag_75\n      swap1\n      tag_76\n      jump\t// in\n    tag_75:\n      mload(0x40)\n      dup1\n      swap2\n      sub\n      swap1\n      revert\n    tag_74:\n        /* \"contracts/bagibagimario.sol\":1827:1839  totalCoupons */\n      sload(0x01)\n        /* \"contracts/bagibagimario.sol\":1816:1824  couponId */\n      dup3\n        /* \"contracts/bagibagimario.sol\":1816:1839  couponId < totalCoupons */\n      lt\n        /* \"contracts/bagibagimario.sol\":1808:1861  require(couponId < totalCoupons, \"Invalid coupon ID\") */\n      tag_78\n      jumpi\n      mload(0x40)\n      0x08c379a000000000000000000000000000000000000000000000000000000000\n      dup2\n      mstore\n      0x04\n      add\n      tag_79\n      swap1\n      tag_58\n      jump\t// in\n    tag_79:\n      mload(0x40)\n      dup1\n      swap2\n      sub\n      swap1\n      revert\n    tag_78:\n        /* \"contracts/bagibagimario.sol\":1919:1920  0 */\n      0x00\n        /* \"contracts/bagibagimario.sol\":1880:1921  couponBook[couponId].winner == address(0) */\n      0xffffffffffffffffffffffffffffffffffffffff\n      and\n        /* \"contracts/bagibagimario.sol\":1880:1890  couponBook */\n      0x02\n        /* \"contracts/bagibagimario.sol\":1880:1900  couponBook[couponId] */\n      0x00\n        /* \"contracts/bagibagimario.sol\":1891:1899  couponId */\n      dup5\n        /* \"contracts/bagibagimario.sol\":1880:1900  couponBook[couponId] */\n      dup2\n      mstore\n      0x20\n      add\n      swap1\n      dup2\n      mstore\n      0x20\n      add\n      0x00\n      keccak256\n        /* \"contracts/bagibagimario.sol\":1880:1907  couponBook[couponId].winner */\n      0x02\n      add\n      0x00\n      swap1\n      sload\n      swap1\n      0x0100\n      exp\n      swap1\n      div\n      0xffffffffffffffffffffffffffffffffffffffff\n      and\n        /* \"contracts/bagibagimario.sol\":1880:1921  couponBook[couponId].winner == address(0) */\n      0xffffffffffffffffffffffffffffffffffffffff\n      and\n      eq\n        /* \"contracts/bagibagimario.sol\":1872:1958  require(couponBook[couponId].winner == address(0), \"Winner has already been selected\") */\n      tag_80\n      jumpi\n      mload(0x40)\n      0x08c379a000000000000000000000000000000000000000000000000000000000\n      dup2\n      mstore\n      0x04\n      add\n      tag_81\n      swap1\n      tag_82\n      jump\t// in\n    tag_81:\n      mload(0x40)\n      dup1\n      swap2\n      sub\n      swap1\n      revert\n    tag_80:\n        /* \"contracts/bagibagimario.sol\":2001:2014  winnerAddress */\n      dup1\n        /* \"contracts/bagibagimario.sol\":1971:1981  couponBook */\n      0x02\n        /* \"contracts/bagibagimario.sol\":1971:1991  couponBook[couponId] */\n      0x00\n        /* \"contracts/bagibagimario.sol\":1982:1990  couponId */\n      dup5\n        /* \"contracts/bagibagimario.sol\":1971:1991  couponBook[couponId] */\n      dup2\n      mstore\n      0x20\n      add\n      swap1\n      dup2\n      mstore\n      0x20\n      add\n      0x00\n      keccak256\n        /* \"contracts/bagibagimario.sol\":1971:1998  couponBook[couponId].winner */\n      0x02\n      add\n      0x00\n        /* \"contracts/bagibagimario.sol\":1971:2014  couponBook[couponId].winner = winnerAddress */\n      0x0100\n      exp\n      dup2\n      sload\n      dup2\n      0xffffffffffffffffffffffffffffffffffffffff\n      mul\n      not\n      and\n      swap1\n      dup4\n      0xffffffffffffffffffffffffffffffffffffffff\n      and\n      mul\n      or\n      swap1\n      sstore\n      pop\n        /* \"contracts/bagibagimario.sol\":2055:2068  winnerAddress */\n      dup1\n        /* \"contracts/bagibagimario.sol\":2030:2069  WinnerSelected(couponId, winnerAddress) */\n      0xffffffffffffffffffffffffffffffffffffffff\n      and\n      0x03fb57eb449654e24e1b240d3d06702cf79362a065d5c0323aee642d4702fa4b\n        /* \"contracts/bagibagimario.sol\":2045:2053  couponId */\n      dup4\n        /* \"contracts/bagibagimario.sol\":2030:2069  WinnerSelected(couponId, winnerAddress) */\n      mload(0x40)\n      tag_83\n      swap2\n      swap1\n      tag_27\n      jump\t// in\n    tag_83:\n      mload(0x40)\n      dup1\n      swap2\n      sub\n      swap1\n      log2\n        /* \"contracts/bagibagimario.sol\":1715:2077  function selectWinner(uint256 couponId, address winnerAddress) external onlyAdmin {... */\n      pop\n      pop\n      jump\t// out\n        /* \"contracts/bagibagimario.sol\":90:110  address public admin */\n    tag_40:\n      0x00\n      dup1\n      sload\n      swap1\n      0x0100\n      exp\n      swap1\n      div\n      0xffffffffffffffffffffffffffffffffffffffff\n      and\n      dup2\n      jump\t// out\n        /* \"#utility.yul\":88:205   */\n    tag_85:\n        /* \"#utility.yul\":197:198   */\n      0x00\n        /* \"#utility.yul\":194:195   */\n      dup1\n        /* \"#utility.yul\":187:199   */\n      revert\n        /* \"#utility.yul\":334:411   */\n    tag_87:\n        /* \"#utility.yul\":371:378   */\n      0x00\n        /* \"#utility.yul\":400:405   */\n      dup2\n        /* \"#utility.yul\":389:405   */\n      swap1\n      pop\n        /* \"#utility.yul\":334:411   */\n      swap2\n      swap1\n      pop\n      jump\t// out\n        /* \"#utility.yul\":417:539   */\n    tag_88:\n        /* \"#utility.yul\":490:514   */\n      tag_123\n        /* \"#utility.yul\":508:513   */\n      dup2\n        /* \"#utility.yul\":490:514   */\n      tag_87\n      jump\t// in\n    tag_123:\n        /* \"#utility.yul\":483:488   */\n      dup2\n        /* \"#utility.yul\":480:515   */\n      eq\n        /* \"#utility.yul\":470:533   */\n      tag_124\n      jumpi\n        /* \"#utility.yul\":529:530   */\n      0x00\n        /* \"#utility.yul\":526:527   */\n      dup1\n        /* \"#utility.yul\":519:531   */\n      revert\n        /* \"#utility.yul\":470:533   */\n    tag_124:\n        /* \"#utility.yul\":417:539   */\n      pop\n      jump\t// out\n        /* \"#utility.yul\":545:684   */\n    tag_89:\n        /* \"#utility.yul\":591:596   */\n      0x00\n        /* \"#utility.yul\":629:635   */\n      dup2\n        /* \"#utility.yul\":616:636   */\n      calldataload\n        /* \"#utility.yul\":607:636   */\n      swap1\n      pop\n        /* \"#utility.yul\":645:678   */\n      tag_126\n        /* \"#utility.yul\":672:677   */\n      dup2\n        /* \"#utility.yul\":645:678   */\n      tag_88\n      jump\t// in\n    tag_126:\n        /* \"#utility.yul\":545:684   */\n      swap3\n      swap2\n      pop\n      pop\n      jump\t// out\n        /* \"#utility.yul\":690:1019   */\n    tag_15:\n        /* \"#utility.yul\":749:755   */\n      0x00\n        /* \"#utility.yul\":798:800   */\n      0x20\n        /* \"#utility.yul\":786:795   */\n      dup3\n        /* \"#utility.yul\":777:784   */\n      dup5\n        /* \"#utility.yul\":773:796   */\n      sub\n        /* \"#utility.yul\":769:801   */\n      slt\n        /* \"#utility.yul\":766:885   */\n      iszero\n      tag_128\n      jumpi\n        /* \"#utility.yul\":804:883   */\n      tag_129\n      tag_85\n      jump\t// in\n    tag_129:\n        /* \"#utility.yul\":766:885   */\n    tag_128:\n        /* \"#utility.yul\":924:925   */\n      0x00\n        /* \"#utility.yul\":949:1002   */\n      tag_130\n        /* \"#utility.yul\":994:1001   */\n      dup5\n        /* \"#utility.yul\":985:991   */\n      dup3\n        /* \"#utility.yul\":974:983   */\n      dup6\n        /* \"#utility.yul\":970:992   */\n      add\n        /* \"#utility.yul\":949:1002   */\n      tag_89\n      jump\t// in\n    tag_130:\n        /* \"#utility.yul\":939:1002   */\n      swap2\n      pop\n        /* \"#utility.yul\":895:1012   */\n      pop\n        /* \"#utility.yul\":690:1019   */\n      swap3\n      swap2\n      pop\n      pop\n      jump\t// out\n        /* \"#utility.yul\":1025:1151   */\n    tag_90:\n        /* \"#utility.yul\":1062:1069   */\n      0x00\n        /* \"#utility.yul\":1102:1144   */\n      0xffffffffffffffffffffffffffffffffffffffff\n        /* \"#utility.yul\":1095:1100   */\n      dup3\n        /* \"#utility.yul\":1091:1145   */\n      and\n        /* \"#utility.yul\":1080:1145   */\n      swap1\n      pop\n        /* \"#utility.yul\":1025:1151   */\n      swap2\n      swap1\n      pop\n      jump\t// out\n        /* \"#utility.yul\":1157:1253   */\n    tag_91:\n        /* \"#utility.yul\":1194:1201   */\n      0x00\n        /* \"#utility.yul\":1223:1247   */\n      tag_133\n        /* \"#utility.yul\":1241:1246   */\n      dup3\n        /* \"#utility.yul\":1223:1247   */\n      tag_90\n      jump\t// in\n    tag_133:\n        /* \"#utility.yul\":1212:1247   */\n      swap1\n      pop\n        /* \"#utility.yul\":1157:1253   */\n      swap2\n      swap1\n      pop\n      jump\t// out\n        /* \"#utility.yul\":1259:1377   */\n    tag_92:\n        /* \"#utility.yul\":1346:1370   */\n      tag_135\n        /* \"#utility.yul\":1364:1369   */\n      dup2\n        /* \"#utility.yul\":1346:1370   */\n      tag_91\n      jump\t// in\n    tag_135:\n        /* \"#utility.yul\":1341:1344   */\n      dup3\n        /* \"#utility.yul\":1334:1371   */\n      mstore\n        /* \"#utility.yul\":1259:1377   */\n      pop\n      pop\n      jump\t// out\n        /* \"#utility.yul\":1383:1501   */\n    tag_93:\n        /* \"#utility.yul\":1470:1494   */\n      tag_137\n        /* \"#utility.yul\":1488:1493   */\n      dup2\n        /* \"#utility.yul\":1470:1494   */\n      tag_87\n      jump\t// in\n    tag_137:\n        /* \"#utility.yul\":1465:1468   */\n      dup3\n        /* \"#utility.yul\":1458:1495   */\n      mstore\n        /* \"#utility.yul\":1383:1501   */\n      pop\n      pop\n      jump\t// out\n        /* \"#utility.yul\":1507:1597   */\n    tag_94:\n        /* \"#utility.yul\":1541:1548   */\n      0x00\n        /* \"#utility.yul\":1584:1589   */\n      dup2\n        /* \"#utility.yul\":1577:1590   */\n      iszero\n        /* \"#utility.yul\":1570:1591   */\n      iszero\n        /* \"#utility.yul\":1559:1591   */\n      swap1\n      pop\n        /* \"#utility.yul\":1507:1597   */\n      swap2\n      swap1\n      pop\n      jump\t// out\n        /* \"#utility.yul\":1603:1712   */\n    tag_95:\n        /* \"#utility.yul\":1684:1705   */\n      tag_140\n        /* \"#utility.yul\":1699:1704   */\n      dup2\n        /* \"#utility.yul\":1684:1705   */\n      tag_94\n      jump\t// in\n    tag_140:\n        /* \"#utility.yul\":1679:1682   */\n      dup3\n        /* \"#utility.yul\":1672:1706   */\n      mstore\n        /* \"#utility.yul\":1603:1712   */\n      pop\n      pop\n      jump\t// out\n        /* \"#utility.yul\":1718:2259   */\n    tag_22:\n        /* \"#utility.yul\":1889:1893   */\n      0x00\n        /* \"#utility.yul\":1927:1930   */\n      0x80\n        /* \"#utility.yul\":1916:1925   */\n      dup3\n        /* \"#utility.yul\":1912:1931   */\n      add\n        /* \"#utility.yul\":1904:1931   */\n      swap1\n      pop\n        /* \"#utility.yul\":1941:2012   */\n      tag_142\n        /* \"#utility.yul\":2009:2010   */\n      0x00\n        /* \"#utility.yul\":1998:2007   */\n      dup4\n        /* \"#utility.yul\":1994:2011   */\n      add\n        /* \"#utility.yul\":1985:1991   */\n      dup8\n        /* \"#utility.yul\":1941:2012   */\n      tag_92\n      jump\t// in\n    tag_142:\n        /* \"#utility.yul\":2022:2094   */\n      tag_143\n        /* \"#utility.yul\":2090:2092   */\n      0x20\n        /* \"#utility.yul\":2079:2088   */\n      dup4\n        /* \"#utility.yul\":2075:2093   */\n      add\n        /* \"#utility.yul\":2066:2072   */\n      dup7\n        /* \"#utility.yul\":2022:2094   */\n      tag_93\n      jump\t// in\n    tag_143:\n        /* \"#utility.yul\":2104:2176   */\n      tag_144\n        /* \"#utility.yul\":2172:2174   */\n      0x40\n        /* \"#utility.yul\":2161:2170   */\n      dup4\n        /* \"#utility.yul\":2157:2175   */\n      add\n        /* \"#utility.yul\":2148:2154   */\n      dup6\n        /* \"#utility.yul\":2104:2176   */\n      tag_92\n      jump\t// in\n    tag_144:\n        /* \"#utility.yul\":2186:2252   */\n      tag_145\n        /* \"#utility.yul\":2248:2250   */\n      0x60\n        /* \"#utility.yul\":2237:2246   */\n      dup4\n        /* \"#utility.yul\":2233:2251   */\n      add\n        /* \"#utility.yul\":2224:2230   */\n      dup5\n        /* \"#utility.yul\":2186:2252   */\n      tag_95\n      jump\t// in\n    tag_145:\n        /* \"#utility.yul\":1718:2259   */\n      swap6\n      swap5\n      pop\n      pop\n      pop\n      pop\n      pop\n      jump\t// out\n        /* \"#utility.yul\":2265:2487   */\n    tag_27:\n        /* \"#utility.yul\":2358:2362   */\n      0x00\n        /* \"#utility.yul\":2396:2398   */\n      0x20\n        /* \"#utility.yul\":2385:2394   */\n      dup3\n        /* \"#utility.yul\":2381:2399   */\n      add\n        /* \"#utility.yul\":2373:2399   */\n      swap1\n      pop\n        /* \"#utility.yul\":2409:2480   */\n      tag_147\n        /* \"#utility.yul\":2477:2478   */\n      0x00\n        /* \"#utility.yul\":2466:2475   */\n      dup4\n        /* \"#utility.yul\":2462:2479   */\n      add\n        /* \"#utility.yul\":2453:2459   */\n      dup5\n        /* \"#utility.yul\":2409:2480   */\n      tag_93\n      jump\t// in\n    tag_147:\n        /* \"#utility.yul\":2265:2487   */\n      swap3\n      swap2\n      pop\n      pop\n      jump\t// out\n        /* \"#utility.yul\":2493:2615   */\n    tag_96:\n        /* \"#utility.yul\":2566:2590   */\n      tag_149\n        /* \"#utility.yul\":2584:2589   */\n      dup2\n        /* \"#utility.yul\":2566:2590   */\n      tag_91\n      jump\t// in\n    tag_149:\n        /* \"#utility.yul\":2559:2564   */\n      dup2\n        /* \"#utility.yul\":2556:2591   */\n      eq\n        /* \"#utility.yul\":2546:2609   */\n      tag_150\n      jumpi\n        /* \"#utility.yul\":2605:2606   */\n      0x00\n        /* \"#utility.yul\":2602:2603   */\n      dup1\n        /* \"#utility.yul\":2595:2607   */\n      revert\n        /* \"#utility.yul\":2546:2609   */\n    tag_150:\n        /* \"#utility.yul\":2493:2615   */\n      pop\n      jump\t// out\n        /* \"#utility.yul\":2621:2760   */\n    tag_97:\n        /* \"#utility.yul\":2667:2672   */\n      0x00\n        /* \"#utility.yul\":2705:2711   */\n      dup2\n        /* \"#utility.yul\":2692:2712   */\n      calldataload\n        /* \"#utility.yul\":2683:2712   */\n      swap1\n      pop\n        /* \"#utility.yul\":2721:2754   */\n      tag_152\n        /* \"#utility.yul\":2748:2753   */\n      dup2\n        /* \"#utility.yul\":2721:2754   */\n      tag_96\n      jump\t// in\n    tag_152:\n        /* \"#utility.yul\":2621:2760   */\n      swap3\n      swap2\n      pop\n      pop\n      jump\t// out\n        /* \"#utility.yul\":2766:3240   */\n    tag_36:\n        /* \"#utility.yul\":2834:2840   */\n      0x00\n        /* \"#utility.yul\":2842:2848   */\n      dup1\n        /* \"#utility.yul\":2891:2893   */\n      0x40\n        /* \"#utility.yul\":2879:2888   */\n      dup4\n        /* \"#utility.yul\":2870:2877   */\n      dup6\n        /* \"#utility.yul\":2866:2889   */\n      sub\n        /* \"#utility.yul\":2862:2894   */\n      slt\n        /* \"#utility.yul\":2859:2978   */\n      iszero\n      tag_154\n      jumpi\n        /* \"#utility.yul\":2897:2976   */\n      tag_155\n      tag_85\n      jump\t// in\n    tag_155:\n        /* \"#utility.yul\":2859:2978   */\n    tag_154:\n        /* \"#utility.yul\":3017:3018   */\n      0x00\n        /* \"#utility.yul\":3042:3095   */\n      tag_156\n        /* \"#utility.yul\":3087:3094   */\n      dup6\n        /* \"#utility.yul\":3078:3084   */\n      dup3\n        /* \"#utility.yul\":3067:3076   */\n      dup7\n        /* \"#utility.yul\":3063:3085   */\n      add\n        /* \"#utility.yul\":3042:3095   */\n      tag_89\n      jump\t// in\n    tag_156:\n        /* \"#utility.yul\":3032:3095   */\n      swap3\n      pop\n        /* \"#utility.yul\":2988:3105   */\n      pop\n        /* \"#utility.yul\":3144:3146   */\n      0x20\n        /* \"#utility.yul\":3170:3223   */\n      tag_157\n        /* \"#utility.yul\":3215:3222   */\n      dup6\n        /* \"#utility.yul\":3206:3212   */\n      dup3\n        /* \"#utility.yul\":3195:3204   */\n      dup7\n        /* \"#utility.yul\":3191:3213   */\n      add\n        /* \"#utility.yul\":3170:3223   */\n      tag_97\n      jump\t// in\n    tag_157:\n        /* \"#utility.yul\":3160:3223   */\n      swap2\n      pop\n        /* \"#utility.yul\":3115:3233   */\n      pop\n        /* \"#utility.yul\":2766:3240   */\n      swap3\n      pop\n      swap3\n      swap1\n      pop\n      jump\t// out\n        /* \"#utility.yul\":3246:3468   */\n    tag_42:\n        /* \"#utility.yul\":3339:3343   */\n      0x00\n        /* \"#utility.yul\":3377:3379   */\n      0x20\n        /* \"#utility.yul\":3366:3375   */\n      dup3\n        /* \"#utility.yul\":3362:3380   */\n      add\n        /* \"#utility.yul\":3354:3380   */\n      swap1\n      pop\n        /* \"#utility.yul\":3390:3461   */\n      tag_159\n        /* \"#utility.yul\":3458:3459   */\n      0x00\n        /* \"#utility.yul\":3447:3456   */\n      dup4\n        /* \"#utility.yul\":3443:3460   */\n      add\n        /* \"#utility.yul\":3434:3440   */\n      dup5\n        /* \"#utility.yul\":3390:3461   */\n      tag_92\n      jump\t// in\n    tag_159:\n        /* \"#utility.yul\":3246:3468   */\n      swap3\n      swap2\n      pop\n      pop\n      jump\t// out\n        /* \"#utility.yul\":3474:3643   */\n    tag_98:\n        /* \"#utility.yul\":3558:3569   */\n      0x00\n        /* \"#utility.yul\":3592:3598   */\n      dup3\n        /* \"#utility.yul\":3587:3590   */\n      dup3\n        /* \"#utility.yul\":3580:3599   */\n      mstore\n        /* \"#utility.yul\":3632:3636   */\n      0x20\n        /* \"#utility.yul\":3627:3630   */\n      dup3\n        /* \"#utility.yul\":3623:3637   */\n      add\n        /* \"#utility.yul\":3608:3637   */\n      swap1\n      pop\n        /* \"#utility.yul\":3474:3643   */\n      swap3\n      swap2\n      pop\n      pop\n      jump\t// out\n        /* \"#utility.yul\":3649:3870   */\n    tag_99:\n        /* \"#utility.yul\":3789:3823   */\n      0x446f6e6174696f6e206d7573742062652067726561746572207468616e207a65\n        /* \"#utility.yul\":3785:3786   */\n      0x00\n        /* \"#utility.yul\":3777:3783   */\n      dup3\n        /* \"#utility.yul\":3773:3787   */\n      add\n        /* \"#utility.yul\":3766:3824   */\n      mstore\n        /* \"#utility.yul\":3858:3862   */\n      0x726f000000000000000000000000000000000000000000000000000000000000\n        /* \"#utility.yul\":3853:3855   */\n      0x20\n        /* \"#utility.yul\":3845:3851   */\n      dup3\n        /* \"#utility.yul\":3841:3856   */\n      add\n        /* \"#utility.yul\":3834:3863   */\n      mstore\n        /* \"#utility.yul\":3649:3870   */\n      pop\n      jump\t// out\n        /* \"#utility.yul\":3876:4242   */\n    tag_100:\n        /* \"#utility.yul\":4018:4021   */\n      0x00\n        /* \"#utility.yul\":4039:4106   */\n      tag_163\n        /* \"#utility.yul\":4103:4105   */\n      0x22\n        /* \"#utility.yul\":4098:4101   */\n      dup4\n        /* \"#utility.yul\":4039:4106   */\n      tag_98\n      jump\t// in\n    tag_163:\n        /* \"#utility.yul\":4032:4106   */\n      swap2\n      pop\n        /* \"#utility.yul\":4115:4208   */\n      tag_164\n        /* \"#utility.yul\":4204:4207   */\n      dup3\n        /* \"#utility.yul\":4115:4208   */\n      tag_99\n      jump\t// in\n    tag_164:\n        /* \"#utility.yul\":4233:4235   */\n      0x40\n        /* \"#utility.yul\":4228:4231   */\n      dup3\n        /* \"#utility.yul\":4224:4236   */\n      add\n        /* \"#utility.yul\":4217:4236   */\n      swap1\n      pop\n        /* \"#utility.yul\":3876:4242   */\n      swap2\n      swap1\n      pop\n      jump\t// out\n        /* \"#utility.yul\":4248:4667   */\n    tag_46:\n        /* \"#utility.yul\":4414:4418   */\n      0x00\n        /* \"#utility.yul\":4452:4454   */\n      0x20\n        /* \"#utility.yul\":4441:4450   */\n      dup3\n        /* \"#utility.yul\":4437:4455   */\n      add\n        /* \"#utility.yul\":4429:4455   */\n      swap1\n      pop\n        /* \"#utility.yul\":4501:4510   */\n      dup2\n        /* \"#utility.yul\":4495:4499   */\n      dup2\n        /* \"#utility.yul\":4491:4511   */\n      sub\n        /* \"#utility.yul\":4487:4488   */\n      0x00\n        /* \"#utility.yul\":4476:4485   */\n      dup4\n        /* \"#utility.yul\":4472:4489   */\n      add\n        /* \"#utility.yul\":4465:4512   */\n      mstore\n        /* \"#utility.yul\":4529:4660   */\n      tag_166\n        /* \"#utility.yul\":4655:4659   */\n      dup2\n        /* \"#utility.yul\":4529:4660   */\n      tag_100\n      jump\t// in\n    tag_166:\n        /* \"#utility.yul\":4521:4660   */\n      swap1\n      pop\n        /* \"#utility.yul\":4248:4667   */\n      swap2\n      swap1\n      pop\n      jump\t// out\n        /* \"#utility.yul\":4673:5005   */\n    tag_48:\n        /* \"#utility.yul\":4794:4798   */\n      0x00\n        /* \"#utility.yul\":4832:4834   */\n      0x40\n        /* \"#utility.yul\":4821:4830   */\n      dup3\n        /* \"#utility.yul\":4817:4835   */\n      add\n        /* \"#utility.yul\":4809:4835   */\n      swap1\n      pop\n        /* \"#utility.yul\":4845:4916   */\n      tag_168\n        /* \"#utility.yul\":4913:4914   */\n      0x00\n        /* \"#utility.yul\":4902:4911   */\n      dup4\n        /* \"#utility.yul\":4898:4915   */\n      add\n        /* \"#utility.yul\":4889:4895   */\n      dup6\n        /* \"#utility.yul\":4845:4916   */\n      tag_93\n      jump\t// in\n    tag_168:\n        /* \"#utility.yul\":4926:4998   */\n      tag_169\n        /* \"#utility.yul\":4994:4996   */\n      0x20\n        /* \"#utility.yul\":4983:4992   */\n      dup4\n        /* \"#utility.yul\":4979:4997   */\n      add\n        /* \"#utility.yul\":4970:4976   */\n      dup5\n        /* \"#utility.yul\":4926:4998   */\n      tag_93\n      jump\t// in\n    tag_169:\n        /* \"#utility.yul\":4673:5005   */\n      swap4\n      swap3\n      pop\n      pop\n      pop\n      jump\t// out\n        /* \"#utility.yul\":5011:5191   */\n    tag_101:\n        /* \"#utility.yul\":5059:5136   */\n      0x4e487b7100000000000000000000000000000000000000000000000000000000\n        /* \"#utility.yul\":5056:5057   */\n      0x00\n        /* \"#utility.yul\":5049:5137   */\n      mstore\n        /* \"#utility.yul\":5156:5160   */\n      0x11\n        /* \"#utility.yul\":5153:5154   */\n      0x04\n        /* \"#utility.yul\":5146:5161   */\n      mstore\n        /* \"#utility.yul\":5180:5184   */\n      0x24\n        /* \"#utility.yul\":5177:5178   */\n      0x00\n        /* \"#utility.yul\":5170:5185   */\n      revert\n        /* \"#utility.yul\":5197:5430   */\n    tag_50:\n        /* \"#utility.yul\":5236:5239   */\n      0x00\n        /* \"#utility.yul\":5259:5283   */\n      tag_172\n        /* \"#utility.yul\":5277:5282   */\n      dup3\n        /* \"#utility.yul\":5259:5283   */\n      tag_87\n      jump\t// in\n    tag_172:\n        /* \"#utility.yul\":5250:5283   */\n      swap2\n      pop\n        /* \"#utility.yul\":5305:5371   */\n      0xffffffffffffffffffffffffffffffffffffffffffffffffffffffffffffffff\n        /* \"#utility.yul\":5298:5303   */\n      dup3\n        /* \"#utility.yul\":5295:5372   */\n      sub\n        /* \"#utility.yul\":5292:5395   */\n      tag_173\n      jumpi\n        /* \"#utility.yul\":5375:5393   */\n      tag_174\n      tag_101\n      jump\t// in\n    tag_174:\n        /* \"#utility.yul\":5292:5395   */\n    tag_173:\n        /* \"#utility.yul\":5422:5423   */\n      0x01\n        /* \"#utility.yul\":5415:5420   */\n      dup3\n        /* \"#utility.yul\":5411:5424   */\n      add\n        /* \"#utility.yul\":5404:5424   */\n      swap1\n      pop\n        /* \"#utility.yul\":5197:5430   */\n      swap2\n      swap1\n      pop\n      jump\t// out\n        /* \"#utility.yul\":5436:5656   */\n    tag_102:\n        /* \"#utility.yul\":5576:5610   */\n      0x43616c6c6572206973206e6f74207468652061737369676e65642077696e6e65\n        /* \"#utility.yul\":5572:5573   */\n      0x00\n        /* \"#utility.yul\":5564:5570   */\n      dup3\n        /* \"#utility.yul\":5560:5574   */\n      add\n        /* \"#utility.yul\":5553:5611   */\n      mstore\n        /* \"#utility.yul\":5645:5648   */\n      0x7200000000000000000000000000000000000000000000000000000000000000\n        /* \"#utility.yul\":5640:5642   */\n      0x20\n        /* \"#utility.yul\":5632:5638   */\n      dup3\n        /* \"#utility.yul\":5628:5643   */\n      add\n        /* \"#utility.yul\":5621:5649   */\n      mstore\n        /* \"#utility.yul\":5436:5656   */\n      pop\n      jump\t// out\n        /* \"#utility.yul\":5662:6028   */\n    tag_103:\n        /* \"#utility.yul\":5804:5807   */\n      0x00\n        /* \"#utility.yul\":5825:5892   */\n      tag_177\n        /* \"#utility.yul\":5889:5891   */\n      0x21\n        /* \"#utility.yul\":5884:5887   */\n      dup4\n        /* \"#utility.yul\":5825:5892   */\n      tag_98\n      jump\t// in\n    tag_177:\n        /* \"#utility.yul\":5818:5892   */\n      swap2\n      pop\n        /* \"#utility.yul\":5901:5994   */\n      tag_178\n        /* \"#utility.yul\":5990:5993   */\n      dup3\n        /* \"#utility.yul\":5901:5994   */\n      tag_102\n      jump\t// in\n    tag_178:\n        /* \"#utility.yul\":6019:6021   */\n      0x40\n        /* \"#utility.yul\":6014:6017   */\n      dup3\n        /* \"#utility.yul\":6010:6022   */\n      add\n        /* \"#utility.yul\":6003:6022   */\n      swap1\n      pop\n        /* \"#utility.yul\":5662:6028   */\n      swap2\n      swap1\n      pop\n      jump\t// out\n        /* \"#utility.yul\":6034:6453   */\n    tag_54:\n        /* \"#utility.yul\":6200:6204   */\n      0x00\n        /* \"#utility.yul\":6238:6240   */\n      0x20\n        /* \"#utility.yul\":6227:6236   */\n      dup3\n        /* \"#utility.yul\":6223:6241   */\n      add\n        /* \"#utility.yul\":6215:6241   */\n      swap1\n      pop\n        /* \"#utility.yul\":6287:6296   */\n      dup2\n        /* \"#utility.yul\":6281:6285   */\n      dup2\n        /* \"#utility.yul\":6277:6297   */\n      sub\n        /* \"#utility.yul\":6273:6274   */\n      0x00\n        /* \"#utility.yul\":6262:6271   */\n      dup4\n        /* \"#utility.yul\":6258:6275   */\n      add\n        /* \"#utility.yul\":6251:6298   */\n      mstore\n        /* \"#utility.yul\":6315:6446   */\n      tag_180\n        /* \"#utility.yul\":6441:6445   */\n      dup2\n        /* \"#utility.yul\":6315:6446   */\n      tag_103\n      jump\t// in\n    tag_180:\n        /* \"#utility.yul\":6307:6446   */\n      swap1\n      pop\n        /* \"#utility.yul\":6034:6453   */\n      swap2\n      swap1\n      pop\n      jump\t// out\n        /* \"#utility.yul\":6459:6626   */\n    tag_104:\n        /* \"#utility.yul\":6599:6618   */\n      0x496e76616c696420636f75706f6e204944000000000000000000000000000000\n        /* \"#utility.yul\":6595:6596   */\n      0x00\n        /* \"#utility.yul\":6587:6593   */\n      dup3\n        /* \"#utility.yul\":6583:6597   */\n      add\n        /* \"#utility.yul\":6576:6619   */\n      mstore\n        /* \"#utility.yul\":6459:6626   */\n      pop\n      jump\t// out\n        /* \"#utility.yul\":6632:6998   */\n    tag_105:\n        /* \"#utility.yul\":6774:6777   */\n      0x00\n        /* \"#utility.yul\":6795:6862   */\n      tag_183\n        /* \"#utility.yul\":6859:6861   */\n      0x11\n        /* \"#utility.yul\":6854:6857   */\n      dup4\n        /* \"#utility.yul\":6795:6862   */\n      tag_98\n      jump\t// in\n    tag_183:\n        /* \"#utility.yul\":6788:6862   */\n      swap2\n      pop\n        /* \"#utility.yul\":6871:6964   */\n      tag_184\n        /* \"#utility.yul\":6960:6963   */\n      dup3\n        /* \"#utility.yul\":6871:6964   */\n      tag_104\n      jump\t// in\n    tag_184:\n        /* \"#utility.yul\":6989:6991   */\n      0x20\n        /* \"#utility.yul\":6984:6987   */\n      dup3\n        /* \"#utility.yul\":6980:6992   */\n      add\n        /* \"#utility.yul\":6973:6992   */\n      swap1\n      pop\n        /* \"#utility.yul\":6632:6998   */\n      swap2\n      swap1\n      pop\n      jump\t// out\n        /* \"#utility.yul\":7004:7423   */\n    tag_58:\n        /* \"#utility.yul\":7170:7174   */\n      0x00\n        /* \"#utility.yul\":7208:7210   */\n      0x20\n        /* \"#utility.yul\":7197:7206   */\n      dup3\n        /* \"#utility.yul\":7193:7211   */\n      add\n        /* \"#utility.yul\":7185:7211   */\n      swap1\n      pop\n        /* \"#utility.yul\":7257:7266   */\n      dup2\n        /* \"#utility.yul\":7251:7255   */\n      dup2\n        /* \"#utility.yul\":7247:7267   */\n      sub\n        /* \"#utility.yul\":7243:7244   */\n      0x00\n        /* \"#utility.yul\":7232:7241   */\n      dup4\n        /* \"#utility.yul\":7228:7245   */\n      add\n        /* \"#utility.yul\":7221:7268   */\n      mstore\n        /* \"#utility.yul\":7285:7416   */\n      tag_186\n        /* \"#utility.yul\":7411:7415   */\n      dup2\n        /* \"#utility.yul\":7285:7416   */\n      tag_105\n      jump\t// in\n    tag_186:\n        /* \"#utility.yul\":7277:7416   */\n      swap1\n      pop\n        /* \"#utility.yul\":7004:7423   */\n      swap2\n      swap1\n      pop\n      jump\t// out\n        /* \"#utility.yul\":7429:7652   */\n    tag_106:\n        /* \"#utility.yul\":7569:7603   */\n      0x5468697320636f75706f6e2068617320616c7265616479206265656e20636c61\n        /* \"#utility.yul\":7565:7566   */\n      0x00\n        /* \"#utility.yul\":7557:7563   */\n      dup3\n        /* \"#utility.yul\":7553:7567   */\n      add\n        /* \"#utility.yul\":7546:7604   */\n      mstore\n        /* \"#utility.yul\":7638:7644   */\n      0x696d656400000000000000000000000000000000000000000000000000000000\n        /* \"#utility.yul\":7633:7635   */\n      0x20\n        /* \"#utility.yul\":7625:7631   */\n      dup3\n        /* \"#utility.yul\":7621:7636   */\n      add\n        /* \"#utility.yul\":7614:7645   */\n      mstore\n        /* \"#utility.yul\":7429:7652   */\n      pop\n      jump\t// out\n        /* \"#utility.yul\":7658:8024   */\n    tag_107:\n        /* \"#utility.yul\":7800:7803   */\n      0x00\n        /* \"#utility.yul\":7821:7888   */\n      tag_189\n        /* \"#utility.yul\":7885:7887   */\n      0x24\n        /* \"#utility.yul\":7880:7883   */\n      dup4\n        /* \"#utility.yul\":7821:7888   */\n      tag_98\n      jump\t// in\n    tag_189:\n        /* \"#utility.yul\":7814:7888   */\n      swap2\n      pop\n        /* \"#utility.yul\":7897:7990   */\n      tag_190\n        /* \"#utility.yul\":7986:7989   */\n      dup3\n        /* \"#utility.yul\":7897:7990   */\n      tag_106\n      jump\t// in\n    tag_190:\n        /* \"#utility.yul\":8015:8017   */\n      0x40\n        /* \"#utility.yul\":8010:8013   */\n      dup3\n        /* \"#utility.yul\":8006:8018   */\n      add\n        /* \"#utility.yul\":7999:8018   */\n      swap1\n      pop\n        /* \"#utility.yul\":7658:8024   */\n      swap2\n      swap1\n      pop\n      jump\t// out\n        /* \"#utility.yul\":8030:8449   */\n    tag_61:\n        /* \"#utility.yul\":8196:8200   */\n      0x00\n        /* \"#utility.yul\":8234:8236   */\n      0x20\n        /* \"#utility.yul\":8223:8232   */\n      dup3\n        /* \"#utility.yul\":8219:8237   */\n      add\n        /* \"#utility.yul\":8211:8237   */\n      swap1\n      pop\n        /* \"#utility.yul\":8283:8292   */\n      dup2\n        /* \"#utility.yul\":8277:8281   */\n      dup2\n        /* \"#utility.yul\":8273:8293   */\n      sub\n        /* \"#utility.yul\":8269:8270   */\n      0x00\n        /* \"#utility.yul\":8258:8267   */\n      dup4\n        /* \"#utility.yul\":8254:8271   */\n      add\n        /* \"#utility.yul\":8247:8294   */\n      mstore\n        /* \"#utility.yul\":8311:8442   */\n      tag_192\n        /* \"#utility.yul\":8437:8441   */\n      dup2\n        /* \"#utility.yul\":8311:8442   */\n      tag_107\n      jump\t// in\n    tag_192:\n        /* \"#utility.yul\":8303:8442   */\n      swap1\n      pop\n        /* \"#utility.yul\":8030:8449   */\n      swap2\n      swap1\n      pop\n      jump\t// out\n        /* \"#utility.yul\":8455:8602   */\n    tag_108:\n        /* \"#utility.yul\":8556:8567   */\n      0x00\n        /* \"#utility.yul\":8593:8596   */\n      dup2\n        /* \"#utility.yul\":8578:8596   */\n      swap1\n      pop\n        /* \"#utility.yul\":8455:8602   */\n      swap3\n      swap2\n      pop\n      pop\n      jump\t// out\n        /* \"#utility.yul\":8608:8722   */\n    tag_109:\n      pop\n      jump\t// out\n        /* \"#utility.yul\":8728:9126   */\n    tag_110:\n        /* \"#utility.yul\":8887:8890   */\n      0x00\n        /* \"#utility.yul\":8908:8991   */\n      tag_196\n        /* \"#utility.yul\":8989:8990   */\n      0x00\n        /* \"#utility.yul\":8984:8987   */\n      dup4\n        /* \"#utility.yul\":8908:8991   */\n      tag_108\n      jump\t// in\n    tag_196:\n        /* \"#utility.yul\":8901:8991   */\n      swap2\n      pop\n        /* \"#utility.yul\":9000:9093   */\n      tag_197\n        /* \"#utility.yul\":9089:9092   */\n      dup3\n        /* \"#utility.yul\":9000:9093   */\n      tag_109\n      jump\t// in\n    tag_197:\n        /* \"#utility.yul\":9118:9119   */\n      0x00\n        /* \"#utility.yul\":9113:9116   */\n      dup3\n        /* \"#utility.yul\":9109:9120   */\n      add\n        /* \"#utility.yul\":9102:9120   */\n      swap1\n      pop\n        /* \"#utility.yul\":8728:9126   */\n      swap2\n      swap1\n      pop\n      jump\t// out\n        /* \"#utility.yul\":9132:9511   */\n    tag_63:\n        /* \"#utility.yul\":9316:9319   */\n      0x00\n        /* \"#utility.yul\":9338:9485   */\n      tag_199\n        /* \"#utility.yul\":9481:9484   */\n      dup3\n        /* \"#utility.yul\":9338:9485   */\n      tag_110\n      jump\t// in\n    tag_199:\n        /* \"#utility.yul\":9331:9485   */\n      swap2\n      pop\n        /* \"#utility.yul\":9502:9505   */\n      dup2\n        /* \"#utility.yul\":9495:9505   */\n      swap1\n      pop\n        /* \"#utility.yul\":9132:9511   */\n      swap2\n      swap1\n      pop\n      jump\t// out\n        /* \"#utility.yul\":9517:9688   */\n    tag_111:\n        /* \"#utility.yul\":9657:9680   */\n      0x4574686572207472616e73666572206661696c65640000000000000000000000\n        /* \"#utility.yul\":9653:9654   */\n      0x00\n        /* \"#utility.yul\":9645:9651   */\n      dup3\n        /* \"#utility.yul\":9641:9655   */\n      add\n        /* \"#utility.yul\":9634:9681   */\n      mstore\n        /* \"#utility.yul\":9517:9688   */\n      pop\n      jump\t// out\n        /* \"#utility.yul\":9694:10060   */\n    tag_112:\n        /* \"#utility.yul\":9836:9839   */\n      0x00\n        /* \"#utility.yul\":9857:9924   */\n      tag_202\n        /* \"#utility.yul\":9921:9923   */\n      0x15\n        /* \"#utility.yul\":9916:9919   */\n      dup4\n        /* \"#utility.yul\":9857:9924   */\n      tag_98\n      jump\t// in\n    tag_202:\n        /* \"#utility.yul\":9850:9924   */\n      swap2\n      pop\n        /* \"#utility.yul\":9933:10026   */\n      tag_203\n        /* \"#utility.yul\":10022:10025   */\n      dup3\n        /* \"#utility.yul\":9933:10026   */\n      tag_111\n      jump\t// in\n    tag_203:\n        /* \"#utility.yul\":10051:10053   */\n      0x20\n        /* \"#utility.yul\":10046:10049   */\n      dup3\n        /* \"#utility.yul\":10042:10054   */\n      add\n        /* \"#utility.yul\":10035:10054   */\n      swap1\n      pop\n        /* \"#utility.yul\":9694:10060   */\n      swap2\n      swap1\n      pop\n      jump\t// out\n        /* \"#utility.yul\":10066:10485   */\n    tag_69:\n        /* \"#utility.yul\":10232:10236   */\n      0x00\n        /* \"#utility.yul\":10270:10272   */\n      0x20\n        /* \"#utility.yul\":10259:10268   */\n      dup3\n        /* \"#utility.yul\":10255:10273   */\n      add\n        /* \"#utility.yul\":10247:10273   */\n      swap1\n      pop\n        /* \"#utility.yul\":10319:10328   */\n      dup2\n        /* \"#utility.yul\":10313:10317   */\n      dup2\n        /* \"#utility.yul\":10309:10329   */\n      sub\n        /* \"#utility.yul\":10305:10306   */\n      0x00\n        /* \"#utility.yul\":10294:10303   */\n      dup4\n        /* \"#utility.yul\":10290:10307   */\n      add\n        /* \"#utility.yul\":10283:10330   */\n      mstore\n        /* \"#utility.yul\":10347:10478   */\n      tag_205\n        /* \"#utility.yul\":10473:10477   */\n      dup2\n        /* \"#utility.yul\":10347:10478   */\n      tag_112\n      jump\t// in\n    tag_205:\n        /* \"#utility.yul\":10339:10478   */\n      swap1\n      pop\n        /* \"#utility.yul\":10066:10485   */\n      swap2\n      swap1\n      pop\n      jump\t// out\n        /* \"#utility.yul\":10491:10667   */\n    tag_113:\n        /* \"#utility.yul\":10631:10659   */\n      0x416374696f6e207265737472696374656420746f2061646d696e000000000000\n        /* \"#utility.yul\":10627:10628   */\n      0x00\n        /* \"#utility.yul\":10619:10625   */\n      dup3\n        /* \"#utility.yul\":10615:10629   */\n      add\n        /* \"#utility.yul\":10608:10660   */\n      mstore\n        /* \"#utility.yul\":10491:10667   */\n      pop\n      jump\t// out\n        /* \"#utility.yul\":10673:11039   */\n    tag_114:\n        /* \"#utility.yul\":10815:10818   */\n      0x00\n        /* \"#utility.yul\":10836:10903   */\n      tag_208\n        /* \"#utility.yul\":10900:10902   */\n      0x1a\n        /* \"#utility.yul\":10895:10898   */\n      dup4\n        /* \"#utility.yul\":10836:10903   */\n      tag_98\n      jump\t// in\n    tag_208:\n        /* \"#utility.yul\":10829:10903   */\n      swap2\n      pop\n        /* \"#utility.yul\":10912:11005   */\n      tag_209\n        /* \"#utility.yul\":11001:11004   */\n      dup3\n        /* \"#utility.yul\":10912:11005   */\n      tag_113\n      jump\t// in\n    tag_209:\n        /* \"#utility.yul\":11030:11032   */\n      0x20\n        /* \"#utility.yul\":11025:11028   */\n      dup3\n        /* \"#utility.yul\":11021:11033   */\n      add\n        /* \"#utility.yul\":11014:11033   */\n      swap1\n      pop\n        /* \"#utility.yul\":10673:11039   */\n      swap2\n      swap1\n      pop\n      jump\t// out\n        /* \"#utility.yul\":11045:11464   */\n    tag_76:\n        /* \"#utility.yul\":11211:11215   */\n      0x00\n        /* \"#utility.yul\":11249:11251   */\n      0x20\n        /* \"#utility.yul\":11238:11247   */\n      dup3\n        /* \"#utility.yul\":11234:11252   */\n      add\n        /* \"#utility.yul\":11226:11252   */\n      swap1\n      pop\n        /* \"#utility.yul\":11298:11307   */\n      dup2\n        /* \"#utility.yul\":11292:11296   */\n      dup2\n        /* \"#utility.yul\":11288:11308   */\n      sub\n        /* \"#utility.yul\":11284:11285   */\n      0x00\n        /* \"#utility.yul\":11273:11282   */\n      dup4\n        /* \"#utility.yul\":11269:11286   */\n      add\n        /* \"#utility.yul\":11262:11309   */\n      mstore\n        /* \"#utility.yul\":11326:11457   */\n      tag_211\n        /* \"#utility.yul\":11452:11456   */\n      dup2\n        /* \"#utility.yul\":11326:11457   */\n      tag_114\n      jump\t// in\n    tag_211:\n        /* \"#utility.yul\":11318:11457   */\n      swap1\n      pop\n        /* \"#utility.yul\":11045:11464   */\n      swap2\n      swap1\n      pop\n      jump\t// out\n        /* \"#utility.yul\":11470:11652   */\n    tag_115:\n        /* \"#utility.yul\":11610:11644   */\n      0x57696e6e65722068617320616c7265616479206265656e2073656c6563746564\n        /* \"#utility.yul\":11606:11607   */\n      0x00\n        /* \"#utility.yul\":11598:11604   */\n      dup3\n        /* \"#utility.yul\":11594:11608   */\n      add\n        /* \"#utility.yul\":11587:11645   */\n      mstore\n        /* \"#utility.yul\":11470:11652   */\n      pop\n      jump\t// out\n        /* \"#utility.yul\":11658:12024   */\n    tag_116:\n        /* \"#utility.yul\":11800:11803   */\n      0x00\n        /* \"#utility.yul\":11821:11888   */\n      tag_214\n        /* \"#utility.yul\":11885:11887   */\n      0x20\n        /* \"#utility.yul\":11880:11883   */\n      dup4\n        /* \"#utility.yul\":11821:11888   */\n      tag_98\n      jump\t// in\n    tag_214:\n        /* \"#utility.yul\":11814:11888   */\n      swap2\n      pop\n        /* \"#utility.yul\":11897:11990   */\n      tag_215\n        /* \"#utility.yul\":11986:11989   */\n      dup3\n        /* \"#utility.yul\":11897:11990   */\n      tag_115\n      jump\t// in\n    tag_215:\n        /* \"#utility.yul\":12015:12017   */\n      0x20\n        /* \"#utility.yul\":12010:12013   */\n      dup3\n        /* \"#utility.yul\":12006:12018   */\n      add\n        /* \"#utility.yul\":11999:12018   */\n      swap1\n      pop\n        /* \"#utility.yul\":11658:12024   */\n      swap2\n      swap1\n      pop\n      jump\t// out\n        /* \"#utility.yul\":12030:12449   */\n    tag_82:\n        /* \"#utility.yul\":12196:12200   */\n      0x00\n        /* \"#utility.yul\":12234:12236   */\n      0x20\n        /* \"#utility.yul\":12223:12232   */\n      dup3\n        /* \"#utility.yul\":12219:12237   */\n      add\n        /* \"#utility.yul\":12211:12237   */\n      swap1\n      pop\n        /* \"#utility.yul\":12283:12292   */\n      dup2\n        /* \"#utility.yul\":12277:12281   */\n      dup2\n        /* \"#utility.yul\":12273:12293   */\n      sub\n        /* \"#utility.yul\":12269:12270   */\n      0x00\n        /* \"#utility.yul\":12258:12267   */\n      dup4\n        /* \"#utility.yul\":12254:12271   */\n      add\n        /* \"#utility.yul\":12247:12294   */\n      mstore\n        /* \"#utility.yul\":12311:12442   */\n      tag_217\n        /* \"#utility.yul\":12437:12441   */\n      dup2\n        /* \"#utility.yul\":12311:12442   */\n      tag_116\n      jump\t// in\n    tag_217:\n        /* \"#utility.yul\":12303:12442   */\n      swap1\n      pop\n        /* \"#utility.yul\":12030:12449   */\n      swap2\n      swap1\n      pop\n      jump\t// out\n\n    auxdata: 0xa2646970667358221220c9e29dc3910305d8672d33ebd5ce4b077cb4a361e6c5c1fb29f1ceef5aeb8e0964736f6c634300081a0033\n}\n",
				"bytecode": {
					"linkReferences": {},
					"object": "60806040525f6001553480156012575f80fd5b50335f806101000a81548173ffffffffffffffffffffffffffffffffffffffff021916908373ffffffffffffffffffffffffffffffffffffffff160217905550610fc18061005f5f395ff3fe60806040526004361061006f575f3560e01c80639a649edc1161004d5780639a649edc146100e4578063a00147fa1461010e578063ab4de6061461014d578063f851a440146101755761006f565b806308196a9e146100735780634ffab34b1461007d57806368876c7b146100a5575b5f80fd5b61007b61019f565b005b348015610088575f80fd5b506100a3600480360381019061009e91906109e5565b610365565b005b3480156100b0575f80fd5b506100cb60048036038101906100c691906109e5565b6105a0565b6040516100db9493929190610a78565b60405180910390f35b3480156100ef575f80fd5b506100f86106f8565b6040516101059190610abb565b60405180910390f35b348015610119575f80fd5b50610134600480360381019061012f91906109e5565b6106fe565b6040516101449493929190610a78565b60405180910390f35b348015610158575f80fd5b50610173600480360381019061016e9190610afe565b610775565b005b348015610180575f80fd5b5061018961098b565b6040516101969190610b3c565b60405180910390f35b5f34116101e1576040517f08c379a00000000000000000000000000000000000000000000000000000000081526004016101d890610bd5565b60405180910390fd5b60405180608001604052803373ffffffffffffffffffffffffffffffffffffffff1681526020013481526020015f73ffffffffffffffffffffffffffffffffffffffff1681526020015f151581525060025f60015481526020019081526020015f205f820151815f015f6101000a81548173ffffffffffffffffffffffffffffffffffffffff021916908373ffffffffffffffffffffffffffffffffffffffff160217905550602082015181600101556040820151816002015f6101000a81548173ffffffffffffffffffffffffffffffffffffffff021916908373ffffffffffffffffffffffffffffffffffffffff16021790555060608201518160020160146101000a81548160ff0219169083151502179055509050503373ffffffffffffffffffffffffffffffffffffffff167f102b1c022315b4acb695ae32c8540b78f97ed01bbd6b8664d58e767144fe24bd34600154604051610344929190610bf3565b60405180910390a260015f81548092919061035e90610c47565b9190505550565b803373ffffffffffffffffffffffffffffffffffffffff1660025f8381526020019081526020015f206002015f9054906101000a900473ffffffffffffffffffffffffffffffffffffffff1673ffffffffffffffffffffffffffffffffffffffff1614610407576040517f08c379a00000000000000000000000000000000000000000000000000000000081526004016103fe90610cfe565b60405180910390fd5b600154821061044b576040517f08c379a000000000000000000000000000000000000000000000000000000000815260040161044290610d66565b60405180910390fd5b60025f8381526020019081526020015f2060020160149054906101000a900460ff16156104ad576040517f08c379a00000000000000000000000000000000000000000000000000000000081526004016104a490610df4565b60405180910390fd5b5f60025f8481526020019081526020015f20600101549050600160025f8581526020019081526020015f2060020160146101000a81548160ff0219169083151502179055505f3373ffffffffffffffffffffffffffffffffffffffff168260405161051790610e3f565b5f6040518083038185875af1925050503d805f8114610551576040519150601f19603f3d011682016040523d82523d5f602084013e610556565b606091505b505090508061059a576040517f08c379a000000000000000000000000000000000000000000000000000000000815260040161059190610e9d565b60405180910390fd5b50505050565b5f805f8060015485106105e8576040517f08c379a00000000000000000000000000000000000000000000000000000000081526004016105df90610d66565b60405180910390fd5b5f60025f8781526020019081526020015f206040518060800160405290815f82015f9054906101000a900473ffffffffffffffffffffffffffffffffffffffff1673ffffffffffffffffffffffffffffffffffffffff1673ffffffffffffffffffffffffffffffffffffffff16815260200160018201548152602001600282015f9054906101000a900473ffffffffffffffffffffffffffffffffffffffff1673ffffffffffffffffffffffffffffffffffffffff1673ffffffffffffffffffffffffffffffffffffffff1681526020016002820160149054906101000a900460ff1615151515815250509050805f01518160200151826040015183606001519450945094509450509193509193565b60015481565b6002602052805f5260405f205f91509050805f015f9054906101000a900473ffffffffffffffffffffffffffffffffffffffff1690806001015490806002015f9054906101000a900473ffffffffffffffffffffffffffffffffffffffff16908060020160149054906101000a900460ff16905084565b5f8054906101000a900473ffffffffffffffffffffffffffffffffffffffff1673ffffffffffffffffffffffffffffffffffffffff163373ffffffffffffffffffffffffffffffffffffffff1614610802576040517f08c379a00000000000000000000000000000000000000000000000000000000081526004016107f990610f05565b60405180910390fd5b6001548210610846576040517f08c379a000000000000000000000000000000000000000000000000000000000815260040161083d90610d66565b60405180910390fd5b5f73ffffffffffffffffffffffffffffffffffffffff1660025f8481526020019081526020015f206002015f9054906101000a900473ffffffffffffffffffffffffffffffffffffffff1673ffffffffffffffffffffffffffffffffffffffff16146108e7576040517f08c379a00000000000000000000000000000000000000000000000000000000081526004016108de90610f6d565b60405180910390fd5b8060025f8481526020019081526020015f206002015f6101000a81548173ffffffffffffffffffffffffffffffffffffffff021916908373ffffffffffffffffffffffffffffffffffffffff1602179055508073ffffffffffffffffffffffffffffffffffffffff167f03fb57eb449654e24e1b240d3d06702cf79362a065d5c0323aee642d4702fa4b8360405161097f9190610abb565b60405180910390a25050565b5f8054906101000a900473ffffffffffffffffffffffffffffffffffffffff1681565b5f80fd5b5f819050919050565b6109c4816109b2565b81146109ce575f80fd5b50565b5f813590506109df816109bb565b92915050565b5f602082840312156109fa576109f96109ae565b5b5f610a07848285016109d1565b91505092915050565b5f73ffffffffffffffffffffffffffffffffffffffff82169050919050565b5f610a3982610a10565b9050919050565b610a4981610a2f565b82525050565b610a58816109b2565b82525050565b5f8115159050919050565b610a7281610a5e565b82525050565b5f608082019050610a8b5f830187610a40565b610a986020830186610a4f565b610aa56040830185610a40565b610ab26060830184610a69565b95945050505050565b5f602082019050610ace5f830184610a4f565b92915050565b610add81610a2f565b8114610ae7575f80fd5b50565b5f81359050610af881610ad4565b92915050565b5f8060408385031215610b1457610b136109ae565b5b5f610b21858286016109d1565b9250506020610b3285828601610aea565b9150509250929050565b5f602082019050610b4f5f830184610a40565b92915050565b5f82825260208201905092915050565b7f446f6e6174696f6e206d7573742062652067726561746572207468616e207a655f8201527f726f000000000000000000000000000000000000000000000000000000000000602082015250565b5f610bbf602283610b55565b9150610bca82610b65565b604082019050919050565b5f6020820190508181035f830152610bec81610bb3565b9050919050565b5f604082019050610c065f830185610a4f565b610c136020830184610a4f565b9392505050565b7f4e487b71000000000000000000000000000000000000000000000000000000005f52601160045260245ffd5b5f610c51826109b2565b91507fffffffffffffffffffffffffffffffffffffffffffffffffffffffffffffffff8203610c8357610c82610c1a565b5b600182019050919050565b7f43616c6c6572206973206e6f74207468652061737369676e65642077696e6e655f8201527f7200000000000000000000000000000000000000000000000000000000000000602082015250565b5f610ce8602183610b55565b9150610cf382610c8e565b604082019050919050565b5f6020820190508181035f830152610d1581610cdc565b9050919050565b7f496e76616c696420636f75706f6e2049440000000000000000000000000000005f82015250565b5f610d50601183610b55565b9150610d5b82610d1c565b602082019050919050565b5f6020820190508181035f830152610d7d81610d44565b9050919050565b7f5468697320636f75706f6e2068617320616c7265616479206265656e20636c615f8201527f696d656400000000000000000000000000000000000000000000000000000000602082015250565b5f610dde602483610b55565b9150610de982610d84565b604082019050919050565b5f6020820190508181035f830152610e0b81610dd2565b9050919050565b5f81905092915050565b50565b5f610e2a5f83610e12565b9150610e3582610e1c565b5f82019050919050565b5f610e4982610e1f565b9150819050919050565b7f4574686572207472616e73666572206661696c656400000000000000000000005f82015250565b5f610e87601583610b55565b9150610e9282610e53565b602082019050919050565b5f6020820190508181035f830152610eb481610e7b565b9050919050565b7f416374696f6e207265737472696374656420746f2061646d696e0000000000005f82015250565b5f610eef601a83610b55565b9150610efa82610ebb565b602082019050919050565b5f6020820190508181035f830152610f1c81610ee3565b9050919050565b7f57696e6e65722068617320616c7265616479206265656e2073656c65637465645f82015250565b5f610f57602083610b55565b9150610f6282610f23565b602082019050919050565b5f6020820190508181035f830152610f8481610f4b565b905091905056fea2646970667358221220c9e29dc3910305d8672d33ebd5ce4b077cb4a361e6c5c1fb29f1ceef5aeb8e0964736f6c634300081a0033",
					"opcodes": "PUSH1 0x80 PUSH1 0x40 MSTORE PUSH0 PUSH1 0x1 SSTORE CALLVALUE DUP1 ISZERO PUSH1 0x12 JUMPI PUSH0 DUP1 REVERT JUMPDEST POP CALLER PUSH0 DUP1 PUSH2 0x100 EXP DUP2 SLOAD DUP2 PUSH20 0xFFFFFFFFFFFFFFFFFFFFFFFFFFFFFFFFFFFFFFFF MUL NOT AND SWAP1 DUP4 PUSH20 0xFFFFFFFFFFFFFFFFFFFFFFFFFFFFFFFFFFFFFFFF AND MUL OR SWAP1 SSTORE POP PUSH2 0xFC1 DUP1 PUSH2 0x5F PUSH0 CODECOPY PUSH0 RETURN INVALID PUSH1 0x80 PUSH1 0x40 MSTORE PUSH1 0x4 CALLDATASIZE LT PUSH2 0x6F JUMPI PUSH0 CALLDATALOAD PUSH1 0xE0 SHR DUP1 PUSH4 0x9A649EDC GT PUSH2 0x4D JUMPI DUP1 PUSH4 0x9A649EDC EQ PUSH2 0xE4 JUMPI DUP1 PUSH4 0xA00147FA EQ PUSH2 0x10E JUMPI DUP1 PUSH4 0xAB4DE606 EQ PUSH2 0x14D JUMPI DUP1 PUSH4 0xF851A440 EQ PUSH2 0x175 JUMPI PUSH2 0x6F JUMP JUMPDEST DUP1 PUSH4 0x8196A9E EQ PUSH2 0x73 JUMPI DUP1 PUSH4 0x4FFAB34B EQ PUSH2 0x7D JUMPI DUP1 PUSH4 0x68876C7B EQ PUSH2 0xA5 JUMPI JUMPDEST PUSH0 DUP1 REVERT JUMPDEST PUSH2 0x7B PUSH2 0x19F JUMP JUMPDEST STOP JUMPDEST CALLVALUE DUP1 ISZERO PUSH2 0x88 JUMPI PUSH0 DUP1 REVERT JUMPDEST POP PUSH2 0xA3 PUSH1 0x4 DUP1 CALLDATASIZE SUB DUP2 ADD SWAP1 PUSH2 0x9E SWAP2 SWAP1 PUSH2 0x9E5 JUMP JUMPDEST PUSH2 0x365 JUMP JUMPDEST STOP JUMPDEST CALLVALUE DUP1 ISZERO PUSH2 0xB0 JUMPI PUSH0 DUP1 REVERT JUMPDEST POP PUSH2 0xCB PUSH1 0x4 DUP1 CALLDATASIZE SUB DUP2 ADD SWAP1 PUSH2 0xC6 SWAP2 SWAP1 PUSH2 0x9E5 JUMP JUMPDEST PUSH2 0x5A0 JUMP JUMPDEST PUSH1 0x40 MLOAD PUSH2 0xDB SWAP5 SWAP4 SWAP3 SWAP2 SWAP1 PUSH2 0xA78 JUMP JUMPDEST PUSH1 0x40 MLOAD DUP1 SWAP2 SUB SWAP1 RETURN JUMPDEST CALLVALUE DUP1 ISZERO PUSH2 0xEF JUMPI PUSH0 DUP1 REVERT JUMPDEST POP PUSH2 0xF8 PUSH2 0x6F8 JUMP JUMPDEST PUSH1 0x40 MLOAD PUSH2 0x105 SWAP2 SWAP1 PUSH2 0xABB JUMP JUMPDEST PUSH1 0x40 MLOAD DUP1 SWAP2 SUB SWAP1 RETURN JUMPDEST CALLVALUE DUP1 ISZERO PUSH2 0x119 JUMPI PUSH0 DUP1 REVERT JUMPDEST POP PUSH2 0x134 PUSH1 0x4 DUP1 CALLDATASIZE SUB DUP2 ADD SWAP1 PUSH2 0x12F SWAP2 SWAP1 PUSH2 0x9E5 JUMP JUMPDEST PUSH2 0x6FE JUMP JUMPDEST PUSH1 0x40 MLOAD PUSH2 0x144 SWAP5 SWAP4 SWAP3 SWAP2 SWAP1 PUSH2 0xA78 JUMP JUMPDEST PUSH1 0x40 MLOAD DUP1 SWAP2 SUB SWAP1 RETURN JUMPDEST CALLVALUE DUP1 ISZERO PUSH2 0x158 JUMPI PUSH0 DUP1 REVERT JUMPDEST POP PUSH2 0x173 PUSH1 0x4 DUP1 CALLDATASIZE SUB DUP2 ADD SWAP1 PUSH2 0x16E SWAP2 SWAP1 PUSH2 0xAFE JUMP JUMPDEST PUSH2 0x775 JUMP JUMPDEST STOP JUMPDEST CALLVALUE DUP1 ISZERO PUSH2 0x180 JUMPI PUSH0 DUP1 REVERT JUMPDEST POP PUSH2 0x189 PUSH2 0x98B JUMP JUMPDEST PUSH1 0x40 MLOAD PUSH2 0x196 SWAP2 SWAP1 PUSH2 0xB3C JUMP JUMPDEST PUSH1 0x40 MLOAD DUP1 SWAP2 SUB SWAP1 RETURN JUMPDEST PUSH0 CALLVALUE GT PUSH2 0x1E1 JUMPI PUSH1 0x40 MLOAD PUSH32 0x8C379A000000000000000000000000000000000000000000000000000000000 DUP2 MSTORE PUSH1 0x4 ADD PUSH2 0x1D8 SWAP1 PUSH2 0xBD5 JUMP JUMPDEST PUSH1 0x40 MLOAD DUP1 SWAP2 SUB SWAP1 REVERT JUMPDEST PUSH1 0x40 MLOAD DUP1 PUSH1 0x80 ADD PUSH1 0x40 MSTORE DUP1 CALLER PUSH20 0xFFFFFFFFFFFFFFFFFFFFFFFFFFFFFFFFFFFFFFFF AND DUP2 MSTORE PUSH1 0x20 ADD CALLVALUE DUP2 MSTORE PUSH1 0x20 ADD PUSH0 PUSH20 0xFFFFFFFFFFFFFFFFFFFFFFFFFFFFFFFFFFFFFFFF AND DUP2 MSTORE PUSH1 0x20 ADD PUSH0 ISZERO ISZERO DUP2 MSTORE POP PUSH1 0x2 PUSH0 PUSH1 0x1 SLOAD DUP2 MSTORE PUSH1 0x20 ADD SWAP1 DUP2 MSTORE PUSH1 0x20 ADD PUSH0 KECCAK256 PUSH0 DUP3 ADD MLOAD DUP2 PUSH0 ADD PUSH0 PUSH2 0x100 EXP DUP2 SLOAD DUP2 PUSH20 0xFFFFFFFFFFFFFFFFFFFFFFFFFFFFFFFFFFFFFFFF MUL NOT AND SWAP1 DUP4 PUSH20 0xFFFFFFFFFFFFFFFFFFFFFFFFFFFFFFFFFFFFFFFF AND MUL OR SWAP1 SSTORE POP PUSH1 0x20 DUP3 ADD MLOAD DUP2 PUSH1 0x1 ADD SSTORE PUSH1 0x40 DUP3 ADD MLOAD DUP2 PUSH1 0x2 ADD PUSH0 PUSH2 0x100 EXP DUP2 SLOAD DUP2 PUSH20 0xFFFFFFFFFFFFFFFFFFFFFFFFFFFFFFFFFFFFFFFF MUL NOT AND SWAP1 DUP4 PUSH20 0xFFFFFFFFFFFFFFFFFFFFFFFFFFFFFFFFFFFFFFFF AND MUL OR SWAP1 SSTORE POP PUSH1 0x60 DUP3 ADD MLOAD DUP2 PUSH1 0x2 ADD PUSH1 0x14 PUSH2 0x100 EXP DUP2 SLOAD DUP2 PUSH1 0xFF MUL NOT AND SWAP1 DUP4 ISZERO ISZERO MUL OR SWAP1 SSTORE POP SWAP1 POP POP CALLER PUSH20 0xFFFFFFFFFFFFFFFFFFFFFFFFFFFFFFFFFFFFFFFF AND PUSH32 0x102B1C022315B4ACB695AE32C8540B78F97ED01BBD6B8664D58E767144FE24BD CALLVALUE PUSH1 0x1 SLOAD PUSH1 0x40 MLOAD PUSH2 0x344 SWAP3 SWAP2 SWAP1 PUSH2 0xBF3 JUMP JUMPDEST PUSH1 0x40 MLOAD DUP1 SWAP2 SUB SWAP1 LOG2 PUSH1 0x1 PUSH0 DUP2 SLOAD DUP1 SWAP3 SWAP2 SWAP1 PUSH2 0x35E SWAP1 PUSH2 0xC47 JUMP JUMPDEST SWAP2 SWAP1 POP SSTORE POP JUMP JUMPDEST DUP1 CALLER PUSH20 0xFFFFFFFFFFFFFFFFFFFFFFFFFFFFFFFFFFFFFFFF AND PUSH1 0x2 PUSH0 DUP4 DUP2 MSTORE PUSH1 0x20 ADD SWAP1 DUP2 MSTORE PUSH1 0x20 ADD PUSH0 KECCAK256 PUSH1 0x2 ADD PUSH0 SWAP1 SLOAD SWAP1 PUSH2 0x100 EXP SWAP1 DIV PUSH20 0xFFFFFFFFFFFFFFFFFFFFFFFFFFFFFFFFFFFFFFFF AND PUSH20 0xFFFFFFFFFFFFFFFFFFFFFFFFFFFFFFFFFFFFFFFF AND EQ PUSH2 0x407 JUMPI PUSH1 0x40 MLOAD PUSH32 0x8C379A000000000000000000000000000000000000000000000000000000000 DUP2 MSTORE PUSH1 0x4 ADD PUSH2 0x3FE SWAP1 PUSH2 0xCFE JUMP JUMPDEST PUSH1 0x40 MLOAD DUP1 SWAP2 SUB SWAP1 REVERT JUMPDEST PUSH1 0x1 SLOAD DUP3 LT PUSH2 0x44B JUMPI PUSH1 0x40 MLOAD PUSH32 0x8C379A000000000000000000000000000000000000000000000000000000000 DUP2 MSTORE PUSH1 0x4 ADD PUSH2 0x442 SWAP1 PUSH2 0xD66 JUMP JUMPDEST PUSH1 0x40 MLOAD DUP1 SWAP2 SUB SWAP1 REVERT JUMPDEST PUSH1 0x2 PUSH0 DUP4 DUP2 MSTORE PUSH1 0x20 ADD SWAP1 DUP2 MSTORE PUSH1 0x20 ADD PUSH0 KECCAK256 PUSH1 0x2 ADD PUSH1 0x14 SWAP1 SLOAD SWAP1 PUSH2 0x100 EXP SWAP1 DIV PUSH1 0xFF AND ISZERO PUSH2 0x4AD JUMPI PUSH1 0x40 MLOAD PUSH32 0x8C379A000000000000000000000000000000000000000000000000000000000 DUP2 MSTORE PUSH1 0x4 ADD PUSH2 0x4A4 SWAP1 PUSH2 0xDF4 JUMP JUMPDEST PUSH1 0x40 MLOAD DUP1 SWAP2 SUB SWAP1 REVERT JUMPDEST PUSH0 PUSH1 0x2 PUSH0 DUP5 DUP2 MSTORE PUSH1 0x20 ADD SWAP1 DUP2 MSTORE PUSH1 0x20 ADD PUSH0 KECCAK256 PUSH1 0x1 ADD SLOAD SWAP1 POP PUSH1 0x1 PUSH1 0x2 PUSH0 DUP6 DUP2 MSTORE PUSH1 0x20 ADD SWAP1 DUP2 MSTORE PUSH1 0x20 ADD PUSH0 KECCAK256 PUSH1 0x2 ADD PUSH1 0x14 PUSH2 0x100 EXP DUP2 SLOAD DUP2 PUSH1 0xFF MUL NOT AND SWAP1 DUP4 ISZERO ISZERO MUL OR SWAP1 SSTORE POP PUSH0 CALLER PUSH20 0xFFFFFFFFFFFFFFFFFFFFFFFFFFFFFFFFFFFFFFFF AND DUP3 PUSH1 0x40 MLOAD PUSH2 0x517 SWAP1 PUSH2 0xE3F JUMP JUMPDEST PUSH0 PUSH1 0x40 MLOAD DUP1 DUP4 SUB DUP2 DUP6 DUP8 GAS CALL SWAP3 POP POP POP RETURNDATASIZE DUP1 PUSH0 DUP2 EQ PUSH2 0x551 JUMPI PUSH1 0x40 MLOAD SWAP2 POP PUSH1 0x1F NOT PUSH1 0x3F RETURNDATASIZE ADD AND DUP3 ADD PUSH1 0x40 MSTORE RETURNDATASIZE DUP3 MSTORE RETURNDATASIZE PUSH0 PUSH1 0x20 DUP5 ADD RETURNDATACOPY PUSH2 0x556 JUMP JUMPDEST PUSH1 0x60 SWAP2 POP JUMPDEST POP POP SWAP1 POP DUP1 PUSH2 0x59A JUMPI PUSH1 0x40 MLOAD PUSH32 0x8C379A000000000000000000000000000000000000000000000000000000000 DUP2 MSTORE PUSH1 0x4 ADD PUSH2 0x591 SWAP1 PUSH2 0xE9D JUMP JUMPDEST PUSH1 0x40 MLOAD DUP1 SWAP2 SUB SWAP1 REVERT JUMPDEST POP POP POP POP JUMP JUMPDEST PUSH0 DUP1 PUSH0 DUP1 PUSH1 0x1 SLOAD DUP6 LT PUSH2 0x5E8 JUMPI PUSH1 0x40 MLOAD PUSH32 0x8C379A000000000000000000000000000000000000000000000000000000000 DUP2 MSTORE PUSH1 0x4 ADD PUSH2 0x5DF SWAP1 PUSH2 0xD66 JUMP JUMPDEST PUSH1 0x40 MLOAD DUP1 SWAP2 SUB SWAP1 REVERT JUMPDEST PUSH0 PUSH1 0x2 PUSH0 DUP8 DUP2 MSTORE PUSH1 0x20 ADD SWAP1 DUP2 MSTORE PUSH1 0x20 ADD PUSH0 KECCAK256 PUSH1 0x40 MLOAD DUP1 PUSH1 0x80 ADD PUSH1 0x40 MSTORE SWAP1 DUP2 PUSH0 DUP3 ADD PUSH0 SWAP1 SLOAD SWAP1 PUSH2 0x100 EXP SWAP1 DIV PUSH20 0xFFFFFFFFFFFFFFFFFFFFFFFFFFFFFFFFFFFFFFFF AND PUSH20 0xFFFFFFFFFFFFFFFFFFFFFFFFFFFFFFFFFFFFFFFF AND PUSH20 0xFFFFFFFFFFFFFFFFFFFFFFFFFFFFFFFFFFFFFFFF AND DUP2 MSTORE PUSH1 0x20 ADD PUSH1 0x1 DUP3 ADD SLOAD DUP2 MSTORE PUSH1 0x20 ADD PUSH1 0x2 DUP3 ADD PUSH0 SWAP1 SLOAD SWAP1 PUSH2 0x100 EXP SWAP1 DIV PUSH20 0xFFFFFFFFFFFFFFFFFFFFFFFFFFFFFFFFFFFFFFFF AND PUSH20 0xFFFFFFFFFFFFFFFFFFFFFFFFFFFFFFFFFFFFFFFF AND PUSH20 0xFFFFFFFFFFFFFFFFFFFFFFFFFFFFFFFFFFFFFFFF AND DUP2 MSTORE PUSH1 0x20 ADD PUSH1 0x2 DUP3 ADD PUSH1 0x14 SWAP1 SLOAD SWAP1 PUSH2 0x100 EXP SWAP1 DIV PUSH1 0xFF AND ISZERO ISZERO ISZERO ISZERO DUP2 MSTORE POP POP SWAP1 POP DUP1 PUSH0 ADD MLOAD DUP2 PUSH1 0x20 ADD MLOAD DUP3 PUSH1 0x40 ADD MLOAD DUP4 PUSH1 0x60 ADD MLOAD SWAP5 POP SWAP5 POP SWAP5 POP SWAP5 POP POP SWAP2 SWAP4 POP SWAP2 SWAP4 JUMP JUMPDEST PUSH1 0x1 SLOAD DUP2 JUMP JUMPDEST PUSH1 0x2 PUSH1 0x20 MSTORE DUP1 PUSH0 MSTORE PUSH1 0x40 PUSH0 KECCAK256 PUSH0 SWAP2 POP SWAP1 POP DUP1 PUSH0 ADD PUSH0 SWAP1 SLOAD SWAP1 PUSH2 0x100 EXP SWAP1 DIV PUSH20 0xFFFFFFFFFFFFFFFFFFFFFFFFFFFFFFFFFFFFFFFF AND SWAP1 DUP1 PUSH1 0x1 ADD SLOAD SWAP1 DUP1 PUSH1 0x2 ADD PUSH0 SWAP1 SLOAD SWAP1 PUSH2 0x100 EXP SWAP1 DIV PUSH20 0xFFFFFFFFFFFFFFFFFFFFFFFFFFFFFFFFFFFFFFFF AND SWAP1 DUP1 PUSH1 0x2 ADD PUSH1 0x14 SWAP1 SLOAD SWAP1 PUSH2 0x100 EXP SWAP1 DIV PUSH1 0xFF AND SWAP1 POP DUP5 JUMP JUMPDEST PUSH0 DUP1 SLOAD SWAP1 PUSH2 0x100 EXP SWAP1 DIV PUSH20 0xFFFFFFFFFFFFFFFFFFFFFFFFFFFFFFFFFFFFFFFF AND PUSH20 0xFFFFFFFFFFFFFFFFFFFFFFFFFFFFFFFFFFFFFFFF AND CALLER PUSH20 0xFFFFFFFFFFFFFFFFFFFFFFFFFFFFFFFFFFFFFFFF AND EQ PUSH2 0x802 JUMPI PUSH1 0x40 MLOAD PUSH32 0x8C379A000000000000000000000000000000000000000000000000000000000 DUP2 MSTORE PUSH1 0x4 ADD PUSH2 0x7F9 SWAP1 PUSH2 0xF05 JUMP JUMPDEST PUSH1 0x40 MLOAD DUP1 SWAP2 SUB SWAP1 REVERT JUMPDEST PUSH1 0x1 SLOAD DUP3 LT PUSH2 0x846 JUMPI PUSH1 0x40 MLOAD PUSH32 0x8C379A000000000000000000000000000000000000000000000000000000000 DUP2 MSTORE PUSH1 0x4 ADD PUSH2 0x83D SWAP1 PUSH2 0xD66 JUMP JUMPDEST PUSH1 0x40 MLOAD DUP1 SWAP2 SUB SWAP1 REVERT JUMPDEST PUSH0 PUSH20 0xFFFFFFFFFFFFFFFFFFFFFFFFFFFFFFFFFFFFFFFF AND PUSH1 0x2 PUSH0 DUP5 DUP2 MSTORE PUSH1 0x20 ADD SWAP1 DUP2 MSTORE PUSH1 0x20 ADD PUSH0 KECCAK256 PUSH1 0x2 ADD PUSH0 SWAP1 SLOAD SWAP1 PUSH2 0x100 EXP SWAP1 DIV PUSH20 0xFFFFFFFFFFFFFFFFFFFFFFFFFFFFFFFFFFFFFFFF AND PUSH20 0xFFFFFFFFFFFFFFFFFFFFFFFFFFFFFFFFFFFFFFFF AND EQ PUSH2 0x8E7 JUMPI PUSH1 0x40 MLOAD PUSH32 0x8C379A000000000000000000000000000000000000000000000000000000000 DUP2 MSTORE PUSH1 0x4 ADD PUSH2 0x8DE SWAP1 PUSH2 0xF6D JUMP JUMPDEST PUSH1 0x40 MLOAD DUP1 SWAP2 SUB SWAP1 REVERT JUMPDEST DUP1 PUSH1 0x2 PUSH0 DUP5 DUP2 MSTORE PUSH1 0x20 ADD SWAP1 DUP2 MSTORE PUSH1 0x20 ADD PUSH0 KECCAK256 PUSH1 0x2 ADD PUSH0 PUSH2 0x100 EXP DUP2 SLOAD DUP2 PUSH20 0xFFFFFFFFFFFFFFFFFFFFFFFFFFFFFFFFFFFFFFFF MUL NOT AND SWAP1 DUP4 PUSH20 0xFFFFFFFFFFFFFFFFFFFFFFFFFFFFFFFFFFFFFFFF AND MUL OR SWAP1 SSTORE POP DUP1 PUSH20 0xFFFFFFFFFFFFFFFFFFFFFFFFFFFFFFFFFFFFFFFF AND PUSH32 0x3FB57EB449654E24E1B240D3D06702CF79362A065D5C0323AEE642D4702FA4B DUP4 PUSH1 0x40 MLOAD PUSH2 0x97F SWAP2 SWAP1 PUSH2 0xABB JUMP JUMPDEST PUSH1 0x40 MLOAD DUP1 SWAP2 SUB SWAP1 LOG2 POP POP JUMP JUMPDEST PUSH0 DUP1 SLOAD SWAP1 PUSH2 0x100 EXP SWAP1 DIV PUSH20 0xFFFFFFFFFFFFFFFFFFFFFFFFFFFFFFFFFFFFFFFF AND DUP2 JUMP JUMPDEST PUSH0 DUP1 REVERT JUMPDEST PUSH0 DUP2 SWAP1 POP SWAP2 SWAP1 POP JUMP JUMPDEST PUSH2 0x9C4 DUP2 PUSH2 0x9B2 JUMP JUMPDEST DUP2 EQ PUSH2 0x9CE JUMPI PUSH0 DUP1 REVERT JUMPDEST POP JUMP JUMPDEST PUSH0 DUP2 CALLDATALOAD SWAP1 POP PUSH2 0x9DF DUP2 PUSH2 0x9BB JUMP JUMPDEST SWAP3 SWAP2 POP POP JUMP JUMPDEST PUSH0 PUSH1 0x20 DUP3 DUP5 SUB SLT ISZERO PUSH2 0x9FA JUMPI PUSH2 0x9F9 PUSH2 0x9AE JUMP JUMPDEST JUMPDEST PUSH0 PUSH2 0xA07 DUP5 DUP3 DUP6 ADD PUSH2 0x9D1 JUMP JUMPDEST SWAP2 POP POP SWAP3 SWAP2 POP POP JUMP JUMPDEST PUSH0 PUSH20 0xFFFFFFFFFFFFFFFFFFFFFFFFFFFFFFFFFFFFFFFF DUP3 AND SWAP1 POP SWAP2 SWAP1 POP JUMP JUMPDEST PUSH0 PUSH2 0xA39 DUP3 PUSH2 0xA10 JUMP JUMPDEST SWAP1 POP SWAP2 SWAP1 POP JUMP JUMPDEST PUSH2 0xA49 DUP2 PUSH2 0xA2F JUMP JUMPDEST DUP3 MSTORE POP POP JUMP JUMPDEST PUSH2 0xA58 DUP2 PUSH2 0x9B2 JUMP JUMPDEST DUP3 MSTORE POP POP JUMP JUMPDEST PUSH0 DUP2 ISZERO ISZERO SWAP1 POP SWAP2 SWAP1 POP JUMP JUMPDEST PUSH2 0xA72 DUP2 PUSH2 0xA5E JUMP JUMPDEST DUP3 MSTORE POP POP JUMP JUMPDEST PUSH0 PUSH1 0x80 DUP3 ADD SWAP1 POP PUSH2 0xA8B PUSH0 DUP4 ADD DUP8 PUSH2 0xA40 JUMP JUMPDEST PUSH2 0xA98 PUSH1 0x20 DUP4 ADD DUP7 PUSH2 0xA4F JUMP JUMPDEST PUSH2 0xAA5 PUSH1 0x40 DUP4 ADD DUP6 PUSH2 0xA40 JUMP JUMPDEST PUSH2 0xAB2 PUSH1 0x60 DUP4 ADD DUP5 PUSH2 0xA69 JUMP JUMPDEST SWAP6 SWAP5 POP POP POP POP POP JUMP JUMPDEST PUSH0 PUSH1 0x20 DUP3 ADD SWAP1 POP PUSH2 0xACE PUSH0 DUP4 ADD DUP5 PUSH2 0xA4F JUMP JUMPDEST SWAP3 SWAP2 POP POP JUMP JUMPDEST PUSH2 0xADD DUP2 PUSH2 0xA2F JUMP JUMPDEST DUP2 EQ PUSH2 0xAE7 JUMPI PUSH0 DUP1 REVERT JUMPDEST POP JUMP JUMPDEST PUSH0 DUP2 CALLDATALOAD SWAP1 POP PUSH2 0xAF8 DUP2 PUSH2 0xAD4 JUMP JUMPDEST SWAP3 SWAP2 POP POP JUMP JUMPDEST PUSH0 DUP1 PUSH1 0x40 DUP4 DUP6 SUB SLT ISZERO PUSH2 0xB14 JUMPI PUSH2 0xB13 PUSH2 0x9AE JUMP JUMPDEST JUMPDEST PUSH0 PUSH2 0xB21 DUP6 DUP3 DUP7 ADD PUSH2 0x9D1 JUMP JUMPDEST SWAP3 POP POP PUSH1 0x20 PUSH2 0xB32 DUP6 DUP3 DUP7 ADD PUSH2 0xAEA JUMP JUMPDEST SWAP2 POP POP SWAP3 POP SWAP3 SWAP1 POP JUMP JUMPDEST PUSH0 PUSH1 0x20 DUP3 ADD SWAP1 POP PUSH2 0xB4F PUSH0 DUP4 ADD DUP5 PUSH2 0xA40 JUMP JUMPDEST SWAP3 SWAP2 POP POP JUMP JUMPDEST PUSH0 DUP3 DUP3 MSTORE PUSH1 0x20 DUP3 ADD SWAP1 POP SWAP3 SWAP2 POP POP JUMP JUMPDEST PUSH32 0x446F6E6174696F6E206D7573742062652067726561746572207468616E207A65 PUSH0 DUP3 ADD MSTORE PUSH32 0x726F000000000000000000000000000000000000000000000000000000000000 PUSH1 0x20 DUP3 ADD MSTORE POP JUMP JUMPDEST PUSH0 PUSH2 0xBBF PUSH1 0x22 DUP4 PUSH2 0xB55 JUMP JUMPDEST SWAP2 POP PUSH2 0xBCA DUP3 PUSH2 0xB65 JUMP JUMPDEST PUSH1 0x40 DUP3 ADD SWAP1 POP SWAP2 SWAP1 POP JUMP JUMPDEST PUSH0 PUSH1 0x20 DUP3 ADD SWAP1 POP DUP2 DUP2 SUB PUSH0 DUP4 ADD MSTORE PUSH2 0xBEC DUP2 PUSH2 0xBB3 JUMP JUMPDEST SWAP1 POP SWAP2 SWAP1 POP JUMP JUMPDEST PUSH0 PUSH1 0x40 DUP3 ADD SWAP1 POP PUSH2 0xC06 PUSH0 DUP4 ADD DUP6 PUSH2 0xA4F JUMP JUMPDEST PUSH2 0xC13 PUSH1 0x20 DUP4 ADD DUP5 PUSH2 0xA4F JUMP JUMPDEST SWAP4 SWAP3 POP POP POP JUMP JUMPDEST PUSH32 0x4E487B7100000000000000000000000000000000000000000000000000000000 PUSH0 MSTORE PUSH1 0x11 PUSH1 0x4 MSTORE PUSH1 0x24 PUSH0 REVERT JUMPDEST PUSH0 PUSH2 0xC51 DUP3 PUSH2 0x9B2 JUMP JUMPDEST SWAP2 POP PUSH32 0xFFFFFFFFFFFFFFFFFFFFFFFFFFFFFFFFFFFFFFFFFFFFFFFFFFFFFFFFFFFFFFFF DUP3 SUB PUSH2 0xC83 JUMPI PUSH2 0xC82 PUSH2 0xC1A JUMP JUMPDEST JUMPDEST PUSH1 0x1 DUP3 ADD SWAP1 POP SWAP2 SWAP1 POP JUMP JUMPDEST PUSH32 0x43616C6C6572206973206E6F74207468652061737369676E65642077696E6E65 PUSH0 DUP3 ADD MSTORE PUSH32 0x7200000000000000000000000000000000000000000000000000000000000000 PUSH1 0x20 DUP3 ADD MSTORE POP JUMP JUMPDEST PUSH0 PUSH2 0xCE8 PUSH1 0x21 DUP4 PUSH2 0xB55 JUMP JUMPDEST SWAP2 POP PUSH2 0xCF3 DUP3 PUSH2 0xC8E JUMP JUMPDEST PUSH1 0x40 DUP3 ADD SWAP1 POP SWAP2 SWAP1 POP JUMP JUMPDEST PUSH0 PUSH1 0x20 DUP3 ADD SWAP1 POP DUP2 DUP2 SUB PUSH0 DUP4 ADD MSTORE PUSH2 0xD15 DUP2 PUSH2 0xCDC JUMP JUMPDEST SWAP1 POP SWAP2 SWAP1 POP JUMP JUMPDEST PUSH32 0x496E76616C696420636F75706F6E204944000000000000000000000000000000 PUSH0 DUP3 ADD MSTORE POP JUMP JUMPDEST PUSH0 PUSH2 0xD50 PUSH1 0x11 DUP4 PUSH2 0xB55 JUMP JUMPDEST SWAP2 POP PUSH2 0xD5B DUP3 PUSH2 0xD1C JUMP JUMPDEST PUSH1 0x20 DUP3 ADD SWAP1 POP SWAP2 SWAP1 POP JUMP JUMPDEST PUSH0 PUSH1 0x20 DUP3 ADD SWAP1 POP DUP2 DUP2 SUB PUSH0 DUP4 ADD MSTORE PUSH2 0xD7D DUP2 PUSH2 0xD44 JUMP JUMPDEST SWAP1 POP SWAP2 SWAP1 POP JUMP JUMPDEST PUSH32 0x5468697320636F75706F6E2068617320616C7265616479206265656E20636C61 PUSH0 DUP3 ADD MSTORE PUSH32 0x696D656400000000000000000000000000000000000000000000000000000000 PUSH1 0x20 DUP3 ADD MSTORE POP JUMP JUMPDEST PUSH0 PUSH2 0xDDE PUSH1 0x24 DUP4 PUSH2 0xB55 JUMP JUMPDEST SWAP2 POP PUSH2 0xDE9 DUP3 PUSH2 0xD84 JUMP JUMPDEST PUSH1 0x40 DUP3 ADD SWAP1 POP SWAP2 SWAP1 POP JUMP JUMPDEST PUSH0 PUSH1 0x20 DUP3 ADD SWAP1 POP DUP2 DUP2 SUB PUSH0 DUP4 ADD MSTORE PUSH2 0xE0B DUP2 PUSH2 0xDD2 JUMP JUMPDEST SWAP1 POP SWAP2 SWAP1 POP JUMP JUMPDEST PUSH0 DUP2 SWAP1 POP SWAP3 SWAP2 POP POP JUMP JUMPDEST POP JUMP JUMPDEST PUSH0 PUSH2 0xE2A PUSH0 DUP4 PUSH2 0xE12 JUMP JUMPDEST SWAP2 POP PUSH2 0xE35 DUP3 PUSH2 0xE1C JUMP JUMPDEST PUSH0 DUP3 ADD SWAP1 POP SWAP2 SWAP1 POP JUMP JUMPDEST PUSH0 PUSH2 0xE49 DUP3 PUSH2 0xE1F JUMP JUMPDEST SWAP2 POP DUP2 SWAP1 POP SWAP2 SWAP1 POP JUMP JUMPDEST PUSH32 0x4574686572207472616E73666572206661696C65640000000000000000000000 PUSH0 DUP3 ADD MSTORE POP JUMP JUMPDEST PUSH0 PUSH2 0xE87 PUSH1 0x15 DUP4 PUSH2 0xB55 JUMP JUMPDEST SWAP2 POP PUSH2 0xE92 DUP3 PUSH2 0xE53 JUMP JUMPDEST PUSH1 0x20 DUP3 ADD SWAP1 POP SWAP2 SWAP1 POP JUMP JUMPDEST PUSH0 PUSH1 0x20 DUP3 ADD SWAP1 POP DUP2 DUP2 SUB PUSH0 DUP4 ADD MSTORE PUSH2 0xEB4 DUP2 PUSH2 0xE7B JUMP JUMPDEST SWAP1 POP SWAP2 SWAP1 POP JUMP JUMPDEST PUSH32 0x416374696F6E207265737472696374656420746F2061646D696E000000000000 PUSH0 DUP3 ADD MSTORE POP JUMP JUMPDEST PUSH0 PUSH2 0xEEF PUSH1 0x1A DUP4 PUSH2 0xB55 JUMP JUMPDEST SWAP2 POP PUSH2 0xEFA DUP3 PUSH2 0xEBB JUMP JUMPDEST PUSH1 0x20 DUP3 ADD SWAP1 POP SWAP2 SWAP1 POP JUMP JUMPDEST PUSH0 PUSH1 0x20 DUP3 ADD SWAP1 POP DUP2 DUP2 SUB PUSH0 DUP4 ADD MSTORE PUSH2 0xF1C DUP2 PUSH2 0xEE3 JUMP JUMPDEST SWAP1 POP SWAP2 SWAP1 POP JUMP JUMPDEST PUSH32 0x57696E6E65722068617320616C7265616479206265656E2073656C6563746564 PUSH0 DUP3 ADD MSTORE POP JUMP JUMPDEST PUSH0 PUSH2 0xF57 PUSH1 0x20 DUP4 PUSH2 0xB55 JUMP JUMPDEST SWAP2 POP PUSH2 0xF62 DUP3 PUSH2 0xF23 JUMP JUMPDEST PUSH1 0x20 DUP3 ADD SWAP1 POP SWAP2 SWAP1 POP JUMP JUMPDEST PUSH0 PUSH1 0x20 DUP3 ADD SWAP1 POP DUP2 DUP2 SUB PUSH0 DUP4 ADD MSTORE PUSH2 0xF84 DUP2 PUSH2 0xF4B JUMP JUMPDEST SWAP1 POP SWAP2 SWAP1 POP JUMP INVALID LOG2 PUSH5 0x6970667358 0x22 SLT KECCAK256 0xC9 0xE2 SWAP14 0xC3 SWAP2 SUB SDIV 0xD8 PUSH8 0x2D33EBD5CE4B077C 0xB4 LOG3 PUSH2 0xE6C5 0xC1 0xFB 0x29 CALL 0xCE 0xEF GAS 0xEB DUP15 MULMOD PUSH5 0x736F6C6343 STOP ADDMOD BYTE STOP CALLER "
				},
				"gasEstimates": {
					"creation": {
						"codeDepositCost": "806600",
						"executionCost": "30112",
						"totalCost": "836712"
					},
					"external": {
						"admin()": "2571",
						"couponBook(uint256)": "infinite",
						"createDonation()": "infinite",
						"redeemCoupon(uint256)": "infinite",
						"selectWinner(uint256,address)": "infinite",
						"totalCoupons()": "2425",
						"viewCoupon(uint256)": "infinite"
					}
				},
				"methodIdentifiers": {
					"admin()": "f851a440",
					"couponBook(uint256)": "a00147fa",
					"createDonation()": "08196a9e",
					"redeemCoupon(uint256)": "4ffab34b",
					"selectWinner(uint256,address)": "ab4de606",
					"totalCoupons()": "9a649edc",
					"viewCoupon(uint256)": "68876c7b"
				}
			},
			"storageLayout": {
				"storage": [
					{
						"astId": 3,
						"contract": "contracts/bagibagimario.sol:EtherGiveaway",
						"label": "admin",
						"offset": 0,
						"slot": "0",
						"type": "t_address"
					},
					{
						"astId": 6,
						"contract": "contracts/bagibagimario.sol:EtherGiveaway",
						"label": "totalCoupons",
						"offset": 0,
						"slot": "1",
						"type": "t_uint256"
					},
					{
						"astId": 63,
						"contract": "contracts/bagibagimario.sol:EtherGiveaway",
						"label": "couponBook",
						"offset": 0,
						"slot": "2",
						"type": "t_mapping(t_uint256,t_struct(GiveawayCoupon)58_storage)"
					}
				],
				"types": {
					"t_address": {
						"encoding": "inplace",
						"label": "address",
						"numberOfBytes": "20"
					},
					"t_bool": {
						"encoding": "inplace",
						"label": "bool",
						"numberOfBytes": "1"
					},
					"t_mapping(t_uint256,t_struct(GiveawayCoupon)58_storage)": {
						"encoding": "mapping",
						"key": "t_uint256",
						"label": "mapping(uint256 => struct EtherGiveaway.GiveawayCoupon)",
						"numberOfBytes": "32",
						"value": "t_struct(GiveawayCoupon)58_storage"
					},
					"t_struct(GiveawayCoupon)58_storage": {
						"encoding": "inplace",
						"label": "struct EtherGiveaway.GiveawayCoupon",
						"members": [
							{
								"astId": 51,
								"contract": "contracts/bagibagimario.sol:EtherGiveaway",
								"label": "donor",
								"offset": 0,
								"slot": "0",
								"type": "t_address"
							},
							{
								"astId": 53,
								"contract": "contracts/bagibagimario.sol:EtherGiveaway",
								"label": "etherAmount",
								"offset": 0,
								"slot": "1",
								"type": "t_uint256"
							},
							{
								"astId": 55,
								"contract": "contracts/bagibagimario.sol:EtherGiveaway",
								"label": "winner",
								"offset": 0,
								"slot": "2",
								"type": "t_address"
							},
							{
								"astId": 57,
								"contract": "contracts/bagibagimario.sol:EtherGiveaway",
								"label": "isClaimed",
								"offset": 20,
								"slot": "2",
								"type": "t_bool"
							}
						],
						"numberOfBytes": "96"
					},
					"t_uint256": {
						"encoding": "inplace",
						"label": "uint256",
						"numberOfBytes": "32"
					}
				}
			},
			"userdoc": {
				"kind": "user",
				"methods": {},
				"version": 1
			}
		}
	}
}