{
	"contracts/votingappmario.sol": {
		"ElectionSystem": {
			"abi": [
				{
					"inputs": [],
					"stateMutability": "nonpayable",
					"type": "constructor"
				},
				{
					"anonymous": false,
					"inputs": [
						{
							"indexed": false,
							"internalType": "uint256",
							"name": "candidateId",
							"type": "uint256"
						},
						{
							"indexed": false,
							"internalType": "string",
							"name": "name",
							"type": "string"
						}
					],
					"name": "NewCandidate",
					"type": "event"
				},
				{
					"anonymous": false,
					"inputs": [
						{
							"indexed": false,
							"internalType": "address",
							"name": "voter",
							"type": "address"
						}
					],
					"name": "RegisteredVoter",
					"type": "event"
				},
				{
					"anonymous": false,
					"inputs": [
						{
							"indexed": false,
							"internalType": "address",
							"name": "voter",
							"type": "address"
						},
						{
							"indexed": false,
							"internalType": "uint256",
							"name": "candidateId",
							"type": "uint256"
						}
					],
					"name": "VoteSubmitted",
					"type": "event"
				},
				{
					"anonymous": false,
					"inputs": [],
					"name": "VotingActivated",
					"type": "event"
				},
				{
					"anonymous": false,
					"inputs": [],
					"name": "VotingDeactivated",
					"type": "event"
				},
				{
					"inputs": [],
					"name": "activateVoting",
					"outputs": [],
					"stateMutability": "nonpayable",
					"type": "function"
				},
				{
					"inputs": [
						{
							"internalType": "address",
							"name": "voterAddress",
							"type": "address"
						}
					],
					"name": "authorizeVoter",
					"outputs": [],
					"stateMutability": "nonpayable",
					"type": "function"
				},
				{
					"inputs": [
						{
							"internalType": "uint256",
							"name": "",
							"type": "uint256"
						}
					],
					"name": "candidateList",
					"outputs": [
						{
							"internalType": "uint256",
							"name": "candidateId",
							"type": "uint256"
						},
						{
							"internalType": "string",
							"name": "candidateName",
							"type": "string"
						},
						{
							"internalType": "uint256",
							"name": "totalVotes",
							"type": "uint256"
						}
					],
					"stateMutability": "view",
					"type": "function"
				},
				{
					"inputs": [
						{
							"internalType": "uint256",
							"name": "candidateId",
							"type": "uint256"
						}
					],
					"name": "castVote",
					"outputs": [],
					"stateMutability": "nonpayable",
					"type": "function"
				},
				{
					"inputs": [],
					"name": "checkVotingStatus",
					"outputs": [
						{
							"internalType": "string",
							"name": "",
							"type": "string"
						}
					],
					"stateMutability": "view",
					"type": "function"
				},
				{
					"inputs": [],
					"name": "currentStage",
					"outputs": [
						{
							"internalType": "enum ElectionSystem.VotingStage",
							"name": "",
							"type": "uint8"
						}
					],
					"stateMutability": "view",
					"type": "function"
				},
				{
					"inputs": [],
					"name": "deactivateVoting",
					"outputs": [],
					"stateMutability": "nonpayable",
					"type": "function"
				},
				{
					"inputs": [
						{
							"internalType": "uint256",
							"name": "candidateId",
							"type": "uint256"
						}
					],
					"name": "getVotes",
					"outputs": [
						{
							"internalType": "uint256",
							"name": "",
							"type": "uint256"
						}
					],
					"stateMutability": "view",
					"type": "function"
				},
				{
					"inputs": [],
					"name": "owner",
					"outputs": [
						{
							"internalType": "address",
							"name": "",
							"type": "address"
						}
					],
					"stateMutability": "view",
					"type": "function"
				},
				{
					"inputs": [
						{
							"internalType": "string",
							"name": "name",
							"type": "string"
						}
					],
					"name": "registerCandidate",
					"outputs": [],
					"stateMutability": "nonpayable",
					"type": "function"
				},
				{
					"inputs": [],
					"name": "totalCandidates",
					"outputs": [
						{
							"internalType": "uint256",
							"name": "",
							"type": "uint256"
						}
					],
					"stateMutability": "view",
					"type": "function"
				},
				{
					"inputs": [
						{
							"internalType": "address",
							"name": "",
							"type": "address"
						}
					],
					"name": "voterRegistry",
					"outputs": [
						{
							"internalType": "bool",
							"name": "hasVoted",
							"type": "bool"
						},
						{
							"internalType": "uint256",
							"name": "chosenCandidate",
							"type": "uint256"
						}
					],
					"stateMutability": "view",
					"type": "function"
				}
			],
			"devdoc": {
				"kind": "dev",
				"methods": {},
				"version": 1
			},
			"evm": {
				"assembly": "    /* \"contracts/votingappmario.sol\":60:3546  contract ElectionSystem {... */\n  mstore(0x40, 0x80)\n    /* \"contracts/votingappmario.sol\":1375:1472  constructor() {... */\n  callvalue\n  dup1\n  iszero\n  tag_1\n  jumpi\n  0x00\n  dup1\n  revert\ntag_1:\n  pop\n    /* \"contracts/votingappmario.sol\":1408:1418  msg.sender */\n  caller\n    /* \"contracts/votingappmario.sol\":1400:1405  owner */\n  0x00\n  0x01\n    /* \"contracts/votingappmario.sol\":1400:1418  owner = msg.sender */\n  0x0100\n  exp\n  dup2\n  sload\n  dup2\n  0xffffffffffffffffffffffffffffffffffffffff\n  mul\n  not\n  and\n  swap1\n  dup4\n  0xffffffffffffffffffffffffffffffffffffffff\n  and\n  mul\n  or\n  swap1\n  sstore\n  pop\n    /* \"contracts/votingappmario.sol\":1444:1464  VotingStage.Inactive */\n  0x00\n    /* \"contracts/votingappmario.sol\":1429:1441  currentStage */\n  dup1\n  0x00\n    /* \"contracts/votingappmario.sol\":1429:1464  currentStage = VotingStage.Inactive */\n  0x0100\n  exp\n  dup2\n  sload\n  dup2\n  0xff\n  mul\n  not\n  and\n  swap1\n  dup4\n  0x02\n  dup2\n  gt\n  iszero\n  tag_4\n  jumpi\n  tag_5\n  tag_6\n  jump\t// in\ntag_5:\ntag_4:\n  mul\n  or\n  swap1\n  sstore\n  pop\n    /* \"contracts/votingappmario.sol\":60:3546  contract ElectionSystem {... */\n  jump(tag_7)\n    /* \"#utility.yul\":7:187   */\ntag_6:\n    /* \"#utility.yul\":55:132   */\n  0x4e487b7100000000000000000000000000000000000000000000000000000000\n    /* \"#utility.yul\":52:53   */\n  0x00\n    /* \"#utility.yul\":45:133   */\n  mstore\n    /* \"#utility.yul\":152:156   */\n  0x21\n    /* \"#utility.yul\":149:150   */\n  0x04\n    /* \"#utility.yul\":142:157   */\n  mstore\n    /* \"#utility.yul\":176:180   */\n  0x24\n    /* \"#utility.yul\":173:174   */\n  0x00\n    /* \"#utility.yul\":166:181   */\n  revert\n    /* \"contracts/votingappmario.sol\":60:3546  contract ElectionSystem {... */\ntag_7:\n  dataSize(sub_0)\n  dup1\n  dataOffset(sub_0)\n  0x00\n  codecopy\n  0x00\n  return\nstop\n\nsub_0: assembly {\n        /* \"contracts/votingappmario.sol\":60:3546  contract ElectionSystem {... */\n      mstore(0x40, 0x80)\n      callvalue\n      dup1\n      iszero\n      tag_1\n      jumpi\n      0x00\n      dup1\n      revert\n    tag_1:\n      pop\n      jumpi(tag_2, lt(calldatasize, 0x04))\n      shr(0xe0, calldataload(0x00))\n      dup1\n      0x5bf5d54c\n      gt\n      tag_15\n      jumpi\n      dup1\n      0x5bf5d54c\n      eq\n      tag_9\n      jumpi\n      dup1\n      0x8da5cb5b\n      eq\n      tag_10\n      jumpi\n      dup1\n      0x9eb88db6\n      eq\n      tag_11\n      jumpi\n      dup1\n      0xb13c744b\n      eq\n      tag_12\n      jumpi\n      dup1\n      0xfd47b368\n      eq\n      tag_13\n      jumpi\n      dup1\n      0xff981099\n      eq\n      tag_14\n      jumpi\n      jump(tag_2)\n    tag_15:\n      dup1\n      0x12c56989\n      eq\n      tag_3\n      jumpi\n      dup1\n      0x285078b6\n      eq\n      tag_4\n      jumpi\n      dup1\n      0x3866965c\n      eq\n      tag_5\n      jumpi\n      dup1\n      0x3eb76b9c\n      eq\n      tag_6\n      jumpi\n      dup1\n      0x4763d4e7\n      eq\n      tag_7\n      jumpi\n      dup1\n      0x57500bba\n      eq\n      tag_8\n      jumpi\n    tag_2:\n      0x00\n      dup1\n      revert\n        /* \"contracts/votingappmario.sol\":3248:3543  function checkVotingStatus() external view returns (string memory) {... */\n    tag_3:\n      tag_16\n      tag_17\n      jump\t// in\n    tag_16:\n      mload(0x40)\n      tag_18\n      swap2\n      swap1\n      tag_19\n      jump\t// in\n    tag_18:\n      mload(0x40)\n      dup1\n      swap2\n      sub\n      swap1\n      return\n        /* \"contracts/votingappmario.sol\":2046:2269  function activateVoting() external onlyOwner {... */\n    tag_4:\n      tag_20\n      tag_21\n      jump\t// in\n    tag_20:\n      stop\n        /* \"contracts/votingappmario.sol\":539:569  uint256 public totalCandidates */\n    tag_5:\n      tag_22\n      tag_23\n      jump\t// in\n    tag_22:\n      mload(0x40)\n      tag_24\n      swap2\n      swap1\n      tag_25\n      jump\t// in\n    tag_24:\n      mload(0x40)\n      dup1\n      swap2\n      sub\n      swap1\n      return\n        /* \"contracts/votingappmario.sol\":2573:2974  function castVote(uint256 candidateId) external votingInProgress notVotedYet {... */\n    tag_6:\n      tag_26\n      0x04\n      dup1\n      calldatasize\n      sub\n      dup2\n      add\n      swap1\n      tag_27\n      swap2\n      swap1\n      tag_28\n      jump\t// in\n    tag_27:\n      tag_29\n      jump\t// in\n    tag_26:\n      stop\n        /* \"contracts/votingappmario.sol\":635:688  mapping(address => VoterDetails) public voterRegistry */\n    tag_7:\n      tag_30\n      0x04\n      dup1\n      calldatasize\n      sub\n      dup2\n      add\n      swap1\n      tag_31\n      swap2\n      swap1\n      tag_32\n      jump\t// in\n    tag_31:\n      tag_33\n      jump\t// in\n    tag_30:\n      mload(0x40)\n      tag_34\n      swap3\n      swap2\n      swap1\n      tag_35\n      jump\t// in\n    tag_34:\n      mload(0x40)\n      dup1\n      swap2\n      sub\n      swap1\n      return\n        /* \"contracts/votingappmario.sol\":2322:2533  function deactivateVoting() external onlyOwner {... */\n    tag_8:\n      tag_36\n      tag_37\n      jump\t// in\n    tag_36:\n      stop\n        /* \"contracts/votingappmario.sol\":174:205  VotingStage public currentStage */\n    tag_9:\n      tag_38\n      tag_39\n      jump\t// in\n    tag_38:\n      mload(0x40)\n      tag_40\n      swap2\n      swap1\n      tag_41\n      jump\t// in\n    tag_40:\n      mload(0x40)\n      dup1\n      swap2\n      sub\n      swap1\n      return\n        /* \"contracts/votingappmario.sol\":512:532  address public owner */\n    tag_10:\n      tag_42\n      tag_43\n      jump\t// in\n    tag_42:\n      mload(0x40)\n      tag_44\n      swap2\n      swap1\n      tag_45\n      jump\t// in\n    tag_44:\n      mload(0x40)\n      dup1\n      swap2\n      sub\n      swap1\n      return\n        /* \"contracts/votingappmario.sol\":1525:1761  function registerCandidate(string calldata name) external onlyOwner {... */\n    tag_11:\n      tag_46\n      0x04\n      dup1\n      calldatasize\n      sub\n      dup2\n      add\n      swap1\n      tag_47\n      swap2\n      swap1\n      tag_48\n      jump\t// in\n    tag_47:\n      tag_49\n      jump\t// in\n    tag_46:\n      stop\n        /* \"contracts/votingappmario.sol\":576:628  mapping(uint256 => Participant) public candidateList */\n    tag_12:\n      tag_50\n      0x04\n      dup1\n      calldatasize\n      sub\n      dup2\n      add\n      swap1\n      tag_51\n      swap2\n      swap1\n      tag_28\n      jump\t// in\n    tag_51:\n      tag_52\n      jump\t// in\n    tag_50:\n      mload(0x40)\n      tag_53\n      swap4\n      swap3\n      swap2\n      swap1\n      tag_54\n      jump\t// in\n    tag_53:\n      mload(0x40)\n      dup1\n      swap2\n      sub\n      swap1\n      return\n        /* \"contracts/votingappmario.sol\":1810:1991  function authorizeVoter(address voterAddress) external onlyOwner {... */\n    tag_13:\n      tag_55\n      0x04\n      dup1\n      calldatasize\n      sub\n      dup2\n      add\n      swap1\n      tag_56\n      swap2\n      swap1\n      tag_32\n      jump\t// in\n    tag_56:\n      tag_57\n      jump\t// in\n    tag_55:\n      stop\n        /* \"contracts/votingappmario.sol\":3046:3180  function getVotes(uint256 candidateId) external view returns (uint256) {... */\n    tag_14:\n      tag_58\n      0x04\n      dup1\n      calldatasize\n      sub\n      dup2\n      add\n      swap1\n      tag_59\n      swap2\n      swap1\n      tag_28\n      jump\t// in\n    tag_59:\n      tag_60\n      jump\t// in\n    tag_58:\n      mload(0x40)\n      tag_61\n      swap2\n      swap1\n      tag_25\n      jump\t// in\n    tag_61:\n      mload(0x40)\n      dup1\n      swap2\n      sub\n      swap1\n      return\n        /* \"contracts/votingappmario.sol\":3248:3543  function checkVotingStatus() external view returns (string memory) {... */\n    tag_17:\n        /* \"contracts/votingappmario.sol\":3300:3313  string memory */\n      0x60\n        /* \"contracts/votingappmario.sol\":3346:3366  VotingStage.Inactive */\n      0x00\n        /* \"contracts/votingappmario.sol\":3330:3366  currentStage == VotingStage.Inactive */\n      0x02\n      dup2\n      gt\n      iszero\n      tag_63\n      jumpi\n      tag_64\n      tag_65\n      jump\t// in\n    tag_64:\n    tag_63:\n        /* \"contracts/votingappmario.sol\":3330:3342  currentStage */\n      0x00\n      dup1\n      sload\n      swap1\n      0x0100\n      exp\n      swap1\n      div\n      0xff\n      and\n        /* \"contracts/votingappmario.sol\":3330:3366  currentStage == VotingStage.Inactive */\n      0x02\n      dup2\n      gt\n      iszero\n      tag_66\n      jumpi\n      tag_67\n      tag_65\n      jump\t// in\n    tag_67:\n    tag_66:\n      sub\n        /* \"contracts/votingappmario.sol\":3326:3385  if (currentStage == VotingStage.Inactive) return \"Inactive\" */\n      tag_68\n      jumpi\n        /* \"contracts/votingappmario.sol\":3368:3385  return \"Inactive\" */\n      mload(0x40)\n      dup1\n      0x40\n      add\n      0x40\n      mstore\n      dup1\n      0x08\n      dup2\n      mstore\n      0x20\n      add\n      0x496e616374697665000000000000000000000000000000000000000000000000\n      dup2\n      mstore\n      pop\n      swap1\n      pop\n      jump(tag_62)\n        /* \"contracts/votingappmario.sol\":3326:3385  if (currentStage == VotingStage.Inactive) return \"Inactive\" */\n    tag_68:\n        /* \"contracts/votingappmario.sol\":3416:3434  VotingStage.Active */\n      0x01\n        /* \"contracts/votingappmario.sol\":3400:3434  currentStage == VotingStage.Active */\n      0x02\n      dup2\n      gt\n      iszero\n      tag_69\n      jumpi\n      tag_70\n      tag_65\n      jump\t// in\n    tag_70:\n    tag_69:\n        /* \"contracts/votingappmario.sol\":3400:3412  currentStage */\n      0x00\n      dup1\n      sload\n      swap1\n      0x0100\n      exp\n      swap1\n      div\n      0xff\n      and\n        /* \"contracts/votingappmario.sol\":3400:3434  currentStage == VotingStage.Active */\n      0x02\n      dup2\n      gt\n      iszero\n      tag_71\n      jumpi\n      tag_72\n      tag_65\n      jump\t// in\n    tag_72:\n    tag_71:\n      sub\n        /* \"contracts/votingappmario.sol\":3396:3451  if (currentStage == VotingStage.Active) return \"Active\" */\n      tag_73\n      jumpi\n        /* \"contracts/votingappmario.sol\":3436:3451  return \"Active\" */\n      mload(0x40)\n      dup1\n      0x40\n      add\n      0x40\n      mstore\n      dup1\n      0x06\n      dup2\n      mstore\n      0x20\n      add\n      0x4163746976650000000000000000000000000000000000000000000000000000\n      dup2\n      mstore\n      pop\n      swap1\n      pop\n      jump(tag_62)\n        /* \"contracts/votingappmario.sol\":3396:3451  if (currentStage == VotingStage.Active) return \"Active\" */\n    tag_73:\n        /* \"contracts/votingappmario.sol\":3482:3499  VotingStage.Ended */\n      0x02\n        /* \"contracts/votingappmario.sol\":3466:3499  currentStage == VotingStage.Ended */\n      dup1\n      dup2\n      gt\n      iszero\n      tag_74\n      jumpi\n      tag_75\n      tag_65\n      jump\t// in\n    tag_75:\n    tag_74:\n        /* \"contracts/votingappmario.sol\":3466:3478  currentStage */\n      0x00\n      dup1\n      sload\n      swap1\n      0x0100\n      exp\n      swap1\n      div\n      0xff\n      and\n        /* \"contracts/votingappmario.sol\":3466:3499  currentStage == VotingStage.Ended */\n      0x02\n      dup2\n      gt\n      iszero\n      tag_76\n      jumpi\n      tag_77\n      tag_65\n      jump\t// in\n    tag_77:\n    tag_76:\n      sub\n        /* \"contracts/votingappmario.sol\":3462:3515  if (currentStage == VotingStage.Ended) return \"Ended\" */\n      tag_78\n      jumpi\n        /* \"contracts/votingappmario.sol\":3501:3515  return \"Ended\" */\n      mload(0x40)\n      dup1\n      0x40\n      add\n      0x40\n      mstore\n      dup1\n      0x05\n      dup2\n      mstore\n      0x20\n      add\n      0x456e646564000000000000000000000000000000000000000000000000000000\n      dup2\n      mstore\n      pop\n      swap1\n      pop\n      jump(tag_62)\n        /* \"contracts/votingappmario.sol\":3462:3515  if (currentStage == VotingStage.Ended) return \"Ended\" */\n    tag_78:\n        /* \"contracts/votingappmario.sol\":3526:3535  return \"\" */\n      mload(0x40)\n      dup1\n      0x20\n      add\n      0x40\n      mstore\n      dup1\n      0x00\n      dup2\n      mstore\n      pop\n      swap1\n      pop\n        /* \"contracts/votingappmario.sol\":3248:3543  function checkVotingStatus() external view returns (string memory) {... */\n    tag_62:\n      swap1\n      jump\t// out\n        /* \"contracts/votingappmario.sol\":2046:2269  function activateVoting() external onlyOwner {... */\n    tag_21:\n        /* \"contracts/votingappmario.sol\":1027:1032  owner */\n      0x00\n      0x01\n      swap1\n      sload\n      swap1\n      0x0100\n      exp\n      swap1\n      div\n      0xffffffffffffffffffffffffffffffffffffffff\n      and\n        /* \"contracts/votingappmario.sol\":1013:1032  msg.sender == owner */\n      0xffffffffffffffffffffffffffffffffffffffff\n      and\n        /* \"contracts/votingappmario.sol\":1013:1023  msg.sender */\n      caller\n        /* \"contracts/votingappmario.sol\":1013:1032  msg.sender == owner */\n      0xffffffffffffffffffffffffffffffffffffffff\n      and\n      eq\n        /* \"contracts/votingappmario.sol\":1005:1076  require(msg.sender == owner, \"Access restricted to the contract owner\") */\n      tag_80\n      jumpi\n      mload(0x40)\n      0x08c379a000000000000000000000000000000000000000000000000000000000\n      dup2\n      mstore\n      0x04\n      add\n      tag_81\n      swap1\n      tag_82\n      jump\t// in\n    tag_81:\n      mload(0x40)\n      dup1\n      swap2\n      sub\n      swap1\n      revert\n    tag_80:\n        /* \"contracts/votingappmario.sol\":2126:2146  VotingStage.Inactive */\n      0x00\n        /* \"contracts/votingappmario.sol\":2110:2146  currentStage == VotingStage.Inactive */\n      0x02\n      dup2\n      gt\n      iszero\n      tag_84\n      jumpi\n      tag_85\n      tag_65\n      jump\t// in\n    tag_85:\n    tag_84:\n        /* \"contracts/votingappmario.sol\":2110:2122  currentStage */\n      0x00\n      dup1\n      sload\n      swap1\n      0x0100\n      exp\n      swap1\n      div\n      0xff\n      and\n        /* \"contracts/votingappmario.sol\":2110:2146  currentStage == VotingStage.Inactive */\n      0x02\n      dup2\n      gt\n      iszero\n      tag_86\n      jumpi\n      tag_87\n      tag_65\n      jump\t// in\n    tag_87:\n    tag_86:\n      eq\n        /* \"contracts/votingappmario.sol\":2102:2184  require(currentStage == VotingStage.Inactive, \"Election already started or ended\") */\n      tag_88\n      jumpi\n      mload(0x40)\n      0x08c379a000000000000000000000000000000000000000000000000000000000\n      dup2\n      mstore\n      0x04\n      add\n      tag_89\n      swap1\n      tag_90\n      jump\t// in\n    tag_89:\n      mload(0x40)\n      dup1\n      swap2\n      sub\n      swap1\n      revert\n    tag_88:\n        /* \"contracts/votingappmario.sol\":2210:2228  VotingStage.Active */\n      0x01\n        /* \"contracts/votingappmario.sol\":2195:2207  currentStage */\n      0x00\n      dup1\n        /* \"contracts/votingappmario.sol\":2195:2228  currentStage = VotingStage.Active */\n      0x0100\n      exp\n      dup2\n      sload\n      dup2\n      0xff\n      mul\n      not\n      and\n      swap1\n      dup4\n      0x02\n      dup2\n      gt\n      iszero\n      tag_91\n      jumpi\n      tag_92\n      tag_65\n      jump\t// in\n    tag_92:\n    tag_91:\n      mul\n      or\n      swap1\n      sstore\n      pop\n        /* \"contracts/votingappmario.sol\":2244:2261  VotingActivated() */\n      0x09c349698bc225dad42aba5a0d5675bb82dfa7adbb070506a1f1a7a41090c5c8\n      mload(0x40)\n      mload(0x40)\n      dup1\n      swap2\n      sub\n      swap1\n      log1\n        /* \"contracts/votingappmario.sol\":2046:2269  function activateVoting() external onlyOwner {... */\n      jump\t// out\n        /* \"contracts/votingappmario.sol\":539:569  uint256 public totalCandidates */\n    tag_23:\n      sload(0x01)\n      dup2\n      jump\t// out\n        /* \"contracts/votingappmario.sol\":2573:2974  function castVote(uint256 candidateId) external votingInProgress notVotedYet {... */\n    tag_29:\n        /* \"contracts/votingappmario.sol\":1167:1185  VotingStage.Active */\n      0x01\n        /* \"contracts/votingappmario.sol\":1151:1185  currentStage == VotingStage.Active */\n      0x02\n      dup2\n      gt\n      iszero\n      tag_94\n      jumpi\n      tag_95\n      tag_65\n      jump\t// in\n    tag_95:\n    tag_94:\n        /* \"contracts/votingappmario.sol\":1151:1163  currentStage */\n      0x00\n      dup1\n      sload\n      swap1\n      0x0100\n      exp\n      swap1\n      div\n      0xff\n      and\n        /* \"contracts/votingappmario.sol\":1151:1185  currentStage == VotingStage.Active */\n      0x02\n      dup2\n      gt\n      iszero\n      tag_96\n      jumpi\n      tag_97\n      tag_65\n      jump\t// in\n    tag_97:\n    tag_96:\n      eq\n        /* \"contracts/votingappmario.sol\":1143:1220  require(currentStage == VotingStage.Active, \"Voting is not currently active\") */\n      tag_98\n      jumpi\n      mload(0x40)\n      0x08c379a000000000000000000000000000000000000000000000000000000000\n      dup2\n      mstore\n      0x04\n      add\n      tag_99\n      swap1\n      tag_100\n      jump\t// in\n    tag_99:\n      mload(0x40)\n      dup1\n      swap2\n      sub\n      swap1\n      revert\n    tag_98:\n        /* \"contracts/votingappmario.sol\":1291:1304  voterRegistry */\n      0x03\n        /* \"contracts/votingappmario.sol\":1291:1316  voterRegistry[msg.sender] */\n      0x00\n        /* \"contracts/votingappmario.sol\":1305:1315  msg.sender */\n      caller\n        /* \"contracts/votingappmario.sol\":1291:1316  voterRegistry[msg.sender] */\n      0xffffffffffffffffffffffffffffffffffffffff\n      and\n      0xffffffffffffffffffffffffffffffffffffffff\n      and\n      dup2\n      mstore\n      0x20\n      add\n      swap1\n      dup2\n      mstore\n      0x20\n      add\n      0x00\n      keccak256\n        /* \"contracts/votingappmario.sol\":1291:1325  voterRegistry[msg.sender].hasVoted */\n      0x00\n      add\n      0x00\n      swap1\n      sload\n      swap1\n      0x0100\n      exp\n      swap1\n      div\n      0xff\n      and\n        /* \"contracts/votingappmario.sol\":1290:1325  !voterRegistry[msg.sender].hasVoted */\n      iszero\n        /* \"contracts/votingappmario.sol\":1282:1347  require(!voterRegistry[msg.sender].hasVoted, \"Vote already cast\") */\n      tag_102\n      jumpi\n      mload(0x40)\n      0x08c379a000000000000000000000000000000000000000000000000000000000\n      dup2\n      mstore\n      0x04\n      add\n      tag_103\n      swap1\n      tag_104\n      jump\t// in\n    tag_103:\n      mload(0x40)\n      dup1\n      swap2\n      sub\n      swap1\n      revert\n    tag_102:\n        /* \"contracts/votingappmario.sol\":2711:2712  0 */\n      0x00\n        /* \"contracts/votingappmario.sol\":2669:2682  candidateList */\n      0x02\n        /* \"contracts/votingappmario.sol\":2669:2695  candidateList[candidateId] */\n      0x00\n        /* \"contracts/votingappmario.sol\":2683:2694  candidateId */\n      dup4\n        /* \"contracts/votingappmario.sol\":2669:2695  candidateList[candidateId] */\n      dup2\n      mstore\n      0x20\n      add\n      swap1\n      dup2\n      mstore\n      0x20\n      add\n      0x00\n      keccak256\n        /* \"contracts/votingappmario.sol\":2669:2707  candidateList[candidateId].candidateId */\n      0x00\n      add\n      sload\n        /* \"contracts/votingappmario.sol\":2669:2712  candidateList[candidateId].candidateId != 0 */\n      sub\n        /* \"contracts/votingappmario.sol\":2661:2737  require(candidateList[candidateId].candidateId != 0, \"Invalid candidate ID\") */\n      tag_106\n      jumpi\n      mload(0x40)\n      0x08c379a000000000000000000000000000000000000000000000000000000000\n      dup2\n      mstore\n      0x04\n      add\n      tag_107\n      swap1\n      tag_108\n      jump\t// in\n    tag_107:\n      mload(0x40)\n      dup1\n      swap2\n      sub\n      swap1\n      revert\n    tag_106:\n        /* \"contracts/votingappmario.sol\":2787:2791  true */\n      0x01\n        /* \"contracts/votingappmario.sol\":2750:2763  voterRegistry */\n      0x03\n        /* \"contracts/votingappmario.sol\":2750:2775  voterRegistry[msg.sender] */\n      0x00\n        /* \"contracts/votingappmario.sol\":2764:2774  msg.sender */\n      caller\n        /* \"contracts/votingappmario.sol\":2750:2775  voterRegistry[msg.sender] */\n      0xffffffffffffffffffffffffffffffffffffffff\n      and\n      0xffffffffffffffffffffffffffffffffffffffff\n      and\n      dup2\n      mstore\n      0x20\n      add\n      swap1\n      dup2\n      mstore\n      0x20\n      add\n      0x00\n      keccak256\n        /* \"contracts/votingappmario.sol\":2750:2784  voterRegistry[msg.sender].hasVoted */\n      0x00\n      add\n      0x00\n        /* \"contracts/votingappmario.sol\":2750:2791  voterRegistry[msg.sender].hasVoted = true */\n      0x0100\n      exp\n      dup2\n      sload\n      dup2\n      0xff\n      mul\n      not\n      and\n      swap1\n      dup4\n      iszero\n      iszero\n      mul\n      or\n      swap1\n      sstore\n      pop\n        /* \"contracts/votingappmario.sol\":2846:2857  candidateId */\n      dup1\n        /* \"contracts/votingappmario.sol\":2802:2815  voterRegistry */\n      0x03\n        /* \"contracts/votingappmario.sol\":2802:2827  voterRegistry[msg.sender] */\n      0x00\n        /* \"contracts/votingappmario.sol\":2816:2826  msg.sender */\n      caller\n        /* \"contracts/votingappmario.sol\":2802:2827  voterRegistry[msg.sender] */\n      0xffffffffffffffffffffffffffffffffffffffff\n      and\n      0xffffffffffffffffffffffffffffffffffffffff\n      and\n      dup2\n      mstore\n      0x20\n      add\n      swap1\n      dup2\n      mstore\n      0x20\n      add\n      0x00\n      keccak256\n        /* \"contracts/votingappmario.sol\":2802:2843  voterRegistry[msg.sender].chosenCandidate */\n      0x01\n      add\n        /* \"contracts/votingappmario.sol\":2802:2857  voterRegistry[msg.sender].chosenCandidate = candidateId */\n      dup2\n      swap1\n      sstore\n      pop\n        /* \"contracts/votingappmario.sol\":2909:2910  1 */\n      0x01\n        /* \"contracts/votingappmario.sol\":2868:2881  candidateList */\n      0x02\n        /* \"contracts/votingappmario.sol\":2868:2894  candidateList[candidateId] */\n      0x00\n        /* \"contracts/votingappmario.sol\":2882:2893  candidateId */\n      dup4\n        /* \"contracts/votingappmario.sol\":2868:2894  candidateList[candidateId] */\n      dup2\n      mstore\n      0x20\n      add\n      swap1\n      dup2\n      mstore\n      0x20\n      add\n      0x00\n      keccak256\n        /* \"contracts/votingappmario.sol\":2868:2905  candidateList[candidateId].totalVotes */\n      0x02\n      add\n      0x00\n        /* \"contracts/votingappmario.sol\":2868:2910  candidateList[candidateId].totalVotes += 1 */\n      dup3\n      dup3\n      sload\n      tag_109\n      swap2\n      swap1\n      tag_110\n      jump\t// in\n    tag_109:\n      swap3\n      pop\n      pop\n      dup2\n      swap1\n      sstore\n      pop\n        /* \"contracts/votingappmario.sol\":2928:2966  VoteSubmitted(msg.sender, candidateId) */\n      0x98f81efbbc42e3175555266dc8fda4ea0859ca75447f118fdde2c72a2b8735f1\n        /* \"contracts/votingappmario.sol\":2942:2952  msg.sender */\n      caller\n        /* \"contracts/votingappmario.sol\":2954:2965  candidateId */\n      dup3\n        /* \"contracts/votingappmario.sol\":2928:2966  VoteSubmitted(msg.sender, candidateId) */\n      mload(0x40)\n      tag_111\n      swap3\n      swap2\n      swap1\n      tag_112\n      jump\t// in\n    tag_111:\n      mload(0x40)\n      dup1\n      swap2\n      sub\n      swap1\n      log1\n        /* \"contracts/votingappmario.sol\":2573:2974  function castVote(uint256 candidateId) external votingInProgress notVotedYet {... */\n      pop\n      jump\t// out\n        /* \"contracts/votingappmario.sol\":635:688  mapping(address => VoterDetails) public voterRegistry */\n    tag_33:\n      mstore(0x20, 0x03)\n      dup1\n      0x00\n      mstore\n      keccak256(0x00, 0x40)\n      0x00\n      swap2\n      pop\n      swap1\n      pop\n      dup1\n      0x00\n      add\n      0x00\n      swap1\n      sload\n      swap1\n      0x0100\n      exp\n      swap1\n      div\n      0xff\n      and\n      swap1\n      dup1\n      0x01\n      add\n      sload\n      swap1\n      pop\n      dup3\n      jump\t// out\n        /* \"contracts/votingappmario.sol\":2322:2533  function deactivateVoting() external onlyOwner {... */\n    tag_37:\n        /* \"contracts/votingappmario.sol\":1027:1032  owner */\n      0x00\n      0x01\n      swap1\n      sload\n      swap1\n      0x0100\n      exp\n      swap1\n      div\n      0xffffffffffffffffffffffffffffffffffffffff\n      and\n        /* \"contracts/votingappmario.sol\":1013:1032  msg.sender == owner */\n      0xffffffffffffffffffffffffffffffffffffffff\n      and\n        /* \"contracts/votingappmario.sol\":1013:1023  msg.sender */\n      caller\n        /* \"contracts/votingappmario.sol\":1013:1032  msg.sender == owner */\n      0xffffffffffffffffffffffffffffffffffffffff\n      and\n      eq\n        /* \"contracts/votingappmario.sol\":1005:1076  require(msg.sender == owner, \"Access restricted to the contract owner\") */\n      tag_114\n      jumpi\n      mload(0x40)\n      0x08c379a000000000000000000000000000000000000000000000000000000000\n      dup2\n      mstore\n      0x04\n      add\n      tag_115\n      swap1\n      tag_82\n      jump\t// in\n    tag_115:\n      mload(0x40)\n      dup1\n      swap2\n      sub\n      swap1\n      revert\n    tag_114:\n        /* \"contracts/votingappmario.sol\":2404:2422  VotingStage.Active */\n      0x01\n        /* \"contracts/votingappmario.sol\":2388:2422  currentStage == VotingStage.Active */\n      0x02\n      dup2\n      gt\n      iszero\n      tag_117\n      jumpi\n      tag_118\n      tag_65\n      jump\t// in\n    tag_118:\n    tag_117:\n        /* \"contracts/votingappmario.sol\":2388:2400  currentStage */\n      0x00\n      dup1\n      sload\n      swap1\n      0x0100\n      exp\n      swap1\n      div\n      0xff\n      and\n        /* \"contracts/votingappmario.sol\":2388:2422  currentStage == VotingStage.Active */\n      0x02\n      dup2\n      gt\n      iszero\n      tag_119\n      jumpi\n      tag_120\n      tag_65\n      jump\t// in\n    tag_120:\n    tag_119:\n      eq\n        /* \"contracts/votingappmario.sol\":2380:2447  require(currentStage == VotingStage.Active, \"Voting is not active\") */\n      tag_121\n      jumpi\n      mload(0x40)\n      0x08c379a000000000000000000000000000000000000000000000000000000000\n      dup2\n      mstore\n      0x04\n      add\n      tag_122\n      swap1\n      tag_123\n      jump\t// in\n    tag_122:\n      mload(0x40)\n      dup1\n      swap2\n      sub\n      swap1\n      revert\n    tag_121:\n        /* \"contracts/votingappmario.sol\":2473:2490  VotingStage.Ended */\n      0x02\n        /* \"contracts/votingappmario.sol\":2458:2470  currentStage */\n      0x00\n      dup1\n        /* \"contracts/votingappmario.sol\":2458:2490  currentStage = VotingStage.Ended */\n      0x0100\n      exp\n      dup2\n      sload\n      dup2\n      0xff\n      mul\n      not\n      and\n      swap1\n      dup4\n      0x02\n      dup2\n      gt\n      iszero\n      tag_124\n      jumpi\n      tag_125\n      tag_65\n      jump\t// in\n    tag_125:\n    tag_124:\n      mul\n      or\n      swap1\n      sstore\n      pop\n        /* \"contracts/votingappmario.sol\":2506:2525  VotingDeactivated() */\n      0x9bd4d19f68b3a6e40574077ffaf4cc51a53615ed948cebf6668ac461bee10b76\n      mload(0x40)\n      mload(0x40)\n      dup1\n      swap2\n      sub\n      swap1\n      log1\n        /* \"contracts/votingappmario.sol\":2322:2533  function deactivateVoting() external onlyOwner {... */\n      jump\t// out\n        /* \"contracts/votingappmario.sol\":174:205  VotingStage public currentStage */\n    tag_39:\n      0x00\n      dup1\n      sload\n      swap1\n      0x0100\n      exp\n      swap1\n      div\n      0xff\n      and\n      dup2\n      jump\t// out\n        /* \"contracts/votingappmario.sol\":512:532  address public owner */\n    tag_43:\n      0x00\n      0x01\n      swap1\n      sload\n      swap1\n      0x0100\n      exp\n      swap1\n      div\n      0xffffffffffffffffffffffffffffffffffffffff\n      and\n      dup2\n      jump\t// out\n        /* \"contracts/votingappmario.sol\":1525:1761  function registerCandidate(string calldata name) external onlyOwner {... */\n    tag_49:\n        /* \"contracts/votingappmario.sol\":1027:1032  owner */\n      0x00\n      0x01\n      swap1\n      sload\n      swap1\n      0x0100\n      exp\n      swap1\n      div\n      0xffffffffffffffffffffffffffffffffffffffff\n      and\n        /* \"contracts/votingappmario.sol\":1013:1032  msg.sender == owner */\n      0xffffffffffffffffffffffffffffffffffffffff\n      and\n        /* \"contracts/votingappmario.sol\":1013:1023  msg.sender */\n      caller\n        /* \"contracts/votingappmario.sol\":1013:1032  msg.sender == owner */\n      0xffffffffffffffffffffffffffffffffffffffff\n      and\n      eq\n        /* \"contracts/votingappmario.sol\":1005:1076  require(msg.sender == owner, \"Access restricted to the contract owner\") */\n      tag_127\n      jumpi\n      mload(0x40)\n      0x08c379a000000000000000000000000000000000000000000000000000000000\n      dup2\n      mstore\n      0x04\n      add\n      tag_128\n      swap1\n      tag_82\n      jump\t// in\n    tag_128:\n      mload(0x40)\n      dup1\n      swap2\n      sub\n      swap1\n      revert\n    tag_127:\n        /* \"contracts/votingappmario.sol\":1604:1619  totalCandidates */\n      0x01\n      0x00\n        /* \"contracts/votingappmario.sol\":1604:1621  totalCandidates++ */\n      dup2\n      sload\n      dup1\n      swap3\n      swap2\n      swap1\n      tag_130\n      swap1\n      tag_131\n      jump\t// in\n    tag_130:\n      swap2\n      swap1\n      pop\n      sstore\n      pop\n        /* \"contracts/votingappmario.sol\":1665:1702  Participant(totalCandidates, name, 0) */\n      mload(0x40)\n      dup1\n      0x60\n      add\n      0x40\n      mstore\n      dup1\n        /* \"contracts/votingappmario.sol\":1677:1692  totalCandidates */\n      sload(0x01)\n        /* \"contracts/votingappmario.sol\":1665:1702  Participant(totalCandidates, name, 0) */\n      dup2\n      mstore\n      0x20\n      add\n        /* \"contracts/votingappmario.sol\":1694:1698  name */\n      dup4\n      dup4\n        /* \"contracts/votingappmario.sol\":1665:1702  Participant(totalCandidates, name, 0) */\n      dup1\n      dup1\n      0x1f\n      add\n      0x20\n      dup1\n      swap2\n      div\n      mul\n      0x20\n      add\n      mload(0x40)\n      swap1\n      dup2\n      add\n      0x40\n      mstore\n      dup1\n      swap4\n      swap3\n      swap2\n      swap1\n      dup2\n      dup2\n      mstore\n      0x20\n      add\n      dup4\n      dup4\n      dup1\n      dup3\n      dup5\n      calldatacopy\n      0x00\n      dup2\n      dup5\n      add\n      mstore\n      not(0x1f)\n      0x1f\n      dup3\n      add\n      and\n      swap1\n      pop\n      dup1\n      dup4\n      add\n      swap3\n      pop\n      pop\n      pop\n      pop\n      pop\n      pop\n      pop\n      dup2\n      mstore\n      0x20\n      add\n        /* \"contracts/votingappmario.sol\":1700:1701  0 */\n      0x00\n        /* \"contracts/votingappmario.sol\":1665:1702  Participant(totalCandidates, name, 0) */\n      dup2\n      mstore\n      pop\n        /* \"contracts/votingappmario.sol\":1632:1645  candidateList */\n      0x02\n        /* \"contracts/votingappmario.sol\":1632:1662  candidateList[totalCandidates] */\n      0x00\n        /* \"contracts/votingappmario.sol\":1646:1661  totalCandidates */\n      sload(0x01)\n        /* \"contracts/votingappmario.sol\":1632:1662  candidateList[totalCandidates] */\n      dup2\n      mstore\n      0x20\n      add\n      swap1\n      dup2\n      mstore\n      0x20\n      add\n      0x00\n      keccak256\n        /* \"contracts/votingappmario.sol\":1632:1702  candidateList[totalCandidates] = Participant(totalCandidates, name, 0) */\n      0x00\n      dup3\n      add\n      mload\n      dup2\n      0x00\n      add\n      sstore\n      0x20\n      dup3\n      add\n      mload\n      dup2\n      0x01\n      add\n      swap1\n      dup2\n      tag_132\n      swap2\n      swap1\n      tag_133\n      jump\t// in\n    tag_132:\n      pop\n      0x40\n      dup3\n      add\n      mload\n      dup2\n      0x02\n      add\n      sstore\n      swap1\n      pop\n      pop\n        /* \"contracts/votingappmario.sol\":1718:1753  NewCandidate(totalCandidates, name) */\n      0x01c6feb6a218293c8f849426e09abdca9d0d75e57e2255b6a7942add2bb3cb90\n        /* \"contracts/votingappmario.sol\":1731:1746  totalCandidates */\n      sload(0x01)\n        /* \"contracts/votingappmario.sol\":1748:1752  name */\n      dup4\n      dup4\n        /* \"contracts/votingappmario.sol\":1718:1753  NewCandidate(totalCandidates, name) */\n      mload(0x40)\n      tag_134\n      swap4\n      swap3\n      swap2\n      swap1\n      tag_135\n      jump\t// in\n    tag_134:\n      mload(0x40)\n      dup1\n      swap2\n      sub\n      swap1\n      log1\n        /* \"contracts/votingappmario.sol\":1525:1761  function registerCandidate(string calldata name) external onlyOwner {... */\n      pop\n      pop\n      jump\t// out\n        /* \"contracts/votingappmario.sol\":576:628  mapping(uint256 => Participant) public candidateList */\n    tag_52:\n      mstore(0x20, 0x02)\n      dup1\n      0x00\n      mstore\n      keccak256(0x00, 0x40)\n      0x00\n      swap2\n      pop\n      swap1\n      pop\n      dup1\n      0x00\n      add\n      sload\n      swap1\n      dup1\n      0x01\n      add\n      dup1\n      sload\n      tag_136\n      swap1\n      tag_137\n      jump\t// in\n    tag_136:\n      dup1\n      0x1f\n      add\n      0x20\n      dup1\n      swap2\n      div\n      mul\n      0x20\n      add\n      mload(0x40)\n      swap1\n      dup2\n      add\n      0x40\n      mstore\n      dup1\n      swap3\n      swap2\n      swap1\n      dup2\n      dup2\n      mstore\n      0x20\n      add\n      dup3\n      dup1\n      sload\n      tag_138\n      swap1\n      tag_137\n      jump\t// in\n    tag_138:\n      dup1\n      iszero\n      tag_139\n      jumpi\n      dup1\n      0x1f\n      lt\n      tag_140\n      jumpi\n      0x0100\n      dup1\n      dup4\n      sload\n      div\n      mul\n      dup4\n      mstore\n      swap2\n      0x20\n      add\n      swap2\n      jump(tag_139)\n    tag_140:\n      dup3\n      add\n      swap2\n      swap1\n      0x00\n      mstore\n      keccak256(0x00, 0x20)\n      swap1\n    tag_141:\n      dup2\n      sload\n      dup2\n      mstore\n      swap1\n      0x01\n      add\n      swap1\n      0x20\n      add\n      dup1\n      dup4\n      gt\n      tag_141\n      jumpi\n      dup3\n      swap1\n      sub\n      0x1f\n      and\n      dup3\n      add\n      swap2\n    tag_139:\n      pop\n      pop\n      pop\n      pop\n      pop\n      swap1\n      dup1\n      0x02\n      add\n      sload\n      swap1\n      pop\n      dup4\n      jump\t// out\n        /* \"contracts/votingappmario.sol\":1810:1991  function authorizeVoter(address voterAddress) external onlyOwner {... */\n    tag_57:\n        /* \"contracts/votingappmario.sol\":1027:1032  owner */\n      0x00\n      0x01\n      swap1\n      sload\n      swap1\n      0x0100\n      exp\n      swap1\n      div\n      0xffffffffffffffffffffffffffffffffffffffff\n      and\n        /* \"contracts/votingappmario.sol\":1013:1032  msg.sender == owner */\n      0xffffffffffffffffffffffffffffffffffffffff\n      and\n        /* \"contracts/votingappmario.sol\":1013:1023  msg.sender */\n      caller\n        /* \"contracts/votingappmario.sol\":1013:1032  msg.sender == owner */\n      0xffffffffffffffffffffffffffffffffffffffff\n      and\n      eq\n        /* \"contracts/votingappmario.sol\":1005:1076  require(msg.sender == owner, \"Access restricted to the contract owner\") */\n      tag_143\n      jumpi\n      mload(0x40)\n      0x08c379a000000000000000000000000000000000000000000000000000000000\n      dup2\n      mstore\n      0x04\n      add\n      tag_144\n      swap1\n      tag_82\n      jump\t// in\n    tag_144:\n      mload(0x40)\n      dup1\n      swap2\n      sub\n      swap1\n      revert\n    tag_143:\n        /* \"contracts/votingappmario.sol\":1916:1938  VoterDetails(false, 0) */\n      mload(0x40)\n      dup1\n      0x40\n      add\n      0x40\n      mstore\n      dup1\n        /* \"contracts/votingappmario.sol\":1929:1934  false */\n      0x00\n        /* \"contracts/votingappmario.sol\":1916:1938  VoterDetails(false, 0) */\n      iszero\n      iszero\n      dup2\n      mstore\n      0x20\n      add\n        /* \"contracts/votingappmario.sol\":1936:1937  0 */\n      0x00\n        /* \"contracts/votingappmario.sol\":1916:1938  VoterDetails(false, 0) */\n      dup2\n      mstore\n      pop\n        /* \"contracts/votingappmario.sol\":1886:1899  voterRegistry */\n      0x03\n        /* \"contracts/votingappmario.sol\":1886:1913  voterRegistry[voterAddress] */\n      0x00\n        /* \"contracts/votingappmario.sol\":1900:1912  voterAddress */\n      dup4\n        /* \"contracts/votingappmario.sol\":1886:1913  voterRegistry[voterAddress] */\n      0xffffffffffffffffffffffffffffffffffffffff\n      and\n      0xffffffffffffffffffffffffffffffffffffffff\n      and\n      dup2\n      mstore\n      0x20\n      add\n      swap1\n      dup2\n      mstore\n      0x20\n      add\n      0x00\n      keccak256\n        /* \"contracts/votingappmario.sol\":1886:1938  voterRegistry[voterAddress] = VoterDetails(false, 0) */\n      0x00\n      dup3\n      add\n      mload\n      dup2\n      0x00\n      add\n      exp(0x0100, 0x00)\n      dup2\n      sload\n      dup2\n      0xff\n      mul\n      not\n      and\n      swap1\n      dup4\n      iszero\n      iszero\n      mul\n      or\n      swap1\n      sstore\n      pop\n      0x20\n      dup3\n      add\n      mload\n      dup2\n      0x01\n      add\n      sstore\n      swap1\n      pop\n      pop\n        /* \"contracts/votingappmario.sol\":1954:1983  RegisteredVoter(voterAddress) */\n      0x5ead487500813570a0cb797743855abbc51c66c9b3793ce6fdb0bf967a562f49\n        /* \"contracts/votingappmario.sol\":1970:1982  voterAddress */\n      dup2\n        /* \"contracts/votingappmario.sol\":1954:1983  RegisteredVoter(voterAddress) */\n      mload(0x40)\n      tag_146\n      swap2\n      swap1\n      tag_45\n      jump\t// in\n    tag_146:\n      mload(0x40)\n      dup1\n      swap2\n      sub\n      swap1\n      log1\n        /* \"contracts/votingappmario.sol\":1810:1991  function authorizeVoter(address voterAddress) external onlyOwner {... */\n      pop\n      jump\t// out\n        /* \"contracts/votingappmario.sol\":3046:3180  function getVotes(uint256 candidateId) external view returns (uint256) {... */\n    tag_60:\n        /* \"contracts/votingappmario.sol\":3108:3115  uint256 */\n      0x00\n        /* \"contracts/votingappmario.sol\":3135:3148  candidateList */\n      0x02\n        /* \"contracts/votingappmario.sol\":3135:3161  candidateList[candidateId] */\n      0x00\n        /* \"contracts/votingappmario.sol\":3149:3160  candidateId */\n      dup4\n        /* \"contracts/votingappmario.sol\":3135:3161  candidateList[candidateId] */\n      dup2\n      mstore\n      0x20\n      add\n      swap1\n      dup2\n      mstore\n      0x20\n      add\n      0x00\n      keccak256\n        /* \"contracts/votingappmario.sol\":3135:3172  candidateList[candidateId].totalVotes */\n      0x02\n      add\n      sload\n        /* \"contracts/votingappmario.sol\":3128:3172  return candidateList[candidateId].totalVotes */\n      swap1\n      pop\n        /* \"contracts/votingappmario.sol\":3046:3180  function getVotes(uint256 candidateId) external view returns (uint256) {... */\n      swap2\n      swap1\n      pop\n      jump\t// out\n        /* \"#utility.yul\":7:106   */\n    tag_148:\n        /* \"#utility.yul\":59:65   */\n      0x00\n        /* \"#utility.yul\":93:98   */\n      dup2\n        /* \"#utility.yul\":87:99   */\n      mload\n        /* \"#utility.yul\":77:99   */\n      swap1\n      pop\n        /* \"#utility.yul\":7:106   */\n      swap2\n      swap1\n      pop\n      jump\t// out\n        /* \"#utility.yul\":112:281   */\n    tag_149:\n        /* \"#utility.yul\":196:207   */\n      0x00\n        /* \"#utility.yul\":230:236   */\n      dup3\n        /* \"#utility.yul\":225:228   */\n      dup3\n        /* \"#utility.yul\":218:237   */\n      mstore\n        /* \"#utility.yul\":270:274   */\n      0x20\n        /* \"#utility.yul\":265:268   */\n      dup3\n        /* \"#utility.yul\":261:275   */\n      add\n        /* \"#utility.yul\":246:275   */\n      swap1\n      pop\n        /* \"#utility.yul\":112:281   */\n      swap3\n      swap2\n      pop\n      pop\n      jump\t// out\n        /* \"#utility.yul\":287:426   */\n    tag_150:\n        /* \"#utility.yul\":376:382   */\n      dup3\n        /* \"#utility.yul\":371:374   */\n      dup2\n        /* \"#utility.yul\":366:369   */\n      dup4\n        /* \"#utility.yul\":360:383   */\n      mcopy\n        /* \"#utility.yul\":417:418   */\n      0x00\n        /* \"#utility.yul\":408:414   */\n      dup4\n        /* \"#utility.yul\":403:406   */\n      dup4\n        /* \"#utility.yul\":399:415   */\n      add\n        /* \"#utility.yul\":392:419   */\n      mstore\n        /* \"#utility.yul\":287:426   */\n      pop\n      pop\n      pop\n      jump\t// out\n        /* \"#utility.yul\":432:534   */\n    tag_151:\n        /* \"#utility.yul\":473:479   */\n      0x00\n        /* \"#utility.yul\":524:526   */\n      0x1f\n        /* \"#utility.yul\":520:527   */\n      not\n        /* \"#utility.yul\":515:517   */\n      0x1f\n        /* \"#utility.yul\":508:513   */\n      dup4\n        /* \"#utility.yul\":504:518   */\n      add\n        /* \"#utility.yul\":500:528   */\n      and\n        /* \"#utility.yul\":490:528   */\n      swap1\n      pop\n        /* \"#utility.yul\":432:534   */\n      swap2\n      swap1\n      pop\n      jump\t// out\n        /* \"#utility.yul\":540:917   */\n    tag_152:\n        /* \"#utility.yul\":628:631   */\n      0x00\n        /* \"#utility.yul\":656:695   */\n      tag_213\n        /* \"#utility.yul\":689:694   */\n      dup3\n        /* \"#utility.yul\":656:695   */\n      tag_148\n      jump\t// in\n    tag_213:\n        /* \"#utility.yul\":711:782   */\n      tag_214\n        /* \"#utility.yul\":775:781   */\n      dup2\n        /* \"#utility.yul\":770:773   */\n      dup6\n        /* \"#utility.yul\":711:782   */\n      tag_149\n      jump\t// in\n    tag_214:\n        /* \"#utility.yul\":704:782   */\n      swap4\n      pop\n        /* \"#utility.yul\":791:856   */\n      tag_215\n        /* \"#utility.yul\":849:855   */\n      dup2\n        /* \"#utility.yul\":844:847   */\n      dup6\n        /* \"#utility.yul\":837:841   */\n      0x20\n        /* \"#utility.yul\":830:835   */\n      dup7\n        /* \"#utility.yul\":826:842   */\n      add\n        /* \"#utility.yul\":791:856   */\n      tag_150\n      jump\t// in\n    tag_215:\n        /* \"#utility.yul\":881:910   */\n      tag_216\n        /* \"#utility.yul\":903:909   */\n      dup2\n        /* \"#utility.yul\":881:910   */\n      tag_151\n      jump\t// in\n    tag_216:\n        /* \"#utility.yul\":876:879   */\n      dup5\n        /* \"#utility.yul\":872:911   */\n      add\n        /* \"#utility.yul\":865:911   */\n      swap2\n      pop\n        /* \"#utility.yul\":632:917   */\n      pop\n        /* \"#utility.yul\":540:917   */\n      swap3\n      swap2\n      pop\n      pop\n      jump\t// out\n        /* \"#utility.yul\":923:1236   */\n    tag_19:\n        /* \"#utility.yul\":1036:1040   */\n      0x00\n        /* \"#utility.yul\":1074:1076   */\n      0x20\n        /* \"#utility.yul\":1063:1072   */\n      dup3\n        /* \"#utility.yul\":1059:1077   */\n      add\n        /* \"#utility.yul\":1051:1077   */\n      swap1\n      pop\n        /* \"#utility.yul\":1123:1132   */\n      dup2\n        /* \"#utility.yul\":1117:1121   */\n      dup2\n        /* \"#utility.yul\":1113:1133   */\n      sub\n        /* \"#utility.yul\":1109:1110   */\n      0x00\n        /* \"#utility.yul\":1098:1107   */\n      dup4\n        /* \"#utility.yul\":1094:1111   */\n      add\n        /* \"#utility.yul\":1087:1134   */\n      mstore\n        /* \"#utility.yul\":1151:1229   */\n      tag_218\n        /* \"#utility.yul\":1224:1228   */\n      dup2\n        /* \"#utility.yul\":1215:1221   */\n      dup5\n        /* \"#utility.yul\":1151:1229   */\n      tag_152\n      jump\t// in\n    tag_218:\n        /* \"#utility.yul\":1143:1229   */\n      swap1\n      pop\n        /* \"#utility.yul\":923:1236   */\n      swap3\n      swap2\n      pop\n      pop\n      jump\t// out\n        /* \"#utility.yul\":1242:1319   */\n    tag_153:\n        /* \"#utility.yul\":1279:1286   */\n      0x00\n        /* \"#utility.yul\":1308:1313   */\n      dup2\n        /* \"#utility.yul\":1297:1313   */\n      swap1\n      pop\n        /* \"#utility.yul\":1242:1319   */\n      swap2\n      swap1\n      pop\n      jump\t// out\n        /* \"#utility.yul\":1325:1443   */\n    tag_154:\n        /* \"#utility.yul\":1412:1436   */\n      tag_221\n        /* \"#utility.yul\":1430:1435   */\n      dup2\n        /* \"#utility.yul\":1412:1436   */\n      tag_153\n      jump\t// in\n    tag_221:\n        /* \"#utility.yul\":1407:1410   */\n      dup3\n        /* \"#utility.yul\":1400:1437   */\n      mstore\n        /* \"#utility.yul\":1325:1443   */\n      pop\n      pop\n      jump\t// out\n        /* \"#utility.yul\":1449:1671   */\n    tag_25:\n        /* \"#utility.yul\":1542:1546   */\n      0x00\n        /* \"#utility.yul\":1580:1582   */\n      0x20\n        /* \"#utility.yul\":1569:1578   */\n      dup3\n        /* \"#utility.yul\":1565:1583   */\n      add\n        /* \"#utility.yul\":1557:1583   */\n      swap1\n      pop\n        /* \"#utility.yul\":1593:1664   */\n      tag_223\n        /* \"#utility.yul\":1661:1662   */\n      0x00\n        /* \"#utility.yul\":1650:1659   */\n      dup4\n        /* \"#utility.yul\":1646:1663   */\n      add\n        /* \"#utility.yul\":1637:1643   */\n      dup5\n        /* \"#utility.yul\":1593:1664   */\n      tag_154\n      jump\t// in\n    tag_223:\n        /* \"#utility.yul\":1449:1671   */\n      swap3\n      swap2\n      pop\n      pop\n      jump\t// out\n        /* \"#utility.yul\":1758:1875   */\n    tag_156:\n        /* \"#utility.yul\":1867:1868   */\n      0x00\n        /* \"#utility.yul\":1864:1865   */\n      dup1\n        /* \"#utility.yul\":1857:1869   */\n      revert\n        /* \"#utility.yul\":1881:1998   */\n    tag_157:\n        /* \"#utility.yul\":1990:1991   */\n      0x00\n        /* \"#utility.yul\":1987:1988   */\n      dup1\n        /* \"#utility.yul\":1980:1992   */\n      revert\n        /* \"#utility.yul\":2004:2126   */\n    tag_158:\n        /* \"#utility.yul\":2077:2101   */\n      tag_228\n        /* \"#utility.yul\":2095:2100   */\n      dup2\n        /* \"#utility.yul\":2077:2101   */\n      tag_153\n      jump\t// in\n    tag_228:\n        /* \"#utility.yul\":2070:2075   */\n      dup2\n        /* \"#utility.yul\":2067:2102   */\n      eq\n        /* \"#utility.yul\":2057:2120   */\n      tag_229\n      jumpi\n        /* \"#utility.yul\":2116:2117   */\n      0x00\n        /* \"#utility.yul\":2113:2114   */\n      dup1\n        /* \"#utility.yul\":2106:2118   */\n      revert\n        /* \"#utility.yul\":2057:2120   */\n    tag_229:\n        /* \"#utility.yul\":2004:2126   */\n      pop\n      jump\t// out\n        /* \"#utility.yul\":2132:2271   */\n    tag_159:\n        /* \"#utility.yul\":2178:2183   */\n      0x00\n        /* \"#utility.yul\":2216:2222   */\n      dup2\n        /* \"#utility.yul\":2203:2223   */\n      calldataload\n        /* \"#utility.yul\":2194:2223   */\n      swap1\n      pop\n        /* \"#utility.yul\":2232:2265   */\n      tag_231\n        /* \"#utility.yul\":2259:2264   */\n      dup2\n        /* \"#utility.yul\":2232:2265   */\n      tag_158\n      jump\t// in\n    tag_231:\n        /* \"#utility.yul\":2132:2271   */\n      swap3\n      swap2\n      pop\n      pop\n      jump\t// out\n        /* \"#utility.yul\":2277:2606   */\n    tag_28:\n        /* \"#utility.yul\":2336:2342   */\n      0x00\n        /* \"#utility.yul\":2385:2387   */\n      0x20\n        /* \"#utility.yul\":2373:2382   */\n      dup3\n        /* \"#utility.yul\":2364:2371   */\n      dup5\n        /* \"#utility.yul\":2360:2383   */\n      sub\n        /* \"#utility.yul\":2356:2388   */\n      slt\n        /* \"#utility.yul\":2353:2472   */\n      iszero\n      tag_233\n      jumpi\n        /* \"#utility.yul\":2391:2470   */\n      tag_234\n      tag_156\n      jump\t// in\n    tag_234:\n        /* \"#utility.yul\":2353:2472   */\n    tag_233:\n        /* \"#utility.yul\":2511:2512   */\n      0x00\n        /* \"#utility.yul\":2536:2589   */\n      tag_235\n        /* \"#utility.yul\":2581:2588   */\n      dup5\n        /* \"#utility.yul\":2572:2578   */\n      dup3\n        /* \"#utility.yul\":2561:2570   */\n      dup6\n        /* \"#utility.yul\":2557:2579   */\n      add\n        /* \"#utility.yul\":2536:2589   */\n      tag_159\n      jump\t// in\n    tag_235:\n        /* \"#utility.yul\":2526:2589   */\n      swap2\n      pop\n        /* \"#utility.yul\":2482:2599   */\n      pop\n        /* \"#utility.yul\":2277:2606   */\n      swap3\n      swap2\n      pop\n      pop\n      jump\t// out\n        /* \"#utility.yul\":2612:2738   */\n    tag_160:\n        /* \"#utility.yul\":2649:2656   */\n      0x00\n        /* \"#utility.yul\":2689:2731   */\n      0xffffffffffffffffffffffffffffffffffffffff\n        /* \"#utility.yul\":2682:2687   */\n      dup3\n        /* \"#utility.yul\":2678:2732   */\n      and\n        /* \"#utility.yul\":2667:2732   */\n      swap1\n      pop\n        /* \"#utility.yul\":2612:2738   */\n      swap2\n      swap1\n      pop\n      jump\t// out\n        /* \"#utility.yul\":2744:2840   */\n    tag_161:\n        /* \"#utility.yul\":2781:2788   */\n      0x00\n        /* \"#utility.yul\":2810:2834   */\n      tag_238\n        /* \"#utility.yul\":2828:2833   */\n      dup3\n        /* \"#utility.yul\":2810:2834   */\n      tag_160\n      jump\t// in\n    tag_238:\n        /* \"#utility.yul\":2799:2834   */\n      swap1\n      pop\n        /* \"#utility.yul\":2744:2840   */\n      swap2\n      swap1\n      pop\n      jump\t// out\n        /* \"#utility.yul\":2846:2968   */\n    tag_162:\n        /* \"#utility.yul\":2919:2943   */\n      tag_240\n        /* \"#utility.yul\":2937:2942   */\n      dup2\n        /* \"#utility.yul\":2919:2943   */\n      tag_161\n      jump\t// in\n    tag_240:\n        /* \"#utility.yul\":2912:2917   */\n      dup2\n        /* \"#utility.yul\":2909:2944   */\n      eq\n        /* \"#utility.yul\":2899:2962   */\n      tag_241\n      jumpi\n        /* \"#utility.yul\":2958:2959   */\n      0x00\n        /* \"#utility.yul\":2955:2956   */\n      dup1\n        /* \"#utility.yul\":2948:2960   */\n      revert\n        /* \"#utility.yul\":2899:2962   */\n    tag_241:\n        /* \"#utility.yul\":2846:2968   */\n      pop\n      jump\t// out\n        /* \"#utility.yul\":2974:3113   */\n    tag_163:\n        /* \"#utility.yul\":3020:3025   */\n      0x00\n        /* \"#utility.yul\":3058:3064   */\n      dup2\n        /* \"#utility.yul\":3045:3065   */\n      calldataload\n        /* \"#utility.yul\":3036:3065   */\n      swap1\n      pop\n        /* \"#utility.yul\":3074:3107   */\n      tag_243\n        /* \"#utility.yul\":3101:3106   */\n      dup2\n        /* \"#utility.yul\":3074:3107   */\n      tag_162\n      jump\t// in\n    tag_243:\n        /* \"#utility.yul\":2974:3113   */\n      swap3\n      swap2\n      pop\n      pop\n      jump\t// out\n        /* \"#utility.yul\":3119:3448   */\n    tag_32:\n        /* \"#utility.yul\":3178:3184   */\n      0x00\n        /* \"#utility.yul\":3227:3229   */\n      0x20\n        /* \"#utility.yul\":3215:3224   */\n      dup3\n        /* \"#utility.yul\":3206:3213   */\n      dup5\n        /* \"#utility.yul\":3202:3225   */\n      sub\n        /* \"#utility.yul\":3198:3230   */\n      slt\n        /* \"#utility.yul\":3195:3314   */\n      iszero\n      tag_245\n      jumpi\n        /* \"#utility.yul\":3233:3312   */\n      tag_246\n      tag_156\n      jump\t// in\n    tag_246:\n        /* \"#utility.yul\":3195:3314   */\n    tag_245:\n        /* \"#utility.yul\":3353:3354   */\n      0x00\n        /* \"#utility.yul\":3378:3431   */\n      tag_247\n        /* \"#utility.yul\":3423:3430   */\n      dup5\n        /* \"#utility.yul\":3414:3420   */\n      dup3\n        /* \"#utility.yul\":3403:3412   */\n      dup6\n        /* \"#utility.yul\":3399:3421   */\n      add\n        /* \"#utility.yul\":3378:3431   */\n      tag_163\n      jump\t// in\n    tag_247:\n        /* \"#utility.yul\":3368:3431   */\n      swap2\n      pop\n        /* \"#utility.yul\":3324:3441   */\n      pop\n        /* \"#utility.yul\":3119:3448   */\n      swap3\n      swap2\n      pop\n      pop\n      jump\t// out\n        /* \"#utility.yul\":3454:3544   */\n    tag_164:\n        /* \"#utility.yul\":3488:3495   */\n      0x00\n        /* \"#utility.yul\":3531:3536   */\n      dup2\n        /* \"#utility.yul\":3524:3537   */\n      iszero\n        /* \"#utility.yul\":3517:3538   */\n      iszero\n        /* \"#utility.yul\":3506:3538   */\n      swap1\n      pop\n        /* \"#utility.yul\":3454:3544   */\n      swap2\n      swap1\n      pop\n      jump\t// out\n        /* \"#utility.yul\":3550:3659   */\n    tag_165:\n        /* \"#utility.yul\":3631:3652   */\n      tag_250\n        /* \"#utility.yul\":3646:3651   */\n      dup2\n        /* \"#utility.yul\":3631:3652   */\n      tag_164\n      jump\t// in\n    tag_250:\n        /* \"#utility.yul\":3626:3629   */\n      dup3\n        /* \"#utility.yul\":3619:3653   */\n      mstore\n        /* \"#utility.yul\":3550:3659   */\n      pop\n      pop\n      jump\t// out\n        /* \"#utility.yul\":3665:3985   */\n    tag_35:\n        /* \"#utility.yul\":3780:3784   */\n      0x00\n        /* \"#utility.yul\":3818:3820   */\n      0x40\n        /* \"#utility.yul\":3807:3816   */\n      dup3\n        /* \"#utility.yul\":3803:3821   */\n      add\n        /* \"#utility.yul\":3795:3821   */\n      swap1\n      pop\n        /* \"#utility.yul\":3831:3896   */\n      tag_252\n        /* \"#utility.yul\":3893:3894   */\n      0x00\n        /* \"#utility.yul\":3882:3891   */\n      dup4\n        /* \"#utility.yul\":3878:3895   */\n      add\n        /* \"#utility.yul\":3869:3875   */\n      dup6\n        /* \"#utility.yul\":3831:3896   */\n      tag_165\n      jump\t// in\n    tag_252:\n        /* \"#utility.yul\":3906:3978   */\n      tag_253\n        /* \"#utility.yul\":3974:3976   */\n      0x20\n        /* \"#utility.yul\":3963:3972   */\n      dup4\n        /* \"#utility.yul\":3959:3977   */\n      add\n        /* \"#utility.yul\":3950:3956   */\n      dup5\n        /* \"#utility.yul\":3906:3978   */\n      tag_154\n      jump\t// in\n    tag_253:\n        /* \"#utility.yul\":3665:3985   */\n      swap4\n      swap3\n      pop\n      pop\n      pop\n      jump\t// out\n        /* \"#utility.yul\":3991:4171   */\n    tag_65:\n        /* \"#utility.yul\":4039:4116   */\n      0x4e487b7100000000000000000000000000000000000000000000000000000000\n        /* \"#utility.yul\":4036:4037   */\n      0x00\n        /* \"#utility.yul\":4029:4117   */\n      mstore\n        /* \"#utility.yul\":4136:4140   */\n      0x21\n        /* \"#utility.yul\":4133:4134   */\n      0x04\n        /* \"#utility.yul\":4126:4141   */\n      mstore\n        /* \"#utility.yul\":4160:4164   */\n      0x24\n        /* \"#utility.yul\":4157:4158   */\n      0x00\n        /* \"#utility.yul\":4150:4165   */\n      revert\n        /* \"#utility.yul\":4177:4295   */\n    tag_166:\n        /* \"#utility.yul\":4263:4264   */\n      0x03\n        /* \"#utility.yul\":4256:4261   */\n      dup2\n        /* \"#utility.yul\":4253:4265   */\n      lt\n        /* \"#utility.yul\":4243:4289   */\n      tag_256\n      jumpi\n        /* \"#utility.yul\":4269:4287   */\n      tag_257\n      tag_65\n      jump\t// in\n    tag_257:\n        /* \"#utility.yul\":4243:4289   */\n    tag_256:\n        /* \"#utility.yul\":4177:4295   */\n      pop\n      jump\t// out\n        /* \"#utility.yul\":4301:4438   */\n    tag_167:\n        /* \"#utility.yul\":4351:4358   */\n      0x00\n        /* \"#utility.yul\":4380:4385   */\n      dup2\n        /* \"#utility.yul\":4369:4385   */\n      swap1\n      pop\n        /* \"#utility.yul\":4386:4432   */\n      tag_259\n        /* \"#utility.yul\":4426:4431   */\n      dup3\n        /* \"#utility.yul\":4386:4432   */\n      tag_166\n      jump\t// in\n    tag_259:\n        /* \"#utility.yul\":4301:4438   */\n      swap2\n      swap1\n      pop\n      jump\t// out\n        /* \"#utility.yul\":4444:4581   */\n    tag_168:\n        /* \"#utility.yul\":4505:4514   */\n      0x00\n        /* \"#utility.yul\":4538:4575   */\n      tag_261\n        /* \"#utility.yul\":4569:4574   */\n      dup3\n        /* \"#utility.yul\":4538:4575   */\n      tag_167\n      jump\t// in\n    tag_261:\n        /* \"#utility.yul\":4525:4575   */\n      swap1\n      pop\n        /* \"#utility.yul\":4444:4581   */\n      swap2\n      swap1\n      pop\n      jump\t// out\n        /* \"#utility.yul\":4587:4740   */\n    tag_169:\n        /* \"#utility.yul\":4685:4733   */\n      tag_263\n        /* \"#utility.yul\":4727:4732   */\n      dup2\n        /* \"#utility.yul\":4685:4733   */\n      tag_168\n      jump\t// in\n    tag_263:\n        /* \"#utility.yul\":4680:4683   */\n      dup3\n        /* \"#utility.yul\":4673:4734   */\n      mstore\n        /* \"#utility.yul\":4587:4740   */\n      pop\n      pop\n      jump\t// out\n        /* \"#utility.yul\":4746:4990   */\n    tag_41:\n        /* \"#utility.yul\":4850:4854   */\n      0x00\n        /* \"#utility.yul\":4888:4890   */\n      0x20\n        /* \"#utility.yul\":4877:4886   */\n      dup3\n        /* \"#utility.yul\":4873:4891   */\n      add\n        /* \"#utility.yul\":4865:4891   */\n      swap1\n      pop\n        /* \"#utility.yul\":4901:4983   */\n      tag_265\n        /* \"#utility.yul\":4980:4981   */\n      0x00\n        /* \"#utility.yul\":4969:4978   */\n      dup4\n        /* \"#utility.yul\":4965:4982   */\n      add\n        /* \"#utility.yul\":4956:4962   */\n      dup5\n        /* \"#utility.yul\":4901:4983   */\n      tag_169\n      jump\t// in\n    tag_265:\n        /* \"#utility.yul\":4746:4990   */\n      swap3\n      swap2\n      pop\n      pop\n      jump\t// out\n        /* \"#utility.yul\":4996:5114   */\n    tag_170:\n        /* \"#utility.yul\":5083:5107   */\n      tag_267\n        /* \"#utility.yul\":5101:5106   */\n      dup2\n        /* \"#utility.yul\":5083:5107   */\n      tag_161\n      jump\t// in\n    tag_267:\n        /* \"#utility.yul\":5078:5081   */\n      dup3\n        /* \"#utility.yul\":5071:5108   */\n      mstore\n        /* \"#utility.yul\":4996:5114   */\n      pop\n      pop\n      jump\t// out\n        /* \"#utility.yul\":5120:5342   */\n    tag_45:\n        /* \"#utility.yul\":5213:5217   */\n      0x00\n        /* \"#utility.yul\":5251:5253   */\n      0x20\n        /* \"#utility.yul\":5240:5249   */\n      dup3\n        /* \"#utility.yul\":5236:5254   */\n      add\n        /* \"#utility.yul\":5228:5254   */\n      swap1\n      pop\n        /* \"#utility.yul\":5264:5335   */\n      tag_269\n        /* \"#utility.yul\":5332:5333   */\n      0x00\n        /* \"#utility.yul\":5321:5330   */\n      dup4\n        /* \"#utility.yul\":5317:5334   */\n      add\n        /* \"#utility.yul\":5308:5314   */\n      dup5\n        /* \"#utility.yul\":5264:5335   */\n      tag_170\n      jump\t// in\n    tag_269:\n        /* \"#utility.yul\":5120:5342   */\n      swap3\n      swap2\n      pop\n      pop\n      jump\t// out\n        /* \"#utility.yul\":5348:5465   */\n    tag_171:\n        /* \"#utility.yul\":5457:5458   */\n      0x00\n        /* \"#utility.yul\":5454:5455   */\n      dup1\n        /* \"#utility.yul\":5447:5459   */\n      revert\n        /* \"#utility.yul\":5471:5588   */\n    tag_172:\n        /* \"#utility.yul\":5580:5581   */\n      0x00\n        /* \"#utility.yul\":5577:5578   */\n      dup1\n        /* \"#utility.yul\":5570:5582   */\n      revert\n        /* \"#utility.yul\":5594:5711   */\n    tag_173:\n        /* \"#utility.yul\":5703:5704   */\n      0x00\n        /* \"#utility.yul\":5700:5701   */\n      dup1\n        /* \"#utility.yul\":5693:5705   */\n      revert\n        /* \"#utility.yul\":5731:6284   */\n    tag_174:\n        /* \"#utility.yul\":5789:5797   */\n      0x00\n        /* \"#utility.yul\":5799:5805   */\n      dup1\n        /* \"#utility.yul\":5849:5852   */\n      dup4\n        /* \"#utility.yul\":5842:5846   */\n      0x1f\n        /* \"#utility.yul\":5834:5840   */\n      dup5\n        /* \"#utility.yul\":5830:5847   */\n      add\n        /* \"#utility.yul\":5826:5853   */\n      slt\n        /* \"#utility.yul\":5816:5938   */\n      tag_274\n      jumpi\n        /* \"#utility.yul\":5857:5936   */\n      tag_275\n      tag_171\n      jump\t// in\n    tag_275:\n        /* \"#utility.yul\":5816:5938   */\n    tag_274:\n        /* \"#utility.yul\":5970:5976   */\n      dup3\n        /* \"#utility.yul\":5957:5977   */\n      calldataload\n        /* \"#utility.yul\":5947:5977   */\n      swap1\n      pop\n        /* \"#utility.yul\":6000:6018   */\n      0xffffffffffffffff\n        /* \"#utility.yul\":5992:5998   */\n      dup2\n        /* \"#utility.yul\":5989:6019   */\n      gt\n        /* \"#utility.yul\":5986:6103   */\n      iszero\n      tag_276\n      jumpi\n        /* \"#utility.yul\":6022:6101   */\n      tag_277\n      tag_172\n      jump\t// in\n    tag_277:\n        /* \"#utility.yul\":5986:6103   */\n    tag_276:\n        /* \"#utility.yul\":6136:6140   */\n      0x20\n        /* \"#utility.yul\":6128:6134   */\n      dup4\n        /* \"#utility.yul\":6124:6141   */\n      add\n        /* \"#utility.yul\":6112:6141   */\n      swap2\n      pop\n        /* \"#utility.yul\":6190:6193   */\n      dup4\n        /* \"#utility.yul\":6182:6186   */\n      0x01\n        /* \"#utility.yul\":6174:6180   */\n      dup3\n        /* \"#utility.yul\":6170:6187   */\n      mul\n        /* \"#utility.yul\":6160:6168   */\n      dup4\n        /* \"#utility.yul\":6156:6188   */\n      add\n        /* \"#utility.yul\":6153:6194   */\n      gt\n        /* \"#utility.yul\":6150:6278   */\n      iszero\n      tag_278\n      jumpi\n        /* \"#utility.yul\":6197:6276   */\n      tag_279\n      tag_173\n      jump\t// in\n    tag_279:\n        /* \"#utility.yul\":6150:6278   */\n    tag_278:\n        /* \"#utility.yul\":5731:6284   */\n      swap3\n      pop\n      swap3\n      swap1\n      pop\n      jump\t// out\n        /* \"#utility.yul\":6290:6819   */\n    tag_48:\n        /* \"#utility.yul\":6361:6367   */\n      0x00\n        /* \"#utility.yul\":6369:6375   */\n      dup1\n        /* \"#utility.yul\":6418:6420   */\n      0x20\n        /* \"#utility.yul\":6406:6415   */\n      dup4\n        /* \"#utility.yul\":6397:6404   */\n      dup6\n        /* \"#utility.yul\":6393:6416   */\n      sub\n        /* \"#utility.yul\":6389:6421   */\n      slt\n        /* \"#utility.yul\":6386:6505   */\n      iszero\n      tag_281\n      jumpi\n        /* \"#utility.yul\":6424:6503   */\n      tag_282\n      tag_156\n      jump\t// in\n    tag_282:\n        /* \"#utility.yul\":6386:6505   */\n    tag_281:\n        /* \"#utility.yul\":6572:6573   */\n      0x00\n        /* \"#utility.yul\":6561:6570   */\n      dup4\n        /* \"#utility.yul\":6557:6574   */\n      add\n        /* \"#utility.yul\":6544:6575   */\n      calldataload\n        /* \"#utility.yul\":6602:6620   */\n      0xffffffffffffffff\n        /* \"#utility.yul\":6594:6600   */\n      dup2\n        /* \"#utility.yul\":6591:6621   */\n      gt\n        /* \"#utility.yul\":6588:6705   */\n      iszero\n      tag_283\n      jumpi\n        /* \"#utility.yul\":6624:6703   */\n      tag_284\n      tag_157\n      jump\t// in\n    tag_284:\n        /* \"#utility.yul\":6588:6705   */\n    tag_283:\n        /* \"#utility.yul\":6737:6802   */\n      tag_285\n        /* \"#utility.yul\":6794:6801   */\n      dup6\n        /* \"#utility.yul\":6785:6791   */\n      dup3\n        /* \"#utility.yul\":6774:6783   */\n      dup7\n        /* \"#utility.yul\":6770:6792   */\n      add\n        /* \"#utility.yul\":6737:6802   */\n      tag_174\n      jump\t// in\n    tag_285:\n        /* \"#utility.yul\":6719:6802   */\n      swap3\n      pop\n      swap3\n      pop\n        /* \"#utility.yul\":6515:6812   */\n      pop\n        /* \"#utility.yul\":6290:6819   */\n      swap3\n      pop\n      swap3\n      swap1\n      pop\n      jump\t// out\n        /* \"#utility.yul\":6825:7358   */\n    tag_54:\n        /* \"#utility.yul\":6994:6998   */\n      0x00\n        /* \"#utility.yul\":7032:7034   */\n      0x60\n        /* \"#utility.yul\":7021:7030   */\n      dup3\n        /* \"#utility.yul\":7017:7035   */\n      add\n        /* \"#utility.yul\":7009:7035   */\n      swap1\n      pop\n        /* \"#utility.yul\":7045:7116   */\n      tag_287\n        /* \"#utility.yul\":7113:7114   */\n      0x00\n        /* \"#utility.yul\":7102:7111   */\n      dup4\n        /* \"#utility.yul\":7098:7115   */\n      add\n        /* \"#utility.yul\":7089:7095   */\n      dup7\n        /* \"#utility.yul\":7045:7116   */\n      tag_154\n      jump\t// in\n    tag_287:\n        /* \"#utility.yul\":7163:7172   */\n      dup2\n        /* \"#utility.yul\":7157:7161   */\n      dup2\n        /* \"#utility.yul\":7153:7173   */\n      sub\n        /* \"#utility.yul\":7148:7150   */\n      0x20\n        /* \"#utility.yul\":7137:7146   */\n      dup4\n        /* \"#utility.yul\":7133:7151   */\n      add\n        /* \"#utility.yul\":7126:7174   */\n      mstore\n        /* \"#utility.yul\":7191:7269   */\n      tag_288\n        /* \"#utility.yul\":7264:7268   */\n      dup2\n        /* \"#utility.yul\":7255:7261   */\n      dup6\n        /* \"#utility.yul\":7191:7269   */\n      tag_152\n      jump\t// in\n    tag_288:\n        /* \"#utility.yul\":7183:7269   */\n      swap1\n      pop\n        /* \"#utility.yul\":7279:7351   */\n      tag_289\n        /* \"#utility.yul\":7347:7349   */\n      0x40\n        /* \"#utility.yul\":7336:7345   */\n      dup4\n        /* \"#utility.yul\":7332:7350   */\n      add\n        /* \"#utility.yul\":7323:7329   */\n      dup5\n        /* \"#utility.yul\":7279:7351   */\n      tag_154\n      jump\t// in\n    tag_289:\n        /* \"#utility.yul\":6825:7358   */\n      swap5\n      swap4\n      pop\n      pop\n      pop\n      pop\n      jump\t// out\n        /* \"#utility.yul\":7364:7590   */\n    tag_175:\n        /* \"#utility.yul\":7504:7538   */\n      0x416363657373207265737472696374656420746f2074686520636f6e74726163\n        /* \"#utility.yul\":7500:7501   */\n      0x00\n        /* \"#utility.yul\":7492:7498   */\n      dup3\n        /* \"#utility.yul\":7488:7502   */\n      add\n        /* \"#utility.yul\":7481:7539   */\n      mstore\n        /* \"#utility.yul\":7573:7582   */\n      0x74206f776e657200000000000000000000000000000000000000000000000000\n        /* \"#utility.yul\":7568:7570   */\n      0x20\n        /* \"#utility.yul\":7560:7566   */\n      dup3\n        /* \"#utility.yul\":7556:7571   */\n      add\n        /* \"#utility.yul\":7549:7583   */\n      mstore\n        /* \"#utility.yul\":7364:7590   */\n      pop\n      jump\t// out\n        /* \"#utility.yul\":7596:7962   */\n    tag_176:\n        /* \"#utility.yul\":7738:7741   */\n      0x00\n        /* \"#utility.yul\":7759:7826   */\n      tag_292\n        /* \"#utility.yul\":7823:7825   */\n      0x27\n        /* \"#utility.yul\":7818:7821   */\n      dup4\n        /* \"#utility.yul\":7759:7826   */\n      tag_149\n      jump\t// in\n    tag_292:\n        /* \"#utility.yul\":7752:7826   */\n      swap2\n      pop\n        /* \"#utility.yul\":7835:7928   */\n      tag_293\n        /* \"#utility.yul\":7924:7927   */\n      dup3\n        /* \"#utility.yul\":7835:7928   */\n      tag_175\n      jump\t// in\n    tag_293:\n        /* \"#utility.yul\":7953:7955   */\n      0x40\n        /* \"#utility.yul\":7948:7951   */\n      dup3\n        /* \"#utility.yul\":7944:7956   */\n      add\n        /* \"#utility.yul\":7937:7956   */\n      swap1\n      pop\n        /* \"#utility.yul\":7596:7962   */\n      swap2\n      swap1\n      pop\n      jump\t// out\n        /* \"#utility.yul\":7968:8387   */\n    tag_82:\n        /* \"#utility.yul\":8134:8138   */\n      0x00\n        /* \"#utility.yul\":8172:8174   */\n      0x20\n        /* \"#utility.yul\":8161:8170   */\n      dup3\n        /* \"#utility.yul\":8157:8175   */\n      add\n        /* \"#utility.yul\":8149:8175   */\n      swap1\n      pop\n        /* \"#utility.yul\":8221:8230   */\n      dup2\n        /* \"#utility.yul\":8215:8219   */\n      dup2\n        /* \"#utility.yul\":8211:8231   */\n      sub\n        /* \"#utility.yul\":8207:8208   */\n      0x00\n        /* \"#utility.yul\":8196:8205   */\n      dup4\n        /* \"#utility.yul\":8192:8209   */\n      add\n        /* \"#utility.yul\":8185:8232   */\n      mstore\n        /* \"#utility.yul\":8249:8380   */\n      tag_295\n        /* \"#utility.yul\":8375:8379   */\n      dup2\n        /* \"#utility.yul\":8249:8380   */\n      tag_176\n      jump\t// in\n    tag_295:\n        /* \"#utility.yul\":8241:8380   */\n      swap1\n      pop\n        /* \"#utility.yul\":7968:8387   */\n      swap2\n      swap1\n      pop\n      jump\t// out\n        /* \"#utility.yul\":8393:8613   */\n    tag_177:\n        /* \"#utility.yul\":8533:8567   */\n      0x456c656374696f6e20616c72656164792073746172746564206f7220656e6465\n        /* \"#utility.yul\":8529:8530   */\n      0x00\n        /* \"#utility.yul\":8521:8527   */\n      dup3\n        /* \"#utility.yul\":8517:8531   */\n      add\n        /* \"#utility.yul\":8510:8568   */\n      mstore\n        /* \"#utility.yul\":8602:8605   */\n      0x6400000000000000000000000000000000000000000000000000000000000000\n        /* \"#utility.yul\":8597:8599   */\n      0x20\n        /* \"#utility.yul\":8589:8595   */\n      dup3\n        /* \"#utility.yul\":8585:8600   */\n      add\n        /* \"#utility.yul\":8578:8606   */\n      mstore\n        /* \"#utility.yul\":8393:8613   */\n      pop\n      jump\t// out\n        /* \"#utility.yul\":8619:8985   */\n    tag_178:\n        /* \"#utility.yul\":8761:8764   */\n      0x00\n        /* \"#utility.yul\":8782:8849   */\n      tag_298\n        /* \"#utility.yul\":8846:8848   */\n      0x21\n        /* \"#utility.yul\":8841:8844   */\n      dup4\n        /* \"#utility.yul\":8782:8849   */\n      tag_149\n      jump\t// in\n    tag_298:\n        /* \"#utility.yul\":8775:8849   */\n      swap2\n      pop\n        /* \"#utility.yul\":8858:8951   */\n      tag_299\n        /* \"#utility.yul\":8947:8950   */\n      dup3\n        /* \"#utility.yul\":8858:8951   */\n      tag_177\n      jump\t// in\n    tag_299:\n        /* \"#utility.yul\":8976:8978   */\n      0x40\n        /* \"#utility.yul\":8971:8974   */\n      dup3\n        /* \"#utility.yul\":8967:8979   */\n      add\n        /* \"#utility.yul\":8960:8979   */\n      swap1\n      pop\n        /* \"#utility.yul\":8619:8985   */\n      swap2\n      swap1\n      pop\n      jump\t// out\n        /* \"#utility.yul\":8991:9410   */\n    tag_90:\n        /* \"#utility.yul\":9157:9161   */\n      0x00\n        /* \"#utility.yul\":9195:9197   */\n      0x20\n        /* \"#utility.yul\":9184:9193   */\n      dup3\n        /* \"#utility.yul\":9180:9198   */\n      add\n        /* \"#utility.yul\":9172:9198   */\n      swap1\n      pop\n        /* \"#utility.yul\":9244:9253   */\n      dup2\n        /* \"#utility.yul\":9238:9242   */\n      dup2\n        /* \"#utility.yul\":9234:9254   */\n      sub\n        /* \"#utility.yul\":9230:9231   */\n      0x00\n        /* \"#utility.yul\":9219:9228   */\n      dup4\n        /* \"#utility.yul\":9215:9232   */\n      add\n        /* \"#utility.yul\":9208:9255   */\n      mstore\n        /* \"#utility.yul\":9272:9403   */\n      tag_301\n        /* \"#utility.yul\":9398:9402   */\n      dup2\n        /* \"#utility.yul\":9272:9403   */\n      tag_178\n      jump\t// in\n    tag_301:\n        /* \"#utility.yul\":9264:9403   */\n      swap1\n      pop\n        /* \"#utility.yul\":8991:9410   */\n      swap2\n      swap1\n      pop\n      jump\t// out\n        /* \"#utility.yul\":9416:9596   */\n    tag_179:\n        /* \"#utility.yul\":9556:9588   */\n      0x566f74696e67206973206e6f742063757272656e746c79206163746976650000\n        /* \"#utility.yul\":9552:9553   */\n      0x00\n        /* \"#utility.yul\":9544:9550   */\n      dup3\n        /* \"#utility.yul\":9540:9554   */\n      add\n        /* \"#utility.yul\":9533:9589   */\n      mstore\n        /* \"#utility.yul\":9416:9596   */\n      pop\n      jump\t// out\n        /* \"#utility.yul\":9602:9968   */\n    tag_180:\n        /* \"#utility.yul\":9744:9747   */\n      0x00\n        /* \"#utility.yul\":9765:9832   */\n      tag_304\n        /* \"#utility.yul\":9829:9831   */\n      0x1e\n        /* \"#utility.yul\":9824:9827   */\n      dup4\n        /* \"#utility.yul\":9765:9832   */\n      tag_149\n      jump\t// in\n    tag_304:\n        /* \"#utility.yul\":9758:9832   */\n      swap2\n      pop\n        /* \"#utility.yul\":9841:9934   */\n      tag_305\n        /* \"#utility.yul\":9930:9933   */\n      dup3\n        /* \"#utility.yul\":9841:9934   */\n      tag_179\n      jump\t// in\n    tag_305:\n        /* \"#utility.yul\":9959:9961   */\n      0x20\n        /* \"#utility.yul\":9954:9957   */\n      dup3\n        /* \"#utility.yul\":9950:9962   */\n      add\n        /* \"#utility.yul\":9943:9962   */\n      swap1\n      pop\n        /* \"#utility.yul\":9602:9968   */\n      swap2\n      swap1\n      pop\n      jump\t// out\n        /* \"#utility.yul\":9974:10393   */\n    tag_100:\n        /* \"#utility.yul\":10140:10144   */\n      0x00\n        /* \"#utility.yul\":10178:10180   */\n      0x20\n        /* \"#utility.yul\":10167:10176   */\n      dup3\n        /* \"#utility.yul\":10163:10181   */\n      add\n        /* \"#utility.yul\":10155:10181   */\n      swap1\n      pop\n        /* \"#utility.yul\":10227:10236   */\n      dup2\n        /* \"#utility.yul\":10221:10225   */\n      dup2\n        /* \"#utility.yul\":10217:10237   */\n      sub\n        /* \"#utility.yul\":10213:10214   */\n      0x00\n        /* \"#utility.yul\":10202:10211   */\n      dup4\n        /* \"#utility.yul\":10198:10215   */\n      add\n        /* \"#utility.yul\":10191:10238   */\n      mstore\n        /* \"#utility.yul\":10255:10386   */\n      tag_307\n        /* \"#utility.yul\":10381:10385   */\n      dup2\n        /* \"#utility.yul\":10255:10386   */\n      tag_180\n      jump\t// in\n    tag_307:\n        /* \"#utility.yul\":10247:10386   */\n      swap1\n      pop\n        /* \"#utility.yul\":9974:10393   */\n      swap2\n      swap1\n      pop\n      jump\t// out\n        /* \"#utility.yul\":10399:10566   */\n    tag_181:\n        /* \"#utility.yul\":10539:10558   */\n      0x566f746520616c72656164792063617374000000000000000000000000000000\n        /* \"#utility.yul\":10535:10536   */\n      0x00\n        /* \"#utility.yul\":10527:10533   */\n      dup3\n        /* \"#utility.yul\":10523:10537   */\n      add\n        /* \"#utility.yul\":10516:10559   */\n      mstore\n        /* \"#utility.yul\":10399:10566   */\n      pop\n      jump\t// out\n        /* \"#utility.yul\":10572:10938   */\n    tag_182:\n        /* \"#utility.yul\":10714:10717   */\n      0x00\n        /* \"#utility.yul\":10735:10802   */\n      tag_310\n        /* \"#utility.yul\":10799:10801   */\n      0x11\n        /* \"#utility.yul\":10794:10797   */\n      dup4\n        /* \"#utility.yul\":10735:10802   */\n      tag_149\n      jump\t// in\n    tag_310:\n        /* \"#utility.yul\":10728:10802   */\n      swap2\n      pop\n        /* \"#utility.yul\":10811:10904   */\n      tag_311\n        /* \"#utility.yul\":10900:10903   */\n      dup3\n        /* \"#utility.yul\":10811:10904   */\n      tag_181\n      jump\t// in\n    tag_311:\n        /* \"#utility.yul\":10929:10931   */\n      0x20\n        /* \"#utility.yul\":10924:10927   */\n      dup3\n        /* \"#utility.yul\":10920:10932   */\n      add\n        /* \"#utility.yul\":10913:10932   */\n      swap1\n      pop\n        /* \"#utility.yul\":10572:10938   */\n      swap2\n      swap1\n      pop\n      jump\t// out\n        /* \"#utility.yul\":10944:11363   */\n    tag_104:\n        /* \"#utility.yul\":11110:11114   */\n      0x00\n        /* \"#utility.yul\":11148:11150   */\n      0x20\n        /* \"#utility.yul\":11137:11146   */\n      dup3\n        /* \"#utility.yul\":11133:11151   */\n      add\n        /* \"#utility.yul\":11125:11151   */\n      swap1\n      pop\n        /* \"#utility.yul\":11197:11206   */\n      dup2\n        /* \"#utility.yul\":11191:11195   */\n      dup2\n        /* \"#utility.yul\":11187:11207   */\n      sub\n        /* \"#utility.yul\":11183:11184   */\n      0x00\n        /* \"#utility.yul\":11172:11181   */\n      dup4\n        /* \"#utility.yul\":11168:11185   */\n      add\n        /* \"#utility.yul\":11161:11208   */\n      mstore\n        /* \"#utility.yul\":11225:11356   */\n      tag_313\n        /* \"#utility.yul\":11351:11355   */\n      dup2\n        /* \"#utility.yul\":11225:11356   */\n      tag_182\n      jump\t// in\n    tag_313:\n        /* \"#utility.yul\":11217:11356   */\n      swap1\n      pop\n        /* \"#utility.yul\":10944:11363   */\n      swap2\n      swap1\n      pop\n      jump\t// out\n        /* \"#utility.yul\":11369:11539   */\n    tag_183:\n        /* \"#utility.yul\":11509:11531   */\n      0x496e76616c69642063616e646964617465204944000000000000000000000000\n        /* \"#utility.yul\":11505:11506   */\n      0x00\n        /* \"#utility.yul\":11497:11503   */\n      dup3\n        /* \"#utility.yul\":11493:11507   */\n      add\n        /* \"#utility.yul\":11486:11532   */\n      mstore\n        /* \"#utility.yul\":11369:11539   */\n      pop\n      jump\t// out\n        /* \"#utility.yul\":11545:11911   */\n    tag_184:\n        /* \"#utility.yul\":11687:11690   */\n      0x00\n        /* \"#utility.yul\":11708:11775   */\n      tag_316\n        /* \"#utility.yul\":11772:11774   */\n      0x14\n        /* \"#utility.yul\":11767:11770   */\n      dup4\n        /* \"#utility.yul\":11708:11775   */\n      tag_149\n      jump\t// in\n    tag_316:\n        /* \"#utility.yul\":11701:11775   */\n      swap2\n      pop\n        /* \"#utility.yul\":11784:11877   */\n      tag_317\n        /* \"#utility.yul\":11873:11876   */\n      dup3\n        /* \"#utility.yul\":11784:11877   */\n      tag_183\n      jump\t// in\n    tag_317:\n        /* \"#utility.yul\":11902:11904   */\n      0x20\n        /* \"#utility.yul\":11897:11900   */\n      dup3\n        /* \"#utility.yul\":11893:11905   */\n      add\n        /* \"#utility.yul\":11886:11905   */\n      swap1\n      pop\n        /* \"#utility.yul\":11545:11911   */\n      swap2\n      swap1\n      pop\n      jump\t// out\n        /* \"#utility.yul\":11917:12336   */\n    tag_108:\n        /* \"#utility.yul\":12083:12087   */\n      0x00\n        /* \"#utility.yul\":12121:12123   */\n      0x20\n        /* \"#utility.yul\":12110:12119   */\n      dup3\n        /* \"#utility.yul\":12106:12124   */\n      add\n        /* \"#utility.yul\":12098:12124   */\n      swap1\n      pop\n        /* \"#utility.yul\":12170:12179   */\n      dup2\n        /* \"#utility.yul\":12164:12168   */\n      dup2\n        /* \"#utility.yul\":12160:12180   */\n      sub\n        /* \"#utility.yul\":12156:12157   */\n      0x00\n        /* \"#utility.yul\":12145:12154   */\n      dup4\n        /* \"#utility.yul\":12141:12158   */\n      add\n        /* \"#utility.yul\":12134:12181   */\n      mstore\n        /* \"#utility.yul\":12198:12329   */\n      tag_319\n        /* \"#utility.yul\":12324:12328   */\n      dup2\n        /* \"#utility.yul\":12198:12329   */\n      tag_184\n      jump\t// in\n    tag_319:\n        /* \"#utility.yul\":12190:12329   */\n      swap1\n      pop\n        /* \"#utility.yul\":11917:12336   */\n      swap2\n      swap1\n      pop\n      jump\t// out\n        /* \"#utility.yul\":12342:12522   */\n    tag_185:\n        /* \"#utility.yul\":12390:12467   */\n      0x4e487b7100000000000000000000000000000000000000000000000000000000\n        /* \"#utility.yul\":12387:12388   */\n      0x00\n        /* \"#utility.yul\":12380:12468   */\n      mstore\n        /* \"#utility.yul\":12487:12491   */\n      0x11\n        /* \"#utility.yul\":12484:12485   */\n      0x04\n        /* \"#utility.yul\":12477:12492   */\n      mstore\n        /* \"#utility.yul\":12511:12515   */\n      0x24\n        /* \"#utility.yul\":12508:12509   */\n      0x00\n        /* \"#utility.yul\":12501:12516   */\n      revert\n        /* \"#utility.yul\":12528:12719   */\n    tag_110:\n        /* \"#utility.yul\":12568:12571   */\n      0x00\n        /* \"#utility.yul\":12587:12607   */\n      tag_322\n        /* \"#utility.yul\":12605:12606   */\n      dup3\n        /* \"#utility.yul\":12587:12607   */\n      tag_153\n      jump\t// in\n    tag_322:\n        /* \"#utility.yul\":12582:12607   */\n      swap2\n      pop\n        /* \"#utility.yul\":12621:12641   */\n      tag_323\n        /* \"#utility.yul\":12639:12640   */\n      dup4\n        /* \"#utility.yul\":12621:12641   */\n      tag_153\n      jump\t// in\n    tag_323:\n        /* \"#utility.yul\":12616:12641   */\n      swap3\n      pop\n        /* \"#utility.yul\":12664:12665   */\n      dup3\n        /* \"#utility.yul\":12661:12662   */\n      dup3\n        /* \"#utility.yul\":12657:12666   */\n      add\n        /* \"#utility.yul\":12650:12666   */\n      swap1\n      pop\n        /* \"#utility.yul\":12685:12688   */\n      dup1\n        /* \"#utility.yul\":12682:12683   */\n      dup3\n        /* \"#utility.yul\":12679:12689   */\n      gt\n        /* \"#utility.yul\":12676:12712   */\n      iszero\n      tag_324\n      jumpi\n        /* \"#utility.yul\":12692:12710   */\n      tag_325\n      tag_185\n      jump\t// in\n    tag_325:\n        /* \"#utility.yul\":12676:12712   */\n    tag_324:\n        /* \"#utility.yul\":12528:12719   */\n      swap3\n      swap2\n      pop\n      pop\n      jump\t// out\n        /* \"#utility.yul\":12725:13057   */\n    tag_112:\n        /* \"#utility.yul\":12846:12850   */\n      0x00\n        /* \"#utility.yul\":12884:12886   */\n      0x40\n        /* \"#utility.yul\":12873:12882   */\n      dup3\n        /* \"#utility.yul\":12869:12887   */\n      add\n        /* \"#utility.yul\":12861:12887   */\n      swap1\n      pop\n        /* \"#utility.yul\":12897:12968   */\n      tag_327\n        /* \"#utility.yul\":12965:12966   */\n      0x00\n        /* \"#utility.yul\":12954:12963   */\n      dup4\n        /* \"#utility.yul\":12950:12967   */\n      add\n        /* \"#utility.yul\":12941:12947   */\n      dup6\n        /* \"#utility.yul\":12897:12968   */\n      tag_170\n      jump\t// in\n    tag_327:\n        /* \"#utility.yul\":12978:13050   */\n      tag_328\n        /* \"#utility.yul\":13046:13048   */\n      0x20\n        /* \"#utility.yul\":13035:13044   */\n      dup4\n        /* \"#utility.yul\":13031:13049   */\n      add\n        /* \"#utility.yul\":13022:13028   */\n      dup5\n        /* \"#utility.yul\":12978:13050   */\n      tag_154\n      jump\t// in\n    tag_328:\n        /* \"#utility.yul\":12725:13057   */\n      swap4\n      swap3\n      pop\n      pop\n      pop\n      jump\t// out\n        /* \"#utility.yul\":13063:13233   */\n    tag_186:\n        /* \"#utility.yul\":13203:13225   */\n      0x566f74696e67206973206e6f7420616374697665000000000000000000000000\n        /* \"#utility.yul\":13199:13200   */\n      0x00\n        /* \"#utility.yul\":13191:13197   */\n      dup3\n        /* \"#utility.yul\":13187:13201   */\n      add\n        /* \"#utility.yul\":13180:13226   */\n      mstore\n        /* \"#utility.yul\":13063:13233   */\n      pop\n      jump\t// out\n        /* \"#utility.yul\":13239:13605   */\n    tag_187:\n        /* \"#utility.yul\":13381:13384   */\n      0x00\n        /* \"#utility.yul\":13402:13469   */\n      tag_331\n        /* \"#utility.yul\":13466:13468   */\n      0x14\n        /* \"#utility.yul\":13461:13464   */\n      dup4\n        /* \"#utility.yul\":13402:13469   */\n      tag_149\n      jump\t// in\n    tag_331:\n        /* \"#utility.yul\":13395:13469   */\n      swap2\n      pop\n        /* \"#utility.yul\":13478:13571   */\n      tag_332\n        /* \"#utility.yul\":13567:13570   */\n      dup3\n        /* \"#utility.yul\":13478:13571   */\n      tag_186\n      jump\t// in\n    tag_332:\n        /* \"#utility.yul\":13596:13598   */\n      0x20\n        /* \"#utility.yul\":13591:13594   */\n      dup3\n        /* \"#utility.yul\":13587:13599   */\n      add\n        /* \"#utility.yul\":13580:13599   */\n      swap1\n      pop\n        /* \"#utility.yul\":13239:13605   */\n      swap2\n      swap1\n      pop\n      jump\t// out\n        /* \"#utility.yul\":13611:14030   */\n    tag_123:\n        /* \"#utility.yul\":13777:13781   */\n      0x00\n        /* \"#utility.yul\":13815:13817   */\n      0x20\n        /* \"#utility.yul\":13804:13813   */\n      dup3\n        /* \"#utility.yul\":13800:13818   */\n      add\n        /* \"#utility.yul\":13792:13818   */\n      swap1\n      pop\n        /* \"#utility.yul\":13864:13873   */\n      dup2\n        /* \"#utility.yul\":13858:13862   */\n      dup2\n        /* \"#utility.yul\":13854:13874   */\n      sub\n        /* \"#utility.yul\":13850:13851   */\n      0x00\n        /* \"#utility.yul\":13839:13848   */\n      dup4\n        /* \"#utility.yul\":13835:13852   */\n      add\n        /* \"#utility.yul\":13828:13875   */\n      mstore\n        /* \"#utility.yul\":13892:14023   */\n      tag_334\n        /* \"#utility.yul\":14018:14022   */\n      dup2\n        /* \"#utility.yul\":13892:14023   */\n      tag_187\n      jump\t// in\n    tag_334:\n        /* \"#utility.yul\":13884:14023   */\n      swap1\n      pop\n        /* \"#utility.yul\":13611:14030   */\n      swap2\n      swap1\n      pop\n      jump\t// out\n        /* \"#utility.yul\":14036:14269   */\n    tag_131:\n        /* \"#utility.yul\":14075:14078   */\n      0x00\n        /* \"#utility.yul\":14098:14122   */\n      tag_336\n        /* \"#utility.yul\":14116:14121   */\n      dup3\n        /* \"#utility.yul\":14098:14122   */\n      tag_153\n      jump\t// in\n    tag_336:\n        /* \"#utility.yul\":14089:14122   */\n      swap2\n      pop\n        /* \"#utility.yul\":14144:14210   */\n      0xffffffffffffffffffffffffffffffffffffffffffffffffffffffffffffffff\n        /* \"#utility.yul\":14137:14142   */\n      dup3\n        /* \"#utility.yul\":14134:14211   */\n      sub\n        /* \"#utility.yul\":14131:14234   */\n      tag_337\n      jumpi\n        /* \"#utility.yul\":14214:14232   */\n      tag_338\n      tag_185\n      jump\t// in\n    tag_338:\n        /* \"#utility.yul\":14131:14234   */\n    tag_337:\n        /* \"#utility.yul\":14261:14262   */\n      0x01\n        /* \"#utility.yul\":14254:14259   */\n      dup3\n        /* \"#utility.yul\":14250:14263   */\n      add\n        /* \"#utility.yul\":14243:14263   */\n      swap1\n      pop\n        /* \"#utility.yul\":14036:14269   */\n      swap2\n      swap1\n      pop\n      jump\t// out\n        /* \"#utility.yul\":14275:14455   */\n    tag_188:\n        /* \"#utility.yul\":14323:14400   */\n      0x4e487b7100000000000000000000000000000000000000000000000000000000\n        /* \"#utility.yul\":14320:14321   */\n      0x00\n        /* \"#utility.yul\":14313:14401   */\n      mstore\n        /* \"#utility.yul\":14420:14424   */\n      0x41\n        /* \"#utility.yul\":14417:14418   */\n      0x04\n        /* \"#utility.yul\":14410:14425   */\n      mstore\n        /* \"#utility.yul\":14444:14448   */\n      0x24\n        /* \"#utility.yul\":14441:14442   */\n      0x00\n        /* \"#utility.yul\":14434:14449   */\n      revert\n        /* \"#utility.yul\":14461:14641   */\n    tag_189:\n        /* \"#utility.yul\":14509:14586   */\n      0x4e487b7100000000000000000000000000000000000000000000000000000000\n        /* \"#utility.yul\":14506:14507   */\n      0x00\n        /* \"#utility.yul\":14499:14587   */\n      mstore\n        /* \"#utility.yul\":14606:14610   */\n      0x22\n        /* \"#utility.yul\":14603:14604   */\n      0x04\n        /* \"#utility.yul\":14596:14611   */\n      mstore\n        /* \"#utility.yul\":14630:14634   */\n      0x24\n        /* \"#utility.yul\":14627:14628   */\n      0x00\n        /* \"#utility.yul\":14620:14635   */\n      revert\n        /* \"#utility.yul\":14647:14967   */\n    tag_137:\n        /* \"#utility.yul\":14691:14697   */\n      0x00\n        /* \"#utility.yul\":14728:14729   */\n      0x02\n        /* \"#utility.yul\":14722:14726   */\n      dup3\n        /* \"#utility.yul\":14718:14730   */\n      div\n        /* \"#utility.yul\":14708:14730   */\n      swap1\n      pop\n        /* \"#utility.yul\":14775:14776   */\n      0x01\n        /* \"#utility.yul\":14769:14773   */\n      dup3\n        /* \"#utility.yul\":14765:14777   */\n      and\n        /* \"#utility.yul\":14796:14814   */\n      dup1\n        /* \"#utility.yul\":14786:14867   */\n      tag_342\n      jumpi\n        /* \"#utility.yul\":14852:14856   */\n      0x7f\n        /* \"#utility.yul\":14844:14850   */\n      dup3\n        /* \"#utility.yul\":14840:14857   */\n      and\n        /* \"#utility.yul\":14830:14857   */\n      swap2\n      pop\n        /* \"#utility.yul\":14786:14867   */\n    tag_342:\n        /* \"#utility.yul\":14914:14916   */\n      0x20\n        /* \"#utility.yul\":14906:14912   */\n      dup3\n        /* \"#utility.yul\":14903:14917   */\n      lt\n        /* \"#utility.yul\":14883:14901   */\n      dup2\n        /* \"#utility.yul\":14880:14918   */\n      sub\n        /* \"#utility.yul\":14877:14961   */\n      tag_343\n      jumpi\n        /* \"#utility.yul\":14933:14951   */\n      tag_344\n      tag_189\n      jump\t// in\n    tag_344:\n        /* \"#utility.yul\":14877:14961   */\n    tag_343:\n        /* \"#utility.yul\":14698:14967   */\n      pop\n        /* \"#utility.yul\":14647:14967   */\n      swap2\n      swap1\n      pop\n      jump\t// out\n        /* \"#utility.yul\":14973:15114   */\n    tag_190:\n        /* \"#utility.yul\":15022:15026   */\n      0x00\n        /* \"#utility.yul\":15045:15048   */\n      dup2\n        /* \"#utility.yul\":15037:15048   */\n      swap1\n      pop\n        /* \"#utility.yul\":15068:15071   */\n      dup2\n        /* \"#utility.yul\":15065:15066   */\n      0x00\n        /* \"#utility.yul\":15058:15072   */\n      mstore\n        /* \"#utility.yul\":15102:15106   */\n      0x20\n        /* \"#utility.yul\":15099:15100   */\n      0x00\n        /* \"#utility.yul\":15089:15107   */\n      keccak256\n        /* \"#utility.yul\":15081:15107   */\n      swap1\n      pop\n        /* \"#utility.yul\":14973:15114   */\n      swap2\n      swap1\n      pop\n      jump\t// out\n        /* \"#utility.yul\":15120:15213   */\n    tag_191:\n        /* \"#utility.yul\":15157:15163   */\n      0x00\n        /* \"#utility.yul\":15204:15206   */\n      0x20\n        /* \"#utility.yul\":15199:15201   */\n      0x1f\n        /* \"#utility.yul\":15192:15197   */\n      dup4\n        /* \"#utility.yul\":15188:15202   */\n      add\n        /* \"#utility.yul\":15184:15207   */\n      div\n        /* \"#utility.yul\":15174:15207   */\n      swap1\n      pop\n        /* \"#utility.yul\":15120:15213   */\n      swap2\n      swap1\n      pop\n      jump\t// out\n        /* \"#utility.yul\":15219:15326   */\n    tag_192:\n        /* \"#utility.yul\":15263:15271   */\n      0x00\n        /* \"#utility.yul\":15313:15318   */\n      dup3\n        /* \"#utility.yul\":15307:15311   */\n      dup3\n        /* \"#utility.yul\":15303:15319   */\n      shl\n        /* \"#utility.yul\":15282:15319   */\n      swap1\n      pop\n        /* \"#utility.yul\":15219:15326   */\n      swap3\n      swap2\n      pop\n      pop\n      jump\t// out\n        /* \"#utility.yul\":15332:15725   */\n    tag_193:\n        /* \"#utility.yul\":15401:15407   */\n      0x00\n        /* \"#utility.yul\":15451:15452   */\n      0x08\n        /* \"#utility.yul\":15439:15449   */\n      dup4\n        /* \"#utility.yul\":15435:15453   */\n      mul\n        /* \"#utility.yul\":15474:15571   */\n      tag_349\n        /* \"#utility.yul\":15504:15570   */\n      0xffffffffffffffffffffffffffffffffffffffffffffffffffffffffffffffff\n        /* \"#utility.yul\":15493:15502   */\n      dup3\n        /* \"#utility.yul\":15474:15571   */\n      tag_192\n      jump\t// in\n    tag_349:\n        /* \"#utility.yul\":15592:15631   */\n      tag_350\n        /* \"#utility.yul\":15622:15630   */\n      dup7\n        /* \"#utility.yul\":15611:15620   */\n      dup4\n        /* \"#utility.yul\":15592:15631   */\n      tag_192\n      jump\t// in\n    tag_350:\n        /* \"#utility.yul\":15580:15631   */\n      swap6\n      pop\n        /* \"#utility.yul\":15664:15668   */\n      dup1\n        /* \"#utility.yul\":15660:15669   */\n      not\n        /* \"#utility.yul\":15653:15658   */\n      dup5\n        /* \"#utility.yul\":15649:15670   */\n      and\n        /* \"#utility.yul\":15640:15670   */\n      swap4\n      pop\n        /* \"#utility.yul\":15713:15717   */\n      dup1\n        /* \"#utility.yul\":15703:15711   */\n      dup7\n        /* \"#utility.yul\":15699:15718   */\n      and\n        /* \"#utility.yul\":15692:15697   */\n      dup5\n        /* \"#utility.yul\":15689:15719   */\n      or\n        /* \"#utility.yul\":15679:15719   */\n      swap3\n      pop\n        /* \"#utility.yul\":15408:15725   */\n      pop\n      pop\n        /* \"#utility.yul\":15332:15725   */\n      swap4\n      swap3\n      pop\n      pop\n      pop\n      jump\t// out\n        /* \"#utility.yul\":15731:15791   */\n    tag_194:\n        /* \"#utility.yul\":15759:15762   */\n      0x00\n        /* \"#utility.yul\":15780:15785   */\n      dup2\n        /* \"#utility.yul\":15773:15785   */\n      swap1\n      pop\n        /* \"#utility.yul\":15731:15791   */\n      swap2\n      swap1\n      pop\n      jump\t// out\n        /* \"#utility.yul\":15797:15939   */\n    tag_195:\n        /* \"#utility.yul\":15847:15856   */\n      0x00\n        /* \"#utility.yul\":15880:15933   */\n      tag_353\n        /* \"#utility.yul\":15898:15932   */\n      tag_354\n        /* \"#utility.yul\":15907:15931   */\n      tag_355\n        /* \"#utility.yul\":15925:15930   */\n      dup5\n        /* \"#utility.yul\":15907:15931   */\n      tag_153\n      jump\t// in\n    tag_355:\n        /* \"#utility.yul\":15898:15932   */\n      tag_194\n      jump\t// in\n    tag_354:\n        /* \"#utility.yul\":15880:15933   */\n      tag_153\n      jump\t// in\n    tag_353:\n        /* \"#utility.yul\":15867:15933   */\n      swap1\n      pop\n        /* \"#utility.yul\":15797:15939   */\n      swap2\n      swap1\n      pop\n      jump\t// out\n        /* \"#utility.yul\":15945:16020   */\n    tag_196:\n        /* \"#utility.yul\":15988:15991   */\n      0x00\n        /* \"#utility.yul\":16009:16014   */\n      dup2\n        /* \"#utility.yul\":16002:16014   */\n      swap1\n      pop\n        /* \"#utility.yul\":15945:16020   */\n      swap2\n      swap1\n      pop\n      jump\t// out\n        /* \"#utility.yul\":16026:16295   */\n    tag_197:\n        /* \"#utility.yul\":16136:16175   */\n      tag_358\n        /* \"#utility.yul\":16167:16174   */\n      dup4\n        /* \"#utility.yul\":16136:16175   */\n      tag_195\n      jump\t// in\n    tag_358:\n        /* \"#utility.yul\":16197:16288   */\n      tag_359\n        /* \"#utility.yul\":16246:16287   */\n      tag_360\n        /* \"#utility.yul\":16270:16286   */\n      dup3\n        /* \"#utility.yul\":16246:16287   */\n      tag_196\n      jump\t// in\n    tag_360:\n        /* \"#utility.yul\":16238:16244   */\n      dup5\n        /* \"#utility.yul\":16231:16235   */\n      dup5\n        /* \"#utility.yul\":16225:16236   */\n      sload\n        /* \"#utility.yul\":16197:16288   */\n      tag_193\n      jump\t// in\n    tag_359:\n        /* \"#utility.yul\":16191:16195   */\n      dup3\n        /* \"#utility.yul\":16184:16289   */\n      sstore\n        /* \"#utility.yul\":16102:16295   */\n      pop\n        /* \"#utility.yul\":16026:16295   */\n      pop\n      pop\n      pop\n      jump\t// out\n        /* \"#utility.yul\":16301:16374   */\n    tag_198:\n        /* \"#utility.yul\":16346:16349   */\n      0x00\n        /* \"#utility.yul\":16301:16374   */\n      swap1\n      jump\t// out\n        /* \"#utility.yul\":16380:16569   */\n    tag_199:\n        /* \"#utility.yul\":16457:16489   */\n      tag_363\n      tag_198\n      jump\t// in\n    tag_363:\n        /* \"#utility.yul\":16498:16563   */\n      tag_364\n        /* \"#utility.yul\":16556:16562   */\n      dup2\n        /* \"#utility.yul\":16548:16554   */\n      dup5\n        /* \"#utility.yul\":16542:16546   */\n      dup5\n        /* \"#utility.yul\":16498:16563   */\n      tag_197\n      jump\t// in\n    tag_364:\n        /* \"#utility.yul\":16433:16569   */\n      pop\n        /* \"#utility.yul\":16380:16569   */\n      pop\n      pop\n      jump\t// out\n        /* \"#utility.yul\":16575:16761   */\n    tag_200:\n        /* \"#utility.yul\":16635:16755   */\n    tag_366:\n        /* \"#utility.yul\":16652:16655   */\n      dup2\n        /* \"#utility.yul\":16645:16650   */\n      dup2\n        /* \"#utility.yul\":16642:16656   */\n      lt\n        /* \"#utility.yul\":16635:16755   */\n      iszero\n      tag_368\n      jumpi\n        /* \"#utility.yul\":16706:16745   */\n      tag_369\n        /* \"#utility.yul\":16743:16744   */\n      0x00\n        /* \"#utility.yul\":16736:16741   */\n      dup3\n        /* \"#utility.yul\":16706:16745   */\n      tag_199\n      jump\t// in\n    tag_369:\n        /* \"#utility.yul\":16679:16680   */\n      0x01\n        /* \"#utility.yul\":16672:16677   */\n      dup2\n        /* \"#utility.yul\":16668:16681   */\n      add\n        /* \"#utility.yul\":16659:16681   */\n      swap1\n      pop\n        /* \"#utility.yul\":16635:16755   */\n      jump(tag_366)\n    tag_368:\n        /* \"#utility.yul\":16575:16761   */\n      pop\n      pop\n      jump\t// out\n        /* \"#utility.yul\":16767:17310   */\n    tag_201:\n        /* \"#utility.yul\":16868:16870   */\n      0x1f\n        /* \"#utility.yul\":16863:16866   */\n      dup3\n        /* \"#utility.yul\":16860:16871   */\n      gt\n        /* \"#utility.yul\":16857:17303   */\n      iszero\n      tag_371\n      jumpi\n        /* \"#utility.yul\":16902:16940   */\n      tag_372\n        /* \"#utility.yul\":16934:16939   */\n      dup2\n        /* \"#utility.yul\":16902:16940   */\n      tag_190\n      jump\t// in\n    tag_372:\n        /* \"#utility.yul\":16986:17015   */\n      tag_373\n        /* \"#utility.yul\":17004:17014   */\n      dup5\n        /* \"#utility.yul\":16986:17015   */\n      tag_191\n      jump\t// in\n    tag_373:\n        /* \"#utility.yul\":16976:16984   */\n      dup2\n        /* \"#utility.yul\":16972:17016   */\n      add\n        /* \"#utility.yul\":17169:17171   */\n      0x20\n        /* \"#utility.yul\":17157:17167   */\n      dup6\n        /* \"#utility.yul\":17154:17172   */\n      lt\n        /* \"#utility.yul\":17151:17200   */\n      iszero\n      tag_374\n      jumpi\n        /* \"#utility.yul\":17190:17198   */\n      dup2\n        /* \"#utility.yul\":17175:17198   */\n      swap1\n      pop\n        /* \"#utility.yul\":17151:17200   */\n    tag_374:\n        /* \"#utility.yul\":17213:17293   */\n      tag_375\n        /* \"#utility.yul\":17269:17291   */\n      tag_376\n        /* \"#utility.yul\":17287:17290   */\n      dup6\n        /* \"#utility.yul\":17269:17291   */\n      tag_191\n      jump\t// in\n    tag_376:\n        /* \"#utility.yul\":17259:17267   */\n      dup4\n        /* \"#utility.yul\":17255:17292   */\n      add\n        /* \"#utility.yul\":17242:17253   */\n      dup3\n        /* \"#utility.yul\":17213:17293   */\n      tag_200\n      jump\t// in\n    tag_375:\n        /* \"#utility.yul\":16872:17303   */\n      pop\n      pop\n        /* \"#utility.yul\":16857:17303   */\n    tag_371:\n        /* \"#utility.yul\":16767:17310   */\n      pop\n      pop\n      pop\n      jump\t// out\n        /* \"#utility.yul\":17316:17433   */\n    tag_202:\n        /* \"#utility.yul\":17370:17378   */\n      0x00\n        /* \"#utility.yul\":17420:17425   */\n      dup3\n        /* \"#utility.yul\":17414:17418   */\n      dup3\n        /* \"#utility.yul\":17410:17426   */\n      shr\n        /* \"#utility.yul\":17389:17426   */\n      swap1\n      pop\n        /* \"#utility.yul\":17316:17433   */\n      swap3\n      swap2\n      pop\n      pop\n      jump\t// out\n        /* \"#utility.yul\":17439:17608   */\n    tag_203:\n        /* \"#utility.yul\":17483:17489   */\n      0x00\n        /* \"#utility.yul\":17516:17567   */\n      tag_379\n        /* \"#utility.yul\":17564:17565   */\n      0x00\n        /* \"#utility.yul\":17560:17566   */\n      not\n        /* \"#utility.yul\":17552:17557   */\n      dup5\n        /* \"#utility.yul\":17549:17550   */\n      0x08\n        /* \"#utility.yul\":17545:17558   */\n      mul\n        /* \"#utility.yul\":17516:17567   */\n      tag_202\n      jump\t// in\n    tag_379:\n        /* \"#utility.yul\":17512:17568   */\n      not\n        /* \"#utility.yul\":17597:17601   */\n      dup1\n        /* \"#utility.yul\":17591:17595   */\n      dup4\n        /* \"#utility.yul\":17587:17602   */\n      and\n        /* \"#utility.yul\":17577:17602   */\n      swap2\n      pop\n        /* \"#utility.yul\":17490:17608   */\n      pop\n        /* \"#utility.yul\":17439:17608   */\n      swap3\n      swap2\n      pop\n      pop\n      jump\t// out\n        /* \"#utility.yul\":17613:17908   */\n    tag_204:\n        /* \"#utility.yul\":17689:17693   */\n      0x00\n        /* \"#utility.yul\":17835:17864   */\n      tag_381\n        /* \"#utility.yul\":17860:17863   */\n      dup4\n        /* \"#utility.yul\":17854:17858   */\n      dup4\n        /* \"#utility.yul\":17835:17864   */\n      tag_203\n      jump\t// in\n    tag_381:\n        /* \"#utility.yul\":17827:17864   */\n      swap2\n      pop\n        /* \"#utility.yul\":17897:17900   */\n      dup3\n        /* \"#utility.yul\":17894:17895   */\n      0x02\n        /* \"#utility.yul\":17890:17901   */\n      mul\n        /* \"#utility.yul\":17884:17888   */\n      dup3\n        /* \"#utility.yul\":17881:17902   */\n      or\n        /* \"#utility.yul\":17873:17902   */\n      swap1\n      pop\n        /* \"#utility.yul\":17613:17908   */\n      swap3\n      swap2\n      pop\n      pop\n      jump\t// out\n        /* \"#utility.yul\":17913:19308   */\n    tag_133:\n        /* \"#utility.yul\":18030:18067   */\n      tag_383\n        /* \"#utility.yul\":18063:18066   */\n      dup3\n        /* \"#utility.yul\":18030:18067   */\n      tag_148\n      jump\t// in\n    tag_383:\n        /* \"#utility.yul\":18132:18150   */\n      0xffffffffffffffff\n        /* \"#utility.yul\":18124:18130   */\n      dup2\n        /* \"#utility.yul\":18121:18151   */\n      gt\n        /* \"#utility.yul\":18118:18174   */\n      iszero\n      tag_384\n      jumpi\n        /* \"#utility.yul\":18154:18172   */\n      tag_385\n      tag_188\n      jump\t// in\n    tag_385:\n        /* \"#utility.yul\":18118:18174   */\n    tag_384:\n        /* \"#utility.yul\":18198:18236   */\n      tag_386\n        /* \"#utility.yul\":18230:18234   */\n      dup3\n        /* \"#utility.yul\":18224:18235   */\n      sload\n        /* \"#utility.yul\":18198:18236   */\n      tag_137\n      jump\t// in\n    tag_386:\n        /* \"#utility.yul\":18283:18350   */\n      tag_387\n        /* \"#utility.yul\":18343:18349   */\n      dup3\n        /* \"#utility.yul\":18335:18341   */\n      dup3\n        /* \"#utility.yul\":18329:18333   */\n      dup6\n        /* \"#utility.yul\":18283:18350   */\n      tag_201\n      jump\t// in\n    tag_387:\n        /* \"#utility.yul\":18377:18378   */\n      0x00\n        /* \"#utility.yul\":18401:18405   */\n      0x20\n        /* \"#utility.yul\":18388:18405   */\n      swap1\n      pop\n        /* \"#utility.yul\":18433:18435   */\n      0x1f\n        /* \"#utility.yul\":18425:18431   */\n      dup4\n        /* \"#utility.yul\":18422:18436   */\n      gt\n        /* \"#utility.yul\":18450:18451   */\n      0x01\n        /* \"#utility.yul\":18445:19063   */\n      dup2\n      eq\n      tag_389\n      jumpi\n        /* \"#utility.yul\":19107:19108   */\n      0x00\n        /* \"#utility.yul\":19124:19130   */\n      dup5\n        /* \"#utility.yul\":19121:19198   */\n      iszero\n      tag_390\n      jumpi\n        /* \"#utility.yul\":19173:19182   */\n      dup3\n        /* \"#utility.yul\":19168:19171   */\n      dup8\n        /* \"#utility.yul\":19164:19183   */\n      add\n        /* \"#utility.yul\":19158:19184   */\n      mload\n        /* \"#utility.yul\":19149:19184   */\n      swap1\n      pop\n        /* \"#utility.yul\":19121:19198   */\n    tag_390:\n        /* \"#utility.yul\":19224:19291   */\n      tag_391\n        /* \"#utility.yul\":19284:19290   */\n      dup6\n        /* \"#utility.yul\":19277:19282   */\n      dup3\n        /* \"#utility.yul\":19224:19291   */\n      tag_204\n      jump\t// in\n    tag_391:\n        /* \"#utility.yul\":19218:19222   */\n      dup7\n        /* \"#utility.yul\":19211:19292   */\n      sstore\n        /* \"#utility.yul\":19080:19302   */\n      pop\n        /* \"#utility.yul\":18415:19302   */\n      jump(tag_388)\n        /* \"#utility.yul\":18445:19063   */\n    tag_389:\n        /* \"#utility.yul\":18497:18501   */\n      0x1f\n        /* \"#utility.yul\":18493:18502   */\n      not\n        /* \"#utility.yul\":18485:18491   */\n      dup5\n        /* \"#utility.yul\":18481:18503   */\n      and\n        /* \"#utility.yul\":18531:18568   */\n      tag_392\n        /* \"#utility.yul\":18563:18567   */\n      dup7\n        /* \"#utility.yul\":18531:18568   */\n      tag_190\n      jump\t// in\n    tag_392:\n        /* \"#utility.yul\":18590:18591   */\n      0x00\n        /* \"#utility.yul\":18604:18812   */\n    tag_393:\n        /* \"#utility.yul\":18618:18625   */\n      dup3\n        /* \"#utility.yul\":18615:18616   */\n      dup2\n        /* \"#utility.yul\":18612:18626   */\n      lt\n        /* \"#utility.yul\":18604:18812   */\n      iszero\n      tag_395\n      jumpi\n        /* \"#utility.yul\":18697:18706   */\n      dup5\n        /* \"#utility.yul\":18692:18695   */\n      dup10\n        /* \"#utility.yul\":18688:18707   */\n      add\n        /* \"#utility.yul\":18682:18708   */\n      mload\n        /* \"#utility.yul\":18674:18680   */\n      dup3\n        /* \"#utility.yul\":18667:18709   */\n      sstore\n        /* \"#utility.yul\":18748:18749   */\n      0x01\n        /* \"#utility.yul\":18740:18746   */\n      dup3\n        /* \"#utility.yul\":18736:18750   */\n      add\n        /* \"#utility.yul\":18726:18750   */\n      swap2\n      pop\n        /* \"#utility.yul\":18795:18797   */\n      0x20\n        /* \"#utility.yul\":18784:18793   */\n      dup6\n        /* \"#utility.yul\":18780:18798   */\n      add\n        /* \"#utility.yul\":18767:18798   */\n      swap5\n      pop\n        /* \"#utility.yul\":18641:18645   */\n      0x20\n        /* \"#utility.yul\":18638:18639   */\n      dup2\n        /* \"#utility.yul\":18634:18646   */\n      add\n        /* \"#utility.yul\":18629:18646   */\n      swap1\n      pop\n        /* \"#utility.yul\":18604:18812   */\n      jump(tag_393)\n    tag_395:\n        /* \"#utility.yul\":18840:18846   */\n      dup7\n        /* \"#utility.yul\":18831:18838   */\n      dup4\n        /* \"#utility.yul\":18828:18847   */\n      lt\n        /* \"#utility.yul\":18825:19004   */\n      iszero\n      tag_396\n      jumpi\n        /* \"#utility.yul\":18898:18907   */\n      dup5\n        /* \"#utility.yul\":18893:18896   */\n      dup10\n        /* \"#utility.yul\":18889:18908   */\n      add\n        /* \"#utility.yul\":18883:18909   */\n      mload\n        /* \"#utility.yul\":18941:18989   */\n      tag_397\n        /* \"#utility.yul\":18983:18987   */\n      0x1f\n        /* \"#utility.yul\":18975:18981   */\n      dup10\n        /* \"#utility.yul\":18971:18988   */\n      and\n        /* \"#utility.yul\":18960:18969   */\n      dup3\n        /* \"#utility.yul\":18941:18989   */\n      tag_203\n      jump\t// in\n    tag_397:\n        /* \"#utility.yul\":18933:18939   */\n      dup4\n        /* \"#utility.yul\":18926:18990   */\n      sstore\n        /* \"#utility.yul\":18848:19004   */\n      pop\n        /* \"#utility.yul\":18825:19004   */\n    tag_396:\n        /* \"#utility.yul\":19050:19051   */\n      0x01\n        /* \"#utility.yul\":19046:19047   */\n      0x02\n        /* \"#utility.yul\":19038:19044   */\n      dup9\n        /* \"#utility.yul\":19034:19048   */\n      mul\n        /* \"#utility.yul\":19030:19052   */\n      add\n        /* \"#utility.yul\":19024:19028   */\n      dup9\n        /* \"#utility.yul\":19017:19053   */\n      sstore\n        /* \"#utility.yul\":18452:19063   */\n      pop\n      pop\n      pop\n        /* \"#utility.yul\":18415:19302   */\n    tag_388:\n      pop\n        /* \"#utility.yul\":18005:19308   */\n      pop\n      pop\n      pop\n        /* \"#utility.yul\":17913:19308   */\n      pop\n      pop\n      jump\t// out\n        /* \"#utility.yul\":19314:19462   */\n    tag_205:\n        /* \"#utility.yul\":19412:19418   */\n      dup3\n        /* \"#utility.yul\":19407:19410   */\n      dup2\n        /* \"#utility.yul\":19402:19405   */\n      dup4\n        /* \"#utility.yul\":19389:19419   */\n      calldatacopy\n        /* \"#utility.yul\":19453:19454   */\n      0x00\n        /* \"#utility.yul\":19444:19450   */\n      dup4\n        /* \"#utility.yul\":19439:19442   */\n      dup4\n        /* \"#utility.yul\":19435:19451   */\n      add\n        /* \"#utility.yul\":19428:19455   */\n      mstore\n        /* \"#utility.yul\":19314:19462   */\n      pop\n      pop\n      pop\n      jump\t// out\n        /* \"#utility.yul\":19492:19809   */\n    tag_206:\n        /* \"#utility.yul\":19590:19593   */\n      0x00\n        /* \"#utility.yul\":19611:19682   */\n      tag_400\n        /* \"#utility.yul\":19675:19681   */\n      dup4\n        /* \"#utility.yul\":19670:19673   */\n      dup6\n        /* \"#utility.yul\":19611:19682   */\n      tag_149\n      jump\t// in\n    tag_400:\n        /* \"#utility.yul\":19604:19682   */\n      swap4\n      pop\n        /* \"#utility.yul\":19692:19748   */\n      tag_401\n        /* \"#utility.yul\":19741:19747   */\n      dup4\n        /* \"#utility.yul\":19736:19739   */\n      dup6\n        /* \"#utility.yul\":19729:19734   */\n      dup5\n        /* \"#utility.yul\":19692:19748   */\n      tag_205\n      jump\t// in\n    tag_401:\n        /* \"#utility.yul\":19773:19802   */\n      tag_402\n        /* \"#utility.yul\":19795:19801   */\n      dup4\n        /* \"#utility.yul\":19773:19802   */\n      tag_151\n      jump\t// in\n    tag_402:\n        /* \"#utility.yul\":19768:19771   */\n      dup5\n        /* \"#utility.yul\":19764:19803   */\n      add\n        /* \"#utility.yul\":19757:19803   */\n      swap1\n      pop\n        /* \"#utility.yul\":19492:19809   */\n      swap4\n      swap3\n      pop\n      pop\n      pop\n      jump\t// out\n        /* \"#utility.yul\":19815:20258   */\n    tag_135:\n        /* \"#utility.yul\":19966:19970   */\n      0x00\n        /* \"#utility.yul\":20004:20006   */\n      0x40\n        /* \"#utility.yul\":19993:20002   */\n      dup3\n        /* \"#utility.yul\":19989:20007   */\n      add\n        /* \"#utility.yul\":19981:20007   */\n      swap1\n      pop\n        /* \"#utility.yul\":20017:20088   */\n      tag_404\n        /* \"#utility.yul\":20085:20086   */\n      0x00\n        /* \"#utility.yul\":20074:20083   */\n      dup4\n        /* \"#utility.yul\":20070:20087   */\n      add\n        /* \"#utility.yul\":20061:20067   */\n      dup7\n        /* \"#utility.yul\":20017:20088   */\n      tag_154\n      jump\t// in\n    tag_404:\n        /* \"#utility.yul\":20135:20144   */\n      dup2\n        /* \"#utility.yul\":20129:20133   */\n      dup2\n        /* \"#utility.yul\":20125:20145   */\n      sub\n        /* \"#utility.yul\":20120:20122   */\n      0x20\n        /* \"#utility.yul\":20109:20118   */\n      dup4\n        /* \"#utility.yul\":20105:20123   */\n      add\n        /* \"#utility.yul\":20098:20146   */\n      mstore\n        /* \"#utility.yul\":20163:20251   */\n      tag_405\n        /* \"#utility.yul\":20246:20250   */\n      dup2\n        /* \"#utility.yul\":20237:20243   */\n      dup5\n        /* \"#utility.yul\":20229:20235   */\n      dup7\n        /* \"#utility.yul\":20163:20251   */\n      tag_206\n      jump\t// in\n    tag_405:\n        /* \"#utility.yul\":20155:20251   */\n      swap1\n      pop\n        /* \"#utility.yul\":19815:20258   */\n      swap5\n      swap4\n      pop\n      pop\n      pop\n      pop\n      jump\t// out\n\n    auxdata: 0xa26469706673582212201a86556c6dfe4f74a89ae5c2615ba15c8310be35366ebb246deacc58354fc56b64736f6c634300081a0033\n}\n",
				"bytecode": {
					"linkReferences": {},
					"object": "6080604052348015600e575f80fd5b50335f60016101000a81548173ffffffffffffffffffffffffffffffffffffffff021916908373ffffffffffffffffffffffffffffffffffffffff1602179055505f805f6101000a81548160ff02191690836002811115606f57606e6078565b5b021790555060a5565b7f4e487b71000000000000000000000000000000000000000000000000000000005f52602160045260245ffd5b611741806100b25f395ff3fe608060405234801561000f575f80fd5b50600436106100b2575f3560e01c80635bf5d54c1161006f5780635bf5d54c146101535780638da5cb5b146101715780639eb88db61461018f578063b13c744b146101ab578063fd47b368146101dd578063ff981099146101f9576100b2565b806312c56989146100b6578063285078b6146100d45780633866965c146100de5780633eb76b9c146100fc5780634763d4e71461011857806357500bba14610149575b5f80fd5b6100be610229565b6040516100cb9190610d11565b60405180910390f35b6100dc61039d565b005b6100e66104f5565b6040516100f39190610d49565b60405180910390f35b61011660048036038101906101119190610d94565b6104fb565b005b610132600480360381019061012d9190610e19565b610752565b604051610140929190610e5e565b60405180910390f35b61015161077e565b005b61015b6108d7565b6040516101689190610ef8565b60405180910390f35b6101796108e7565b6040516101869190610f20565b60405180910390f35b6101a960048036038101906101a49190610f9a565b61090c565b005b6101c560048036038101906101c09190610d94565b610a91565b6040516101d493929190610fe5565b60405180910390f35b6101f760048036038101906101f29190610e19565b610b3d565b005b610213600480360381019061020e9190610d94565b610c84565b6040516102209190610d49565b60405180910390f35b60605f600281111561023e5761023d610e85565b5b5f8054906101000a900460ff16600281111561025d5761025c610e85565b5b0361029f576040518060400160405280600881526020017f496e616374697665000000000000000000000000000000000000000000000000815250905061039a565b600160028111156102b3576102b2610e85565b5b5f8054906101000a900460ff1660028111156102d2576102d1610e85565b5b03610314576040518060400160405280600681526020017f4163746976650000000000000000000000000000000000000000000000000000815250905061039a565b60028081111561032757610326610e85565b5b5f8054906101000a900460ff16600281111561034657610345610e85565b5b03610388576040518060400160405280600581526020017f456e646564000000000000000000000000000000000000000000000000000000815250905061039a565b60405180602001604052805f81525090505b90565b5f60019054906101000a900473ffffffffffffffffffffffffffffffffffffffff1673ffffffffffffffffffffffffffffffffffffffff163373ffffffffffffffffffffffffffffffffffffffff161461042c576040517f08c379a000000000000000000000000000000000000000000000000000000000815260040161042390611091565b60405180910390fd5b5f600281111561043f5761043e610e85565b5b5f8054906101000a900460ff16600281111561045e5761045d610e85565b5b1461049e576040517f08c379a00000000000000000000000000000000000000000000000000000000081526004016104959061111f565b60405180910390fd5b60015f806101000a81548160ff021916908360028111156104c2576104c1610e85565b5b02179055507f09c349698bc225dad42aba5a0d5675bb82dfa7adbb070506a1f1a7a41090c5c860405160405180910390a1565b60015481565b6001600281111561050f5761050e610e85565b5b5f8054906101000a900460ff16600281111561052e5761052d610e85565b5b1461056e576040517f08c379a000000000000000000000000000000000000000000000000000000000815260040161056590611187565b60405180910390fd5b60035f3373ffffffffffffffffffffffffffffffffffffffff1673ffffffffffffffffffffffffffffffffffffffff1681526020019081526020015f205f015f9054906101000a900460ff16156105fa576040517f08c379a00000000000000000000000000000000000000000000000000000000081526004016105f1906111ef565b60405180910390fd5b5f60025f8381526020019081526020015f205f01540361064f576040517f08c379a000000000000000000000000000000000000000000000000000000000815260040161064690611257565b60405180910390fd5b600160035f3373ffffffffffffffffffffffffffffffffffffffff1673ffffffffffffffffffffffffffffffffffffffff1681526020019081526020015f205f015f6101000a81548160ff0219169083151502179055508060035f3373ffffffffffffffffffffffffffffffffffffffff1673ffffffffffffffffffffffffffffffffffffffff1681526020019081526020015f2060010181905550600160025f8381526020019081526020015f206002015f82825461070f91906112a2565b925050819055507f98f81efbbc42e3175555266dc8fda4ea0859ca75447f118fdde2c72a2b8735f133826040516107479291906112d5565b60405180910390a150565b6003602052805f5260405f205f91509050805f015f9054906101000a900460ff16908060010154905082565b5f60019054906101000a900473ffffffffffffffffffffffffffffffffffffffff1673ffffffffffffffffffffffffffffffffffffffff163373ffffffffffffffffffffffffffffffffffffffff161461080d576040517f08c379a000000000000000000000000000000000000000000000000000000000815260040161080490611091565b60405180910390fd5b6001600281111561082157610820610e85565b5b5f8054906101000a900460ff1660028111156108405761083f610e85565b5b14610880576040517f08c379a000000000000000000000000000000000000000000000000000000000815260040161087790611346565b60405180910390fd5b60025f806101000a81548160ff021916908360028111156108a4576108a3610e85565b5b02179055507f9bd4d19f68b3a6e40574077ffaf4cc51a53615ed948cebf6668ac461bee10b7660405160405180910390a1565b5f8054906101000a900460ff1681565b5f60019054906101000a900473ffffffffffffffffffffffffffffffffffffffff1681565b5f60019054906101000a900473ffffffffffffffffffffffffffffffffffffffff1673ffffffffffffffffffffffffffffffffffffffff163373ffffffffffffffffffffffffffffffffffffffff161461099b576040517f08c379a000000000000000000000000000000000000000000000000000000000815260040161099290611091565b60405180910390fd5b60015f8154809291906109ad90611364565b91905055506040518060600160405280600154815260200183838080601f0160208091040260200160405190810160405280939291908181526020018383808284375f81840152601f19601f8201169050808301925050505050505081526020015f81525060025f60015481526020019081526020015f205f820151815f01556020820151816001019081610a4291906115d2565b50604082015181600201559050507f01c6feb6a218293c8f849426e09abdca9d0d75e57e2255b6a7942add2bb3cb906001548383604051610a85939291906116db565b60405180910390a15050565b6002602052805f5260405f205f91509050805f015490806001018054610ab690611405565b80601f0160208091040260200160405190810160405280929190818152602001828054610ae290611405565b8015610b2d5780601f10610b0457610100808354040283529160200191610b2d565b820191905f5260205f20905b815481529060010190602001808311610b1057829003601f168201915b5050505050908060020154905083565b5f60019054906101000a900473ffffffffffffffffffffffffffffffffffffffff1673ffffffffffffffffffffffffffffffffffffffff163373ffffffffffffffffffffffffffffffffffffffff1614610bcc576040517f08c379a0000000000000000000000000000000000000000000000000000000008152600401610bc390611091565b60405180910390fd5b60405180604001604052805f151581526020015f81525060035f8373ffffffffffffffffffffffffffffffffffffffff1673ffffffffffffffffffffffffffffffffffffffff1681526020019081526020015f205f820151815f015f6101000a81548160ff021916908315150217905550602082015181600101559050507f5ead487500813570a0cb797743855abbc51c66c9b3793ce6fdb0bf967a562f4981604051610c799190610f20565b60405180910390a150565b5f60025f8381526020019081526020015f20600201549050919050565b5f81519050919050565b5f82825260208201905092915050565b8281835e5f83830152505050565b5f601f19601f8301169050919050565b5f610ce382610ca1565b610ced8185610cab565b9350610cfd818560208601610cbb565b610d0681610cc9565b840191505092915050565b5f6020820190508181035f830152610d298184610cd9565b905092915050565b5f819050919050565b610d4381610d31565b82525050565b5f602082019050610d5c5f830184610d3a565b92915050565b5f80fd5b5f80fd5b610d7381610d31565b8114610d7d575f80fd5b50565b5f81359050610d8e81610d6a565b92915050565b5f60208284031215610da957610da8610d62565b5b5f610db684828501610d80565b91505092915050565b5f73ffffffffffffffffffffffffffffffffffffffff82169050919050565b5f610de882610dbf565b9050919050565b610df881610dde565b8114610e02575f80fd5b50565b5f81359050610e1381610def565b92915050565b5f60208284031215610e2e57610e2d610d62565b5b5f610e3b84828501610e05565b91505092915050565b5f8115159050919050565b610e5881610e44565b82525050565b5f604082019050610e715f830185610e4f565b610e7e6020830184610d3a565b9392505050565b7f4e487b71000000000000000000000000000000000000000000000000000000005f52602160045260245ffd5b60038110610ec357610ec2610e85565b5b50565b5f819050610ed382610eb2565b919050565b5f610ee282610ec6565b9050919050565b610ef281610ed8565b82525050565b5f602082019050610f0b5f830184610ee9565b92915050565b610f1a81610dde565b82525050565b5f602082019050610f335f830184610f11565b92915050565b5f80fd5b5f80fd5b5f80fd5b5f8083601f840112610f5a57610f59610f39565b5b8235905067ffffffffffffffff811115610f7757610f76610f3d565b5b602083019150836001820283011115610f9357610f92610f41565b5b9250929050565b5f8060208385031215610fb057610faf610d62565b5b5f83013567ffffffffffffffff811115610fcd57610fcc610d66565b5b610fd985828601610f45565b92509250509250929050565b5f606082019050610ff85f830186610d3a565b818103602083015261100a8185610cd9565b90506110196040830184610d3a565b949350505050565b7f416363657373207265737472696374656420746f2074686520636f6e747261635f8201527f74206f776e657200000000000000000000000000000000000000000000000000602082015250565b5f61107b602783610cab565b915061108682611021565b604082019050919050565b5f6020820190508181035f8301526110a88161106f565b9050919050565b7f456c656374696f6e20616c72656164792073746172746564206f7220656e64655f8201527f6400000000000000000000000000000000000000000000000000000000000000602082015250565b5f611109602183610cab565b9150611114826110af565b604082019050919050565b5f6020820190508181035f830152611136816110fd565b9050919050565b7f566f74696e67206973206e6f742063757272656e746c792061637469766500005f82015250565b5f611171601e83610cab565b915061117c8261113d565b602082019050919050565b5f6020820190508181035f83015261119e81611165565b9050919050565b7f566f746520616c726561647920636173740000000000000000000000000000005f82015250565b5f6111d9601183610cab565b91506111e4826111a5565b602082019050919050565b5f6020820190508181035f830152611206816111cd565b9050919050565b7f496e76616c69642063616e6469646174652049440000000000000000000000005f82015250565b5f611241601483610cab565b915061124c8261120d565b602082019050919050565b5f6020820190508181035f83015261126e81611235565b9050919050565b7f4e487b71000000000000000000000000000000000000000000000000000000005f52601160045260245ffd5b5f6112ac82610d31565b91506112b783610d31565b92508282019050808211156112cf576112ce611275565b5b92915050565b5f6040820190506112e85f830185610f11565b6112f56020830184610d3a565b9392505050565b7f566f74696e67206973206e6f74206163746976650000000000000000000000005f82015250565b5f611330601483610cab565b915061133b826112fc565b602082019050919050565b5f6020820190508181035f83015261135d81611324565b9050919050565b5f61136e82610d31565b91507fffffffffffffffffffffffffffffffffffffffffffffffffffffffffffffffff82036113a05761139f611275565b5b600182019050919050565b7f4e487b71000000000000000000000000000000000000000000000000000000005f52604160045260245ffd5b7f4e487b71000000000000000000000000000000000000000000000000000000005f52602260045260245ffd5b5f600282049050600182168061141c57607f821691505b60208210810361142f5761142e6113d8565b5b50919050565b5f819050815f5260205f209050919050565b5f6020601f8301049050919050565b5f82821b905092915050565b5f600883026114917fffffffffffffffffffffffffffffffffffffffffffffffffffffffffffffffff82611456565b61149b8683611456565b95508019841693508086168417925050509392505050565b5f819050919050565b5f6114d66114d16114cc84610d31565b6114b3565b610d31565b9050919050565b5f819050919050565b6114ef836114bc565b6115036114fb826114dd565b848454611462565b825550505050565b5f90565b61151761150b565b6115228184846114e6565b505050565b5b818110156115455761153a5f8261150f565b600181019050611528565b5050565b601f82111561158a5761155b81611435565b61156484611447565b81016020851015611573578190505b61158761157f85611447565b830182611527565b50505b505050565b5f82821c905092915050565b5f6115aa5f198460080261158f565b1980831691505092915050565b5f6115c2838361159b565b9150826002028217905092915050565b6115db82610ca1565b67ffffffffffffffff8111156115f4576115f36113ab565b5b6115fe8254611405565b611609828285611549565b5f60209050601f83116001811461163a575f8415611628578287015190505b61163285826115b7565b865550611699565b601f19841661164886611435565b5f5b8281101561166f5784890151825560018201915060208501945060208101905061164a565b8683101561168c5784890151611688601f89168261159b565b8355505b6001600288020188555050505b505050505050565b828183375f83830152505050565b5f6116ba8385610cab565b93506116c78385846116a1565b6116d083610cc9565b840190509392505050565b5f6040820190506116ee5f830186610d3a565b81810360208301526117018184866116af565b905094935050505056fea26469706673582212201a86556c6dfe4f74a89ae5c2615ba15c8310be35366ebb246deacc58354fc56b64736f6c634300081a0033",
					"opcodes": "PUSH1 0x80 PUSH1 0x40 MSTORE CALLVALUE DUP1 ISZERO PUSH1 0xE JUMPI PUSH0 DUP1 REVERT JUMPDEST POP CALLER PUSH0 PUSH1 0x1 PUSH2 0x100 EXP DUP2 SLOAD DUP2 PUSH20 0xFFFFFFFFFFFFFFFFFFFFFFFFFFFFFFFFFFFFFFFF MUL NOT AND SWAP1 DUP4 PUSH20 0xFFFFFFFFFFFFFFFFFFFFFFFFFFFFFFFFFFFFFFFF AND MUL OR SWAP1 SSTORE POP PUSH0 DUP1 PUSH0 PUSH2 0x100 EXP DUP2 SLOAD DUP2 PUSH1 0xFF MUL NOT AND SWAP1 DUP4 PUSH1 0x2 DUP2 GT ISZERO PUSH1 0x6F JUMPI PUSH1 0x6E PUSH1 0x78 JUMP JUMPDEST JUMPDEST MUL OR SWAP1 SSTORE POP PUSH1 0xA5 JUMP JUMPDEST PUSH32 0x4E487B7100000000000000000000000000000000000000000000000000000000 PUSH0 MSTORE PUSH1 0x21 PUSH1 0x4 MSTORE PUSH1 0x24 PUSH0 REVERT JUMPDEST PUSH2 0x1741 DUP1 PUSH2 0xB2 PUSH0 CODECOPY PUSH0 RETURN INVALID PUSH1 0x80 PUSH1 0x40 MSTORE CALLVALUE DUP1 ISZERO PUSH2 0xF JUMPI PUSH0 DUP1 REVERT JUMPDEST POP PUSH1 0x4 CALLDATASIZE LT PUSH2 0xB2 JUMPI PUSH0 CALLDATALOAD PUSH1 0xE0 SHR DUP1 PUSH4 0x5BF5D54C GT PUSH2 0x6F JUMPI DUP1 PUSH4 0x5BF5D54C EQ PUSH2 0x153 JUMPI DUP1 PUSH4 0x8DA5CB5B EQ PUSH2 0x171 JUMPI DUP1 PUSH4 0x9EB88DB6 EQ PUSH2 0x18F JUMPI DUP1 PUSH4 0xB13C744B EQ PUSH2 0x1AB JUMPI DUP1 PUSH4 0xFD47B368 EQ PUSH2 0x1DD JUMPI DUP1 PUSH4 0xFF981099 EQ PUSH2 0x1F9 JUMPI PUSH2 0xB2 JUMP JUMPDEST DUP1 PUSH4 0x12C56989 EQ PUSH2 0xB6 JUMPI DUP1 PUSH4 0x285078B6 EQ PUSH2 0xD4 JUMPI DUP1 PUSH4 0x3866965C EQ PUSH2 0xDE JUMPI DUP1 PUSH4 0x3EB76B9C EQ PUSH2 0xFC JUMPI DUP1 PUSH4 0x4763D4E7 EQ PUSH2 0x118 JUMPI DUP1 PUSH4 0x57500BBA EQ PUSH2 0x149 JUMPI JUMPDEST PUSH0 DUP1 REVERT JUMPDEST PUSH2 0xBE PUSH2 0x229 JUMP JUMPDEST PUSH1 0x40 MLOAD PUSH2 0xCB SWAP2 SWAP1 PUSH2 0xD11 JUMP JUMPDEST PUSH1 0x40 MLOAD DUP1 SWAP2 SUB SWAP1 RETURN JUMPDEST PUSH2 0xDC PUSH2 0x39D JUMP JUMPDEST STOP JUMPDEST PUSH2 0xE6 PUSH2 0x4F5 JUMP JUMPDEST PUSH1 0x40 MLOAD PUSH2 0xF3 SWAP2 SWAP1 PUSH2 0xD49 JUMP JUMPDEST PUSH1 0x40 MLOAD DUP1 SWAP2 SUB SWAP1 RETURN JUMPDEST PUSH2 0x116 PUSH1 0x4 DUP1 CALLDATASIZE SUB DUP2 ADD SWAP1 PUSH2 0x111 SWAP2 SWAP1 PUSH2 0xD94 JUMP JUMPDEST PUSH2 0x4FB JUMP JUMPDEST STOP JUMPDEST PUSH2 0x132 PUSH1 0x4 DUP1 CALLDATASIZE SUB DUP2 ADD SWAP1 PUSH2 0x12D SWAP2 SWAP1 PUSH2 0xE19 JUMP JUMPDEST PUSH2 0x752 JUMP JUMPDEST PUSH1 0x40 MLOAD PUSH2 0x140 SWAP3 SWAP2 SWAP1 PUSH2 0xE5E JUMP JUMPDEST PUSH1 0x40 MLOAD DUP1 SWAP2 SUB SWAP1 RETURN JUMPDEST PUSH2 0x151 PUSH2 0x77E JUMP JUMPDEST STOP JUMPDEST PUSH2 0x15B PUSH2 0x8D7 JUMP JUMPDEST PUSH1 0x40 MLOAD PUSH2 0x168 SWAP2 SWAP1 PUSH2 0xEF8 JUMP JUMPDEST PUSH1 0x40 MLOAD DUP1 SWAP2 SUB SWAP1 RETURN JUMPDEST PUSH2 0x179 PUSH2 0x8E7 JUMP JUMPDEST PUSH1 0x40 MLOAD PUSH2 0x186 SWAP2 SWAP1 PUSH2 0xF20 JUMP JUMPDEST PUSH1 0x40 MLOAD DUP1 SWAP2 SUB SWAP1 RETURN JUMPDEST PUSH2 0x1A9 PUSH1 0x4 DUP1 CALLDATASIZE SUB DUP2 ADD SWAP1 PUSH2 0x1A4 SWAP2 SWAP1 PUSH2 0xF9A JUMP JUMPDEST PUSH2 0x90C JUMP JUMPDEST STOP JUMPDEST PUSH2 0x1C5 PUSH1 0x4 DUP1 CALLDATASIZE SUB DUP2 ADD SWAP1 PUSH2 0x1C0 SWAP2 SWAP1 PUSH2 0xD94 JUMP JUMPDEST PUSH2 0xA91 JUMP JUMPDEST PUSH1 0x40 MLOAD PUSH2 0x1D4 SWAP4 SWAP3 SWAP2 SWAP1 PUSH2 0xFE5 JUMP JUMPDEST PUSH1 0x40 MLOAD DUP1 SWAP2 SUB SWAP1 RETURN JUMPDEST PUSH2 0x1F7 PUSH1 0x4 DUP1 CALLDATASIZE SUB DUP2 ADD SWAP1 PUSH2 0x1F2 SWAP2 SWAP1 PUSH2 0xE19 JUMP JUMPDEST PUSH2 0xB3D JUMP JUMPDEST STOP JUMPDEST PUSH2 0x213 PUSH1 0x4 DUP1 CALLDATASIZE SUB DUP2 ADD SWAP1 PUSH2 0x20E SWAP2 SWAP1 PUSH2 0xD94 JUMP JUMPDEST PUSH2 0xC84 JUMP JUMPDEST PUSH1 0x40 MLOAD PUSH2 0x220 SWAP2 SWAP1 PUSH2 0xD49 JUMP JUMPDEST PUSH1 0x40 MLOAD DUP1 SWAP2 SUB SWAP1 RETURN JUMPDEST PUSH1 0x60 PUSH0 PUSH1 0x2 DUP2 GT ISZERO PUSH2 0x23E JUMPI PUSH2 0x23D PUSH2 0xE85 JUMP JUMPDEST JUMPDEST PUSH0 DUP1 SLOAD SWAP1 PUSH2 0x100 EXP SWAP1 DIV PUSH1 0xFF AND PUSH1 0x2 DUP2 GT ISZERO PUSH2 0x25D JUMPI PUSH2 0x25C PUSH2 0xE85 JUMP JUMPDEST JUMPDEST SUB PUSH2 0x29F JUMPI PUSH1 0x40 MLOAD DUP1 PUSH1 0x40 ADD PUSH1 0x40 MSTORE DUP1 PUSH1 0x8 DUP2 MSTORE PUSH1 0x20 ADD PUSH32 0x496E616374697665000000000000000000000000000000000000000000000000 DUP2 MSTORE POP SWAP1 POP PUSH2 0x39A JUMP JUMPDEST PUSH1 0x1 PUSH1 0x2 DUP2 GT ISZERO PUSH2 0x2B3 JUMPI PUSH2 0x2B2 PUSH2 0xE85 JUMP JUMPDEST JUMPDEST PUSH0 DUP1 SLOAD SWAP1 PUSH2 0x100 EXP SWAP1 DIV PUSH1 0xFF AND PUSH1 0x2 DUP2 GT ISZERO PUSH2 0x2D2 JUMPI PUSH2 0x2D1 PUSH2 0xE85 JUMP JUMPDEST JUMPDEST SUB PUSH2 0x314 JUMPI PUSH1 0x40 MLOAD DUP1 PUSH1 0x40 ADD PUSH1 0x40 MSTORE DUP1 PUSH1 0x6 DUP2 MSTORE PUSH1 0x20 ADD PUSH32 0x4163746976650000000000000000000000000000000000000000000000000000 DUP2 MSTORE POP SWAP1 POP PUSH2 0x39A JUMP JUMPDEST PUSH1 0x2 DUP1 DUP2 GT ISZERO PUSH2 0x327 JUMPI PUSH2 0x326 PUSH2 0xE85 JUMP JUMPDEST JUMPDEST PUSH0 DUP1 SLOAD SWAP1 PUSH2 0x100 EXP SWAP1 DIV PUSH1 0xFF AND PUSH1 0x2 DUP2 GT ISZERO PUSH2 0x346 JUMPI PUSH2 0x345 PUSH2 0xE85 JUMP JUMPDEST JUMPDEST SUB PUSH2 0x388 JUMPI PUSH1 0x40 MLOAD DUP1 PUSH1 0x40 ADD PUSH1 0x40 MSTORE DUP1 PUSH1 0x5 DUP2 MSTORE PUSH1 0x20 ADD PUSH32 0x456E646564000000000000000000000000000000000000000000000000000000 DUP2 MSTORE POP SWAP1 POP PUSH2 0x39A JUMP JUMPDEST PUSH1 0x40 MLOAD DUP1 PUSH1 0x20 ADD PUSH1 0x40 MSTORE DUP1 PUSH0 DUP2 MSTORE POP SWAP1 POP JUMPDEST SWAP1 JUMP JUMPDEST PUSH0 PUSH1 0x1 SWAP1 SLOAD SWAP1 PUSH2 0x100 EXP SWAP1 DIV PUSH20 0xFFFFFFFFFFFFFFFFFFFFFFFFFFFFFFFFFFFFFFFF AND PUSH20 0xFFFFFFFFFFFFFFFFFFFFFFFFFFFFFFFFFFFFFFFF AND CALLER PUSH20 0xFFFFFFFFFFFFFFFFFFFFFFFFFFFFFFFFFFFFFFFF AND EQ PUSH2 0x42C JUMPI PUSH1 0x40 MLOAD PUSH32 0x8C379A000000000000000000000000000000000000000000000000000000000 DUP2 MSTORE PUSH1 0x4 ADD PUSH2 0x423 SWAP1 PUSH2 0x1091 JUMP JUMPDEST PUSH1 0x40 MLOAD DUP1 SWAP2 SUB SWAP1 REVERT JUMPDEST PUSH0 PUSH1 0x2 DUP2 GT ISZERO PUSH2 0x43F JUMPI PUSH2 0x43E PUSH2 0xE85 JUMP JUMPDEST JUMPDEST PUSH0 DUP1 SLOAD SWAP1 PUSH2 0x100 EXP SWAP1 DIV PUSH1 0xFF AND PUSH1 0x2 DUP2 GT ISZERO PUSH2 0x45E JUMPI PUSH2 0x45D PUSH2 0xE85 JUMP JUMPDEST JUMPDEST EQ PUSH2 0x49E JUMPI PUSH1 0x40 MLOAD PUSH32 0x8C379A000000000000000000000000000000000000000000000000000000000 DUP2 MSTORE PUSH1 0x4 ADD PUSH2 0x495 SWAP1 PUSH2 0x111F JUMP JUMPDEST PUSH1 0x40 MLOAD DUP1 SWAP2 SUB SWAP1 REVERT JUMPDEST PUSH1 0x1 PUSH0 DUP1 PUSH2 0x100 EXP DUP2 SLOAD DUP2 PUSH1 0xFF MUL NOT AND SWAP1 DUP4 PUSH1 0x2 DUP2 GT ISZERO PUSH2 0x4C2 JUMPI PUSH2 0x4C1 PUSH2 0xE85 JUMP JUMPDEST JUMPDEST MUL OR SWAP1 SSTORE POP PUSH32 0x9C349698BC225DAD42ABA5A0D5675BB82DFA7ADBB070506A1F1A7A41090C5C8 PUSH1 0x40 MLOAD PUSH1 0x40 MLOAD DUP1 SWAP2 SUB SWAP1 LOG1 JUMP JUMPDEST PUSH1 0x1 SLOAD DUP2 JUMP JUMPDEST PUSH1 0x1 PUSH1 0x2 DUP2 GT ISZERO PUSH2 0x50F JUMPI PUSH2 0x50E PUSH2 0xE85 JUMP JUMPDEST JUMPDEST PUSH0 DUP1 SLOAD SWAP1 PUSH2 0x100 EXP SWAP1 DIV PUSH1 0xFF AND PUSH1 0x2 DUP2 GT ISZERO PUSH2 0x52E JUMPI PUSH2 0x52D PUSH2 0xE85 JUMP JUMPDEST JUMPDEST EQ PUSH2 0x56E JUMPI PUSH1 0x40 MLOAD PUSH32 0x8C379A000000000000000000000000000000000000000000000000000000000 DUP2 MSTORE PUSH1 0x4 ADD PUSH2 0x565 SWAP1 PUSH2 0x1187 JUMP JUMPDEST PUSH1 0x40 MLOAD DUP1 SWAP2 SUB SWAP1 REVERT JUMPDEST PUSH1 0x3 PUSH0 CALLER PUSH20 0xFFFFFFFFFFFFFFFFFFFFFFFFFFFFFFFFFFFFFFFF AND PUSH20 0xFFFFFFFFFFFFFFFFFFFFFFFFFFFFFFFFFFFFFFFF AND DUP2 MSTORE PUSH1 0x20 ADD SWAP1 DUP2 MSTORE PUSH1 0x20 ADD PUSH0 KECCAK256 PUSH0 ADD PUSH0 SWAP1 SLOAD SWAP1 PUSH2 0x100 EXP SWAP1 DIV PUSH1 0xFF AND ISZERO PUSH2 0x5FA JUMPI PUSH1 0x40 MLOAD PUSH32 0x8C379A000000000000000000000000000000000000000000000000000000000 DUP2 MSTORE PUSH1 0x4 ADD PUSH2 0x5F1 SWAP1 PUSH2 0x11EF JUMP JUMPDEST PUSH1 0x40 MLOAD DUP1 SWAP2 SUB SWAP1 REVERT JUMPDEST PUSH0 PUSH1 0x2 PUSH0 DUP4 DUP2 MSTORE PUSH1 0x20 ADD SWAP1 DUP2 MSTORE PUSH1 0x20 ADD PUSH0 KECCAK256 PUSH0 ADD SLOAD SUB PUSH2 0x64F JUMPI PUSH1 0x40 MLOAD PUSH32 0x8C379A000000000000000000000000000000000000000000000000000000000 DUP2 MSTORE PUSH1 0x4 ADD PUSH2 0x646 SWAP1 PUSH2 0x1257 JUMP JUMPDEST PUSH1 0x40 MLOAD DUP1 SWAP2 SUB SWAP1 REVERT JUMPDEST PUSH1 0x1 PUSH1 0x3 PUSH0 CALLER PUSH20 0xFFFFFFFFFFFFFFFFFFFFFFFFFFFFFFFFFFFFFFFF AND PUSH20 0xFFFFFFFFFFFFFFFFFFFFFFFFFFFFFFFFFFFFFFFF AND DUP2 MSTORE PUSH1 0x20 ADD SWAP1 DUP2 MSTORE PUSH1 0x20 ADD PUSH0 KECCAK256 PUSH0 ADD PUSH0 PUSH2 0x100 EXP DUP2 SLOAD DUP2 PUSH1 0xFF MUL NOT AND SWAP1 DUP4 ISZERO ISZERO MUL OR SWAP1 SSTORE POP DUP1 PUSH1 0x3 PUSH0 CALLER PUSH20 0xFFFFFFFFFFFFFFFFFFFFFFFFFFFFFFFFFFFFFFFF AND PUSH20 0xFFFFFFFFFFFFFFFFFFFFFFFFFFFFFFFFFFFFFFFF AND DUP2 MSTORE PUSH1 0x20 ADD SWAP1 DUP2 MSTORE PUSH1 0x20 ADD PUSH0 KECCAK256 PUSH1 0x1 ADD DUP2 SWAP1 SSTORE POP PUSH1 0x1 PUSH1 0x2 PUSH0 DUP4 DUP2 MSTORE PUSH1 0x20 ADD SWAP1 DUP2 MSTORE PUSH1 0x20 ADD PUSH0 KECCAK256 PUSH1 0x2 ADD PUSH0 DUP3 DUP3 SLOAD PUSH2 0x70F SWAP2 SWAP1 PUSH2 0x12A2 JUMP JUMPDEST SWAP3 POP POP DUP2 SWAP1 SSTORE POP PUSH32 0x98F81EFBBC42E3175555266DC8FDA4EA0859CA75447F118FDDE2C72A2B8735F1 CALLER DUP3 PUSH1 0x40 MLOAD PUSH2 0x747 SWAP3 SWAP2 SWAP1 PUSH2 0x12D5 JUMP JUMPDEST PUSH1 0x40 MLOAD DUP1 SWAP2 SUB SWAP1 LOG1 POP JUMP JUMPDEST PUSH1 0x3 PUSH1 0x20 MSTORE DUP1 PUSH0 MSTORE PUSH1 0x40 PUSH0 KECCAK256 PUSH0 SWAP2 POP SWAP1 POP DUP1 PUSH0 ADD PUSH0 SWAP1 SLOAD SWAP1 PUSH2 0x100 EXP SWAP1 DIV PUSH1 0xFF AND SWAP1 DUP1 PUSH1 0x1 ADD SLOAD SWAP1 POP DUP3 JUMP JUMPDEST PUSH0 PUSH1 0x1 SWAP1 SLOAD SWAP1 PUSH2 0x100 EXP SWAP1 DIV PUSH20 0xFFFFFFFFFFFFFFFFFFFFFFFFFFFFFFFFFFFFFFFF AND PUSH20 0xFFFFFFFFFFFFFFFFFFFFFFFFFFFFFFFFFFFFFFFF AND CALLER PUSH20 0xFFFFFFFFFFFFFFFFFFFFFFFFFFFFFFFFFFFFFFFF AND EQ PUSH2 0x80D JUMPI PUSH1 0x40 MLOAD PUSH32 0x8C379A000000000000000000000000000000000000000000000000000000000 DUP2 MSTORE PUSH1 0x4 ADD PUSH2 0x804 SWAP1 PUSH2 0x1091 JUMP JUMPDEST PUSH1 0x40 MLOAD DUP1 SWAP2 SUB SWAP1 REVERT JUMPDEST PUSH1 0x1 PUSH1 0x2 DUP2 GT ISZERO PUSH2 0x821 JUMPI PUSH2 0x820 PUSH2 0xE85 JUMP JUMPDEST JUMPDEST PUSH0 DUP1 SLOAD SWAP1 PUSH2 0x100 EXP SWAP1 DIV PUSH1 0xFF AND PUSH1 0x2 DUP2 GT ISZERO PUSH2 0x840 JUMPI PUSH2 0x83F PUSH2 0xE85 JUMP JUMPDEST JUMPDEST EQ PUSH2 0x880 JUMPI PUSH1 0x40 MLOAD PUSH32 0x8C379A000000000000000000000000000000000000000000000000000000000 DUP2 MSTORE PUSH1 0x4 ADD PUSH2 0x877 SWAP1 PUSH2 0x1346 JUMP JUMPDEST PUSH1 0x40 MLOAD DUP1 SWAP2 SUB SWAP1 REVERT JUMPDEST PUSH1 0x2 PUSH0 DUP1 PUSH2 0x100 EXP DUP2 SLOAD DUP2 PUSH1 0xFF MUL NOT AND SWAP1 DUP4 PUSH1 0x2 DUP2 GT ISZERO PUSH2 0x8A4 JUMPI PUSH2 0x8A3 PUSH2 0xE85 JUMP JUMPDEST JUMPDEST MUL OR SWAP1 SSTORE POP PUSH32 0x9BD4D19F68B3A6E40574077FFAF4CC51A53615ED948CEBF6668AC461BEE10B76 PUSH1 0x40 MLOAD PUSH1 0x40 MLOAD DUP1 SWAP2 SUB SWAP1 LOG1 JUMP JUMPDEST PUSH0 DUP1 SLOAD SWAP1 PUSH2 0x100 EXP SWAP1 DIV PUSH1 0xFF AND DUP2 JUMP JUMPDEST PUSH0 PUSH1 0x1 SWAP1 SLOAD SWAP1 PUSH2 0x100 EXP SWAP1 DIV PUSH20 0xFFFFFFFFFFFFFFFFFFFFFFFFFFFFFFFFFFFFFFFF AND DUP2 JUMP JUMPDEST PUSH0 PUSH1 0x1 SWAP1 SLOAD SWAP1 PUSH2 0x100 EXP SWAP1 DIV PUSH20 0xFFFFFFFFFFFFFFFFFFFFFFFFFFFFFFFFFFFFFFFF AND PUSH20 0xFFFFFFFFFFFFFFFFFFFFFFFFFFFFFFFFFFFFFFFF AND CALLER PUSH20 0xFFFFFFFFFFFFFFFFFFFFFFFFFFFFFFFFFFFFFFFF AND EQ PUSH2 0x99B JUMPI PUSH1 0x40 MLOAD PUSH32 0x8C379A000000000000000000000000000000000000000000000000000000000 DUP2 MSTORE PUSH1 0x4 ADD PUSH2 0x992 SWAP1 PUSH2 0x1091 JUMP JUMPDEST PUSH1 0x40 MLOAD DUP1 SWAP2 SUB SWAP1 REVERT JUMPDEST PUSH1 0x1 PUSH0 DUP2 SLOAD DUP1 SWAP3 SWAP2 SWAP1 PUSH2 0x9AD SWAP1 PUSH2 0x1364 JUMP JUMPDEST SWAP2 SWAP1 POP SSTORE POP PUSH1 0x40 MLOAD DUP1 PUSH1 0x60 ADD PUSH1 0x40 MSTORE DUP1 PUSH1 0x1 SLOAD DUP2 MSTORE PUSH1 0x20 ADD DUP4 DUP4 DUP1 DUP1 PUSH1 0x1F ADD PUSH1 0x20 DUP1 SWAP2 DIV MUL PUSH1 0x20 ADD PUSH1 0x40 MLOAD SWAP1 DUP2 ADD PUSH1 0x40 MSTORE DUP1 SWAP4 SWAP3 SWAP2 SWAP1 DUP2 DUP2 MSTORE PUSH1 0x20 ADD DUP4 DUP4 DUP1 DUP3 DUP5 CALLDATACOPY PUSH0 DUP2 DUP5 ADD MSTORE PUSH1 0x1F NOT PUSH1 0x1F DUP3 ADD AND SWAP1 POP DUP1 DUP4 ADD SWAP3 POP POP POP POP POP POP POP DUP2 MSTORE PUSH1 0x20 ADD PUSH0 DUP2 MSTORE POP PUSH1 0x2 PUSH0 PUSH1 0x1 SLOAD DUP2 MSTORE PUSH1 0x20 ADD SWAP1 DUP2 MSTORE PUSH1 0x20 ADD PUSH0 KECCAK256 PUSH0 DUP3 ADD MLOAD DUP2 PUSH0 ADD SSTORE PUSH1 0x20 DUP3 ADD MLOAD DUP2 PUSH1 0x1 ADD SWAP1 DUP2 PUSH2 0xA42 SWAP2 SWAP1 PUSH2 0x15D2 JUMP JUMPDEST POP PUSH1 0x40 DUP3 ADD MLOAD DUP2 PUSH1 0x2 ADD SSTORE SWAP1 POP POP PUSH32 0x1C6FEB6A218293C8F849426E09ABDCA9D0D75E57E2255B6A7942ADD2BB3CB90 PUSH1 0x1 SLOAD DUP4 DUP4 PUSH1 0x40 MLOAD PUSH2 0xA85 SWAP4 SWAP3 SWAP2 SWAP1 PUSH2 0x16DB JUMP JUMPDEST PUSH1 0x40 MLOAD DUP1 SWAP2 SUB SWAP1 LOG1 POP POP JUMP JUMPDEST PUSH1 0x2 PUSH1 0x20 MSTORE DUP1 PUSH0 MSTORE PUSH1 0x40 PUSH0 KECCAK256 PUSH0 SWAP2 POP SWAP1 POP DUP1 PUSH0 ADD SLOAD SWAP1 DUP1 PUSH1 0x1 ADD DUP1 SLOAD PUSH2 0xAB6 SWAP1 PUSH2 0x1405 JUMP JUMPDEST DUP1 PUSH1 0x1F ADD PUSH1 0x20 DUP1 SWAP2 DIV MUL PUSH1 0x20 ADD PUSH1 0x40 MLOAD SWAP1 DUP2 ADD PUSH1 0x40 MSTORE DUP1 SWAP3 SWAP2 SWAP1 DUP2 DUP2 MSTORE PUSH1 0x20 ADD DUP3 DUP1 SLOAD PUSH2 0xAE2 SWAP1 PUSH2 0x1405 JUMP JUMPDEST DUP1 ISZERO PUSH2 0xB2D JUMPI DUP1 PUSH1 0x1F LT PUSH2 0xB04 JUMPI PUSH2 0x100 DUP1 DUP4 SLOAD DIV MUL DUP4 MSTORE SWAP2 PUSH1 0x20 ADD SWAP2 PUSH2 0xB2D JUMP JUMPDEST DUP3 ADD SWAP2 SWAP1 PUSH0 MSTORE PUSH1 0x20 PUSH0 KECCAK256 SWAP1 JUMPDEST DUP2 SLOAD DUP2 MSTORE SWAP1 PUSH1 0x1 ADD SWAP1 PUSH1 0x20 ADD DUP1 DUP4 GT PUSH2 0xB10 JUMPI DUP3 SWAP1 SUB PUSH1 0x1F AND DUP3 ADD SWAP2 JUMPDEST POP POP POP POP POP SWAP1 DUP1 PUSH1 0x2 ADD SLOAD SWAP1 POP DUP4 JUMP JUMPDEST PUSH0 PUSH1 0x1 SWAP1 SLOAD SWAP1 PUSH2 0x100 EXP SWAP1 DIV PUSH20 0xFFFFFFFFFFFFFFFFFFFFFFFFFFFFFFFFFFFFFFFF AND PUSH20 0xFFFFFFFFFFFFFFFFFFFFFFFFFFFFFFFFFFFFFFFF AND CALLER PUSH20 0xFFFFFFFFFFFFFFFFFFFFFFFFFFFFFFFFFFFFFFFF AND EQ PUSH2 0xBCC JUMPI PUSH1 0x40 MLOAD PUSH32 0x8C379A000000000000000000000000000000000000000000000000000000000 DUP2 MSTORE PUSH1 0x4 ADD PUSH2 0xBC3 SWAP1 PUSH2 0x1091 JUMP JUMPDEST PUSH1 0x40 MLOAD DUP1 SWAP2 SUB SWAP1 REVERT JUMPDEST PUSH1 0x40 MLOAD DUP1 PUSH1 0x40 ADD PUSH1 0x40 MSTORE DUP1 PUSH0 ISZERO ISZERO DUP2 MSTORE PUSH1 0x20 ADD PUSH0 DUP2 MSTORE POP PUSH1 0x3 PUSH0 DUP4 PUSH20 0xFFFFFFFFFFFFFFFFFFFFFFFFFFFFFFFFFFFFFFFF AND PUSH20 0xFFFFFFFFFFFFFFFFFFFFFFFFFFFFFFFFFFFFFFFF AND DUP2 MSTORE PUSH1 0x20 ADD SWAP1 DUP2 MSTORE PUSH1 0x20 ADD PUSH0 KECCAK256 PUSH0 DUP3 ADD MLOAD DUP2 PUSH0 ADD PUSH0 PUSH2 0x100 EXP DUP2 SLOAD DUP2 PUSH1 0xFF MUL NOT AND SWAP1 DUP4 ISZERO ISZERO MUL OR SWAP1 SSTORE POP PUSH1 0x20 DUP3 ADD MLOAD DUP2 PUSH1 0x1 ADD SSTORE SWAP1 POP POP PUSH32 0x5EAD487500813570A0CB797743855ABBC51C66C9B3793CE6FDB0BF967A562F49 DUP2 PUSH1 0x40 MLOAD PUSH2 0xC79 SWAP2 SWAP1 PUSH2 0xF20 JUMP JUMPDEST PUSH1 0x40 MLOAD DUP1 SWAP2 SUB SWAP1 LOG1 POP JUMP JUMPDEST PUSH0 PUSH1 0x2 PUSH0 DUP4 DUP2 MSTORE PUSH1 0x20 ADD SWAP1 DUP2 MSTORE PUSH1 0x20 ADD PUSH0 KECCAK256 PUSH1 0x2 ADD SLOAD SWAP1 POP SWAP2 SWAP1 POP JUMP JUMPDEST PUSH0 DUP2 MLOAD SWAP1 POP SWAP2 SWAP1 POP JUMP JUMPDEST PUSH0 DUP3 DUP3 MSTORE PUSH1 0x20 DUP3 ADD SWAP1 POP SWAP3 SWAP2 POP POP JUMP JUMPDEST DUP3 DUP2 DUP4 MCOPY PUSH0 DUP4 DUP4 ADD MSTORE POP POP POP JUMP JUMPDEST PUSH0 PUSH1 0x1F NOT PUSH1 0x1F DUP4 ADD AND SWAP1 POP SWAP2 SWAP1 POP JUMP JUMPDEST PUSH0 PUSH2 0xCE3 DUP3 PUSH2 0xCA1 JUMP JUMPDEST PUSH2 0xCED DUP2 DUP6 PUSH2 0xCAB JUMP JUMPDEST SWAP4 POP PUSH2 0xCFD DUP2 DUP6 PUSH1 0x20 DUP7 ADD PUSH2 0xCBB JUMP JUMPDEST PUSH2 0xD06 DUP2 PUSH2 0xCC9 JUMP JUMPDEST DUP5 ADD SWAP2 POP POP SWAP3 SWAP2 POP POP JUMP JUMPDEST PUSH0 PUSH1 0x20 DUP3 ADD SWAP1 POP DUP2 DUP2 SUB PUSH0 DUP4 ADD MSTORE PUSH2 0xD29 DUP2 DUP5 PUSH2 0xCD9 JUMP JUMPDEST SWAP1 POP SWAP3 SWAP2 POP POP JUMP JUMPDEST PUSH0 DUP2 SWAP1 POP SWAP2 SWAP1 POP JUMP JUMPDEST PUSH2 0xD43 DUP2 PUSH2 0xD31 JUMP JUMPDEST DUP3 MSTORE POP POP JUMP JUMPDEST PUSH0 PUSH1 0x20 DUP3 ADD SWAP1 POP PUSH2 0xD5C PUSH0 DUP4 ADD DUP5 PUSH2 0xD3A JUMP JUMPDEST SWAP3 SWAP2 POP POP JUMP JUMPDEST PUSH0 DUP1 REVERT JUMPDEST PUSH0 DUP1 REVERT JUMPDEST PUSH2 0xD73 DUP2 PUSH2 0xD31 JUMP JUMPDEST DUP2 EQ PUSH2 0xD7D JUMPI PUSH0 DUP1 REVERT JUMPDEST POP JUMP JUMPDEST PUSH0 DUP2 CALLDATALOAD SWAP1 POP PUSH2 0xD8E DUP2 PUSH2 0xD6A JUMP JUMPDEST SWAP3 SWAP2 POP POP JUMP JUMPDEST PUSH0 PUSH1 0x20 DUP3 DUP5 SUB SLT ISZERO PUSH2 0xDA9 JUMPI PUSH2 0xDA8 PUSH2 0xD62 JUMP JUMPDEST JUMPDEST PUSH0 PUSH2 0xDB6 DUP5 DUP3 DUP6 ADD PUSH2 0xD80 JUMP JUMPDEST SWAP2 POP POP SWAP3 SWAP2 POP POP JUMP JUMPDEST PUSH0 PUSH20 0xFFFFFFFFFFFFFFFFFFFFFFFFFFFFFFFFFFFFFFFF DUP3 AND SWAP1 POP SWAP2 SWAP1 POP JUMP JUMPDEST PUSH0 PUSH2 0xDE8 DUP3 PUSH2 0xDBF JUMP JUMPDEST SWAP1 POP SWAP2 SWAP1 POP JUMP JUMPDEST PUSH2 0xDF8 DUP2 PUSH2 0xDDE JUMP JUMPDEST DUP2 EQ PUSH2 0xE02 JUMPI PUSH0 DUP1 REVERT JUMPDEST POP JUMP JUMPDEST PUSH0 DUP2 CALLDATALOAD SWAP1 POP PUSH2 0xE13 DUP2 PUSH2 0xDEF JUMP JUMPDEST SWAP3 SWAP2 POP POP JUMP JUMPDEST PUSH0 PUSH1 0x20 DUP3 DUP5 SUB SLT ISZERO PUSH2 0xE2E JUMPI PUSH2 0xE2D PUSH2 0xD62 JUMP JUMPDEST JUMPDEST PUSH0 PUSH2 0xE3B DUP5 DUP3 DUP6 ADD PUSH2 0xE05 JUMP JUMPDEST SWAP2 POP POP SWAP3 SWAP2 POP POP JUMP JUMPDEST PUSH0 DUP2 ISZERO ISZERO SWAP1 POP SWAP2 SWAP1 POP JUMP JUMPDEST PUSH2 0xE58 DUP2 PUSH2 0xE44 JUMP JUMPDEST DUP3 MSTORE POP POP JUMP JUMPDEST PUSH0 PUSH1 0x40 DUP3 ADD SWAP1 POP PUSH2 0xE71 PUSH0 DUP4 ADD DUP6 PUSH2 0xE4F JUMP JUMPDEST PUSH2 0xE7E PUSH1 0x20 DUP4 ADD DUP5 PUSH2 0xD3A JUMP JUMPDEST SWAP4 SWAP3 POP POP POP JUMP JUMPDEST PUSH32 0x4E487B7100000000000000000000000000000000000000000000000000000000 PUSH0 MSTORE PUSH1 0x21 PUSH1 0x4 MSTORE PUSH1 0x24 PUSH0 REVERT JUMPDEST PUSH1 0x3 DUP2 LT PUSH2 0xEC3 JUMPI PUSH2 0xEC2 PUSH2 0xE85 JUMP JUMPDEST JUMPDEST POP JUMP JUMPDEST PUSH0 DUP2 SWAP1 POP PUSH2 0xED3 DUP3 PUSH2 0xEB2 JUMP JUMPDEST SWAP2 SWAP1 POP JUMP JUMPDEST PUSH0 PUSH2 0xEE2 DUP3 PUSH2 0xEC6 JUMP JUMPDEST SWAP1 POP SWAP2 SWAP1 POP JUMP JUMPDEST PUSH2 0xEF2 DUP2 PUSH2 0xED8 JUMP JUMPDEST DUP3 MSTORE POP POP JUMP JUMPDEST PUSH0 PUSH1 0x20 DUP3 ADD SWAP1 POP PUSH2 0xF0B PUSH0 DUP4 ADD DUP5 PUSH2 0xEE9 JUMP JUMPDEST SWAP3 SWAP2 POP POP JUMP JUMPDEST PUSH2 0xF1A DUP2 PUSH2 0xDDE JUMP JUMPDEST DUP3 MSTORE POP POP JUMP JUMPDEST PUSH0 PUSH1 0x20 DUP3 ADD SWAP1 POP PUSH2 0xF33 PUSH0 DUP4 ADD DUP5 PUSH2 0xF11 JUMP JUMPDEST SWAP3 SWAP2 POP POP JUMP JUMPDEST PUSH0 DUP1 REVERT JUMPDEST PUSH0 DUP1 REVERT JUMPDEST PUSH0 DUP1 REVERT JUMPDEST PUSH0 DUP1 DUP4 PUSH1 0x1F DUP5 ADD SLT PUSH2 0xF5A JUMPI PUSH2 0xF59 PUSH2 0xF39 JUMP JUMPDEST JUMPDEST DUP3 CALLDATALOAD SWAP1 POP PUSH8 0xFFFFFFFFFFFFFFFF DUP2 GT ISZERO PUSH2 0xF77 JUMPI PUSH2 0xF76 PUSH2 0xF3D JUMP JUMPDEST JUMPDEST PUSH1 0x20 DUP4 ADD SWAP2 POP DUP4 PUSH1 0x1 DUP3 MUL DUP4 ADD GT ISZERO PUSH2 0xF93 JUMPI PUSH2 0xF92 PUSH2 0xF41 JUMP JUMPDEST JUMPDEST SWAP3 POP SWAP3 SWAP1 POP JUMP JUMPDEST PUSH0 DUP1 PUSH1 0x20 DUP4 DUP6 SUB SLT ISZERO PUSH2 0xFB0 JUMPI PUSH2 0xFAF PUSH2 0xD62 JUMP JUMPDEST JUMPDEST PUSH0 DUP4 ADD CALLDATALOAD PUSH8 0xFFFFFFFFFFFFFFFF DUP2 GT ISZERO PUSH2 0xFCD JUMPI PUSH2 0xFCC PUSH2 0xD66 JUMP JUMPDEST JUMPDEST PUSH2 0xFD9 DUP6 DUP3 DUP7 ADD PUSH2 0xF45 JUMP JUMPDEST SWAP3 POP SWAP3 POP POP SWAP3 POP SWAP3 SWAP1 POP JUMP JUMPDEST PUSH0 PUSH1 0x60 DUP3 ADD SWAP1 POP PUSH2 0xFF8 PUSH0 DUP4 ADD DUP7 PUSH2 0xD3A JUMP JUMPDEST DUP2 DUP2 SUB PUSH1 0x20 DUP4 ADD MSTORE PUSH2 0x100A DUP2 DUP6 PUSH2 0xCD9 JUMP JUMPDEST SWAP1 POP PUSH2 0x1019 PUSH1 0x40 DUP4 ADD DUP5 PUSH2 0xD3A JUMP JUMPDEST SWAP5 SWAP4 POP POP POP POP JUMP JUMPDEST PUSH32 0x416363657373207265737472696374656420746F2074686520636F6E74726163 PUSH0 DUP3 ADD MSTORE PUSH32 0x74206F776E657200000000000000000000000000000000000000000000000000 PUSH1 0x20 DUP3 ADD MSTORE POP JUMP JUMPDEST PUSH0 PUSH2 0x107B PUSH1 0x27 DUP4 PUSH2 0xCAB JUMP JUMPDEST SWAP2 POP PUSH2 0x1086 DUP3 PUSH2 0x1021 JUMP JUMPDEST PUSH1 0x40 DUP3 ADD SWAP1 POP SWAP2 SWAP1 POP JUMP JUMPDEST PUSH0 PUSH1 0x20 DUP3 ADD SWAP1 POP DUP2 DUP2 SUB PUSH0 DUP4 ADD MSTORE PUSH2 0x10A8 DUP2 PUSH2 0x106F JUMP JUMPDEST SWAP1 POP SWAP2 SWAP1 POP JUMP JUMPDEST PUSH32 0x456C656374696F6E20616C72656164792073746172746564206F7220656E6465 PUSH0 DUP3 ADD MSTORE PUSH32 0x6400000000000000000000000000000000000000000000000000000000000000 PUSH1 0x20 DUP3 ADD MSTORE POP JUMP JUMPDEST PUSH0 PUSH2 0x1109 PUSH1 0x21 DUP4 PUSH2 0xCAB JUMP JUMPDEST SWAP2 POP PUSH2 0x1114 DUP3 PUSH2 0x10AF JUMP JUMPDEST PUSH1 0x40 DUP3 ADD SWAP1 POP SWAP2 SWAP1 POP JUMP JUMPDEST PUSH0 PUSH1 0x20 DUP3 ADD SWAP1 POP DUP2 DUP2 SUB PUSH0 DUP4 ADD MSTORE PUSH2 0x1136 DUP2 PUSH2 0x10FD JUMP JUMPDEST SWAP1 POP SWAP2 SWAP1 POP JUMP JUMPDEST PUSH32 0x566F74696E67206973206E6F742063757272656E746C79206163746976650000 PUSH0 DUP3 ADD MSTORE POP JUMP JUMPDEST PUSH0 PUSH2 0x1171 PUSH1 0x1E DUP4 PUSH2 0xCAB JUMP JUMPDEST SWAP2 POP PUSH2 0x117C DUP3 PUSH2 0x113D JUMP JUMPDEST PUSH1 0x20 DUP3 ADD SWAP1 POP SWAP2 SWAP1 POP JUMP JUMPDEST PUSH0 PUSH1 0x20 DUP3 ADD SWAP1 POP DUP2 DUP2 SUB PUSH0 DUP4 ADD MSTORE PUSH2 0x119E DUP2 PUSH2 0x1165 JUMP JUMPDEST SWAP1 POP SWAP2 SWAP1 POP JUMP JUMPDEST PUSH32 0x566F746520616C72656164792063617374000000000000000000000000000000 PUSH0 DUP3 ADD MSTORE POP JUMP JUMPDEST PUSH0 PUSH2 0x11D9 PUSH1 0x11 DUP4 PUSH2 0xCAB JUMP JUMPDEST SWAP2 POP PUSH2 0x11E4 DUP3 PUSH2 0x11A5 JUMP JUMPDEST PUSH1 0x20 DUP3 ADD SWAP1 POP SWAP2 SWAP1 POP JUMP JUMPDEST PUSH0 PUSH1 0x20 DUP3 ADD SWAP1 POP DUP2 DUP2 SUB PUSH0 DUP4 ADD MSTORE PUSH2 0x1206 DUP2 PUSH2 0x11CD JUMP JUMPDEST SWAP1 POP SWAP2 SWAP1 POP JUMP JUMPDEST PUSH32 0x496E76616C69642063616E646964617465204944000000000000000000000000 PUSH0 DUP3 ADD MSTORE POP JUMP JUMPDEST PUSH0 PUSH2 0x1241 PUSH1 0x14 DUP4 PUSH2 0xCAB JUMP JUMPDEST SWAP2 POP PUSH2 0x124C DUP3 PUSH2 0x120D JUMP JUMPDEST PUSH1 0x20 DUP3 ADD SWAP1 POP SWAP2 SWAP1 POP JUMP JUMPDEST PUSH0 PUSH1 0x20 DUP3 ADD SWAP1 POP DUP2 DUP2 SUB PUSH0 DUP4 ADD MSTORE PUSH2 0x126E DUP2 PUSH2 0x1235 JUMP JUMPDEST SWAP1 POP SWAP2 SWAP1 POP JUMP JUMPDEST PUSH32 0x4E487B7100000000000000000000000000000000000000000000000000000000 PUSH0 MSTORE PUSH1 0x11 PUSH1 0x4 MSTORE PUSH1 0x24 PUSH0 REVERT JUMPDEST PUSH0 PUSH2 0x12AC DUP3 PUSH2 0xD31 JUMP JUMPDEST SWAP2 POP PUSH2 0x12B7 DUP4 PUSH2 0xD31 JUMP JUMPDEST SWAP3 POP DUP3 DUP3 ADD SWAP1 POP DUP1 DUP3 GT ISZERO PUSH2 0x12CF JUMPI PUSH2 0x12CE PUSH2 0x1275 JUMP JUMPDEST JUMPDEST SWAP3 SWAP2 POP POP JUMP JUMPDEST PUSH0 PUSH1 0x40 DUP3 ADD SWAP1 POP PUSH2 0x12E8 PUSH0 DUP4 ADD DUP6 PUSH2 0xF11 JUMP JUMPDEST PUSH2 0x12F5 PUSH1 0x20 DUP4 ADD DUP5 PUSH2 0xD3A JUMP JUMPDEST SWAP4 SWAP3 POP POP POP JUMP JUMPDEST PUSH32 0x566F74696E67206973206E6F7420616374697665000000000000000000000000 PUSH0 DUP3 ADD MSTORE POP JUMP JUMPDEST PUSH0 PUSH2 0x1330 PUSH1 0x14 DUP4 PUSH2 0xCAB JUMP JUMPDEST SWAP2 POP PUSH2 0x133B DUP3 PUSH2 0x12FC JUMP JUMPDEST PUSH1 0x20 DUP3 ADD SWAP1 POP SWAP2 SWAP1 POP JUMP JUMPDEST PUSH0 PUSH1 0x20 DUP3 ADD SWAP1 POP DUP2 DUP2 SUB PUSH0 DUP4 ADD MSTORE PUSH2 0x135D DUP2 PUSH2 0x1324 JUMP JUMPDEST SWAP1 POP SWAP2 SWAP1 POP JUMP JUMPDEST PUSH0 PUSH2 0x136E DUP3 PUSH2 0xD31 JUMP JUMPDEST SWAP2 POP PUSH32 0xFFFFFFFFFFFFFFFFFFFFFFFFFFFFFFFFFFFFFFFFFFFFFFFFFFFFFFFFFFFFFFFF DUP3 SUB PUSH2 0x13A0 JUMPI PUSH2 0x139F PUSH2 0x1275 JUMP JUMPDEST JUMPDEST PUSH1 0x1 DUP3 ADD SWAP1 POP SWAP2 SWAP1 POP JUMP JUMPDEST PUSH32 0x4E487B7100000000000000000000000000000000000000000000000000000000 PUSH0 MSTORE PUSH1 0x41 PUSH1 0x4 MSTORE PUSH1 0x24 PUSH0 REVERT JUMPDEST PUSH32 0x4E487B7100000000000000000000000000000000000000000000000000000000 PUSH0 MSTORE PUSH1 0x22 PUSH1 0x4 MSTORE PUSH1 0x24 PUSH0 REVERT JUMPDEST PUSH0 PUSH1 0x2 DUP3 DIV SWAP1 POP PUSH1 0x1 DUP3 AND DUP1 PUSH2 0x141C JUMPI PUSH1 0x7F DUP3 AND SWAP2 POP JUMPDEST PUSH1 0x20 DUP3 LT DUP2 SUB PUSH2 0x142F JUMPI PUSH2 0x142E PUSH2 0x13D8 JUMP JUMPDEST JUMPDEST POP SWAP2 SWAP1 POP JUMP JUMPDEST PUSH0 DUP2 SWAP1 POP DUP2 PUSH0 MSTORE PUSH1 0x20 PUSH0 KECCAK256 SWAP1 POP SWAP2 SWAP1 POP JUMP JUMPDEST PUSH0 PUSH1 0x20 PUSH1 0x1F DUP4 ADD DIV SWAP1 POP SWAP2 SWAP1 POP JUMP JUMPDEST PUSH0 DUP3 DUP3 SHL SWAP1 POP SWAP3 SWAP2 POP POP JUMP JUMPDEST PUSH0 PUSH1 0x8 DUP4 MUL PUSH2 0x1491 PUSH32 0xFFFFFFFFFFFFFFFFFFFFFFFFFFFFFFFFFFFFFFFFFFFFFFFFFFFFFFFFFFFFFFFF DUP3 PUSH2 0x1456 JUMP JUMPDEST PUSH2 0x149B DUP7 DUP4 PUSH2 0x1456 JUMP JUMPDEST SWAP6 POP DUP1 NOT DUP5 AND SWAP4 POP DUP1 DUP7 AND DUP5 OR SWAP3 POP POP POP SWAP4 SWAP3 POP POP POP JUMP JUMPDEST PUSH0 DUP2 SWAP1 POP SWAP2 SWAP1 POP JUMP JUMPDEST PUSH0 PUSH2 0x14D6 PUSH2 0x14D1 PUSH2 0x14CC DUP5 PUSH2 0xD31 JUMP JUMPDEST PUSH2 0x14B3 JUMP JUMPDEST PUSH2 0xD31 JUMP JUMPDEST SWAP1 POP SWAP2 SWAP1 POP JUMP JUMPDEST PUSH0 DUP2 SWAP1 POP SWAP2 SWAP1 POP JUMP JUMPDEST PUSH2 0x14EF DUP4 PUSH2 0x14BC JUMP JUMPDEST PUSH2 0x1503 PUSH2 0x14FB DUP3 PUSH2 0x14DD JUMP JUMPDEST DUP5 DUP5 SLOAD PUSH2 0x1462 JUMP JUMPDEST DUP3 SSTORE POP POP POP POP JUMP JUMPDEST PUSH0 SWAP1 JUMP JUMPDEST PUSH2 0x1517 PUSH2 0x150B JUMP JUMPDEST PUSH2 0x1522 DUP2 DUP5 DUP5 PUSH2 0x14E6 JUMP JUMPDEST POP POP POP JUMP JUMPDEST JUMPDEST DUP2 DUP2 LT ISZERO PUSH2 0x1545 JUMPI PUSH2 0x153A PUSH0 DUP3 PUSH2 0x150F JUMP JUMPDEST PUSH1 0x1 DUP2 ADD SWAP1 POP PUSH2 0x1528 JUMP JUMPDEST POP POP JUMP JUMPDEST PUSH1 0x1F DUP3 GT ISZERO PUSH2 0x158A JUMPI PUSH2 0x155B DUP2 PUSH2 0x1435 JUMP JUMPDEST PUSH2 0x1564 DUP5 PUSH2 0x1447 JUMP JUMPDEST DUP2 ADD PUSH1 0x20 DUP6 LT ISZERO PUSH2 0x1573 JUMPI DUP2 SWAP1 POP JUMPDEST PUSH2 0x1587 PUSH2 0x157F DUP6 PUSH2 0x1447 JUMP JUMPDEST DUP4 ADD DUP3 PUSH2 0x1527 JUMP JUMPDEST POP POP JUMPDEST POP POP POP JUMP JUMPDEST PUSH0 DUP3 DUP3 SHR SWAP1 POP SWAP3 SWAP2 POP POP JUMP JUMPDEST PUSH0 PUSH2 0x15AA PUSH0 NOT DUP5 PUSH1 0x8 MUL PUSH2 0x158F JUMP JUMPDEST NOT DUP1 DUP4 AND SWAP2 POP POP SWAP3 SWAP2 POP POP JUMP JUMPDEST PUSH0 PUSH2 0x15C2 DUP4 DUP4 PUSH2 0x159B JUMP JUMPDEST SWAP2 POP DUP3 PUSH1 0x2 MUL DUP3 OR SWAP1 POP SWAP3 SWAP2 POP POP JUMP JUMPDEST PUSH2 0x15DB DUP3 PUSH2 0xCA1 JUMP JUMPDEST PUSH8 0xFFFFFFFFFFFFFFFF DUP2 GT ISZERO PUSH2 0x15F4 JUMPI PUSH2 0x15F3 PUSH2 0x13AB JUMP JUMPDEST JUMPDEST PUSH2 0x15FE DUP3 SLOAD PUSH2 0x1405 JUMP JUMPDEST PUSH2 0x1609 DUP3 DUP3 DUP6 PUSH2 0x1549 JUMP JUMPDEST PUSH0 PUSH1 0x20 SWAP1 POP PUSH1 0x1F DUP4 GT PUSH1 0x1 DUP2 EQ PUSH2 0x163A JUMPI PUSH0 DUP5 ISZERO PUSH2 0x1628 JUMPI DUP3 DUP8 ADD MLOAD SWAP1 POP JUMPDEST PUSH2 0x1632 DUP6 DUP3 PUSH2 0x15B7 JUMP JUMPDEST DUP7 SSTORE POP PUSH2 0x1699 JUMP JUMPDEST PUSH1 0x1F NOT DUP5 AND PUSH2 0x1648 DUP7 PUSH2 0x1435 JUMP JUMPDEST PUSH0 JUMPDEST DUP3 DUP2 LT ISZERO PUSH2 0x166F JUMPI DUP5 DUP10 ADD MLOAD DUP3 SSTORE PUSH1 0x1 DUP3 ADD SWAP2 POP PUSH1 0x20 DUP6 ADD SWAP5 POP PUSH1 0x20 DUP2 ADD SWAP1 POP PUSH2 0x164A JUMP JUMPDEST DUP7 DUP4 LT ISZERO PUSH2 0x168C JUMPI DUP5 DUP10 ADD MLOAD PUSH2 0x1688 PUSH1 0x1F DUP10 AND DUP3 PUSH2 0x159B JUMP JUMPDEST DUP4 SSTORE POP JUMPDEST PUSH1 0x1 PUSH1 0x2 DUP9 MUL ADD DUP9 SSTORE POP POP POP JUMPDEST POP POP POP POP POP POP JUMP JUMPDEST DUP3 DUP2 DUP4 CALLDATACOPY PUSH0 DUP4 DUP4 ADD MSTORE POP POP POP JUMP JUMPDEST PUSH0 PUSH2 0x16BA DUP4 DUP6 PUSH2 0xCAB JUMP JUMPDEST SWAP4 POP PUSH2 0x16C7 DUP4 DUP6 DUP5 PUSH2 0x16A1 JUMP JUMPDEST PUSH2 0x16D0 DUP4 PUSH2 0xCC9 JUMP JUMPDEST DUP5 ADD SWAP1 POP SWAP4 SWAP3 POP POP POP JUMP JUMPDEST PUSH0 PUSH1 0x40 DUP3 ADD SWAP1 POP PUSH2 0x16EE PUSH0 DUP4 ADD DUP7 PUSH2 0xD3A JUMP JUMPDEST DUP2 DUP2 SUB PUSH1 0x20 DUP4 ADD MSTORE PUSH2 0x1701 DUP2 DUP5 DUP7 PUSH2 0x16AF JUMP JUMPDEST SWAP1 POP SWAP5 SWAP4 POP POP POP POP JUMP INVALID LOG2 PUSH5 0x6970667358 0x22 SLT KECCAK256 BYTE DUP7 SSTORE PUSH13 0x6DFE4F74A89AE5C2615BA15C83 LT 0xBE CALLDATALOAD CALLDATASIZE PUSH15 0xBB246DEACC58354FC56B64736F6C63 NUMBER STOP ADDMOD BYTE STOP CALLER "
				},
				"gasEstimates": {
					"creation": {
						"codeDepositCost": "1190600",
						"executionCost": "49851",
						"totalCost": "1240451"
					},
					"external": {
						"activateVoting()": "29654",
						"authorizeVoter(address)": "infinite",
						"candidateList(uint256)": "infinite",
						"castVote(uint256)": "infinite",
						"checkVotingStatus()": "infinite",
						"currentStage()": "2551",
						"deactivateVoting()": "29743",
						"getVotes(uint256)": "infinite",
						"owner()": "2580",
						"registerCandidate(string)": "infinite",
						"totalCandidates()": "2470",
						"voterRegistry(address)": "5156"
					}
				},
				"methodIdentifiers": {
					"activateVoting()": "285078b6",
					"authorizeVoter(address)": "fd47b368",
					"candidateList(uint256)": "b13c744b",
					"castVote(uint256)": "3eb76b9c",
					"checkVotingStatus()": "12c56989",
					"currentStage()": "5bf5d54c",
					"deactivateVoting()": "57500bba",
					"getVotes(uint256)": "ff981099",
					"owner()": "8da5cb5b",
					"registerCandidate(string)": "9eb88db6",
					"totalCandidates()": "3866965c",
					"voterRegistry(address)": "4763d4e7"
				}
			},
			"storageLayout": {
				"storage": [
					{
						"astId": 8,
						"contract": "contracts/votingappmario.sol:ElectionSystem",
						"label": "currentStage",
						"offset": 0,
						"slot": "0",
						"type": "t_enum(VotingStage)5"
					},
					{
						"astId": 22,
						"contract": "contracts/votingappmario.sol:ElectionSystem",
						"label": "owner",
						"offset": 1,
						"slot": "0",
						"type": "t_address"
					},
					{
						"astId": 24,
						"contract": "contracts/votingappmario.sol:ElectionSystem",
						"label": "totalCandidates",
						"offset": 0,
						"slot": "1",
						"type": "t_uint256"
					},
					{
						"astId": 29,
						"contract": "contracts/votingappmario.sol:ElectionSystem",
						"label": "candidateList",
						"offset": 0,
						"slot": "2",
						"type": "t_mapping(t_uint256,t_struct(Participant)15_storage)"
					},
					{
						"astId": 34,
						"contract": "contracts/votingappmario.sol:ElectionSystem",
						"label": "voterRegistry",
						"offset": 0,
						"slot": "3",
						"type": "t_mapping(t_address,t_struct(VoterDetails)20_storage)"
					}
				],
				"types": {
					"t_address": {
						"encoding": "inplace",
						"label": "address",
						"numberOfBytes": "20"
					},
					"t_bool": {
						"encoding": "inplace",
						"label": "bool",
						"numberOfBytes": "1"
					},
					"t_enum(VotingStage)5": {
						"encoding": "inplace",
						"label": "enum ElectionSystem.VotingStage",
						"numberOfBytes": "1"
					},
					"t_mapping(t_address,t_struct(VoterDetails)20_storage)": {
						"encoding": "mapping",
						"key": "t_address",
						"label": "mapping(address => struct ElectionSystem.VoterDetails)",
						"numberOfBytes": "32",
						"value": "t_struct(VoterDetails)20_storage"
					},
					"t_mapping(t_uint256,t_struct(Participant)15_storage)": {
						"encoding": "mapping",
						"key": "t_uint256",
						"label": "mapping(uint256 => struct ElectionSystem.Participant)",
						"numberOfBytes": "32",
						"value": "t_struct(Participant)15_storage"
					},
					"t_string_storage": {
						"encoding": "bytes",
						"label": "string",
						"numberOfBytes": "32"
					},
					"t_struct(Participant)15_storage": {
						"encoding": "inplace",
						"label": "struct ElectionSystem.Participant",
						"members": [
							{
								"astId": 10,
								"contract": "contracts/votingappmario.sol:ElectionSystem",
								"label": "candidateId",
								"offset": 0,
								"slot": "0",
								"type": "t_uint256"
							},
							{
								"astId": 12,
								"contract": "contracts/votingappmario.sol:ElectionSystem",
								"label": "candidateName",
								"offset": 0,
								"slot": "1",
								"type": "t_string_storage"
							},
							{
								"astId": 14,
								"contract": "contracts/votingappmario.sol:ElectionSystem",
								"label": "totalVotes",
								"offset": 0,
								"slot": "2",
								"type": "t_uint256"
							}
						],
						"numberOfBytes": "96"
					},
					"t_struct(VoterDetails)20_storage": {
						"encoding": "inplace",
						"label": "struct ElectionSystem.VoterDetails",
						"members": [
							{
								"astId": 17,
								"contract": "contracts/votingappmario.sol:ElectionSystem",
								"label": "hasVoted",
								"offset": 0,
								"slot": "0",
								"type": "t_bool"
							},
							{
								"astId": 19,
								"contract": "contracts/votingappmario.sol:ElectionSystem",
								"label": "chosenCandidate",
								"offset": 0,
								"slot": "1",
								"type": "t_uint256"
							}
						],
						"numberOfBytes": "64"
					},
					"t_uint256": {
						"encoding": "inplace",
						"label": "uint256",
						"numberOfBytes": "32"
					}
				}
			},
			"userdoc": {
				"kind": "user",
				"methods": {},
				"version": 1
			}
		}
	}
}