{
	"data": {
		"bytecode": {
			"linkReferences": {},
			"object": "6080604052348015600e575f80fd5b5061075f8061001c5f395ff3fe608060405234801561000f575f80fd5b506004361061007b575f3560e01c8063a5f3c23b11610059578063a5f3c23b146100eb578063b93ea81214610107578063c04f01fc14610137578063f5984236146101675761007b565b80633c4308a81461007f57806352efea6e146100af57806365372147146100cd575b5f80fd5b610099600480360381019061009491906102a8565b610197565b6040516100a691906102f5565b60405180910390f35b6100b76101b3565b6040516100c491906102f5565b60405180910390f35b6100d56101c1565b6040516100e291906102f5565b60405180910390f35b610105600480360381019061010091906102a8565b6101c6565b005b610121600480360381019061011c91906102a8565b6101db565b60405161012e91906102f5565b60405180910390f35b610151600480360381019061014c9190610341565b6101f7565b60405161015e91906102f5565b60405180910390f35b610181600480360381019061017c91906102a8565b610213565b60405161018e91906102f5565b60405180910390f35b5f81836101a491906103ac565b5f819055505f54905092915050565b5f805f819055505f54905090565b5f5481565b80826101d29190610422565b5f819055505050565b5f81836101e89190610463565b5f819055505f54905092915050565b5f818361020491906105d2565b5f819055505f54905092915050565b5f808303610256576040517f08c379a000000000000000000000000000000000000000000000000000000000815260040161024d90610676565b60405180910390fd5b818361026291906106c1565b5f819055505f54905092915050565b5f80fd5b5f819050919050565b61028781610275565b8114610291575f80fd5b50565b5f813590506102a28161027e565b92915050565b5f80604083850312156102be576102bd610271565b5b5f6102cb85828601610294565b92505060206102dc85828601610294565b9150509250929050565b6102ef81610275565b82525050565b5f6020820190506103085f8301846102e6565b92915050565b5f819050919050565b6103208161030e565b811461032a575f80fd5b50565b5f8135905061033b81610317565b92915050565b5f806040838503121561035757610356610271565b5b5f6103648582860161032d565b92505060206103758582860161032d565b9150509250929050565b7f4e487b71000000000000000000000000000000000000000000000000000000005f52601160045260245ffd5b5f6103b682610275565b91506103c183610275565b92508282026103cf81610275565b91507f800000000000000000000000000000000000000000000000000000000000000084145f841216156104065761040561037f565b5b828205841483151761041b5761041a61037f565b5b5092915050565b5f61042c82610275565b915061043783610275565b92508282019050828112155f8312168382125f84121516171561045d5761045c61037f565b5b92915050565b5f61046d82610275565b915061047883610275565b925082820390508181125f8412168282135f85121516171561049d5761049c61037f565b5b92915050565b5f8160011c9050919050565b5f808291508390505b60018511156104f8578086048111156104d4576104d361037f565b5b60018516156104e35780820291505b80810290506104f1856104a3565b94506104b8565b94509492505050565b5f8261051057600190506105cb565b8161051d575f90506105cb565b8160018114610533576002811461053d5761056c565b60019150506105cb565b60ff84111561054f5761054e61037f565b5b8360020a9150848211156105665761056561037f565b5b506105cb565b5060208310610133831016604e8410600b84101617156105a15782820a90508381111561059c5761059b61037f565b5b6105cb565b6105ae84848460016104af565b925090508184048111156105c5576105c461037f565b5b81810290505b9392505050565b5f6105dc8261030e565b91506105e78361030e565b92506106147fffffffffffffffffffffffffffffffffffffffffffffffffffffffffffffffff8484610501565b905092915050565b5f82825260208201905092915050565b7f4469766973696f6e206279207a65726f206973206e6f7420616c6c6f776564005f82015250565b5f610660601f8361061c565b915061066b8261062c565b602082019050919050565b5f6020820190508181035f83015261068d81610654565b9050919050565b7f4e487b71000000000000000000000000000000000000000000000000000000005f52601260045260245ffd5b5f6106cb82610275565b91506106d683610275565b9250826106e6576106e5610694565b5b60015f0383147f80000000000000000000000000000000000000000000000000000000000000008314161561071e5761071d61037f565b5b82820590509291505056fea2646970667358221220fd61e92e0299de488b47c20d5daa679290efd914c0f8dcaafee91dc918c2682464736f6c634300081a0033",
			"opcodes": "PUSH1 0x80 PUSH1 0x40 MSTORE CALLVALUE DUP1 ISZERO PUSH1 0xE JUMPI PUSH0 DUP1 REVERT JUMPDEST POP PUSH2 0x75F DUP1 PUSH2 0x1C PUSH0 CODECOPY PUSH0 RETURN INVALID PUSH1 0x80 PUSH1 0x40 MSTORE CALLVALUE DUP1 ISZERO PUSH2 0xF JUMPI PUSH0 DUP1 REVERT JUMPDEST POP PUSH1 0x4 CALLDATASIZE LT PUSH2 0x7B JUMPI PUSH0 CALLDATALOAD PUSH1 0xE0 SHR DUP1 PUSH4 0xA5F3C23B GT PUSH2 0x59 JUMPI DUP1 PUSH4 0xA5F3C23B EQ PUSH2 0xEB JUMPI DUP1 PUSH4 0xB93EA812 EQ PUSH2 0x107 JUMPI DUP1 PUSH4 0xC04F01FC EQ PUSH2 0x137 JUMPI DUP1 PUSH4 0xF5984236 EQ PUSH2 0x167 JUMPI PUSH2 0x7B JUMP JUMPDEST DUP1 PUSH4 0x3C4308A8 EQ PUSH2 0x7F JUMPI DUP1 PUSH4 0x52EFEA6E EQ PUSH2 0xAF JUMPI DUP1 PUSH4 0x65372147 EQ PUSH2 0xCD JUMPI JUMPDEST PUSH0 DUP1 REVERT JUMPDEST PUSH2 0x99 PUSH1 0x4 DUP1 CALLDATASIZE SUB DUP2 ADD SWAP1 PUSH2 0x94 SWAP2 SWAP1 PUSH2 0x2A8 JUMP JUMPDEST PUSH2 0x197 JUMP JUMPDEST PUSH1 0x40 MLOAD PUSH2 0xA6 SWAP2 SWAP1 PUSH2 0x2F5 JUMP JUMPDEST PUSH1 0x40 MLOAD DUP1 SWAP2 SUB SWAP1 RETURN JUMPDEST PUSH2 0xB7 PUSH2 0x1B3 JUMP JUMPDEST PUSH1 0x40 MLOAD PUSH2 0xC4 SWAP2 SWAP1 PUSH2 0x2F5 JUMP JUMPDEST PUSH1 0x40 MLOAD DUP1 SWAP2 SUB SWAP1 RETURN JUMPDEST PUSH2 0xD5 PUSH2 0x1C1 JUMP JUMPDEST PUSH1 0x40 MLOAD PUSH2 0xE2 SWAP2 SWAP1 PUSH2 0x2F5 JUMP JUMPDEST PUSH1 0x40 MLOAD DUP1 SWAP2 SUB SWAP1 RETURN JUMPDEST PUSH2 0x105 PUSH1 0x4 DUP1 CALLDATASIZE SUB DUP2 ADD SWAP1 PUSH2 0x100 SWAP2 SWAP1 PUSH2 0x2A8 JUMP JUMPDEST PUSH2 0x1C6 JUMP JUMPDEST STOP JUMPDEST PUSH2 0x121 PUSH1 0x4 DUP1 CALLDATASIZE SUB DUP2 ADD SWAP1 PUSH2 0x11C SWAP2 SWAP1 PUSH2 0x2A8 JUMP JUMPDEST PUSH2 0x1DB JUMP JUMPDEST PUSH1 0x40 MLOAD PUSH2 0x12E SWAP2 SWAP1 PUSH2 0x2F5 JUMP JUMPDEST PUSH1 0x40 MLOAD DUP1 SWAP2 SUB SWAP1 RETURN JUMPDEST PUSH2 0x151 PUSH1 0x4 DUP1 CALLDATASIZE SUB DUP2 ADD SWAP1 PUSH2 0x14C SWAP2 SWAP1 PUSH2 0x341 JUMP JUMPDEST PUSH2 0x1F7 JUMP JUMPDEST PUSH1 0x40 MLOAD PUSH2 0x15E SWAP2 SWAP1 PUSH2 0x2F5 JUMP JUMPDEST PUSH1 0x40 MLOAD DUP1 SWAP2 SUB SWAP1 RETURN JUMPDEST PUSH2 0x181 PUSH1 0x4 DUP1 CALLDATASIZE SUB DUP2 ADD SWAP1 PUSH2 0x17C SWAP2 SWAP1 PUSH2 0x2A8 JUMP JUMPDEST PUSH2 0x213 JUMP JUMPDEST PUSH1 0x40 MLOAD PUSH2 0x18E SWAP2 SWAP1 PUSH2 0x2F5 JUMP JUMPDEST PUSH1 0x40 MLOAD DUP1 SWAP2 SUB SWAP1 RETURN JUMPDEST PUSH0 DUP2 DUP4 PUSH2 0x1A4 SWAP2 SWAP1 PUSH2 0x3AC JUMP JUMPDEST PUSH0 DUP2 SWAP1 SSTORE POP PUSH0 SLOAD SWAP1 POP SWAP3 SWAP2 POP POP JUMP JUMPDEST PUSH0 DUP1 PUSH0 DUP2 SWAP1 SSTORE POP PUSH0 SLOAD SWAP1 POP SWAP1 JUMP JUMPDEST PUSH0 SLOAD DUP2 JUMP JUMPDEST DUP1 DUP3 PUSH2 0x1D2 SWAP2 SWAP1 PUSH2 0x422 JUMP JUMPDEST PUSH0 DUP2 SWAP1 SSTORE POP POP POP JUMP JUMPDEST PUSH0 DUP2 DUP4 PUSH2 0x1E8 SWAP2 SWAP1 PUSH2 0x463 JUMP JUMPDEST PUSH0 DUP2 SWAP1 SSTORE POP PUSH0 SLOAD SWAP1 POP SWAP3 SWAP2 POP POP JUMP JUMPDEST PUSH0 DUP2 DUP4 PUSH2 0x204 SWAP2 SWAP1 PUSH2 0x5D2 JUMP JUMPDEST PUSH0 DUP2 SWAP1 SSTORE POP PUSH0 SLOAD SWAP1 POP SWAP3 SWAP2 POP POP JUMP JUMPDEST PUSH0 DUP1 DUP4 SUB PUSH2 0x256 JUMPI PUSH1 0x40 MLOAD PUSH32 0x8C379A000000000000000000000000000000000000000000000000000000000 DUP2 MSTORE PUSH1 0x4 ADD PUSH2 0x24D SWAP1 PUSH2 0x676 JUMP JUMPDEST PUSH1 0x40 MLOAD DUP1 SWAP2 SUB SWAP1 REVERT JUMPDEST DUP2 DUP4 PUSH2 0x262 SWAP2 SWAP1 PUSH2 0x6C1 JUMP JUMPDEST PUSH0 DUP2 SWAP1 SSTORE POP PUSH0 SLOAD SWAP1 POP SWAP3 SWAP2 POP POP JUMP JUMPDEST PUSH0 DUP1 REVERT JUMPDEST PUSH0 DUP2 SWAP1 POP SWAP2 SWAP1 POP JUMP JUMPDEST PUSH2 0x287 DUP2 PUSH2 0x275 JUMP JUMPDEST DUP2 EQ PUSH2 0x291 JUMPI PUSH0 DUP1 REVERT JUMPDEST POP JUMP JUMPDEST PUSH0 DUP2 CALLDATALOAD SWAP1 POP PUSH2 0x2A2 DUP2 PUSH2 0x27E JUMP JUMPDEST SWAP3 SWAP2 POP POP JUMP JUMPDEST PUSH0 DUP1 PUSH1 0x40 DUP4 DUP6 SUB SLT ISZERO PUSH2 0x2BE JUMPI PUSH2 0x2BD PUSH2 0x271 JUMP JUMPDEST JUMPDEST PUSH0 PUSH2 0x2CB DUP6 DUP3 DUP7 ADD PUSH2 0x294 JUMP JUMPDEST SWAP3 POP POP PUSH1 0x20 PUSH2 0x2DC DUP6 DUP3 DUP7 ADD PUSH2 0x294 JUMP JUMPDEST SWAP2 POP POP SWAP3 POP SWAP3 SWAP1 POP JUMP JUMPDEST PUSH2 0x2EF DUP2 PUSH2 0x275 JUMP JUMPDEST DUP3 MSTORE POP POP JUMP JUMPDEST PUSH0 PUSH1 0x20 DUP3 ADD SWAP1 POP PUSH2 0x308 PUSH0 DUP4 ADD DUP5 PUSH2 0x2E6 JUMP JUMPDEST SWAP3 SWAP2 POP POP JUMP JUMPDEST PUSH0 DUP2 SWAP1 POP SWAP2 SWAP1 POP JUMP JUMPDEST PUSH2 0x320 DUP2 PUSH2 0x30E JUMP JUMPDEST DUP2 EQ PUSH2 0x32A JUMPI PUSH0 DUP1 REVERT JUMPDEST POP JUMP JUMPDEST PUSH0 DUP2 CALLDATALOAD SWAP1 POP PUSH2 0x33B DUP2 PUSH2 0x317 JUMP JUMPDEST SWAP3 SWAP2 POP POP JUMP JUMPDEST PUSH0 DUP1 PUSH1 0x40 DUP4 DUP6 SUB SLT ISZERO PUSH2 0x357 JUMPI PUSH2 0x356 PUSH2 0x271 JUMP JUMPDEST JUMPDEST PUSH0 PUSH2 0x364 DUP6 DUP3 DUP7 ADD PUSH2 0x32D JUMP JUMPDEST SWAP3 POP POP PUSH1 0x20 PUSH2 0x375 DUP6 DUP3 DUP7 ADD PUSH2 0x32D JUMP JUMPDEST SWAP2 POP POP SWAP3 POP SWAP3 SWAP1 POP JUMP JUMPDEST PUSH32 0x4E487B7100000000000000000000000000000000000000000000000000000000 PUSH0 MSTORE PUSH1 0x11 PUSH1 0x4 MSTORE PUSH1 0x24 PUSH0 REVERT JUMPDEST PUSH0 PUSH2 0x3B6 DUP3 PUSH2 0x275 JUMP JUMPDEST SWAP2 POP PUSH2 0x3C1 DUP4 PUSH2 0x275 JUMP JUMPDEST SWAP3 POP DUP3 DUP3 MUL PUSH2 0x3CF DUP2 PUSH2 0x275 JUMP JUMPDEST SWAP2 POP PUSH32 0x8000000000000000000000000000000000000000000000000000000000000000 DUP5 EQ PUSH0 DUP5 SLT AND ISZERO PUSH2 0x406 JUMPI PUSH2 0x405 PUSH2 0x37F JUMP JUMPDEST JUMPDEST DUP3 DUP3 SDIV DUP5 EQ DUP4 ISZERO OR PUSH2 0x41B JUMPI PUSH2 0x41A PUSH2 0x37F JUMP JUMPDEST JUMPDEST POP SWAP3 SWAP2 POP POP JUMP JUMPDEST PUSH0 PUSH2 0x42C DUP3 PUSH2 0x275 JUMP JUMPDEST SWAP2 POP PUSH2 0x437 DUP4 PUSH2 0x275 JUMP JUMPDEST SWAP3 POP DUP3 DUP3 ADD SWAP1 POP DUP3 DUP2 SLT ISZERO PUSH0 DUP4 SLT AND DUP4 DUP3 SLT PUSH0 DUP5 SLT ISZERO AND OR ISZERO PUSH2 0x45D JUMPI PUSH2 0x45C PUSH2 0x37F JUMP JUMPDEST JUMPDEST SWAP3 SWAP2 POP POP JUMP JUMPDEST PUSH0 PUSH2 0x46D DUP3 PUSH2 0x275 JUMP JUMPDEST SWAP2 POP PUSH2 0x478 DUP4 PUSH2 0x275 JUMP JUMPDEST SWAP3 POP DUP3 DUP3 SUB SWAP1 POP DUP2 DUP2 SLT PUSH0 DUP5 SLT AND DUP3 DUP3 SGT PUSH0 DUP6 SLT ISZERO AND OR ISZERO PUSH2 0x49D JUMPI PUSH2 0x49C PUSH2 0x37F JUMP JUMPDEST JUMPDEST SWAP3 SWAP2 POP POP JUMP JUMPDEST PUSH0 DUP2 PUSH1 0x1 SHR SWAP1 POP SWAP2 SWAP1 POP JUMP JUMPDEST PUSH0 DUP1 DUP3 SWAP2 POP DUP4 SWAP1 POP JUMPDEST PUSH1 0x1 DUP6 GT ISZERO PUSH2 0x4F8 JUMPI DUP1 DUP7 DIV DUP2 GT ISZERO PUSH2 0x4D4 JUMPI PUSH2 0x4D3 PUSH2 0x37F JUMP JUMPDEST JUMPDEST PUSH1 0x1 DUP6 AND ISZERO PUSH2 0x4E3 JUMPI DUP1 DUP3 MUL SWAP2 POP JUMPDEST DUP1 DUP2 MUL SWAP1 POP PUSH2 0x4F1 DUP6 PUSH2 0x4A3 JUMP JUMPDEST SWAP5 POP PUSH2 0x4B8 JUMP JUMPDEST SWAP5 POP SWAP5 SWAP3 POP POP POP JUMP JUMPDEST PUSH0 DUP3 PUSH2 0x510 JUMPI PUSH1 0x1 SWAP1 POP PUSH2 0x5CB JUMP JUMPDEST DUP2 PUSH2 0x51D JUMPI PUSH0 SWAP1 POP PUSH2 0x5CB JUMP JUMPDEST DUP2 PUSH1 0x1 DUP2 EQ PUSH2 0x533 JUMPI PUSH1 0x2 DUP2 EQ PUSH2 0x53D JUMPI PUSH2 0x56C JUMP JUMPDEST PUSH1 0x1 SWAP2 POP POP PUSH2 0x5CB JUMP JUMPDEST PUSH1 0xFF DUP5 GT ISZERO PUSH2 0x54F JUMPI PUSH2 0x54E PUSH2 0x37F JUMP JUMPDEST JUMPDEST DUP4 PUSH1 0x2 EXP SWAP2 POP DUP5 DUP3 GT ISZERO PUSH2 0x566 JUMPI PUSH2 0x565 PUSH2 0x37F JUMP JUMPDEST JUMPDEST POP PUSH2 0x5CB JUMP JUMPDEST POP PUSH1 0x20 DUP4 LT PUSH2 0x133 DUP4 LT AND PUSH1 0x4E DUP5 LT PUSH1 0xB DUP5 LT AND OR ISZERO PUSH2 0x5A1 JUMPI DUP3 DUP3 EXP SWAP1 POP DUP4 DUP2 GT ISZERO PUSH2 0x59C JUMPI PUSH2 0x59B PUSH2 0x37F JUMP JUMPDEST JUMPDEST PUSH2 0x5CB JUMP JUMPDEST PUSH2 0x5AE DUP5 DUP5 DUP5 PUSH1 0x1 PUSH2 0x4AF JUMP JUMPDEST SWAP3 POP SWAP1 POP DUP2 DUP5 DIV DUP2 GT ISZERO PUSH2 0x5C5 JUMPI PUSH2 0x5C4 PUSH2 0x37F JUMP JUMPDEST JUMPDEST DUP2 DUP2 MUL SWAP1 POP JUMPDEST SWAP4 SWAP3 POP POP POP JUMP JUMPDEST PUSH0 PUSH2 0x5DC DUP3 PUSH2 0x30E JUMP JUMPDEST SWAP2 POP PUSH2 0x5E7 DUP4 PUSH2 0x30E JUMP JUMPDEST SWAP3 POP PUSH2 0x614 PUSH32 0xFFFFFFFFFFFFFFFFFFFFFFFFFFFFFFFFFFFFFFFFFFFFFFFFFFFFFFFFFFFFFFFF DUP5 DUP5 PUSH2 0x501 JUMP JUMPDEST SWAP1 POP SWAP3 SWAP2 POP POP JUMP JUMPDEST PUSH0 DUP3 DUP3 MSTORE PUSH1 0x20 DUP3 ADD SWAP1 POP SWAP3 SWAP2 POP POP JUMP JUMPDEST PUSH32 0x4469766973696F6E206279207A65726F206973206E6F7420616C6C6F77656400 PUSH0 DUP3 ADD MSTORE POP JUMP JUMPDEST PUSH0 PUSH2 0x660 PUSH1 0x1F DUP4 PUSH2 0x61C JUMP JUMPDEST SWAP2 POP PUSH2 0x66B DUP3 PUSH2 0x62C JUMP JUMPDEST PUSH1 0x20 DUP3 ADD SWAP1 POP SWAP2 SWAP1 POP JUMP JUMPDEST PUSH0 PUSH1 0x20 DUP3 ADD SWAP1 POP DUP2 DUP2 SUB PUSH0 DUP4 ADD MSTORE PUSH2 0x68D DUP2 PUSH2 0x654 JUMP JUMPDEST SWAP1 POP SWAP2 SWAP1 POP JUMP JUMPDEST PUSH32 0x4E487B7100000000000000000000000000000000000000000000000000000000 PUSH0 MSTORE PUSH1 0x12 PUSH1 0x4 MSTORE PUSH1 0x24 PUSH0 REVERT JUMPDEST PUSH0 PUSH2 0x6CB DUP3 PUSH2 0x275 JUMP JUMPDEST SWAP2 POP PUSH2 0x6D6 DUP4 PUSH2 0x275 JUMP JUMPDEST SWAP3 POP DUP3 PUSH2 0x6E6 JUMPI PUSH2 0x6E5 PUSH2 0x694 JUMP JUMPDEST JUMPDEST PUSH1 0x1 PUSH0 SUB DUP4 EQ PUSH32 0x8000000000000000000000000000000000000000000000000000000000000000 DUP4 EQ AND ISZERO PUSH2 0x71E JUMPI PUSH2 0x71D PUSH2 0x37F JUMP JUMPDEST JUMPDEST DUP3 DUP3 SDIV SWAP1 POP SWAP3 SWAP2 POP POP JUMP INVALID LOG2 PUSH5 0x6970667358 0x22 SLT KECCAK256 REVERT PUSH2 0xE92E MUL SWAP10 0xDE BASEFEE DUP12 SELFBALANCE 0xC2 0xD TSTORE 0xAA PUSH8 0x9290EFD914C0F8DC 0xAA INVALID 0xE9 SAR 0xC9 XOR 0xC2 PUSH9 0x2464736F6C63430008 BYTE STOP CALLER "
		},
		"gasEstimates": {
			"creation": {
				"codeDepositCost": "377400",
				"executionCost": "409",
				"totalCost": "377809"
			},
			"external": {
				"add(int256,int256)": "infinite",
				"clear()": "7467",
				"divide(int256,int256)": "infinite",
				"multiply(int256,int256)": "infinite",
				"power(uint256,uint256)": "infinite",
				"result()": "2469",
				"subtract(int256,int256)": "infinite"
			}
		},
		"methodIdentifiers": {
			"add(int256,int256)": "a5f3c23b",
			"clear()": "52efea6e",
			"divide(int256,int256)": "f5984236",
			"multiply(int256,int256)": "3c4308a8",
			"power(uint256,uint256)": "c04f01fc",
			"result()": "65372147",
			"subtract(int256,int256)": "b93ea812"
		}
	},
	"abi": [
		{
			"inputs": [
				{
					"internalType": "int256",
					"name": "a",
					"type": "int256"
				},
				{
					"internalType": "int256",
					"name": "b",
					"type": "int256"
				}
			],
			"name": "add",
			"outputs": [],
			"stateMutability": "nonpayable",
			"type": "function"
		},
		{
			"inputs": [],
			"name": "clear",
			"outputs": [
				{
					"internalType": "int256",
					"name": "",
					"type": "int256"
				}
			],
			"stateMutability": "nonpayable",
			"type": "function"
		},
		{
			"inputs": [
				{
					"internalType": "int256",
					"name": "a",
					"type": "int256"
				},
				{
					"internalType": "int256",
					"name": "b",
					"type": "int256"
				}
			],
			"name": "divide",
			"outputs": [
				{
					"internalType": "int256",
					"name": "",
					"type": "int256"
				}
			],
			"stateMutability": "nonpayable",
			"type": "function"
		},
		{
			"inputs": [
				{
					"internalType": "int256",
					"name": "a",
					"type": "int256"
				},
				{
					"internalType": "int256",
					"name": "b",
					"type": "int256"
				}
			],
			"name": "multiply",
			"outputs": [
				{
					"internalType": "int256",
					"name": "",
					"type": "int256"
				}
			],
			"stateMutability": "nonpayable",
			"type": "function"
		},
		{
			"inputs": [
				{
					"internalType": "uint256",
					"name": "a",
					"type": "uint256"
				},
				{
					"internalType": "uint256",
					"name": "exponent",
					"type": "uint256"
				}
			],
			"name": "power",
			"outputs": [
				{
					"internalType": "int256",
					"name": "",
					"type": "int256"
				}
			],
			"stateMutability": "nonpayable",
			"type": "function"
		},
		{
			"inputs": [],
			"name": "result",
			"outputs": [
				{
					"internalType": "int256",
					"name": "",
					"type": "int256"
				}
			],
			"stateMutability": "view",
			"type": "function"
		},
		{
			"inputs": [
				{
					"internalType": "int256",
					"name": "a",
					"type": "int256"
				},
				{
					"internalType": "int256",
					"name": "b",
					"type": "int256"
				}
			],
			"name": "subtract",
			"outputs": [
				{
					"internalType": "int256",
					"name": "",
					"type": "int256"
				}
			],
			"stateMutability": "nonpayable",
			"type": "function"
		}
	]
}